{
  "address": "0x5FbDB2315678afecb367f032d93F642f64180aa3",
  "abi": [
    {
      "inputs": [
        {
          "internalType": "string",
          "name": "_sportsOracleURI",
          "type": "string"
        },
        {
          "internalType": "address",
          "name": "_oracle",
          "type": "address"
        },
        {
          "internalType": "address",
          "name": "_link",
          "type": "address"
        },
        {
          "internalType": "bytes32",
          "name": "_jobId",
          "type": "bytes32"
        },
        {
          "internalType": "uint256",
          "name": "_fee",
          "type": "uint256"
        }
      ],
      "stateMutability": "nonpayable",
      "type": "constructor"
    },
    {
      "anonymous": false,
      "inputs": [
        {
          "indexed": true,
          "internalType": "address",
          "name": "better",
          "type": "address"
        },
        {
          "indexed": false,
          "internalType": "string",
          "name": "fixtureID",
          "type": "string"
        },
        {
          "indexed": false,
          "internalType": "uint256",
          "name": "amount",
          "type": "uint256"
        }
      ],
      "name": "BetPayout",
      "type": "event"
    },
    {
      "anonymous": false,
      "inputs": [
        {
          "indexed": false,
          "internalType": "string",
          "name": "fixtureID",
          "type": "string"
        },
        {
          "indexed": false,
          "internalType": "string",
          "name": "reason",
          "type": "string"
        }
      ],
      "name": "BetPayoutFulfillmentError",
      "type": "event"
    },
    {
      "anonymous": false,
      "inputs": [
        {
          "indexed": true,
          "internalType": "address",
          "name": "better",
          "type": "address"
        },
        {
          "indexed": false,
          "internalType": "string",
          "name": "fixtureID",
          "type": "string"
        },
        {
          "indexed": false,
          "internalType": "uint256",
          "name": "amount",
          "type": "uint256"
        },
        {
          "indexed": false,
          "internalType": "enum SportsBetting.BetType",
          "name": "betType",
          "type": "uint8"
        }
      ],
      "name": "BetStaked",
      "type": "event"
    },
    {
      "anonymous": false,
      "inputs": [
        {
          "indexed": true,
          "internalType": "address",
          "name": "better",
          "type": "address"
        },
        {
          "indexed": false,
          "internalType": "string",
          "name": "fixtureID",
          "type": "string"
        },
        {
          "indexed": false,
          "internalType": "uint256",
          "name": "amount",
          "type": "uint256"
        },
        {
          "indexed": false,
          "internalType": "enum SportsBetting.BetType",
          "name": "betType",
          "type": "uint8"
        }
      ],
      "name": "BetUnstaked",
      "type": "event"
    },
    {
      "anonymous": false,
      "inputs": [
        {
          "indexed": false,
          "internalType": "string",
          "name": "fixtureID",
          "type": "string"
        },
        {
          "indexed": false,
          "internalType": "enum SportsBetting.BettingState",
          "name": "state",
          "type": "uint8"
        }
      ],
      "name": "BettingStateChanged",
      "type": "event"
    },
    {
      "anonymous": false,
      "inputs": [
        {
          "indexed": true,
          "internalType": "bytes32",
          "name": "id",
          "type": "bytes32"
        }
      ],
      "name": "ChainlinkCancelled",
      "type": "event"
    },
    {
      "anonymous": false,
      "inputs": [
        {
          "indexed": true,
          "internalType": "bytes32",
          "name": "id",
          "type": "bytes32"
        }
      ],
      "name": "ChainlinkFulfilled",
      "type": "event"
    },
    {
      "anonymous": false,
      "inputs": [
        {
          "indexed": true,
          "internalType": "bytes32",
          "name": "id",
          "type": "bytes32"
        }
      ],
      "name": "ChainlinkRequested",
      "type": "event"
    },
    {
      "anonymous": false,
      "inputs": [
        {
          "indexed": false,
          "internalType": "string",
          "name": "fixtureID",
          "type": "string"
        },
        {
          "indexed": false,
          "internalType": "uint256",
          "name": "kickoffTime",
          "type": "uint256"
        }
      ],
      "name": "KickoffTimeUpdated",
      "type": "event"
    },
    {
      "anonymous": false,
      "inputs": [
        {
          "indexed": true,
          "internalType": "address",
          "name": "from",
          "type": "address"
        },
        {
          "indexed": true,
          "internalType": "address",
          "name": "to",
          "type": "address"
        }
      ],
      "name": "OwnershipTransferRequested",
      "type": "event"
    },
    {
      "anonymous": false,
      "inputs": [
        {
          "indexed": true,
          "internalType": "address",
          "name": "from",
          "type": "address"
        },
        {
          "indexed": true,
          "internalType": "address",
          "name": "to",
          "type": "address"
        }
      ],
      "name": "OwnershipTransferred",
      "type": "event"
    },
    {
      "anonymous": false,
      "inputs": [
        {
          "indexed": true,
          "internalType": "bytes32",
          "name": "requestId",
          "type": "bytes32"
        },
        {
          "indexed": false,
          "internalType": "string",
          "name": "fixtureID",
          "type": "string"
        },
        {
          "indexed": false,
          "internalType": "uint256",
          "name": "kickoff",
          "type": "uint256"
        }
      ],
      "name": "RequestFixtureKickoffFulfilled",
      "type": "event"
    },
    {
      "anonymous": false,
      "inputs": [
        {
          "indexed": true,
          "internalType": "bytes32",
          "name": "requestId",
          "type": "bytes32"
        },
        {
          "indexed": false,
          "internalType": "string",
          "name": "fixtureID",
          "type": "string"
        },
        {
          "indexed": false,
          "internalType": "uint256",
          "name": "result",
          "type": "uint256"
        }
      ],
      "name": "RequestFixtureResultFulfilled",
      "type": "event"
    },
    {
      "anonymous": false,
      "inputs": [
        {
          "indexed": true,
          "internalType": "bytes32",
          "name": "requestId",
          "type": "bytes32"
        },
        {
          "indexed": false,
          "internalType": "string",
          "name": "fixtureID",
          "type": "string"
        }
      ],
      "name": "RequestedFixtureKickoff",
      "type": "event"
    },
    {
      "anonymous": false,
      "inputs": [
        {
          "indexed": true,
          "internalType": "bytes32",
          "name": "requestId",
          "type": "bytes32"
        },
        {
          "indexed": false,
          "internalType": "string",
          "name": "fixtureID",
          "type": "string"
        }
      ],
      "name": "RequestedFixtureResult",
      "type": "event"
    },
    {
      "inputs": [],
      "name": "acceptOwnership",
      "outputs": [],
      "stateMutability": "nonpayable",
      "type": "function"
    },
    {
      "inputs": [
        {
          "internalType": "string",
          "name": "",
          "type": "string"
        },
        {
          "internalType": "enum SportsBetting.BetType",
          "name": "",
          "type": "uint8"
        },
        {
          "internalType": "address",
          "name": "",
          "type": "address"
        }
      ],
      "name": "activeBetters",
      "outputs": [
        {
          "internalType": "bool",
          "name": "",
          "type": "bool"
        }
      ],
      "stateMutability": "view",
      "type": "function"
    },
    {
      "inputs": [
        {
          "internalType": "string",
          "name": "",
          "type": "string"
        },
        {
          "internalType": "enum SportsBetting.BetType",
          "name": "",
          "type": "uint8"
        },
        {
          "internalType": "address",
          "name": "",
          "type": "address"
        }
      ],
      "name": "amounts",
      "outputs": [
        {
          "internalType": "uint256",
          "name": "",
          "type": "uint256"
        }
      ],
      "stateMutability": "view",
      "type": "function"
    },
    {
      "inputs": [
        {
          "internalType": "string",
          "name": "fixtureID",
          "type": "string"
        }
      ],
      "name": "awaitBetForFixture",
      "outputs": [],
      "stateMutability": "nonpayable",
      "type": "function"
    },
    {
      "inputs": [],
      "name": "betAdvanceTime",
      "outputs": [
        {
          "internalType": "uint256",
          "name": "",
          "type": "uint256"
        }
      ],
      "stateMutability": "view",
      "type": "function"
    },
    {
      "inputs": [],
      "name": "betCutOffTime",
      "outputs": [
        {
          "internalType": "uint256",
          "name": "",
          "type": "uint256"
        }
      ],
      "stateMutability": "view",
      "type": "function"
    },
    {
      "inputs": [
        {
          "internalType": "uint256",
          "name": "",
          "type": "uint256"
        }
      ],
      "name": "betTypes",
      "outputs": [
        {
          "internalType": "enum SportsBetting.BetType",
          "name": "",
          "type": "uint8"
        }
      ],
      "stateMutability": "view",
      "type": "function"
    },
    {
      "inputs": [
        {
          "internalType": "string",
          "name": "",
          "type": "string"
        }
      ],
      "name": "bettingState",
      "outputs": [
        {
          "internalType": "enum SportsBetting.BettingState",
          "name": "",
          "type": "uint8"
        }
      ],
      "stateMutability": "view",
      "type": "function"
    },
    {
      "inputs": [],
      "name": "chainlink",
      "outputs": [
        {
          "internalType": "address",
          "name": "",
          "type": "address"
        }
      ],
      "stateMutability": "view",
      "type": "function"
    },
    {
      "inputs": [
        {
          "internalType": "string",
          "name": "fixtureID",
          "type": "string"
        }
      ],
      "name": "closeBetForFixture",
      "outputs": [],
      "stateMutability": "nonpayable",
      "type": "function"
    },
    {
      "inputs": [],
      "name": "entranceFee",
      "outputs": [
        {
          "internalType": "uint256",
          "name": "",
          "type": "uint256"
        }
      ],
      "stateMutability": "view",
      "type": "function"
    },
    {
      "inputs": [],
      "name": "fixtureResult",
      "outputs": [
        {
          "internalType": "string",
          "name": "",
          "type": "string"
        }
      ],
      "stateMutability": "view",
      "type": "function"
    },
    {
      "inputs": [
        {
          "internalType": "string",
          "name": "",
          "type": "string"
        }
      ],
      "name": "fixtureToKickoffTime",
      "outputs": [
        {
          "internalType": "uint256",
          "name": "",
          "type": "uint256"
        }
      ],
      "stateMutability": "view",
      "type": "function"
    },
    {
      "inputs": [
        {
          "internalType": "string",
          "name": "fixtureID",
          "type": "string"
        }
      ],
      "name": "fulfillBetForFixture",
      "outputs": [],
      "stateMutability": "nonpayable",
      "type": "function"
    },
    {
      "inputs": [
        {
          "internalType": "string",
          "name": "fixtureID",
          "type": "string"
        }
      ],
      "name": "getEnrichedFixtureData",
      "outputs": [
        {
          "components": [
            {
              "internalType": "enum SportsBetting.BettingState",
              "name": "fixtureState",
              "type": "uint8"
            },
            {
              "components": [
                {
                  "internalType": "uint256",
                  "name": "home",
                  "type": "uint256"
                },
                {
                  "internalType": "uint256",
                  "name": "draw",
                  "type": "uint256"
                },
                {
                  "internalType": "uint256",
                  "name": "away",
                  "type": "uint256"
                }
              ],
              "internalType": "struct SportsBetting.StakeSummary",
              "name": "total",
              "type": "tuple"
            },
            {
              "components": [
                {
                  "internalType": "uint256",
                  "name": "home",
                  "type": "uint256"
                },
                {
                  "internalType": "uint256",
                  "name": "draw",
                  "type": "uint256"
                },
                {
                  "internalType": "uint256",
                  "name": "away",
                  "type": "uint256"
                }
              ],
              "internalType": "struct SportsBetting.StakeSummary",
              "name": "user",
              "type": "tuple"
            }
          ],
          "internalType": "struct SportsBetting.FixtureEnrichment",
          "name": "",
          "type": "tuple"
        }
      ],
      "stateMutability": "nonpayable",
      "type": "function"
    },
    {
      "inputs": [
        {
          "internalType": "string",
          "name": "",
          "type": "string"
        },
        {
          "internalType": "enum SportsBetting.BetType",
          "name": "",
          "type": "uint8"
        },
        {
          "internalType": "uint256",
          "name": "",
          "type": "uint256"
        }
      ],
      "name": "historicalBetters",
      "outputs": [
        {
          "internalType": "address",
          "name": "",
          "type": "address"
        }
      ],
      "stateMutability": "view",
      "type": "function"
    },
    {
      "inputs": [
        {
          "internalType": "string",
          "name": "fixtureID",
          "type": "string"
        }
      ],
      "name": "openBetForFixture",
      "outputs": [],
      "stateMutability": "nonpayable",
      "type": "function"
    },
    {
      "inputs": [],
      "name": "owner",
      "outputs": [
        {
          "internalType": "address",
          "name": "",
          "type": "address"
        }
      ],
      "stateMutability": "view",
      "type": "function"
    },
    {
      "inputs": [
        {
          "internalType": "bytes32",
          "name": "_requestId",
          "type": "bytes32"
        },
        {
          "internalType": "uint256",
          "name": "_ko",
          "type": "uint256"
        }
      ],
      "name": "rawFulfillFixtureKickoffTime",
      "outputs": [],
      "stateMutability": "nonpayable",
      "type": "function"
    },
    {
      "inputs": [
        {
          "internalType": "bytes32",
          "name": "_requestId",
          "type": "bytes32"
        },
        {
          "internalType": "uint256",
          "name": "_result",
          "type": "uint256"
        }
      ],
      "name": "rawFulfillFixtureResult",
      "outputs": [],
      "stateMutability": "nonpayable",
      "type": "function"
    },
    {
      "inputs": [
        {
          "internalType": "string",
          "name": "fixtureID",
          "type": "string"
        }
      ],
      "name": "requestFixtureKickoffTimeParameter",
      "outputs": [
        {
          "internalType": "bytes32",
          "name": "",
          "type": "bytes32"
        }
      ],
      "stateMutability": "nonpayable",
      "type": "function"
    },
    {
      "inputs": [
        {
          "internalType": "string",
          "name": "fixtureID",
          "type": "string"
        }
      ],
      "name": "requestFixtureResultParameter",
      "outputs": [
        {
          "internalType": "bytes32",
          "name": "",
          "type": "bytes32"
        }
      ],
      "stateMutability": "nonpayable",
      "type": "function"
    },
    {
      "inputs": [
        {
          "internalType": "bytes32",
          "name": "",
          "type": "bytes32"
        }
      ],
      "name": "requestKickoffToFixture",
      "outputs": [
        {
          "internalType": "string",
          "name": "",
          "type": "string"
        }
      ],
      "stateMutability": "view",
      "type": "function"
    },
    {
      "inputs": [
        {
          "internalType": "bytes32",
          "name": "",
          "type": "bytes32"
        }
      ],
      "name": "requestResultToFixture",
      "outputs": [
        {
          "internalType": "string",
          "name": "",
          "type": "string"
        }
      ],
      "stateMutability": "view",
      "type": "function"
    },
    {
      "inputs": [],
      "name": "sportsOracleURI",
      "outputs": [
        {
          "internalType": "string",
          "name": "",
          "type": "string"
        }
      ],
      "stateMutability": "view",
      "type": "function"
    },
    {
      "inputs": [
        {
          "internalType": "string",
          "name": "fixtureID",
          "type": "string"
        },
        {
          "internalType": "enum SportsBetting.BetType",
          "name": "betType",
          "type": "uint8"
        }
      ],
      "name": "stake",
      "outputs": [],
      "stateMutability": "payable",
      "type": "function"
    },
    {
      "inputs": [
        {
          "internalType": "address",
          "name": "to",
          "type": "address"
        }
      ],
      "name": "transferOwnership",
      "outputs": [],
      "stateMutability": "nonpayable",
      "type": "function"
    },
    {
      "inputs": [
        {
          "internalType": "string",
          "name": "fixtureID",
          "type": "string"
        },
        {
          "internalType": "enum SportsBetting.BetType",
          "name": "betType",
          "type": "uint8"
        },
        {
          "internalType": "uint256",
          "name": "amount",
          "type": "uint256"
        }
      ],
      "name": "unstake",
      "outputs": [],
      "stateMutability": "nonpayable",
      "type": "function"
    },
    {
      "inputs": [],
      "name": "withdrawLink",
      "outputs": [],
      "stateMutability": "nonpayable",
      "type": "function"
    }
  ],
  "transactionHash": "0x6dc29907e0d474606b4c78937c0562d55dcb086d6f95dcf79f821814da2a65cb",
  "args": [
    "localhost:5000/",
    "0xcc79157eb46f5624204f47ab42b3906caa40eab7",
    "0x326C977E6efc84E512bB9C30f76E30c160eD06FB",
    "0x3764383061363338366566353433613361626235323831376636373037653362",
    "100000000000000000"
  ],
  "numDeployments": 1,
  "solcInputHash": "23e61d01b50517b14244e727771b4f45",
  "bytecode": "0x60806040526001600455655af3107a4000600e5562093a80600f556115186010553480156200002d57600080fd5b5060405162006308380380620063088339818101604052810190620000539190620008b8565b8484848484338060008073ffffffffffffffffffffffffffffffffffffffff168273ffffffffffffffffffffffffffffffffffffffff161415620000ce576040517f08c379a0000000000000000000000000000000000000000000000000000000008152600401620000c590620009c0565b60405180910390fd5b81600660006101000a81548173ffffffffffffffffffffffffffffffffffffffff021916908373ffffffffffffffffffffffffffffffffffffffff160217905550600073ffffffffffffffffffffffffffffffffffffffff168173ffffffffffffffffffffffffffffffffffffffff1614620001565762000155816200030760201b60201c565b5b50505084600990805190602001906200017192919062000590565b5062000183836200043960201b60201c565b62000194846200047d60201b60201c565b83600860006101000a81548173ffffffffffffffffffffffffffffffffffffffff021916908373ffffffffffffffffffffffffffffffffffffffff16021790555081600a8190555080600b81905550505050505062000218604051806060016040528060318152602001620062d76031913986620004c160201b62001ccb1760201c565b6000600d600060038110620002325762000231620009e2565b5b602091828204019190066101000a81548160ff021916908360028111156200025f576200025e62000a11565b5b02179055506001600d6001600381106200027e576200027d620009e2565b5b602091828204019190066101000a81548160ff02191690836002811115620002ab57620002aa62000a11565b5b02179055506002600d600260038110620002ca57620002c9620009e2565b5b602091828204019190066101000a81548160ff02191690836002811115620002f757620002f662000a11565b5b0217905550505050505062000b9e565b3373ffffffffffffffffffffffffffffffffffffffff168173ffffffffffffffffffffffffffffffffffffffff16141562000379576040517f08c379a0000000000000000000000000000000000000000000000000000000008152600401620003709062000a90565b60405180910390fd5b80600760006101000a81548173ffffffffffffffffffffffffffffffffffffffff021916908373ffffffffffffffffffffffffffffffffffffffff1602179055508073ffffffffffffffffffffffffffffffffffffffff16600660009054906101000a900473ffffffffffffffffffffffffffffffffffffffff1673ffffffffffffffffffffffffffffffffffffffff167fed8889f560326eb138920d842192f0eb3dd22b4f139c87a2c57538e05bae127860405160405180910390a350565b80600260006101000a81548173ffffffffffffffffffffffffffffffffffffffff021916908373ffffffffffffffffffffffffffffffffffffffff16021790555050565b80600360006101000a81548173ffffffffffffffffffffffffffffffffffffffff021916908373ffffffffffffffffffffffffffffffffffffffff16021790555050565b620005638282604051602401620004da92919062000afe565b6040516020818303038152906040527f4b5c4277000000000000000000000000000000000000000000000000000000007bffffffffffffffffffffffffffffffffffffffffffffffffffffffff19166020820180517bffffffffffffffffffffffffffffffffffffffffffffffffffffffff83818316178352505050506200056760201b60201c565b5050565b60008151905060006a636f6e736f6c652e6c6f679050602083016000808483855afa5050505050565b8280546200059e9062000b68565b90600052602060002090601f016020900481019282620005c257600085556200060e565b82601f10620005dd57805160ff19168380011785556200060e565b828001600101855582156200060e579182015b828111156200060d578251825591602001919060010190620005f0565b5b5090506200061d919062000621565b5090565b5b808211156200063c57600081600090555060010162000622565b5090565b6000604051905090565b600080fd5b600080fd5b600080fd5b600080fd5b6000601f19601f8301169050919050565b7f4e487b7100000000000000000000000000000000000000000000000000000000600052604160045260246000fd5b620006a9826200065e565b810181811067ffffffffffffffff82111715620006cb57620006ca6200066f565b5b80604052505050565b6000620006e062000640565b9050620006ee82826200069e565b919050565b600067ffffffffffffffff8211156200071157620007106200066f565b5b6200071c826200065e565b9050602081019050919050565b60005b83811015620007495780820151818401526020810190506200072c565b8381111562000759576000848401525b50505050565b6000620007766200077084620006f3565b620006d4565b90508281526020810184848401111562000795576200079462000659565b5b620007a284828562000729565b509392505050565b600082601f830112620007c257620007c162000654565b5b8151620007d48482602086016200075f565b91505092915050565b600073ffffffffffffffffffffffffffffffffffffffff82169050919050565b60006200080a82620007dd565b9050919050565b6200081c81620007fd565b81146200082857600080fd5b50565b6000815190506200083c8162000811565b92915050565b6000819050919050565b620008578162000842565b81146200086357600080fd5b50565b60008151905062000877816200084c565b92915050565b6000819050919050565b62000892816200087d565b81146200089e57600080fd5b50565b600081519050620008b28162000887565b92915050565b600080600080600060a08688031215620008d757620008d66200064a565b5b600086015167ffffffffffffffff811115620008f857620008f76200064f565b5b6200090688828901620007aa565b955050602062000919888289016200082b565b94505060406200092c888289016200082b565b93505060606200093f8882890162000866565b92505060806200095288828901620008a1565b9150509295509295909350565b600082825260208201905092915050565b7f43616e6e6f7420736574206f776e657220746f207a65726f0000000000000000600082015250565b6000620009a86018836200095f565b9150620009b58262000970565b602082019050919050565b60006020820190508181036000830152620009db8162000999565b9050919050565b7f4e487b7100000000000000000000000000000000000000000000000000000000600052603260045260246000fd5b7f4e487b7100000000000000000000000000000000000000000000000000000000600052602160045260246000fd5b7f43616e6e6f74207472616e7366657220746f2073656c66000000000000000000600082015250565b600062000a786017836200095f565b915062000a858262000a40565b602082019050919050565b6000602082019050818103600083015262000aab8162000a69565b9050919050565b600081519050919050565b600062000aca8262000ab2565b62000ad681856200095f565b935062000ae881856020860162000729565b62000af3816200065e565b840191505092915050565b6000604082019050818103600083015262000b1a818562000abd565b9050818103602083015262000b30818462000abd565b90509392505050565b7f4e487b7100000000000000000000000000000000000000000000000000000000600052602260045260246000fd5b6000600282049050600182168062000b8157607f821691505b6020821081141562000b985762000b9762000b39565b5b50919050565b6157298062000bae6000396000f3fe6080604052600436106101c15760003560e01c80638dc654a2116100f7578063d8654c0811610095578063f2fde38b11610064578063f2fde38b14610656578063f46dccf01461067f578063f7c60c0c146106bc578063fbe91393146106e7576101c1565b8063d8654c081461058a578063e37685ec146105c7578063edb16070146105f0578063ef40efde1461062d576101c1565b8063b148cdf1116100d1578063b148cdf1146104a8578063c40bc66b146104d3578063c8fe739c14610510578063cbef85c21461054d576101c1565b80638dc654a2146104295780639c3feeb714610440578063aa0660901461046b576101c1565b806362098ff71161016457806379ba50971161013e57806379ba50971461038157806384f4614e146103985780638a71bfa8146103d55780638da5cb5b146103fe576101c1565b806362098ff7146102f0578063649677e11461032d5780636e2a3a8414610358576101c1565b80631d686ae4116101a05780631d686ae41461024357806340364d11146102805780634bfc91ee1461029c5780635e524319146102c7576101c1565b8062e1a75b146101c657806301ec29c9146101ef578063106246d814610218575b600080fd5b3480156101d257600080fd5b506101ed60048036038101906101e89190613f00565b610724565b005b3480156101fb57600080fd5b5061021660048036038101906102119190613f00565b6107c3565b005b34801561022457600080fd5b5061022d61086c565b60405161023a9190613f62565b60405180910390f35b34801561024f57600080fd5b5061026a60048036038101906102659190613f00565b610872565b6040516102779190613f96565b60405180910390f35b61029a60048036038101906102959190613fd6565b61098a565b005b3480156102a857600080fd5b506102b1610cc4565b6040516102be9190613f62565b60405180910390f35b3480156102d357600080fd5b506102ee60048036038101906102e9919061405e565b610cca565b005b3480156102fc57600080fd5b50610317600480360381019061031291906140cd565b611144565b6040516103249190614171565b60405180910390f35b34801561033957600080fd5b5061034261116e565b60405161034f9190613f62565b60405180910390f35b34801561036457600080fd5b5061037f600480360381019061037a9190613f00565b611174565b005b34801561038d57600080fd5b50610396611213565b005b3480156103a457600080fd5b506103bf60048036038101906103ba9190613f00565b6113aa565b6040516103cc9190614267565b60405180910390f35b3480156103e157600080fd5b506103fc60048036038101906103f791906142ae565b611452565b005b34801561040a57600080fd5b506104136114f0565b604051610420919061432f565b60405180910390f35b34801561043557600080fd5b5061043e61151a565b005b34801561044c57600080fd5b50610455611667565b604051610462919061432f565b60405180910390f35b34801561047757600080fd5b50610492600480360381019061048d9190614376565b61168d565b60405161049f9190613f62565b60405180910390f35b3480156104b457600080fd5b506104bd6116d5565b6040516104ca919061446d565b60405180910390f35b3480156104df57600080fd5b506104fa60048036038101906104f5919061448f565b611763565b604051610507919061446d565b60405180910390f35b34801561051c57600080fd5b506105376004803603810190610532919061405e565b611803565b604051610544919061432f565b60405180910390f35b34801561055957600080fd5b50610574600480360381019061056f9190614376565b611874565b60405161058191906144d7565b60405180910390f35b34801561059657600080fd5b506105b160048036038101906105ac9190613f00565b6118c6565b6040516105be9190613f96565b60405180910390f35b3480156105d357600080fd5b506105ee60048036038101906105e991906142ae565b6119de565b005b3480156105fc57600080fd5b5061061760048036038101906106129190613f00565b611a7c565b6040516106249190613f62565b60405180910390f35b34801561063957600080fd5b50610654600480360381019061064f9190613f00565b611aaa565b005b34801561066257600080fd5b5061067d600480360381019061067891906144f2565b611b53565b005b34801561068b57600080fd5b506106a660048036038101906106a1919061448f565b611b67565b6040516106b3919061446d565b60405180910390f35b3480156106c857600080fd5b506106d1611c07565b6040516106de919061446d565b60405180910390f35b3480156106f357600080fd5b5061070e60048036038101906107099190613f00565b611c95565b60405161071b919061452e565b60405180910390f35b60016004811115610738576107376140fa565b5b6015826040516107489190614585565b908152602001604051809103902060009054906101000a900460ff166004811115610776576107756140fa565b5b14156107b7576040517f08c379a00000000000000000000000000000000000000000000000000000000081526004016107ae906145e8565b60405180910390fd5b6107c081611d67565b50565b6107cb611dd8565b600260048111156107df576107de6140fa565b5b6015826040516107ef9190614585565b908152602001604051809103902060009054906101000a900460ff16600481111561081d5761081c6140fa565b5b141561085e576040517f08c379a000000000000000000000000000000000000000000000000000000000815260040161085590614654565b60405180910390fd5b610869816002611e6a565b50565b600f5481565b600080610889600a543063e37685ec60e01b611eed565b90506108f76040518060400160405280600381526020017f67657400000000000000000000000000000000000000000000000000000000008152506009856040516020016108d8929190614769565b60405160208183030381529060405283611f1e9092919063ffffffff16565b6109766040518060400160405280600481526020017f70617468000000000000000000000000000000000000000000000000000000008152506040518060400160405280600481526020017f302c6b6f0000000000000000000000000000000000000000000000000000000081525083611f1e9092919063ffffffff16565b61098281600b54611f51565b915050919050565b61099382611f88565b600160048111156109a7576109a66140fa565b5b6015836040516109b79190614585565b908152602001604051809103902060009054906101000a900460ff1660048111156109e5576109e46140fa565b5b14610a25576040517f08c379a0000000000000000000000000000000000000000000000000000000008152600401610a1c906147d9565b60405180910390fd5b600e54341015610a6a576040517f08c379a0000000000000000000000000000000000000000000000000000000008152600401610a6190614845565b60405180910390fd5b34601383604051610a7b9190614585565b90815260200160405180910390206000836002811115610a9e57610a9d6140fa565b5b6002811115610ab057610aaf6140fa565b5b815260200190815260200160002060003373ffffffffffffffffffffffffffffffffffffffff1673ffffffffffffffffffffffffffffffffffffffff1681526020019081526020016000206000828254610b0a9190614894565b92505081905550601182604051610b219190614585565b90815260200160405180910390206000826002811115610b4457610b436140fa565b5b6002811115610b5657610b556140fa565b5b8152602001908152602001600020339080600181540180825580915050600190039060005260206000200160009091909190916101000a81548173ffffffffffffffffffffffffffffffffffffffff021916908373ffffffffffffffffffffffffffffffffffffffff1602179055506001601283604051610bd79190614585565b90815260200160405180910390206000836002811115610bfa57610bf96140fa565b5b6002811115610c0c57610c0b6140fa565b5b815260200190815260200160002060003373ffffffffffffffffffffffffffffffffffffffff1673ffffffffffffffffffffffffffffffffffffffff16815260200190815260200160002060006101000a81548160ff0219169083151502179055503373ffffffffffffffffffffffffffffffffffffffff167f1a48cf6315f5f44cf8ac3a5105296caf8a73f64b40f9a6b7cbf8ba65ca930fd4833484604051610cb8939291906148ea565b60405180910390a25050565b60105481565b60008111610d0d576040517f08c379a0000000000000000000000000000000000000000000000000000000008152600401610d0490614974565b60405180910390fd5b610d1683611f88565b60016004811115610d2a57610d296140fa565b5b601584604051610d3a9190614585565b908152602001604051809103902060009054906101000a900460ff166004811115610d6857610d676140fa565b5b14610da8576040517f08c379a0000000000000000000000000000000000000000000000000000000008152600401610d9f906149e0565b60405180910390fd5b6000601384604051610dba9190614585565b90815260200160405180910390206000846002811115610ddd57610ddc6140fa565b5b6002811115610def57610dee6140fa565b5b815260200190815260200160002060003373ffffffffffffffffffffffffffffffffffffffff1673ffffffffffffffffffffffffffffffffffffffff16815260200190815260200160002054905060008111610e80576040517f08c379a0000000000000000000000000000000000000000000000000000000008152600401610e7790614a4c565b60405180910390fd5b80821115610ec3576040517f08c379a0000000000000000000000000000000000000000000000000000000008152600401610eba90614ab8565b60405180910390fd5b8181610ecf9190614ad8565b601385604051610edf9190614585565b90815260200160405180910390206000856002811115610f0257610f016140fa565b5b6002811115610f1457610f136140fa565b5b815260200190815260200160002060003373ffffffffffffffffffffffffffffffffffffffff1673ffffffffffffffffffffffffffffffffffffffff168152602001908152602001600020819055506000601385604051610f759190614585565b90815260200160405180910390206000856002811115610f9857610f976140fa565b5b6002811115610faa57610fa96140fa565b5b815260200190815260200160002060003373ffffffffffffffffffffffffffffffffffffffff1673ffffffffffffffffffffffffffffffffffffffff16815260200190815260200160002054116110a557600060128560405161100d9190614585565b908152602001604051809103902060008560028111156110305761102f6140fa565b5b6002811115611042576110416140fa565b5b815260200190815260200160002060003373ffffffffffffffffffffffffffffffffffffffff1673ffffffffffffffffffffffffffffffffffffffff16815260200190815260200160002060006101000a81548160ff0219169083151502179055505b3373ffffffffffffffffffffffffffffffffffffffff166108fc839081150290604051600060405180830381858888f193505050501580156110eb573d6000803e3d6000fd5b503373ffffffffffffffffffffffffffffffffffffffff167f0f3b118062ef97715cdb7fc34e6b3bc6bf1c6ddbbbbc4e8d6f13eff984080d08858486604051611136939291906148ea565b60405180910390a250505050565b600d816003811061115457600080fd5b60209182820401919006915054906101000a900460ff1681565b600e5481565b60026004811115611188576111876140fa565b5b6015826040516111989190614585565b908152602001604051809103902060009054906101000a900460ff1660048111156111c6576111c56140fa565b5b1415611207576040517f08c379a00000000000000000000000000000000000000000000000000000000081526004016111fe90614b58565b60405180910390fd5b611210816120ef565b50565b600760009054906101000a900473ffffffffffffffffffffffffffffffffffffffff1673ffffffffffffffffffffffffffffffffffffffff163373ffffffffffffffffffffffffffffffffffffffff16146112a3576040517f08c379a000000000000000000000000000000000000000000000000000000000815260040161129a90614bc4565b60405180910390fd5b6000600660009054906101000a900473ffffffffffffffffffffffffffffffffffffffff16905033600660006101000a81548173ffffffffffffffffffffffffffffffffffffffff021916908373ffffffffffffffffffffffffffffffffffffffff1602179055506000600760006101000a81548173ffffffffffffffffffffffffffffffffffffffff021916908373ffffffffffffffffffffffffffffffffffffffff1602179055503373ffffffffffffffffffffffffffffffffffffffff168173ffffffffffffffffffffffffffffffffffffffff167f8be0079c531659141344cd1fd0a4f28419497f9722a3daafe3b4186f6b6457e060405160405180910390a350565b6113b2613c1c565b60405180606001604052806015846040516113cd9190614585565b908152602001604051809103902060009054906101000a900460ff1660048111156113fb576113fa6140fa565b5b81526020016040518060600160405280611416866000612160565b8152602001611426866001612160565b8152602001611436866002612160565b815250815260200161144884336123b9565b8152509050919050565b600860009054906101000a900473ffffffffffffffffffffffffffffffffffffffff1673ffffffffffffffffffffffffffffffffffffffff163373ffffffffffffffffffffffffffffffffffffffff16146114e2576040517f08c379a00000000000000000000000000000000000000000000000000000000081526004016114d990614c30565b60405180910390fd5b6114ec8282612595565b5050565b6000600660009054906101000a900473ffffffffffffffffffffffffffffffffffffffff16905090565b611522611dd8565b600061152c6127f3565b90508073ffffffffffffffffffffffffffffffffffffffff1663a9059cbb338373ffffffffffffffffffffffffffffffffffffffff166370a08231306040518263ffffffff1660e01b8152600401611584919061432f565b602060405180830381865afa1580156115a1573d6000803e3d6000fd5b505050506040513d601f19601f820116820180604052508101906115c59190614c65565b6040518363ffffffff1660e01b81526004016115e2929190614c92565b6020604051808303816000875af1158015611601573d6000803e3d6000fd5b505050506040513d601f19601f820116820180604052508101906116259190614ce7565b611664576040517f08c379a000000000000000000000000000000000000000000000000000000000815260040161165b90614d60565b60405180910390fd5b50565b600860009054906101000a900473ffffffffffffffffffffffffffffffffffffffff1681565b60138380516020810182018051848252602083016020850120818352809550505050505060205281600052604060002060205280600052604060002060009250925050505481565b600980546116e2906146a3565b80601f016020809104026020016040519081016040528092919081815260200182805461170e906146a3565b801561175b5780601f106117305761010080835404028352916020019161175b565b820191906000526020600020905b81548152906001019060200180831161173e57829003601f168201915b505050505081565b60176020528060005260406000206000915090508054611782906146a3565b80601f01602080910402602001604051908101604052809291908181526020018280546117ae906146a3565b80156117fb5780601f106117d0576101008083540402835291602001916117fb565b820191906000526020600020905b8154815290600101906020018083116117de57829003601f168201915b505050505081565b601183805160208101820180518482526020830160208501208183528095505050505050602052816000526040600020818154811061184157600080fd5b90600052602060002001600092509250509054906101000a900473ffffffffffffffffffffffffffffffffffffffff1681565b601283805160208101820180518482526020830160208501208183528095505050505050602052816000526040600020602052806000526040600020600092509250509054906101000a900460ff1681565b6000806118dd600a5430638a71bfa860e01b611eed565b905061194b6040518060400160405280600381526020017f676574000000000000000000000000000000000000000000000000000000000081525060098560405160200161192c929190614769565b60405160208183030381529060405283611f1e9092919063ffffffff16565b6119ca6040518060400160405280600481526020017f70617468000000000000000000000000000000000000000000000000000000008152506040518060400160405280600881526020017f302c726573756c7400000000000000000000000000000000000000000000000081525083611f1e9092919063ffffffff16565b6119d681600b54611f51565b915050919050565b600860009054906101000a900473ffffffffffffffffffffffffffffffffffffffff1673ffffffffffffffffffffffffffffffffffffffff163373ffffffffffffffffffffffffffffffffffffffff1614611a6e576040517f08c379a0000000000000000000000000000000000000000000000000000000008152600401611a6590614c30565b60405180910390fd5b611a78828261281d565b5050565b6016818051602081018201805184825260208301602085012081835280955050505050506000915090505481565b611ab2611dd8565b60006004811115611ac657611ac56140fa565b5b601582604051611ad69190614585565b908152602001604051809103902060009054906101000a900460ff166004811115611b0457611b036140fa565b5b1415611b45576040517f08c379a0000000000000000000000000000000000000000000000000000000008152600401611b3c90614dcc565b60405180910390fd5b611b50816000611e6a565b50565b611b5b611dd8565b611b6481612a15565b50565b60186020528060005260406000206000915090508054611b86906146a3565b80601f0160208091040260200160405190810160405280929190818152602001828054611bb2906146a3565b8015611bff5780601f10611bd457610100808354040283529160200191611bff565b820191906000526020600020905b815481529060010190602001808311611be257829003601f168201915b505050505081565b600c8054611c14906146a3565b80601f0160208091040260200160405190810160405280929190818152602001828054611c40906146a3565b8015611c8d5780601f10611c6257610100808354040283529160200191611c8d565b820191906000526020600020905b815481529060010190602001808311611c7057829003601f168201915b505050505081565b6015818051602081018201805184825260208301602085012081835280955050505050506000915054906101000a900460ff1681565b611d638282604051602401611ce1929190614dec565b6040516020818303038152906040527f4b5c4277000000000000000000000000000000000000000000000000000000007bffffffffffffffffffffffffffffffffffffffffffffffffffffffff19166020820180517bffffffffffffffffffffffffffffffffffffffffffffffffffffffff8381831617835250505050612b44565b5050565b6000611d7282610872565b905081601760008381526020019081526020016000209080519060200190611d9b929190613c5b565b50807f45d732f7bcf8bc3eb58d8fd2fe72f5d05aa36dadc20e6c9989abd2a741d81cac83604051611dcc919061446d565b60405180910390a25050565b600660009054906101000a900473ffffffffffffffffffffffffffffffffffffffff1673ffffffffffffffffffffffffffffffffffffffff163373ffffffffffffffffffffffffffffffffffffffff1614611e68576040517f08c379a0000000000000000000000000000000000000000000000000000000008152600401611e5f90614e6f565b60405180910390fd5b565b80601583604051611e7b9190614585565b908152602001604051809103902060006101000a81548160ff02191690836004811115611eab57611eaa6140fa565b5b02179055507fe10ba6722d7a7a91bf343a0f8e5b026910dbc4a2ebca276930dff31703c59a708282604051611ee1929190614e8f565b60405180910390a15050565b611ef5613ce1565b611efd613ce1565b611f1485858584612b6d909392919063ffffffff16565b9150509392505050565b611f35828460800151612c1d90919063ffffffff16565b611f4c818460800151612c1d90919063ffffffff16565b505050565b6000611f80600360009054906101000a900473ffffffffffffffffffffffffffffffffffffffff168484612c42565b905092915050565b6000601682604051611f9a9190614585565b90815260200160405180910390205490506000811415611fba57506120ec565b60006004811115611fce57611fcd6140fa565b5b601583604051611fde9190614585565b908152602001604051809103902060009054906101000a900460ff16600481111561200c5761200b6140fa565b5b1480156120265750601054816120229190614ad8565b4211155b801561203f5750600f548161203b9190614ad8565b4210155b801561204e5750600060105414155b1561205f5761205e826001611e6a565b5b60016004811115612073576120726140fa565b5b6015836040516120839190614585565b908152602001604051809103902060009054906101000a900460ff1660048111156120b1576120b06140fa565b5b1480156120ca5750601054816120c79190614ad8565b42115b80156120d95750600060105414155b156120ea576120e9826002611e6a565b5b505b50565b60006120fa826118c6565b905081601860008381526020019081526020016000209080519060200190612123929190613c5b565b50807f203eeb39bf08702855bb5830b3ec49ea10fb51bde91904739f7c0c3ab41776d583604051612154919061446d565b60405180910390a25050565b60008060005b6011856040516121769190614585565b90815260200160405180910390206000856002811115612199576121986140fa565b5b60028111156121ab576121aa6140fa565b5b8152602001908152602001600020805490508110156123ae5760006011866040516121d69190614585565b908152602001604051809103902060008660028111156121f9576121f86140fa565b5b600281111561220b5761220a6140fa565b5b8152602001908152602001600020828154811061222b5761222a614ebf565b5b9060005260206000200160009054906101000a900473ffffffffffffffffffffffffffffffffffffffff1690506012866040516122689190614585565b9081526020016040518091039020600086600281111561228b5761228a6140fa565b5b600281111561229d5761229c6140fa565b5b815260200190815260200160002060008273ffffffffffffffffffffffffffffffffffffffff1673ffffffffffffffffffffffffffffffffffffffff16815260200190815260200160002060009054906101000a900460ff161561239a5760138660405161230b9190614585565b9081526020016040518091039020600086600281111561232e5761232d6140fa565b5b60028111156123405761233f6140fa565b5b815260200190815260200160002060008273ffffffffffffffffffffffffffffffffffffffff1673ffffffffffffffffffffffffffffffffffffffff16815260200190815260200160002054836123979190614894565b92505b5080806123a690614eee565b915050612166565b508091505092915050565b6123c1613d4e565b60405180606001604052806013856040516123dc9190614585565b908152602001604051809103902060008060028111156123ff576123fe6140fa565b5b6002811115612411576124106140fa565b5b815260200190815260200160002060008573ffffffffffffffffffffffffffffffffffffffff1673ffffffffffffffffffffffffffffffffffffffff1681526020019081526020016000205481526020016013856040516124729190614585565b9081526020016040518091039020600060016002811115612496576124956140fa565b5b60028111156124a8576124a76140fa565b5b815260200190815260200160002060008573ffffffffffffffffffffffffffffffffffffffff1673ffffffffffffffffffffffffffffffffffffffff1681526020019081526020016000205481526020016013856040516125099190614585565b9081526020016040518091039020600060028081111561252c5761252b6140fa565b5b600281111561253e5761253d6140fa565b5b815260200190815260200160002060008573ffffffffffffffffffffffffffffffffffffffff1673ffffffffffffffffffffffffffffffffffffffff16815260200190815260200160002054815250905092915050565b816005600082815260200190815260200160002060009054906101000a900473ffffffffffffffffffffffffffffffffffffffff1673ffffffffffffffffffffffffffffffffffffffff163373ffffffffffffffffffffffffffffffffffffffff1614612637576040517f08c379a000000000000000000000000000000000000000000000000000000000815260040161262e90614fa9565b60405180910390fd5b6005600082815260200190815260200160002060006101000a81549073ffffffffffffffffffffffffffffffffffffffff0219169055807f7cc135e0cebb02c3480ae5d74d377283180a2601f8f644edf7987b009316c63a60405160405180910390a260006018600085815260200190815260200160002080546126ba906146a3565b80601f01602080910402602001604051908101604052809291908181526020018280546126e6906146a3565b80156127335780601f1061270857610100808354040283529160200191612733565b820191906000526020600020905b81548152906001019060200180831161271657829003601f168201915b50505050509050837f991c3e65c24cac8eb9898540ce857bbd06f702f19ac9ee6562bd97b96b0d898c828560405161276c929190614fc9565b60405180910390a260026004811115612788576127876140fa565b5b6015826040516127989190614585565b908152602001604051809103902060009054906101000a900460ff1660048111156127c6576127c56140fa565b5b14156127ed576127d7816003611e6a565b6127e18184612d0e565b6127ec816004611e6a565b5b50505050565b6000600260009054906101000a900473ffffffffffffffffffffffffffffffffffffffff16905090565b816005600082815260200190815260200160002060009054906101000a900473ffffffffffffffffffffffffffffffffffffffff1673ffffffffffffffffffffffffffffffffffffffff163373ffffffffffffffffffffffffffffffffffffffff16146128bf576040517f08c379a00000000000000000000000000000000000000000000000000000000081526004016128b690614fa9565b60405180910390fd5b6005600082815260200190815260200160002060006101000a81549073ffffffffffffffffffffffffffffffffffffffff0219169055807f7cc135e0cebb02c3480ae5d74d377283180a2601f8f644edf7987b009316c63a60405160405180910390a26000601760008581526020019081526020016000208054612942906146a3565b80601f016020809104026020016040519081016040528092919081815260200182805461296e906146a3565b80156129bb5780601f10612990576101008083540402835291602001916129bb565b820191906000526020600020905b81548152906001019060200180831161299e57829003601f168201915b50505050509050837f0a19aa077773e15e05c85beefc64244b7b27068fccb13becb7bf450ff41fa89c82856040516129f4929190614fc9565b60405180910390a2612a068184612db4565b612a0f81611f88565b50505050565b3373ffffffffffffffffffffffffffffffffffffffff168173ffffffffffffffffffffffffffffffffffffffff161415612a84576040517f08c379a0000000000000000000000000000000000000000000000000000000008152600401612a7b90615045565b60405180910390fd5b80600760006101000a81548173ffffffffffffffffffffffffffffffffffffffff021916908373ffffffffffffffffffffffffffffffffffffffff1602179055508073ffffffffffffffffffffffffffffffffffffffff16600660009054906101000a900473ffffffffffffffffffffffffffffffffffffffff1673ffffffffffffffffffffffffffffffffffffffff167fed8889f560326eb138920d842192f0eb3dd22b4f139c87a2c57538e05bae127860405160405180910390a350565b60008151905060006a636f6e736f6c652e6c6f679050602083016000808483855afa5050505050565b612b75613ce1565b612b858560800151610100612e3a565b508385600001818152505082856020019073ffffffffffffffffffffffffffffffffffffffff16908173ffffffffffffffffffffffffffffffffffffffff16815250508185604001907bffffffffffffffffffffffffffffffffffffffffffffffffffffffff191690817bffffffffffffffffffffffffffffffffffffffffffffffffffffffff191681525050849050949350505050565b612c2a8260038351612ea4565b612c3d818361302990919063ffffffff16565b505050565b6000806004549050600181612c579190614894565b6004819055506000634042994660e01b60008087600001513089604001518760018c6080015160000151604051602401612c989897969594939291906150f5565b604051602081830303815290604052907bffffffffffffffffffffffffffffffffffffffffffffffffffffffff19166020820180517bffffffffffffffffffffffffffffffffffffffffffffffffffffffff83818316178352505050509050612d038683868461304b565b925050509392505050565b6000612d1a83836131e0565b905060608181600081518110612d3357612d32614ebf565b5b60200260200101906002811115612d4d57612d4c6140fa565b5b90816002811115612d6157612d606140fa565b5b815250506000612d70836132ec565b90506000612d7e868461343a565b90506000612d8c878461343a565b905060008183612d9c9190614894565b9050612daa88878584613498565b5050505050505050565b601682604051612dc49190614585565b9081526020016040518091039020548114612e365780601683604051612dea9190614585565b9081526020016040518091039020819055507f20af5e7c127dd84267ef67d2a1fa455b47bc60840459b4db987929e37daf07a38282604051612e2d929190614fc9565b60405180910390a15b5050565b612e42613d6f565b6000602083612e5191906151a9565b14612e7d57602082612e6391906151a9565b6020612e6f9190614ad8565b82612e7a9190614894565b91505b81836020018181525050604051808452600081528281016020016040525082905092915050565b60178167ffffffffffffffff1611612edb57612ed58160058460ff16901b60ff1617846139c690919063ffffffff16565b50613024565b60ff8167ffffffffffffffff1611612f3157612f0a601860058460ff16901b17846139c690919063ffffffff16565b50612f2b8167ffffffffffffffff166001856139e69092919063ffffffff16565b50613023565b61ffff8167ffffffffffffffff1611612f8857612f61601960058460ff16901b17846139c690919063ffffffff16565b50612f828167ffffffffffffffff166002856139e69092919063ffffffff16565b50613022565b63ffffffff8167ffffffffffffffff1611612fe157612fba601a60058460ff16901b17846139c690919063ffffffff16565b50612fdb8167ffffffffffffffff166004856139e69092919063ffffffff16565b50613021565b612ffe601b60058460ff16901b17846139c690919063ffffffff16565b5061301f8167ffffffffffffffff166008856139e69092919063ffffffff16565b505b5b5b5b505050565b613031613d6f565b61304383846000015151848551613a08565b905092915050565b60003084604051602001613060929190615293565b604051602081830303815290604052805190602001209050846005600083815260200190815260200160002060006101000a81548173ffffffffffffffffffffffffffffffffffffffff021916908373ffffffffffffffffffffffffffffffffffffffff160217905550807fb5e6e01e79f91267dc17b4e6314d5d4d03593d2ceee0fbb452b750bd70ea5af960405160405180910390a2600260009054906101000a900473ffffffffffffffffffffffffffffffffffffffff1673ffffffffffffffffffffffffffffffffffffffff16634000aea08685856040518463ffffffff1660e01b8152600401613156939291906152bf565b6020604051808303816000875af1158015613175573d6000803e3d6000fd5b505050506040513d601f19601f820116820180604052508101906131999190614ce7565b6131d8576040517f08c379a00000000000000000000000000000000000000000000000000000000081526004016131cf9061536f565b60405180910390fd5b949350505050565b60008060028111156131f5576131f46140fa565b5b82141561320557600090506132e6565b60016002811115613219576132186140fa565b5b82141561322957600190506132e6565b60028081111561323c5761323b6140fa565b5b82141561324c57600290506132e6565b60008360405160200161325f9190615427565b60405160208183030381529060405290507f2a2c16a3ce1dea0db612b14a8fdc9a8d316acc87914b4d66440d119b41e8615f84826040516132a1929190614dec565b60405180910390a1806040517f08c379a00000000000000000000000000000000000000000000000000000000081526004016132dd919061446d565b60405180910390fd5b92915050565b60606000600267ffffffffffffffff81111561330b5761330a613dd5565b5b6040519080825280602002602001820160405280156133395781602001602082028036833780820191505090505b5090506000805b600381101561342f5784600281111561335c5761335b6140fa565b5b600d82600381106133705761336f614ebf565b5b602091828204019190069054906101000a900460ff166002811115613398576133976140fa565b5b1461341c57600d81600381106133b1576133b0614ebf565b5b602091828204019190069054906101000a900460ff168383815181106133da576133d9614ebf565b5b602002602001019060028111156133f4576133f36140fa565b5b90816002811115613408576134076140fa565b5b815250506001826134199190614894565b91505b808061342790614eee565b915050613340565b508192505050919050565b60008060005b835181101561348d5761346d858583815181106134605761345f614ebf565b5b6020026020010151612160565b826134789190614894565b9150808061348590614eee565b915050613440565b508091505092915050565b600360048111156134ac576134ab6140fa565b5b6015856040516134bc9190614585565b908152602001604051809103902060009054906101000a900460ff1660048111156134ea576134e96140fa565b5b1461352a576040517f08c379a0000000000000000000000000000000000000000000000000000000008152600401613521906154ca565b60405180910390fd5b60005b60118560405161353d9190614585565b908152602001604051809103902060008560028111156135605761355f6140fa565b5b6002811115613572576135716140fa565b5b8152602001908152602001600020805490508110156139bf57600060118660405161359d9190614585565b908152602001604051809103902060008660028111156135c0576135bf6140fa565b5b60028111156135d2576135d16140fa565b5b815260200190815260200160002082815481106135f2576135f1614ebf565b5b9060005260206000200160009054906101000a900473ffffffffffffffffffffffffffffffffffffffff16905060128660405161362f9190614585565b90815260200160405180910390206000866002811115613652576136516140fa565b5b6002811115613664576136636140fa565b5b815260200190815260200160002060008273ffffffffffffffffffffffffffffffffffffffff1673ffffffffffffffffffffffffffffffffffffffff16815260200190815260200160002060009054906101000a900460ff16156139ab5760006013876040516136d49190614585565b908152602001604051809103902060008760028111156136f7576136f66140fa565b5b6002811115613709576137086140fa565b5b815260200190815260200160002060008373ffffffffffffffffffffffffffffffffffffffff1673ffffffffffffffffffffffffffffffffffffffff1681526020019081526020016000205490506000858561376591906154ea565b82613770919061551b565b9050806014896040516137839190614585565b908152602001604051809103902060008573ffffffffffffffffffffffffffffffffffffffff1673ffffffffffffffffffffffffffffffffffffffff1681526020019081526020016000208190555060006013896040516137e49190614585565b90815260200160405180910390206000896002811115613807576138066140fa565b5b6002811115613819576138186140fa565b5b815260200190815260200160002060008573ffffffffffffffffffffffffffffffffffffffff1673ffffffffffffffffffffffffffffffffffffffff16815260200190815260200160002081905550600060128960405161387a9190614585565b9081526020016040518091039020600089600281111561389d5761389c6140fa565b5b60028111156138af576138ae6140fa565b5b815260200190815260200160002060008573ffffffffffffffffffffffffffffffffffffffff1673ffffffffffffffffffffffffffffffffffffffff16815260200190815260200160002060006101000a81548160ff0219169083151502179055508273ffffffffffffffffffffffffffffffffffffffff166108fc829081150290604051600060405180830381858888f19350505050158015613957573d6000803e3d6000fd5b508273ffffffffffffffffffffffffffffffffffffffff167fc0acd5bc47ab9bd28274b4de553779f718ae53f42f84fe011e7eed61cda99cbd89836040516139a0929190614fc9565b60405180910390a250505b5080806139b790614eee565b91505061352d565b5050505050565b6139ce613d6f565b6139de8384600001515184613af7565b905092915050565b6139ee613d6f565b6139ff848560000151518585613b4e565b90509392505050565b613a10613d6f565b8251821115613a1e57600080fd5b84602001518285613a2f9190614894565b1115613a6457613a63856002613a5488602001518887613a4f9190614894565b613bdc565b613a5e919061551b565b613bf8565b5b600080865180518760208301019350808887011115613a835787860182525b60208701925050505b60208410613aca5780518252602082613aa59190614894565b9150602081613ab49190614894565b9050602084613ac39190614ad8565b9350613a8c565b60006001856020036101000a03905080198251168184511681811785525050508692505050949350505050565b613aff613d6f565b83602001518310613b2557613b248460028660200151613b1f919061551b565b613bf8565b5b8351805160208583010184815381861415613b41576001820183525b5050508390509392505050565b613b56613d6f565b84602001518483613b679190614894565b1115613b8f57613b8e8560028685613b7f9190614894565b613b89919061551b565b613bf8565b5b6000600183610100613ba191906156a8565b613bab9190614ad8565b90508551838682010185831982511617815281518588011115613bce5784870182525b505085915050949350505050565b600081831115613bee57829050613bf2565b8190505b92915050565b600082600001519050613c0b8383612e3a565b50613c168382613029565b50505050565b604051806060016040528060006004811115613c3b57613c3a6140fa565b5b8152602001613c48613d4e565b8152602001613c55613d4e565b81525090565b828054613c67906146a3565b90600052602060002090601f016020900481019282613c895760008555613cd0565b82601f10613ca257805160ff1916838001178555613cd0565b82800160010185558215613cd0579182015b82811115613ccf578251825591602001919060010190613cb4565b5b509050613cdd9190613d89565b5090565b6040518060a0016040528060008019168152602001600073ffffffffffffffffffffffffffffffffffffffff16815260200160007bffffffffffffffffffffffffffffffffffffffffffffffffffffffff1916815260200160008152602001613d48613d6f565b81525090565b60405180606001604052806000815260200160008152602001600081525090565b604051806040016040528060608152602001600081525090565b5b80821115613da2576000816000905550600101613d8a565b5090565b6000604051905090565b600080fd5b600080fd5b600080fd5b600080fd5b6000601f19601f8301169050919050565b7f4e487b7100000000000000000000000000000000000000000000000000000000600052604160045260246000fd5b613e0d82613dc4565b810181811067ffffffffffffffff82111715613e2c57613e2b613dd5565b5b80604052505050565b6000613e3f613da6565b9050613e4b8282613e04565b919050565b600067ffffffffffffffff821115613e6b57613e6a613dd5565b5b613e7482613dc4565b9050602081019050919050565b82818337600083830152505050565b6000613ea3613e9e84613e50565b613e35565b905082815260208101848484011115613ebf57613ebe613dbf565b5b613eca848285613e81565b509392505050565b600082601f830112613ee757613ee6613dba565b5b8135613ef7848260208601613e90565b91505092915050565b600060208284031215613f1657613f15613db0565b5b600082013567ffffffffffffffff811115613f3457613f33613db5565b5b613f4084828501613ed2565b91505092915050565b6000819050919050565b613f5c81613f49565b82525050565b6000602082019050613f776000830184613f53565b92915050565b6000819050919050565b613f9081613f7d565b82525050565b6000602082019050613fab6000830184613f87565b92915050565b60038110613fbe57600080fd5b50565b600081359050613fd081613fb1565b92915050565b60008060408385031215613fed57613fec613db0565b5b600083013567ffffffffffffffff81111561400b5761400a613db5565b5b61401785828601613ed2565b925050602061402885828601613fc1565b9150509250929050565b61403b81613f49565b811461404657600080fd5b50565b60008135905061405881614032565b92915050565b60008060006060848603121561407757614076613db0565b5b600084013567ffffffffffffffff81111561409557614094613db5565b5b6140a186828701613ed2565b93505060206140b286828701613fc1565b92505060406140c386828701614049565b9150509250925092565b6000602082840312156140e3576140e2613db0565b5b60006140f184828501614049565b91505092915050565b7f4e487b7100000000000000000000000000000000000000000000000000000000600052602160045260246000fd5b6003811061413a576141396140fa565b5b50565b600081905061414b82614129565b919050565b600061415b8261413d565b9050919050565b61416b81614150565b82525050565b60006020820190506141866000830184614162565b92915050565b6005811061419d5761419c6140fa565b5b50565b60008190506141ae8261418c565b919050565b60006141be826141a0565b9050919050565b6141ce816141b3565b82525050565b6141dd81613f49565b82525050565b6060820160008201516141f960008501826141d4565b50602082015161420c60208501826141d4565b50604082015161421f60408501826141d4565b50505050565b60e08201600082015161423b60008501826141c5565b50602082015161424e60208501826141e3565b50604082015161426160808501826141e3565b50505050565b600060e08201905061427c6000830184614225565b92915050565b61428b81613f7d565b811461429657600080fd5b50565b6000813590506142a881614282565b92915050565b600080604083850312156142c5576142c4613db0565b5b60006142d385828601614299565b92505060206142e485828601614049565b9150509250929050565b600073ffffffffffffffffffffffffffffffffffffffff82169050919050565b6000614319826142ee565b9050919050565b6143298161430e565b82525050565b60006020820190506143446000830184614320565b92915050565b6143538161430e565b811461435e57600080fd5b50565b6000813590506143708161434a565b92915050565b60008060006060848603121561438f5761438e613db0565b5b600084013567ffffffffffffffff8111156143ad576143ac613db5565b5b6143b986828701613ed2565b93505060206143ca86828701613fc1565b92505060406143db86828701614361565b9150509250925092565b600081519050919050565b600082825260208201905092915050565b60005b8381101561441f578082015181840152602081019050614404565b8381111561442e576000848401525b50505050565b600061443f826143e5565b61444981856143f0565b9350614459818560208601614401565b61446281613dc4565b840191505092915050565b600060208201905081810360008301526144878184614434565b905092915050565b6000602082840312156144a5576144a4613db0565b5b60006144b384828501614299565b91505092915050565b60008115159050919050565b6144d1816144bc565b82525050565b60006020820190506144ec60008301846144c8565b92915050565b60006020828403121561450857614507613db0565b5b600061451684828501614361565b91505092915050565b614528816141b3565b82525050565b6000602082019050614543600083018461451f565b92915050565b600081905092915050565b600061455f826143e5565b6145698185614549565b9350614579818560208601614401565b80840191505092915050565b60006145918284614554565b915081905092915050565b7f42657420737461746520697320616c7265616479204f50454e2e000000000000600082015250565b60006145d2601a836143f0565b91506145dd8261459c565b602082019050919050565b60006020820190508181036000830152614601816145c5565b9050919050565b7f42657420737461746520697320616c7265616479204157414954494e472e0000600082015250565b600061463e601e836143f0565b915061464982614608565b602082019050919050565b6000602082019050818103600083015261466d81614631565b9050919050565b7f4e487b7100000000000000000000000000000000000000000000000000000000600052602260045260246000fd5b600060028204905060018216806146bb57607f821691505b602082108114156146cf576146ce614674565b5b50919050565b60008190508160005260206000209050919050565b600081546146f7816146a3565b6147018186614549565b9450600182166000811461471c576001811461472d57614760565b60ff19831686528186019350614760565b614736856146d5565b60005b8381101561475857815481890152600182019150602081019050614739565b838801955050505b50505092915050565b600061477582856146ea565b91506147818284614554565b91508190509392505050565b7f426574206163746976697479206973206e6f74206f70656e2e00000000000000600082015250565b60006147c36019836143f0565b91506147ce8261478d565b602082019050919050565b600060208201905081810360008301526147f2816147b6565b9050919050565b7f416d6f756e742069732062656c6f7720656e7472616e6365206665652e000000600082015250565b600061482f601d836143f0565b915061483a826147f9565b602082019050919050565b6000602082019050818103600083015261485e81614822565b9050919050565b7f4e487b7100000000000000000000000000000000000000000000000000000000600052601160045260246000fd5b600061489f82613f49565b91506148aa83613f49565b9250827fffffffffffffffffffffffffffffffffffffffffffffffffffffffffffffffff038211156148df576148de614865565b5b828201905092915050565b600060608201905081810360008301526149048186614434565b90506149136020830185613f53565b6149206040830184614162565b949350505050565b7f416d6f756e742073686f756c6420657863656564207a65726f2e000000000000600082015250565b600061495e601a836143f0565b915061496982614928565b602082019050919050565b6000602082019050818103600083015261498d81614951565b9050919050565b7f46697874757265206973206e6f7420696e204f70656e2073746174652e000000600082015250565b60006149ca601d836143f0565b91506149d582614994565b602082019050919050565b600060208201905081810360008301526149f9816149bd565b9050919050565b7f4e6f207374616b65206f6e207468697320616464726573732d726573756c742e600082015250565b6000614a366020836143f0565b9150614a4182614a00565b602082019050919050565b60006020820190508181036000830152614a6581614a29565b9050919050565b7f43757272656e74207374616b6520746f6f206c6f772e00000000000000000000600082015250565b6000614aa26016836143f0565b9150614aad82614a6c565b602082019050919050565b60006020820190508181036000830152614ad181614a95565b9050919050565b6000614ae382613f49565b9150614aee83613f49565b925082821015614b0157614b00614865565b5b828203905092915050565b7f426574207374617465206d757374206265204157414954494e472e0000000000600082015250565b6000614b42601b836143f0565b9150614b4d82614b0c565b602082019050919050565b60006020820190508181036000830152614b7181614b35565b9050919050565b7f4d7573742062652070726f706f736564206f776e657200000000000000000000600082015250565b6000614bae6016836143f0565b9150614bb982614b78565b602082019050919050565b60006020820190508181036000830152614bdd81614ba1565b9050919050565b7f4f6e6c7920436861696e6c696e6b436c69656e742063616e2066756c66696c6c600082015250565b6000614c1a6020836143f0565b9150614c2582614be4565b602082019050919050565b60006020820190508181036000830152614c4981614c0d565b9050919050565b600081519050614c5f81614032565b92915050565b600060208284031215614c7b57614c7a613db0565b5b6000614c8984828501614c50565b91505092915050565b6000604082019050614ca76000830185614320565b614cb46020830184613f53565b9392505050565b614cc4816144bc565b8114614ccf57600080fd5b50565b600081519050614ce181614cbb565b92915050565b600060208284031215614cfd57614cfc613db0565b5b6000614d0b84828501614cd2565b91505092915050565b7f556e61626c6520746f207472616e736665720000000000000000000000000000600082015250565b6000614d4a6012836143f0565b9150614d5582614d14565b602082019050919050565b60006020820190508181036000830152614d7981614d3d565b9050919050565b7f42657420737461746520697320616c726561647920434c4f5345442e00000000600082015250565b6000614db6601c836143f0565b9150614dc182614d80565b602082019050919050565b60006020820190508181036000830152614de581614da9565b9050919050565b60006040820190508181036000830152614e068185614434565b90508181036020830152614e1a8184614434565b90509392505050565b7f4f6e6c792063616c6c61626c65206279206f776e657200000000000000000000600082015250565b6000614e596016836143f0565b9150614e6482614e23565b602082019050919050565b60006020820190508181036000830152614e8881614e4c565b9050919050565b60006040820190508181036000830152614ea98185614434565b9050614eb8602083018461451f565b9392505050565b7f4e487b7100000000000000000000000000000000000000000000000000000000600052603260045260246000fd5b6000614ef982613f49565b91507fffffffffffffffffffffffffffffffffffffffffffffffffffffffffffffffff821415614f2c57614f2b614865565b5b600182019050919050565b7f536f75726365206d75737420626520746865206f7261636c65206f662074686560008201527f2072657175657374000000000000000000000000000000000000000000000000602082015250565b6000614f936028836143f0565b9150614f9e82614f37565b604082019050919050565b60006020820190508181036000830152614fc281614f86565b9050919050565b60006040820190508181036000830152614fe38185614434565b9050614ff26020830184613f53565b9392505050565b7f43616e6e6f74207472616e7366657220746f2073656c66000000000000000000600082015250565b600061502f6017836143f0565b915061503a82614ff9565b602082019050919050565b6000602082019050818103600083015261505e81615022565b9050919050565b60007fffffffff0000000000000000000000000000000000000000000000000000000082169050919050565b61509a81615065565b82525050565b600081519050919050565b600082825260208201905092915050565b60006150c7826150a0565b6150d181856150ab565b93506150e1818560208601614401565b6150ea81613dc4565b840191505092915050565b60006101008201905061510b600083018b614320565b615118602083018a613f53565b6151256040830189613f87565b6151326060830188614320565b61513f6080830187615091565b61514c60a0830186613f53565b61515960c0830185613f53565b81810360e083015261516b81846150bc565b90509998505050505050505050565b7f4e487b7100000000000000000000000000000000000000000000000000000000600052601260045260246000fd5b60006151b482613f49565b91506151bf83613f49565b9250826151cf576151ce61517a565b5b828206905092915050565b6000819050919050565b60006151ff6151fa6151f5846142ee565b6151da565b6142ee565b9050919050565b6000615211826151e4565b9050919050565b600061522382615206565b9050919050565b60008160601b9050919050565b60006152428261522a565b9050919050565b600061525482615237565b9050919050565b61526c61526782615218565b615249565b82525050565b6000819050919050565b61528d61528882613f49565b615272565b82525050565b600061529f828561525b565b6014820191506152af828461527c565b6020820191508190509392505050565b60006060820190506152d46000830186614320565b6152e16020830185613f53565b81810360408301526152f381846150bc565b9050949350505050565b7f756e61626c6520746f207472616e73666572416e6443616c6c20746f206f726160008201527f636c650000000000000000000000000000000000000000000000000000000000602082015250565b60006153596023836143f0565b9150615364826152fd565b604082019050919050565b600060208201905081810360008301526153888161534c565b9050919050565b7f4572726f72206f6e206669787475726520000000000000000000000000000000815250565b7f3a20556e6b6e6f776e206669787475726520726573756c742066726f6d20415060008201527f4900000000000000000000000000000000000000000000000000000000000000602082015250565b6000615411602183614549565b915061541c826153b5565b602182019050919050565b60006154328261538f565b6011820191506154428284614554565b915061544d82615404565b915081905092915050565b7f4669787475726520626574207374617465206973206e6f742046554c46494c4c60008201527f494e472e00000000000000000000000000000000000000000000000000000000602082015250565b60006154b46024836143f0565b91506154bf82615458565b604082019050919050565b600060208201905081810360008301526154e3816154a7565b9050919050565b60006154f582613f49565b915061550083613f49565b9250826155105761550f61517a565b5b828204905092915050565b600061552682613f49565b915061553183613f49565b9250817fffffffffffffffffffffffffffffffffffffffffffffffffffffffffffffffff048311821515161561556a57615569614865565b5b828202905092915050565b60008160011c9050919050565b6000808291508390505b60018511156155cc578086048111156155a8576155a7614865565b5b60018516156155b75780820291505b80810290506155c585615575565b945061558c565b94509492505050565b6000826155e557600190506156a1565b816155f357600090506156a1565b8160018114615609576002811461561357615642565b60019150506156a1565b60ff84111561562557615624614865565b5b8360020a91508482111561563c5761563b614865565b5b506156a1565b5060208310610133831016604e8410600b84101617156156775782820a90508381111561567257615671614865565b5b6156a1565b6156848484846001615582565b9250905081840481111561569b5761569a614865565b5b81810290505b9392505050565b60006156b382613f49565b91506156be83613f49565b92506156eb7fffffffffffffffffffffffffffffffffffffffffffffffffffffffffffffffff84846155d5565b90509291505056fea26469706673582212200d9610e59c5dfe2c99b522c506402d72467f754c101cafa4381d8e010f77143a64736f6c634300080c00334465706c6f79696e6720612053706f72747342657474696e6720776974682073706f727473206f7261636c65205552493a",
  "devdoc": {
    "kind": "dev",
    "methods": {},
    "version": 1
  },
  "userdoc": {
    "kind": "user",
    "methods": {
      "acceptOwnership()": {
        "notice": "Allows an ownership transfer to be completed by the recipient."
      },
      "owner()": {
        "notice": "Get the current owner"
      },
      "requestFixtureKickoffTimeParameter(string)": {
        "notice": "Request fixture kickoff time from the oracle in a single transaction"
      },
      "requestFixtureResultParameter(string)": {
        "notice": "Request fixture result from the oracle in a single transaction"
      },
      "transferOwnership(address)": {
        "notice": "Allows an owner to begin transferring ownership to a new address, pending."
      },
      "withdrawLink()": {
        "notice": "Allow withdraw of Link tokens from the contract"
      }
    },
    "version": 1
  },
  "storageLayout": {
    "storage": [
      {
        "astId": 319,
        "contract": "contracts/SportsBetting.sol:SportsBetting",
        "label": "s_ens",
        "offset": 0,
        "slot": "0",
        "type": "t_contract(ENSInterface)1156"
      },
      {
        "astId": 321,
        "contract": "contracts/SportsBetting.sol:SportsBetting",
        "label": "s_ensNode",
        "offset": 0,
        "slot": "1",
        "type": "t_bytes32"
      },
      {
        "astId": 324,
        "contract": "contracts/SportsBetting.sol:SportsBetting",
        "label": "s_link",
        "offset": 0,
        "slot": "2",
        "type": "t_contract(LinkTokenInterface)1251"
      },
      {
        "astId": 327,
        "contract": "contracts/SportsBetting.sol:SportsBetting",
        "label": "s_oracle",
        "offset": 0,
        "slot": "3",
        "type": "t_contract(OperatorInterface)1331"
      },
      {
        "astId": 330,
        "contract": "contracts/SportsBetting.sol:SportsBetting",
        "label": "s_requestCount",
        "offset": 0,
        "slot": "4",
        "type": "t_uint256"
      },
      {
        "astId": 334,
        "contract": "contracts/SportsBetting.sol:SportsBetting",
        "label": "s_pendingRequests",
        "offset": 0,
        "slot": "5",
        "type": "t_mapping(t_bytes32,t_address)"
      },
      {
        "astId": 889,
        "contract": "contracts/SportsBetting.sol:SportsBetting",
        "label": "s_owner",
        "offset": 0,
        "slot": "6",
        "type": "t_address"
      },
      {
        "astId": 891,
        "contract": "contracts/SportsBetting.sol:SportsBetting",
        "label": "s_pendingOwner",
        "offset": 0,
        "slot": "7",
        "type": "t_address"
      },
      {
        "astId": 3761,
        "contract": "contracts/SportsBetting.sol:SportsBetting",
        "label": "chainlink",
        "offset": 0,
        "slot": "8",
        "type": "t_address"
      },
      {
        "astId": 3763,
        "contract": "contracts/SportsBetting.sol:SportsBetting",
        "label": "sportsOracleURI",
        "offset": 0,
        "slot": "9",
        "type": "t_string_storage"
      },
      {
        "astId": 3765,
        "contract": "contracts/SportsBetting.sol:SportsBetting",
        "label": "jobId",
        "offset": 0,
        "slot": "10",
        "type": "t_bytes32"
      },
      {
        "astId": 3767,
        "contract": "contracts/SportsBetting.sol:SportsBetting",
        "label": "fee",
        "offset": 0,
        "slot": "11",
        "type": "t_uint256"
      },
      {
        "astId": 3769,
        "contract": "contracts/SportsBetting.sol:SportsBetting",
        "label": "fixtureResult",
        "offset": 0,
        "slot": "12",
        "type": "t_string_storage"
      },
      {
        "astId": 2596,
        "contract": "contracts/SportsBetting.sol:SportsBetting",
        "label": "betTypes",
        "offset": 0,
        "slot": "13",
        "type": "t_array(t_enum(BetType)2519)3_storage"
      },
      {
        "astId": 2601,
        "contract": "contracts/SportsBetting.sol:SportsBetting",
        "label": "entranceFee",
        "offset": 0,
        "slot": "14",
        "type": "t_uint256"
      },
      {
        "astId": 2610,
        "contract": "contracts/SportsBetting.sol:SportsBetting",
        "label": "betAdvanceTime",
        "offset": 0,
        "slot": "15",
        "type": "t_uint256"
      },
      {
        "astId": 2615,
        "contract": "contracts/SportsBetting.sol:SportsBetting",
        "label": "betCutOffTime",
        "offset": 0,
        "slot": "16",
        "type": "t_uint256"
      },
      {
        "astId": 2623,
        "contract": "contracts/SportsBetting.sol:SportsBetting",
        "label": "historicalBetters",
        "offset": 0,
        "slot": "17",
        "type": "t_mapping(t_string_memory_ptr,t_mapping(t_enum(BetType)2519,t_array(t_address)dyn_storage))"
      },
      {
        "astId": 2632,
        "contract": "contracts/SportsBetting.sol:SportsBetting",
        "label": "activeBetters",
        "offset": 0,
        "slot": "18",
        "type": "t_mapping(t_string_memory_ptr,t_mapping(t_enum(BetType)2519,t_mapping(t_address,t_bool)))"
      },
      {
        "astId": 2641,
        "contract": "contracts/SportsBetting.sol:SportsBetting",
        "label": "amounts",
        "offset": 0,
        "slot": "19",
        "type": "t_mapping(t_string_memory_ptr,t_mapping(t_enum(BetType)2519,t_mapping(t_address,t_uint256)))"
      },
      {
        "astId": 2647,
        "contract": "contracts/SportsBetting.sol:SportsBetting",
        "label": "obligations",
        "offset": 0,
        "slot": "20",
        "type": "t_mapping(t_string_memory_ptr,t_mapping(t_address,t_uint256))"
      },
      {
        "astId": 2652,
        "contract": "contracts/SportsBetting.sol:SportsBetting",
        "label": "bettingState",
        "offset": 0,
        "slot": "21",
        "type": "t_mapping(t_string_memory_ptr,t_enum(BettingState)2525)"
      },
      {
        "astId": 2656,
        "contract": "contracts/SportsBetting.sol:SportsBetting",
        "label": "fixtureToKickoffTime",
        "offset": 0,
        "slot": "22",
        "type": "t_mapping(t_string_memory_ptr,t_uint256)"
      },
      {
        "astId": 2660,
        "contract": "contracts/SportsBetting.sol:SportsBetting",
        "label": "requestKickoffToFixture",
        "offset": 0,
        "slot": "23",
        "type": "t_mapping(t_bytes32,t_string_storage)"
      },
      {
        "astId": 2664,
        "contract": "contracts/SportsBetting.sol:SportsBetting",
        "label": "requestResultToFixture",
        "offset": 0,
        "slot": "24",
        "type": "t_mapping(t_bytes32,t_string_storage)"
      }
    ],
    "types": {
      "t_address": {
        "encoding": "inplace",
        "label": "address",
        "numberOfBytes": "20"
      },
      "t_array(t_address)dyn_storage": {
        "base": "t_address",
        "encoding": "dynamic_array",
        "label": "address[]",
        "numberOfBytes": "32"
      },
      "t_array(t_enum(BetType)2519)3_storage": {
        "base": "t_enum(BetType)2519",
        "encoding": "inplace",
        "label": "enum SportsBetting.BetType[3]",
        "numberOfBytes": "32"
      },
      "t_bool": {
        "encoding": "inplace",
        "label": "bool",
        "numberOfBytes": "1"
      },
      "t_bytes32": {
        "encoding": "inplace",
        "label": "bytes32",
        "numberOfBytes": "32"
      },
      "t_contract(ENSInterface)1156": {
        "encoding": "inplace",
        "label": "contract ENSInterface",
        "numberOfBytes": "20"
      },
      "t_contract(LinkTokenInterface)1251": {
        "encoding": "inplace",
        "label": "contract LinkTokenInterface",
        "numberOfBytes": "20"
      },
      "t_contract(OperatorInterface)1331": {
        "encoding": "inplace",
        "label": "contract OperatorInterface",
        "numberOfBytes": "20"
      },
      "t_enum(BetType)2519": {
        "encoding": "inplace",
        "label": "enum SportsBetting.BetType",
        "numberOfBytes": "1"
      },
      "t_enum(BettingState)2525": {
        "encoding": "inplace",
        "label": "enum SportsBetting.BettingState",
        "numberOfBytes": "1"
      },
      "t_mapping(t_address,t_bool)": {
        "encoding": "mapping",
        "key": "t_address",
        "label": "mapping(address => bool)",
        "numberOfBytes": "32",
        "value": "t_bool"
      },
      "t_mapping(t_address,t_uint256)": {
        "encoding": "mapping",
        "key": "t_address",
        "label": "mapping(address => uint256)",
        "numberOfBytes": "32",
        "value": "t_uint256"
      },
      "t_mapping(t_bytes32,t_address)": {
        "encoding": "mapping",
        "key": "t_bytes32",
        "label": "mapping(bytes32 => address)",
        "numberOfBytes": "32",
        "value": "t_address"
      },
      "t_mapping(t_bytes32,t_string_storage)": {
        "encoding": "mapping",
        "key": "t_bytes32",
        "label": "mapping(bytes32 => string)",
        "numberOfBytes": "32",
        "value": "t_string_storage"
      },
      "t_mapping(t_enum(BetType)2519,t_array(t_address)dyn_storage)": {
        "encoding": "mapping",
        "key": "t_enum(BetType)2519",
        "label": "mapping(enum SportsBetting.BetType => address[])",
        "numberOfBytes": "32",
        "value": "t_array(t_address)dyn_storage"
      },
      "t_mapping(t_enum(BetType)2519,t_mapping(t_address,t_bool))": {
        "encoding": "mapping",
        "key": "t_enum(BetType)2519",
        "label": "mapping(enum SportsBetting.BetType => mapping(address => bool))",
        "numberOfBytes": "32",
        "value": "t_mapping(t_address,t_bool)"
      },
      "t_mapping(t_enum(BetType)2519,t_mapping(t_address,t_uint256))": {
        "encoding": "mapping",
        "key": "t_enum(BetType)2519",
        "label": "mapping(enum SportsBetting.BetType => mapping(address => uint256))",
        "numberOfBytes": "32",
        "value": "t_mapping(t_address,t_uint256)"
      },
      "t_mapping(t_string_memory_ptr,t_enum(BettingState)2525)": {
        "encoding": "mapping",
        "key": "t_string_memory_ptr",
        "label": "mapping(string => enum SportsBetting.BettingState)",
        "numberOfBytes": "32",
        "value": "t_enum(BettingState)2525"
      },
      "t_mapping(t_string_memory_ptr,t_mapping(t_address,t_uint256))": {
        "encoding": "mapping",
        "key": "t_string_memory_ptr",
        "label": "mapping(string => mapping(address => uint256))",
        "numberOfBytes": "32",
        "value": "t_mapping(t_address,t_uint256)"
      },
      "t_mapping(t_string_memory_ptr,t_mapping(t_enum(BetType)2519,t_array(t_address)dyn_storage))": {
        "encoding": "mapping",
        "key": "t_string_memory_ptr",
        "label": "mapping(string => mapping(enum SportsBetting.BetType => address[]))",
        "numberOfBytes": "32",
        "value": "t_mapping(t_enum(BetType)2519,t_array(t_address)dyn_storage)"
      },
      "t_mapping(t_string_memory_ptr,t_mapping(t_enum(BetType)2519,t_mapping(t_address,t_bool)))": {
        "encoding": "mapping",
        "key": "t_string_memory_ptr",
        "label": "mapping(string => mapping(enum SportsBetting.BetType => mapping(address => bool)))",
        "numberOfBytes": "32",
        "value": "t_mapping(t_enum(BetType)2519,t_mapping(t_address,t_bool))"
      },
      "t_mapping(t_string_memory_ptr,t_mapping(t_enum(BetType)2519,t_mapping(t_address,t_uint256)))": {
        "encoding": "mapping",
        "key": "t_string_memory_ptr",
        "label": "mapping(string => mapping(enum SportsBetting.BetType => mapping(address => uint256)))",
        "numberOfBytes": "32",
        "value": "t_mapping(t_enum(BetType)2519,t_mapping(t_address,t_uint256))"
      },
      "t_mapping(t_string_memory_ptr,t_uint256)": {
        "encoding": "mapping",
        "key": "t_string_memory_ptr",
        "label": "mapping(string => uint256)",
        "numberOfBytes": "32",
        "value": "t_uint256"
      },
      "t_string_memory_ptr": {
        "encoding": "bytes",
        "label": "string",
        "numberOfBytes": "32"
      },
      "t_string_storage": {
        "encoding": "bytes",
        "label": "string",
        "numberOfBytes": "32"
      },
      "t_uint256": {
        "encoding": "inplace",
        "label": "uint256",
        "numberOfBytes": "32"
      }
    }
  }
}