{
  "address": "0x5FbDB2315678afecb367f032d93F642f64180aa3",
  "abi": [
    {
      "inputs": [
        {
          "internalType": "string",
          "name": "_sportsOracleURI",
          "type": "string"
        },
        {
          "internalType": "address",
          "name": "_oracle",
          "type": "address"
        },
        {
          "internalType": "address",
          "name": "_link",
          "type": "address"
        },
        {
          "internalType": "bytes32",
          "name": "_jobId",
          "type": "bytes32"
        },
        {
          "internalType": "uint256",
          "name": "_fee",
          "type": "uint256"
        }
      ],
      "stateMutability": "nonpayable",
      "type": "constructor"
    },
    {
      "anonymous": false,
      "inputs": [
        {
          "indexed": true,
          "internalType": "address",
          "name": "better",
          "type": "address"
        },
        {
          "indexed": false,
          "internalType": "string",
          "name": "fixtureID",
          "type": "string"
        },
        {
          "indexed": false,
          "internalType": "uint256",
          "name": "amount",
          "type": "uint256"
        }
      ],
      "name": "BetPayout",
      "type": "event"
    },
    {
      "anonymous": false,
      "inputs": [
        {
          "indexed": false,
          "internalType": "string",
          "name": "fixtureID",
          "type": "string"
        },
        {
          "indexed": false,
          "internalType": "string",
          "name": "reason",
          "type": "string"
        }
      ],
      "name": "BetPayoutFulfillmentError",
      "type": "event"
    },
    {
      "anonymous": false,
      "inputs": [
        {
          "indexed": true,
          "internalType": "address",
          "name": "better",
          "type": "address"
        },
        {
          "indexed": false,
          "internalType": "string",
          "name": "fixtureID",
          "type": "string"
        },
        {
          "indexed": false,
          "internalType": "uint256",
          "name": "amount",
          "type": "uint256"
        },
        {
          "indexed": false,
          "internalType": "enum SportsBetting.BetType",
          "name": "betType",
          "type": "uint8"
        }
      ],
      "name": "BetStaked",
      "type": "event"
    },
    {
      "anonymous": false,
      "inputs": [
        {
          "indexed": true,
          "internalType": "address",
          "name": "better",
          "type": "address"
        },
        {
          "indexed": false,
          "internalType": "string",
          "name": "fixtureID",
          "type": "string"
        },
        {
          "indexed": false,
          "internalType": "uint256",
          "name": "amount",
          "type": "uint256"
        },
        {
          "indexed": false,
          "internalType": "enum SportsBetting.BetType",
          "name": "betType",
          "type": "uint8"
        }
      ],
      "name": "BetUnstaked",
      "type": "event"
    },
    {
      "anonymous": false,
      "inputs": [
        {
          "indexed": false,
          "internalType": "string",
          "name": "fixtureID",
          "type": "string"
        },
        {
          "indexed": false,
          "internalType": "enum SportsBetting.BettingState",
          "name": "state",
          "type": "uint8"
        }
      ],
      "name": "BettingStateChanged",
      "type": "event"
    },
    {
      "anonymous": false,
      "inputs": [
        {
          "indexed": true,
          "internalType": "bytes32",
          "name": "id",
          "type": "bytes32"
        }
      ],
      "name": "ChainlinkCancelled",
      "type": "event"
    },
    {
      "anonymous": false,
      "inputs": [
        {
          "indexed": true,
          "internalType": "bytes32",
          "name": "id",
          "type": "bytes32"
        }
      ],
      "name": "ChainlinkFulfilled",
      "type": "event"
    },
    {
      "anonymous": false,
      "inputs": [
        {
          "indexed": true,
          "internalType": "bytes32",
          "name": "id",
          "type": "bytes32"
        }
      ],
      "name": "ChainlinkRequested",
      "type": "event"
    },
    {
      "anonymous": false,
      "inputs": [
        {
          "indexed": false,
          "internalType": "string",
          "name": "fixtureID",
          "type": "string"
        },
        {
          "indexed": false,
          "internalType": "uint256",
          "name": "kickoffTime",
          "type": "uint256"
        }
      ],
      "name": "KickoffTimeUpdated",
      "type": "event"
    },
    {
      "anonymous": false,
      "inputs": [
        {
          "indexed": true,
          "internalType": "address",
          "name": "from",
          "type": "address"
        },
        {
          "indexed": true,
          "internalType": "address",
          "name": "to",
          "type": "address"
        }
      ],
      "name": "OwnershipTransferRequested",
      "type": "event"
    },
    {
      "anonymous": false,
      "inputs": [
        {
          "indexed": true,
          "internalType": "address",
          "name": "from",
          "type": "address"
        },
        {
          "indexed": true,
          "internalType": "address",
          "name": "to",
          "type": "address"
        }
      ],
      "name": "OwnershipTransferred",
      "type": "event"
    },
    {
      "anonymous": false,
      "inputs": [
        {
          "indexed": true,
          "internalType": "bytes32",
          "name": "requestId",
          "type": "bytes32"
        },
        {
          "indexed": false,
          "internalType": "string",
          "name": "fixtureID",
          "type": "string"
        },
        {
          "indexed": false,
          "internalType": "string",
          "name": "fixtureResult",
          "type": "string"
        },
        {
          "indexed": false,
          "internalType": "uint256",
          "name": "kickoff",
          "type": "uint256"
        }
      ],
      "name": "RequestFixtureParametersFulfilled",
      "type": "event"
    },
    {
      "anonymous": false,
      "inputs": [
        {
          "indexed": true,
          "internalType": "bytes32",
          "name": "requestId",
          "type": "bytes32"
        },
        {
          "indexed": false,
          "internalType": "string",
          "name": "fixtureID",
          "type": "string"
        }
      ],
      "name": "RequestedFixtureParameters",
      "type": "event"
    },
    {
      "inputs": [],
      "name": "acceptOwnership",
      "outputs": [],
      "stateMutability": "nonpayable",
      "type": "function"
    },
    {
      "inputs": [
        {
          "internalType": "string",
          "name": "",
          "type": "string"
        },
        {
          "internalType": "enum SportsBetting.BetType",
          "name": "",
          "type": "uint8"
        },
        {
          "internalType": "address",
          "name": "",
          "type": "address"
        }
      ],
      "name": "activeBetters",
      "outputs": [
        {
          "internalType": "bool",
          "name": "",
          "type": "bool"
        }
      ],
      "stateMutability": "view",
      "type": "function"
    },
    {
      "inputs": [
        {
          "internalType": "string",
          "name": "",
          "type": "string"
        },
        {
          "internalType": "enum SportsBetting.BetType",
          "name": "",
          "type": "uint8"
        },
        {
          "internalType": "address",
          "name": "",
          "type": "address"
        }
      ],
      "name": "amounts",
      "outputs": [
        {
          "internalType": "uint256",
          "name": "",
          "type": "uint256"
        }
      ],
      "stateMutability": "view",
      "type": "function"
    },
    {
      "inputs": [
        {
          "internalType": "string",
          "name": "fixtureID",
          "type": "string"
        }
      ],
      "name": "awaitBetForFixture",
      "outputs": [],
      "stateMutability": "nonpayable",
      "type": "function"
    },
    {
      "inputs": [],
      "name": "betAdvanceTime",
      "outputs": [
        {
          "internalType": "uint256",
          "name": "",
          "type": "uint256"
        }
      ],
      "stateMutability": "view",
      "type": "function"
    },
    {
      "inputs": [],
      "name": "betCutOffTime",
      "outputs": [
        {
          "internalType": "uint256",
          "name": "",
          "type": "uint256"
        }
      ],
      "stateMutability": "view",
      "type": "function"
    },
    {
      "inputs": [
        {
          "internalType": "uint256",
          "name": "",
          "type": "uint256"
        }
      ],
      "name": "betTypes",
      "outputs": [
        {
          "internalType": "enum SportsBetting.BetType",
          "name": "",
          "type": "uint8"
        }
      ],
      "stateMutability": "view",
      "type": "function"
    },
    {
      "inputs": [
        {
          "internalType": "string",
          "name": "",
          "type": "string"
        }
      ],
      "name": "bettingState",
      "outputs": [
        {
          "internalType": "enum SportsBetting.BettingState",
          "name": "",
          "type": "uint8"
        }
      ],
      "stateMutability": "view",
      "type": "function"
    },
    {
      "inputs": [],
      "name": "chainlink",
      "outputs": [
        {
          "internalType": "address",
          "name": "",
          "type": "address"
        }
      ],
      "stateMutability": "view",
      "type": "function"
    },
    {
      "inputs": [
        {
          "internalType": "string",
          "name": "fixtureID",
          "type": "string"
        }
      ],
      "name": "closeBetForFixture",
      "outputs": [],
      "stateMutability": "nonpayable",
      "type": "function"
    },
    {
      "inputs": [],
      "name": "entranceFee",
      "outputs": [
        {
          "internalType": "uint256",
          "name": "",
          "type": "uint256"
        }
      ],
      "stateMutability": "view",
      "type": "function"
    },
    {
      "inputs": [],
      "name": "fixtureResult",
      "outputs": [
        {
          "internalType": "string",
          "name": "",
          "type": "string"
        }
      ],
      "stateMutability": "view",
      "type": "function"
    },
    {
      "inputs": [
        {
          "internalType": "string",
          "name": "",
          "type": "string"
        }
      ],
      "name": "fixtureToKickoffTime",
      "outputs": [
        {
          "internalType": "uint256",
          "name": "",
          "type": "uint256"
        }
      ],
      "stateMutability": "view",
      "type": "function"
    },
    {
      "inputs": [
        {
          "internalType": "string",
          "name": "fixtureID",
          "type": "string"
        }
      ],
      "name": "fulfillBetForFixture",
      "outputs": [],
      "stateMutability": "nonpayable",
      "type": "function"
    },
    {
      "inputs": [
        {
          "internalType": "string",
          "name": "fixtureID",
          "type": "string"
        }
      ],
      "name": "getEnrichedFixtureData",
      "outputs": [
        {
          "components": [
            {
              "internalType": "enum SportsBetting.BettingState",
              "name": "fixtureState",
              "type": "uint8"
            },
            {
              "components": [
                {
                  "internalType": "uint256",
                  "name": "home",
                  "type": "uint256"
                },
                {
                  "internalType": "uint256",
                  "name": "draw",
                  "type": "uint256"
                },
                {
                  "internalType": "uint256",
                  "name": "away",
                  "type": "uint256"
                }
              ],
              "internalType": "struct SportsBetting.StakeSummary",
              "name": "total",
              "type": "tuple"
            },
            {
              "components": [
                {
                  "internalType": "uint256",
                  "name": "home",
                  "type": "uint256"
                },
                {
                  "internalType": "uint256",
                  "name": "draw",
                  "type": "uint256"
                },
                {
                  "internalType": "uint256",
                  "name": "away",
                  "type": "uint256"
                }
              ],
              "internalType": "struct SportsBetting.StakeSummary",
              "name": "user",
              "type": "tuple"
            }
          ],
          "internalType": "struct SportsBetting.FixtureEnrichment",
          "name": "",
          "type": "tuple"
        }
      ],
      "stateMutability": "nonpayable",
      "type": "function"
    },
    {
      "inputs": [
        {
          "internalType": "string",
          "name": "",
          "type": "string"
        },
        {
          "internalType": "enum SportsBetting.BetType",
          "name": "",
          "type": "uint8"
        },
        {
          "internalType": "uint256",
          "name": "",
          "type": "uint256"
        }
      ],
      "name": "historicalBetters",
      "outputs": [
        {
          "internalType": "address",
          "name": "",
          "type": "address"
        }
      ],
      "stateMutability": "view",
      "type": "function"
    },
    {
      "inputs": [
        {
          "internalType": "string",
          "name": "fixtureID",
          "type": "string"
        }
      ],
      "name": "openBetForFixture",
      "outputs": [],
      "stateMutability": "nonpayable",
      "type": "function"
    },
    {
      "inputs": [],
      "name": "owner",
      "outputs": [
        {
          "internalType": "address",
          "name": "",
          "type": "address"
        }
      ],
      "stateMutability": "view",
      "type": "function"
    },
    {
      "inputs": [
        {
          "internalType": "bytes32",
          "name": "_requestId",
          "type": "bytes32"
        },
        {
          "internalType": "string",
          "name": "_resultResponse",
          "type": "string"
        },
        {
          "internalType": "uint256",
          "name": "_kickoffResponse",
          "type": "uint256"
        }
      ],
      "name": "rawFulfillMultipleParameters",
      "outputs": [],
      "stateMutability": "nonpayable",
      "type": "function"
    },
    {
      "inputs": [
        {
          "internalType": "string",
          "name": "fixtureID",
          "type": "string"
        }
      ],
      "name": "requestMultipleParameters",
      "outputs": [
        {
          "internalType": "bytes32",
          "name": "",
          "type": "bytes32"
        }
      ],
      "stateMutability": "nonpayable",
      "type": "function"
    },
    {
      "inputs": [
        {
          "internalType": "bytes32",
          "name": "",
          "type": "bytes32"
        }
      ],
      "name": "requestToFixture",
      "outputs": [
        {
          "internalType": "string",
          "name": "",
          "type": "string"
        }
      ],
      "stateMutability": "view",
      "type": "function"
    },
    {
      "inputs": [],
      "name": "sportsOracleURI",
      "outputs": [
        {
          "internalType": "string",
          "name": "",
          "type": "string"
        }
      ],
      "stateMutability": "view",
      "type": "function"
    },
    {
      "inputs": [
        {
          "internalType": "string",
          "name": "fixtureID",
          "type": "string"
        },
        {
          "internalType": "enum SportsBetting.BetType",
          "name": "betType",
          "type": "uint8"
        }
      ],
      "name": "stake",
      "outputs": [],
      "stateMutability": "payable",
      "type": "function"
    },
    {
      "inputs": [
        {
          "internalType": "address",
          "name": "to",
          "type": "address"
        }
      ],
      "name": "transferOwnership",
      "outputs": [],
      "stateMutability": "nonpayable",
      "type": "function"
    },
    {
      "inputs": [
        {
          "internalType": "string",
          "name": "fixtureID",
          "type": "string"
        },
        {
          "internalType": "enum SportsBetting.BetType",
          "name": "betType",
          "type": "uint8"
        },
        {
          "internalType": "uint256",
          "name": "amount",
          "type": "uint256"
        }
      ],
      "name": "unstake",
      "outputs": [],
      "stateMutability": "nonpayable",
      "type": "function"
    },
    {
      "inputs": [],
      "name": "withdrawLink",
      "outputs": [],
      "stateMutability": "nonpayable",
      "type": "function"
    }
  ],
  "transactionHash": "0xf42d4e3b241d0160c7f896485e0d0862f1a20b8e7fca5afccc5d555e6d24bdeb",
  "args": [
    "localhost:5000/",
    "0xcc79157eb46f5624204f47ab42b3906caa40eab7",
    "0x326C977E6efc84E512bB9C30f76E30c160eD06FB",
    "0x3764383061363338366566353433613361626235323831376636373037653362",
    "100000000000000000"
  ],
  "numDeployments": 1,
  "solcInputHash": "b8cfd01738800e864c9d155cc4cff619",
  "bytecode": "0x60806040526001600455655af3107a4000600e5562093a80600f556115186010553480156200002d57600080fd5b5060405162005f1138038062005f118339818101604052810190620000539190620008b8565b8484848484338060008073ffffffffffffffffffffffffffffffffffffffff168273ffffffffffffffffffffffffffffffffffffffff161415620000ce576040517f08c379a0000000000000000000000000000000000000000000000000000000008152600401620000c590620009c0565b60405180910390fd5b81600660006101000a81548173ffffffffffffffffffffffffffffffffffffffff021916908373ffffffffffffffffffffffffffffffffffffffff160217905550600073ffffffffffffffffffffffffffffffffffffffff168173ffffffffffffffffffffffffffffffffffffffff1614620001565762000155816200030760201b60201c565b5b50505084600990805190602001906200017192919062000590565b5062000183836200043960201b60201c565b62000194846200047d60201b60201c565b83600860006101000a81548173ffffffffffffffffffffffffffffffffffffffff021916908373ffffffffffffffffffffffffffffffffffffffff16021790555081600a8190555080600b8190555050505050506200021860405180606001604052806031815260200162005ee06031913986620004c160201b62001a091760201c565b6000600d600060038110620002325762000231620009e2565b5b602091828204019190066101000a81548160ff021916908360028111156200025f576200025e62000a11565b5b02179055506001600d6001600381106200027e576200027d620009e2565b5b602091828204019190066101000a81548160ff02191690836002811115620002ab57620002aa62000a11565b5b02179055506002600d600260038110620002ca57620002c9620009e2565b5b602091828204019190066101000a81548160ff02191690836002811115620002f757620002f662000a11565b5b0217905550505050505062000b9e565b3373ffffffffffffffffffffffffffffffffffffffff168173ffffffffffffffffffffffffffffffffffffffff16141562000379576040517f08c379a0000000000000000000000000000000000000000000000000000000008152600401620003709062000a90565b60405180910390fd5b80600760006101000a81548173ffffffffffffffffffffffffffffffffffffffff021916908373ffffffffffffffffffffffffffffffffffffffff1602179055508073ffffffffffffffffffffffffffffffffffffffff16600660009054906101000a900473ffffffffffffffffffffffffffffffffffffffff1673ffffffffffffffffffffffffffffffffffffffff167fed8889f560326eb138920d842192f0eb3dd22b4f139c87a2c57538e05bae127860405160405180910390a350565b80600260006101000a81548173ffffffffffffffffffffffffffffffffffffffff021916908373ffffffffffffffffffffffffffffffffffffffff16021790555050565b80600360006101000a81548173ffffffffffffffffffffffffffffffffffffffff021916908373ffffffffffffffffffffffffffffffffffffffff16021790555050565b620005638282604051602401620004da92919062000afe565b6040516020818303038152906040527f4b5c4277000000000000000000000000000000000000000000000000000000007bffffffffffffffffffffffffffffffffffffffffffffffffffffffff19166020820180517bffffffffffffffffffffffffffffffffffffffffffffffffffffffff83818316178352505050506200056760201b60201c565b5050565b60008151905060006a636f6e736f6c652e6c6f679050602083016000808483855afa5050505050565b8280546200059e9062000b68565b90600052602060002090601f016020900481019282620005c257600085556200060e565b82601f10620005dd57805160ff19168380011785556200060e565b828001600101855582156200060e579182015b828111156200060d578251825591602001919060010190620005f0565b5b5090506200061d919062000621565b5090565b5b808211156200063c57600081600090555060010162000622565b5090565b6000604051905090565b600080fd5b600080fd5b600080fd5b600080fd5b6000601f19601f8301169050919050565b7f4e487b7100000000000000000000000000000000000000000000000000000000600052604160045260246000fd5b620006a9826200065e565b810181811067ffffffffffffffff82111715620006cb57620006ca6200066f565b5b80604052505050565b6000620006e062000640565b9050620006ee82826200069e565b919050565b600067ffffffffffffffff8211156200071157620007106200066f565b5b6200071c826200065e565b9050602081019050919050565b60005b83811015620007495780820151818401526020810190506200072c565b8381111562000759576000848401525b50505050565b6000620007766200077084620006f3565b620006d4565b90508281526020810184848401111562000795576200079462000659565b5b620007a284828562000729565b509392505050565b600082601f830112620007c257620007c162000654565b5b8151620007d48482602086016200075f565b91505092915050565b600073ffffffffffffffffffffffffffffffffffffffff82169050919050565b60006200080a82620007dd565b9050919050565b6200081c81620007fd565b81146200082857600080fd5b50565b6000815190506200083c8162000811565b92915050565b6000819050919050565b620008578162000842565b81146200086357600080fd5b50565b60008151905062000877816200084c565b92915050565b6000819050919050565b62000892816200087d565b81146200089e57600080fd5b50565b600081519050620008b28162000887565b92915050565b600080600080600060a08688031215620008d757620008d66200064a565b5b600086015167ffffffffffffffff811115620008f857620008f76200064f565b5b6200090688828901620007aa565b955050602062000919888289016200082b565b94505060406200092c888289016200082b565b93505060606200093f8882890162000866565b92505060806200095288828901620008a1565b9150509295509295909350565b600082825260208201905092915050565b7f43616e6e6f7420736574206f776e657220746f207a65726f0000000000000000600082015250565b6000620009a86018836200095f565b9150620009b58262000970565b602082019050919050565b60006020820190508181036000830152620009db8162000999565b9050919050565b7f4e487b7100000000000000000000000000000000000000000000000000000000600052603260045260246000fd5b7f4e487b7100000000000000000000000000000000000000000000000000000000600052602160045260246000fd5b7f43616e6e6f74207472616e7366657220746f2073656c66000000000000000000600082015250565b600062000a786017836200095f565b915062000a858262000a40565b602082019050919050565b6000602082019050818103600083015262000aab8162000a69565b9050919050565b600081519050919050565b600062000aca8262000ab2565b62000ad681856200095f565b935062000ae881856020860162000729565b62000af3816200065e565b840191505092915050565b6000604082019050818103600083015262000b1a818562000abd565b9050818103602083015262000b30818462000abd565b90509392505050565b7f4e487b7100000000000000000000000000000000000000000000000000000000600052602260045260246000fd5b6000600282049050600182168062000b8157607f821691505b6020821081141562000b985762000b9762000b39565b5b50919050565b6153328062000bae6000396000f3fe6080604052600436106101805760003560e01c80638da5cb5b116100d1578063cbef85c21161008a578063f2fde38b11610064578063f2fde38b14610572578063f7c60c0c1461059b578063fbe91393146105c6578063ffebd1721461060357610180565b8063cbef85c2146104cf578063edb160701461050c578063ef40efde1461054957610180565b80638da5cb5b146103bd5780638dc654a2146103e85780639c3feeb7146103ff578063aa0660901461042a578063b148cdf114610467578063c8fe739c1461049257610180565b80635e5243191161013e5780636e2a3a84116101185780636e2a3a841461031757806379ba50971461034057806380b71dca1461035757806384f4614e1461038057610180565b80635e5243191461028657806362098ff7146102af578063649677e1146102ec57610180565b8062e1a75b1461018557806301ec29c9146101ae578063106246d8146101d7578063401bf0831461020257806340364d111461023f5780634bfc91ee1461025b575b600080fd5b34801561019157600080fd5b506101ac60048036038101906101a79190613ad0565b610640565b005b3480156101ba57600080fd5b506101d560048036038101906101d09190613ad0565b6106d6565b005b3480156101e357600080fd5b506101ec61077f565b6040516101f99190613b32565b60405180910390f35b34801561020e57600080fd5b5061022960048036038101906102249190613b83565b610785565b6040516102369190613c38565b60405180910390f35b61025960048036038101906102549190613c7f565b610825565b005b34801561026757600080fd5b50610270610b5f565b60405161027d9190613b32565b60405180910390f35b34801561029257600080fd5b506102ad60048036038101906102a89190613d07565b610b65565b005b3480156102bb57600080fd5b506102d660048036038101906102d19190613d76565b610fdf565b6040516102e39190613e1a565b60405180910390f35b3480156102f857600080fd5b50610301611009565b60405161030e9190613b32565b60405180910390f35b34801561032357600080fd5b5061033e60048036038101906103399190613ad0565b61100f565b005b34801561034c57600080fd5b506103556110ae565b005b34801561036357600080fd5b5061037e60048036038101906103799190613e35565b611245565b005b34801561038c57600080fd5b506103a760048036038101906103a29190613ad0565b6112e5565b6040516103b49190613f7f565b60405180910390f35b3480156103c957600080fd5b506103d261138d565b6040516103df9190613fdb565b60405180910390f35b3480156103f457600080fd5b506103fd6113b7565b005b34801561040b57600080fd5b50610414611504565b6040516104219190613fdb565b60405180910390f35b34801561043657600080fd5b50610451600480360381019061044c9190614022565b61152a565b60405161045e9190613b32565b60405180910390f35b34801561047357600080fd5b5061047c611572565b6040516104899190613c38565b60405180910390f35b34801561049e57600080fd5b506104b960048036038101906104b49190613d07565b611600565b6040516104c69190613fdb565b60405180910390f35b3480156104db57600080fd5b506104f660048036038101906104f19190614022565b611671565b60405161050391906140ac565b60405180910390f35b34801561051857600080fd5b50610533600480360381019061052e9190613ad0565b6116c3565b6040516105409190613b32565b60405180910390f35b34801561055557600080fd5b50610570600480360381019061056b9190613ad0565b6116f1565b005b34801561057e57600080fd5b50610599600480360381019061059491906140c7565b61179a565b005b3480156105a757600080fd5b506105b06117ae565b6040516105bd9190613c38565b60405180910390f35b3480156105d257600080fd5b506105ed60048036038101906105e89190613ad0565b61183c565b6040516105fa9190614103565b60405180910390f35b34801561060f57600080fd5b5061062a60048036038101906106259190613ad0565b611872565b604051610637919061412d565b60405180910390f35b6001600481111561065457610653613da3565b5b6015826040516106649190614184565b908152602001604051809103902060009054906101000a900460ff16600481111561069257610691613da3565b5b14156106d3576040517f08c379a00000000000000000000000000000000000000000000000000000000081526004016106ca906141e7565b60405180910390fd5b50565b6106de611aa5565b600260048111156106f2576106f1613da3565b5b6015826040516107029190614184565b908152602001604051809103902060009054906101000a900460ff1660048111156107305761072f613da3565b5b1415610771576040517f08c379a000000000000000000000000000000000000000000000000000000000815260040161076890614253565b60405180910390fd5b61077c816002611b37565b50565b600f5481565b601760205280600052604060002060009150905080546107a4906142a2565b80601f01602080910402602001604051908101604052809291908181526020018280546107d0906142a2565b801561081d5780601f106107f25761010080835404028352916020019161081d565b820191906000526020600020905b81548152906001019060200180831161080057829003601f168201915b505050505081565b61082e82611bba565b6001600481111561084257610841613da3565b5b6015836040516108529190614184565b908152602001604051809103902060009054906101000a900460ff1660048111156108805761087f613da3565b5b146108c0576040517f08c379a00000000000000000000000000000000000000000000000000000000081526004016108b790614320565b60405180910390fd5b600e54341015610905576040517f08c379a00000000000000000000000000000000000000000000000000000000081526004016108fc9061438c565b60405180910390fd5b346013836040516109169190614184565b9081526020016040518091039020600083600281111561093957610938613da3565b5b600281111561094b5761094a613da3565b5b815260200190815260200160002060003373ffffffffffffffffffffffffffffffffffffffff1673ffffffffffffffffffffffffffffffffffffffff16815260200190815260200160002060008282546109a591906143db565b925050819055506011826040516109bc9190614184565b908152602001604051809103902060008260028111156109df576109de613da3565b5b60028111156109f1576109f0613da3565b5b8152602001908152602001600020339080600181540180825580915050600190039060005260206000200160009091909190916101000a81548173ffffffffffffffffffffffffffffffffffffffff021916908373ffffffffffffffffffffffffffffffffffffffff1602179055506001601283604051610a729190614184565b90815260200160405180910390206000836002811115610a9557610a94613da3565b5b6002811115610aa757610aa6613da3565b5b815260200190815260200160002060003373ffffffffffffffffffffffffffffffffffffffff1673ffffffffffffffffffffffffffffffffffffffff16815260200190815260200160002060006101000a81548160ff0219169083151502179055503373ffffffffffffffffffffffffffffffffffffffff167f1a48cf6315f5f44cf8ac3a5105296caf8a73f64b40f9a6b7cbf8ba65ca930fd4833484604051610b5393929190614431565b60405180910390a25050565b60105481565b60008111610ba8576040517f08c379a0000000000000000000000000000000000000000000000000000000008152600401610b9f906144bb565b60405180910390fd5b610bb183611bba565b60016004811115610bc557610bc4613da3565b5b601584604051610bd59190614184565b908152602001604051809103902060009054906101000a900460ff166004811115610c0357610c02613da3565b5b14610c43576040517f08c379a0000000000000000000000000000000000000000000000000000000008152600401610c3a90614527565b60405180910390fd5b6000601384604051610c559190614184565b90815260200160405180910390206000846002811115610c7857610c77613da3565b5b6002811115610c8a57610c89613da3565b5b815260200190815260200160002060003373ffffffffffffffffffffffffffffffffffffffff1673ffffffffffffffffffffffffffffffffffffffff16815260200190815260200160002054905060008111610d1b576040517f08c379a0000000000000000000000000000000000000000000000000000000008152600401610d1290614593565b60405180910390fd5b80821115610d5e576040517f08c379a0000000000000000000000000000000000000000000000000000000008152600401610d55906145ff565b60405180910390fd5b8181610d6a919061461f565b601385604051610d7a9190614184565b90815260200160405180910390206000856002811115610d9d57610d9c613da3565b5b6002811115610daf57610dae613da3565b5b815260200190815260200160002060003373ffffffffffffffffffffffffffffffffffffffff1673ffffffffffffffffffffffffffffffffffffffff168152602001908152602001600020819055506000601385604051610e109190614184565b90815260200160405180910390206000856002811115610e3357610e32613da3565b5b6002811115610e4557610e44613da3565b5b815260200190815260200160002060003373ffffffffffffffffffffffffffffffffffffffff1673ffffffffffffffffffffffffffffffffffffffff1681526020019081526020016000205411610f40576000601285604051610ea89190614184565b90815260200160405180910390206000856002811115610ecb57610eca613da3565b5b6002811115610edd57610edc613da3565b5b815260200190815260200160002060003373ffffffffffffffffffffffffffffffffffffffff1673ffffffffffffffffffffffffffffffffffffffff16815260200190815260200160002060006101000a81548160ff0219169083151502179055505b3373ffffffffffffffffffffffffffffffffffffffff166108fc839081150290604051600060405180830381858888f19350505050158015610f86573d6000803e3d6000fd5b503373ffffffffffffffffffffffffffffffffffffffff167f0f3b118062ef97715cdb7fc34e6b3bc6bf1c6ddbbbbc4e8d6f13eff984080d08858486604051610fd193929190614431565b60405180910390a250505050565b600d8160038110610fef57600080fd5b60209182820401919006915054906101000a900460ff1681565b600e5481565b6002600481111561102357611022613da3565b5b6015826040516110339190614184565b908152602001604051809103902060009054906101000a900460ff16600481111561106157611060613da3565b5b14156110a2576040517f08c379a00000000000000000000000000000000000000000000000000000000081526004016110999061469f565b60405180910390fd5b6110ab81611d21565b50565b600760009054906101000a900473ffffffffffffffffffffffffffffffffffffffff1673ffffffffffffffffffffffffffffffffffffffff163373ffffffffffffffffffffffffffffffffffffffff161461113e576040517f08c379a00000000000000000000000000000000000000000000000000000000081526004016111359061470b565b60405180910390fd5b6000600660009054906101000a900473ffffffffffffffffffffffffffffffffffffffff16905033600660006101000a81548173ffffffffffffffffffffffffffffffffffffffff021916908373ffffffffffffffffffffffffffffffffffffffff1602179055506000600760006101000a81548173ffffffffffffffffffffffffffffffffffffffff021916908373ffffffffffffffffffffffffffffffffffffffff1602179055503373ffffffffffffffffffffffffffffffffffffffff168173ffffffffffffffffffffffffffffffffffffffff167f8be0079c531659141344cd1fd0a4f28419497f9722a3daafe3b4186f6b6457e060405160405180910390a350565b600860009054906101000a900473ffffffffffffffffffffffffffffffffffffffff1673ffffffffffffffffffffffffffffffffffffffff163373ffffffffffffffffffffffffffffffffffffffff16146112d5576040517f08c379a00000000000000000000000000000000000000000000000000000000081526004016112cc90614777565b60405180910390fd5b6112e0838383611d92565b505050565b6112ed6137ec565b60405180606001604052806015846040516113089190614184565b908152602001604051809103902060009054906101000a900460ff16600481111561133657611335613da3565b5b81526020016040518060600160405280611351866000612013565b8152602001611361866001612013565b8152602001611371866002612013565b8152508152602001611383843361226c565b8152509050919050565b6000600660009054906101000a900473ffffffffffffffffffffffffffffffffffffffff16905090565b6113bf611aa5565b60006113c9612448565b90508073ffffffffffffffffffffffffffffffffffffffff1663a9059cbb338373ffffffffffffffffffffffffffffffffffffffff166370a08231306040518263ffffffff1660e01b81526004016114219190613fdb565b602060405180830381865afa15801561143e573d6000803e3d6000fd5b505050506040513d601f19601f8201168201806040525081019061146291906147ac565b6040518363ffffffff1660e01b815260040161147f9291906147d9565b6020604051808303816000875af115801561149e573d6000803e3d6000fd5b505050506040513d601f19601f820116820180604052508101906114c2919061482e565b611501576040517f08c379a00000000000000000000000000000000000000000000000000000000081526004016114f8906148a7565b60405180910390fd5b50565b600860009054906101000a900473ffffffffffffffffffffffffffffffffffffffff1681565b60138380516020810182018051848252602083016020850120818352809550505050505060205281600052604060002060205280600052604060002060009250925050505481565b6009805461157f906142a2565b80601f01602080910402602001604051908101604052809291908181526020018280546115ab906142a2565b80156115f85780601f106115cd576101008083540402835291602001916115f8565b820191906000526020600020905b8154815290600101906020018083116115db57829003601f168201915b505050505081565b601183805160208101820180518482526020830160208501208183528095505050505050602052816000526040600020818154811061163e57600080fd5b90600052602060002001600092509250509054906101000a900473ffffffffffffffffffffffffffffffffffffffff1681565b601283805160208101820180518482526020830160208501208183528095505050505050602052816000526040600020602052806000526040600020600092509250509054906101000a900460ff1681565b6016818051602081018201805184825260208301602085012081835280955050505050506000915090505481565b6116f9611aa5565b6000600481111561170d5761170c613da3565b5b60158260405161171d9190614184565b908152602001604051809103902060009054906101000a900460ff16600481111561174b5761174a613da3565b5b141561178c576040517f08c379a000000000000000000000000000000000000000000000000000000000815260040161178390614913565b60405180910390fd5b611797816000611b37565b50565b6117a2611aa5565b6117ab81612472565b50565b600c80546117bb906142a2565b80601f01602080910402602001604051908101604052809291908181526020018280546117e7906142a2565b80156118345780601f1061180957610100808354040283529160200191611834565b820191906000526020600020905b81548152906001019060200180831161181757829003601f168201915b505050505081565b6015818051602081018201805184825260208301602085012081835280955050505050506000915054906101000a900460ff1681565b600080611889600a54306380b71dca60e01b6125a1565b90506118f76040518060400160405280600981526020017f75726c526573756c7400000000000000000000000000000000000000000000008152506009856040516020016118d89291906149c7565b604051602081830303815290604052836125d29092919063ffffffff16565b6119766040518060400160405280600a81526020017f70617468526573756c74000000000000000000000000000000000000000000008152506040518060400160405280600681526020017f526573756c740000000000000000000000000000000000000000000000000000815250836125d29092919063ffffffff16565b6119f56040518060400160405280600b81526020017f706174684b69636b6f66660000000000000000000000000000000000000000008152506040518060400160405280600781526020017f4b69636b6f666600000000000000000000000000000000000000000000000000815250836125d29092919063ffffffff16565b611a0181600b54612605565b915050919050565b611aa18282604051602401611a1f9291906149eb565b6040516020818303038152906040527f4b5c4277000000000000000000000000000000000000000000000000000000007bffffffffffffffffffffffffffffffffffffffffffffffffffffffff19166020820180517bffffffffffffffffffffffffffffffffffffffffffffffffffffffff838183161783525050505061263c565b5050565b600660009054906101000a900473ffffffffffffffffffffffffffffffffffffffff1673ffffffffffffffffffffffffffffffffffffffff163373ffffffffffffffffffffffffffffffffffffffff1614611b35576040517f08c379a0000000000000000000000000000000000000000000000000000000008152600401611b2c90614a6e565b60405180910390fd5b565b80601583604051611b489190614184565b908152602001604051809103902060006101000a81548160ff02191690836004811115611b7857611b77613da3565b5b02179055507fe10ba6722d7a7a91bf343a0f8e5b026910dbc4a2ebca276930dff31703c59a708282604051611bae929190614a8e565b60405180910390a15050565b6000601682604051611bcc9190614184565b90815260200160405180910390205490506000811415611bec5750611d1e565b60006004811115611c0057611bff613da3565b5b601583604051611c109190614184565b908152602001604051809103902060009054906101000a900460ff166004811115611c3e57611c3d613da3565b5b148015611c58575060105481611c54919061461f565b4211155b8015611c715750600f5481611c6d919061461f565b4210155b8015611c805750600060105414155b15611c9157611c90826001611b37565b5b60016004811115611ca557611ca4613da3565b5b601583604051611cb59190614184565b908152602001604051809103902060009054906101000a900460ff166004811115611ce357611ce2613da3565b5b148015611cfc575060105481611cf9919061461f565b42115b8015611d0b5750600060105414155b15611d1c57611d1b826002611b37565b5b505b50565b6000611d2c82611872565b905081601760008381526020019081526020016000209080519060200190611d5592919061382b565b50807fc36e98a50a4fd27efe75de15a0e1c01e0ccba2218c7871d3c836905bfe1bc3e183604051611d869190613c38565b60405180910390a25050565b826005600082815260200190815260200160002060009054906101000a900473ffffffffffffffffffffffffffffffffffffffff1673ffffffffffffffffffffffffffffffffffffffff163373ffffffffffffffffffffffffffffffffffffffff1614611e34576040517f08c379a0000000000000000000000000000000000000000000000000000000008152600401611e2b90614b30565b60405180910390fd5b6005600082815260200190815260200160002060006101000a81549073ffffffffffffffffffffffffffffffffffffffff0219169055807f7cc135e0cebb02c3480ae5d74d377283180a2601f8f644edf7987b009316c63a60405160405180910390a26000601760008681526020019081526020016000208054611eb7906142a2565b80601f0160208091040260200160405190810160405280929190818152602001828054611ee3906142a2565b8015611f305780601f10611f0557610100808354040283529160200191611f30565b820191906000526020600020905b815481529060010190602001808311611f1357829003601f168201915b50505050509050847f6125286ff7c688816bd3feb69d5aa9e9720624656a8478a8f351fa81a0d66004828686604051611f6b93929190614b50565b60405180910390a2611f7d8184612665565b611f8681611bba565b60026004811115611f9a57611f99613da3565b5b601582604051611faa9190614184565b908152602001604051809103902060009054906101000a900460ff166004811115611fd857611fd7613da3565b5b148015611fe6575060008451115b1561200c57611ff6816003611b37565b61200081856126eb565b61200b816004611b37565b5b5050505050565b60008060005b6011856040516120299190614184565b9081526020016040518091039020600085600281111561204c5761204b613da3565b5b600281111561205e5761205d613da3565b5b8152602001908152602001600020805490508110156122615760006011866040516120899190614184565b908152602001604051809103902060008660028111156120ac576120ab613da3565b5b60028111156120be576120bd613da3565b5b815260200190815260200160002082815481106120de576120dd614b95565b5b9060005260206000200160009054906101000a900473ffffffffffffffffffffffffffffffffffffffff16905060128660405161211b9190614184565b9081526020016040518091039020600086600281111561213e5761213d613da3565b5b60028111156121505761214f613da3565b5b815260200190815260200160002060008273ffffffffffffffffffffffffffffffffffffffff1673ffffffffffffffffffffffffffffffffffffffff16815260200190815260200160002060009054906101000a900460ff161561224d576013866040516121be9190614184565b908152602001604051809103902060008660028111156121e1576121e0613da3565b5b60028111156121f3576121f2613da3565b5b815260200190815260200160002060008273ffffffffffffffffffffffffffffffffffffffff1673ffffffffffffffffffffffffffffffffffffffff168152602001908152602001600020548361224a91906143db565b92505b50808061225990614bc4565b915050612019565b508091505092915050565b6122746138b1565b604051806060016040528060138560405161228f9190614184565b908152602001604051809103902060008060028111156122b2576122b1613da3565b5b60028111156122c4576122c3613da3565b5b815260200190815260200160002060008573ffffffffffffffffffffffffffffffffffffffff1673ffffffffffffffffffffffffffffffffffffffff1681526020019081526020016000205481526020016013856040516123259190614184565b908152602001604051809103902060006001600281111561234957612348613da3565b5b600281111561235b5761235a613da3565b5b815260200190815260200160002060008573ffffffffffffffffffffffffffffffffffffffff1673ffffffffffffffffffffffffffffffffffffffff1681526020019081526020016000205481526020016013856040516123bc9190614184565b908152602001604051809103902060006002808111156123df576123de613da3565b5b60028111156123f1576123f0613da3565b5b815260200190815260200160002060008573ffffffffffffffffffffffffffffffffffffffff1673ffffffffffffffffffffffffffffffffffffffff16815260200190815260200160002054815250905092915050565b6000600260009054906101000a900473ffffffffffffffffffffffffffffffffffffffff16905090565b3373ffffffffffffffffffffffffffffffffffffffff168173ffffffffffffffffffffffffffffffffffffffff1614156124e1576040517f08c379a00000000000000000000000000000000000000000000000000000000081526004016124d890614c59565b60405180910390fd5b80600760006101000a81548173ffffffffffffffffffffffffffffffffffffffff021916908373ffffffffffffffffffffffffffffffffffffffff1602179055508073ffffffffffffffffffffffffffffffffffffffff16600660009054906101000a900473ffffffffffffffffffffffffffffffffffffffff1673ffffffffffffffffffffffffffffffffffffffff167fed8889f560326eb138920d842192f0eb3dd22b4f139c87a2c57538e05bae127860405160405180910390a350565b6125a96138d2565b6125b16138d2565b6125c885858584612791909392919063ffffffff16565b9150509392505050565b6125e982846080015161284190919063ffffffff16565b61260081846080015161284190919063ffffffff16565b505050565b6000612634600360009054906101000a900473ffffffffffffffffffffffffffffffffffffffff168484612866565b905092915050565b60008151905060006a636f6e736f6c652e6c6f679050602083016000808483855afa5050505050565b6016826040516126759190614184565b90815260200160405180910390205481146126e7578060168360405161269b9190614184565b9081526020016040518091039020819055507f20af5e7c127dd84267ef67d2a1fa455b47bc60840459b4db987929e37daf07a382826040516126de929190614c79565b60405180910390a15b5050565b60006126f78383612932565b9050606081816000815181106127105761270f614b95565b5b6020026020010190600281111561272a57612729613da3565b5b9081600281111561273e5761273d613da3565b5b81525050600061274d83612abd565b9050600061275b8684612c0b565b905060006127698784612c0b565b90506000818361277991906143db565b905061278788878584612c69565b5050505050505050565b6127996138d2565b6127a98560800151610100613197565b508385600001818152505082856020019073ffffffffffffffffffffffffffffffffffffffff16908173ffffffffffffffffffffffffffffffffffffffff16815250508185604001907bffffffffffffffffffffffffffffffffffffffffffffffffffffffff191690817bffffffffffffffffffffffffffffffffffffffffffffffffffffffff191681525050849050949350505050565b61284e8260038351613201565b612861818361338690919063ffffffff16565b505050565b600080600454905060018161287b91906143db565b6004819055506000634042994660e01b60008087600001513089604001518760018c60800151600001516040516024016128bc989796959493929190614d39565b604051602081830303815290604052907bffffffffffffffffffffffffffffffffffffffffffffffffffffffff19166020820180517bffffffffffffffffffffffffffffffffffffffffffffffffffffffff83818316178352505050509050612927868386846133a8565b925050509392505050565b6000612973826040518060400160405280600481526020017f484f4d450000000000000000000000000000000000000000000000000000000081525061353d565b156129815760009050612ab7565b6129c0826040518060400160405280600481526020017f445241570000000000000000000000000000000000000000000000000000000081525061353d565b156129ce5760019050612ab7565b612a0d826040518060400160405280600481526020017f415741590000000000000000000000000000000000000000000000000000000081525061353d565b15612a1b5760029050612ab7565b60008383604051602001612a30929190614e0a565b60405160208183030381529060405290507f2a2c16a3ce1dea0db612b14a8fdc9a8d316acc87914b4d66440d119b41e8615f8482604051612a729291906149eb565b60405180910390a1806040517f08c379a0000000000000000000000000000000000000000000000000000000008152600401612aae9190613c38565b60405180910390fd5b92915050565b60606000600267ffffffffffffffff811115612adc57612adb6139a5565b5b604051908082528060200260200182016040528015612b0a5781602001602082028036833780820191505090505b5090506000805b6003811015612c0057846002811115612b2d57612b2c613da3565b5b600d8260038110612b4157612b40614b95565b5b602091828204019190069054906101000a900460ff166002811115612b6957612b68613da3565b5b14612bed57600d8160038110612b8257612b81614b95565b5b602091828204019190069054906101000a900460ff16838381518110612bab57612baa614b95565b5b60200260200101906002811115612bc557612bc4613da3565b5b90816002811115612bd957612bd8613da3565b5b81525050600182612bea91906143db565b91505b8080612bf890614bc4565b915050612b11565b508192505050919050565b60008060005b8351811015612c5e57612c3e85858381518110612c3157612c30614b95565b5b6020026020010151612013565b82612c4991906143db565b91508080612c5690614bc4565b915050612c11565b508091505092915050565b60036004811115612c7d57612c7c613da3565b5b601585604051612c8d9190614184565b908152602001604051809103902060009054906101000a900460ff166004811115612cbb57612cba613da3565b5b14612cfb576040517f08c379a0000000000000000000000000000000000000000000000000000000008152600401612cf290614ebe565b60405180910390fd5b60005b601185604051612d0e9190614184565b90815260200160405180910390206000856002811115612d3157612d30613da3565b5b6002811115612d4357612d42613da3565b5b815260200190815260200160002080549050811015613190576000601186604051612d6e9190614184565b90815260200160405180910390206000866002811115612d9157612d90613da3565b5b6002811115612da357612da2613da3565b5b81526020019081526020016000208281548110612dc357612dc2614b95565b5b9060005260206000200160009054906101000a900473ffffffffffffffffffffffffffffffffffffffff169050601286604051612e009190614184565b90815260200160405180910390206000866002811115612e2357612e22613da3565b5b6002811115612e3557612e34613da3565b5b815260200190815260200160002060008273ffffffffffffffffffffffffffffffffffffffff1673ffffffffffffffffffffffffffffffffffffffff16815260200190815260200160002060009054906101000a900460ff161561317c576000601387604051612ea59190614184565b90815260200160405180910390206000876002811115612ec857612ec7613da3565b5b6002811115612eda57612ed9613da3565b5b815260200190815260200160002060008373ffffffffffffffffffffffffffffffffffffffff1673ffffffffffffffffffffffffffffffffffffffff16815260200190815260200160002054905060008585612f369190614f0d565b82612f419190614f3e565b905080601489604051612f549190614184565b908152602001604051809103902060008573ffffffffffffffffffffffffffffffffffffffff1673ffffffffffffffffffffffffffffffffffffffff168152602001908152602001600020819055506000601389604051612fb59190614184565b90815260200160405180910390206000896002811115612fd857612fd7613da3565b5b6002811115612fea57612fe9613da3565b5b815260200190815260200160002060008573ffffffffffffffffffffffffffffffffffffffff1673ffffffffffffffffffffffffffffffffffffffff16815260200190815260200160002081905550600060128960405161304b9190614184565b9081526020016040518091039020600089600281111561306e5761306d613da3565b5b60028111156130805761307f613da3565b5b815260200190815260200160002060008573ffffffffffffffffffffffffffffffffffffffff1673ffffffffffffffffffffffffffffffffffffffff16815260200190815260200160002060006101000a81548160ff0219169083151502179055508273ffffffffffffffffffffffffffffffffffffffff166108fc829081150290604051600060405180830381858888f19350505050158015613128573d6000803e3d6000fd5b508273ffffffffffffffffffffffffffffffffffffffff167fc0acd5bc47ab9bd28274b4de553779f718ae53f42f84fe011e7eed61cda99cbd8983604051613171929190614c79565b60405180910390a250505b50808061318890614bc4565b915050612cfe565b5050505050565b61319f61393f565b60006020836131ae9190614f98565b146131da576020826131c09190614f98565b60206131cc919061461f565b826131d791906143db565b91505b81836020018181525050604051808452600081528281016020016040525082905092915050565b60178167ffffffffffffffff1611613238576132328160058460ff16901b60ff16178461359690919063ffffffff16565b50613381565b60ff8167ffffffffffffffff161161328e57613267601860058460ff16901b178461359690919063ffffffff16565b506132888167ffffffffffffffff166001856135b69092919063ffffffff16565b50613380565b61ffff8167ffffffffffffffff16116132e5576132be601960058460ff16901b178461359690919063ffffffff16565b506132df8167ffffffffffffffff166002856135b69092919063ffffffff16565b5061337f565b63ffffffff8167ffffffffffffffff161161333e57613317601a60058460ff16901b178461359690919063ffffffff16565b506133388167ffffffffffffffff166004856135b69092919063ffffffff16565b5061337e565b61335b601b60058460ff16901b178461359690919063ffffffff16565b5061337c8167ffffffffffffffff166008856135b69092919063ffffffff16565b505b5b5b5b505050565b61338e61393f565b6133a0838460000151518485516135d8565b905092915050565b600030846040516020016133bd929190615082565b604051602081830303815290604052805190602001209050846005600083815260200190815260200160002060006101000a81548173ffffffffffffffffffffffffffffffffffffffff021916908373ffffffffffffffffffffffffffffffffffffffff160217905550807fb5e6e01e79f91267dc17b4e6314d5d4d03593d2ceee0fbb452b750bd70ea5af960405160405180910390a2600260009054906101000a900473ffffffffffffffffffffffffffffffffffffffff1673ffffffffffffffffffffffffffffffffffffffff16634000aea08685856040518463ffffffff1660e01b81526004016134b3939291906150ae565b6020604051808303816000875af11580156134d2573d6000803e3d6000fd5b505050506040513d601f19601f820116820180604052508101906134f6919061482e565b613535576040517f08c379a000000000000000000000000000000000000000000000000000000000815260040161352c9061515e565b60405180910390fd5b949350505050565b6000816040516020016135509190614184565b60405160208183030381529060405280519060200120836040516020016135779190614184565b6040516020818303038152906040528051906020012014905092915050565b61359e61393f565b6135ae83846000015151846136c7565b905092915050565b6135be61393f565b6135cf84856000015151858561371e565b90509392505050565b6135e061393f565b82518211156135ee57600080fd5b846020015182856135ff91906143db565b1115613634576136338560026136248860200151888761361f91906143db565b6137ac565b61362e9190614f3e565b6137c8565b5b6000808651805187602083010193508088870111156136535787860182525b60208701925050505b6020841061369a578051825260208261367591906143db565b915060208161368491906143db565b9050602084613693919061461f565b935061365c565b60006001856020036101000a03905080198251168184511681811785525050508692505050949350505050565b6136cf61393f565b836020015183106136f5576136f484600286602001516136ef9190614f3e565b6137c8565b5b8351805160208583010184815381861415613711576001820183525b5050508390509392505050565b61372661393f565b8460200151848361373791906143db565b111561375f5761375e856002868561374f91906143db565b6137599190614f3e565b6137c8565b5b600060018361010061377191906152b1565b61377b919061461f565b9050855183868201018583198251161781528151858801111561379e5784870182525b505085915050949350505050565b6000818311156137be578290506137c2565b8190505b92915050565b6000826000015190506137db8383613197565b506137e68382613386565b50505050565b60405180606001604052806000600481111561380b5761380a613da3565b5b81526020016138186138b1565b81526020016138256138b1565b81525090565b828054613837906142a2565b90600052602060002090601f01602090048101928261385957600085556138a0565b82601f1061387257805160ff19168380011785556138a0565b828001600101855582156138a0579182015b8281111561389f578251825591602001919060010190613884565b5b5090506138ad9190613959565b5090565b60405180606001604052806000815260200160008152602001600081525090565b6040518060a0016040528060008019168152602001600073ffffffffffffffffffffffffffffffffffffffff16815260200160007bffffffffffffffffffffffffffffffffffffffffffffffffffffffff191681526020016000815260200161393961393f565b81525090565b604051806040016040528060608152602001600081525090565b5b8082111561397257600081600090555060010161395a565b5090565b6000604051905090565b600080fd5b600080fd5b600080fd5b600080fd5b6000601f19601f8301169050919050565b7f4e487b7100000000000000000000000000000000000000000000000000000000600052604160045260246000fd5b6139dd82613994565b810181811067ffffffffffffffff821117156139fc576139fb6139a5565b5b80604052505050565b6000613a0f613976565b9050613a1b82826139d4565b919050565b600067ffffffffffffffff821115613a3b57613a3a6139a5565b5b613a4482613994565b9050602081019050919050565b82818337600083830152505050565b6000613a73613a6e84613a20565b613a05565b905082815260208101848484011115613a8f57613a8e61398f565b5b613a9a848285613a51565b509392505050565b600082601f830112613ab757613ab661398a565b5b8135613ac7848260208601613a60565b91505092915050565b600060208284031215613ae657613ae5613980565b5b600082013567ffffffffffffffff811115613b0457613b03613985565b5b613b1084828501613aa2565b91505092915050565b6000819050919050565b613b2c81613b19565b82525050565b6000602082019050613b476000830184613b23565b92915050565b6000819050919050565b613b6081613b4d565b8114613b6b57600080fd5b50565b600081359050613b7d81613b57565b92915050565b600060208284031215613b9957613b98613980565b5b6000613ba784828501613b6e565b91505092915050565b600081519050919050565b600082825260208201905092915050565b60005b83811015613bea578082015181840152602081019050613bcf565b83811115613bf9576000848401525b50505050565b6000613c0a82613bb0565b613c148185613bbb565b9350613c24818560208601613bcc565b613c2d81613994565b840191505092915050565b60006020820190508181036000830152613c528184613bff565b905092915050565b60038110613c6757600080fd5b50565b600081359050613c7981613c5a565b92915050565b60008060408385031215613c9657613c95613980565b5b600083013567ffffffffffffffff811115613cb457613cb3613985565b5b613cc085828601613aa2565b9250506020613cd185828601613c6a565b9150509250929050565b613ce481613b19565b8114613cef57600080fd5b50565b600081359050613d0181613cdb565b92915050565b600080600060608486031215613d2057613d1f613980565b5b600084013567ffffffffffffffff811115613d3e57613d3d613985565b5b613d4a86828701613aa2565b9350506020613d5b86828701613c6a565b9250506040613d6c86828701613cf2565b9150509250925092565b600060208284031215613d8c57613d8b613980565b5b6000613d9a84828501613cf2565b91505092915050565b7f4e487b7100000000000000000000000000000000000000000000000000000000600052602160045260246000fd5b60038110613de357613de2613da3565b5b50565b6000819050613df482613dd2565b919050565b6000613e0482613de6565b9050919050565b613e1481613df9565b82525050565b6000602082019050613e2f6000830184613e0b565b92915050565b600080600060608486031215613e4e57613e4d613980565b5b6000613e5c86828701613b6e565b935050602084013567ffffffffffffffff811115613e7d57613e7c613985565b5b613e8986828701613aa2565b9250506040613e9a86828701613cf2565b9150509250925092565b60058110613eb557613eb4613da3565b5b50565b6000819050613ec682613ea4565b919050565b6000613ed682613eb8565b9050919050565b613ee681613ecb565b82525050565b613ef581613b19565b82525050565b606082016000820151613f116000850182613eec565b506020820151613f246020850182613eec565b506040820151613f376040850182613eec565b50505050565b60e082016000820151613f536000850182613edd565b506020820151613f666020850182613efb565b506040820151613f796080850182613efb565b50505050565b600060e082019050613f946000830184613f3d565b92915050565b600073ffffffffffffffffffffffffffffffffffffffff82169050919050565b6000613fc582613f9a565b9050919050565b613fd581613fba565b82525050565b6000602082019050613ff06000830184613fcc565b92915050565b613fff81613fba565b811461400a57600080fd5b50565b60008135905061401c81613ff6565b92915050565b60008060006060848603121561403b5761403a613980565b5b600084013567ffffffffffffffff81111561405957614058613985565b5b61406586828701613aa2565b935050602061407686828701613c6a565b92505060406140878682870161400d565b9150509250925092565b60008115159050919050565b6140a681614091565b82525050565b60006020820190506140c1600083018461409d565b92915050565b6000602082840312156140dd576140dc613980565b5b60006140eb8482850161400d565b91505092915050565b6140fd81613ecb565b82525050565b600060208201905061411860008301846140f4565b92915050565b61412781613b4d565b82525050565b6000602082019050614142600083018461411e565b92915050565b600081905092915050565b600061415e82613bb0565b6141688185614148565b9350614178818560208601613bcc565b80840191505092915050565b60006141908284614153565b915081905092915050565b7f42657420737461746520697320616c7265616479204f50454e2e000000000000600082015250565b60006141d1601a83613bbb565b91506141dc8261419b565b602082019050919050565b60006020820190508181036000830152614200816141c4565b9050919050565b7f42657420737461746520697320616c7265616479204157414954494e472e0000600082015250565b600061423d601e83613bbb565b915061424882614207565b602082019050919050565b6000602082019050818103600083015261426c81614230565b9050919050565b7f4e487b7100000000000000000000000000000000000000000000000000000000600052602260045260246000fd5b600060028204905060018216806142ba57607f821691505b602082108114156142ce576142cd614273565b5b50919050565b7f426574206163746976697479206973206e6f74206f70656e2e00000000000000600082015250565b600061430a601983613bbb565b9150614315826142d4565b602082019050919050565b60006020820190508181036000830152614339816142fd565b9050919050565b7f416d6f756e742069732062656c6f7720656e7472616e6365206665652e000000600082015250565b6000614376601d83613bbb565b915061438182614340565b602082019050919050565b600060208201905081810360008301526143a581614369565b9050919050565b7f4e487b7100000000000000000000000000000000000000000000000000000000600052601160045260246000fd5b60006143e682613b19565b91506143f183613b19565b9250827fffffffffffffffffffffffffffffffffffffffffffffffffffffffffffffffff03821115614426576144256143ac565b5b828201905092915050565b6000606082019050818103600083015261444b8186613bff565b905061445a6020830185613b23565b6144676040830184613e0b565b949350505050565b7f416d6f756e742073686f756c6420657863656564207a65726f2e000000000000600082015250565b60006144a5601a83613bbb565b91506144b08261446f565b602082019050919050565b600060208201905081810360008301526144d481614498565b9050919050565b7f46697874757265206973206e6f7420696e204f70656e2073746174652e000000600082015250565b6000614511601d83613bbb565b915061451c826144db565b602082019050919050565b6000602082019050818103600083015261454081614504565b9050919050565b7f4e6f207374616b65206f6e207468697320616464726573732d726573756c742e600082015250565b600061457d602083613bbb565b915061458882614547565b602082019050919050565b600060208201905081810360008301526145ac81614570565b9050919050565b7f43757272656e74207374616b6520746f6f206c6f772e00000000000000000000600082015250565b60006145e9601683613bbb565b91506145f4826145b3565b602082019050919050565b60006020820190508181036000830152614618816145dc565b9050919050565b600061462a82613b19565b915061463583613b19565b925082821015614648576146476143ac565b5b828203905092915050565b7f426574207374617465206d757374206265204157414954494e472e0000000000600082015250565b6000614689601b83613bbb565b915061469482614653565b602082019050919050565b600060208201905081810360008301526146b88161467c565b9050919050565b7f4d7573742062652070726f706f736564206f776e657200000000000000000000600082015250565b60006146f5601683613bbb565b9150614700826146bf565b602082019050919050565b60006020820190508181036000830152614724816146e8565b9050919050565b7f4f6e6c7920436861696e6c696e6b436c69656e742063616e2066756c66696c6c600082015250565b6000614761602083613bbb565b915061476c8261472b565b602082019050919050565b6000602082019050818103600083015261479081614754565b9050919050565b6000815190506147a681613cdb565b92915050565b6000602082840312156147c2576147c1613980565b5b60006147d084828501614797565b91505092915050565b60006040820190506147ee6000830185613fcc565b6147fb6020830184613b23565b9392505050565b61480b81614091565b811461481657600080fd5b50565b60008151905061482881614802565b92915050565b60006020828403121561484457614843613980565b5b600061485284828501614819565b91505092915050565b7f556e61626c6520746f207472616e736665720000000000000000000000000000600082015250565b6000614891601283613bbb565b915061489c8261485b565b602082019050919050565b600060208201905081810360008301526148c081614884565b9050919050565b7f42657420737461746520697320616c726561647920434c4f5345442e00000000600082015250565b60006148fd601c83613bbb565b9150614908826148c7565b602082019050919050565b6000602082019050818103600083015261492c816148f0565b9050919050565b60008190508160005260206000209050919050565b60008154614955816142a2565b61495f8186614148565b9450600182166000811461497a576001811461498b576149be565b60ff198316865281860193506149be565b61499485614933565b60005b838110156149b657815481890152600182019150602081019050614997565b838801955050505b50505092915050565b60006149d38285614948565b91506149df8284614153565b91508190509392505050565b60006040820190508181036000830152614a058185613bff565b90508181036020830152614a198184613bff565b90509392505050565b7f4f6e6c792063616c6c61626c65206279206f776e657200000000000000000000600082015250565b6000614a58601683613bbb565b9150614a6382614a22565b602082019050919050565b60006020820190508181036000830152614a8781614a4b565b9050919050565b60006040820190508181036000830152614aa88185613bff565b9050614ab760208301846140f4565b9392505050565b7f536f75726365206d75737420626520746865206f7261636c65206f662074686560008201527f2072657175657374000000000000000000000000000000000000000000000000602082015250565b6000614b1a602883613bbb565b9150614b2582614abe565b604082019050919050565b60006020820190508181036000830152614b4981614b0d565b9050919050565b60006060820190508181036000830152614b6a8186613bff565b90508181036020830152614b7e8185613bff565b9050614b8d6040830184613b23565b949350505050565b7f4e487b7100000000000000000000000000000000000000000000000000000000600052603260045260246000fd5b6000614bcf82613b19565b91507fffffffffffffffffffffffffffffffffffffffffffffffffffffffffffffffff821415614c0257614c016143ac565b5b600182019050919050565b7f43616e6e6f74207472616e7366657220746f2073656c66000000000000000000600082015250565b6000614c43601783613bbb565b9150614c4e82614c0d565b602082019050919050565b60006020820190508181036000830152614c7281614c36565b9050919050565b60006040820190508181036000830152614c938185613bff565b9050614ca26020830184613b23565b9392505050565b60007fffffffff0000000000000000000000000000000000000000000000000000000082169050919050565b614cde81614ca9565b82525050565b600081519050919050565b600082825260208201905092915050565b6000614d0b82614ce4565b614d158185614cef565b9350614d25818560208601613bcc565b614d2e81613994565b840191505092915050565b600061010082019050614d4f600083018b613fcc565b614d5c602083018a613b23565b614d69604083018961411e565b614d766060830188613fcc565b614d836080830187614cd5565b614d9060a0830186613b23565b614d9d60c0830185613b23565b81810360e0830152614daf8184614d00565b90509998505050505050505050565b7f4572726f72206f6e206669787475726520000000000000000000000000000000815250565b7f3a20556e6b6e6f776e20726573756c742066726f6d204150493a200000000000815250565b6000614e1582614dbe565b601182019150614e258285614153565b9150614e3082614de4565b601b82019150614e408284614153565b91508190509392505050565b7f4669787475726520626574207374617465206973206e6f742046554c46494c4c60008201527f494e472e00000000000000000000000000000000000000000000000000000000602082015250565b6000614ea8602483613bbb565b9150614eb382614e4c565b604082019050919050565b60006020820190508181036000830152614ed781614e9b565b9050919050565b7f4e487b7100000000000000000000000000000000000000000000000000000000600052601260045260246000fd5b6000614f1882613b19565b9150614f2383613b19565b925082614f3357614f32614ede565b5b828204905092915050565b6000614f4982613b19565b9150614f5483613b19565b9250817fffffffffffffffffffffffffffffffffffffffffffffffffffffffffffffffff0483118215151615614f8d57614f8c6143ac565b5b828202905092915050565b6000614fa382613b19565b9150614fae83613b19565b925082614fbe57614fbd614ede565b5b828206905092915050565b6000819050919050565b6000614fee614fe9614fe484613f9a565b614fc9565b613f9a565b9050919050565b600061500082614fd3565b9050919050565b600061501282614ff5565b9050919050565b60008160601b9050919050565b600061503182615019565b9050919050565b600061504382615026565b9050919050565b61505b61505682615007565b615038565b82525050565b6000819050919050565b61507c61507782613b19565b615061565b82525050565b600061508e828561504a565b60148201915061509e828461506b565b6020820191508190509392505050565b60006060820190506150c36000830186613fcc565b6150d06020830185613b23565b81810360408301526150e28184614d00565b9050949350505050565b7f756e61626c6520746f207472616e73666572416e6443616c6c20746f206f726160008201527f636c650000000000000000000000000000000000000000000000000000000000602082015250565b6000615148602383613bbb565b9150615153826150ec565b604082019050919050565b600060208201905081810360008301526151778161513b565b9050919050565b60008160011c9050919050565b6000808291508390505b60018511156151d5578086048111156151b1576151b06143ac565b5b60018516156151c05780820291505b80810290506151ce8561517e565b9450615195565b94509492505050565b6000826151ee57600190506152aa565b816151fc57600090506152aa565b8160018114615212576002811461521c5761524b565b60019150506152aa565b60ff84111561522e5761522d6143ac565b5b8360020a915084821115615245576152446143ac565b5b506152aa565b5060208310610133831016604e8410600b84101617156152805782820a90508381111561527b5761527a6143ac565b5b6152aa565b61528d848484600161518b565b925090508184048111156152a4576152a36143ac565b5b81810290505b9392505050565b60006152bc82613b19565b91506152c783613b19565b92506152f47fffffffffffffffffffffffffffffffffffffffffffffffffffffffffffffffff84846151de565b90509291505056fea26469706673582212206b37d8fac9f3c11755f7b74664279eeed2b360c51af415569a1219a6fd48f2ed64736f6c634300080c00334465706c6f79696e6720612053706f72747342657474696e6720776974682073706f727473206f7261636c65205552493a",
  "devdoc": {
    "kind": "dev",
    "methods": {},
    "version": 1
  },
  "userdoc": {
    "kind": "user",
    "methods": {
      "acceptOwnership()": {
        "notice": "Allows an ownership transfer to be completed by the recipient."
      },
      "owner()": {
        "notice": "Get the current owner"
      },
      "requestMultipleParameters(string)": {
        "notice": "Request mutiple parameters from the oracle in a single transaction"
      },
      "transferOwnership(address)": {
        "notice": "Allows an owner to begin transferring ownership to a new address, pending."
      },
      "withdrawLink()": {
        "notice": "Allow withdraw of Link tokens from the contract"
      }
    },
    "version": 1
  },
  "storageLayout": {
    "storage": [
      {
        "astId": 319,
        "contract": "contracts/SportsBetting.sol:SportsBetting",
        "label": "s_ens",
        "offset": 0,
        "slot": "0",
        "type": "t_contract(ENSInterface)1156"
      },
      {
        "astId": 321,
        "contract": "contracts/SportsBetting.sol:SportsBetting",
        "label": "s_ensNode",
        "offset": 0,
        "slot": "1",
        "type": "t_bytes32"
      },
      {
        "astId": 324,
        "contract": "contracts/SportsBetting.sol:SportsBetting",
        "label": "s_link",
        "offset": 0,
        "slot": "2",
        "type": "t_contract(LinkTokenInterface)1251"
      },
      {
        "astId": 327,
        "contract": "contracts/SportsBetting.sol:SportsBetting",
        "label": "s_oracle",
        "offset": 0,
        "slot": "3",
        "type": "t_contract(OperatorInterface)1331"
      },
      {
        "astId": 330,
        "contract": "contracts/SportsBetting.sol:SportsBetting",
        "label": "s_requestCount",
        "offset": 0,
        "slot": "4",
        "type": "t_uint256"
      },
      {
        "astId": 334,
        "contract": "contracts/SportsBetting.sol:SportsBetting",
        "label": "s_pendingRequests",
        "offset": 0,
        "slot": "5",
        "type": "t_mapping(t_bytes32,t_address)"
      },
      {
        "astId": 889,
        "contract": "contracts/SportsBetting.sol:SportsBetting",
        "label": "s_owner",
        "offset": 0,
        "slot": "6",
        "type": "t_address"
      },
      {
        "astId": 891,
        "contract": "contracts/SportsBetting.sol:SportsBetting",
        "label": "s_pendingOwner",
        "offset": 0,
        "slot": "7",
        "type": "t_address"
      },
      {
        "astId": 3709,
        "contract": "contracts/SportsBetting.sol:SportsBetting",
        "label": "chainlink",
        "offset": 0,
        "slot": "8",
        "type": "t_address"
      },
      {
        "astId": 3711,
        "contract": "contracts/SportsBetting.sol:SportsBetting",
        "label": "sportsOracleURI",
        "offset": 0,
        "slot": "9",
        "type": "t_string_storage"
      },
      {
        "astId": 3713,
        "contract": "contracts/SportsBetting.sol:SportsBetting",
        "label": "jobId",
        "offset": 0,
        "slot": "10",
        "type": "t_bytes32"
      },
      {
        "astId": 3715,
        "contract": "contracts/SportsBetting.sol:SportsBetting",
        "label": "fee",
        "offset": 0,
        "slot": "11",
        "type": "t_uint256"
      },
      {
        "astId": 3717,
        "contract": "contracts/SportsBetting.sol:SportsBetting",
        "label": "fixtureResult",
        "offset": 0,
        "slot": "12",
        "type": "t_string_storage"
      },
      {
        "astId": 2596,
        "contract": "contracts/SportsBetting.sol:SportsBetting",
        "label": "betTypes",
        "offset": 0,
        "slot": "13",
        "type": "t_array(t_enum(BetType)2519)3_storage"
      },
      {
        "astId": 2601,
        "contract": "contracts/SportsBetting.sol:SportsBetting",
        "label": "entranceFee",
        "offset": 0,
        "slot": "14",
        "type": "t_uint256"
      },
      {
        "astId": 2610,
        "contract": "contracts/SportsBetting.sol:SportsBetting",
        "label": "betAdvanceTime",
        "offset": 0,
        "slot": "15",
        "type": "t_uint256"
      },
      {
        "astId": 2615,
        "contract": "contracts/SportsBetting.sol:SportsBetting",
        "label": "betCutOffTime",
        "offset": 0,
        "slot": "16",
        "type": "t_uint256"
      },
      {
        "astId": 2623,
        "contract": "contracts/SportsBetting.sol:SportsBetting",
        "label": "historicalBetters",
        "offset": 0,
        "slot": "17",
        "type": "t_mapping(t_string_memory_ptr,t_mapping(t_enum(BetType)2519,t_array(t_address)dyn_storage))"
      },
      {
        "astId": 2632,
        "contract": "contracts/SportsBetting.sol:SportsBetting",
        "label": "activeBetters",
        "offset": 0,
        "slot": "18",
        "type": "t_mapping(t_string_memory_ptr,t_mapping(t_enum(BetType)2519,t_mapping(t_address,t_bool)))"
      },
      {
        "astId": 2641,
        "contract": "contracts/SportsBetting.sol:SportsBetting",
        "label": "amounts",
        "offset": 0,
        "slot": "19",
        "type": "t_mapping(t_string_memory_ptr,t_mapping(t_enum(BetType)2519,t_mapping(t_address,t_uint256)))"
      },
      {
        "astId": 2647,
        "contract": "contracts/SportsBetting.sol:SportsBetting",
        "label": "obligations",
        "offset": 0,
        "slot": "20",
        "type": "t_mapping(t_string_memory_ptr,t_mapping(t_address,t_uint256))"
      },
      {
        "astId": 2652,
        "contract": "contracts/SportsBetting.sol:SportsBetting",
        "label": "bettingState",
        "offset": 0,
        "slot": "21",
        "type": "t_mapping(t_string_memory_ptr,t_enum(BettingState)2525)"
      },
      {
        "astId": 2656,
        "contract": "contracts/SportsBetting.sol:SportsBetting",
        "label": "fixtureToKickoffTime",
        "offset": 0,
        "slot": "22",
        "type": "t_mapping(t_string_memory_ptr,t_uint256)"
      },
      {
        "astId": 2660,
        "contract": "contracts/SportsBetting.sol:SportsBetting",
        "label": "requestToFixture",
        "offset": 0,
        "slot": "23",
        "type": "t_mapping(t_bytes32,t_string_storage)"
      }
    ],
    "types": {
      "t_address": {
        "encoding": "inplace",
        "label": "address",
        "numberOfBytes": "20"
      },
      "t_array(t_address)dyn_storage": {
        "base": "t_address",
        "encoding": "dynamic_array",
        "label": "address[]",
        "numberOfBytes": "32"
      },
      "t_array(t_enum(BetType)2519)3_storage": {
        "base": "t_enum(BetType)2519",
        "encoding": "inplace",
        "label": "enum SportsBetting.BetType[3]",
        "numberOfBytes": "32"
      },
      "t_bool": {
        "encoding": "inplace",
        "label": "bool",
        "numberOfBytes": "1"
      },
      "t_bytes32": {
        "encoding": "inplace",
        "label": "bytes32",
        "numberOfBytes": "32"
      },
      "t_contract(ENSInterface)1156": {
        "encoding": "inplace",
        "label": "contract ENSInterface",
        "numberOfBytes": "20"
      },
      "t_contract(LinkTokenInterface)1251": {
        "encoding": "inplace",
        "label": "contract LinkTokenInterface",
        "numberOfBytes": "20"
      },
      "t_contract(OperatorInterface)1331": {
        "encoding": "inplace",
        "label": "contract OperatorInterface",
        "numberOfBytes": "20"
      },
      "t_enum(BetType)2519": {
        "encoding": "inplace",
        "label": "enum SportsBetting.BetType",
        "numberOfBytes": "1"
      },
      "t_enum(BettingState)2525": {
        "encoding": "inplace",
        "label": "enum SportsBetting.BettingState",
        "numberOfBytes": "1"
      },
      "t_mapping(t_address,t_bool)": {
        "encoding": "mapping",
        "key": "t_address",
        "label": "mapping(address => bool)",
        "numberOfBytes": "32",
        "value": "t_bool"
      },
      "t_mapping(t_address,t_uint256)": {
        "encoding": "mapping",
        "key": "t_address",
        "label": "mapping(address => uint256)",
        "numberOfBytes": "32",
        "value": "t_uint256"
      },
      "t_mapping(t_bytes32,t_address)": {
        "encoding": "mapping",
        "key": "t_bytes32",
        "label": "mapping(bytes32 => address)",
        "numberOfBytes": "32",
        "value": "t_address"
      },
      "t_mapping(t_bytes32,t_string_storage)": {
        "encoding": "mapping",
        "key": "t_bytes32",
        "label": "mapping(bytes32 => string)",
        "numberOfBytes": "32",
        "value": "t_string_storage"
      },
      "t_mapping(t_enum(BetType)2519,t_array(t_address)dyn_storage)": {
        "encoding": "mapping",
        "key": "t_enum(BetType)2519",
        "label": "mapping(enum SportsBetting.BetType => address[])",
        "numberOfBytes": "32",
        "value": "t_array(t_address)dyn_storage"
      },
      "t_mapping(t_enum(BetType)2519,t_mapping(t_address,t_bool))": {
        "encoding": "mapping",
        "key": "t_enum(BetType)2519",
        "label": "mapping(enum SportsBetting.BetType => mapping(address => bool))",
        "numberOfBytes": "32",
        "value": "t_mapping(t_address,t_bool)"
      },
      "t_mapping(t_enum(BetType)2519,t_mapping(t_address,t_uint256))": {
        "encoding": "mapping",
        "key": "t_enum(BetType)2519",
        "label": "mapping(enum SportsBetting.BetType => mapping(address => uint256))",
        "numberOfBytes": "32",
        "value": "t_mapping(t_address,t_uint256)"
      },
      "t_mapping(t_string_memory_ptr,t_enum(BettingState)2525)": {
        "encoding": "mapping",
        "key": "t_string_memory_ptr",
        "label": "mapping(string => enum SportsBetting.BettingState)",
        "numberOfBytes": "32",
        "value": "t_enum(BettingState)2525"
      },
      "t_mapping(t_string_memory_ptr,t_mapping(t_address,t_uint256))": {
        "encoding": "mapping",
        "key": "t_string_memory_ptr",
        "label": "mapping(string => mapping(address => uint256))",
        "numberOfBytes": "32",
        "value": "t_mapping(t_address,t_uint256)"
      },
      "t_mapping(t_string_memory_ptr,t_mapping(t_enum(BetType)2519,t_array(t_address)dyn_storage))": {
        "encoding": "mapping",
        "key": "t_string_memory_ptr",
        "label": "mapping(string => mapping(enum SportsBetting.BetType => address[]))",
        "numberOfBytes": "32",
        "value": "t_mapping(t_enum(BetType)2519,t_array(t_address)dyn_storage)"
      },
      "t_mapping(t_string_memory_ptr,t_mapping(t_enum(BetType)2519,t_mapping(t_address,t_bool)))": {
        "encoding": "mapping",
        "key": "t_string_memory_ptr",
        "label": "mapping(string => mapping(enum SportsBetting.BetType => mapping(address => bool)))",
        "numberOfBytes": "32",
        "value": "t_mapping(t_enum(BetType)2519,t_mapping(t_address,t_bool))"
      },
      "t_mapping(t_string_memory_ptr,t_mapping(t_enum(BetType)2519,t_mapping(t_address,t_uint256)))": {
        "encoding": "mapping",
        "key": "t_string_memory_ptr",
        "label": "mapping(string => mapping(enum SportsBetting.BetType => mapping(address => uint256)))",
        "numberOfBytes": "32",
        "value": "t_mapping(t_enum(BetType)2519,t_mapping(t_address,t_uint256))"
      },
      "t_mapping(t_string_memory_ptr,t_uint256)": {
        "encoding": "mapping",
        "key": "t_string_memory_ptr",
        "label": "mapping(string => uint256)",
        "numberOfBytes": "32",
        "value": "t_uint256"
      },
      "t_string_memory_ptr": {
        "encoding": "bytes",
        "label": "string",
        "numberOfBytes": "32"
      },
      "t_string_storage": {
        "encoding": "bytes",
        "label": "string",
        "numberOfBytes": "32"
      },
      "t_uint256": {
        "encoding": "inplace",
        "label": "uint256",
        "numberOfBytes": "32"
      }
    }
  }
}