{
  "address": "0xeac7428A8FBE8339B76505bBA4968e4B9Dc6A43B",
  "abi": [
    {
      "inputs": [
        {
          "internalType": "uint256",
          "name": "stakerObligation",
          "type": "uint256"
        },
        {
          "internalType": "uint256",
          "name": "stakerAmount",
          "type": "uint256"
        },
        {
          "internalType": "uint256",
          "name": "commissionRate",
          "type": "uint256"
        }
      ],
      "name": "calculateCommission",
      "outputs": [
        {
          "internalType": "uint256",
          "name": "",
          "type": "uint256"
        }
      ],
      "stateMutability": "pure",
      "type": "function"
    },
    {
      "inputs": [
        {
          "internalType": "uint256",
          "name": "stakerAmount",
          "type": "uint256"
        },
        {
          "internalType": "uint256",
          "name": "winningAmount",
          "type": "uint256"
        },
        {
          "internalType": "uint256",
          "name": "totalAmount",
          "type": "uint256"
        }
      ],
      "name": "calculateStakerObligation",
      "outputs": [
        {
          "internalType": "uint256",
          "name": "",
          "type": "uint256"
        }
      ],
      "stateMutability": "pure",
      "type": "function"
    },
    {
      "inputs": [
        {
          "internalType": "uint256",
          "name": "result",
          "type": "uint256"
        }
      ],
      "name": "getFixtureResultFromAPIResponse",
      "outputs": [
        {
          "internalType": "enum SportsBettingLib.FixtureResult",
          "name": "",
          "type": "SportsBettingLib.FixtureResult"
        }
      ],
      "stateMutability": "pure",
      "type": "function"
    },
    {
      "inputs": [
        {
          "internalType": "enum SportsBettingLib.FixtureResult",
          "name": "winningOutcome",
          "type": "SportsBettingLib.FixtureResult"
        }
      ],
      "name": "getLosingFixtureOutcomes",
      "outputs": [
        {
          "internalType": "enum SportsBettingLib.FixtureResult[]",
          "name": "",
          "type": "SportsBettingLib.FixtureResult[]"
        }
      ],
      "stateMutability": "pure",
      "type": "function"
    }
  ],
  "transactionHash": "0x0d161bcfcc03d024e91fdf8c9d3f2f48e869dc3a8113b0c9088d43a65b162f07",
  "args": [],
  "numDeployments": 2,
  "solcInputHash": "67a20b0311782a3d2b253498c21d2f1e",
  "bytecode": "0x61061661003a600b82828239805160001a60731461002d57634e487b7160e01b600052600060045260246000fd5b30600052607381538281f3fe73000000000000000000000000000000000000000030146080604052600436106100565760003560e01c806329a2ea451461005b578063373bdcc8146100815780633af625ae146100a157806370f08956146100c1575b600080fd5b61006e610069366004610445565b6100d4565b6040519081526020015b60405180910390f35b61009461008f366004610471565b6101a1565b60405161007891906104d1565b6100b46100af36600461051c565b610289565b6040516100789190610535565b61006e6100cf366004610445565b6102d7565b6000806000806100e485886103ab565b90935091508261013b5760405162461bcd60e51b815260206004820152601f60248201527f4f766572666c6f772063616c63756c6174696e67206f626c69676174696f6e0060448201526064015b60405180910390fd5b61014582876103f3565b9093509050826101975760405162461bcd60e51b815260206004820152601060248201527f4469766973696f6e206279207a65726f000000000000000000000000000000006044820152606401610132565b9695505050505050565b60408051600280825260608083018452926000929190602083019080368337019050509050600060025b60048111610280578460048111156101e5576101e5610499565b8160048111156101f7576101f7610499565b600481111561020857610208610499565b1461026e5780600481111561021f5761021f610499565b83838151811061023157610231610549565b6020026020010190600481111561024a5761024a610499565b9081600481111561025d5761025d610499565b90525061026b600183610575565b91505b806102788161058d565b9150506101cb565b50909392505050565b6000600282141561029c57506002919050565b60038214156102ad57506003919050565b60048214156102be57506004919050565b60018214156102cf57506001919050565b506000919050565b6000806000806102e78787610423565b9093509150826103395760405162461bcd60e51b815260206004820152601c60248201527f556e646572666c6f772063616c63756c6174696e672070726f666974000000006044820152606401610132565b61034385836103ab565b9093509050826103955760405162461bcd60e51b815260206004820152601f60248201527f4f766572666c6f772063616c63756c6174696e6720636f6d6d697373696f6e006044820152606401610132565b6103a06064826105be565b979650505050505050565b600080836103bf57506001905060006103ec565b838302838582816103d2576103d26105a8565b04146103e55760008092509250506103ec565b6001925090505b9250929050565b60008082610406575060009050806103ec565b6001838581610417576104176105a8565b04915091509250929050565b60008083831115610439575060009050806103ec565b50600193919092039150565b60008060006060848603121561045a57600080fd5b505081359360208301359350604090920135919050565b60006020828403121561048357600080fd5b81356005811061049257600080fd5b9392505050565b634e487b7160e01b600052602160045260246000fd5b600581106104cd57634e487b7160e01b600052602160045260246000fd5b9052565b6020808252825182820181905260009190848201906040850190845b81811015610510576105008385516104af565b92840192918401916001016104ed565b50909695505050505050565b60006020828403121561052e57600080fd5b5035919050565b6020810161054382846104af565b92915050565b634e487b7160e01b600052603260045260246000fd5b634e487b7160e01b600052601160045260246000fd5b600082198211156105885761058861055f565b500190565b60006000198214156105a1576105a161055f565b5060010190565b634e487b7160e01b600052601260045260246000fd5b6000826105db57634e487b7160e01b600052601260045260246000fd5b50049056fea2646970667358221220c4bc1680807d9223180d31a94610d3227f037887106b37852b45b60ce223cbc464736f6c634300080c0033",
  "devdoc": {
    "kind": "dev",
    "methods": {},
    "version": 1
  },
  "userdoc": {
    "kind": "user",
    "methods": {},
    "version": 1
  },
  "storageLayout": {
    "storage": [],
    "types": null
  }
}