{
  "address": "0xf8F1b808F9C736B84CF07b0B2DfcD675474a0f77",
  "abi": [
    {
      "inputs": [
        {
          "internalType": "string",
          "name": "_sportsOracleURI",
          "type": "string"
        },
        {
          "internalType": "address",
          "name": "_oracle",
          "type": "address"
        },
        {
          "internalType": "address",
          "name": "_link",
          "type": "address"
        },
        {
          "internalType": "bytes32",
          "name": "_jobId",
          "type": "bytes32"
        },
        {
          "internalType": "uint256",
          "name": "_fee",
          "type": "uint256"
        }
      ],
      "stateMutability": "nonpayable",
      "type": "constructor"
    },
    {
      "anonymous": false,
      "inputs": [
        {
          "indexed": true,
          "internalType": "address",
          "name": "better",
          "type": "address"
        },
        {
          "indexed": false,
          "internalType": "string",
          "name": "fixtureID",
          "type": "string"
        },
        {
          "indexed": false,
          "internalType": "uint256",
          "name": "amount",
          "type": "uint256"
        }
      ],
      "name": "BetPayout",
      "type": "event"
    },
    {
      "anonymous": false,
      "inputs": [
        {
          "indexed": false,
          "internalType": "string",
          "name": "fixtureID",
          "type": "string"
        },
        {
          "indexed": false,
          "internalType": "string",
          "name": "reason",
          "type": "string"
        }
      ],
      "name": "BetPayoutFulfillmentError",
      "type": "event"
    },
    {
      "anonymous": false,
      "inputs": [
        {
          "indexed": true,
          "internalType": "address",
          "name": "better",
          "type": "address"
        },
        {
          "indexed": false,
          "internalType": "string",
          "name": "fixtureID",
          "type": "string"
        },
        {
          "indexed": false,
          "internalType": "uint256",
          "name": "amount",
          "type": "uint256"
        },
        {
          "indexed": false,
          "internalType": "enum SportsBetting.BetType",
          "name": "betType",
          "type": "uint8"
        }
      ],
      "name": "BetStaked",
      "type": "event"
    },
    {
      "anonymous": false,
      "inputs": [
        {
          "indexed": true,
          "internalType": "address",
          "name": "better",
          "type": "address"
        },
        {
          "indexed": false,
          "internalType": "string",
          "name": "fixtureID",
          "type": "string"
        },
        {
          "indexed": false,
          "internalType": "uint256",
          "name": "amount",
          "type": "uint256"
        },
        {
          "indexed": false,
          "internalType": "enum SportsBetting.BetType",
          "name": "betType",
          "type": "uint8"
        }
      ],
      "name": "BetUnstaked",
      "type": "event"
    },
    {
      "anonymous": false,
      "inputs": [
        {
          "indexed": false,
          "internalType": "string",
          "name": "fixtureID",
          "type": "string"
        },
        {
          "indexed": false,
          "internalType": "enum SportsBetting.BettingState",
          "name": "state",
          "type": "uint8"
        }
      ],
      "name": "BettingStateChanged",
      "type": "event"
    },
    {
      "anonymous": false,
      "inputs": [
        {
          "indexed": true,
          "internalType": "bytes32",
          "name": "id",
          "type": "bytes32"
        }
      ],
      "name": "ChainlinkCancelled",
      "type": "event"
    },
    {
      "anonymous": false,
      "inputs": [
        {
          "indexed": true,
          "internalType": "bytes32",
          "name": "id",
          "type": "bytes32"
        }
      ],
      "name": "ChainlinkFulfilled",
      "type": "event"
    },
    {
      "anonymous": false,
      "inputs": [
        {
          "indexed": true,
          "internalType": "bytes32",
          "name": "id",
          "type": "bytes32"
        }
      ],
      "name": "ChainlinkRequested",
      "type": "event"
    },
    {
      "anonymous": false,
      "inputs": [
        {
          "indexed": false,
          "internalType": "string",
          "name": "fixtureID",
          "type": "string"
        },
        {
          "indexed": false,
          "internalType": "uint256",
          "name": "kickoffTime",
          "type": "uint256"
        }
      ],
      "name": "KickoffTimeUpdated",
      "type": "event"
    },
    {
      "anonymous": false,
      "inputs": [
        {
          "indexed": true,
          "internalType": "address",
          "name": "from",
          "type": "address"
        },
        {
          "indexed": true,
          "internalType": "address",
          "name": "to",
          "type": "address"
        }
      ],
      "name": "OwnershipTransferRequested",
      "type": "event"
    },
    {
      "anonymous": false,
      "inputs": [
        {
          "indexed": true,
          "internalType": "address",
          "name": "from",
          "type": "address"
        },
        {
          "indexed": true,
          "internalType": "address",
          "name": "to",
          "type": "address"
        }
      ],
      "name": "OwnershipTransferred",
      "type": "event"
    },
    {
      "anonymous": false,
      "inputs": [
        {
          "indexed": true,
          "internalType": "bytes32",
          "name": "requestId",
          "type": "bytes32"
        },
        {
          "indexed": false,
          "internalType": "string",
          "name": "fixtureID",
          "type": "string"
        },
        {
          "indexed": false,
          "internalType": "uint256",
          "name": "kickoff",
          "type": "uint256"
        }
      ],
      "name": "RequestFixtureKickoffFulfilled",
      "type": "event"
    },
    {
      "anonymous": false,
      "inputs": [
        {
          "indexed": true,
          "internalType": "bytes32",
          "name": "requestId",
          "type": "bytes32"
        },
        {
          "indexed": false,
          "internalType": "string",
          "name": "fixtureID",
          "type": "string"
        },
        {
          "indexed": false,
          "internalType": "uint256",
          "name": "result",
          "type": "uint256"
        }
      ],
      "name": "RequestFixtureResultFulfilled",
      "type": "event"
    },
    {
      "anonymous": false,
      "inputs": [
        {
          "indexed": true,
          "internalType": "bytes32",
          "name": "requestId",
          "type": "bytes32"
        },
        {
          "indexed": false,
          "internalType": "string",
          "name": "fixtureID",
          "type": "string"
        }
      ],
      "name": "RequestedFixtureKickoff",
      "type": "event"
    },
    {
      "anonymous": false,
      "inputs": [
        {
          "indexed": true,
          "internalType": "bytes32",
          "name": "requestId",
          "type": "bytes32"
        },
        {
          "indexed": false,
          "internalType": "string",
          "name": "fixtureID",
          "type": "string"
        }
      ],
      "name": "RequestedFixtureResult",
      "type": "event"
    },
    {
      "inputs": [],
      "name": "acceptOwnership",
      "outputs": [],
      "stateMutability": "nonpayable",
      "type": "function"
    },
    {
      "inputs": [
        {
          "internalType": "string",
          "name": "",
          "type": "string"
        },
        {
          "internalType": "enum SportsBetting.BetType",
          "name": "",
          "type": "uint8"
        },
        {
          "internalType": "address",
          "name": "",
          "type": "address"
        }
      ],
      "name": "activeBetters",
      "outputs": [
        {
          "internalType": "bool",
          "name": "",
          "type": "bool"
        }
      ],
      "stateMutability": "view",
      "type": "function"
    },
    {
      "inputs": [
        {
          "internalType": "string",
          "name": "",
          "type": "string"
        },
        {
          "internalType": "enum SportsBetting.BetType",
          "name": "",
          "type": "uint8"
        },
        {
          "internalType": "address",
          "name": "",
          "type": "address"
        }
      ],
      "name": "amounts",
      "outputs": [
        {
          "internalType": "uint256",
          "name": "",
          "type": "uint256"
        }
      ],
      "stateMutability": "view",
      "type": "function"
    },
    {
      "inputs": [
        {
          "internalType": "string",
          "name": "fixtureID",
          "type": "string"
        }
      ],
      "name": "awaitBetForFixture",
      "outputs": [],
      "stateMutability": "nonpayable",
      "type": "function"
    },
    {
      "inputs": [],
      "name": "betAdvanceTime",
      "outputs": [
        {
          "internalType": "uint256",
          "name": "",
          "type": "uint256"
        }
      ],
      "stateMutability": "view",
      "type": "function"
    },
    {
      "inputs": [],
      "name": "betCutOffTime",
      "outputs": [
        {
          "internalType": "uint256",
          "name": "",
          "type": "uint256"
        }
      ],
      "stateMutability": "view",
      "type": "function"
    },
    {
      "inputs": [
        {
          "internalType": "uint256",
          "name": "",
          "type": "uint256"
        }
      ],
      "name": "betTypes",
      "outputs": [
        {
          "internalType": "enum SportsBetting.BetType",
          "name": "",
          "type": "uint8"
        }
      ],
      "stateMutability": "view",
      "type": "function"
    },
    {
      "inputs": [
        {
          "internalType": "string",
          "name": "",
          "type": "string"
        }
      ],
      "name": "bettingState",
      "outputs": [
        {
          "internalType": "enum SportsBetting.BettingState",
          "name": "",
          "type": "uint8"
        }
      ],
      "stateMutability": "view",
      "type": "function"
    },
    {
      "inputs": [],
      "name": "chainlink",
      "outputs": [
        {
          "internalType": "address",
          "name": "",
          "type": "address"
        }
      ],
      "stateMutability": "view",
      "type": "function"
    },
    {
      "inputs": [
        {
          "internalType": "string",
          "name": "fixtureID",
          "type": "string"
        }
      ],
      "name": "closeBetForFixture",
      "outputs": [],
      "stateMutability": "nonpayable",
      "type": "function"
    },
    {
      "inputs": [],
      "name": "entranceFee",
      "outputs": [
        {
          "internalType": "uint256",
          "name": "",
          "type": "uint256"
        }
      ],
      "stateMutability": "view",
      "type": "function"
    },
    {
      "inputs": [],
      "name": "fixtureResult",
      "outputs": [
        {
          "internalType": "string",
          "name": "",
          "type": "string"
        }
      ],
      "stateMutability": "view",
      "type": "function"
    },
    {
      "inputs": [
        {
          "internalType": "string",
          "name": "",
          "type": "string"
        }
      ],
      "name": "fixtureToKickoffTime",
      "outputs": [
        {
          "internalType": "uint256",
          "name": "",
          "type": "uint256"
        }
      ],
      "stateMutability": "view",
      "type": "function"
    },
    {
      "inputs": [
        {
          "internalType": "string",
          "name": "fixtureID",
          "type": "string"
        }
      ],
      "name": "fulfillBetForFixture",
      "outputs": [],
      "stateMutability": "nonpayable",
      "type": "function"
    },
    {
      "inputs": [
        {
          "internalType": "string",
          "name": "fixtureID",
          "type": "string"
        }
      ],
      "name": "getEnrichedFixtureData",
      "outputs": [
        {
          "components": [
            {
              "internalType": "enum SportsBetting.BettingState",
              "name": "fixtureState",
              "type": "uint8"
            },
            {
              "components": [
                {
                  "internalType": "uint256",
                  "name": "home",
                  "type": "uint256"
                },
                {
                  "internalType": "uint256",
                  "name": "draw",
                  "type": "uint256"
                },
                {
                  "internalType": "uint256",
                  "name": "away",
                  "type": "uint256"
                }
              ],
              "internalType": "struct SportsBetting.StakeSummary",
              "name": "total",
              "type": "tuple"
            },
            {
              "components": [
                {
                  "internalType": "uint256",
                  "name": "home",
                  "type": "uint256"
                },
                {
                  "internalType": "uint256",
                  "name": "draw",
                  "type": "uint256"
                },
                {
                  "internalType": "uint256",
                  "name": "away",
                  "type": "uint256"
                }
              ],
              "internalType": "struct SportsBetting.StakeSummary",
              "name": "user",
              "type": "tuple"
            }
          ],
          "internalType": "struct SportsBetting.FixtureEnrichment",
          "name": "",
          "type": "tuple"
        }
      ],
      "stateMutability": "nonpayable",
      "type": "function"
    },
    {
      "inputs": [
        {
          "internalType": "string",
          "name": "",
          "type": "string"
        },
        {
          "internalType": "enum SportsBetting.BetType",
          "name": "",
          "type": "uint8"
        },
        {
          "internalType": "uint256",
          "name": "",
          "type": "uint256"
        }
      ],
      "name": "historicalBetters",
      "outputs": [
        {
          "internalType": "address",
          "name": "",
          "type": "address"
        }
      ],
      "stateMutability": "view",
      "type": "function"
    },
    {
      "inputs": [
        {
          "internalType": "string",
          "name": "fixtureID",
          "type": "string"
        }
      ],
      "name": "openBetForFixture",
      "outputs": [],
      "stateMutability": "nonpayable",
      "type": "function"
    },
    {
      "inputs": [],
      "name": "owner",
      "outputs": [
        {
          "internalType": "address",
          "name": "",
          "type": "address"
        }
      ],
      "stateMutability": "view",
      "type": "function"
    },
    {
      "inputs": [
        {
          "internalType": "bytes32",
          "name": "_requestId",
          "type": "bytes32"
        },
        {
          "internalType": "uint256",
          "name": "_ko",
          "type": "uint256"
        }
      ],
      "name": "rawFulfillFixtureKickoffTime",
      "outputs": [],
      "stateMutability": "nonpayable",
      "type": "function"
    },
    {
      "inputs": [
        {
          "internalType": "bytes32",
          "name": "_requestId",
          "type": "bytes32"
        },
        {
          "internalType": "uint256",
          "name": "_result",
          "type": "uint256"
        }
      ],
      "name": "rawFulfillFixtureResult",
      "outputs": [],
      "stateMutability": "nonpayable",
      "type": "function"
    },
    {
      "inputs": [
        {
          "internalType": "string",
          "name": "fixtureID",
          "type": "string"
        }
      ],
      "name": "requestFixtureKickoffTimeParameter",
      "outputs": [
        {
          "internalType": "bytes32",
          "name": "",
          "type": "bytes32"
        }
      ],
      "stateMutability": "nonpayable",
      "type": "function"
    },
    {
      "inputs": [
        {
          "internalType": "string",
          "name": "fixtureID",
          "type": "string"
        }
      ],
      "name": "requestFixtureResultParameter",
      "outputs": [
        {
          "internalType": "bytes32",
          "name": "",
          "type": "bytes32"
        }
      ],
      "stateMutability": "nonpayable",
      "type": "function"
    },
    {
      "inputs": [
        {
          "internalType": "bytes32",
          "name": "",
          "type": "bytes32"
        }
      ],
      "name": "requestKickoffToFixture",
      "outputs": [
        {
          "internalType": "string",
          "name": "",
          "type": "string"
        }
      ],
      "stateMutability": "view",
      "type": "function"
    },
    {
      "inputs": [
        {
          "internalType": "bytes32",
          "name": "",
          "type": "bytes32"
        }
      ],
      "name": "requestResultToFixture",
      "outputs": [
        {
          "internalType": "string",
          "name": "",
          "type": "string"
        }
      ],
      "stateMutability": "view",
      "type": "function"
    },
    {
      "inputs": [],
      "name": "sportsOracleURI",
      "outputs": [
        {
          "internalType": "string",
          "name": "",
          "type": "string"
        }
      ],
      "stateMutability": "view",
      "type": "function"
    },
    {
      "inputs": [
        {
          "internalType": "string",
          "name": "fixtureID",
          "type": "string"
        },
        {
          "internalType": "enum SportsBetting.BetType",
          "name": "betType",
          "type": "uint8"
        }
      ],
      "name": "stake",
      "outputs": [],
      "stateMutability": "payable",
      "type": "function"
    },
    {
      "inputs": [
        {
          "internalType": "address",
          "name": "to",
          "type": "address"
        }
      ],
      "name": "transferOwnership",
      "outputs": [],
      "stateMutability": "nonpayable",
      "type": "function"
    },
    {
      "inputs": [
        {
          "internalType": "string",
          "name": "fixtureID",
          "type": "string"
        },
        {
          "internalType": "enum SportsBetting.BetType",
          "name": "betType",
          "type": "uint8"
        },
        {
          "internalType": "uint256",
          "name": "amount",
          "type": "uint256"
        }
      ],
      "name": "unstake",
      "outputs": [],
      "stateMutability": "nonpayable",
      "type": "function"
    },
    {
      "inputs": [],
      "name": "withdrawLink",
      "outputs": [],
      "stateMutability": "nonpayable",
      "type": "function"
    }
  ],
  "transactionHash": "0x655c748b3f15edcca61f15f92f93972c457181dbbe720c2fa3327c9f22a8e744",
  "args": [
    "https://1vyuff64d9.execute-api.us-east-1.amazonaws.com/dev/premier-league/fixtures/",
    "0xcc79157eb46f5624204f47ab42b3906caa40eab7",
    "0x326C977E6efc84E512bB9C30f76E30c160eD06FB",
    "0x6361393833363663633733313439353762386330313263373266303561656562",
    "100000000000000000"
  ],
  "numDeployments": 12,
  "solcInputHash": "aebb577387549839bbef1634afbcbd09",
  "bytecode": "0x60806040526001600455655af3107a4000600e5562093a80600f556115186010553480156200002d57600080fd5b5060405162006624380380620066248339818101604052810190620000539190620008d8565b8484848484338060008073ffffffffffffffffffffffffffffffffffffffff168273ffffffffffffffffffffffffffffffffffffffff161415620000ce576040517f08c379a0000000000000000000000000000000000000000000000000000000008152600401620000c590620009e0565b60405180910390fd5b81600660006101000a81548173ffffffffffffffffffffffffffffffffffffffff021916908373ffffffffffffffffffffffffffffffffffffffff160217905550600073ffffffffffffffffffffffffffffffffffffffff168173ffffffffffffffffffffffffffffffffffffffff1614620001565762000155816200032760201b60201c565b5b505050846009908051906020019062000171929190620005b0565b5062000183836200045960201b60201c565b62000194846200049d60201b60201c565b83600860006101000a81548173ffffffffffffffffffffffffffffffffffffffff021916908373ffffffffffffffffffffffffffffffffffffffff1602179055507f6361393833363663633733313439353762386330313263373266303561656562600a8190555080600b81905550505050505062000238604051806060016040528060318152602001620065f36031913986620004e160201b62001f6d1760201c565b6000600d60006003811062000252576200025162000a02565b5b602091828204019190066101000a81548160ff021916908360028111156200027f576200027e62000a31565b5b02179055506001600d6001600381106200029e576200029d62000a02565b5b602091828204019190066101000a81548160ff02191690836002811115620002cb57620002ca62000a31565b5b02179055506002600d600260038110620002ea57620002e962000a02565b5b602091828204019190066101000a81548160ff0219169083600281111562000317576200031662000a31565b5b0217905550505050505062000bbe565b3373ffffffffffffffffffffffffffffffffffffffff168173ffffffffffffffffffffffffffffffffffffffff16141562000399576040517f08c379a0000000000000000000000000000000000000000000000000000000008152600401620003909062000ab0565b60405180910390fd5b80600760006101000a81548173ffffffffffffffffffffffffffffffffffffffff021916908373ffffffffffffffffffffffffffffffffffffffff1602179055508073ffffffffffffffffffffffffffffffffffffffff16600660009054906101000a900473ffffffffffffffffffffffffffffffffffffffff1673ffffffffffffffffffffffffffffffffffffffff167fed8889f560326eb138920d842192f0eb3dd22b4f139c87a2c57538e05bae127860405160405180910390a350565b80600260006101000a81548173ffffffffffffffffffffffffffffffffffffffff021916908373ffffffffffffffffffffffffffffffffffffffff16021790555050565b80600360006101000a81548173ffffffffffffffffffffffffffffffffffffffff021916908373ffffffffffffffffffffffffffffffffffffffff16021790555050565b620005838282604051602401620004fa92919062000b1e565b6040516020818303038152906040527f4b5c4277000000000000000000000000000000000000000000000000000000007bffffffffffffffffffffffffffffffffffffffffffffffffffffffff19166020820180517bffffffffffffffffffffffffffffffffffffffffffffffffffffffff83818316178352505050506200058760201b60201c565b5050565b60008151905060006a636f6e736f6c652e6c6f679050602083016000808483855afa5050505050565b828054620005be9062000b88565b90600052602060002090601f016020900481019282620005e257600085556200062e565b82601f10620005fd57805160ff19168380011785556200062e565b828001600101855582156200062e579182015b828111156200062d57825182559160200191906001019062000610565b5b5090506200063d919062000641565b5090565b5b808211156200065c57600081600090555060010162000642565b5090565b6000604051905090565b600080fd5b600080fd5b600080fd5b600080fd5b6000601f19601f8301169050919050565b7f4e487b7100000000000000000000000000000000000000000000000000000000600052604160045260246000fd5b620006c9826200067e565b810181811067ffffffffffffffff82111715620006eb57620006ea6200068f565b5b80604052505050565b60006200070062000660565b90506200070e8282620006be565b919050565b600067ffffffffffffffff8211156200073157620007306200068f565b5b6200073c826200067e565b9050602081019050919050565b60005b83811015620007695780820151818401526020810190506200074c565b8381111562000779576000848401525b50505050565b600062000796620007908462000713565b620006f4565b905082815260208101848484011115620007b557620007b462000679565b5b620007c284828562000749565b509392505050565b600082601f830112620007e257620007e162000674565b5b8151620007f48482602086016200077f565b91505092915050565b600073ffffffffffffffffffffffffffffffffffffffff82169050919050565b60006200082a82620007fd565b9050919050565b6200083c816200081d565b81146200084857600080fd5b50565b6000815190506200085c8162000831565b92915050565b6000819050919050565b620008778162000862565b81146200088357600080fd5b50565b60008151905062000897816200086c565b92915050565b6000819050919050565b620008b2816200089d565b8114620008be57600080fd5b50565b600081519050620008d281620008a7565b92915050565b600080600080600060a08688031215620008f757620008f66200066a565b5b600086015167ffffffffffffffff8111156200091857620009176200066f565b5b6200092688828901620007ca565b955050602062000939888289016200084b565b94505060406200094c888289016200084b565b93505060606200095f8882890162000886565b92505060806200097288828901620008c1565b9150509295509295909350565b600082825260208201905092915050565b7f43616e6e6f7420736574206f776e657220746f207a65726f0000000000000000600082015250565b6000620009c86018836200097f565b9150620009d58262000990565b602082019050919050565b60006020820190508181036000830152620009fb81620009b9565b9050919050565b7f4e487b7100000000000000000000000000000000000000000000000000000000600052603260045260246000fd5b7f4e487b7100000000000000000000000000000000000000000000000000000000600052602160045260246000fd5b7f43616e6e6f74207472616e7366657220746f2073656c66000000000000000000600082015250565b600062000a986017836200097f565b915062000aa58262000a60565b602082019050919050565b6000602082019050818103600083015262000acb8162000a89565b9050919050565b600081519050919050565b600062000aea8262000ad2565b62000af681856200097f565b935062000b0881856020860162000749565b62000b13816200067e565b840191505092915050565b6000604082019050818103600083015262000b3a818562000add565b9050818103602083015262000b50818462000add565b90509392505050565b7f4e487b7100000000000000000000000000000000000000000000000000000000600052602260045260246000fd5b6000600282049050600182168062000ba157607f821691505b6020821081141562000bb85762000bb762000b59565b5b50919050565b615a258062000bce6000396000f3fe6080604052600436106101c15760003560e01c80638dc654a2116100f7578063d8654c0811610095578063f2fde38b11610064578063f2fde38b14610656578063f46dccf01461067f578063f7c60c0c146106bc578063fbe91393146106e7576101c1565b8063d8654c081461058a578063e37685ec146105c7578063edb16070146105f0578063ef40efde1461062d576101c1565b8063b148cdf1116100d1578063b148cdf1146104a8578063c40bc66b146104d3578063c8fe739c14610510578063cbef85c21461054d576101c1565b80638dc654a2146104295780639c3feeb714610440578063aa0660901461046b576101c1565b806362098ff71161016457806379ba50971161013e57806379ba50971461038157806384f4614e146103985780638a71bfa8146103d55780638da5cb5b146103fe576101c1565b806362098ff7146102f0578063649677e11461032d5780636e2a3a8414610358576101c1565b80631d686ae4116101a05780631d686ae41461024357806340364d11146102805780634bfc91ee1461029c5780635e524319146102c7576101c1565b8062e1a75b146101c657806301ec29c9146101ef578063106246d814610218575b600080fd5b3480156101d257600080fd5b506101ed60048036038101906101e8919061415e565b610724565b005b3480156101fb57600080fd5b506102166004803603810190610211919061415e565b6107c3565b005b34801561022457600080fd5b5061022d61086c565b60405161023a91906141c0565b60405180910390f35b34801561024f57600080fd5b5061026a6004803603810190610265919061415e565b610872565b60405161027791906141f4565b60405180910390f35b61029a60048036038101906102959190614234565b6109d5565b005b3480156102a857600080fd5b506102b1610d0f565b6040516102be91906141c0565b60405180910390f35b3480156102d357600080fd5b506102ee60048036038101906102e991906142bc565b610d15565b005b3480156102fc57600080fd5b506103176004803603810190610312919061432b565b61118f565b60405161032491906143cf565b60405180910390f35b34801561033957600080fd5b506103426111b9565b60405161034f91906141c0565b60405180910390f35b34801561036457600080fd5b5061037f600480360381019061037a919061415e565b6111bf565b005b34801561038d57600080fd5b5061039661125e565b005b3480156103a457600080fd5b506103bf60048036038101906103ba919061415e565b6113f5565b6040516103cc91906144c5565b60405180910390f35b3480156103e157600080fd5b506103fc60048036038101906103f7919061450c565b61149d565b005b34801561040a57600080fd5b50610413611641565b604051610420919061458d565b60405180910390f35b34801561043557600080fd5b5061043e61166b565b005b34801561044c57600080fd5b506104556117b8565b604051610462919061458d565b60405180910390f35b34801561047757600080fd5b50610492600480360381019061048d91906145d4565b6117de565b60405161049f91906141c0565b60405180910390f35b3480156104b457600080fd5b506104bd611826565b6040516104ca91906146cb565b60405180910390f35b3480156104df57600080fd5b506104fa60048036038101906104f591906146ed565b6118b4565b60405161050791906146cb565b60405180910390f35b34801561051c57600080fd5b50610537600480360381019061053291906142bc565b611954565b604051610544919061458d565b60405180910390f35b34801561055957600080fd5b50610574600480360381019061056f91906145d4565b6119c5565b6040516105819190614735565b60405180910390f35b34801561059657600080fd5b506105b160048036038101906105ac919061415e565b611a17565b6040516105be91906141f4565b60405180910390f35b3480156105d357600080fd5b506105ee60048036038101906105e9919061450c565b611b7a565b005b3480156105fc57600080fd5b506106176004803603810190610612919061415e565b611d1e565b60405161062491906141c0565b60405180910390f35b34801561063957600080fd5b50610654600480360381019061064f919061415e565b611d4c565b005b34801561066257600080fd5b5061067d60048036038101906106789190614750565b611df5565b005b34801561068b57600080fd5b506106a660048036038101906106a191906146ed565b611e09565b6040516106b391906146cb565b60405180910390f35b3480156106c857600080fd5b506106d1611ea9565b6040516106de91906146cb565b60405180910390f35b3480156106f357600080fd5b5061070e6004803603810190610709919061415e565b611f37565b60405161071b919061478c565b60405180910390f35b6001600481111561073857610737614358565b5b60158260405161074891906147e3565b908152602001604051809103902060009054906101000a900460ff16600481111561077657610775614358565b5b14156107b7576040517f08c379a00000000000000000000000000000000000000000000000000000000081526004016107ae90614846565b60405180910390fd5b6107c081612009565b50565b6107cb61207a565b600260048111156107df576107de614358565b5b6015826040516107ef91906147e3565b908152602001604051809103902060009054906101000a900460ff16600481111561081d5761081c614358565b5b141561085e576040517f08c379a0000000000000000000000000000000000000000000000000000000008152600401610855906148b2565b60405180910390fd5b61086981600261210c565b50565b600f5481565b600080610889600a543063e37685ec60e01b61218f565b90506108f76040518060400160405280600381526020017f67657400000000000000000000000000000000000000000000000000000000008152506009856040516020016108d89291906149c7565b604051602081830303815290604052836121c09092919063ffffffff16565b6109766040518060400160405280600481526020017f70617468000000000000000000000000000000000000000000000000000000008152506040518060400160405280600481526020017f302c6b6f00000000000000000000000000000000000000000000000000000000815250836121c09092919063ffffffff16565b6109c16040518060400160405280600581526020017f74696d65730000000000000000000000000000000000000000000000000000008152506001836121f39092919063ffffffff16565b6109cd81600b54612226565b915050919050565b6109de8261225d565b600160048111156109f2576109f1614358565b5b601583604051610a0291906147e3565b908152602001604051809103902060009054906101000a900460ff166004811115610a3057610a2f614358565b5b14610a70576040517f08c379a0000000000000000000000000000000000000000000000000000000008152600401610a6790614a37565b60405180910390fd5b600e54341015610ab5576040517f08c379a0000000000000000000000000000000000000000000000000000000008152600401610aac90614aa3565b60405180910390fd5b34601383604051610ac691906147e3565b90815260200160405180910390206000836002811115610ae957610ae8614358565b5b6002811115610afb57610afa614358565b5b815260200190815260200160002060003373ffffffffffffffffffffffffffffffffffffffff1673ffffffffffffffffffffffffffffffffffffffff1681526020019081526020016000206000828254610b559190614af2565b92505081905550601182604051610b6c91906147e3565b90815260200160405180910390206000826002811115610b8f57610b8e614358565b5b6002811115610ba157610ba0614358565b5b8152602001908152602001600020339080600181540180825580915050600190039060005260206000200160009091909190916101000a81548173ffffffffffffffffffffffffffffffffffffffff021916908373ffffffffffffffffffffffffffffffffffffffff1602179055506001601283604051610c2291906147e3565b90815260200160405180910390206000836002811115610c4557610c44614358565b5b6002811115610c5757610c56614358565b5b815260200190815260200160002060003373ffffffffffffffffffffffffffffffffffffffff1673ffffffffffffffffffffffffffffffffffffffff16815260200190815260200160002060006101000a81548160ff0219169083151502179055503373ffffffffffffffffffffffffffffffffffffffff167f1a48cf6315f5f44cf8ac3a5105296caf8a73f64b40f9a6b7cbf8ba65ca930fd4833484604051610d0393929190614b48565b60405180910390a25050565b60105481565b60008111610d58576040517f08c379a0000000000000000000000000000000000000000000000000000000008152600401610d4f90614bd2565b60405180910390fd5b610d618361225d565b60016004811115610d7557610d74614358565b5b601584604051610d8591906147e3565b908152602001604051809103902060009054906101000a900460ff166004811115610db357610db2614358565b5b14610df3576040517f08c379a0000000000000000000000000000000000000000000000000000000008152600401610dea90614c3e565b60405180910390fd5b6000601384604051610e0591906147e3565b90815260200160405180910390206000846002811115610e2857610e27614358565b5b6002811115610e3a57610e39614358565b5b815260200190815260200160002060003373ffffffffffffffffffffffffffffffffffffffff1673ffffffffffffffffffffffffffffffffffffffff16815260200190815260200160002054905060008111610ecb576040517f08c379a0000000000000000000000000000000000000000000000000000000008152600401610ec290614caa565b60405180910390fd5b80821115610f0e576040517f08c379a0000000000000000000000000000000000000000000000000000000008152600401610f0590614d16565b60405180910390fd5b8181610f1a9190614d36565b601385604051610f2a91906147e3565b90815260200160405180910390206000856002811115610f4d57610f4c614358565b5b6002811115610f5f57610f5e614358565b5b815260200190815260200160002060003373ffffffffffffffffffffffffffffffffffffffff1673ffffffffffffffffffffffffffffffffffffffff168152602001908152602001600020819055506000601385604051610fc091906147e3565b90815260200160405180910390206000856002811115610fe357610fe2614358565b5b6002811115610ff557610ff4614358565b5b815260200190815260200160002060003373ffffffffffffffffffffffffffffffffffffffff1673ffffffffffffffffffffffffffffffffffffffff16815260200190815260200160002054116110f057600060128560405161105891906147e3565b9081526020016040518091039020600085600281111561107b5761107a614358565b5b600281111561108d5761108c614358565b5b815260200190815260200160002060003373ffffffffffffffffffffffffffffffffffffffff1673ffffffffffffffffffffffffffffffffffffffff16815260200190815260200160002060006101000a81548160ff0219169083151502179055505b3373ffffffffffffffffffffffffffffffffffffffff166108fc839081150290604051600060405180830381858888f19350505050158015611136573d6000803e3d6000fd5b503373ffffffffffffffffffffffffffffffffffffffff167f0f3b118062ef97715cdb7fc34e6b3bc6bf1c6ddbbbbc4e8d6f13eff984080d0885848660405161118193929190614b48565b60405180910390a250505050565b600d816003811061119f57600080fd5b60209182820401919006915054906101000a900460ff1681565b600e5481565b600260048111156111d3576111d2614358565b5b6015826040516111e391906147e3565b908152602001604051809103902060009054906101000a900460ff16600481111561121157611210614358565b5b1415611252576040517f08c379a000000000000000000000000000000000000000000000000000000000815260040161124990614db6565b60405180910390fd5b61125b816123c4565b50565b600760009054906101000a900473ffffffffffffffffffffffffffffffffffffffff1673ffffffffffffffffffffffffffffffffffffffff163373ffffffffffffffffffffffffffffffffffffffff16146112ee576040517f08c379a00000000000000000000000000000000000000000000000000000000081526004016112e590614e22565b60405180910390fd5b6000600660009054906101000a900473ffffffffffffffffffffffffffffffffffffffff16905033600660006101000a81548173ffffffffffffffffffffffffffffffffffffffff021916908373ffffffffffffffffffffffffffffffffffffffff1602179055506000600760006101000a81548173ffffffffffffffffffffffffffffffffffffffff021916908373ffffffffffffffffffffffffffffffffffffffff1602179055503373ffffffffffffffffffffffffffffffffffffffff168173ffffffffffffffffffffffffffffffffffffffff167f8be0079c531659141344cd1fd0a4f28419497f9722a3daafe3b4186f6b6457e060405160405180910390a350565b6113fd613e7a565b604051806060016040528060158460405161141891906147e3565b908152602001604051809103902060009054906101000a900460ff16600481111561144657611445614358565b5b81526020016040518060600160405280611461866000612435565b8152602001611471866001612435565b8152602001611481866002612435565b8152508152602001611493843361268e565b8152509050919050565b816005600082815260200190815260200160002060009054906101000a900473ffffffffffffffffffffffffffffffffffffffff1673ffffffffffffffffffffffffffffffffffffffff163373ffffffffffffffffffffffffffffffffffffffff161461153f576040517f08c379a000000000000000000000000000000000000000000000000000000000815260040161153690614eb4565b60405180910390fd5b6005600082815260200190815260200160002060006101000a81549073ffffffffffffffffffffffffffffffffffffffff0219169055807f7cc135e0cebb02c3480ae5d74d377283180a2601f8f644edf7987b009316c63a60405160405180910390a2600860009054906101000a900473ffffffffffffffffffffffffffffffffffffffff1673ffffffffffffffffffffffffffffffffffffffff163373ffffffffffffffffffffffffffffffffffffffff1614611632576040517f08c379a000000000000000000000000000000000000000000000000000000000815260040161162990614f20565b60405180910390fd5b61163c838361286a565b505050565b6000600660009054906101000a900473ffffffffffffffffffffffffffffffffffffffff16905090565b61167361207a565b600061167d6129c2565b90508073ffffffffffffffffffffffffffffffffffffffff1663a9059cbb338373ffffffffffffffffffffffffffffffffffffffff166370a08231306040518263ffffffff1660e01b81526004016116d5919061458d565b602060405180830381865afa1580156116f2573d6000803e3d6000fd5b505050506040513d601f19601f820116820180604052508101906117169190614f55565b6040518363ffffffff1660e01b8152600401611733929190614f82565b6020604051808303816000875af1158015611752573d6000803e3d6000fd5b505050506040513d601f19601f820116820180604052508101906117769190614fd7565b6117b5576040517f08c379a00000000000000000000000000000000000000000000000000000000081526004016117ac90615050565b60405180910390fd5b50565b600860009054906101000a900473ffffffffffffffffffffffffffffffffffffffff1681565b60138380516020810182018051848252602083016020850120818352809550505050505060205281600052604060002060205280600052604060002060009250925050505481565b6009805461183390614901565b80601f016020809104026020016040519081016040528092919081815260200182805461185f90614901565b80156118ac5780601f10611881576101008083540402835291602001916118ac565b820191906000526020600020905b81548152906001019060200180831161188f57829003601f168201915b505050505081565b601760205280600052604060002060009150905080546118d390614901565b80601f01602080910402602001604051908101604052809291908181526020018280546118ff90614901565b801561194c5780601f106119215761010080835404028352916020019161194c565b820191906000526020600020905b81548152906001019060200180831161192f57829003601f168201915b505050505081565b601183805160208101820180518482526020830160208501208183528095505050505050602052816000526040600020818154811061199257600080fd5b90600052602060002001600092509250509054906101000a900473ffffffffffffffffffffffffffffffffffffffff1681565b601283805160208101820180518482526020830160208501208183528095505050505050602052816000526040600020602052806000526040600020600092509250509054906101000a900460ff1681565b600080611a2e600a5430638a71bfa860e01b61218f565b9050611a9c6040518060400160405280600381526020017f6765740000000000000000000000000000000000000000000000000000000000815250600985604051602001611a7d9291906149c7565b604051602081830303815290604052836121c09092919063ffffffff16565b611b1b6040518060400160405280600481526020017f70617468000000000000000000000000000000000000000000000000000000008152506040518060400160405280600881526020017f302c726573756c74000000000000000000000000000000000000000000000000815250836121c09092919063ffffffff16565b611b666040518060400160405280600581526020017f74696d65730000000000000000000000000000000000000000000000000000008152506001836121f39092919063ffffffff16565b611b7281600b54612226565b915050919050565b816005600082815260200190815260200160002060009054906101000a900473ffffffffffffffffffffffffffffffffffffffff1673ffffffffffffffffffffffffffffffffffffffff163373ffffffffffffffffffffffffffffffffffffffff1614611c1c576040517f08c379a0000000000000000000000000000000000000000000000000000000008152600401611c1390614eb4565b60405180910390fd5b6005600082815260200190815260200160002060006101000a81549073ffffffffffffffffffffffffffffffffffffffff0219169055807f7cc135e0cebb02c3480ae5d74d377283180a2601f8f644edf7987b009316c63a60405160405180910390a2600860009054906101000a900473ffffffffffffffffffffffffffffffffffffffff1673ffffffffffffffffffffffffffffffffffffffff163373ffffffffffffffffffffffffffffffffffffffff1614611d0f576040517f08c379a0000000000000000000000000000000000000000000000000000000008152600401611d0690614f20565b60405180910390fd5b611d1983836129ec565b505050565b6016818051602081018201805184825260208301602085012081835280955050505050506000915090505481565b611d5461207a565b60006004811115611d6857611d67614358565b5b601582604051611d7891906147e3565b908152602001604051809103902060009054906101000a900460ff166004811115611da657611da5614358565b5b1415611de7576040517f08c379a0000000000000000000000000000000000000000000000000000000008152600401611dde906150bc565b60405180910390fd5b611df281600061210c565b50565b611dfd61207a565b611e0681612ade565b50565b60186020528060005260406000206000915090508054611e2890614901565b80601f0160208091040260200160405190810160405280929190818152602001828054611e5490614901565b8015611ea15780601f10611e7657610100808354040283529160200191611ea1565b820191906000526020600020905b815481529060010190602001808311611e8457829003601f168201915b505050505081565b600c8054611eb690614901565b80601f0160208091040260200160405190810160405280929190818152602001828054611ee290614901565b8015611f2f5780601f10611f0457610100808354040283529160200191611f2f565b820191906000526020600020905b815481529060010190602001808311611f1257829003601f168201915b505050505081565b6015818051602081018201805184825260208301602085012081835280955050505050506000915054906101000a900460ff1681565b6120058282604051602401611f839291906150dc565b6040516020818303038152906040527f4b5c4277000000000000000000000000000000000000000000000000000000007bffffffffffffffffffffffffffffffffffffffffffffffffffffffff19166020820180517bffffffffffffffffffffffffffffffffffffffffffffffffffffffff8381831617835250505050612c0d565b5050565b600061201482610872565b90508160176000838152602001908152602001600020908051906020019061203d929190613eb9565b50807f45d732f7bcf8bc3eb58d8fd2fe72f5d05aa36dadc20e6c9989abd2a741d81cac8360405161206e91906146cb565b60405180910390a25050565b600660009054906101000a900473ffffffffffffffffffffffffffffffffffffffff1673ffffffffffffffffffffffffffffffffffffffff163373ffffffffffffffffffffffffffffffffffffffff161461210a576040517f08c379a00000000000000000000000000000000000000000000000000000000081526004016121019061515f565b60405180910390fd5b565b8060158360405161211d91906147e3565b908152602001604051809103902060006101000a81548160ff0219169083600481111561214d5761214c614358565b5b02179055507fe10ba6722d7a7a91bf343a0f8e5b026910dbc4a2ebca276930dff31703c59a70828260405161218392919061517f565b60405180910390a15050565b612197613f3f565b61219f613f3f565b6121b685858584612c36909392919063ffffffff16565b9150509392505050565b6121d7828460800151612ce690919063ffffffff16565b6121ee818460800151612ce690919063ffffffff16565b505050565b61220a828460800151612ce690919063ffffffff16565b612221818460800151612d0b90919063ffffffff16565b505050565b6000612255600360009054906101000a900473ffffffffffffffffffffffffffffffffffffffff168484612db8565b905092915050565b600060168260405161226f91906147e3565b9081526020016040518091039020549050600081141561228f57506123c1565b600060048111156122a3576122a2614358565b5b6015836040516122b391906147e3565b908152602001604051809103902060009054906101000a900460ff1660048111156122e1576122e0614358565b5b1480156122fb5750601054816122f79190614d36565b4211155b80156123145750600f54816123109190614d36565b4210155b80156123235750600060105414155b156123345761233382600161210c565b5b6001600481111561234857612347614358565b5b60158360405161235891906147e3565b908152602001604051809103902060009054906101000a900460ff16600481111561238657612385614358565b5b14801561239f57506010548161239c9190614d36565b42115b80156123ae5750600060105414155b156123bf576123be82600261210c565b5b505b50565b60006123cf82611a17565b9050816018600083815260200190815260200160002090805190602001906123f8929190613eb9565b50807f203eeb39bf08702855bb5830b3ec49ea10fb51bde91904739f7c0c3ab41776d58360405161242991906146cb565b60405180910390a25050565b60008060005b60118560405161244b91906147e3565b9081526020016040518091039020600085600281111561246e5761246d614358565b5b60028111156124805761247f614358565b5b8152602001908152602001600020805490508110156126835760006011866040516124ab91906147e3565b908152602001604051809103902060008660028111156124ce576124cd614358565b5b60028111156124e0576124df614358565b5b81526020019081526020016000208281548110612500576124ff6151af565b5b9060005260206000200160009054906101000a900473ffffffffffffffffffffffffffffffffffffffff16905060128660405161253d91906147e3565b908152602001604051809103902060008660028111156125605761255f614358565b5b600281111561257257612571614358565b5b815260200190815260200160002060008273ffffffffffffffffffffffffffffffffffffffff1673ffffffffffffffffffffffffffffffffffffffff16815260200190815260200160002060009054906101000a900460ff161561266f576013866040516125e091906147e3565b9081526020016040518091039020600086600281111561260357612602614358565b5b600281111561261557612614614358565b5b815260200190815260200160002060008273ffffffffffffffffffffffffffffffffffffffff1673ffffffffffffffffffffffffffffffffffffffff168152602001908152602001600020548361266c9190614af2565b92505b50808061267b906151de565b91505061243b565b508091505092915050565b612696613fac565b60405180606001604052806013856040516126b191906147e3565b908152602001604051809103902060008060028111156126d4576126d3614358565b5b60028111156126e6576126e5614358565b5b815260200190815260200160002060008573ffffffffffffffffffffffffffffffffffffffff1673ffffffffffffffffffffffffffffffffffffffff16815260200190815260200160002054815260200160138560405161274791906147e3565b908152602001604051809103902060006001600281111561276b5761276a614358565b5b600281111561277d5761277c614358565b5b815260200190815260200160002060008573ffffffffffffffffffffffffffffffffffffffff1673ffffffffffffffffffffffffffffffffffffffff1681526020019081526020016000205481526020016013856040516127de91906147e3565b9081526020016040518091039020600060028081111561280157612800614358565b5b600281111561281357612812614358565b5b815260200190815260200160002060008573ffffffffffffffffffffffffffffffffffffffff1673ffffffffffffffffffffffffffffffffffffffff16815260200190815260200160002054815250905092915050565b600060186000848152602001908152602001600020805461288a90614901565b80601f01602080910402602001604051908101604052809291908181526020018280546128b690614901565b80156129035780601f106128d857610100808354040283529160200191612903565b820191906000526020600020905b8154815290600101906020018083116128e657829003601f168201915b50505050509050827f991c3e65c24cac8eb9898540ce857bbd06f702f19ac9ee6562bd97b96b0d898c828460405161293c929190615227565b60405180910390a26002600481111561295857612957614358565b5b60158260405161296891906147e3565b908152602001604051809103902060009054906101000a900460ff16600481111561299657612995614358565b5b14156129bd576129a781600361210c565b6129b18183612e84565b6129bc81600461210c565b5b505050565b6000600260009054906101000a900473ffffffffffffffffffffffffffffffffffffffff16905090565b6000601760008481526020019081526020016000208054612a0c90614901565b80601f0160208091040260200160405190810160405280929190818152602001828054612a3890614901565b8015612a855780601f10612a5a57610100808354040283529160200191612a85565b820191906000526020600020905b815481529060010190602001808311612a6857829003601f168201915b50505050509050827f0a19aa077773e15e05c85beefc64244b7b27068fccb13becb7bf450ff41fa89c8284604051612abe929190615227565b60405180910390a2612ad08183612f2a565b612ad98161225d565b505050565b3373ffffffffffffffffffffffffffffffffffffffff168173ffffffffffffffffffffffffffffffffffffffff161415612b4d576040517f08c379a0000000000000000000000000000000000000000000000000000000008152600401612b44906152a3565b60405180910390fd5b80600760006101000a81548173ffffffffffffffffffffffffffffffffffffffff021916908373ffffffffffffffffffffffffffffffffffffffff1602179055508073ffffffffffffffffffffffffffffffffffffffff16600660009054906101000a900473ffffffffffffffffffffffffffffffffffffffff1673ffffffffffffffffffffffffffffffffffffffff167fed8889f560326eb138920d842192f0eb3dd22b4f139c87a2c57538e05bae127860405160405180910390a350565b60008151905060006a636f6e736f6c652e6c6f679050602083016000808483855afa5050505050565b612c3e613f3f565b612c4e8560800151610100612fb0565b508385600001818152505082856020019073ffffffffffffffffffffffffffffffffffffffff16908173ffffffffffffffffffffffffffffffffffffffff16815250508185604001907bffffffffffffffffffffffffffffffffffffffffffffffffffffffff191690817bffffffffffffffffffffffffffffffffffffffffffffffffffffffff191681525050849050949350505050565b612cf3826003835161301a565b612d06818361319f90919063ffffffff16565b505050565b7fffffffffffffffffffffffffffffffffffffffffffffffff0000000000000000811215612d4257612d3d82826131c1565b612db4565b67ffffffffffffffff811315612d6157612d5c8282613238565b612db3565b60008112612d7a57612d758260008361301a565b612db2565b612db1826001837fffffffffffffffffffffffffffffffffffffffffffffffffffffffffffffffff612dac91906152cd565b61301a565b5b5b5b5050565b6000806004549050600181612dcd9190614af2565b6004819055506000634042994660e01b60008087600001513089604001518760018c6080015160000151604051602401612e0e9897969594939291906153f1565b604051602081830303815290604052907bffffffffffffffffffffffffffffffffffffffffffffffffffffffff19166020820180517bffffffffffffffffffffffffffffffffffffffffffffffffffffffff83818316178352505050509050612e7986838684613284565b925050509392505050565b6000612e908383613419565b905060608181600081518110612ea957612ea86151af565b5b60200260200101906002811115612ec357612ec2614358565b5b90816002811115612ed757612ed6614358565b5b815250506000612ee683613525565b90506000612ef48684613673565b90506000612f028784613673565b905060008183612f129190614af2565b9050612f20888785846136d1565b5050505050505050565b601682604051612f3a91906147e3565b9081526020016040518091039020548114612fac5780601683604051612f6091906147e3565b9081526020016040518091039020819055507f20af5e7c127dd84267ef67d2a1fa455b47bc60840459b4db987929e37daf07a38282604051612fa3929190615227565b60405180910390a15b5050565b612fb8613fcd565b6000602083612fc791906154a5565b14612ff357602082612fd991906154a5565b6020612fe59190614d36565b82612ff09190614af2565b91505b81836020018181525050604051808452600081528281016020016040525082905092915050565b60178167ffffffffffffffff16116130515761304b8160058460ff16901b60ff161784613bff90919063ffffffff16565b5061319a565b60ff8167ffffffffffffffff16116130a757613080601860058460ff16901b1784613bff90919063ffffffff16565b506130a18167ffffffffffffffff16600185613c1f9092919063ffffffff16565b50613199565b61ffff8167ffffffffffffffff16116130fe576130d7601960058460ff16901b1784613bff90919063ffffffff16565b506130f88167ffffffffffffffff16600285613c1f9092919063ffffffff16565b50613198565b63ffffffff8167ffffffffffffffff161161315757613130601a60058460ff16901b1784613bff90919063ffffffff16565b506131518167ffffffffffffffff16600485613c1f9092919063ffffffff16565b50613197565b613174601b60058460ff16901b1784613bff90919063ffffffff16565b506131958167ffffffffffffffff16600885613c1f9092919063ffffffff16565b505b5b5b5b505050565b6131a7613fcd565b6131b983846000015151848551613c41565b905092915050565b6131df60036005600660ff16901b1783613bff90919063ffffffff16565b5061323482827fffffffffffffffffffffffffffffffffffffffffffffffffffffffffffffffff61321091906152cd565b60405160200161322091906141c0565b604051602081830303815290604052613d30565b5050565b61325660026005600660ff16901b1783613bff90919063ffffffff16565b50613280828260405160200161326c91906141c0565b604051602081830303815290604052613d30565b5050565b6000308460405160200161329992919061558f565b604051602081830303815290604052805190602001209050846005600083815260200190815260200160002060006101000a81548173ffffffffffffffffffffffffffffffffffffffff021916908373ffffffffffffffffffffffffffffffffffffffff160217905550807fb5e6e01e79f91267dc17b4e6314d5d4d03593d2ceee0fbb452b750bd70ea5af960405160405180910390a2600260009054906101000a900473ffffffffffffffffffffffffffffffffffffffff1673ffffffffffffffffffffffffffffffffffffffff16634000aea08685856040518463ffffffff1660e01b815260040161338f939291906155bb565b6020604051808303816000875af11580156133ae573d6000803e3d6000fd5b505050506040513d601f19601f820116820180604052508101906133d29190614fd7565b613411576040517f08c379a00000000000000000000000000000000000000000000000000000000081526004016134089061566b565b60405180910390fd5b949350505050565b600080600281111561342e5761342d614358565b5b82141561343e576000905061351f565b6001600281111561345257613451614358565b5b821415613462576001905061351f565b60028081111561347557613474614358565b5b821415613485576002905061351f565b6000836040516020016134989190615723565b60405160208183030381529060405290507f2a2c16a3ce1dea0db612b14a8fdc9a8d316acc87914b4d66440d119b41e8615f84826040516134da9291906150dc565b60405180910390a1806040517f08c379a000000000000000000000000000000000000000000000000000000000815260040161351691906146cb565b60405180910390fd5b92915050565b60606000600267ffffffffffffffff81111561354457613543614033565b5b6040519080825280602002602001820160405280156135725781602001602082028036833780820191505090505b5090506000805b60038110156136685784600281111561359557613594614358565b5b600d82600381106135a9576135a86151af565b5b602091828204019190069054906101000a900460ff1660028111156135d1576135d0614358565b5b1461365557600d81600381106135ea576135e96151af565b5b602091828204019190069054906101000a900460ff16838381518110613613576136126151af565b5b6020026020010190600281111561362d5761362c614358565b5b9081600281111561364157613640614358565b5b815250506001826136529190614af2565b91505b8080613660906151de565b915050613579565b508192505050919050565b60008060005b83518110156136c6576136a685858381518110613699576136986151af565b5b6020026020010151612435565b826136b19190614af2565b915080806136be906151de565b915050613679565b508091505092915050565b600360048111156136e5576136e4614358565b5b6015856040516136f591906147e3565b908152602001604051809103902060009054906101000a900460ff16600481111561372357613722614358565b5b14613763576040517f08c379a000000000000000000000000000000000000000000000000000000000815260040161375a906157c6565b60405180910390fd5b60005b60118560405161377691906147e3565b9081526020016040518091039020600085600281111561379957613798614358565b5b60028111156137ab576137aa614358565b5b815260200190815260200160002080549050811015613bf85760006011866040516137d691906147e3565b908152602001604051809103902060008660028111156137f9576137f8614358565b5b600281111561380b5761380a614358565b5b8152602001908152602001600020828154811061382b5761382a6151af565b5b9060005260206000200160009054906101000a900473ffffffffffffffffffffffffffffffffffffffff16905060128660405161386891906147e3565b9081526020016040518091039020600086600281111561388b5761388a614358565b5b600281111561389d5761389c614358565b5b815260200190815260200160002060008273ffffffffffffffffffffffffffffffffffffffff1673ffffffffffffffffffffffffffffffffffffffff16815260200190815260200160002060009054906101000a900460ff1615613be457600060138760405161390d91906147e3565b908152602001604051809103902060008760028111156139305761392f614358565b5b600281111561394257613941614358565b5b815260200190815260200160002060008373ffffffffffffffffffffffffffffffffffffffff1673ffffffffffffffffffffffffffffffffffffffff1681526020019081526020016000205490506000858561399e91906157e6565b826139a99190615817565b9050806014896040516139bc91906147e3565b908152602001604051809103902060008573ffffffffffffffffffffffffffffffffffffffff1673ffffffffffffffffffffffffffffffffffffffff168152602001908152602001600020819055506000601389604051613a1d91906147e3565b90815260200160405180910390206000896002811115613a4057613a3f614358565b5b6002811115613a5257613a51614358565b5b815260200190815260200160002060008573ffffffffffffffffffffffffffffffffffffffff1673ffffffffffffffffffffffffffffffffffffffff168152602001908152602001600020819055506000601289604051613ab391906147e3565b90815260200160405180910390206000896002811115613ad657613ad5614358565b5b6002811115613ae857613ae7614358565b5b815260200190815260200160002060008573ffffffffffffffffffffffffffffffffffffffff1673ffffffffffffffffffffffffffffffffffffffff16815260200190815260200160002060006101000a81548160ff0219169083151502179055508273ffffffffffffffffffffffffffffffffffffffff166108fc829081150290604051600060405180830381858888f19350505050158015613b90573d6000803e3d6000fd5b508273ffffffffffffffffffffffffffffffffffffffff167fc0acd5bc47ab9bd28274b4de553779f718ae53f42f84fe011e7eed61cda99cbd8983604051613bd9929190615227565b60405180910390a250505b508080613bf0906151de565b915050613766565b5050505050565b613c07613fcd565b613c178384600001515184613d55565b905092915050565b613c27613fcd565b613c38848560000151518585613dac565b90509392505050565b613c49613fcd565b8251821115613c5757600080fd5b84602001518285613c689190614af2565b1115613c9d57613c9c856002613c8d88602001518887613c889190614af2565b613e3a565b613c979190615817565b613e56565b5b600080865180518760208301019350808887011115613cbc5787860182525b60208701925050505b60208410613d035780518252602082613cde9190614af2565b9150602081613ced9190614af2565b9050602084613cfc9190614d36565b9350613cc5565b60006001856020036101000a03905080198251168184511681811785525050508692505050949350505050565b613d3d826002835161301a565b613d50818361319f90919063ffffffff16565b505050565b613d5d613fcd565b83602001518310613d8357613d828460028660200151613d7d9190615817565b613e56565b5b8351805160208583010184815381861415613d9f576001820183525b5050508390509392505050565b613db4613fcd565b84602001518483613dc59190614af2565b1115613ded57613dec8560028685613ddd9190614af2565b613de79190615817565b613e56565b5b6000600183610100613dff91906159a4565b613e099190614d36565b90508551838682010185831982511617815281518588011115613e2c5784870182525b505085915050949350505050565b600081831115613e4c57829050613e50565b8190505b92915050565b600082600001519050613e698383612fb0565b50613e74838261319f565b50505050565b604051806060016040528060006004811115613e9957613e98614358565b5b8152602001613ea6613fac565b8152602001613eb3613fac565b81525090565b828054613ec590614901565b90600052602060002090601f016020900481019282613ee75760008555613f2e565b82601f10613f0057805160ff1916838001178555613f2e565b82800160010185558215613f2e579182015b82811115613f2d578251825591602001919060010190613f12565b5b509050613f3b9190613fe7565b5090565b6040518060a0016040528060008019168152602001600073ffffffffffffffffffffffffffffffffffffffff16815260200160007bffffffffffffffffffffffffffffffffffffffffffffffffffffffff1916815260200160008152602001613fa6613fcd565b81525090565b60405180606001604052806000815260200160008152602001600081525090565b604051806040016040528060608152602001600081525090565b5b80821115614000576000816000905550600101613fe8565b5090565b6000604051905090565b600080fd5b600080fd5b600080fd5b600080fd5b6000601f19601f8301169050919050565b7f4e487b7100000000000000000000000000000000000000000000000000000000600052604160045260246000fd5b61406b82614022565b810181811067ffffffffffffffff8211171561408a57614089614033565b5b80604052505050565b600061409d614004565b90506140a98282614062565b919050565b600067ffffffffffffffff8211156140c9576140c8614033565b5b6140d282614022565b9050602081019050919050565b82818337600083830152505050565b60006141016140fc846140ae565b614093565b90508281526020810184848401111561411d5761411c61401d565b5b6141288482856140df565b509392505050565b600082601f83011261414557614144614018565b5b81356141558482602086016140ee565b91505092915050565b6000602082840312156141745761417361400e565b5b600082013567ffffffffffffffff81111561419257614191614013565b5b61419e84828501614130565b91505092915050565b6000819050919050565b6141ba816141a7565b82525050565b60006020820190506141d560008301846141b1565b92915050565b6000819050919050565b6141ee816141db565b82525050565b600060208201905061420960008301846141e5565b92915050565b6003811061421c57600080fd5b50565b60008135905061422e8161420f565b92915050565b6000806040838503121561424b5761424a61400e565b5b600083013567ffffffffffffffff81111561426957614268614013565b5b61427585828601614130565b92505060206142868582860161421f565b9150509250929050565b614299816141a7565b81146142a457600080fd5b50565b6000813590506142b681614290565b92915050565b6000806000606084860312156142d5576142d461400e565b5b600084013567ffffffffffffffff8111156142f3576142f2614013565b5b6142ff86828701614130565b93505060206143108682870161421f565b9250506040614321868287016142a7565b9150509250925092565b6000602082840312156143415761434061400e565b5b600061434f848285016142a7565b91505092915050565b7f4e487b7100000000000000000000000000000000000000000000000000000000600052602160045260246000fd5b6003811061439857614397614358565b5b50565b60008190506143a982614387565b919050565b60006143b98261439b565b9050919050565b6143c9816143ae565b82525050565b60006020820190506143e460008301846143c0565b92915050565b600581106143fb576143fa614358565b5b50565b600081905061440c826143ea565b919050565b600061441c826143fe565b9050919050565b61442c81614411565b82525050565b61443b816141a7565b82525050565b6060820160008201516144576000850182614432565b50602082015161446a6020850182614432565b50604082015161447d6040850182614432565b50505050565b60e0820160008201516144996000850182614423565b5060208201516144ac6020850182614441565b5060408201516144bf6080850182614441565b50505050565b600060e0820190506144da6000830184614483565b92915050565b6144e9816141db565b81146144f457600080fd5b50565b600081359050614506816144e0565b92915050565b600080604083850312156145235761452261400e565b5b6000614531858286016144f7565b9250506020614542858286016142a7565b9150509250929050565b600073ffffffffffffffffffffffffffffffffffffffff82169050919050565b60006145778261454c565b9050919050565b6145878161456c565b82525050565b60006020820190506145a2600083018461457e565b92915050565b6145b18161456c565b81146145bc57600080fd5b50565b6000813590506145ce816145a8565b92915050565b6000806000606084860312156145ed576145ec61400e565b5b600084013567ffffffffffffffff81111561460b5761460a614013565b5b61461786828701614130565b93505060206146288682870161421f565b9250506040614639868287016145bf565b9150509250925092565b600081519050919050565b600082825260208201905092915050565b60005b8381101561467d578082015181840152602081019050614662565b8381111561468c576000848401525b50505050565b600061469d82614643565b6146a7818561464e565b93506146b781856020860161465f565b6146c081614022565b840191505092915050565b600060208201905081810360008301526146e58184614692565b905092915050565b6000602082840312156147035761470261400e565b5b6000614711848285016144f7565b91505092915050565b60008115159050919050565b61472f8161471a565b82525050565b600060208201905061474a6000830184614726565b92915050565b6000602082840312156147665761476561400e565b5b6000614774848285016145bf565b91505092915050565b61478681614411565b82525050565b60006020820190506147a1600083018461477d565b92915050565b600081905092915050565b60006147bd82614643565b6147c781856147a7565b93506147d781856020860161465f565b80840191505092915050565b60006147ef82846147b2565b915081905092915050565b7f42657420737461746520697320616c7265616479204f50454e2e000000000000600082015250565b6000614830601a8361464e565b915061483b826147fa565b602082019050919050565b6000602082019050818103600083015261485f81614823565b9050919050565b7f42657420737461746520697320616c7265616479204157414954494e472e0000600082015250565b600061489c601e8361464e565b91506148a782614866565b602082019050919050565b600060208201905081810360008301526148cb8161488f565b9050919050565b7f4e487b7100000000000000000000000000000000000000000000000000000000600052602260045260246000fd5b6000600282049050600182168061491957607f821691505b6020821081141561492d5761492c6148d2565b5b50919050565b60008190508160005260206000209050919050565b6000815461495581614901565b61495f81866147a7565b9450600182166000811461497a576001811461498b576149be565b60ff198316865281860193506149be565b61499485614933565b60005b838110156149b657815481890152600182019150602081019050614997565b838801955050505b50505092915050565b60006149d38285614948565b91506149df82846147b2565b91508190509392505050565b7f426574206163746976697479206973206e6f74206f70656e2e00000000000000600082015250565b6000614a2160198361464e565b9150614a2c826149eb565b602082019050919050565b60006020820190508181036000830152614a5081614a14565b9050919050565b7f416d6f756e742069732062656c6f7720656e7472616e6365206665652e000000600082015250565b6000614a8d601d8361464e565b9150614a9882614a57565b602082019050919050565b60006020820190508181036000830152614abc81614a80565b9050919050565b7f4e487b7100000000000000000000000000000000000000000000000000000000600052601160045260246000fd5b6000614afd826141a7565b9150614b08836141a7565b9250827fffffffffffffffffffffffffffffffffffffffffffffffffffffffffffffffff03821115614b3d57614b3c614ac3565b5b828201905092915050565b60006060820190508181036000830152614b628186614692565b9050614b7160208301856141b1565b614b7e60408301846143c0565b949350505050565b7f416d6f756e742073686f756c6420657863656564207a65726f2e000000000000600082015250565b6000614bbc601a8361464e565b9150614bc782614b86565b602082019050919050565b60006020820190508181036000830152614beb81614baf565b9050919050565b7f46697874757265206973206e6f7420696e204f70656e2073746174652e000000600082015250565b6000614c28601d8361464e565b9150614c3382614bf2565b602082019050919050565b60006020820190508181036000830152614c5781614c1b565b9050919050565b7f4e6f207374616b65206f6e207468697320616464726573732d726573756c742e600082015250565b6000614c9460208361464e565b9150614c9f82614c5e565b602082019050919050565b60006020820190508181036000830152614cc381614c87565b9050919050565b7f43757272656e74207374616b6520746f6f206c6f772e00000000000000000000600082015250565b6000614d0060168361464e565b9150614d0b82614cca565b602082019050919050565b60006020820190508181036000830152614d2f81614cf3565b9050919050565b6000614d41826141a7565b9150614d4c836141a7565b925082821015614d5f57614d5e614ac3565b5b828203905092915050565b7f426574207374617465206d757374206265204157414954494e472e0000000000600082015250565b6000614da0601b8361464e565b9150614dab82614d6a565b602082019050919050565b60006020820190508181036000830152614dcf81614d93565b9050919050565b7f4d7573742062652070726f706f736564206f776e657200000000000000000000600082015250565b6000614e0c60168361464e565b9150614e1782614dd6565b602082019050919050565b60006020820190508181036000830152614e3b81614dff565b9050919050565b7f536f75726365206d75737420626520746865206f7261636c65206f662074686560008201527f2072657175657374000000000000000000000000000000000000000000000000602082015250565b6000614e9e60288361464e565b9150614ea982614e42565b604082019050919050565b60006020820190508181036000830152614ecd81614e91565b9050919050565b7f4f6e6c7920436861696e6c696e6b436c69656e742063616e2066756c66696c6c600082015250565b6000614f0a60208361464e565b9150614f1582614ed4565b602082019050919050565b60006020820190508181036000830152614f3981614efd565b9050919050565b600081519050614f4f81614290565b92915050565b600060208284031215614f6b57614f6a61400e565b5b6000614f7984828501614f40565b91505092915050565b6000604082019050614f97600083018561457e565b614fa460208301846141b1565b9392505050565b614fb48161471a565b8114614fbf57600080fd5b50565b600081519050614fd181614fab565b92915050565b600060208284031215614fed57614fec61400e565b5b6000614ffb84828501614fc2565b91505092915050565b7f556e61626c6520746f207472616e736665720000000000000000000000000000600082015250565b600061503a60128361464e565b915061504582615004565b602082019050919050565b600060208201905081810360008301526150698161502d565b9050919050565b7f42657420737461746520697320616c726561647920434c4f5345442e00000000600082015250565b60006150a6601c8361464e565b91506150b182615070565b602082019050919050565b600060208201905081810360008301526150d581615099565b9050919050565b600060408201905081810360008301526150f68185614692565b9050818103602083015261510a8184614692565b90509392505050565b7f4f6e6c792063616c6c61626c65206279206f776e657200000000000000000000600082015250565b600061514960168361464e565b915061515482615113565b602082019050919050565b600060208201905081810360008301526151788161513c565b9050919050565b600060408201905081810360008301526151998185614692565b90506151a8602083018461477d565b9392505050565b7f4e487b7100000000000000000000000000000000000000000000000000000000600052603260045260246000fd5b60006151e9826141a7565b91507fffffffffffffffffffffffffffffffffffffffffffffffffffffffffffffffff82141561521c5761521b614ac3565b5b600182019050919050565b600060408201905081810360008301526152418185614692565b905061525060208301846141b1565b9392505050565b7f43616e6e6f74207472616e7366657220746f2073656c66000000000000000000600082015250565b600061528d60178361464e565b915061529882615257565b602082019050919050565b600060208201905081810360008301526152bc81615280565b9050919050565b6000819050919050565b60006152d8826152c3565b91506152e3836152c3565b9250827f80000000000000000000000000000000000000000000000000000000000000000182126000841215161561531e5761531d614ac3565b5b827f7fffffffffffffffffffffffffffffffffffffffffffffffffffffffffffffff01821360008412161561535657615355614ac3565b5b828203905092915050565b60007fffffffff0000000000000000000000000000000000000000000000000000000082169050919050565b61539681615361565b82525050565b600081519050919050565b600082825260208201905092915050565b60006153c38261539c565b6153cd81856153a7565b93506153dd81856020860161465f565b6153e681614022565b840191505092915050565b600061010082019050615407600083018b61457e565b615414602083018a6141b1565b61542160408301896141e5565b61542e606083018861457e565b61543b608083018761538d565b61544860a08301866141b1565b61545560c08301856141b1565b81810360e083015261546781846153b8565b90509998505050505050505050565b7f4e487b7100000000000000000000000000000000000000000000000000000000600052601260045260246000fd5b60006154b0826141a7565b91506154bb836141a7565b9250826154cb576154ca615476565b5b828206905092915050565b6000819050919050565b60006154fb6154f66154f18461454c565b6154d6565b61454c565b9050919050565b600061550d826154e0565b9050919050565b600061551f82615502565b9050919050565b60008160601b9050919050565b600061553e82615526565b9050919050565b600061555082615533565b9050919050565b61556861556382615514565b615545565b82525050565b6000819050919050565b615589615584826141a7565b61556e565b82525050565b600061559b8285615557565b6014820191506155ab8284615578565b6020820191508190509392505050565b60006060820190506155d0600083018661457e565b6155dd60208301856141b1565b81810360408301526155ef81846153b8565b9050949350505050565b7f756e61626c6520746f207472616e73666572416e6443616c6c20746f206f726160008201527f636c650000000000000000000000000000000000000000000000000000000000602082015250565b600061565560238361464e565b9150615660826155f9565b604082019050919050565b6000602082019050818103600083015261568481615648565b9050919050565b7f4572726f72206f6e206669787475726520000000000000000000000000000000815250565b7f3a20556e6b6e6f776e206669787475726520726573756c742066726f6d20415060008201527f4900000000000000000000000000000000000000000000000000000000000000602082015250565b600061570d6021836147a7565b9150615718826156b1565b602182019050919050565b600061572e8261568b565b60118201915061573e82846147b2565b915061574982615700565b915081905092915050565b7f4669787475726520626574207374617465206973206e6f742046554c46494c4c60008201527f494e472e00000000000000000000000000000000000000000000000000000000602082015250565b60006157b060248361464e565b91506157bb82615754565b604082019050919050565b600060208201905081810360008301526157df816157a3565b9050919050565b60006157f1826141a7565b91506157fc836141a7565b92508261580c5761580b615476565b5b828204905092915050565b6000615822826141a7565b915061582d836141a7565b9250817fffffffffffffffffffffffffffffffffffffffffffffffffffffffffffffffff048311821515161561586657615865614ac3565b5b828202905092915050565b60008160011c9050919050565b6000808291508390505b60018511156158c8578086048111156158a4576158a3614ac3565b5b60018516156158b35780820291505b80810290506158c185615871565b9450615888565b94509492505050565b6000826158e1576001905061599d565b816158ef576000905061599d565b8160018114615905576002811461590f5761593e565b600191505061599d565b60ff84111561592157615920614ac3565b5b8360020a91508482111561593857615937614ac3565b5b5061599d565b5060208310610133831016604e8410600b84101617156159735782820a90508381111561596e5761596d614ac3565b5b61599d565b615980848484600161587e565b9250905081840481111561599757615996614ac3565b5b81810290505b9392505050565b60006159af826141a7565b91506159ba836141a7565b92506159e77fffffffffffffffffffffffffffffffffffffffffffffffffffffffffffffffff84846158d1565b90509291505056fea2646970667358221220d791665784b9d384ee50529308200234858a6c72295463f32c00b7962adb3ddc64736f6c634300080c00334465706c6f79696e6720612053706f72747342657474696e6720776974682073706f727473206f7261636c65205552493a",
  "devdoc": {
    "kind": "dev",
    "methods": {},
    "version": 1
  },
  "userdoc": {
    "kind": "user",
    "methods": {
      "acceptOwnership()": {
        "notice": "Allows an ownership transfer to be completed by the recipient."
      },
      "owner()": {
        "notice": "Get the current owner"
      },
      "requestFixtureKickoffTimeParameter(string)": {
        "notice": "Request fixture kickoff time from the oracle in a single transaction"
      },
      "requestFixtureResultParameter(string)": {
        "notice": "Request fixture result from the oracle in a single transaction"
      },
      "transferOwnership(address)": {
        "notice": "Allows an owner to begin transferring ownership to a new address, pending."
      },
      "withdrawLink()": {
        "notice": "Allow withdraw of Link tokens from the contract"
      }
    },
    "version": 1
  },
  "storageLayout": {
    "storage": [
      {
        "astId": 319,
        "contract": "contracts/SportsBetting.sol:SportsBetting",
        "label": "s_ens",
        "offset": 0,
        "slot": "0",
        "type": "t_contract(ENSInterface)1156"
      },
      {
        "astId": 321,
        "contract": "contracts/SportsBetting.sol:SportsBetting",
        "label": "s_ensNode",
        "offset": 0,
        "slot": "1",
        "type": "t_bytes32"
      },
      {
        "astId": 324,
        "contract": "contracts/SportsBetting.sol:SportsBetting",
        "label": "s_link",
        "offset": 0,
        "slot": "2",
        "type": "t_contract(LinkTokenInterface)1251"
      },
      {
        "astId": 327,
        "contract": "contracts/SportsBetting.sol:SportsBetting",
        "label": "s_oracle",
        "offset": 0,
        "slot": "3",
        "type": "t_contract(OperatorInterface)1331"
      },
      {
        "astId": 330,
        "contract": "contracts/SportsBetting.sol:SportsBetting",
        "label": "s_requestCount",
        "offset": 0,
        "slot": "4",
        "type": "t_uint256"
      },
      {
        "astId": 334,
        "contract": "contracts/SportsBetting.sol:SportsBetting",
        "label": "s_pendingRequests",
        "offset": 0,
        "slot": "5",
        "type": "t_mapping(t_bytes32,t_address)"
      },
      {
        "astId": 889,
        "contract": "contracts/SportsBetting.sol:SportsBetting",
        "label": "s_owner",
        "offset": 0,
        "slot": "6",
        "type": "t_address"
      },
      {
        "astId": 891,
        "contract": "contracts/SportsBetting.sol:SportsBetting",
        "label": "s_pendingOwner",
        "offset": 0,
        "slot": "7",
        "type": "t_address"
      },
      {
        "astId": 3755,
        "contract": "contracts/SportsBetting.sol:SportsBetting",
        "label": "chainlink",
        "offset": 0,
        "slot": "8",
        "type": "t_address"
      },
      {
        "astId": 3757,
        "contract": "contracts/SportsBetting.sol:SportsBetting",
        "label": "sportsOracleURI",
        "offset": 0,
        "slot": "9",
        "type": "t_string_storage"
      },
      {
        "astId": 3759,
        "contract": "contracts/SportsBetting.sol:SportsBetting",
        "label": "jobId",
        "offset": 0,
        "slot": "10",
        "type": "t_bytes32"
      },
      {
        "astId": 3761,
        "contract": "contracts/SportsBetting.sol:SportsBetting",
        "label": "fee",
        "offset": 0,
        "slot": "11",
        "type": "t_uint256"
      },
      {
        "astId": 3763,
        "contract": "contracts/SportsBetting.sol:SportsBetting",
        "label": "fixtureResult",
        "offset": 0,
        "slot": "12",
        "type": "t_string_storage"
      },
      {
        "astId": 2596,
        "contract": "contracts/SportsBetting.sol:SportsBetting",
        "label": "betTypes",
        "offset": 0,
        "slot": "13",
        "type": "t_array(t_enum(BetType)2519)3_storage"
      },
      {
        "astId": 2601,
        "contract": "contracts/SportsBetting.sol:SportsBetting",
        "label": "entranceFee",
        "offset": 0,
        "slot": "14",
        "type": "t_uint256"
      },
      {
        "astId": 2610,
        "contract": "contracts/SportsBetting.sol:SportsBetting",
        "label": "betAdvanceTime",
        "offset": 0,
        "slot": "15",
        "type": "t_uint256"
      },
      {
        "astId": 2615,
        "contract": "contracts/SportsBetting.sol:SportsBetting",
        "label": "betCutOffTime",
        "offset": 0,
        "slot": "16",
        "type": "t_uint256"
      },
      {
        "astId": 2623,
        "contract": "contracts/SportsBetting.sol:SportsBetting",
        "label": "historicalBetters",
        "offset": 0,
        "slot": "17",
        "type": "t_mapping(t_string_memory_ptr,t_mapping(t_enum(BetType)2519,t_array(t_address)dyn_storage))"
      },
      {
        "astId": 2632,
        "contract": "contracts/SportsBetting.sol:SportsBetting",
        "label": "activeBetters",
        "offset": 0,
        "slot": "18",
        "type": "t_mapping(t_string_memory_ptr,t_mapping(t_enum(BetType)2519,t_mapping(t_address,t_bool)))"
      },
      {
        "astId": 2641,
        "contract": "contracts/SportsBetting.sol:SportsBetting",
        "label": "amounts",
        "offset": 0,
        "slot": "19",
        "type": "t_mapping(t_string_memory_ptr,t_mapping(t_enum(BetType)2519,t_mapping(t_address,t_uint256)))"
      },
      {
        "astId": 2647,
        "contract": "contracts/SportsBetting.sol:SportsBetting",
        "label": "obligations",
        "offset": 0,
        "slot": "20",
        "type": "t_mapping(t_string_memory_ptr,t_mapping(t_address,t_uint256))"
      },
      {
        "astId": 2652,
        "contract": "contracts/SportsBetting.sol:SportsBetting",
        "label": "bettingState",
        "offset": 0,
        "slot": "21",
        "type": "t_mapping(t_string_memory_ptr,t_enum(BettingState)2525)"
      },
      {
        "astId": 2656,
        "contract": "contracts/SportsBetting.sol:SportsBetting",
        "label": "fixtureToKickoffTime",
        "offset": 0,
        "slot": "22",
        "type": "t_mapping(t_string_memory_ptr,t_uint256)"
      },
      {
        "astId": 2660,
        "contract": "contracts/SportsBetting.sol:SportsBetting",
        "label": "requestKickoffToFixture",
        "offset": 0,
        "slot": "23",
        "type": "t_mapping(t_bytes32,t_string_storage)"
      },
      {
        "astId": 2664,
        "contract": "contracts/SportsBetting.sol:SportsBetting",
        "label": "requestResultToFixture",
        "offset": 0,
        "slot": "24",
        "type": "t_mapping(t_bytes32,t_string_storage)"
      }
    ],
    "types": {
      "t_address": {
        "encoding": "inplace",
        "label": "address",
        "numberOfBytes": "20"
      },
      "t_array(t_address)dyn_storage": {
        "base": "t_address",
        "encoding": "dynamic_array",
        "label": "address[]",
        "numberOfBytes": "32"
      },
      "t_array(t_enum(BetType)2519)3_storage": {
        "base": "t_enum(BetType)2519",
        "encoding": "inplace",
        "label": "enum SportsBetting.BetType[3]",
        "numberOfBytes": "32"
      },
      "t_bool": {
        "encoding": "inplace",
        "label": "bool",
        "numberOfBytes": "1"
      },
      "t_bytes32": {
        "encoding": "inplace",
        "label": "bytes32",
        "numberOfBytes": "32"
      },
      "t_contract(ENSInterface)1156": {
        "encoding": "inplace",
        "label": "contract ENSInterface",
        "numberOfBytes": "20"
      },
      "t_contract(LinkTokenInterface)1251": {
        "encoding": "inplace",
        "label": "contract LinkTokenInterface",
        "numberOfBytes": "20"
      },
      "t_contract(OperatorInterface)1331": {
        "encoding": "inplace",
        "label": "contract OperatorInterface",
        "numberOfBytes": "20"
      },
      "t_enum(BetType)2519": {
        "encoding": "inplace",
        "label": "enum SportsBetting.BetType",
        "numberOfBytes": "1"
      },
      "t_enum(BettingState)2525": {
        "encoding": "inplace",
        "label": "enum SportsBetting.BettingState",
        "numberOfBytes": "1"
      },
      "t_mapping(t_address,t_bool)": {
        "encoding": "mapping",
        "key": "t_address",
        "label": "mapping(address => bool)",
        "numberOfBytes": "32",
        "value": "t_bool"
      },
      "t_mapping(t_address,t_uint256)": {
        "encoding": "mapping",
        "key": "t_address",
        "label": "mapping(address => uint256)",
        "numberOfBytes": "32",
        "value": "t_uint256"
      },
      "t_mapping(t_bytes32,t_address)": {
        "encoding": "mapping",
        "key": "t_bytes32",
        "label": "mapping(bytes32 => address)",
        "numberOfBytes": "32",
        "value": "t_address"
      },
      "t_mapping(t_bytes32,t_string_storage)": {
        "encoding": "mapping",
        "key": "t_bytes32",
        "label": "mapping(bytes32 => string)",
        "numberOfBytes": "32",
        "value": "t_string_storage"
      },
      "t_mapping(t_enum(BetType)2519,t_array(t_address)dyn_storage)": {
        "encoding": "mapping",
        "key": "t_enum(BetType)2519",
        "label": "mapping(enum SportsBetting.BetType => address[])",
        "numberOfBytes": "32",
        "value": "t_array(t_address)dyn_storage"
      },
      "t_mapping(t_enum(BetType)2519,t_mapping(t_address,t_bool))": {
        "encoding": "mapping",
        "key": "t_enum(BetType)2519",
        "label": "mapping(enum SportsBetting.BetType => mapping(address => bool))",
        "numberOfBytes": "32",
        "value": "t_mapping(t_address,t_bool)"
      },
      "t_mapping(t_enum(BetType)2519,t_mapping(t_address,t_uint256))": {
        "encoding": "mapping",
        "key": "t_enum(BetType)2519",
        "label": "mapping(enum SportsBetting.BetType => mapping(address => uint256))",
        "numberOfBytes": "32",
        "value": "t_mapping(t_address,t_uint256)"
      },
      "t_mapping(t_string_memory_ptr,t_enum(BettingState)2525)": {
        "encoding": "mapping",
        "key": "t_string_memory_ptr",
        "label": "mapping(string => enum SportsBetting.BettingState)",
        "numberOfBytes": "32",
        "value": "t_enum(BettingState)2525"
      },
      "t_mapping(t_string_memory_ptr,t_mapping(t_address,t_uint256))": {
        "encoding": "mapping",
        "key": "t_string_memory_ptr",
        "label": "mapping(string => mapping(address => uint256))",
        "numberOfBytes": "32",
        "value": "t_mapping(t_address,t_uint256)"
      },
      "t_mapping(t_string_memory_ptr,t_mapping(t_enum(BetType)2519,t_array(t_address)dyn_storage))": {
        "encoding": "mapping",
        "key": "t_string_memory_ptr",
        "label": "mapping(string => mapping(enum SportsBetting.BetType => address[]))",
        "numberOfBytes": "32",
        "value": "t_mapping(t_enum(BetType)2519,t_array(t_address)dyn_storage)"
      },
      "t_mapping(t_string_memory_ptr,t_mapping(t_enum(BetType)2519,t_mapping(t_address,t_bool)))": {
        "encoding": "mapping",
        "key": "t_string_memory_ptr",
        "label": "mapping(string => mapping(enum SportsBetting.BetType => mapping(address => bool)))",
        "numberOfBytes": "32",
        "value": "t_mapping(t_enum(BetType)2519,t_mapping(t_address,t_bool))"
      },
      "t_mapping(t_string_memory_ptr,t_mapping(t_enum(BetType)2519,t_mapping(t_address,t_uint256)))": {
        "encoding": "mapping",
        "key": "t_string_memory_ptr",
        "label": "mapping(string => mapping(enum SportsBetting.BetType => mapping(address => uint256)))",
        "numberOfBytes": "32",
        "value": "t_mapping(t_enum(BetType)2519,t_mapping(t_address,t_uint256))"
      },
      "t_mapping(t_string_memory_ptr,t_uint256)": {
        "encoding": "mapping",
        "key": "t_string_memory_ptr",
        "label": "mapping(string => uint256)",
        "numberOfBytes": "32",
        "value": "t_uint256"
      },
      "t_string_memory_ptr": {
        "encoding": "bytes",
        "label": "string",
        "numberOfBytes": "32"
      },
      "t_string_storage": {
        "encoding": "bytes",
        "label": "string",
        "numberOfBytes": "32"
      },
      "t_uint256": {
        "encoding": "inplace",
        "label": "uint256",
        "numberOfBytes": "32"
      }
    }
  }
}