{
  "address": "0x1FB9604939CC1Eb91D28129c94Ff8eDAfe4eC65C",
  "abi": [
    {
      "inputs": [
        {
          "internalType": "string",
          "name": "_sportsOracleURI",
          "type": "string"
        },
        {
          "internalType": "address",
          "name": "_oracle",
          "type": "address"
        },
        {
          "internalType": "address",
          "name": "_link",
          "type": "address"
        },
        {
          "internalType": "bytes32",
          "name": "_jobId",
          "type": "bytes32"
        },
        {
          "internalType": "uint256",
          "name": "_fee",
          "type": "uint256"
        }
      ],
      "stateMutability": "nonpayable",
      "type": "constructor"
    },
    {
      "anonymous": false,
      "inputs": [
        {
          "indexed": true,
          "internalType": "address",
          "name": "better",
          "type": "address"
        },
        {
          "indexed": false,
          "internalType": "string",
          "name": "fixtureID",
          "type": "string"
        },
        {
          "indexed": false,
          "internalType": "uint256",
          "name": "amount",
          "type": "uint256"
        }
      ],
      "name": "BetPayout",
      "type": "event"
    },
    {
      "anonymous": false,
      "inputs": [
        {
          "indexed": false,
          "internalType": "string",
          "name": "fixtureID",
          "type": "string"
        },
        {
          "indexed": false,
          "internalType": "string",
          "name": "reason",
          "type": "string"
        }
      ],
      "name": "BetPayoutFulfillmentError",
      "type": "event"
    },
    {
      "anonymous": false,
      "inputs": [
        {
          "indexed": true,
          "internalType": "address",
          "name": "better",
          "type": "address"
        },
        {
          "indexed": false,
          "internalType": "string",
          "name": "fixtureID",
          "type": "string"
        },
        {
          "indexed": false,
          "internalType": "uint256",
          "name": "amount",
          "type": "uint256"
        },
        {
          "indexed": false,
          "internalType": "enum SportsBetting.BetType",
          "name": "betType",
          "type": "uint8"
        }
      ],
      "name": "BetStaked",
      "type": "event"
    },
    {
      "anonymous": false,
      "inputs": [
        {
          "indexed": true,
          "internalType": "address",
          "name": "better",
          "type": "address"
        },
        {
          "indexed": false,
          "internalType": "string",
          "name": "fixtureID",
          "type": "string"
        },
        {
          "indexed": false,
          "internalType": "uint256",
          "name": "amount",
          "type": "uint256"
        },
        {
          "indexed": false,
          "internalType": "enum SportsBetting.BetType",
          "name": "betType",
          "type": "uint8"
        }
      ],
      "name": "BetUnstaked",
      "type": "event"
    },
    {
      "anonymous": false,
      "inputs": [
        {
          "indexed": false,
          "internalType": "string",
          "name": "fixtureID",
          "type": "string"
        },
        {
          "indexed": false,
          "internalType": "enum SportsBetting.BettingState",
          "name": "state",
          "type": "uint8"
        }
      ],
      "name": "BettingStateChanged",
      "type": "event"
    },
    {
      "anonymous": false,
      "inputs": [
        {
          "indexed": true,
          "internalType": "bytes32",
          "name": "id",
          "type": "bytes32"
        }
      ],
      "name": "ChainlinkCancelled",
      "type": "event"
    },
    {
      "anonymous": false,
      "inputs": [
        {
          "indexed": true,
          "internalType": "bytes32",
          "name": "id",
          "type": "bytes32"
        }
      ],
      "name": "ChainlinkFulfilled",
      "type": "event"
    },
    {
      "anonymous": false,
      "inputs": [
        {
          "indexed": true,
          "internalType": "bytes32",
          "name": "id",
          "type": "bytes32"
        }
      ],
      "name": "ChainlinkRequested",
      "type": "event"
    },
    {
      "anonymous": false,
      "inputs": [
        {
          "indexed": false,
          "internalType": "string",
          "name": "fixtureID",
          "type": "string"
        },
        {
          "indexed": false,
          "internalType": "uint256",
          "name": "kickoffTime",
          "type": "uint256"
        }
      ],
      "name": "KickoffTimeUpdated",
      "type": "event"
    },
    {
      "anonymous": false,
      "inputs": [
        {
          "indexed": true,
          "internalType": "bytes32",
          "name": "requestId",
          "type": "bytes32"
        },
        {
          "indexed": false,
          "internalType": "string",
          "name": "fixtureID",
          "type": "string"
        },
        {
          "indexed": false,
          "internalType": "uint256",
          "name": "kickoff",
          "type": "uint256"
        }
      ],
      "name": "RequestFixtureKickoffFulfilled",
      "type": "event"
    },
    {
      "anonymous": false,
      "inputs": [
        {
          "indexed": true,
          "internalType": "bytes32",
          "name": "requestId",
          "type": "bytes32"
        },
        {
          "indexed": false,
          "internalType": "string",
          "name": "fixtureID",
          "type": "string"
        },
        {
          "indexed": false,
          "internalType": "uint256",
          "name": "result",
          "type": "uint256"
        }
      ],
      "name": "RequestFixtureResultFulfilled",
      "type": "event"
    },
    {
      "anonymous": false,
      "inputs": [
        {
          "indexed": true,
          "internalType": "bytes32",
          "name": "requestId",
          "type": "bytes32"
        },
        {
          "indexed": false,
          "internalType": "string",
          "name": "fixtureID",
          "type": "string"
        }
      ],
      "name": "RequestedFixtureKickoff",
      "type": "event"
    },
    {
      "anonymous": false,
      "inputs": [
        {
          "indexed": true,
          "internalType": "bytes32",
          "name": "requestId",
          "type": "bytes32"
        },
        {
          "indexed": false,
          "internalType": "string",
          "name": "fixtureID",
          "type": "string"
        }
      ],
      "name": "RequestedFixtureResult",
      "type": "event"
    },
    {
      "inputs": [
        {
          "internalType": "string",
          "name": "",
          "type": "string"
        },
        {
          "internalType": "enum SportsBetting.BetType",
          "name": "",
          "type": "uint8"
        },
        {
          "internalType": "address",
          "name": "",
          "type": "address"
        }
      ],
      "name": "activeBetters",
      "outputs": [
        {
          "internalType": "bool",
          "name": "",
          "type": "bool"
        }
      ],
      "stateMutability": "view",
      "type": "function"
    },
    {
      "inputs": [
        {
          "internalType": "string",
          "name": "",
          "type": "string"
        },
        {
          "internalType": "enum SportsBetting.BetType",
          "name": "",
          "type": "uint8"
        },
        {
          "internalType": "address",
          "name": "",
          "type": "address"
        }
      ],
      "name": "amounts",
      "outputs": [
        {
          "internalType": "uint256",
          "name": "",
          "type": "uint256"
        }
      ],
      "stateMutability": "view",
      "type": "function"
    },
    {
      "inputs": [
        {
          "internalType": "string",
          "name": "fixtureID",
          "type": "string"
        }
      ],
      "name": "awaitBetForFixture",
      "outputs": [],
      "stateMutability": "nonpayable",
      "type": "function"
    },
    {
      "inputs": [],
      "name": "betAdvanceTime",
      "outputs": [
        {
          "internalType": "uint256",
          "name": "",
          "type": "uint256"
        }
      ],
      "stateMutability": "view",
      "type": "function"
    },
    {
      "inputs": [],
      "name": "betCutOffTime",
      "outputs": [
        {
          "internalType": "uint256",
          "name": "",
          "type": "uint256"
        }
      ],
      "stateMutability": "view",
      "type": "function"
    },
    {
      "inputs": [
        {
          "internalType": "uint256",
          "name": "",
          "type": "uint256"
        }
      ],
      "name": "betTypes",
      "outputs": [
        {
          "internalType": "enum SportsBetting.BetType",
          "name": "",
          "type": "uint8"
        }
      ],
      "stateMutability": "view",
      "type": "function"
    },
    {
      "inputs": [
        {
          "internalType": "string",
          "name": "",
          "type": "string"
        }
      ],
      "name": "bettingState",
      "outputs": [
        {
          "internalType": "enum SportsBetting.BettingState",
          "name": "",
          "type": "uint8"
        }
      ],
      "stateMutability": "view",
      "type": "function"
    },
    {
      "inputs": [],
      "name": "chainlink",
      "outputs": [
        {
          "internalType": "address",
          "name": "",
          "type": "address"
        }
      ],
      "stateMutability": "view",
      "type": "function"
    },
    {
      "inputs": [
        {
          "internalType": "string",
          "name": "fixtureID",
          "type": "string"
        }
      ],
      "name": "closeBetForFixture",
      "outputs": [],
      "stateMutability": "nonpayable",
      "type": "function"
    },
    {
      "inputs": [],
      "name": "entranceFee",
      "outputs": [
        {
          "internalType": "uint256",
          "name": "",
          "type": "uint256"
        }
      ],
      "stateMutability": "view",
      "type": "function"
    },
    {
      "inputs": [],
      "name": "fixtureResult",
      "outputs": [
        {
          "internalType": "string",
          "name": "",
          "type": "string"
        }
      ],
      "stateMutability": "view",
      "type": "function"
    },
    {
      "inputs": [
        {
          "internalType": "string",
          "name": "",
          "type": "string"
        }
      ],
      "name": "fixtureToKickoffTime",
      "outputs": [
        {
          "internalType": "uint256",
          "name": "",
          "type": "uint256"
        }
      ],
      "stateMutability": "view",
      "type": "function"
    },
    {
      "inputs": [
        {
          "internalType": "string",
          "name": "fixtureID",
          "type": "string"
        }
      ],
      "name": "fulfillBetForFixture",
      "outputs": [],
      "stateMutability": "nonpayable",
      "type": "function"
    },
    {
      "inputs": [
        {
          "internalType": "string",
          "name": "fixtureID",
          "type": "string"
        }
      ],
      "name": "getEnrichedFixtureData",
      "outputs": [
        {
          "components": [
            {
              "internalType": "enum SportsBetting.BettingState",
              "name": "fixtureState",
              "type": "uint8"
            },
            {
              "components": [
                {
                  "internalType": "uint256",
                  "name": "home",
                  "type": "uint256"
                },
                {
                  "internalType": "uint256",
                  "name": "draw",
                  "type": "uint256"
                },
                {
                  "internalType": "uint256",
                  "name": "away",
                  "type": "uint256"
                }
              ],
              "internalType": "struct SportsBetting.StakeSummary",
              "name": "total",
              "type": "tuple"
            },
            {
              "components": [
                {
                  "internalType": "uint256",
                  "name": "home",
                  "type": "uint256"
                },
                {
                  "internalType": "uint256",
                  "name": "draw",
                  "type": "uint256"
                },
                {
                  "internalType": "uint256",
                  "name": "away",
                  "type": "uint256"
                }
              ],
              "internalType": "struct SportsBetting.StakeSummary",
              "name": "user",
              "type": "tuple"
            }
          ],
          "internalType": "struct SportsBetting.FixtureEnrichment",
          "name": "",
          "type": "tuple"
        }
      ],
      "stateMutability": "nonpayable",
      "type": "function"
    },
    {
      "inputs": [
        {
          "internalType": "string",
          "name": "",
          "type": "string"
        },
        {
          "internalType": "enum SportsBetting.BetType",
          "name": "",
          "type": "uint8"
        },
        {
          "internalType": "uint256",
          "name": "",
          "type": "uint256"
        }
      ],
      "name": "historicalBetters",
      "outputs": [
        {
          "internalType": "address",
          "name": "",
          "type": "address"
        }
      ],
      "stateMutability": "view",
      "type": "function"
    },
    {
      "inputs": [
        {
          "internalType": "string",
          "name": "",
          "type": "string"
        },
        {
          "internalType": "address",
          "name": "",
          "type": "address"
        }
      ],
      "name": "obligations",
      "outputs": [
        {
          "internalType": "uint256",
          "name": "",
          "type": "uint256"
        }
      ],
      "stateMutability": "view",
      "type": "function"
    },
    {
      "inputs": [
        {
          "internalType": "string",
          "name": "fixtureID",
          "type": "string"
        }
      ],
      "name": "openBetForFixture",
      "outputs": [],
      "stateMutability": "nonpayable",
      "type": "function"
    },
    {
      "inputs": [],
      "name": "owner",
      "outputs": [
        {
          "internalType": "address payable",
          "name": "",
          "type": "address"
        }
      ],
      "stateMutability": "view",
      "type": "function"
    },
    {
      "inputs": [
        {
          "internalType": "bytes32",
          "name": "_requestId",
          "type": "bytes32"
        },
        {
          "internalType": "uint256",
          "name": "_ko",
          "type": "uint256"
        }
      ],
      "name": "rawFulfillFixtureKickoffTime",
      "outputs": [],
      "stateMutability": "nonpayable",
      "type": "function"
    },
    {
      "inputs": [
        {
          "internalType": "bytes32",
          "name": "_requestId",
          "type": "bytes32"
        },
        {
          "internalType": "uint256",
          "name": "_result",
          "type": "uint256"
        }
      ],
      "name": "rawFulfillFixtureResult",
      "outputs": [],
      "stateMutability": "nonpayable",
      "type": "function"
    },
    {
      "inputs": [
        {
          "internalType": "string",
          "name": "fixtureID",
          "type": "string"
        }
      ],
      "name": "requestFixtureKickoffTimeParameter",
      "outputs": [
        {
          "internalType": "bytes32",
          "name": "",
          "type": "bytes32"
        }
      ],
      "stateMutability": "nonpayable",
      "type": "function"
    },
    {
      "inputs": [
        {
          "internalType": "string",
          "name": "fixtureID",
          "type": "string"
        }
      ],
      "name": "requestFixtureResultParameter",
      "outputs": [
        {
          "internalType": "bytes32",
          "name": "",
          "type": "bytes32"
        }
      ],
      "stateMutability": "nonpayable",
      "type": "function"
    },
    {
      "inputs": [
        {
          "internalType": "bytes32",
          "name": "",
          "type": "bytes32"
        }
      ],
      "name": "requestKickoffToFixture",
      "outputs": [
        {
          "internalType": "string",
          "name": "",
          "type": "string"
        }
      ],
      "stateMutability": "view",
      "type": "function"
    },
    {
      "inputs": [
        {
          "internalType": "bytes32",
          "name": "",
          "type": "bytes32"
        }
      ],
      "name": "requestResultToFixture",
      "outputs": [
        {
          "internalType": "string",
          "name": "",
          "type": "string"
        }
      ],
      "stateMutability": "view",
      "type": "function"
    },
    {
      "inputs": [],
      "name": "sportsOracleURI",
      "outputs": [
        {
          "internalType": "string",
          "name": "",
          "type": "string"
        }
      ],
      "stateMutability": "view",
      "type": "function"
    },
    {
      "inputs": [
        {
          "internalType": "string",
          "name": "fixtureID",
          "type": "string"
        },
        {
          "internalType": "enum SportsBetting.BetType",
          "name": "betType",
          "type": "uint8"
        }
      ],
      "name": "stake",
      "outputs": [],
      "stateMutability": "payable",
      "type": "function"
    },
    {
      "inputs": [
        {
          "internalType": "string",
          "name": "fixtureID",
          "type": "string"
        },
        {
          "internalType": "enum SportsBetting.BetType",
          "name": "betType",
          "type": "uint8"
        },
        {
          "internalType": "uint256",
          "name": "amount",
          "type": "uint256"
        }
      ],
      "name": "unstake",
      "outputs": [],
      "stateMutability": "nonpayable",
      "type": "function"
    },
    {
      "inputs": [],
      "name": "withdrawLink",
      "outputs": [],
      "stateMutability": "nonpayable",
      "type": "function"
    }
  ],
  "transactionHash": "0x58d73486004ca1106ab558a9198f9bae1bf7a552e450a69b0452675c12d3d90b",
  "args": [
    "https://1vyuff64d9.execute-api.us-east-1.amazonaws.com/dev/premier-league/fixtures/",
    "0xcc79157eb46f5624204f47ab42b3906caa40eab7",
    "0x326C977E6efc84E512bB9C30f76E30c160eD06FB",
    "0x6361393833363663633733313439353762386330313263373266303561656562",
    "100000000000000000"
  ],
  "numDeployments": 13,
  "solcInputHash": "3a12f23b791a38963d9408750cfe9d6a",
  "bytecode": "0x60806040526001600455655af3107a4000600d5562093a80600e55611518600f553480156200002d57600080fd5b5060405162003eb338038062003eb38339810160408190526200005091620001d6565b848484848484600890805190602001906200006d929190620000fd565b50600280546001600160a01b03199081166001600160a01b039586161790915560038054821695909416948517909355600780548416909417909355507f6361393833363663633733313439353762386330313263373266303561656562600955600a9190915560068054909116331790555050600c805462ffffff191662020100179055506200032992505050565b8280546200010b90620002ec565b90600052602060002090601f0160209004810192826200012f57600085556200017a565b82601f106200014a57805160ff19168380011785556200017a565b828001600101855582156200017a579182015b828111156200017a5782518255916020019190600101906200015d565b50620001889291506200018c565b5090565b5b808211156200018857600081556001016200018d565b634e487b7160e01b600052604160045260246000fd5b80516001600160a01b0381168114620001d157600080fd5b919050565b600080600080600060a08688031215620001ef57600080fd5b85516001600160401b03808211156200020757600080fd5b818801915088601f8301126200021c57600080fd5b815181811115620002315762000231620001a3565b604051601f8201601f19908116603f011681019083821181831017156200025c576200025c620001a3565b81604052828152602093508b848487010111156200027957600080fd5b600091505b828210156200029d57848201840151818301850152908301906200027e565b82821115620002af5760008484830101525b9850620002c1915050888201620001b9565b95505050620002d360408701620001b9565b6060870151608090970151959894975095949392505050565b600181811c908216806200030157607f821691505b602082108114156200032357634e487b7160e01b600052602260045260246000fd5b50919050565b613b7a80620003396000396000f3fe6080604052600436106101b65760003560e01c80639c3feeb7116100ec578063d8654c081161008a578063ef40efde11610064578063ef40efde1461057d578063f46dccf01461059d578063f7c60c0c146105bd578063fbe91393146105d257600080fd5b8063d8654c0814610505578063e37685ec14610525578063edb160701461054557600080fd5b8063bae22f95116100c6578063bae22f951461041c578063c40bc66b14610464578063c8fe739c14610484578063cbef85c2146104a457600080fd5b80639c3feeb71461038c578063aa066090146103ac578063b148cdf1146103fa57600080fd5b806362098ff71161015957806384f4614e1161013357806384f4614e146102f25780638a71bfa81461031f5780638da5cb5b1461033f5780638dc654a21461037757600080fd5b806362098ff71461028f578063649677e1146102bc5780636e2a3a84146102d257600080fd5b80631d686ae4116101955780631d686ae41461022657806340364d11146102465780634bfc91ee146102595780635e5243191461026f57600080fd5b8062e1a75b146101bb57806301ec29c9146101dd578063106246d8146101fd575b600080fd5b3480156101c757600080fd5b506101db6101d6366004613316565b61061a565b005b3480156101e957600080fd5b506101db6101f8366004613316565b6106b9565b34801561020957600080fd5b50610213600e5481565b6040519081526020015b60405180910390f35b34801561023257600080fd5b50610213610241366004613316565b610745565b6101db61025436600461335f565b610863565b34801561026557600080fd5b50610213600f5481565b34801561027b57600080fd5b506101db61028a3660046133ad565b610b02565b34801561029b57600080fd5b506102af6102aa366004613404565b610bef565b60405161021d9190613447565b3480156102c857600080fd5b50610213600d5481565b3480156102de57600080fd5b506101db6102ed366004613316565b610c19565b3480156102fe57600080fd5b5061031261030d366004613316565b610cb0565b60405161021d9190613465565b34801561032b57600080fd5b506101db61033a3660046134c3565b610d4b565b34801561034b57600080fd5b5060065461035f906001600160a01b031681565b6040516001600160a01b03909116815260200161021d565b34801561038357600080fd5b506101db610e78565b34801561039857600080fd5b5060075461035f906001600160a01b031681565b3480156103b857600080fd5b506102136103c73660046134fc565b82516020818501810180516012825292820195820195909520919094528352600091825260408083209093528152205481565b34801561040657600080fd5b5061040f61102f565b60405161021d91906135b2565b34801561042857600080fd5b506102136104373660046135c5565b81516020818401810180516013825292820194820194909420919093529091526000908152604090205481565b34801561047057600080fd5b5061040f61047f366004613404565b6110bd565b34801561049057600080fd5b5061035f61049f3660046133ad565b6110d6565b3480156104b057600080fd5b506104f56104bf3660046134fc565b82516020818501810180516011825292820195820195909520919094528352600091825260408083209093528152205460ff1681565b604051901515815260200161021d565b34801561051157600080fd5b50610213610520366004613316565b611125565b34801561053157600080fd5b506101db6105403660046134c3565b6111d7565b34801561055157600080fd5b50610213610560366004613316565b805160208183018101805160158252928201919093012091525481565b34801561058957600080fd5b506101db610598366004613316565b611304565b3480156105a957600080fd5b5061040f6105b8366004613404565b611388565b3480156105c957600080fd5b5061040f6113a1565b3480156105de57600080fd5b5061060d6105ed366004613316565b805160208183018101805160148252928201919093012091525460ff1681565b60405161021d919061360a565b600060148260405161062c9190613634565b9081526040519081900360200190205460ff1660058111156106505761065061341d565b146106a25760405162461bcd60e51b815260206004820152601960248201527f426574207374617465206d75737420626520434c4f5345442e0000000000000060448201526064015b60405180910390fd5b6106ad8160016113ae565b6106b68161144d565b50565b60026014826040516106cb9190613634565b9081526040519081900360200190205460ff1660058111156106ef576106ef61341d565b1461073c5760405162461bcd60e51b815260206004820152601760248201527f426574207374617465206d757374206265204f50454e2e0000000000000000006044820152606401610699565b6106b6816114ad565b60008061075c6009543063e37685ec60e01b6116d5565b90506107a96040518060400160405280600381526020016219d95d60ea1b815250600885604051602001610791929190613685565b60408051601f19818403018152919052839190611766565b61080f604051806040016040528060048152602001630e0c2e8d60e31b8152506040518060400160405280600481526020017f302c6b6f00000000000000000000000000000000000000000000000000000000815250836117669092919063ffffffff16565b60408051808201909152600581527f74696d657300000000000000000000000000000000000000000000000000000060208201526108509082906001611784565b61085c81600a546117a2565b9392505050565b61086c826114ad565b600260148360405161087e9190613634565b9081526040519081900360200190205460ff1660058111156108a2576108a261341d565b146108ef5760405162461bcd60e51b815260206004820152601960248201527f426574206163746976697479206973206e6f74206f70656e2e000000000000006044820152606401610699565b600d543410156109415760405162461bcd60e51b815260206004820152601d60248201527f416d6f756e742069732062656c6f7720656e7472616e6365206665652e0000006044820152606401610699565b346012836040516109529190613634565b908152602001604051809103902060008360028111156109745761097461341d565b60028111156109855761098561341d565b81526020019081526020016000206000336001600160a01b03166001600160a01b0316815260200190815260200160002060008282546109c59190613739565b90915550506040516010906109db908490613634565b908152602001604051809103902060008260028111156109fd576109fd61341d565b6002811115610a0e57610a0e61341d565b81526020808201929092526040908101600090812080546001818101835591835293909120909201805473ffffffffffffffffffffffffffffffffffffffff19163317905551601190610a62908590613634565b90815260200160405180910390206000836002811115610a8457610a8461341d565b6002811115610a9557610a9561341d565b815260208082019290925260409081016000908120338083529352819020805460ff19169315159390931790925590517f1a48cf6315f5f44cf8ac3a5105296caf8a73f64b40f9a6b7cbf8ba65ca930fd490610af690859034908690613751565b60405180910390a25050565b60008111610b525760405162461bcd60e51b815260206004820152601a60248201527f416d6f756e742073686f756c6420657863656564207a65726f2e0000000000006044820152606401610699565b610b5b836114ad565b6002601484604051610b6d9190613634565b9081526040519081900360200190205460ff166005811115610b9157610b9161341d565b14610bde5760405162461bcd60e51b815260206004820152601d60248201527f46697874757265206973206e6f7420696e204f70656e2073746174652e0000006044820152606401610699565b610bea838383336117c5565b505050565b600c8160038110610bff57600080fd5b60209182820401919006915054906101000a900460ff1681565b6003601482604051610c2b9190613634565b9081526040519081900360200190205460ff166005811115610c4f57610c4f61341d565b14610c9c5760405162461bcd60e51b815260206004820152601b60248201527f426574207374617465206d757374206265204157414954494e472e00000000006044820152606401610699565b610ca78160046113ae565b6106b681611ada565b610cb8613175565b6040518060600160405280601484604051610cd39190613634565b9081526040519081900360200190205460ff166005811115610cf757610cf761341d565b81526020016040518060600160405280610d12866000611b3a565b8152602001610d22866001611b3a565b8152602001610d32866002611b3a565b90528152602001610d438433611d1d565b905292915050565b60008281526005602052604090205482906001600160a01b03163314610dc45760405162461bcd60e51b815260206004820152602860248201527f536f75726365206d75737420626520746865206f7261636c65206f6620746865604482015267081c995c5d595cdd60c21b6064820152608401610699565b600081815260056020526040808220805473ffffffffffffffffffffffffffffffffffffffff191690555182917f7cc135e0cebb02c3480ae5d74d377283180a2601f8f644edf7987b009316c63a91a26007546001600160a01b03163314610e6e5760405162461bcd60e51b815260206004820181905260248201527f4f6e6c7920436861696e6c696e6b436c69656e742063616e2066756c66696c6c6044820152606401610699565b610bea8383611e1f565b6006546001600160a01b03163314610ed25760405162461bcd60e51b815260206004820152601c60248201527f4f6e6c79206f776e65722063616e207769746864726177204c494e4b000000006044820152606401610699565b6000610ee66002546001600160a01b031690565b6040517f70a082310000000000000000000000000000000000000000000000000000000081523060048201529091506001600160a01b0382169063a9059cbb90339083906370a0823190602401602060405180830381865afa158015610f50573d6000803e3d6000fd5b505050506040513d601f19601f82011682018060405250810190610f749190613779565b6040516001600160e01b031960e085901b1681526001600160a01b03909216600483015260248201526044016020604051808303816000875af1158015610fbf573d6000803e3d6000fd5b505050506040513d601f19601f82011682018060405250810190610fe39190613792565b6106b65760405162461bcd60e51b815260206004820152601260248201527f556e61626c6520746f207472616e7366657200000000000000000000000000006044820152606401610699565b6008805461103c90613650565b80601f016020809104026020016040519081016040528092919081815260200182805461106890613650565b80156110b55780601f1061108a576101008083540402835291602001916110b5565b820191906000526020600020905b81548152906001019060200180831161109857829003601f168201915b505050505081565b6016602052600090815260409020805461103c90613650565b825160208185018101805160108252928201828701209290525260008281526040902080548290811061110857600080fd5b6000918252602090912001546001600160a01b0316925083915050565b60008061113c60095430638a71bfa860e01b6116d5565b90506111716040518060400160405280600381526020016219d95d60ea1b815250600885604051602001610791929190613685565b61080f604051806040016040528060048152602001630e0c2e8d60e31b8152506040518060400160405280600881526020017f302c726573756c74000000000000000000000000000000000000000000000000815250836117669092919063ffffffff16565b60008281526005602052604090205482906001600160a01b031633146112505760405162461bcd60e51b815260206004820152602860248201527f536f75726365206d75737420626520746865206f7261636c65206f6620746865604482015267081c995c5d595cdd60c21b6064820152608401610699565b600081815260056020526040808220805473ffffffffffffffffffffffffffffffffffffffff191690555182917f7cc135e0cebb02c3480ae5d74d377283180a2601f8f644edf7987b009316c63a91a26007546001600160a01b031633146112fa5760405162461bcd60e51b815260206004820181905260248201527f4f6e6c7920436861696e6c696e6b436c69656e742063616e2066756c66696c6c6044820152606401610699565b610bea8383611f43565b60006014826040516113169190613634565b9081526040519081900360200190205460ff16600581111561133a5761133a61341d565b141561073c5760405162461bcd60e51b815260206004820152601c60248201527f42657420737461746520697320616c726561647920434c4f5345442e000000006044820152606401610699565b6017602052600090815260409020805461103c90613650565b600b805461103c90613650565b806014836040516113bf9190613634565b908152604051908190036020019020805460ff191660018360058111156113e8576113e861341d565b02179055507fe10ba6722d7a7a91bf343a0f8e5b026910dbc4a2ebca276930dff31703c59a70828260405161141e9291906137b4565b60405180910390a1600081600581111561143a5761143a61341d565b14156114495761144982612029565b5050565b600061145882610745565b6000818152601660209081526040909120845192935061147c9290918501906131da565b50807f45d732f7bcf8bc3eb58d8fd2fe72f5d05aa36dadc20e6c9989abd2a741d81cac83604051610af691906135b2565b60006015826040516114bf9190613634565b908152602001604051809103902054905080600014156114e4576114498260006113ae565b60016014836040516114f69190613634565b9081526040519081900360200190205460ff16600581111561151a5761151a61341d565b1480156115475750600f5461152f90826137d6565b4211806115475750600e5461154490826137d6565b42105b15611557576114498260006113ae565b60026014836040516115699190613634565b9081526040519081900360200190205460ff16600581111561158d5761158d61341d565b14806115cc575060036014836040516115a69190613634565b9081526040519081900360200190205460ff1660058111156115ca576115ca61341d565b145b80156115e35750600e546115e090826137d6565b42105b156115f3576114498260006113ae565b60016014836040516116059190613634565b9081526040519081900360200190205460ff1660058111156116295761162961341d565b1480156116425750600f5461163e90826137d6565b4211155b801561165a5750600e5461165690826137d6565b4210155b1561166a576114498260026113ae565b600260148360405161167c9190613634565b9081526040519081900360200190205460ff1660058111156116a0576116a061341d565b1480156116b85750600f546116b590826137d6565b42115b80156116c55750600f5415155b15611449576114498260036113ae565b6117136040805160a0810182526000808252602080830182905282840182905260608084018390528451808601909552845283015290608082015290565b6117516040805160a0810182526000808252602080830182905282840182905260608084018390528451808601909552845283015290608082015290565b61175d81868686612079565b95945050505050565b608083015161177590836120f5565b6080830151610bea90826120f5565b608083015161179390836120f5565b6080830151610bea908261210c565b6003546000906117bc906001600160a01b0316848461216c565b90505b92915050565b60006012856040516117d79190613634565b908152602001604051809103902060008560028111156117f9576117f961341d565b600281111561180a5761180a61341d565b81526020019081526020016000206000836001600160a01b03166001600160a01b031681526020019081526020016000205490506000811161188e5760405162461bcd60e51b815260206004820181905260248201527f4e6f207374616b65206f6e207468697320616464726573732d726573756c742e6044820152606401610699565b808311156118de5760405162461bcd60e51b815260206004820152601660248201527f43757272656e74207374616b6520746f6f206c6f772e000000000000000000006044820152606401610699565b6118e883826137d6565b6012866040516118f89190613634565b9081526020016040518091039020600086600281111561191a5761191a61341d565b600281111561192b5761192b61341d565b81526020019081526020016000206000846001600160a01b03166001600160a01b031681526020019081526020016000208190555060006012866040516119729190613634565b908152602001604051809103902060008660028111156119945761199461341d565b60028111156119a5576119a561341d565b81526020019081526020016000206000846001600160a01b03166001600160a01b031681526020019081526020016000205411611a575760006011866040516119ee9190613634565b90815260200160405180910390206000866002811115611a1057611a1061341d565b6002811115611a2157611a2161341d565b8152602080820192909252604090810160009081206001600160a01b03871682529092529020805460ff19169115159190911790555b6040516001600160a01b0383169084156108fc029085906000818181858888f19350505050158015611a8d573d6000803e3d6000fd5b50816001600160a01b03167f0f3b118062ef97715cdb7fc34e6b3bc6bf1c6ddbbbbc4e8d6f13eff984080d08868587604051611acb93929190613751565b60405180910390a25050505050565b6000611ae582611125565b60008181526017602090815260409091208451929350611b099290918501906131da565b50807f203eeb39bf08702855bb5830b3ec49ea10fb51bde91904739f7c0c3ab41776d583604051610af691906135b2565b60008060005b601085604051611b509190613634565b90815260200160405180910390206000856002811115611b7257611b7261341d565b6002811115611b8357611b8361341d565b8152602081019190915260400160002054811015611d15576000601086604051611bad9190613634565b90815260200160405180910390206000866002811115611bcf57611bcf61341d565b6002811115611be057611be061341d565b81526020019081526020016000208281548110611bff57611bff6137ed565b6000918252602090912001546040516001600160a01b039091169150601190611c29908890613634565b90815260200160405180910390206000866002811115611c4b57611c4b61341d565b6002811115611c5c57611c5c61341d565b8152602080820192909252604090810160009081206001600160a01b038516825290925290205460ff1615611d0257601286604051611c9b9190613634565b90815260200160405180910390206000866002811115611cbd57611cbd61341d565b6002811115611cce57611cce61341d565b8152602080820192909252604090810160009081206001600160a01b0385168252909252902054611cff9084613739565b92505b5080611d0d81613803565b915050611b40565b509392505050565b611d4160405180606001604052806000815260200160008152602001600081525090565b6040518060600160405280601285604051611d5c9190613634565b908152604080516020928190038301902060008080529083528181206001600160a01b0388168252835281902054835251910190601290611d9e908790613634565b9081526040805160209281900383019020600160009081529083528181206001600160a01b0388168252835281902054835251910190601290611de2908790613634565b9081526040805160209281900383019020600260009081529083528181206001600160a01b03979097168152959091529093205490925250919050565b60008281526017602052604081208054611e3890613650565b80601f0160208091040260200160405190810160405280929190818152602001828054611e6490613650565b8015611eb15780601f10611e8657610100808354040283529160200191611eb1565b820191906000526020600020905b815481529060010190602001808311611e9457829003601f168201915b50505050509050827f991c3e65c24cac8eb9898540ce857bbd06f702f19ac9ee6562bd97b96b0d898c8284604051611eea92919061381e565b60405180910390a26004601482604051611f049190613634565b9081526040519081900360200190205460ff166005811115611f2857611f2861341d565b1415610bea57611f38818361222d565b610bea8160056113ae565b60008281526016602052604081208054611f5c90613650565b80601f0160208091040260200160405190810160405280929190818152602001828054611f8890613650565b8015611fd55780601f10611faa57610100808354040283529160200191611fd5565b820191906000526020600020905b815481529060010190602001808311611fb857829003601f168201915b50505050509050827f0a19aa077773e15e05c85beefc64244b7b27068fccb13becb7bf450ff41fa89c828460405161200e92919061381e565b60405180910390a261202081836122cd565b610bea816114ad565b60005b60038110156114495761206782600c836003811061204c5761204c6137ed565b602081049091015460ff601f9092166101000a900416612352565b8061207181613803565b91505061202c565b6120b76040805160a0810182526000808252602080830182905282840182905260608084018390528451808601909552845283015290608082015290565b6120c7856080015161010061253a565b50508284526001600160a01b03821660208501526001600160e01b031981166040850152835b949350505050565b612102826003835161259f565b610bea82826126b4565b67ffffffffffffffff198112156121275761144982826126db565b67ffffffffffffffff81131561214157611449828261271d565b60008112612155576114498260008361259f565b61144982600161216784600019613840565b61259f565b60045460009061217d816001613739565b600455835160408086015160808701515191516000937f4042994600000000000000000000000000000000000000000000000000000000936121ce9386938493923092918a916001916024016138b4565b60408051601f198184030181529190526020810180517bffffffffffffffffffffffffffffffffffffffffffffffffffffffff166001600160e01b031990931692909217909152905061222386838684612740565b9695505050505050565b600061223983836128de565b905060608181600081518110612251576122516137ed565b6020026020010190600281111561226a5761226a61341d565b9081600281111561227d5761227d61341d565b905250600061228b83612991565b905060006122998684612aa7565b905060006122a78784612aa7565b905060006122b58284613739565b90506122c388878584612af7565b5050505050505050565b6015826040516122dd9190613634565b908152602001604051809103902054811461144957806015836040516123039190613634565b9081526020016040518091039020819055507f20af5e7c127dd84267ef67d2a1fa455b47bc60840459b4db987929e37daf07a3828260405161234692919061381e565b60405180910390a15050565b60005b6010836040516123659190613634565b908152602001604051809103902060008360028111156123875761238761341d565b60028111156123985761239861341d565b8152602081019190915260400160002054811015610bea5760006010846040516123c29190613634565b908152602001604051809103902060008460028111156123e4576123e461341d565b60028111156123f5576123f561341d565b81526020019081526020016000208281548110612414576124146137ed565b6000918252602090912001546040516001600160a01b03909116915060119061243e908690613634565b908152602001604051809103902060008460028111156124605761246061341d565b60028111156124715761247161341d565b8152602080820192909252604090810160009081206001600160a01b038516825290925290205460ff16156125275760006012856040516124b29190613634565b908152602001604051809103902060008560028111156124d4576124d461341d565b60028111156124e5576124e561341d565b81526020019081526020016000206000836001600160a01b03166001600160a01b03168152602001908152602001600020549050612525858583856117c5565b505b508061253281613803565b915050612355565b60408051808201909152606081526000602082015261255a60208361392e565b156125825761256a60208361392e565b6125759060206137d6565b61257f9083613739565b91505b506020828101829052604080518085526000815290920101905290565b60178167ffffffffffffffff16116125ca576125c48360e0600585901b168317612f28565b50505050565b60ff8167ffffffffffffffff1611612608576125f1836018611fe0600586901b1617612f28565b506125c48367ffffffffffffffff83166001612f4d565b61ffff8167ffffffffffffffff161161264757612630836019611fe0600586901b1617612f28565b506125c48367ffffffffffffffff83166002612f4d565b63ffffffff8167ffffffffffffffff16116126885761267183601a611fe0600586901b1617612f28565b506125c48367ffffffffffffffff83166004612f4d565b61269d83601b611fe0600586901b1617612f28565b506125c48367ffffffffffffffff83166008612f4d565b6040805180820190915260608152600060208201526117bc83846000015151848551612f73565b6126e68260c3612f28565b50611449826126f783600019613840565b60405160200161270991815260200190565b60405160208183030381529060405261305d565b6127288260c2612f28565b50611449828260405160200161270991815260200190565b6040516bffffffffffffffffffffffff193060601b1660208201526034810184905260009060540160408051808303601f19018152828252805160209182012060008181526005909252918120805473ffffffffffffffffffffffffffffffffffffffff19166001600160a01b038a1617905590925082917fb5e6e01e79f91267dc17b4e6314d5d4d03593d2ceee0fbb452b750bd70ea5af99190a26002546040517f4000aea00000000000000000000000000000000000000000000000000000000081526001600160a01b0390911690634000aea09061282990889087908790600401613942565b6020604051808303816000875af1158015612848573d6000803e3d6000fd5b505050506040513d601f19601f8201168201806040525081019061286c9190613792565b6120ed5760405162461bcd60e51b815260206004820152602360248201527f756e61626c6520746f207472616e73666572416e6443616c6c20746f206f726160448201527f636c6500000000000000000000000000000000000000000000000000000000006064820152608401610699565b6000816128ed575060006117bf565b60018214156128fe575060016117bf565b600282141561290f575060026117bf565b61291a8360036113ae565b60008360405160200161292d919061396a565b60405160208183030381529060405290507f2a2c16a3ce1dea0db612b14a8fdc9a8d316acc87914b4d66440d119b41e8615f848260405161296f9291906139fc565b60405180910390a18060405162461bcd60e51b815260040161069991906135b2565b604080516002808252606080830184529260009291906020830190803683370190505090506000805b6003811015612a9e578460028111156129d5576129d561341d565b600c82600381106129e8576129e86137ed565b602081049091015460ff601f9092166101000a9004166002811115612a0f57612a0f61341d565b14612a8c57600c8160038110612a2757612a276137ed565b602091828204019190069054906101000a900460ff16838381518110612a4f57612a4f6137ed565b60200260200101906002811115612a6857612a6861341d565b90816002811115612a7b57612a7b61341d565b905250612a89600183613739565b91505b80612a9681613803565b9150506129ba565b50909392505050565b60008060005b8351811015611d1557612ad985858381518110612acc57612acc6137ed565b6020026020010151611b3a565b612ae39083613739565b915080612aef81613803565b915050612aad565b6004601485604051612b099190613634565b9081526040519081900360200190205460ff166005811115612b2d57612b2d61341d565b14612b9f5760405162461bcd60e51b8152602060048201526024808201527f4669787475726520626574207374617465206973206e6f742046554c46494c4c60448201527f494e472e000000000000000000000000000000000000000000000000000000006064820152608401610699565b60005b601085604051612bb29190613634565b90815260200160405180910390206000856002811115612bd457612bd461341d565b6002811115612be557612be561341d565b8152602081019190915260400160002054811015612f21576000601086604051612c0f9190613634565b90815260200160405180910390206000866002811115612c3157612c3161341d565b6002811115612c4257612c4261341d565b81526020019081526020016000208281548110612c6157612c616137ed565b6000918252602090912001546040516001600160a01b039091169150601190612c8b908890613634565b90815260200160405180910390206000866002811115612cad57612cad61341d565b6002811115612cbe57612cbe61341d565b8152602080820192909252604090810160009081206001600160a01b038516825290925290205460ff1615612f0e576000601287604051612cff9190613634565b90815260200160405180910390206000876002811115612d2157612d2161341d565b6002811115612d3257612d3261341d565b8152602080820192909252604090810160009081206001600160a01b03861682529092528120549150612d658686613a21565b612d6f9083613a35565b905080601389604051612d829190613634565b9081526040805191829003602090810183206001600160a01b0388166000908152915290812092909255601290612dba908b90613634565b90815260200160405180910390206000896002811115612ddc57612ddc61341d565b6002811115612ded57612ded61341d565b81526020019081526020016000206000856001600160a01b03166001600160a01b03168152602001908152602001600020819055506000601189604051612e349190613634565b90815260200160405180910390206000896002811115612e5657612e5661341d565b6002811115612e6757612e6761341d565b8152602080820192909252604090810160009081206001600160a01b0388168083529352818120805460ff1916941515949094179093555190916108fc841502918491818181858888f19350505050158015612ec7573d6000803e3d6000fd5b50826001600160a01b03167fc0acd5bc47ab9bd28274b4de553779f718ae53f42f84fe011e7eed61cda99cbd8983604051612f0392919061381e565b60405180910390a250505b5080612f1981613803565b915050612ba2565b5050505050565b6040805180820190915260608152600060208201526117bc838460000151518461306a565b6040805180820190915260608152600060208201526120ed8485600001515185856130c6565b6040805180820190915260608152600060208201528251821115612f9657600080fd5b6020850151612fa58386613739565b1115612fd857612fd885612fc887602001518786612fc39190613739565b613147565b612fd3906002613a35565b61315e565b600080865180518760208301019350808887011115612ff75787860182525b505050602084015b602084106130375780518252613016602083613739565b9150613023602082613739565b90506130306020856137d6565b9350612fff565b51815160001960208690036101000a019081169019919091161790525083949350505050565b612102826002835161259f565b6040805180820190915260608152600060208201528360200151831061309f5761309f8485602001516002612fd39190613a35565b8351805160208583010184815350808514156130bc576001810182525b5093949350505050565b60408051808201909152606081526000602082015260208501516130ea8584613739565b11156130fe576130fe85612fc88685613739565b6000600161310e84610100613b38565b61311891906137d6565b905085518386820101858319825116178152508051848701111561313c5783860181525b509495945050505050565b6000818311156131585750816117bf565b50919050565b815161316a838361253a565b506125c483826126b4565b604080516060810190915280600081526020016131ac60405180606001604052806000815260200160008152602001600081525090565b81526020016131d560405180606001604052806000815260200160008152602001600081525090565b905290565b8280546131e690613650565b90600052602060002090601f016020900481019282613208576000855561324e565b82601f1061322157805160ff191683800117855561324e565b8280016001018555821561324e579182015b8281111561324e578251825591602001919060010190613233565b5061325a92915061325e565b5090565b5b8082111561325a576000815560010161325f565b634e487b7160e01b600052604160045260246000fd5b600082601f83011261329a57600080fd5b813567ffffffffffffffff808211156132b5576132b5613273565b604051601f8301601f19908116603f011681019082821181831017156132dd576132dd613273565b816040528381528660208588010111156132f657600080fd5b836020870160208301376000602085830101528094505050505092915050565b60006020828403121561332857600080fd5b813567ffffffffffffffff81111561333f57600080fd5b6120ed84828501613289565b80356003811061335a57600080fd5b919050565b6000806040838503121561337257600080fd5b823567ffffffffffffffff81111561338957600080fd5b61339585828601613289565b9250506133a46020840161334b565b90509250929050565b6000806000606084860312156133c257600080fd5b833567ffffffffffffffff8111156133d957600080fd5b6133e586828701613289565b9350506133f46020850161334b565b9150604084013590509250925092565b60006020828403121561341657600080fd5b5035919050565b634e487b7160e01b600052602160045260246000fd5b600381106134435761344361341d565b9052565b602081016117bf8284613433565b600681106134435761344361341d565b600060e082019050613478828451613455565b602083015161349e60208401828051825260208082015190830152604090810151910152565b5060409283015180516080840152602081015160a08401529092015160c09091015290565b600080604083850312156134d657600080fd5b50508035926020909101359150565b80356001600160a01b038116811461335a57600080fd5b60008060006060848603121561351157600080fd5b833567ffffffffffffffff81111561352857600080fd5b61353486828701613289565b9350506135436020850161334b565b9150613551604085016134e5565b90509250925092565b60005b8381101561357557818101518382015260200161355d565b838111156125c45750506000910152565b6000815180845261359e81602086016020860161355a565b601f01601f19169290920160200192915050565b6020815260006117bc6020830184613586565b600080604083850312156135d857600080fd5b823567ffffffffffffffff8111156135ef57600080fd5b6135fb85828601613289565b9250506133a4602084016134e5565b602081016117bf8284613455565b6000815161362a81856020860161355a565b9290920192915050565b6000825161364681846020870161355a565b9190910192915050565b600181811c9082168061366457607f821691505b6020821081141561315857634e487b7160e01b600052602260045260246000fd5b600080845481600182811c9150808316806136a157607f831692505b60208084108214156136c157634e487b7160e01b86526022600452602486fd5b8180156136d557600181146136e657613713565b60ff19861689528489019650613713565b60008b81526020902060005b8681101561370b5781548b8201529085019083016136f2565b505084890196505b50505050505061175d8185613618565b634e487b7160e01b600052601160045260246000fd5b6000821982111561374c5761374c613723565b500190565b6060815260006137646060830186613586565b90508360208301526120ed6040830184613433565b60006020828403121561378b57600080fd5b5051919050565b6000602082840312156137a457600080fd5b8151801515811461085c57600080fd5b6040815260006137c76040830185613586565b905061085c6020830184613455565b6000828210156137e8576137e8613723565b500390565b634e487b7160e01b600052603260045260246000fd5b600060001982141561381757613817613723565b5060010190565b6040815260006138316040830185613586565b90508260208301529392505050565b6000808312837f80000000000000000000000000000000000000000000000000000000000000000183128115161561387a5761387a613723565b837f7fffffffffffffffffffffffffffffffffffffffffffffffffffffffffffffff0183138116156138ae576138ae613723565b50500390565b60006101006001600160a01b03808c1684528a60208501528960408501528089166060850152506001600160e01b0319871660808401528560a08401528460c08401528060e084015261390981840185613586565b9b9a5050505050505050505050565b634e487b7160e01b600052601260045260246000fd5b60008261393d5761393d613918565b500690565b6001600160a01b038416815282602082015260606040820152600061175d6060830184613586565b7f4572726f72206f6e2066697874757265200000000000000000000000000000008152600082516139a281601185016020870161355a565b7f3a20556e6b6e6f776e206669787475726520726573756c742066726f6d20415060119390910192830152507f49000000000000000000000000000000000000000000000000000000000000006031820152603201919050565b604081526000613a0f6040830185613586565b828103602084015261175d8185613586565b600082613a3057613a30613918565b500490565b6000816000190483118215151615613a4f57613a4f613723565b500290565b600181815b80851115613a8f578160001904821115613a7557613a75613723565b80851615613a8257918102915b93841c9390800290613a59565b509250929050565b600082613aa6575060016117bf565b81613ab3575060006117bf565b8160018114613ac95760028114613ad357613aef565b60019150506117bf565b60ff841115613ae457613ae4613723565b50506001821b6117bf565b5060208310610133831016604e8410600b8410161715613b12575081810a6117bf565b613b1c8383613a54565b8060001904821115613b3057613b30613723565b029392505050565b60006117bc8383613a9756fea26469706673582212208d13a3787a141681cb8aa40e1dfac2b39a4521ab7bc855edbd8c5167a322ec2a64736f6c634300080c0033",
  "devdoc": {
    "kind": "dev",
    "methods": {},
    "version": 1
  },
  "userdoc": {
    "kind": "user",
    "methods": {
      "requestFixtureKickoffTimeParameter(string)": {
        "notice": "Request fixture kickoff time from the oracle in a single transaction"
      },
      "requestFixtureResultParameter(string)": {
        "notice": "Request fixture result from the oracle in a single transaction"
      },
      "withdrawLink()": {
        "notice": "Allow withdraw of Link tokens from the contract"
      }
    },
    "version": 1
  },
  "storageLayout": {
    "storage": [
      {
        "astId": 319,
        "contract": "contracts/SportsBetting.sol:SportsBetting",
        "label": "s_ens",
        "offset": 0,
        "slot": "0",
        "type": "t_contract(ENSInterface)974"
      },
      {
        "astId": 321,
        "contract": "contracts/SportsBetting.sol:SportsBetting",
        "label": "s_ensNode",
        "offset": 0,
        "slot": "1",
        "type": "t_bytes32"
      },
      {
        "astId": 324,
        "contract": "contracts/SportsBetting.sol:SportsBetting",
        "label": "s_link",
        "offset": 0,
        "slot": "2",
        "type": "t_contract(LinkTokenInterface)1069"
      },
      {
        "astId": 327,
        "contract": "contracts/SportsBetting.sol:SportsBetting",
        "label": "s_oracle",
        "offset": 0,
        "slot": "3",
        "type": "t_contract(OperatorInterface)1149"
      },
      {
        "astId": 330,
        "contract": "contracts/SportsBetting.sol:SportsBetting",
        "label": "s_requestCount",
        "offset": 0,
        "slot": "4",
        "type": "t_uint256"
      },
      {
        "astId": 334,
        "contract": "contracts/SportsBetting.sol:SportsBetting",
        "label": "s_pendingRequests",
        "offset": 0,
        "slot": "5",
        "type": "t_mapping(t_bytes32,t_address)"
      },
      {
        "astId": 3730,
        "contract": "contracts/SportsBetting.sol:SportsBetting",
        "label": "owner",
        "offset": 0,
        "slot": "6",
        "type": "t_address_payable"
      },
      {
        "astId": 3732,
        "contract": "contracts/SportsBetting.sol:SportsBetting",
        "label": "chainlink",
        "offset": 0,
        "slot": "7",
        "type": "t_address"
      },
      {
        "astId": 3734,
        "contract": "contracts/SportsBetting.sol:SportsBetting",
        "label": "sportsOracleURI",
        "offset": 0,
        "slot": "8",
        "type": "t_string_storage"
      },
      {
        "astId": 3736,
        "contract": "contracts/SportsBetting.sol:SportsBetting",
        "label": "jobId",
        "offset": 0,
        "slot": "9",
        "type": "t_bytes32"
      },
      {
        "astId": 3738,
        "contract": "contracts/SportsBetting.sol:SportsBetting",
        "label": "fee",
        "offset": 0,
        "slot": "10",
        "type": "t_uint256"
      },
      {
        "astId": 3740,
        "contract": "contracts/SportsBetting.sol:SportsBetting",
        "label": "fixtureResult",
        "offset": 0,
        "slot": "11",
        "type": "t_string_storage"
      },
      {
        "astId": 2399,
        "contract": "contracts/SportsBetting.sol:SportsBetting",
        "label": "betTypes",
        "offset": 0,
        "slot": "12",
        "type": "t_array(t_enum(BetType)2321)3_storage"
      },
      {
        "astId": 2404,
        "contract": "contracts/SportsBetting.sol:SportsBetting",
        "label": "entranceFee",
        "offset": 0,
        "slot": "13",
        "type": "t_uint256"
      },
      {
        "astId": 2413,
        "contract": "contracts/SportsBetting.sol:SportsBetting",
        "label": "betAdvanceTime",
        "offset": 0,
        "slot": "14",
        "type": "t_uint256"
      },
      {
        "astId": 2418,
        "contract": "contracts/SportsBetting.sol:SportsBetting",
        "label": "betCutOffTime",
        "offset": 0,
        "slot": "15",
        "type": "t_uint256"
      },
      {
        "astId": 2426,
        "contract": "contracts/SportsBetting.sol:SportsBetting",
        "label": "historicalBetters",
        "offset": 0,
        "slot": "16",
        "type": "t_mapping(t_string_memory_ptr,t_mapping(t_enum(BetType)2321,t_array(t_address)dyn_storage))"
      },
      {
        "astId": 2435,
        "contract": "contracts/SportsBetting.sol:SportsBetting",
        "label": "activeBetters",
        "offset": 0,
        "slot": "17",
        "type": "t_mapping(t_string_memory_ptr,t_mapping(t_enum(BetType)2321,t_mapping(t_address,t_bool)))"
      },
      {
        "astId": 2444,
        "contract": "contracts/SportsBetting.sol:SportsBetting",
        "label": "amounts",
        "offset": 0,
        "slot": "18",
        "type": "t_mapping(t_string_memory_ptr,t_mapping(t_enum(BetType)2321,t_mapping(t_address,t_uint256)))"
      },
      {
        "astId": 2450,
        "contract": "contracts/SportsBetting.sol:SportsBetting",
        "label": "obligations",
        "offset": 0,
        "slot": "19",
        "type": "t_mapping(t_string_memory_ptr,t_mapping(t_address,t_uint256))"
      },
      {
        "astId": 2455,
        "contract": "contracts/SportsBetting.sol:SportsBetting",
        "label": "bettingState",
        "offset": 0,
        "slot": "20",
        "type": "t_mapping(t_string_memory_ptr,t_enum(BettingState)2328)"
      },
      {
        "astId": 2459,
        "contract": "contracts/SportsBetting.sol:SportsBetting",
        "label": "fixtureToKickoffTime",
        "offset": 0,
        "slot": "21",
        "type": "t_mapping(t_string_memory_ptr,t_uint256)"
      },
      {
        "astId": 2463,
        "contract": "contracts/SportsBetting.sol:SportsBetting",
        "label": "requestKickoffToFixture",
        "offset": 0,
        "slot": "22",
        "type": "t_mapping(t_bytes32,t_string_storage)"
      },
      {
        "astId": 2467,
        "contract": "contracts/SportsBetting.sol:SportsBetting",
        "label": "requestResultToFixture",
        "offset": 0,
        "slot": "23",
        "type": "t_mapping(t_bytes32,t_string_storage)"
      }
    ],
    "types": {
      "t_address": {
        "encoding": "inplace",
        "label": "address",
        "numberOfBytes": "20"
      },
      "t_address_payable": {
        "encoding": "inplace",
        "label": "address payable",
        "numberOfBytes": "20"
      },
      "t_array(t_address)dyn_storage": {
        "base": "t_address",
        "encoding": "dynamic_array",
        "label": "address[]",
        "numberOfBytes": "32"
      },
      "t_array(t_enum(BetType)2321)3_storage": {
        "base": "t_enum(BetType)2321",
        "encoding": "inplace",
        "label": "enum SportsBetting.BetType[3]",
        "numberOfBytes": "32"
      },
      "t_bool": {
        "encoding": "inplace",
        "label": "bool",
        "numberOfBytes": "1"
      },
      "t_bytes32": {
        "encoding": "inplace",
        "label": "bytes32",
        "numberOfBytes": "32"
      },
      "t_contract(ENSInterface)974": {
        "encoding": "inplace",
        "label": "contract ENSInterface",
        "numberOfBytes": "20"
      },
      "t_contract(LinkTokenInterface)1069": {
        "encoding": "inplace",
        "label": "contract LinkTokenInterface",
        "numberOfBytes": "20"
      },
      "t_contract(OperatorInterface)1149": {
        "encoding": "inplace",
        "label": "contract OperatorInterface",
        "numberOfBytes": "20"
      },
      "t_enum(BetType)2321": {
        "encoding": "inplace",
        "label": "enum SportsBetting.BetType",
        "numberOfBytes": "1"
      },
      "t_enum(BettingState)2328": {
        "encoding": "inplace",
        "label": "enum SportsBetting.BettingState",
        "numberOfBytes": "1"
      },
      "t_mapping(t_address,t_bool)": {
        "encoding": "mapping",
        "key": "t_address",
        "label": "mapping(address => bool)",
        "numberOfBytes": "32",
        "value": "t_bool"
      },
      "t_mapping(t_address,t_uint256)": {
        "encoding": "mapping",
        "key": "t_address",
        "label": "mapping(address => uint256)",
        "numberOfBytes": "32",
        "value": "t_uint256"
      },
      "t_mapping(t_bytes32,t_address)": {
        "encoding": "mapping",
        "key": "t_bytes32",
        "label": "mapping(bytes32 => address)",
        "numberOfBytes": "32",
        "value": "t_address"
      },
      "t_mapping(t_bytes32,t_string_storage)": {
        "encoding": "mapping",
        "key": "t_bytes32",
        "label": "mapping(bytes32 => string)",
        "numberOfBytes": "32",
        "value": "t_string_storage"
      },
      "t_mapping(t_enum(BetType)2321,t_array(t_address)dyn_storage)": {
        "encoding": "mapping",
        "key": "t_enum(BetType)2321",
        "label": "mapping(enum SportsBetting.BetType => address[])",
        "numberOfBytes": "32",
        "value": "t_array(t_address)dyn_storage"
      },
      "t_mapping(t_enum(BetType)2321,t_mapping(t_address,t_bool))": {
        "encoding": "mapping",
        "key": "t_enum(BetType)2321",
        "label": "mapping(enum SportsBetting.BetType => mapping(address => bool))",
        "numberOfBytes": "32",
        "value": "t_mapping(t_address,t_bool)"
      },
      "t_mapping(t_enum(BetType)2321,t_mapping(t_address,t_uint256))": {
        "encoding": "mapping",
        "key": "t_enum(BetType)2321",
        "label": "mapping(enum SportsBetting.BetType => mapping(address => uint256))",
        "numberOfBytes": "32",
        "value": "t_mapping(t_address,t_uint256)"
      },
      "t_mapping(t_string_memory_ptr,t_enum(BettingState)2328)": {
        "encoding": "mapping",
        "key": "t_string_memory_ptr",
        "label": "mapping(string => enum SportsBetting.BettingState)",
        "numberOfBytes": "32",
        "value": "t_enum(BettingState)2328"
      },
      "t_mapping(t_string_memory_ptr,t_mapping(t_address,t_uint256))": {
        "encoding": "mapping",
        "key": "t_string_memory_ptr",
        "label": "mapping(string => mapping(address => uint256))",
        "numberOfBytes": "32",
        "value": "t_mapping(t_address,t_uint256)"
      },
      "t_mapping(t_string_memory_ptr,t_mapping(t_enum(BetType)2321,t_array(t_address)dyn_storage))": {
        "encoding": "mapping",
        "key": "t_string_memory_ptr",
        "label": "mapping(string => mapping(enum SportsBetting.BetType => address[]))",
        "numberOfBytes": "32",
        "value": "t_mapping(t_enum(BetType)2321,t_array(t_address)dyn_storage)"
      },
      "t_mapping(t_string_memory_ptr,t_mapping(t_enum(BetType)2321,t_mapping(t_address,t_bool)))": {
        "encoding": "mapping",
        "key": "t_string_memory_ptr",
        "label": "mapping(string => mapping(enum SportsBetting.BetType => mapping(address => bool)))",
        "numberOfBytes": "32",
        "value": "t_mapping(t_enum(BetType)2321,t_mapping(t_address,t_bool))"
      },
      "t_mapping(t_string_memory_ptr,t_mapping(t_enum(BetType)2321,t_mapping(t_address,t_uint256)))": {
        "encoding": "mapping",
        "key": "t_string_memory_ptr",
        "label": "mapping(string => mapping(enum SportsBetting.BetType => mapping(address => uint256)))",
        "numberOfBytes": "32",
        "value": "t_mapping(t_enum(BetType)2321,t_mapping(t_address,t_uint256))"
      },
      "t_mapping(t_string_memory_ptr,t_uint256)": {
        "encoding": "mapping",
        "key": "t_string_memory_ptr",
        "label": "mapping(string => uint256)",
        "numberOfBytes": "32",
        "value": "t_uint256"
      },
      "t_string_memory_ptr": {
        "encoding": "bytes",
        "label": "string",
        "numberOfBytes": "32"
      },
      "t_string_storage": {
        "encoding": "bytes",
        "label": "string",
        "numberOfBytes": "32"
      },
      "t_uint256": {
        "encoding": "inplace",
        "label": "uint256",
        "numberOfBytes": "32"
      }
    }
  }
}