{
  "address": "0xe06c0515CbB439d86fC7244F6a53368957119c33",
  "abi": [
    {
      "inputs": [
        {
          "internalType": "string",
          "name": "_sportsOracleURI",
          "type": "string"
        },
        {
          "internalType": "address",
          "name": "_oracle",
          "type": "address"
        },
        {
          "internalType": "address",
          "name": "_link",
          "type": "address"
        },
        {
          "internalType": "bytes32",
          "name": "_jobId",
          "type": "bytes32"
        },
        {
          "internalType": "uint256",
          "name": "_fee",
          "type": "uint256"
        }
      ],
      "stateMutability": "nonpayable",
      "type": "constructor"
    },
    {
      "anonymous": false,
      "inputs": [
        {
          "indexed": true,
          "internalType": "address",
          "name": "better",
          "type": "address"
        },
        {
          "indexed": false,
          "internalType": "string",
          "name": "fixtureID",
          "type": "string"
        },
        {
          "indexed": false,
          "internalType": "uint256",
          "name": "amount",
          "type": "uint256"
        }
      ],
      "name": "BetPayout",
      "type": "event"
    },
    {
      "anonymous": false,
      "inputs": [
        {
          "indexed": false,
          "internalType": "string",
          "name": "fixtureID",
          "type": "string"
        },
        {
          "indexed": false,
          "internalType": "string",
          "name": "reason",
          "type": "string"
        }
      ],
      "name": "BetPayoutFulfillmentError",
      "type": "event"
    },
    {
      "anonymous": false,
      "inputs": [
        {
          "indexed": true,
          "internalType": "address",
          "name": "better",
          "type": "address"
        },
        {
          "indexed": false,
          "internalType": "string",
          "name": "fixtureID",
          "type": "string"
        },
        {
          "indexed": false,
          "internalType": "uint256",
          "name": "amount",
          "type": "uint256"
        },
        {
          "indexed": false,
          "internalType": "enum SportsBetting.BetType",
          "name": "betType",
          "type": "uint8"
        }
      ],
      "name": "BetStaked",
      "type": "event"
    },
    {
      "anonymous": false,
      "inputs": [
        {
          "indexed": true,
          "internalType": "address",
          "name": "better",
          "type": "address"
        },
        {
          "indexed": false,
          "internalType": "string",
          "name": "fixtureID",
          "type": "string"
        },
        {
          "indexed": false,
          "internalType": "uint256",
          "name": "amount",
          "type": "uint256"
        },
        {
          "indexed": false,
          "internalType": "enum SportsBetting.BetType",
          "name": "betType",
          "type": "uint8"
        }
      ],
      "name": "BetUnstaked",
      "type": "event"
    },
    {
      "anonymous": false,
      "inputs": [
        {
          "indexed": false,
          "internalType": "string",
          "name": "fixtureID",
          "type": "string"
        },
        {
          "indexed": false,
          "internalType": "enum SportsBetting.BettingState",
          "name": "state",
          "type": "uint8"
        }
      ],
      "name": "BettingStateChanged",
      "type": "event"
    },
    {
      "anonymous": false,
      "inputs": [
        {
          "indexed": true,
          "internalType": "bytes32",
          "name": "id",
          "type": "bytes32"
        }
      ],
      "name": "ChainlinkCancelled",
      "type": "event"
    },
    {
      "anonymous": false,
      "inputs": [
        {
          "indexed": true,
          "internalType": "bytes32",
          "name": "id",
          "type": "bytes32"
        }
      ],
      "name": "ChainlinkFulfilled",
      "type": "event"
    },
    {
      "anonymous": false,
      "inputs": [
        {
          "indexed": true,
          "internalType": "bytes32",
          "name": "id",
          "type": "bytes32"
        }
      ],
      "name": "ChainlinkRequested",
      "type": "event"
    },
    {
      "anonymous": false,
      "inputs": [
        {
          "indexed": false,
          "internalType": "string",
          "name": "fixtureID",
          "type": "string"
        },
        {
          "indexed": false,
          "internalType": "uint256",
          "name": "kickoffTime",
          "type": "uint256"
        }
      ],
      "name": "KickoffTimeUpdated",
      "type": "event"
    },
    {
      "anonymous": false,
      "inputs": [
        {
          "indexed": true,
          "internalType": "address",
          "name": "from",
          "type": "address"
        },
        {
          "indexed": true,
          "internalType": "address",
          "name": "to",
          "type": "address"
        }
      ],
      "name": "OwnershipTransferRequested",
      "type": "event"
    },
    {
      "anonymous": false,
      "inputs": [
        {
          "indexed": true,
          "internalType": "address",
          "name": "from",
          "type": "address"
        },
        {
          "indexed": true,
          "internalType": "address",
          "name": "to",
          "type": "address"
        }
      ],
      "name": "OwnershipTransferred",
      "type": "event"
    },
    {
      "anonymous": false,
      "inputs": [
        {
          "indexed": true,
          "internalType": "bytes32",
          "name": "requestId",
          "type": "bytes32"
        },
        {
          "indexed": false,
          "internalType": "string",
          "name": "fixtureID",
          "type": "string"
        },
        {
          "indexed": false,
          "internalType": "string",
          "name": "fixtureResult",
          "type": "string"
        },
        {
          "indexed": false,
          "internalType": "uint256",
          "name": "kickoff",
          "type": "uint256"
        }
      ],
      "name": "RequestFixtureParametersFulfilled",
      "type": "event"
    },
    {
      "anonymous": false,
      "inputs": [
        {
          "indexed": true,
          "internalType": "bytes32",
          "name": "requestId",
          "type": "bytes32"
        },
        {
          "indexed": false,
          "internalType": "string",
          "name": "fixtureID",
          "type": "string"
        }
      ],
      "name": "RequestedFixtureParameters",
      "type": "event"
    },
    {
      "inputs": [],
      "name": "acceptOwnership",
      "outputs": [],
      "stateMutability": "nonpayable",
      "type": "function"
    },
    {
      "inputs": [
        {
          "internalType": "string",
          "name": "",
          "type": "string"
        },
        {
          "internalType": "enum SportsBetting.BetType",
          "name": "",
          "type": "uint8"
        },
        {
          "internalType": "address",
          "name": "",
          "type": "address"
        }
      ],
      "name": "activeBetters",
      "outputs": [
        {
          "internalType": "bool",
          "name": "",
          "type": "bool"
        }
      ],
      "stateMutability": "view",
      "type": "function"
    },
    {
      "inputs": [
        {
          "internalType": "string",
          "name": "",
          "type": "string"
        },
        {
          "internalType": "enum SportsBetting.BetType",
          "name": "",
          "type": "uint8"
        },
        {
          "internalType": "address",
          "name": "",
          "type": "address"
        }
      ],
      "name": "amounts",
      "outputs": [
        {
          "internalType": "uint256",
          "name": "",
          "type": "uint256"
        }
      ],
      "stateMutability": "view",
      "type": "function"
    },
    {
      "inputs": [
        {
          "internalType": "string",
          "name": "fixtureID",
          "type": "string"
        }
      ],
      "name": "awaitBetForFixture",
      "outputs": [],
      "stateMutability": "nonpayable",
      "type": "function"
    },
    {
      "inputs": [
        {
          "internalType": "uint256",
          "name": "",
          "type": "uint256"
        }
      ],
      "name": "betTypes",
      "outputs": [
        {
          "internalType": "enum SportsBetting.BetType",
          "name": "",
          "type": "uint8"
        }
      ],
      "stateMutability": "view",
      "type": "function"
    },
    {
      "inputs": [
        {
          "internalType": "string",
          "name": "",
          "type": "string"
        }
      ],
      "name": "bettingState",
      "outputs": [
        {
          "internalType": "enum SportsBetting.BettingState",
          "name": "",
          "type": "uint8"
        }
      ],
      "stateMutability": "view",
      "type": "function"
    },
    {
      "inputs": [],
      "name": "chainlink",
      "outputs": [
        {
          "internalType": "address",
          "name": "",
          "type": "address"
        }
      ],
      "stateMutability": "view",
      "type": "function"
    },
    {
      "inputs": [
        {
          "internalType": "string",
          "name": "fixtureID",
          "type": "string"
        }
      ],
      "name": "closeBetForFixture",
      "outputs": [],
      "stateMutability": "nonpayable",
      "type": "function"
    },
    {
      "inputs": [],
      "name": "entranceFee",
      "outputs": [
        {
          "internalType": "uint256",
          "name": "",
          "type": "uint256"
        }
      ],
      "stateMutability": "view",
      "type": "function"
    },
    {
      "inputs": [],
      "name": "fixtureResult",
      "outputs": [
        {
          "internalType": "string",
          "name": "",
          "type": "string"
        }
      ],
      "stateMutability": "view",
      "type": "function"
    },
    {
      "inputs": [
        {
          "internalType": "string",
          "name": "",
          "type": "string"
        }
      ],
      "name": "fixtureToKickoffTime",
      "outputs": [
        {
          "internalType": "uint256",
          "name": "",
          "type": "uint256"
        }
      ],
      "stateMutability": "view",
      "type": "function"
    },
    {
      "inputs": [
        {
          "internalType": "string",
          "name": "fixtureID",
          "type": "string"
        }
      ],
      "name": "fulfillBetForFixture",
      "outputs": [],
      "stateMutability": "nonpayable",
      "type": "function"
    },
    {
      "inputs": [
        {
          "internalType": "string",
          "name": "fixtureID",
          "type": "string"
        }
      ],
      "name": "getEnrichedFixtureData",
      "outputs": [
        {
          "components": [
            {
              "internalType": "enum SportsBetting.BettingState",
              "name": "fixtureState",
              "type": "uint8"
            },
            {
              "components": [
                {
                  "internalType": "uint256",
                  "name": "home",
                  "type": "uint256"
                },
                {
                  "internalType": "uint256",
                  "name": "draw",
                  "type": "uint256"
                },
                {
                  "internalType": "uint256",
                  "name": "away",
                  "type": "uint256"
                }
              ],
              "internalType": "struct SportsBetting.StakeSummary",
              "name": "total",
              "type": "tuple"
            },
            {
              "components": [
                {
                  "internalType": "uint256",
                  "name": "home",
                  "type": "uint256"
                },
                {
                  "internalType": "uint256",
                  "name": "draw",
                  "type": "uint256"
                },
                {
                  "internalType": "uint256",
                  "name": "away",
                  "type": "uint256"
                }
              ],
              "internalType": "struct SportsBetting.StakeSummary",
              "name": "user",
              "type": "tuple"
            }
          ],
          "internalType": "struct SportsBetting.FixtureEnrichment",
          "name": "",
          "type": "tuple"
        }
      ],
      "stateMutability": "nonpayable",
      "type": "function"
    },
    {
      "inputs": [
        {
          "internalType": "string",
          "name": "",
          "type": "string"
        },
        {
          "internalType": "enum SportsBetting.BetType",
          "name": "",
          "type": "uint8"
        },
        {
          "internalType": "uint256",
          "name": "",
          "type": "uint256"
        }
      ],
      "name": "historicalBetters",
      "outputs": [
        {
          "internalType": "address",
          "name": "",
          "type": "address"
        }
      ],
      "stateMutability": "view",
      "type": "function"
    },
    {
      "inputs": [
        {
          "internalType": "string",
          "name": "fixtureID",
          "type": "string"
        }
      ],
      "name": "openBetForFixture",
      "outputs": [],
      "stateMutability": "nonpayable",
      "type": "function"
    },
    {
      "inputs": [],
      "name": "owner",
      "outputs": [
        {
          "internalType": "address",
          "name": "",
          "type": "address"
        }
      ],
      "stateMutability": "view",
      "type": "function"
    },
    {
      "inputs": [
        {
          "internalType": "bytes32",
          "name": "_requestId",
          "type": "bytes32"
        },
        {
          "internalType": "string",
          "name": "_resultResponse",
          "type": "string"
        },
        {
          "internalType": "uint256",
          "name": "_kickoffResponse",
          "type": "uint256"
        }
      ],
      "name": "rawFulfillMultipleParameters",
      "outputs": [],
      "stateMutability": "nonpayable",
      "type": "function"
    },
    {
      "inputs": [
        {
          "internalType": "string",
          "name": "fixtureID",
          "type": "string"
        }
      ],
      "name": "requestMultipleParameters",
      "outputs": [
        {
          "internalType": "bytes32",
          "name": "",
          "type": "bytes32"
        }
      ],
      "stateMutability": "nonpayable",
      "type": "function"
    },
    {
      "inputs": [
        {
          "internalType": "bytes32",
          "name": "",
          "type": "bytes32"
        }
      ],
      "name": "requestToFixture",
      "outputs": [
        {
          "internalType": "string",
          "name": "",
          "type": "string"
        }
      ],
      "stateMutability": "view",
      "type": "function"
    },
    {
      "inputs": [],
      "name": "sportsOracleURI",
      "outputs": [
        {
          "internalType": "string",
          "name": "",
          "type": "string"
        }
      ],
      "stateMutability": "view",
      "type": "function"
    },
    {
      "inputs": [
        {
          "internalType": "string",
          "name": "fixtureID",
          "type": "string"
        },
        {
          "internalType": "enum SportsBetting.BetType",
          "name": "betType",
          "type": "uint8"
        }
      ],
      "name": "stake",
      "outputs": [],
      "stateMutability": "payable",
      "type": "function"
    },
    {
      "inputs": [
        {
          "internalType": "address",
          "name": "to",
          "type": "address"
        }
      ],
      "name": "transferOwnership",
      "outputs": [],
      "stateMutability": "nonpayable",
      "type": "function"
    },
    {
      "inputs": [
        {
          "internalType": "string",
          "name": "fixtureID",
          "type": "string"
        },
        {
          "internalType": "enum SportsBetting.BetType",
          "name": "betType",
          "type": "uint8"
        },
        {
          "internalType": "uint256",
          "name": "amount",
          "type": "uint256"
        }
      ],
      "name": "unstake",
      "outputs": [],
      "stateMutability": "nonpayable",
      "type": "function"
    },
    {
      "inputs": [],
      "name": "withdrawLink",
      "outputs": [],
      "stateMutability": "nonpayable",
      "type": "function"
    }
  ],
  "transactionHash": "0xc65da59b249ec13cc131ef42dde67b5bb965098521f4495e3d4dbc4ae3bb21aa",
  "args": [
    "localhost:5000/",
    "0xcc79157eb46f5624204f47ab42b3906caa40eab7",
    "0x326C977E6efc84E512bB9C30f76E30c160eD06FB",
    "0x3764383061363338366566353433613361626235323831376636373037653362",
    "100000000000000000"
  ],
  "numDeployments": 1,
  "solcInputHash": "a3e771261a95f43f584d0a7ca182f203",
  "bytecode": "0x60806040526001600455655af3107a4000600e5562093a80600f55610e106010553480156200002d57600080fd5b5060405162005f4038038062005f408339818101604052810190620000539190620008b8565b8484848484338060008073ffffffffffffffffffffffffffffffffffffffff168273ffffffffffffffffffffffffffffffffffffffff161415620000ce576040517f08c379a0000000000000000000000000000000000000000000000000000000008152600401620000c590620009c0565b60405180910390fd5b81600660006101000a81548173ffffffffffffffffffffffffffffffffffffffff021916908373ffffffffffffffffffffffffffffffffffffffff160217905550600073ffffffffffffffffffffffffffffffffffffffff168173ffffffffffffffffffffffffffffffffffffffff1614620001565762000155816200030760201b60201c565b5b50505084600990805190602001906200017192919062000590565b5062000183836200043960201b60201c565b62000194846200047d60201b60201c565b83600860006101000a81548173ffffffffffffffffffffffffffffffffffffffff021916908373ffffffffffffffffffffffffffffffffffffffff16021790555081600a8190555080600b8190555050505050506200021860405180606001604052806031815260200162005f0f6031913986620004c160201b6200197a1760201c565b6000600d600060038110620002325762000231620009e2565b5b602091828204019190066101000a81548160ff021916908360028111156200025f576200025e62000a11565b5b02179055506001600d6001600381106200027e576200027d620009e2565b5b602091828204019190066101000a81548160ff02191690836002811115620002ab57620002aa62000a11565b5b02179055506002600d600260038110620002ca57620002c9620009e2565b5b602091828204019190066101000a81548160ff02191690836002811115620002f757620002f662000a11565b5b0217905550505050505062000b9e565b3373ffffffffffffffffffffffffffffffffffffffff168173ffffffffffffffffffffffffffffffffffffffff16141562000379576040517f08c379a0000000000000000000000000000000000000000000000000000000008152600401620003709062000a90565b60405180910390fd5b80600760006101000a81548173ffffffffffffffffffffffffffffffffffffffff021916908373ffffffffffffffffffffffffffffffffffffffff1602179055508073ffffffffffffffffffffffffffffffffffffffff16600660009054906101000a900473ffffffffffffffffffffffffffffffffffffffff1673ffffffffffffffffffffffffffffffffffffffff167fed8889f560326eb138920d842192f0eb3dd22b4f139c87a2c57538e05bae127860405160405180910390a350565b80600260006101000a81548173ffffffffffffffffffffffffffffffffffffffff021916908373ffffffffffffffffffffffffffffffffffffffff16021790555050565b80600360006101000a81548173ffffffffffffffffffffffffffffffffffffffff021916908373ffffffffffffffffffffffffffffffffffffffff16021790555050565b620005638282604051602401620004da92919062000afe565b6040516020818303038152906040527f4b5c4277000000000000000000000000000000000000000000000000000000007bffffffffffffffffffffffffffffffffffffffffffffffffffffffff19166020820180517bffffffffffffffffffffffffffffffffffffffffffffffffffffffff83818316178352505050506200056760201b60201c565b5050565b60008151905060006a636f6e736f6c652e6c6f679050602083016000808483855afa5050505050565b8280546200059e9062000b68565b90600052602060002090601f016020900481019282620005c257600085556200060e565b82601f10620005dd57805160ff19168380011785556200060e565b828001600101855582156200060e579182015b828111156200060d578251825591602001919060010190620005f0565b5b5090506200061d919062000621565b5090565b5b808211156200063c57600081600090555060010162000622565b5090565b6000604051905090565b600080fd5b600080fd5b600080fd5b600080fd5b6000601f19601f8301169050919050565b7f4e487b7100000000000000000000000000000000000000000000000000000000600052604160045260246000fd5b620006a9826200065e565b810181811067ffffffffffffffff82111715620006cb57620006ca6200066f565b5b80604052505050565b6000620006e062000640565b9050620006ee82826200069e565b919050565b600067ffffffffffffffff8211156200071157620007106200066f565b5b6200071c826200065e565b9050602081019050919050565b60005b83811015620007495780820151818401526020810190506200072c565b8381111562000759576000848401525b50505050565b6000620007766200077084620006f3565b620006d4565b90508281526020810184848401111562000795576200079462000659565b5b620007a284828562000729565b509392505050565b600082601f830112620007c257620007c162000654565b5b8151620007d48482602086016200075f565b91505092915050565b600073ffffffffffffffffffffffffffffffffffffffff82169050919050565b60006200080a82620007dd565b9050919050565b6200081c81620007fd565b81146200082857600080fd5b50565b6000815190506200083c8162000811565b92915050565b6000819050919050565b620008578162000842565b81146200086357600080fd5b50565b60008151905062000877816200084c565b92915050565b6000819050919050565b62000892816200087d565b81146200089e57600080fd5b50565b600081519050620008b28162000887565b92915050565b600080600080600060a08688031215620008d757620008d66200064a565b5b600086015167ffffffffffffffff811115620008f857620008f76200064f565b5b6200090688828901620007aa565b955050602062000919888289016200082b565b94505060406200092c888289016200082b565b93505060606200093f8882890162000866565b92505060806200095288828901620008a1565b9150509295509295909350565b600082825260208201905092915050565b7f43616e6e6f7420736574206f776e657220746f207a65726f0000000000000000600082015250565b6000620009a86018836200095f565b9150620009b58262000970565b602082019050919050565b60006020820190508181036000830152620009db8162000999565b9050919050565b7f4e487b7100000000000000000000000000000000000000000000000000000000600052603260045260246000fd5b7f4e487b7100000000000000000000000000000000000000000000000000000000600052602160045260246000fd5b7f43616e6e6f74207472616e7366657220746f2073656c66000000000000000000600082015250565b600062000a786017836200095f565b915062000a858262000a40565b602082019050919050565b6000602082019050818103600083015262000aab8162000a69565b9050919050565b600081519050919050565b600062000aca8262000ab2565b62000ad681856200095f565b935062000ae881856020860162000729565b62000af3816200065e565b840191505092915050565b6000604082019050818103600083015262000b1a818562000abd565b9050818103602083015262000b30818462000abd565b90509392505050565b7f4e487b7100000000000000000000000000000000000000000000000000000000600052602260045260246000fd5b6000600282049050600182168062000b8157607f821691505b6020821081141562000b985762000b9762000b39565b5b50919050565b6153618062000bae6000396000f3fe60806040526004361061014a5760003560e01c80638dc654a2116100b6578063edb160701161006f578063edb1607014610480578063ef40efde146104bd578063f2fde38b146104e6578063f7c60c0c1461050f578063fbe913931461053a578063ffebd172146105775761014a565b80638dc654a21461035c5780639c3feeb714610373578063aa0660901461039e578063b148cdf1146103db578063c8fe739c14610406578063cbef85c2146104435761014a565b8063649677e111610108578063649677e1146102605780636e2a3a841461028b57806379ba5097146102b457806380b71dca146102cb57806384f4614e146102f45780638da5cb5b146103315761014a565b8062e1a75b1461014f57806301ec29c914610178578063401bf083146101a157806340364d11146101de5780635e524319146101fa57806362098ff714610223575b600080fd5b34801561015b57600080fd5b5061017660048036038101906101719190613a41565b6105b4565b005b34801561018457600080fd5b5061019f600480360381019061019a9190613a41565b610653565b005b3480156101ad57600080fd5b506101c860048036038101906101c39190613ac0565b6106fc565b6040516101d59190613b75565b60405180910390f35b6101f860048036038101906101f39190613bbc565b61079c565b005b34801561020657600080fd5b50610221600480360381019061021c9190613c4e565b610ad6565b005b34801561022f57600080fd5b5061024a60048036038101906102459190613cbd565b610f50565b6040516102579190613d61565b60405180910390f35b34801561026c57600080fd5b50610275610f7a565b6040516102829190613d8b565b60405180910390f35b34801561029757600080fd5b506102b260048036038101906102ad9190613a41565b610f80565b005b3480156102c057600080fd5b506102c961101f565b005b3480156102d757600080fd5b506102f260048036038101906102ed9190613da6565b6111b6565b005b34801561030057600080fd5b5061031b60048036038101906103169190613a41565b611256565b6040516103289190613ef0565b60405180910390f35b34801561033d57600080fd5b506103466112fe565b6040516103539190613f4c565b60405180910390f35b34801561036857600080fd5b50610371611328565b005b34801561037f57600080fd5b50610388611475565b6040516103959190613f4c565b60405180910390f35b3480156103aa57600080fd5b506103c560048036038101906103c09190613f93565b61149b565b6040516103d29190613d8b565b60405180910390f35b3480156103e757600080fd5b506103f06114e3565b6040516103fd9190613b75565b60405180910390f35b34801561041257600080fd5b5061042d60048036038101906104289190613c4e565b611571565b60405161043a9190613f4c565b60405180910390f35b34801561044f57600080fd5b5061046a60048036038101906104659190613f93565b6115e2565b604051610477919061401d565b60405180910390f35b34801561048c57600080fd5b506104a760048036038101906104a29190613a41565b611634565b6040516104b49190613d8b565b60405180910390f35b3480156104c957600080fd5b506104e460048036038101906104df9190613a41565b611662565b005b3480156104f257600080fd5b5061050d60048036038101906105089190614038565b61170b565b005b34801561051b57600080fd5b5061052461171f565b6040516105319190613b75565b60405180910390f35b34801561054657600080fd5b50610561600480360381019061055c9190613a41565b6117ad565b60405161056e9190614074565b60405180910390f35b34801561058357600080fd5b5061059e60048036038101906105999190613a41565b6117e3565b6040516105ab919061409e565b60405180910390f35b600160048111156105c8576105c7613cea565b5b6015826040516105d891906140f5565b908152602001604051809103902060009054906101000a900460ff16600481111561060657610605613cea565b5b1415610647576040517f08c379a000000000000000000000000000000000000000000000000000000000815260040161063e9061417e565b60405180910390fd5b61065081611a16565b50565b61065b611a87565b6002600481111561066f5761066e613cea565b5b60158260405161067f91906140f5565b908152602001604051809103902060009054906101000a900460ff1660048111156106ad576106ac613cea565b5b14156106ee576040517f08c379a00000000000000000000000000000000000000000000000000000000081526004016106e590614210565b60405180910390fd5b6106f9816002611b19565b50565b6017602052806000526040600020600091509050805461071b9061425f565b80601f01602080910402602001604051908101604052809291908181526020018280546107479061425f565b80156107945780601f1061076957610100808354040283529160200191610794565b820191906000526020600020905b81548152906001019060200180831161077757829003601f168201915b505050505081565b6107a582611b9c565b600160048111156107b9576107b8613cea565b5b6015836040516107c991906140f5565b908152602001604051809103902060009054906101000a900460ff1660048111156107f7576107f6613cea565b5b14610837576040517f08c379a000000000000000000000000000000000000000000000000000000000815260040161082e90614303565b60405180910390fd5b600e5434101561087c576040517f08c379a00000000000000000000000000000000000000000000000000000000081526004016108739061436f565b60405180910390fd5b3460138360405161088d91906140f5565b908152602001604051809103902060008360028111156108b0576108af613cea565b5b60028111156108c2576108c1613cea565b5b815260200190815260200160002060003373ffffffffffffffffffffffffffffffffffffffff1673ffffffffffffffffffffffffffffffffffffffff168152602001908152602001600020600082825461091c91906143be565b9250508190555060118260405161093391906140f5565b9081526020016040518091039020600082600281111561095657610955613cea565b5b600281111561096857610967613cea565b5b8152602001908152602001600020339080600181540180825580915050600190039060005260206000200160009091909190916101000a81548173ffffffffffffffffffffffffffffffffffffffff021916908373ffffffffffffffffffffffffffffffffffffffff16021790555060016012836040516109e991906140f5565b90815260200160405180910390206000836002811115610a0c57610a0b613cea565b5b6002811115610a1e57610a1d613cea565b5b815260200190815260200160002060003373ffffffffffffffffffffffffffffffffffffffff1673ffffffffffffffffffffffffffffffffffffffff16815260200190815260200160002060006101000a81548160ff0219169083151502179055503373ffffffffffffffffffffffffffffffffffffffff167f1a48cf6315f5f44cf8ac3a5105296caf8a73f64b40f9a6b7cbf8ba65ca930fd4833484604051610aca93929190614414565b60405180910390a25050565b60008111610b19576040517f08c379a0000000000000000000000000000000000000000000000000000000008152600401610b109061449e565b60405180910390fd5b610b2283611b9c565b60016004811115610b3657610b35613cea565b5b601584604051610b4691906140f5565b908152602001604051809103902060009054906101000a900460ff166004811115610b7457610b73613cea565b5b14610bb4576040517f08c379a0000000000000000000000000000000000000000000000000000000008152600401610bab9061450a565b60405180910390fd5b6000601384604051610bc691906140f5565b90815260200160405180910390206000846002811115610be957610be8613cea565b5b6002811115610bfb57610bfa613cea565b5b815260200190815260200160002060003373ffffffffffffffffffffffffffffffffffffffff1673ffffffffffffffffffffffffffffffffffffffff16815260200190815260200160002054905060008111610c8c576040517f08c379a0000000000000000000000000000000000000000000000000000000008152600401610c8390614576565b60405180910390fd5b80821115610ccf576040517f08c379a0000000000000000000000000000000000000000000000000000000008152600401610cc6906145e2565b60405180910390fd5b8181610cdb9190614602565b601385604051610ceb91906140f5565b90815260200160405180910390206000856002811115610d0e57610d0d613cea565b5b6002811115610d2057610d1f613cea565b5b815260200190815260200160002060003373ffffffffffffffffffffffffffffffffffffffff1673ffffffffffffffffffffffffffffffffffffffff168152602001908152602001600020819055506000601385604051610d8191906140f5565b90815260200160405180910390206000856002811115610da457610da3613cea565b5b6002811115610db657610db5613cea565b5b815260200190815260200160002060003373ffffffffffffffffffffffffffffffffffffffff1673ffffffffffffffffffffffffffffffffffffffff1681526020019081526020016000205411610eb1576000601285604051610e1991906140f5565b90815260200160405180910390206000856002811115610e3c57610e3b613cea565b5b6002811115610e4e57610e4d613cea565b5b815260200190815260200160002060003373ffffffffffffffffffffffffffffffffffffffff1673ffffffffffffffffffffffffffffffffffffffff16815260200190815260200160002060006101000a81548160ff0219169083151502179055505b3373ffffffffffffffffffffffffffffffffffffffff166108fc839081150290604051600060405180830381858888f19350505050158015610ef7573d6000803e3d6000fd5b503373ffffffffffffffffffffffffffffffffffffffff167f0f3b118062ef97715cdb7fc34e6b3bc6bf1c6ddbbbbc4e8d6f13eff984080d08858486604051610f4293929190614414565b60405180910390a250505050565b600d8160038110610f6057600080fd5b60209182820401919006915054906101000a900460ff1681565b600e5481565b60026004811115610f9457610f93613cea565b5b601582604051610fa491906140f5565b908152602001604051809103902060009054906101000a900460ff166004811115610fd257610fd1613cea565b5b1415611013576040517f08c379a000000000000000000000000000000000000000000000000000000000815260040161100a906146a8565b60405180910390fd5b61101c81611a16565b50565b600760009054906101000a900473ffffffffffffffffffffffffffffffffffffffff1673ffffffffffffffffffffffffffffffffffffffff163373ffffffffffffffffffffffffffffffffffffffff16146110af576040517f08c379a00000000000000000000000000000000000000000000000000000000081526004016110a690614714565b60405180910390fd5b6000600660009054906101000a900473ffffffffffffffffffffffffffffffffffffffff16905033600660006101000a81548173ffffffffffffffffffffffffffffffffffffffff021916908373ffffffffffffffffffffffffffffffffffffffff1602179055506000600760006101000a81548173ffffffffffffffffffffffffffffffffffffffff021916908373ffffffffffffffffffffffffffffffffffffffff1602179055503373ffffffffffffffffffffffffffffffffffffffff168173ffffffffffffffffffffffffffffffffffffffff167f8be0079c531659141344cd1fd0a4f28419497f9722a3daafe3b4186f6b6457e060405160405180910390a350565b600860009054906101000a900473ffffffffffffffffffffffffffffffffffffffff1673ffffffffffffffffffffffffffffffffffffffff163373ffffffffffffffffffffffffffffffffffffffff1614611246576040517f08c379a000000000000000000000000000000000000000000000000000000000815260040161123d90614780565b60405180910390fd5b611251838383611d03565b505050565b61125e61375d565b604051806060016040528060158460405161127991906140f5565b908152602001604051809103902060009054906101000a900460ff1660048111156112a7576112a6613cea565b5b815260200160405180606001604052806112c2866000611f84565b81526020016112d2866001611f84565b81526020016112e2866002611f84565b81525081526020016112f484336121dd565b8152509050919050565b6000600660009054906101000a900473ffffffffffffffffffffffffffffffffffffffff16905090565b611330611a87565b600061133a6123b9565b90508073ffffffffffffffffffffffffffffffffffffffff1663a9059cbb338373ffffffffffffffffffffffffffffffffffffffff166370a08231306040518263ffffffff1660e01b81526004016113929190613f4c565b602060405180830381865afa1580156113af573d6000803e3d6000fd5b505050506040513d601f19601f820116820180604052508101906113d391906147b5565b6040518363ffffffff1660e01b81526004016113f09291906147e2565b6020604051808303816000875af115801561140f573d6000803e3d6000fd5b505050506040513d601f19601f820116820180604052508101906114339190614837565b611472576040517f08c379a0000000000000000000000000000000000000000000000000000000008152600401611469906148b0565b60405180910390fd5b50565b600860009054906101000a900473ffffffffffffffffffffffffffffffffffffffff1681565b60138380516020810182018051848252602083016020850120818352809550505050505060205281600052604060002060205280600052604060002060009250925050505481565b600980546114f09061425f565b80601f016020809104026020016040519081016040528092919081815260200182805461151c9061425f565b80156115695780601f1061153e57610100808354040283529160200191611569565b820191906000526020600020905b81548152906001019060200180831161154c57829003601f168201915b505050505081565b60118380516020810182018051848252602083016020850120818352809550505050505060205281600052604060002081815481106115af57600080fd5b90600052602060002001600092509250509054906101000a900473ffffffffffffffffffffffffffffffffffffffff1681565b601283805160208101820180518482526020830160208501208183528095505050505050602052816000526040600020602052806000526040600020600092509250509054906101000a900460ff1681565b6016818051602081018201805184825260208301602085012081835280955050505050506000915090505481565b61166a611a87565b6000600481111561167e5761167d613cea565b5b60158260405161168e91906140f5565b908152602001604051809103902060009054906101000a900460ff1660048111156116bc576116bb613cea565b5b14156116fd576040517f08c379a00000000000000000000000000000000000000000000000000000000081526004016116f490614942565b60405180910390fd5b611708816000611b19565b50565b611713611a87565b61171c816123e3565b50565b600c805461172c9061425f565b80601f01602080910402602001604051908101604052809291908181526020018280546117589061425f565b80156117a55780601f1061177a576101008083540402835291602001916117a5565b820191906000526020600020905b81548152906001019060200180831161178857829003601f168201915b505050505081565b6015818051602081018201805184825260208301602085012081835280955050505050506000915054906101000a900460ff1681565b6000806117fa600a54306380b71dca60e01b612512565b90506118686040518060400160405280600981526020017f75726c526573756c7400000000000000000000000000000000000000000000008152506009856040516020016118499291906149f6565b604051602081830303815290604052836125439092919063ffffffff16565b6118e76040518060400160405280600a81526020017f70617468526573756c74000000000000000000000000000000000000000000008152506040518060400160405280600681526020017f526573756c740000000000000000000000000000000000000000000000000000815250836125439092919063ffffffff16565b6119666040518060400160405280600b81526020017f706174684b69636b6f66660000000000000000000000000000000000000000008152506040518060400160405280600781526020017f4b69636b6f666600000000000000000000000000000000000000000000000000815250836125439092919063ffffffff16565b61197281600b54612576565b915050919050565b611a128282604051602401611990929190614a1a565b6040516020818303038152906040527f4b5c4277000000000000000000000000000000000000000000000000000000007bffffffffffffffffffffffffffffffffffffffffffffffffffffffff19166020820180517bffffffffffffffffffffffffffffffffffffffffffffffffffffffff83818316178352505050506125ad565b5050565b6000611a21826117e3565b905081601760008381526020019081526020016000209080519060200190611a4a92919061379c565b50807fc36e98a50a4fd27efe75de15a0e1c01e0ccba2218c7871d3c836905bfe1bc3e183604051611a7b9190613b75565b60405180910390a25050565b600660009054906101000a900473ffffffffffffffffffffffffffffffffffffffff1673ffffffffffffffffffffffffffffffffffffffff163373ffffffffffffffffffffffffffffffffffffffff1614611b17576040517f08c379a0000000000000000000000000000000000000000000000000000000008152600401611b0e90614a9d565b60405180910390fd5b565b80601583604051611b2a91906140f5565b908152602001604051809103902060006101000a81548160ff02191690836004811115611b5a57611b59613cea565b5b02179055507fe10ba6722d7a7a91bf343a0f8e5b026910dbc4a2ebca276930dff31703c59a708282604051611b90929190614abd565b60405180910390a15050565b6000601682604051611bae91906140f5565b90815260200160405180910390205490506000811415611bce5750611d00565b60006004811115611be257611be1613cea565b5b601583604051611bf291906140f5565b908152602001604051809103902060009054906101000a900460ff166004811115611c2057611c1f613cea565b5b148015611c3a575060105481611c369190614602565b4211155b8015611c535750600f5481611c4f9190614602565b4210155b8015611c625750600060105414155b15611c7357611c72826001611b19565b5b60016004811115611c8757611c86613cea565b5b601583604051611c9791906140f5565b908152602001604051809103902060009054906101000a900460ff166004811115611cc557611cc4613cea565b5b148015611cde575060105481611cdb9190614602565b42115b8015611ced5750600060105414155b15611cfe57611cfd826002611b19565b5b505b50565b826005600082815260200190815260200160002060009054906101000a900473ffffffffffffffffffffffffffffffffffffffff1673ffffffffffffffffffffffffffffffffffffffff163373ffffffffffffffffffffffffffffffffffffffff1614611da5576040517f08c379a0000000000000000000000000000000000000000000000000000000008152600401611d9c90614b5f565b60405180910390fd5b6005600082815260200190815260200160002060006101000a81549073ffffffffffffffffffffffffffffffffffffffff0219169055807f7cc135e0cebb02c3480ae5d74d377283180a2601f8f644edf7987b009316c63a60405160405180910390a26000601760008681526020019081526020016000208054611e289061425f565b80601f0160208091040260200160405190810160405280929190818152602001828054611e549061425f565b8015611ea15780601f10611e7657610100808354040283529160200191611ea1565b820191906000526020600020905b815481529060010190602001808311611e8457829003601f168201915b50505050509050847f6125286ff7c688816bd3feb69d5aa9e9720624656a8478a8f351fa81a0d66004828686604051611edc93929190614b7f565b60405180910390a2611eee81846125d6565b611ef781611b9c565b60026004811115611f0b57611f0a613cea565b5b601582604051611f1b91906140f5565b908152602001604051809103902060009054906101000a900460ff166004811115611f4957611f48613cea565b5b148015611f57575060008451115b15611f7d57611f67816003611b19565b611f71818561265c565b611f7c816004611b19565b5b5050505050565b60008060005b601185604051611f9a91906140f5565b90815260200160405180910390206000856002811115611fbd57611fbc613cea565b5b6002811115611fcf57611fce613cea565b5b8152602001908152602001600020805490508110156121d2576000601186604051611ffa91906140f5565b9081526020016040518091039020600086600281111561201d5761201c613cea565b5b600281111561202f5761202e613cea565b5b8152602001908152602001600020828154811061204f5761204e614bc4565b5b9060005260206000200160009054906101000a900473ffffffffffffffffffffffffffffffffffffffff16905060128660405161208c91906140f5565b908152602001604051809103902060008660028111156120af576120ae613cea565b5b60028111156120c1576120c0613cea565b5b815260200190815260200160002060008273ffffffffffffffffffffffffffffffffffffffff1673ffffffffffffffffffffffffffffffffffffffff16815260200190815260200160002060009054906101000a900460ff16156121be5760138660405161212f91906140f5565b9081526020016040518091039020600086600281111561215257612151613cea565b5b600281111561216457612163613cea565b5b815260200190815260200160002060008273ffffffffffffffffffffffffffffffffffffffff1673ffffffffffffffffffffffffffffffffffffffff16815260200190815260200160002054836121bb91906143be565b92505b5080806121ca90614bf3565b915050611f8a565b508091505092915050565b6121e5613822565b604051806060016040528060138560405161220091906140f5565b9081526020016040518091039020600080600281111561222357612222613cea565b5b600281111561223557612234613cea565b5b815260200190815260200160002060008573ffffffffffffffffffffffffffffffffffffffff1673ffffffffffffffffffffffffffffffffffffffff16815260200190815260200160002054815260200160138560405161229691906140f5565b90815260200160405180910390206000600160028111156122ba576122b9613cea565b5b60028111156122cc576122cb613cea565b5b815260200190815260200160002060008573ffffffffffffffffffffffffffffffffffffffff1673ffffffffffffffffffffffffffffffffffffffff16815260200190815260200160002054815260200160138560405161232d91906140f5565b908152602001604051809103902060006002808111156123505761234f613cea565b5b600281111561236257612361613cea565b5b815260200190815260200160002060008573ffffffffffffffffffffffffffffffffffffffff1673ffffffffffffffffffffffffffffffffffffffff16815260200190815260200160002054815250905092915050565b6000600260009054906101000a900473ffffffffffffffffffffffffffffffffffffffff16905090565b3373ffffffffffffffffffffffffffffffffffffffff168173ffffffffffffffffffffffffffffffffffffffff161415612452576040517f08c379a000000000000000000000000000000000000000000000000000000000815260040161244990614c88565b60405180910390fd5b80600760006101000a81548173ffffffffffffffffffffffffffffffffffffffff021916908373ffffffffffffffffffffffffffffffffffffffff1602179055508073ffffffffffffffffffffffffffffffffffffffff16600660009054906101000a900473ffffffffffffffffffffffffffffffffffffffff1673ffffffffffffffffffffffffffffffffffffffff167fed8889f560326eb138920d842192f0eb3dd22b4f139c87a2c57538e05bae127860405160405180910390a350565b61251a613843565b612522613843565b61253985858584612702909392919063ffffffff16565b9150509392505050565b61255a8284608001516127b290919063ffffffff16565b6125718184608001516127b290919063ffffffff16565b505050565b60006125a5600360009054906101000a900473ffffffffffffffffffffffffffffffffffffffff1684846127d7565b905092915050565b60008151905060006a636f6e736f6c652e6c6f679050602083016000808483855afa5050505050565b6016826040516125e691906140f5565b9081526020016040518091039020548114612658578060168360405161260c91906140f5565b9081526020016040518091039020819055507f20af5e7c127dd84267ef67d2a1fa455b47bc60840459b4db987929e37daf07a3828260405161264f929190614ca8565b60405180910390a15b5050565b600061266883836128a3565b90506060818160008151811061268157612680614bc4565b5b6020026020010190600281111561269b5761269a613cea565b5b908160028111156126af576126ae613cea565b5b8152505060006126be83612a2e565b905060006126cc8684612b7c565b905060006126da8784612b7c565b9050600081836126ea91906143be565b90506126f888878584612bda565b5050505050505050565b61270a613843565b61271a8560800151610100613108565b508385600001818152505082856020019073ffffffffffffffffffffffffffffffffffffffff16908173ffffffffffffffffffffffffffffffffffffffff16815250508185604001907bffffffffffffffffffffffffffffffffffffffffffffffffffffffff191690817bffffffffffffffffffffffffffffffffffffffffffffffffffffffff191681525050849050949350505050565b6127bf8260038351613172565b6127d281836132f790919063ffffffff16565b505050565b60008060045490506001816127ec91906143be565b6004819055506000634042994660e01b60008087600001513089604001518760018c608001516000015160405160240161282d989796959493929190614d68565b604051602081830303815290604052907bffffffffffffffffffffffffffffffffffffffffffffffffffffffff19166020820180517bffffffffffffffffffffffffffffffffffffffffffffffffffffffff8381831617835250505050905061289886838684613319565b925050509392505050565b60006128e4826040518060400160405280600481526020017f484f4d45000000000000000000000000000000000000000000000000000000008152506134ae565b156128f25760009050612a28565b612931826040518060400160405280600481526020017f44524157000000000000000000000000000000000000000000000000000000008152506134ae565b1561293f5760019050612a28565b61297e826040518060400160405280600481526020017f41574159000000000000000000000000000000000000000000000000000000008152506134ae565b1561298c5760029050612a28565b600083836040516020016129a1929190614e39565b60405160208183030381529060405290507f2a2c16a3ce1dea0db612b14a8fdc9a8d316acc87914b4d66440d119b41e8615f84826040516129e3929190614a1a565b60405180910390a1806040517f08c379a0000000000000000000000000000000000000000000000000000000008152600401612a1f9190613b75565b60405180910390fd5b92915050565b60606000600267ffffffffffffffff811115612a4d57612a4c613916565b5b604051908082528060200260200182016040528015612a7b5781602001602082028036833780820191505090505b5090506000805b6003811015612b7157846002811115612a9e57612a9d613cea565b5b600d8260038110612ab257612ab1614bc4565b5b602091828204019190069054906101000a900460ff166002811115612ada57612ad9613cea565b5b14612b5e57600d8160038110612af357612af2614bc4565b5b602091828204019190069054906101000a900460ff16838381518110612b1c57612b1b614bc4565b5b60200260200101906002811115612b3657612b35613cea565b5b90816002811115612b4a57612b49613cea565b5b81525050600182612b5b91906143be565b91505b8080612b6990614bf3565b915050612a82565b508192505050919050565b60008060005b8351811015612bcf57612baf85858381518110612ba257612ba1614bc4565b5b6020026020010151611f84565b82612bba91906143be565b91508080612bc790614bf3565b915050612b82565b508091505092915050565b60036004811115612bee57612bed613cea565b5b601585604051612bfe91906140f5565b908152602001604051809103902060009054906101000a900460ff166004811115612c2c57612c2b613cea565b5b14612c6c576040517f08c379a0000000000000000000000000000000000000000000000000000000008152600401612c6390614eed565b60405180910390fd5b60005b601185604051612c7f91906140f5565b90815260200160405180910390206000856002811115612ca257612ca1613cea565b5b6002811115612cb457612cb3613cea565b5b815260200190815260200160002080549050811015613101576000601186604051612cdf91906140f5565b90815260200160405180910390206000866002811115612d0257612d01613cea565b5b6002811115612d1457612d13613cea565b5b81526020019081526020016000208281548110612d3457612d33614bc4565b5b9060005260206000200160009054906101000a900473ffffffffffffffffffffffffffffffffffffffff169050601286604051612d7191906140f5565b90815260200160405180910390206000866002811115612d9457612d93613cea565b5b6002811115612da657612da5613cea565b5b815260200190815260200160002060008273ffffffffffffffffffffffffffffffffffffffff1673ffffffffffffffffffffffffffffffffffffffff16815260200190815260200160002060009054906101000a900460ff16156130ed576000601387604051612e1691906140f5565b90815260200160405180910390206000876002811115612e3957612e38613cea565b5b6002811115612e4b57612e4a613cea565b5b815260200190815260200160002060008373ffffffffffffffffffffffffffffffffffffffff1673ffffffffffffffffffffffffffffffffffffffff16815260200190815260200160002054905060008585612ea79190614f3c565b82612eb29190614f6d565b905080601489604051612ec591906140f5565b908152602001604051809103902060008573ffffffffffffffffffffffffffffffffffffffff1673ffffffffffffffffffffffffffffffffffffffff168152602001908152602001600020819055506000601389604051612f2691906140f5565b90815260200160405180910390206000896002811115612f4957612f48613cea565b5b6002811115612f5b57612f5a613cea565b5b815260200190815260200160002060008573ffffffffffffffffffffffffffffffffffffffff1673ffffffffffffffffffffffffffffffffffffffff168152602001908152602001600020819055506000601289604051612fbc91906140f5565b90815260200160405180910390206000896002811115612fdf57612fde613cea565b5b6002811115612ff157612ff0613cea565b5b815260200190815260200160002060008573ffffffffffffffffffffffffffffffffffffffff1673ffffffffffffffffffffffffffffffffffffffff16815260200190815260200160002060006101000a81548160ff0219169083151502179055508273ffffffffffffffffffffffffffffffffffffffff166108fc829081150290604051600060405180830381858888f19350505050158015613099573d6000803e3d6000fd5b508273ffffffffffffffffffffffffffffffffffffffff167fc0acd5bc47ab9bd28274b4de553779f718ae53f42f84fe011e7eed61cda99cbd89836040516130e2929190614ca8565b60405180910390a250505b5080806130f990614bf3565b915050612c6f565b5050505050565b6131106138b0565b600060208361311f9190614fc7565b1461314b576020826131319190614fc7565b602061313d9190614602565b8261314891906143be565b91505b81836020018181525050604051808452600081528281016020016040525082905092915050565b60178167ffffffffffffffff16116131a9576131a38160058460ff16901b60ff16178461350790919063ffffffff16565b506132f2565b60ff8167ffffffffffffffff16116131ff576131d8601860058460ff16901b178461350790919063ffffffff16565b506131f98167ffffffffffffffff166001856135279092919063ffffffff16565b506132f1565b61ffff8167ffffffffffffffff16116132565761322f601960058460ff16901b178461350790919063ffffffff16565b506132508167ffffffffffffffff166002856135279092919063ffffffff16565b506132f0565b63ffffffff8167ffffffffffffffff16116132af57613288601a60058460ff16901b178461350790919063ffffffff16565b506132a98167ffffffffffffffff166004856135279092919063ffffffff16565b506132ef565b6132cc601b60058460ff16901b178461350790919063ffffffff16565b506132ed8167ffffffffffffffff166008856135279092919063ffffffff16565b505b5b5b5b505050565b6132ff6138b0565b61331183846000015151848551613549565b905092915050565b6000308460405160200161332e9291906150b1565b604051602081830303815290604052805190602001209050846005600083815260200190815260200160002060006101000a81548173ffffffffffffffffffffffffffffffffffffffff021916908373ffffffffffffffffffffffffffffffffffffffff160217905550807fb5e6e01e79f91267dc17b4e6314d5d4d03593d2ceee0fbb452b750bd70ea5af960405160405180910390a2600260009054906101000a900473ffffffffffffffffffffffffffffffffffffffff1673ffffffffffffffffffffffffffffffffffffffff16634000aea08685856040518463ffffffff1660e01b8152600401613424939291906150dd565b6020604051808303816000875af1158015613443573d6000803e3d6000fd5b505050506040513d601f19601f820116820180604052508101906134679190614837565b6134a6576040517f08c379a000000000000000000000000000000000000000000000000000000000815260040161349d9061518d565b60405180910390fd5b949350505050565b6000816040516020016134c191906140f5565b60405160208183030381529060405280519060200120836040516020016134e891906140f5565b6040516020818303038152906040528051906020012014905092915050565b61350f6138b0565b61351f8384600001515184613638565b905092915050565b61352f6138b0565b61354084856000015151858561368f565b90509392505050565b6135516138b0565b825182111561355f57600080fd5b8460200151828561357091906143be565b11156135a5576135a48560026135958860200151888761359091906143be565b61371d565b61359f9190614f6d565b613739565b5b6000808651805187602083010193508088870111156135c45787860182525b60208701925050505b6020841061360b57805182526020826135e691906143be565b91506020816135f591906143be565b90506020846136049190614602565b93506135cd565b60006001856020036101000a03905080198251168184511681811785525050508692505050949350505050565b6136406138b0565b836020015183106136665761366584600286602001516136609190614f6d565b613739565b5b8351805160208583010184815381861415613682576001820183525b5050508390509392505050565b6136976138b0565b846020015184836136a891906143be565b11156136d0576136cf85600286856136c091906143be565b6136ca9190614f6d565b613739565b5b60006001836101006136e291906152e0565b6136ec9190614602565b9050855183868201018583198251161781528151858801111561370f5784870182525b505085915050949350505050565b60008183111561372f57829050613733565b8190505b92915050565b60008260000151905061374c8383613108565b5061375783826132f7565b50505050565b60405180606001604052806000600481111561377c5761377b613cea565b5b8152602001613789613822565b8152602001613796613822565b81525090565b8280546137a89061425f565b90600052602060002090601f0160209004810192826137ca5760008555613811565b82601f106137e357805160ff1916838001178555613811565b82800160010185558215613811579182015b828111156138105782518255916020019190600101906137f5565b5b50905061381e91906138ca565b5090565b60405180606001604052806000815260200160008152602001600081525090565b6040518060a0016040528060008019168152602001600073ffffffffffffffffffffffffffffffffffffffff16815260200160007bffffffffffffffffffffffffffffffffffffffffffffffffffffffff19168152602001600081526020016138aa6138b0565b81525090565b604051806040016040528060608152602001600081525090565b5b808211156138e35760008160009055506001016138cb565b5090565b6000604051905090565b600080fd5b600080fd5b600080fd5b600080fd5b6000601f19601f8301169050919050565b7f4e487b7100000000000000000000000000000000000000000000000000000000600052604160045260246000fd5b61394e82613905565b810181811067ffffffffffffffff8211171561396d5761396c613916565b5b80604052505050565b60006139806138e7565b905061398c8282613945565b919050565b600067ffffffffffffffff8211156139ac576139ab613916565b5b6139b582613905565b9050602081019050919050565b82818337600083830152505050565b60006139e46139df84613991565b613976565b905082815260208101848484011115613a00576139ff613900565b5b613a0b8482856139c2565b509392505050565b600082601f830112613a2857613a276138fb565b5b8135613a388482602086016139d1565b91505092915050565b600060208284031215613a5757613a566138f1565b5b600082013567ffffffffffffffff811115613a7557613a746138f6565b5b613a8184828501613a13565b91505092915050565b6000819050919050565b613a9d81613a8a565b8114613aa857600080fd5b50565b600081359050613aba81613a94565b92915050565b600060208284031215613ad657613ad56138f1565b5b6000613ae484828501613aab565b91505092915050565b600081519050919050565b600082825260208201905092915050565b60005b83811015613b27578082015181840152602081019050613b0c565b83811115613b36576000848401525b50505050565b6000613b4782613aed565b613b518185613af8565b9350613b61818560208601613b09565b613b6a81613905565b840191505092915050565b60006020820190508181036000830152613b8f8184613b3c565b905092915050565b60038110613ba457600080fd5b50565b600081359050613bb681613b97565b92915050565b60008060408385031215613bd357613bd26138f1565b5b600083013567ffffffffffffffff811115613bf157613bf06138f6565b5b613bfd85828601613a13565b9250506020613c0e85828601613ba7565b9150509250929050565b6000819050919050565b613c2b81613c18565b8114613c3657600080fd5b50565b600081359050613c4881613c22565b92915050565b600080600060608486031215613c6757613c666138f1565b5b600084013567ffffffffffffffff811115613c8557613c846138f6565b5b613c9186828701613a13565b9350506020613ca286828701613ba7565b9250506040613cb386828701613c39565b9150509250925092565b600060208284031215613cd357613cd26138f1565b5b6000613ce184828501613c39565b91505092915050565b7f4e487b7100000000000000000000000000000000000000000000000000000000600052602160045260246000fd5b60038110613d2a57613d29613cea565b5b50565b6000819050613d3b82613d19565b919050565b6000613d4b82613d2d565b9050919050565b613d5b81613d40565b82525050565b6000602082019050613d766000830184613d52565b92915050565b613d8581613c18565b82525050565b6000602082019050613da06000830184613d7c565b92915050565b600080600060608486031215613dbf57613dbe6138f1565b5b6000613dcd86828701613aab565b935050602084013567ffffffffffffffff811115613dee57613ded6138f6565b5b613dfa86828701613a13565b9250506040613e0b86828701613c39565b9150509250925092565b60058110613e2657613e25613cea565b5b50565b6000819050613e3782613e15565b919050565b6000613e4782613e29565b9050919050565b613e5781613e3c565b82525050565b613e6681613c18565b82525050565b606082016000820151613e826000850182613e5d565b506020820151613e956020850182613e5d565b506040820151613ea86040850182613e5d565b50505050565b60e082016000820151613ec46000850182613e4e565b506020820151613ed76020850182613e6c565b506040820151613eea6080850182613e6c565b50505050565b600060e082019050613f056000830184613eae565b92915050565b600073ffffffffffffffffffffffffffffffffffffffff82169050919050565b6000613f3682613f0b565b9050919050565b613f4681613f2b565b82525050565b6000602082019050613f616000830184613f3d565b92915050565b613f7081613f2b565b8114613f7b57600080fd5b50565b600081359050613f8d81613f67565b92915050565b600080600060608486031215613fac57613fab6138f1565b5b600084013567ffffffffffffffff811115613fca57613fc96138f6565b5b613fd686828701613a13565b9350506020613fe786828701613ba7565b9250506040613ff886828701613f7e565b9150509250925092565b60008115159050919050565b61401781614002565b82525050565b6000602082019050614032600083018461400e565b92915050565b60006020828403121561404e5761404d6138f1565b5b600061405c84828501613f7e565b91505092915050565b61406e81613e3c565b82525050565b60006020820190506140896000830184614065565b92915050565b61409881613a8a565b82525050565b60006020820190506140b3600083018461408f565b92915050565b600081905092915050565b60006140cf82613aed565b6140d981856140b9565b93506140e9818560208601613b09565b80840191505092915050565b600061410182846140c4565b915081905092915050565b7f42657420737461746520697320616c7265616479204f50454e20666f7220746860008201527f697320666978747572652e000000000000000000000000000000000000000000602082015250565b6000614168602b83613af8565b91506141738261410c565b604082019050919050565b600060208201905081810360008301526141978161415b565b9050919050565b7f42657420737461746520697320616c7265616479204157414954494e4720666f60008201527f72207468697320666978747572652e0000000000000000000000000000000000602082015250565b60006141fa602f83613af8565b91506142058261419e565b604082019050919050565b60006020820190508181036000830152614229816141ed565b9050919050565b7f4e487b7100000000000000000000000000000000000000000000000000000000600052602260045260246000fd5b6000600282049050600182168061427757607f821691505b6020821081141561428b5761428a614230565b5b50919050565b7f426574206163746976697479206973206e6f74206f70656e20666f722074686960008201527f7320666978747572652e00000000000000000000000000000000000000000000602082015250565b60006142ed602a83613af8565b91506142f882614291565b604082019050919050565b6000602082019050818103600083015261431c816142e0565b9050919050565b7f416d6f756e742069732062656c6f7720656e7472616e6365206665652e000000600082015250565b6000614359601d83613af8565b915061436482614323565b602082019050919050565b600060208201905081810360008301526143888161434c565b9050919050565b7f4e487b7100000000000000000000000000000000000000000000000000000000600052601160045260246000fd5b60006143c982613c18565b91506143d483613c18565b9250827fffffffffffffffffffffffffffffffffffffffffffffffffffffffffffffffff038211156144095761440861438f565b5b828201905092915050565b6000606082019050818103600083015261442e8186613b3c565b905061443d6020830185613d7c565b61444a6040830184613d52565b949350505050565b7f416d6f756e742073686f756c6420657863656564207a65726f2e000000000000600082015250565b6000614488601a83613af8565b915061449382614452565b602082019050919050565b600060208201905081810360008301526144b78161447b565b9050919050565b7f46697874757265206973206e6f7420696e204f70656e2073746174652e000000600082015250565b60006144f4601d83613af8565b91506144ff826144be565b602082019050919050565b60006020820190508181036000830152614523816144e7565b9050919050565b7f4e6f207374616b65206f6e207468697320616464726573732d726573756c742e600082015250565b6000614560602083613af8565b915061456b8261452a565b602082019050919050565b6000602082019050818103600083015261458f81614553565b9050919050565b7f43757272656e74207374616b6520746f6f206c6f772e00000000000000000000600082015250565b60006145cc601683613af8565b91506145d782614596565b602082019050919050565b600060208201905081810360008301526145fb816145bf565b9050919050565b600061460d82613c18565b915061461883613c18565b92508282101561462b5761462a61438f565b5b828203905092915050565b7f426574207374617465206d757374206265204157414954494e4720746f20726560008201527f71756573742066756c66696c6c6d656e742e0000000000000000000000000000602082015250565b6000614692603283613af8565b915061469d82614636565b604082019050919050565b600060208201905081810360008301526146c181614685565b9050919050565b7f4d7573742062652070726f706f736564206f776e657200000000000000000000600082015250565b60006146fe601683613af8565b9150614709826146c8565b602082019050919050565b6000602082019050818103600083015261472d816146f1565b9050919050565b7f4f6e6c7920436861696e6c696e6b436c69656e742063616e2066756c66696c6c600082015250565b600061476a602083613af8565b915061477582614734565b602082019050919050565b600060208201905081810360008301526147998161475d565b9050919050565b6000815190506147af81613c22565b92915050565b6000602082840312156147cb576147ca6138f1565b5b60006147d9848285016147a0565b91505092915050565b60006040820190506147f76000830185613f3d565b6148046020830184613d7c565b9392505050565b61481481614002565b811461481f57600080fd5b50565b6000815190506148318161480b565b92915050565b60006020828403121561484d5761484c6138f1565b5b600061485b84828501614822565b91505092915050565b7f556e61626c6520746f207472616e736665720000000000000000000000000000600082015250565b600061489a601283613af8565b91506148a582614864565b602082019050919050565b600060208201905081810360008301526148c98161488d565b9050919050565b7f42657420737461746520697320616c726561647920434c4f53454420666f722060008201527f7468697320666978747572652e00000000000000000000000000000000000000602082015250565b600061492c602d83613af8565b9150614937826148d0565b604082019050919050565b6000602082019050818103600083015261495b8161491f565b9050919050565b60008190508160005260206000209050919050565b600081546149848161425f565b61498e81866140b9565b945060018216600081146149a957600181146149ba576149ed565b60ff198316865281860193506149ed565b6149c385614962565b60005b838110156149e5578154818901526001820191506020810190506149c6565b838801955050505b50505092915050565b6000614a028285614977565b9150614a0e82846140c4565b91508190509392505050565b60006040820190508181036000830152614a348185613b3c565b90508181036020830152614a488184613b3c565b90509392505050565b7f4f6e6c792063616c6c61626c65206279206f776e657200000000000000000000600082015250565b6000614a87601683613af8565b9150614a9282614a51565b602082019050919050565b60006020820190508181036000830152614ab681614a7a565b9050919050565b60006040820190508181036000830152614ad78185613b3c565b9050614ae66020830184614065565b9392505050565b7f536f75726365206d75737420626520746865206f7261636c65206f662074686560008201527f2072657175657374000000000000000000000000000000000000000000000000602082015250565b6000614b49602883613af8565b9150614b5482614aed565b604082019050919050565b60006020820190508181036000830152614b7881614b3c565b9050919050565b60006060820190508181036000830152614b998186613b3c565b90508181036020830152614bad8185613b3c565b9050614bbc6040830184613d7c565b949350505050565b7f4e487b7100000000000000000000000000000000000000000000000000000000600052603260045260246000fd5b6000614bfe82613c18565b91507fffffffffffffffffffffffffffffffffffffffffffffffffffffffffffffffff821415614c3157614c3061438f565b5b600182019050919050565b7f43616e6e6f74207472616e7366657220746f2073656c66000000000000000000600082015250565b6000614c72601783613af8565b9150614c7d82614c3c565b602082019050919050565b60006020820190508181036000830152614ca181614c65565b9050919050565b60006040820190508181036000830152614cc28185613b3c565b9050614cd16020830184613d7c565b9392505050565b60007fffffffff0000000000000000000000000000000000000000000000000000000082169050919050565b614d0d81614cd8565b82525050565b600081519050919050565b600082825260208201905092915050565b6000614d3a82614d13565b614d448185614d1e565b9350614d54818560208601613b09565b614d5d81613905565b840191505092915050565b600061010082019050614d7e600083018b613f3d565b614d8b602083018a613d7c565b614d98604083018961408f565b614da56060830188613f3d565b614db26080830187614d04565b614dbf60a0830186613d7c565b614dcc60c0830185613d7c565b81810360e0830152614dde8184614d2f565b90509998505050505050505050565b7f4572726f72206f6e206669787475726520000000000000000000000000000000815250565b7f3a20556e6b6e6f776e20726573756c742066726f6d204150493a200000000000815250565b6000614e4482614ded565b601182019150614e5482856140c4565b9150614e5f82614e13565b601b82019150614e6f82846140c4565b91508190509392505050565b7f4669787475726520626574207374617465206973206e6f742046554c46494c4c60008201527f494e472e00000000000000000000000000000000000000000000000000000000602082015250565b6000614ed7602483613af8565b9150614ee282614e7b565b604082019050919050565b60006020820190508181036000830152614f0681614eca565b9050919050565b7f4e487b7100000000000000000000000000000000000000000000000000000000600052601260045260246000fd5b6000614f4782613c18565b9150614f5283613c18565b925082614f6257614f61614f0d565b5b828204905092915050565b6000614f7882613c18565b9150614f8383613c18565b9250817fffffffffffffffffffffffffffffffffffffffffffffffffffffffffffffffff0483118215151615614fbc57614fbb61438f565b5b828202905092915050565b6000614fd282613c18565b9150614fdd83613c18565b925082614fed57614fec614f0d565b5b828206905092915050565b6000819050919050565b600061501d61501861501384613f0b565b614ff8565b613f0b565b9050919050565b600061502f82615002565b9050919050565b600061504182615024565b9050919050565b60008160601b9050919050565b600061506082615048565b9050919050565b600061507282615055565b9050919050565b61508a61508582615036565b615067565b82525050565b6000819050919050565b6150ab6150a682613c18565b615090565b82525050565b60006150bd8285615079565b6014820191506150cd828461509a565b6020820191508190509392505050565b60006060820190506150f26000830186613f3d565b6150ff6020830185613d7c565b81810360408301526151118184614d2f565b9050949350505050565b7f756e61626c6520746f207472616e73666572416e6443616c6c20746f206f726160008201527f636c650000000000000000000000000000000000000000000000000000000000602082015250565b6000615177602383613af8565b91506151828261511b565b604082019050919050565b600060208201905081810360008301526151a68161516a565b9050919050565b60008160011c9050919050565b6000808291508390505b6001851115615204578086048111156151e0576151df61438f565b5b60018516156151ef5780820291505b80810290506151fd856151ad565b94506151c4565b94509492505050565b60008261521d57600190506152d9565b8161522b57600090506152d9565b8160018114615241576002811461524b5761527a565b60019150506152d9565b60ff84111561525d5761525c61438f565b5b8360020a9150848211156152745761527361438f565b5b506152d9565b5060208310610133831016604e8410600b84101617156152af5782820a9050838111156152aa576152a961438f565b5b6152d9565b6152bc84848460016151ba565b925090508184048111156152d3576152d261438f565b5b81810290505b9392505050565b60006152eb82613c18565b91506152f683613c18565b92506153237fffffffffffffffffffffffffffffffffffffffffffffffffffffffffffffffff848461520d565b90509291505056fea26469706673582212200abe2198281c31393548d1e9e4f934df4e24bbe00ebfd7d67a8b855876b58cc464736f6c634300080c00334465706c6f79696e6720612053706f72747342657474696e6720776974682073706f727473206f7261636c65205552493a",
  "devdoc": {
    "kind": "dev",
    "methods": {},
    "version": 1
  },
  "userdoc": {
    "kind": "user",
    "methods": {
      "acceptOwnership()": {
        "notice": "Allows an ownership transfer to be completed by the recipient."
      },
      "owner()": {
        "notice": "Get the current owner"
      },
      "requestMultipleParameters(string)": {
        "notice": "Request mutiple parameters from the oracle in a single transaction"
      },
      "transferOwnership(address)": {
        "notice": "Allows an owner to begin transferring ownership to a new address, pending."
      },
      "withdrawLink()": {
        "notice": "Allow withdraw of Link tokens from the contract"
      }
    },
    "version": 1
  },
  "storageLayout": {
    "storage": [
      {
        "astId": 319,
        "contract": "contracts/SportsBetting.sol:SportsBetting",
        "label": "s_ens",
        "offset": 0,
        "slot": "0",
        "type": "t_contract(ENSInterface)1156"
      },
      {
        "astId": 321,
        "contract": "contracts/SportsBetting.sol:SportsBetting",
        "label": "s_ensNode",
        "offset": 0,
        "slot": "1",
        "type": "t_bytes32"
      },
      {
        "astId": 324,
        "contract": "contracts/SportsBetting.sol:SportsBetting",
        "label": "s_link",
        "offset": 0,
        "slot": "2",
        "type": "t_contract(LinkTokenInterface)1251"
      },
      {
        "astId": 327,
        "contract": "contracts/SportsBetting.sol:SportsBetting",
        "label": "s_oracle",
        "offset": 0,
        "slot": "3",
        "type": "t_contract(OperatorInterface)1331"
      },
      {
        "astId": 330,
        "contract": "contracts/SportsBetting.sol:SportsBetting",
        "label": "s_requestCount",
        "offset": 0,
        "slot": "4",
        "type": "t_uint256"
      },
      {
        "astId": 334,
        "contract": "contracts/SportsBetting.sol:SportsBetting",
        "label": "s_pendingRequests",
        "offset": 0,
        "slot": "5",
        "type": "t_mapping(t_bytes32,t_address)"
      },
      {
        "astId": 889,
        "contract": "contracts/SportsBetting.sol:SportsBetting",
        "label": "s_owner",
        "offset": 0,
        "slot": "6",
        "type": "t_address"
      },
      {
        "astId": 891,
        "contract": "contracts/SportsBetting.sol:SportsBetting",
        "label": "s_pendingOwner",
        "offset": 0,
        "slot": "7",
        "type": "t_address"
      },
      {
        "astId": 3713,
        "contract": "contracts/SportsBetting.sol:SportsBetting",
        "label": "chainlink",
        "offset": 0,
        "slot": "8",
        "type": "t_address"
      },
      {
        "astId": 3715,
        "contract": "contracts/SportsBetting.sol:SportsBetting",
        "label": "sportsOracleURI",
        "offset": 0,
        "slot": "9",
        "type": "t_string_storage"
      },
      {
        "astId": 3717,
        "contract": "contracts/SportsBetting.sol:SportsBetting",
        "label": "jobId",
        "offset": 0,
        "slot": "10",
        "type": "t_bytes32"
      },
      {
        "astId": 3719,
        "contract": "contracts/SportsBetting.sol:SportsBetting",
        "label": "fee",
        "offset": 0,
        "slot": "11",
        "type": "t_uint256"
      },
      {
        "astId": 3721,
        "contract": "contracts/SportsBetting.sol:SportsBetting",
        "label": "fixtureResult",
        "offset": 0,
        "slot": "12",
        "type": "t_string_storage"
      },
      {
        "astId": 2596,
        "contract": "contracts/SportsBetting.sol:SportsBetting",
        "label": "betTypes",
        "offset": 0,
        "slot": "13",
        "type": "t_array(t_enum(BetType)2519)3_storage"
      },
      {
        "astId": 2601,
        "contract": "contracts/SportsBetting.sol:SportsBetting",
        "label": "entranceFee",
        "offset": 0,
        "slot": "14",
        "type": "t_uint256"
      },
      {
        "astId": 2610,
        "contract": "contracts/SportsBetting.sol:SportsBetting",
        "label": "betAdvanceTime",
        "offset": 0,
        "slot": "15",
        "type": "t_uint256"
      },
      {
        "astId": 2615,
        "contract": "contracts/SportsBetting.sol:SportsBetting",
        "label": "betCutOffTime",
        "offset": 0,
        "slot": "16",
        "type": "t_uint256"
      },
      {
        "astId": 2623,
        "contract": "contracts/SportsBetting.sol:SportsBetting",
        "label": "historicalBetters",
        "offset": 0,
        "slot": "17",
        "type": "t_mapping(t_string_memory_ptr,t_mapping(t_enum(BetType)2519,t_array(t_address)dyn_storage))"
      },
      {
        "astId": 2632,
        "contract": "contracts/SportsBetting.sol:SportsBetting",
        "label": "activeBetters",
        "offset": 0,
        "slot": "18",
        "type": "t_mapping(t_string_memory_ptr,t_mapping(t_enum(BetType)2519,t_mapping(t_address,t_bool)))"
      },
      {
        "astId": 2641,
        "contract": "contracts/SportsBetting.sol:SportsBetting",
        "label": "amounts",
        "offset": 0,
        "slot": "19",
        "type": "t_mapping(t_string_memory_ptr,t_mapping(t_enum(BetType)2519,t_mapping(t_address,t_uint256)))"
      },
      {
        "astId": 2647,
        "contract": "contracts/SportsBetting.sol:SportsBetting",
        "label": "obligations",
        "offset": 0,
        "slot": "20",
        "type": "t_mapping(t_string_memory_ptr,t_mapping(t_address,t_uint256))"
      },
      {
        "astId": 2652,
        "contract": "contracts/SportsBetting.sol:SportsBetting",
        "label": "bettingState",
        "offset": 0,
        "slot": "21",
        "type": "t_mapping(t_string_memory_ptr,t_enum(BettingState)2525)"
      },
      {
        "astId": 2656,
        "contract": "contracts/SportsBetting.sol:SportsBetting",
        "label": "fixtureToKickoffTime",
        "offset": 0,
        "slot": "22",
        "type": "t_mapping(t_string_memory_ptr,t_uint256)"
      },
      {
        "astId": 2660,
        "contract": "contracts/SportsBetting.sol:SportsBetting",
        "label": "requestToFixture",
        "offset": 0,
        "slot": "23",
        "type": "t_mapping(t_bytes32,t_string_storage)"
      }
    ],
    "types": {
      "t_address": {
        "encoding": "inplace",
        "label": "address",
        "numberOfBytes": "20"
      },
      "t_array(t_address)dyn_storage": {
        "base": "t_address",
        "encoding": "dynamic_array",
        "label": "address[]",
        "numberOfBytes": "32"
      },
      "t_array(t_enum(BetType)2519)3_storage": {
        "base": "t_enum(BetType)2519",
        "encoding": "inplace",
        "label": "enum SportsBetting.BetType[3]",
        "numberOfBytes": "32"
      },
      "t_bool": {
        "encoding": "inplace",
        "label": "bool",
        "numberOfBytes": "1"
      },
      "t_bytes32": {
        "encoding": "inplace",
        "label": "bytes32",
        "numberOfBytes": "32"
      },
      "t_contract(ENSInterface)1156": {
        "encoding": "inplace",
        "label": "contract ENSInterface",
        "numberOfBytes": "20"
      },
      "t_contract(LinkTokenInterface)1251": {
        "encoding": "inplace",
        "label": "contract LinkTokenInterface",
        "numberOfBytes": "20"
      },
      "t_contract(OperatorInterface)1331": {
        "encoding": "inplace",
        "label": "contract OperatorInterface",
        "numberOfBytes": "20"
      },
      "t_enum(BetType)2519": {
        "encoding": "inplace",
        "label": "enum SportsBetting.BetType",
        "numberOfBytes": "1"
      },
      "t_enum(BettingState)2525": {
        "encoding": "inplace",
        "label": "enum SportsBetting.BettingState",
        "numberOfBytes": "1"
      },
      "t_mapping(t_address,t_bool)": {
        "encoding": "mapping",
        "key": "t_address",
        "label": "mapping(address => bool)",
        "numberOfBytes": "32",
        "value": "t_bool"
      },
      "t_mapping(t_address,t_uint256)": {
        "encoding": "mapping",
        "key": "t_address",
        "label": "mapping(address => uint256)",
        "numberOfBytes": "32",
        "value": "t_uint256"
      },
      "t_mapping(t_bytes32,t_address)": {
        "encoding": "mapping",
        "key": "t_bytes32",
        "label": "mapping(bytes32 => address)",
        "numberOfBytes": "32",
        "value": "t_address"
      },
      "t_mapping(t_bytes32,t_string_storage)": {
        "encoding": "mapping",
        "key": "t_bytes32",
        "label": "mapping(bytes32 => string)",
        "numberOfBytes": "32",
        "value": "t_string_storage"
      },
      "t_mapping(t_enum(BetType)2519,t_array(t_address)dyn_storage)": {
        "encoding": "mapping",
        "key": "t_enum(BetType)2519",
        "label": "mapping(enum SportsBetting.BetType => address[])",
        "numberOfBytes": "32",
        "value": "t_array(t_address)dyn_storage"
      },
      "t_mapping(t_enum(BetType)2519,t_mapping(t_address,t_bool))": {
        "encoding": "mapping",
        "key": "t_enum(BetType)2519",
        "label": "mapping(enum SportsBetting.BetType => mapping(address => bool))",
        "numberOfBytes": "32",
        "value": "t_mapping(t_address,t_bool)"
      },
      "t_mapping(t_enum(BetType)2519,t_mapping(t_address,t_uint256))": {
        "encoding": "mapping",
        "key": "t_enum(BetType)2519",
        "label": "mapping(enum SportsBetting.BetType => mapping(address => uint256))",
        "numberOfBytes": "32",
        "value": "t_mapping(t_address,t_uint256)"
      },
      "t_mapping(t_string_memory_ptr,t_enum(BettingState)2525)": {
        "encoding": "mapping",
        "key": "t_string_memory_ptr",
        "label": "mapping(string => enum SportsBetting.BettingState)",
        "numberOfBytes": "32",
        "value": "t_enum(BettingState)2525"
      },
      "t_mapping(t_string_memory_ptr,t_mapping(t_address,t_uint256))": {
        "encoding": "mapping",
        "key": "t_string_memory_ptr",
        "label": "mapping(string => mapping(address => uint256))",
        "numberOfBytes": "32",
        "value": "t_mapping(t_address,t_uint256)"
      },
      "t_mapping(t_string_memory_ptr,t_mapping(t_enum(BetType)2519,t_array(t_address)dyn_storage))": {
        "encoding": "mapping",
        "key": "t_string_memory_ptr",
        "label": "mapping(string => mapping(enum SportsBetting.BetType => address[]))",
        "numberOfBytes": "32",
        "value": "t_mapping(t_enum(BetType)2519,t_array(t_address)dyn_storage)"
      },
      "t_mapping(t_string_memory_ptr,t_mapping(t_enum(BetType)2519,t_mapping(t_address,t_bool)))": {
        "encoding": "mapping",
        "key": "t_string_memory_ptr",
        "label": "mapping(string => mapping(enum SportsBetting.BetType => mapping(address => bool)))",
        "numberOfBytes": "32",
        "value": "t_mapping(t_enum(BetType)2519,t_mapping(t_address,t_bool))"
      },
      "t_mapping(t_string_memory_ptr,t_mapping(t_enum(BetType)2519,t_mapping(t_address,t_uint256)))": {
        "encoding": "mapping",
        "key": "t_string_memory_ptr",
        "label": "mapping(string => mapping(enum SportsBetting.BetType => mapping(address => uint256)))",
        "numberOfBytes": "32",
        "value": "t_mapping(t_enum(BetType)2519,t_mapping(t_address,t_uint256))"
      },
      "t_mapping(t_string_memory_ptr,t_uint256)": {
        "encoding": "mapping",
        "key": "t_string_memory_ptr",
        "label": "mapping(string => uint256)",
        "numberOfBytes": "32",
        "value": "t_uint256"
      },
      "t_string_memory_ptr": {
        "encoding": "bytes",
        "label": "string",
        "numberOfBytes": "32"
      },
      "t_string_storage": {
        "encoding": "bytes",
        "label": "string",
        "numberOfBytes": "32"
      },
      "t_uint256": {
        "encoding": "inplace",
        "label": "uint256",
        "numberOfBytes": "32"
      }
    }
  }
}