{
  "address": "0x5210094f749a7Bf9326d1eCf40950cacC7d6DB33",
  "abi": [
    {
      "inputs": [
        {
          "internalType": "string",
          "name": "_sportsOracleURI",
          "type": "string"
        },
        {
          "internalType": "address",
          "name": "_oracle",
          "type": "address"
        },
        {
          "internalType": "address",
          "name": "_link",
          "type": "address"
        },
        {
          "internalType": "bytes32",
          "name": "_jobId",
          "type": "bytes32"
        },
        {
          "internalType": "uint256",
          "name": "_fee",
          "type": "uint256"
        }
      ],
      "stateMutability": "nonpayable",
      "type": "constructor"
    },
    {
      "anonymous": false,
      "inputs": [
        {
          "indexed": true,
          "internalType": "address",
          "name": "better",
          "type": "address"
        },
        {
          "indexed": false,
          "internalType": "string",
          "name": "fixtureID",
          "type": "string"
        },
        {
          "indexed": false,
          "internalType": "uint256",
          "name": "amount",
          "type": "uint256"
        }
      ],
      "name": "BetPayout",
      "type": "event"
    },
    {
      "anonymous": false,
      "inputs": [
        {
          "indexed": false,
          "internalType": "string",
          "name": "fixtureID",
          "type": "string"
        },
        {
          "indexed": false,
          "internalType": "string",
          "name": "reason",
          "type": "string"
        }
      ],
      "name": "BetPayoutFulfillmentError",
      "type": "event"
    },
    {
      "anonymous": false,
      "inputs": [
        {
          "indexed": true,
          "internalType": "address",
          "name": "better",
          "type": "address"
        },
        {
          "indexed": false,
          "internalType": "string",
          "name": "fixtureID",
          "type": "string"
        },
        {
          "indexed": false,
          "internalType": "uint256",
          "name": "amount",
          "type": "uint256"
        },
        {
          "indexed": false,
          "internalType": "enum SportsBetting.BetType",
          "name": "betType",
          "type": "uint8"
        }
      ],
      "name": "BetStaked",
      "type": "event"
    },
    {
      "anonymous": false,
      "inputs": [
        {
          "indexed": true,
          "internalType": "address",
          "name": "better",
          "type": "address"
        },
        {
          "indexed": false,
          "internalType": "string",
          "name": "fixtureID",
          "type": "string"
        },
        {
          "indexed": false,
          "internalType": "uint256",
          "name": "amount",
          "type": "uint256"
        },
        {
          "indexed": false,
          "internalType": "enum SportsBetting.BetType",
          "name": "betType",
          "type": "uint8"
        }
      ],
      "name": "BetUnstaked",
      "type": "event"
    },
    {
      "anonymous": false,
      "inputs": [
        {
          "indexed": false,
          "internalType": "string",
          "name": "fixtureID",
          "type": "string"
        },
        {
          "indexed": false,
          "internalType": "enum SportsBetting.BettingState",
          "name": "state",
          "type": "uint8"
        }
      ],
      "name": "BettingStateChanged",
      "type": "event"
    },
    {
      "anonymous": false,
      "inputs": [
        {
          "indexed": true,
          "internalType": "bytes32",
          "name": "id",
          "type": "bytes32"
        }
      ],
      "name": "ChainlinkCancelled",
      "type": "event"
    },
    {
      "anonymous": false,
      "inputs": [
        {
          "indexed": true,
          "internalType": "bytes32",
          "name": "id",
          "type": "bytes32"
        }
      ],
      "name": "ChainlinkFulfilled",
      "type": "event"
    },
    {
      "anonymous": false,
      "inputs": [
        {
          "indexed": true,
          "internalType": "bytes32",
          "name": "id",
          "type": "bytes32"
        }
      ],
      "name": "ChainlinkRequested",
      "type": "event"
    },
    {
      "anonymous": false,
      "inputs": [
        {
          "indexed": false,
          "internalType": "string",
          "name": "fixtureID",
          "type": "string"
        },
        {
          "indexed": false,
          "internalType": "uint256",
          "name": "kickoffTime",
          "type": "uint256"
        }
      ],
      "name": "KickoffTimeUpdated",
      "type": "event"
    },
    {
      "anonymous": false,
      "inputs": [
        {
          "indexed": true,
          "internalType": "bytes32",
          "name": "requestId",
          "type": "bytes32"
        },
        {
          "indexed": false,
          "internalType": "string",
          "name": "fixtureID",
          "type": "string"
        },
        {
          "indexed": false,
          "internalType": "uint256",
          "name": "kickoff",
          "type": "uint256"
        }
      ],
      "name": "RequestFixtureKickoffFulfilled",
      "type": "event"
    },
    {
      "anonymous": false,
      "inputs": [
        {
          "indexed": true,
          "internalType": "bytes32",
          "name": "requestId",
          "type": "bytes32"
        },
        {
          "indexed": false,
          "internalType": "string",
          "name": "fixtureID",
          "type": "string"
        },
        {
          "indexed": false,
          "internalType": "uint256",
          "name": "result",
          "type": "uint256"
        }
      ],
      "name": "RequestFixtureResultFulfilled",
      "type": "event"
    },
    {
      "anonymous": false,
      "inputs": [
        {
          "indexed": true,
          "internalType": "bytes32",
          "name": "requestId",
          "type": "bytes32"
        },
        {
          "indexed": false,
          "internalType": "string",
          "name": "fixtureID",
          "type": "string"
        }
      ],
      "name": "RequestedFixtureKickoff",
      "type": "event"
    },
    {
      "anonymous": false,
      "inputs": [
        {
          "indexed": true,
          "internalType": "bytes32",
          "name": "requestId",
          "type": "bytes32"
        },
        {
          "indexed": false,
          "internalType": "string",
          "name": "fixtureID",
          "type": "string"
        }
      ],
      "name": "RequestedFixtureResult",
      "type": "event"
    },
    {
      "inputs": [
        {
          "internalType": "string",
          "name": "",
          "type": "string"
        },
        {
          "internalType": "enum SportsBetting.BetType",
          "name": "",
          "type": "uint8"
        },
        {
          "internalType": "address",
          "name": "",
          "type": "address"
        }
      ],
      "name": "activeBetters",
      "outputs": [
        {
          "internalType": "bool",
          "name": "",
          "type": "bool"
        }
      ],
      "stateMutability": "view",
      "type": "function"
    },
    {
      "inputs": [
        {
          "internalType": "string",
          "name": "",
          "type": "string"
        },
        {
          "internalType": "enum SportsBetting.BetType",
          "name": "",
          "type": "uint8"
        },
        {
          "internalType": "address",
          "name": "",
          "type": "address"
        }
      ],
      "name": "amounts",
      "outputs": [
        {
          "internalType": "uint256",
          "name": "",
          "type": "uint256"
        }
      ],
      "stateMutability": "view",
      "type": "function"
    },
    {
      "inputs": [
        {
          "internalType": "string",
          "name": "fixtureID",
          "type": "string"
        }
      ],
      "name": "awaitBetForFixture",
      "outputs": [],
      "stateMutability": "nonpayable",
      "type": "function"
    },
    {
      "inputs": [],
      "name": "betAdvanceTime",
      "outputs": [
        {
          "internalType": "uint256",
          "name": "",
          "type": "uint256"
        }
      ],
      "stateMutability": "view",
      "type": "function"
    },
    {
      "inputs": [],
      "name": "betCutOffTime",
      "outputs": [
        {
          "internalType": "uint256",
          "name": "",
          "type": "uint256"
        }
      ],
      "stateMutability": "view",
      "type": "function"
    },
    {
      "inputs": [
        {
          "internalType": "uint256",
          "name": "",
          "type": "uint256"
        }
      ],
      "name": "betTypes",
      "outputs": [
        {
          "internalType": "enum SportsBetting.BetType",
          "name": "",
          "type": "uint8"
        }
      ],
      "stateMutability": "view",
      "type": "function"
    },
    {
      "inputs": [
        {
          "internalType": "string",
          "name": "",
          "type": "string"
        }
      ],
      "name": "bettingState",
      "outputs": [
        {
          "internalType": "enum SportsBetting.BettingState",
          "name": "",
          "type": "uint8"
        }
      ],
      "stateMutability": "view",
      "type": "function"
    },
    {
      "inputs": [],
      "name": "chainlink",
      "outputs": [
        {
          "internalType": "address",
          "name": "",
          "type": "address"
        }
      ],
      "stateMutability": "view",
      "type": "function"
    },
    {
      "inputs": [
        {
          "internalType": "string",
          "name": "fixtureID",
          "type": "string"
        }
      ],
      "name": "closeBetForFixture",
      "outputs": [],
      "stateMutability": "nonpayable",
      "type": "function"
    },
    {
      "inputs": [],
      "name": "entranceFee",
      "outputs": [
        {
          "internalType": "uint256",
          "name": "",
          "type": "uint256"
        }
      ],
      "stateMutability": "view",
      "type": "function"
    },
    {
      "inputs": [],
      "name": "fixtureResult",
      "outputs": [
        {
          "internalType": "string",
          "name": "",
          "type": "string"
        }
      ],
      "stateMutability": "view",
      "type": "function"
    },
    {
      "inputs": [
        {
          "internalType": "string",
          "name": "",
          "type": "string"
        }
      ],
      "name": "fixtureToKickoffTime",
      "outputs": [
        {
          "internalType": "uint256",
          "name": "",
          "type": "uint256"
        }
      ],
      "stateMutability": "view",
      "type": "function"
    },
    {
      "inputs": [
        {
          "internalType": "string",
          "name": "fixtureID",
          "type": "string"
        }
      ],
      "name": "fulfillBetForFixture",
      "outputs": [],
      "stateMutability": "nonpayable",
      "type": "function"
    },
    {
      "inputs": [
        {
          "internalType": "string",
          "name": "fixtureID",
          "type": "string"
        },
        {
          "internalType": "address",
          "name": "user",
          "type": "address"
        }
      ],
      "name": "getEnrichedFixtureData",
      "outputs": [
        {
          "components": [
            {
              "internalType": "enum SportsBetting.BettingState",
              "name": "fixtureState",
              "type": "uint8"
            },
            {
              "internalType": "uint256[3]",
              "name": "total",
              "type": "uint256[3]"
            },
            {
              "internalType": "uint256[3]",
              "name": "user",
              "type": "uint256[3]"
            }
          ],
          "internalType": "struct SportsBetting.FixtureEnrichment",
          "name": "",
          "type": "tuple"
        }
      ],
      "stateMutability": "view",
      "type": "function"
    },
    {
      "inputs": [
        {
          "internalType": "string",
          "name": "",
          "type": "string"
        },
        {
          "internalType": "enum SportsBetting.BetType",
          "name": "",
          "type": "uint8"
        },
        {
          "internalType": "uint256",
          "name": "",
          "type": "uint256"
        }
      ],
      "name": "historicalBetters",
      "outputs": [
        {
          "internalType": "address",
          "name": "",
          "type": "address"
        }
      ],
      "stateMutability": "view",
      "type": "function"
    },
    {
      "inputs": [
        {
          "internalType": "string",
          "name": "",
          "type": "string"
        },
        {
          "internalType": "enum SportsBetting.BetType",
          "name": "",
          "type": "uint8"
        },
        {
          "internalType": "address",
          "name": "",
          "type": "address"
        }
      ],
      "name": "historicalBettersIndex",
      "outputs": [
        {
          "internalType": "uint256",
          "name": "",
          "type": "uint256"
        }
      ],
      "stateMutability": "view",
      "type": "function"
    },
    {
      "inputs": [
        {
          "internalType": "string",
          "name": "",
          "type": "string"
        },
        {
          "internalType": "address",
          "name": "",
          "type": "address"
        }
      ],
      "name": "obligations",
      "outputs": [
        {
          "internalType": "uint256",
          "name": "",
          "type": "uint256"
        }
      ],
      "stateMutability": "view",
      "type": "function"
    },
    {
      "inputs": [
        {
          "internalType": "string",
          "name": "fixtureID",
          "type": "string"
        }
      ],
      "name": "openBetForFixture",
      "outputs": [],
      "stateMutability": "nonpayable",
      "type": "function"
    },
    {
      "inputs": [],
      "name": "owner",
      "outputs": [
        {
          "internalType": "address payable",
          "name": "",
          "type": "address"
        }
      ],
      "stateMutability": "view",
      "type": "function"
    },
    {
      "inputs": [
        {
          "internalType": "bytes32",
          "name": "_requestId",
          "type": "bytes32"
        },
        {
          "internalType": "uint256",
          "name": "_ko",
          "type": "uint256"
        }
      ],
      "name": "rawFulfillFixtureKickoffTime",
      "outputs": [],
      "stateMutability": "nonpayable",
      "type": "function"
    },
    {
      "inputs": [
        {
          "internalType": "bytes32",
          "name": "_requestId",
          "type": "bytes32"
        },
        {
          "internalType": "uint256",
          "name": "_result",
          "type": "uint256"
        }
      ],
      "name": "rawFulfillFixtureResult",
      "outputs": [],
      "stateMutability": "nonpayable",
      "type": "function"
    },
    {
      "inputs": [
        {
          "internalType": "string",
          "name": "fixtureID",
          "type": "string"
        }
      ],
      "name": "requestFixtureKickoffTime",
      "outputs": [],
      "stateMutability": "nonpayable",
      "type": "function"
    },
    {
      "inputs": [
        {
          "internalType": "string",
          "name": "fixtureID",
          "type": "string"
        }
      ],
      "name": "requestFixtureKickoffTimeParameter",
      "outputs": [
        {
          "internalType": "bytes32",
          "name": "",
          "type": "bytes32"
        }
      ],
      "stateMutability": "nonpayable",
      "type": "function"
    },
    {
      "inputs": [
        {
          "internalType": "string",
          "name": "fixtureID",
          "type": "string"
        }
      ],
      "name": "requestFixtureResult",
      "outputs": [],
      "stateMutability": "nonpayable",
      "type": "function"
    },
    {
      "inputs": [
        {
          "internalType": "string",
          "name": "fixtureID",
          "type": "string"
        }
      ],
      "name": "requestFixtureResultParameter",
      "outputs": [
        {
          "internalType": "bytes32",
          "name": "",
          "type": "bytes32"
        }
      ],
      "stateMutability": "nonpayable",
      "type": "function"
    },
    {
      "inputs": [
        {
          "internalType": "bytes32",
          "name": "",
          "type": "bytes32"
        }
      ],
      "name": "requestKickoffToFixture",
      "outputs": [
        {
          "internalType": "string",
          "name": "",
          "type": "string"
        }
      ],
      "stateMutability": "view",
      "type": "function"
    },
    {
      "inputs": [
        {
          "internalType": "bytes32",
          "name": "",
          "type": "bytes32"
        }
      ],
      "name": "requestResultToFixture",
      "outputs": [
        {
          "internalType": "string",
          "name": "",
          "type": "string"
        }
      ],
      "stateMutability": "view",
      "type": "function"
    },
    {
      "inputs": [],
      "name": "sportsOracleURI",
      "outputs": [
        {
          "internalType": "string",
          "name": "",
          "type": "string"
        }
      ],
      "stateMutability": "view",
      "type": "function"
    },
    {
      "inputs": [
        {
          "internalType": "string",
          "name": "fixtureID",
          "type": "string"
        },
        {
          "internalType": "enum SportsBetting.BetType",
          "name": "betType",
          "type": "uint8"
        }
      ],
      "name": "stake",
      "outputs": [],
      "stateMutability": "payable",
      "type": "function"
    },
    {
      "inputs": [
        {
          "internalType": "uint256",
          "name": "amount",
          "type": "uint256"
        }
      ],
      "name": "transferLink",
      "outputs": [],
      "stateMutability": "nonpayable",
      "type": "function"
    },
    {
      "inputs": [
        {
          "internalType": "string",
          "name": "fixtureID",
          "type": "string"
        },
        {
          "internalType": "enum SportsBetting.BetType",
          "name": "betType",
          "type": "uint8"
        },
        {
          "internalType": "uint256",
          "name": "amount",
          "type": "uint256"
        }
      ],
      "name": "unstake",
      "outputs": [],
      "stateMutability": "nonpayable",
      "type": "function"
    },
    {
      "inputs": [
        {
          "internalType": "address",
          "name": "",
          "type": "address"
        }
      ],
      "name": "userToLink",
      "outputs": [
        {
          "internalType": "uint256",
          "name": "",
          "type": "uint256"
        }
      ],
      "stateMutability": "view",
      "type": "function"
    },
    {
      "inputs": [
        {
          "internalType": "uint256",
          "name": "amount",
          "type": "uint256"
        }
      ],
      "name": "withdrawLink",
      "outputs": [],
      "stateMutability": "nonpayable",
      "type": "function"
    }
  ],
  "transactionHash": "0xa3a786d52df2023f6b6f8250d8cf92689c258ebe340f9a1bde665617285a079b",
  "args": [
    "https://1vyuff64d9.execute-api.us-east-1.amazonaws.com/dev/premier-league/fixtures/",
    "0xcc79157eb46f5624204f47ab42b3906caa40eab7",
    "0x326C977E6efc84E512bB9C30f76E30c160eD06FB",
    "0x6361393833363663633733313439353762386330313263373266303561656562",
    "100000000000000000"
  ],
  "numDeployments": 18,
  "solcInputHash": "40780f4a0cf01b3f43f6e7ea40155b7c",
  "bytecode": "0x60806040526001600455655af3107a4000600e5562093a80600f556115186010553480156200002d57600080fd5b50604051620044c6380380620044c68339810160408190526200005091620001d6565b848484848484600890805190602001906200006d929190620000fd565b50600280546001600160a01b03199081166001600160a01b039586161790915560038054821695909416948517909355600780548416909417909355507f6361393833363663633733313439353762386330313263373266303561656562600955600a9190915560068054909116331790555050600d805462ffffff191662020100179055506200032992505050565b8280546200010b90620002ec565b90600052602060002090601f0160209004810192826200012f57600085556200017a565b82601f106200014a57805160ff19168380011785556200017a565b828001600101855582156200017a579182015b828111156200017a5782518255916020019190600101906200015d565b50620001889291506200018c565b5090565b5b808211156200018857600081556001016200018d565b634e487b7160e01b600052604160045260246000fd5b80516001600160a01b0381168114620001d157600080fd5b919050565b600080600080600060a08688031215620001ef57600080fd5b85516001600160401b03808211156200020757600080fd5b818801915088601f8301126200021c57600080fd5b815181811115620002315762000231620001a3565b604051601f8201601f19908116603f011681019083821181831017156200025c576200025c620001a3565b81604052828152602093508b848487010111156200027957600080fd5b600091505b828210156200029d57848201840151818301850152908301906200027e565b82821115620002af5760008484830101525b9850620002c1915050888201620001b9565b95505050620002d360408701620001b9565b6060870151608090970151959894975095949392505050565b600181811c908216806200030157607f821691505b602082108114156200032357634e487b7160e01b600052602260045260246000fd5b50919050565b61418d80620003396000396000f3fe6080604052600436106101fd5760003560e01c80638da5cb5b1161011d578063c8fe739c116100b0578063edb160701161007f578063f46dccf011610064578063f46dccf0146106ca578063f7c60c0c146106ea578063fbe91393146106ff57600080fd5b8063edb1607014610672578063ef40efde146106aa57600080fd5b8063c8fe739c146105b1578063cbef85c2146105d1578063d8654c0814610632578063e37685ec1461065257600080fd5b8063abf949f8116100ec578063abf949f8146104fa578063b148cdf114610527578063bae22f9514610549578063c40bc66b1461059157600080fd5b80638da5cb5b146104345780639959a30f1461046c5780639c3feeb71461048c578063aa066090146104ac57600080fd5b80635ec421a711610195578063793970e111610164578063793970e1146103b45780637a8042bd146103d45780637cc2c2f8146103f45780638a71bfa81461041457600080fd5b80635ec421a71461030357806362098ff714610351578063649677e11461037e5780636e2a3a841461039457600080fd5b806339ea0791116101d157806339ea07911461028d57806340364d11146102ba5780634bfc91ee146102cd5780635e524319146102e357600080fd5b8062e1a75b1461020257806301ec29c914610224578063106246d8146102445780631d686ae41461026d575b600080fd5b34801561020e57600080fd5b5061022261021d366004613907565b610747565b005b34801561023057600080fd5b5061022261023f366004613907565b6107e6565b34801561025057600080fd5b5061025a600f5481565b6040519081526020015b60405180910390f35b34801561027957600080fd5b5061025a610288366004613907565b610872565b34801561029957600080fd5b5061025a6102a8366004613953565b600c6020526000908152604090205481565b6102226102c836600461397d565b610a35565b3480156102d957600080fd5b5061025a60105481565b3480156102ef57600080fd5b506102226102fe3660046139cb565b610c5a565b34801561030f57600080fd5b5061025a61031e366004613a22565b82516020818501810180516012825292820195820195909520919094528352600091825260408083209093528152205481565b34801561035d57600080fd5b5061037161036c366004613a80565b610d47565b6040516102649190613ac3565b34801561038a57600080fd5b5061025a600e5481565b3480156103a057600080fd5b506102226103af366004613907565b610d71565b3480156103c057600080fd5b506102226103cf366004613907565b610e04565b3480156103e057600080fd5b506102226103ef366004613a80565b610e64565b34801561040057600080fd5b5061022261040f366004613a80565b610fd3565b34801561042057600080fd5b5061022261042f366004613ad1565b6110ee565b34801561044057600080fd5b50600654610454906001600160a01b031681565b6040516001600160a01b039091168152602001610264565b34801561047857600080fd5b50610222610487366004613907565b61120e565b34801561049857600080fd5b50600754610454906001600160a01b031681565b3480156104b857600080fd5b5061025a6104c7366004613a22565b82516020818501810180516014825292820195820195909520919094528352600091825260408083209093528152205481565b34801561050657600080fd5b5061051a610515366004613af3565b61126e565b6040516102649190613b6b565b34801561053357600080fd5b5061053c61130c565b6040516102649190613c02565b34801561055557600080fd5b5061025a610564366004613af3565b81516020818401810180516015825292820194820194909420919093529091526000908152604090205481565b34801561059d57600080fd5b5061053c6105ac366004613a80565b61139a565b3480156105bd57600080fd5b506104546105cc3660046139cb565b6113b3565b3480156105dd57600080fd5b506106226105ec366004613a22565b82516020818501810180516013825292820195820195909520919094528352600091825260408083209093528152205460ff1681565b6040519015158152602001610264565b34801561063e57600080fd5b5061025a61064d366004613907565b611402565b34801561065e57600080fd5b5061022261066d366004613ad1565b611557565b34801561067e57600080fd5b5061025a61068d366004613907565b805160208183018101805160178252928201919093012091525481565b3480156106b657600080fd5b506102226106c5366004613907565b611677565b3480156106d657600080fd5b5061053c6106e5366004613a80565b6116fb565b3480156106f657600080fd5b5061053c611714565b34801561070b57600080fd5b5061073a61071a366004613907565b805160208183018101805160168252928201919093012091525460ff1681565b6040516102649190613c15565b60006016826040516107599190613c3f565b9081526040519081900360200190205460ff16600581111561077d5761077d613a99565b146107cf5760405162461bcd60e51b815260206004820152601960248201527f426574207374617465206d75737420626520434c4f5345442e0000000000000060448201526064015b60405180910390fd5b6107da816001611721565b6107e38161120e565b50565b60026016826040516107f89190613c3f565b9081526040519081900360200190205460ff16600581111561081c5761081c613a99565b146108695760405162461bcd60e51b815260206004820152601760248201527f426574207374617465206d757374206265204f50454e2e00000000000000000060448201526064016107c6565b6107e3816117df565b600a54336000908152600c60205260408120549091106108d45760405162461bcd60e51b815260206004820152601d60248201527f596f7520686176656e27742073656e7420656e6f756768204c494e4b2e00000060448201526064016107c6565b600a54336000908152600c6020526040812080549091906108f6908490613c71565b909155505060095460009061092c90307fe37685ec00000000000000000000000000000000000000000000000000000000611a07565b90506109796040518060400160405280600381526020016219d95d60ea1b815250600885604051602001610961929190613cbd565b60408051601f19818403018152919052839190611a9a565b6109df604051806040016040528060048152602001630e0c2e8d60e31b8152506040518060400160405280600481526020017f302c6b6f0000000000000000000000000000000000000000000000000000000081525083611a9a9092919063ffffffff16565b60408051808201909152600581527f74696d65730000000000000000000000000000000000000000000000000000006020820152610a209082906001611ab8565b610a2c81600a54611ad6565b9150505b919050565b610a3e826117df565b6002601683604051610a509190613c3f565b9081526040519081900360200190205460ff166005811115610a7457610a74613a99565b14610ac15760405162461bcd60e51b815260206004820152601960248201527f426574206163746976697479206973206e6f74206f70656e2e0000000000000060448201526064016107c6565b600e54341015610b135760405162461bcd60e51b815260206004820152601d60248201527f416d6f756e742069732062656c6f7720656e7472616e6365206665652e00000060448201526064016107c6565b34601483604051610b249190613c3f565b90815260200160405180910390206000836002811115610b4657610b46613a99565b6002811115610b5757610b57613a99565b81526020019081526020016000206000336001600160a01b03166001600160a01b031681526020019081526020016000206000828254610b979190613d5b565b90915550610ba89050828233611af0565b6001601383604051610bba9190613c3f565b90815260200160405180910390206000836002811115610bdc57610bdc613a99565b6002811115610bed57610bed613a99565b815260208082019290925260409081016000908120338083529352819020805460ff19169315159390931790925590517f1a48cf6315f5f44cf8ac3a5105296caf8a73f64b40f9a6b7cbf8ba65ca930fd490610c4e90859034908690613d73565b60405180910390a25050565b60008111610caa5760405162461bcd60e51b815260206004820152601a60248201527f416d6f756e742073686f756c6420657863656564207a65726f2e00000000000060448201526064016107c6565b610cb3836117df565b6002601684604051610cc59190613c3f565b9081526040519081900360200190205460ff166005811115610ce957610ce9613a99565b14610d365760405162461bcd60e51b815260206004820152601d60248201527f46697874757265206973206e6f7420696e204f70656e2073746174652e00000060448201526064016107c6565b610d4283838333611c51565b505050565b600d8160038110610d5757600080fd5b60209182820401919006915054906101000a900460ff1681565b6003601682604051610d839190613c3f565b9081526040519081900360200190205460ff166005811115610da757610da7613a99565b14610df45760405162461bcd60e51b815260206004820152601b60248201527f426574207374617465206d757374206265204157414954494e472e000000000060448201526064016107c6565b610dff816004611721565b6107e3815b6000610e0f82611402565b60008181526019602090815260409091208451929350610e3392909185019061372b565b50807f203eeb39bf08702855bb5830b3ec49ea10fb51bde91904739f7c0c3ab41776d583604051610c4e9190613c02565b336000908152600c6020526040902054811115610ec35760405162461bcd60e51b815260206004820152601a60248201527f596f7520646f6e2774206861766520656e6f756768206c696e6b00000000000060448201526064016107c6565b336000908152600c602052604081208054839290610ee2908490613c71565b90915550506002546000906001600160a01b03166040517fa9059cbb000000000000000000000000000000000000000000000000000000008152336004820152602481018490529091506001600160a01b0382169063a9059cbb906044016020604051808303816000875af1158015610f5f573d6000803e3d6000fd5b505050506040513d601f19601f82011682018060405250810190610f839190613d9b565b610fcf5760405162461bcd60e51b815260206004820152601260248201527f556e61626c6520746f207472616e73666572000000000000000000000000000060448201526064016107c6565b5050565b6000610fe76002546001600160a01b031690565b6040517f23b872dd000000000000000000000000000000000000000000000000000000008152336004820152306024820152604481018490529091506001600160a01b038216906323b872dd906064016020604051808303816000875af1158015611056573d6000803e3d6000fd5b505050506040513d601f19601f8201168201806040525081019061107a9190613d9b565b6110c65760405162461bcd60e51b815260206004820152601260248201527f556e61626c6520746f207472616e73666572000000000000000000000000000060448201526064016107c6565b336000908152600c6020526040812080548492906110e5908490613d5b565b90915550505050565b60008281526005602052604090205482906001600160a01b031633146111675760405162461bcd60e51b815260206004820152602860248201527f536f75726365206d75737420626520746865206f7261636c65206f6620746865604482015267081c995c5d595cdd60c21b60648201526084016107c6565b60008181526005602052604080822080546001600160a01b03191690555182917f7cc135e0cebb02c3480ae5d74d377283180a2601f8f644edf7987b009316c63a91a26007546001600160a01b031633146112045760405162461bcd60e51b815260206004820181905260248201527f4f6e6c7920436861696e6c696e6b436c69656e742063616e2066756c66696c6c60448201526064016107c6565b610d428383611f66565b600061121982610872565b6000818152601860209081526040909120845192935061123d92909185019061372b565b50807f45d732f7bcf8bc3eb58d8fd2fe72f5d05aa36dadc20e6c9989abd2a741d81cac83604051610c4e9190613c02565b6112766137af565b60405180606001604052806016856040516112919190613c3f565b9081526040519081900360200190205460ff1660058111156112b5576112b5613a99565b815260200160405180606001604052806112d087600061208a565b81526020016112e087600161208a565b81526020016112f087600261208a565b90528152602001611301858561226d565b905290505b92915050565b6008805461131990613c88565b80601f016020809104026020016040519081016040528092919081815260200182805461134590613c88565b80156113925780601f1061136757610100808354040283529160200191611392565b820191906000526020600020905b81548152906001019060200180831161137557829003601f168201915b505050505081565b6018602052600090815260409020805461131990613c88565b82516020818501810180516011825292820182870120929052526000828152604090208054829081106113e557600080fd5b6000918252602090912001546001600160a01b0316925083915050565b600a54336000908152600c60205260408120549091106114645760405162461bcd60e51b815260206004820152601d60248201527f596f7520686176656e27742073656e7420656e6f756768204c494e4b2e00000060448201526064016107c6565b600a54336000908152600c602052604081208054909190611486908490613c71565b90915550506009546000906114bc90307f8a71bfa800000000000000000000000000000000000000000000000000000000611a07565b90506114f16040518060400160405280600381526020016219d95d60ea1b815250600885604051602001610961929190613cbd565b6109df604051806040016040528060048152602001630e0c2e8d60e31b8152506040518060400160405280600881526020017f302c726573756c7400000000000000000000000000000000000000000000000081525083611a9a9092919063ffffffff16565b60008281526005602052604090205482906001600160a01b031633146115d05760405162461bcd60e51b815260206004820152602860248201527f536f75726365206d75737420626520746865206f7261636c65206f6620746865604482015267081c995c5d595cdd60c21b60648201526084016107c6565b60008181526005602052604080822080546001600160a01b03191690555182917f7cc135e0cebb02c3480ae5d74d377283180a2601f8f644edf7987b009316c63a91a26007546001600160a01b0316331461166d5760405162461bcd60e51b815260206004820181905260248201527f4f6e6c7920436861696e6c696e6b436c69656e742063616e2066756c66696c6c60448201526064016107c6565b610d428383612353565b60006016826040516116899190613c3f565b9081526040519081900360200190205460ff1660058111156116ad576116ad613a99565b14156108695760405162461bcd60e51b815260206004820152601c60248201527f42657420737461746520697320616c726561647920434c4f5345442e0000000060448201526064016107c6565b6019602052600090815260409020805461131990613c88565b600b805461131990613c88565b806016836040516117329190613c3f565b908152604051908190036020019020805460ff1916600183600581111561175b5761175b613a99565b02179055507fe10ba6722d7a7a91bf343a0f8e5b026910dbc4a2ebca276930dff31703c59a708282604051611791929190613dbd565b60405180910390a160028160058111156117ad576117ad613a99565b14156117bc57610fcf82612439565b60008160058111156117d0576117d0613a99565b1415610fcf57610fcf82612489565b60006017826040516117f19190613c3f565b9081526020016040518091039020549050806000141561181657610fcf826000611721565b60016016836040516118289190613c3f565b9081526040519081900360200190205460ff16600581111561184c5761184c613a99565b14801561187957506010546118619082613c71565b4211806118795750600f546118769082613c71565b42105b1561188957610fcf826000611721565b600260168360405161189b9190613c3f565b9081526040519081900360200190205460ff1660058111156118bf576118bf613a99565b14806118fe575060036016836040516118d89190613c3f565b9081526040519081900360200190205460ff1660058111156118fc576118fc613a99565b145b80156119155750600f546119129082613c71565b42105b1561192557610fcf826000611721565b60016016836040516119379190613c3f565b9081526040519081900360200190205460ff16600581111561195b5761195b613a99565b14801561197457506010546119709082613c71565b4211155b801561198c5750600f546119889082613c71565b4210155b1561199c57610fcf826002611721565b60026016836040516119ae9190613c3f565b9081526040519081900360200190205460ff1660058111156119d2576119d2613a99565b1480156119ea57506010546119e79082613c71565b42115b80156119f7575060105415155b15610fcf57610fcf826003611721565b611a456040805160a0810182526000808252602080830182905282840182905260608084018390528451808601909552845283015290608082015290565b611a836040805160a0810182526000808252602080830182905282840182905260608084018390528451808601909552845283015290608082015290565b611a8f818686866124d9565b9150505b9392505050565b6080830151611aa9908361256d565b6080830151610d42908261256d565b6080830151611ac7908361256d565b6080830151610d429082612584565b600354600090611a93906001600160a01b031684846125e4565b611afb8383836126bd565b610d4257601183604051611b0f9190613c3f565b90815260200160405180910390206000836002811115611b3157611b31613a99565b6002811115611b4257611b42613a99565b815260200190815260200160002080549050601284604051611b649190613c3f565b90815260200160405180910390206000846002811115611b8657611b86613a99565b6002811115611b9757611b97613a99565b81526020019081526020016000206000836001600160a01b03166001600160a01b0316815260200190815260200160002081905550601183604051611bdc9190613c3f565b90815260200160405180910390206000836002811115611bfe57611bfe613a99565b6002811115611c0f57611c0f613a99565b8152602080820192909252604001600090812080546001810182559082529190200180546001600160a01b0383166001600160a01b0319909116179055505050565b6000601485604051611c639190613c3f565b90815260200160405180910390206000856002811115611c8557611c85613a99565b6002811115611c9657611c96613a99565b81526020019081526020016000206000836001600160a01b03166001600160a01b0316815260200190815260200160002054905060008111611d1a5760405162461bcd60e51b815260206004820181905260248201527f4e6f207374616b65206f6e207468697320616464726573732d726573756c742e60448201526064016107c6565b80831115611d6a5760405162461bcd60e51b815260206004820152601660248201527f43757272656e74207374616b6520746f6f206c6f772e0000000000000000000060448201526064016107c6565b611d748382613c71565b601486604051611d849190613c3f565b90815260200160405180910390206000866002811115611da657611da6613a99565b6002811115611db757611db7613a99565b81526020019081526020016000206000846001600160a01b03166001600160a01b03168152602001908152602001600020819055506000601486604051611dfe9190613c3f565b90815260200160405180910390206000866002811115611e2057611e20613a99565b6002811115611e3157611e31613a99565b81526020019081526020016000206000846001600160a01b03166001600160a01b031681526020019081526020016000205411611ee3576000601386604051611e7a9190613c3f565b90815260200160405180910390206000866002811115611e9c57611e9c613a99565b6002811115611ead57611ead613a99565b8152602080820192909252604090810160009081206001600160a01b03871682529092529020805460ff19169115159190911790555b6040516001600160a01b0383169084156108fc029085906000818181858888f19350505050158015611f19573d6000803e3d6000fd5b50816001600160a01b03167f0f3b118062ef97715cdb7fc34e6b3bc6bf1c6ddbbbbc4e8d6f13eff984080d08868587604051611f5793929190613d73565b60405180910390a25050505050565b60008281526019602052604081208054611f7f90613c88565b80601f0160208091040260200160405190810160405280929190818152602001828054611fab90613c88565b8015611ff85780601f10611fcd57610100808354040283529160200191611ff8565b820191906000526020600020905b815481529060010190602001808311611fdb57829003601f168201915b50505050509050827f991c3e65c24cac8eb9898540ce857bbd06f702f19ac9ee6562bd97b96b0d898c8284604051612031929190613ddf565b60405180910390a2600460168260405161204b9190613c3f565b9081526040519081900360200190205460ff16600581111561206f5761206f613a99565b1415610d425761207f8183612762565b610d42816005611721565b60008060005b6011856040516120a09190613c3f565b908152602001604051809103902060008560028111156120c2576120c2613a99565b60028111156120d3576120d3613a99565b81526020810191909152604001600020548110156122655760006011866040516120fd9190613c3f565b9081526020016040518091039020600086600281111561211f5761211f613a99565b600281111561213057612130613a99565b8152602001908152602001600020828154811061214f5761214f613e01565b6000918252602090912001546040516001600160a01b039091169150601390612179908890613c3f565b9081526020016040518091039020600086600281111561219b5761219b613a99565b60028111156121ac576121ac613a99565b8152602080820192909252604090810160009081206001600160a01b038516825290925290205460ff1615612252576014866040516121eb9190613c3f565b9081526020016040518091039020600086600281111561220d5761220d613a99565b600281111561221e5761221e613a99565b8152602080820192909252604090810160009081206001600160a01b038516825290925290205461224f9084613d5b565b92505b508061225d81613e17565b915050612090565b509392505050565b6122756137dc565b60405180606001604052806014856040516122909190613c3f565b908152604080516020928190038301902060008080529083528181206001600160a01b03881682528352819020548352519101906014906122d2908790613c3f565b9081526040805160209281900383019020600160009081529083528181206001600160a01b0388168252835281902054835251910190601490612316908790613c3f565b9081526040805160209281900383019020600260009081529083528181206001600160a01b03979097168152959091529093205490925250919050565b6000828152601860205260408120805461236c90613c88565b80601f016020809104026020016040519081016040528092919081815260200182805461239890613c88565b80156123e55780601f106123ba576101008083540402835291602001916123e5565b820191906000526020600020905b8154815290600101906020018083116123c857829003601f168201915b50505050509050827f0a19aa077773e15e05c85beefc64244b7b27068fccb13becb7bf450ff41fa89c828460405161241e929190613ddf565b60405180910390a26124308183612824565b610d42816117df565b60005b6003811015610fcf5761247782600d836003811061245c5761245c613e01565b602081049091015460ff601f9092166101000a9004166128a9565b8061248181613e17565b91505061243c565b60005b6003811015610fcf576124c782600d83600381106124ac576124ac613e01565b602081049091015460ff601f9092166101000a900416612915565b806124d181613e17565b91505061248c565b6125176040805160a0810182526000808252602080830182905282840182905260608084018390528451808601909552845283015290608082015290565b6125278560800151610100612afd565b50508284526001600160a01b03821660208501527fffffffff0000000000000000000000000000000000000000000000000000000081166040850152835b949350505050565b61257a8260038351612b62565b610d428282612c77565b67ffffffffffffffff1981121561259f57610fcf8282612c9e565b67ffffffffffffffff8113156125b957610fcf8282612ce0565b600081126125cd57610fcf82600083612b62565b610fcf8260016125df84600019613e32565b612b62565b6004546000906125f5816001613d5b565b600455835160408086015160808701515191516000937f4042994600000000000000000000000000000000000000000000000000000000936126469386938493923092918a91600191602401613ea6565b60408051601f198184030181529190526020810180517bffffffffffffffffffffffffffffffffffffffffffffffffffffffff167fffffffff000000000000000000000000000000000000000000000000000000009093169290921790915290506126b386838684612d03565b9695505050505050565b60006001600160a01b0382161580159061274b575060006012856040516126e49190613c3f565b9081526020016040518091039020600085600281111561270657612706613a99565b600281111561271757612717613a99565b81526020019081526020016000206000846001600160a01b03166001600160a01b0316815260200190815260200160002054115b1561275857506001611a93565b5060009392505050565b600061276e8383612e94565b604080516001808252818301909252919250600091906020808301908036833701905050905081816000815181106127a8576127a8613e01565b602002602001019060028111156127c1576127c1613a99565b908160028111156127d4576127d4613a99565b90525060006127e283612f47565b905060006127f0868461305d565b905060006127fe878461305d565b9050600061280c8284613d5b565b905061281a888785846130ad565b5050505050505050565b6017826040516128349190613c3f565b9081526020016040518091039020548114610fcf578060178360405161285a9190613c3f565b9081526020016040518091039020819055507f20af5e7c127dd84267ef67d2a1fa455b47bc60840459b4db987929e37daf07a3828260405161289d929190613ddf565b60405180910390a15050565b604080516020810182526000815290516011906128c7908590613c3f565b908152602001604051809103902060008360028111156128e9576128e9613a99565b60028111156128fa576128fa613a99565b81526020810191909152604001600020610d429160016137fa565b60005b6011836040516129289190613c3f565b9081526020016040518091039020600083600281111561294a5761294a613a99565b600281111561295b5761295b613a99565b8152602081019190915260400160002054811015610d425760006011846040516129859190613c3f565b908152602001604051809103902060008460028111156129a7576129a7613a99565b60028111156129b8576129b8613a99565b815260200190815260200160002082815481106129d7576129d7613e01565b6000918252602090912001546040516001600160a01b039091169150601390612a01908690613c3f565b90815260200160405180910390206000846002811115612a2357612a23613a99565b6002811115612a3457612a34613a99565b8152602080820192909252604090810160009081206001600160a01b038516825290925290205460ff1615612aea576000601485604051612a759190613c3f565b90815260200160405180910390206000856002811115612a9757612a97613a99565b6002811115612aa857612aa8613a99565b81526020019081526020016000206000836001600160a01b03166001600160a01b03168152602001908152602001600020549050612ae885858385611c51565b505b5080612af581613e17565b915050612918565b604080518082019091526060815260006020820152612b1d602083613f38565b15612b4557612b2d602083613f38565b612b38906020613c71565b612b429083613d5b565b91505b506020828101829052604080518085526000815290920101905290565b60178167ffffffffffffffff1611612b8d57612b878360e0600585901b1683176134de565b50505050565b60ff8167ffffffffffffffff1611612bcb57612bb4836018611fe0600586901b16176134de565b50612b878367ffffffffffffffff83166001613503565b61ffff8167ffffffffffffffff1611612c0a57612bf3836019611fe0600586901b16176134de565b50612b878367ffffffffffffffff83166002613503565b63ffffffff8167ffffffffffffffff1611612c4b57612c3483601a611fe0600586901b16176134de565b50612b878367ffffffffffffffff83166004613503565b612c6083601b611fe0600586901b16176134de565b50612b878367ffffffffffffffff83166008613503565b604080518082019091526060815260006020820152611a9383846000015151848551613529565b612ca98260c36134de565b50610fcf82612cba83600019613e32565b604051602001612ccc91815260200190565b604051602081830303815290604052613613565b612ceb8260c26134de565b50610fcf8282604051602001612ccc91815260200190565b6040516bffffffffffffffffffffffff193060601b1660208201526034810184905260009060540160408051808303601f1901815282825280516020918201206000818152600590925291812080546001600160a01b0319166001600160a01b038a1617905590925082917fb5e6e01e79f91267dc17b4e6314d5d4d03593d2ceee0fbb452b750bd70ea5af99190a26002546040517f4000aea00000000000000000000000000000000000000000000000000000000081526001600160a01b0390911690634000aea090612ddf90889087908790600401613f4c565b6020604051808303816000875af1158015612dfe573d6000803e3d6000fd5b505050506040513d601f19601f82011682018060405250810190612e229190613d9b565b6125655760405162461bcd60e51b815260206004820152602360248201527f756e61626c6520746f207472616e73666572416e6443616c6c20746f206f726160448201527f636c65000000000000000000000000000000000000000000000000000000000060648201526084016107c6565b600081612ea357506000611306565b6001821415612eb457506001611306565b6002821415612ec557506002611306565b612ed0836003611721565b600083604051602001612ee39190613f7d565b60405160208183030381529060405290507f2a2c16a3ce1dea0db612b14a8fdc9a8d316acc87914b4d66440d119b41e8615f8482604051612f2592919061400f565b60405180910390a18060405162461bcd60e51b81526004016107c69190613c02565b604080516002808252606080830184529260009291906020830190803683370190505090506000805b600381101561305457846002811115612f8b57612f8b613a99565b600d8260038110612f9e57612f9e613e01565b602081049091015460ff601f9092166101000a9004166002811115612fc557612fc5613a99565b1461304257600d8160038110612fdd57612fdd613e01565b602091828204019190069054906101000a900460ff1683838151811061300557613005613e01565b6020026020010190600281111561301e5761301e613a99565b9081600281111561303157613031613a99565b90525061303f600183613d5b565b91505b8061304c81613e17565b915050612f70565b50909392505050565b60008060005b83518110156122655761308f8585838151811061308257613082613e01565b602002602001015161208a565b6130999083613d5b565b9150806130a581613e17565b915050613063565b60046016856040516130bf9190613c3f565b9081526040519081900360200190205460ff1660058111156130e3576130e3613a99565b146131555760405162461bcd60e51b8152602060048201526024808201527f4669787475726520626574207374617465206973206e6f742046554c46494c4c60448201527f494e472e0000000000000000000000000000000000000000000000000000000060648201526084016107c6565b60005b6011856040516131689190613c3f565b9081526020016040518091039020600085600281111561318a5761318a613a99565b600281111561319b5761319b613a99565b81526020810191909152604001600020548110156134d75760006011866040516131c59190613c3f565b908152602001604051809103902060008660028111156131e7576131e7613a99565b60028111156131f8576131f8613a99565b8152602001908152602001600020828154811061321757613217613e01565b6000918252602090912001546040516001600160a01b039091169150601390613241908890613c3f565b9081526020016040518091039020600086600281111561326357613263613a99565b600281111561327457613274613a99565b8152602080820192909252604090810160009081206001600160a01b038516825290925290205460ff16156134c45760006014876040516132b59190613c3f565b908152602001604051809103902060008760028111156132d7576132d7613a99565b60028111156132e8576132e8613a99565b8152602080820192909252604090810160009081206001600160a01b0386168252909252812054915061331b8686614034565b6133259083614048565b9050806015896040516133389190613c3f565b9081526040805191829003602090810183206001600160a01b0388166000908152915290812092909255601490613370908b90613c3f565b9081526020016040518091039020600089600281111561339257613392613a99565b60028111156133a3576133a3613a99565b81526020019081526020016000206000856001600160a01b03166001600160a01b031681526020019081526020016000208190555060006013896040516133ea9190613c3f565b9081526020016040518091039020600089600281111561340c5761340c613a99565b600281111561341d5761341d613a99565b8152602080820192909252604090810160009081206001600160a01b0388168083529352818120805460ff1916941515949094179093555190916108fc841502918491818181858888f1935050505015801561347d573d6000803e3d6000fd5b50826001600160a01b03167fc0acd5bc47ab9bd28274b4de553779f718ae53f42f84fe011e7eed61cda99cbd89836040516134b9929190613ddf565b60405180910390a250505b50806134cf81613e17565b915050613158565b5050505050565b604080518082019091526060815260006020820152611a938384600001515184613620565b60408051808201909152606081526000602082015261256584856000015151858561367c565b604080518082019091526060815260006020820152825182111561354c57600080fd5b602085015161355b8386613d5b565b111561358e5761358e8561357e876020015187866135799190613d5b565b6136fd565b613589906002614048565b613714565b6000808651805187602083010193508088870111156135ad5787860182525b505050602084015b602084106135ed57805182526135cc602083613d5b565b91506135d9602082613d5b565b90506135e6602085613c71565b93506135b5565b51815160001960208690036101000a019081169019919091161790525083949350505050565b61257a8260028351612b62565b604080518082019091526060815260006020820152836020015183106136555761365584856020015160026135899190614048565b835180516020858301018481535080851415613672576001810182525b5093949350505050565b60408051808201909152606081526000602082015260208501516136a08584613d5b565b11156136b4576136b48561357e8685613d5b565b600060016136c48461010061414b565b6136ce9190613c71565b90508551838682010185831982511617815250805184870111156136f25783860181525b509495945050505050565b60008183111561370e575081611306565b50919050565b81516137208383612afd565b50612b878382612c77565b82805461373790613c88565b90600052602060002090601f016020900481019282613759576000855561379f565b82601f1061377257805160ff191683800117855561379f565b8280016001018555821561379f579182015b8281111561379f578251825591602001919060010190613784565b506137ab92915061384f565b5090565b604080516060810190915280600081526020016137ca6137dc565b81526020016137d76137dc565b905290565b60405180606001604052806003906020820280368337509192915050565b82805482825590600052602060002090810192821561379f579160200282015b8281111561379f57825182546001600160a01b0319166001600160a01b0390911617825560209092019160019091019061381a565b5b808211156137ab5760008155600101613850565b634e487b7160e01b600052604160045260246000fd5b600082601f83011261388b57600080fd5b813567ffffffffffffffff808211156138a6576138a6613864565b604051601f8301601f19908116603f011681019082821181831017156138ce576138ce613864565b816040528381528660208588010111156138e757600080fd5b836020870160208301376000602085830101528094505050505092915050565b60006020828403121561391957600080fd5b813567ffffffffffffffff81111561393057600080fd5b6125658482850161387a565b80356001600160a01b0381168114610a3057600080fd5b60006020828403121561396557600080fd5b611a938261393c565b803560038110610a3057600080fd5b6000806040838503121561399057600080fd5b823567ffffffffffffffff8111156139a757600080fd5b6139b38582860161387a565b9250506139c26020840161396e565b90509250929050565b6000806000606084860312156139e057600080fd5b833567ffffffffffffffff8111156139f757600080fd5b613a038682870161387a565b935050613a126020850161396e565b9150604084013590509250925092565b600080600060608486031215613a3757600080fd5b833567ffffffffffffffff811115613a4e57600080fd5b613a5a8682870161387a565b935050613a696020850161396e565b9150613a776040850161393c565b90509250925092565b600060208284031215613a9257600080fd5b5035919050565b634e487b7160e01b600052602160045260246000fd5b60038110613abf57613abf613a99565b9052565b602081016113068284613aaf565b60008060408385031215613ae457600080fd5b50508035926020909101359150565b60008060408385031215613b0657600080fd5b823567ffffffffffffffff811115613b1d57600080fd5b613b298582860161387a565b9250506139c26020840161393c565b60068110613abf57613abf613a99565b8060005b6003811015612b87578151845260209384019390910190600101613b4c565b600060e082019050613b7e828451613b38565b6020830151613b906020840182613b48565b506040830151613ba36080840182613b48565b5092915050565b60005b83811015613bc5578181015183820152602001613bad565b83811115612b875750506000910152565b60008151808452613bee816020860160208601613baa565b601f01601f19169290920160200192915050565b602081526000611a936020830184613bd6565b602081016113068284613b38565b60008151613c35818560208601613baa565b9290920192915050565b60008251613c51818460208701613baa565b9190910192915050565b634e487b7160e01b600052601160045260246000fd5b600082821015613c8357613c83613c5b565b500390565b600181811c90821680613c9c57607f821691505b6020821081141561370e57634e487b7160e01b600052602260045260246000fd5b600080845481600182811c915080831680613cd957607f831692505b6020808410821415613cf957634e487b7160e01b86526022600452602486fd5b818015613d0d5760018114613d1e57613d4b565b60ff19861689528489019650613d4b565b60008b81526020902060005b86811015613d435781548b820152908501908301613d2a565b505084890196505b505050505050611a8f8185613c23565b60008219821115613d6e57613d6e613c5b565b500190565b606081526000613d866060830186613bd6565b90508360208301526125656040830184613aaf565b600060208284031215613dad57600080fd5b81518015158114611a9357600080fd5b604081526000613dd06040830185613bd6565b9050611a936020830184613b38565b604081526000613df26040830185613bd6565b90508260208301529392505050565b634e487b7160e01b600052603260045260246000fd5b6000600019821415613e2b57613e2b613c5b565b5060010190565b6000808312837f800000000000000000000000000000000000000000000000000000000000000001831281151615613e6c57613e6c613c5b565b837f7fffffffffffffffffffffffffffffffffffffffffffffffffffffffffffffff018313811615613ea057613ea0613c5b565b50500390565b60006101006001600160a01b03808c1684528a60208501528960408501528089166060850152507fffffffff00000000000000000000000000000000000000000000000000000000871660808401528560a08401528460c08401528060e0840152613f1381840185613bd6565b9b9a5050505050505050505050565b634e487b7160e01b600052601260045260246000fd5b600082613f4757613f47613f22565b500690565b6001600160a01b0384168152826020820152606060408201526000613f746060830184613bd6565b95945050505050565b7f4572726f72206f6e206669787475726520000000000000000000000000000000815260008251613fb5816011850160208701613baa565b7f3a20556e6b6e6f776e206669787475726520726573756c742066726f6d20415060119390910192830152507f49000000000000000000000000000000000000000000000000000000000000006031820152603201919050565b6040815260006140226040830185613bd6565b8281036020840152611a8f8185613bd6565b60008261404357614043613f22565b500490565b600081600019048311821515161561406257614062613c5b565b500290565b600181815b808511156140a257816000190482111561408857614088613c5b565b8085161561409557918102915b93841c939080029061406c565b509250929050565b6000826140b957506001611306565b816140c657506000611306565b81600181146140dc57600281146140e657614102565b6001915050611306565b60ff8411156140f7576140f7613c5b565b50506001821b611306565b5060208310610133831016604e8410600b8410161715614125575081810a611306565b61412f8383614067565b806000190482111561414357614143613c5b565b029392505050565b6000611a9383836140aa56fea2646970667358221220e8e3364d4de84399d6934b35f523f7f279ba74212081dd58eb575fc6c3d0c0aa64736f6c634300080c0033",
  "devdoc": {
    "kind": "dev",
    "methods": {},
    "version": 1
  },
  "userdoc": {
    "kind": "user",
    "methods": {
      "requestFixtureKickoffTimeParameter(string)": {
        "notice": "Request fixture kickoff time from the oracle in a single transaction"
      },
      "requestFixtureResultParameter(string)": {
        "notice": "Request fixture result from the oracle in a single transaction"
      },
      "withdrawLink(uint256)": {
        "notice": "Allow withdraw of Link tokens from the contract"
      }
    },
    "version": 1
  },
  "storageLayout": {
    "storage": [
      {
        "astId": 319,
        "contract": "contracts/SportsBetting.sol:SportsBetting",
        "label": "s_ens",
        "offset": 0,
        "slot": "0",
        "type": "t_contract(ENSInterface)974"
      },
      {
        "astId": 321,
        "contract": "contracts/SportsBetting.sol:SportsBetting",
        "label": "s_ensNode",
        "offset": 0,
        "slot": "1",
        "type": "t_bytes32"
      },
      {
        "astId": 324,
        "contract": "contracts/SportsBetting.sol:SportsBetting",
        "label": "s_link",
        "offset": 0,
        "slot": "2",
        "type": "t_contract(LinkTokenInterface)1069"
      },
      {
        "astId": 327,
        "contract": "contracts/SportsBetting.sol:SportsBetting",
        "label": "s_oracle",
        "offset": 0,
        "slot": "3",
        "type": "t_contract(OperatorInterface)1149"
      },
      {
        "astId": 330,
        "contract": "contracts/SportsBetting.sol:SportsBetting",
        "label": "s_requestCount",
        "offset": 0,
        "slot": "4",
        "type": "t_uint256"
      },
      {
        "astId": 334,
        "contract": "contracts/SportsBetting.sol:SportsBetting",
        "label": "s_pendingRequests",
        "offset": 0,
        "slot": "5",
        "type": "t_mapping(t_bytes32,t_address)"
      },
      {
        "astId": 3713,
        "contract": "contracts/SportsBetting.sol:SportsBetting",
        "label": "owner",
        "offset": 0,
        "slot": "6",
        "type": "t_address_payable"
      },
      {
        "astId": 3715,
        "contract": "contracts/SportsBetting.sol:SportsBetting",
        "label": "chainlink",
        "offset": 0,
        "slot": "7",
        "type": "t_address"
      },
      {
        "astId": 3717,
        "contract": "contracts/SportsBetting.sol:SportsBetting",
        "label": "sportsOracleURI",
        "offset": 0,
        "slot": "8",
        "type": "t_string_storage"
      },
      {
        "astId": 3719,
        "contract": "contracts/SportsBetting.sol:SportsBetting",
        "label": "jobId",
        "offset": 0,
        "slot": "9",
        "type": "t_bytes32"
      },
      {
        "astId": 3721,
        "contract": "contracts/SportsBetting.sol:SportsBetting",
        "label": "fee",
        "offset": 0,
        "slot": "10",
        "type": "t_uint256"
      },
      {
        "astId": 3723,
        "contract": "contracts/SportsBetting.sol:SportsBetting",
        "label": "fixtureResult",
        "offset": 0,
        "slot": "11",
        "type": "t_string_storage"
      },
      {
        "astId": 3727,
        "contract": "contracts/SportsBetting.sol:SportsBetting",
        "label": "userToLink",
        "offset": 0,
        "slot": "12",
        "type": "t_mapping(t_address,t_uint256)"
      },
      {
        "astId": 2258,
        "contract": "contracts/SportsBetting.sol:SportsBetting",
        "label": "betTypes",
        "offset": 0,
        "slot": "13",
        "type": "t_array(t_enum(BetType)2185)3_storage"
      },
      {
        "astId": 2263,
        "contract": "contracts/SportsBetting.sol:SportsBetting",
        "label": "entranceFee",
        "offset": 0,
        "slot": "14",
        "type": "t_uint256"
      },
      {
        "astId": 2272,
        "contract": "contracts/SportsBetting.sol:SportsBetting",
        "label": "betAdvanceTime",
        "offset": 0,
        "slot": "15",
        "type": "t_uint256"
      },
      {
        "astId": 2277,
        "contract": "contracts/SportsBetting.sol:SportsBetting",
        "label": "betCutOffTime",
        "offset": 0,
        "slot": "16",
        "type": "t_uint256"
      },
      {
        "astId": 2285,
        "contract": "contracts/SportsBetting.sol:SportsBetting",
        "label": "historicalBetters",
        "offset": 0,
        "slot": "17",
        "type": "t_mapping(t_string_memory_ptr,t_mapping(t_enum(BetType)2185,t_array(t_address)dyn_storage))"
      },
      {
        "astId": 2294,
        "contract": "contracts/SportsBetting.sol:SportsBetting",
        "label": "historicalBettersIndex",
        "offset": 0,
        "slot": "18",
        "type": "t_mapping(t_string_memory_ptr,t_mapping(t_enum(BetType)2185,t_mapping(t_address,t_uint256)))"
      },
      {
        "astId": 2303,
        "contract": "contracts/SportsBetting.sol:SportsBetting",
        "label": "activeBetters",
        "offset": 0,
        "slot": "19",
        "type": "t_mapping(t_string_memory_ptr,t_mapping(t_enum(BetType)2185,t_mapping(t_address,t_bool)))"
      },
      {
        "astId": 2312,
        "contract": "contracts/SportsBetting.sol:SportsBetting",
        "label": "amounts",
        "offset": 0,
        "slot": "20",
        "type": "t_mapping(t_string_memory_ptr,t_mapping(t_enum(BetType)2185,t_mapping(t_address,t_uint256)))"
      },
      {
        "astId": 2318,
        "contract": "contracts/SportsBetting.sol:SportsBetting",
        "label": "obligations",
        "offset": 0,
        "slot": "21",
        "type": "t_mapping(t_string_memory_ptr,t_mapping(t_address,t_uint256))"
      },
      {
        "astId": 2323,
        "contract": "contracts/SportsBetting.sol:SportsBetting",
        "label": "bettingState",
        "offset": 0,
        "slot": "22",
        "type": "t_mapping(t_string_memory_ptr,t_enum(BettingState)2192)"
      },
      {
        "astId": 2327,
        "contract": "contracts/SportsBetting.sol:SportsBetting",
        "label": "fixtureToKickoffTime",
        "offset": 0,
        "slot": "23",
        "type": "t_mapping(t_string_memory_ptr,t_uint256)"
      },
      {
        "astId": 2331,
        "contract": "contracts/SportsBetting.sol:SportsBetting",
        "label": "requestKickoffToFixture",
        "offset": 0,
        "slot": "24",
        "type": "t_mapping(t_bytes32,t_string_storage)"
      },
      {
        "astId": 2335,
        "contract": "contracts/SportsBetting.sol:SportsBetting",
        "label": "requestResultToFixture",
        "offset": 0,
        "slot": "25",
        "type": "t_mapping(t_bytes32,t_string_storage)"
      }
    ],
    "types": {
      "t_address": {
        "encoding": "inplace",
        "label": "address",
        "numberOfBytes": "20"
      },
      "t_address_payable": {
        "encoding": "inplace",
        "label": "address payable",
        "numberOfBytes": "20"
      },
      "t_array(t_address)dyn_storage": {
        "base": "t_address",
        "encoding": "dynamic_array",
        "label": "address[]",
        "numberOfBytes": "32"
      },
      "t_array(t_enum(BetType)2185)3_storage": {
        "base": "t_enum(BetType)2185",
        "encoding": "inplace",
        "label": "enum SportsBetting.BetType[3]",
        "numberOfBytes": "32"
      },
      "t_bool": {
        "encoding": "inplace",
        "label": "bool",
        "numberOfBytes": "1"
      },
      "t_bytes32": {
        "encoding": "inplace",
        "label": "bytes32",
        "numberOfBytes": "32"
      },
      "t_contract(ENSInterface)974": {
        "encoding": "inplace",
        "label": "contract ENSInterface",
        "numberOfBytes": "20"
      },
      "t_contract(LinkTokenInterface)1069": {
        "encoding": "inplace",
        "label": "contract LinkTokenInterface",
        "numberOfBytes": "20"
      },
      "t_contract(OperatorInterface)1149": {
        "encoding": "inplace",
        "label": "contract OperatorInterface",
        "numberOfBytes": "20"
      },
      "t_enum(BetType)2185": {
        "encoding": "inplace",
        "label": "enum SportsBetting.BetType",
        "numberOfBytes": "1"
      },
      "t_enum(BettingState)2192": {
        "encoding": "inplace",
        "label": "enum SportsBetting.BettingState",
        "numberOfBytes": "1"
      },
      "t_mapping(t_address,t_bool)": {
        "encoding": "mapping",
        "key": "t_address",
        "label": "mapping(address => bool)",
        "numberOfBytes": "32",
        "value": "t_bool"
      },
      "t_mapping(t_address,t_uint256)": {
        "encoding": "mapping",
        "key": "t_address",
        "label": "mapping(address => uint256)",
        "numberOfBytes": "32",
        "value": "t_uint256"
      },
      "t_mapping(t_bytes32,t_address)": {
        "encoding": "mapping",
        "key": "t_bytes32",
        "label": "mapping(bytes32 => address)",
        "numberOfBytes": "32",
        "value": "t_address"
      },
      "t_mapping(t_bytes32,t_string_storage)": {
        "encoding": "mapping",
        "key": "t_bytes32",
        "label": "mapping(bytes32 => string)",
        "numberOfBytes": "32",
        "value": "t_string_storage"
      },
      "t_mapping(t_enum(BetType)2185,t_array(t_address)dyn_storage)": {
        "encoding": "mapping",
        "key": "t_enum(BetType)2185",
        "label": "mapping(enum SportsBetting.BetType => address[])",
        "numberOfBytes": "32",
        "value": "t_array(t_address)dyn_storage"
      },
      "t_mapping(t_enum(BetType)2185,t_mapping(t_address,t_bool))": {
        "encoding": "mapping",
        "key": "t_enum(BetType)2185",
        "label": "mapping(enum SportsBetting.BetType => mapping(address => bool))",
        "numberOfBytes": "32",
        "value": "t_mapping(t_address,t_bool)"
      },
      "t_mapping(t_enum(BetType)2185,t_mapping(t_address,t_uint256))": {
        "encoding": "mapping",
        "key": "t_enum(BetType)2185",
        "label": "mapping(enum SportsBetting.BetType => mapping(address => uint256))",
        "numberOfBytes": "32",
        "value": "t_mapping(t_address,t_uint256)"
      },
      "t_mapping(t_string_memory_ptr,t_enum(BettingState)2192)": {
        "encoding": "mapping",
        "key": "t_string_memory_ptr",
        "label": "mapping(string => enum SportsBetting.BettingState)",
        "numberOfBytes": "32",
        "value": "t_enum(BettingState)2192"
      },
      "t_mapping(t_string_memory_ptr,t_mapping(t_address,t_uint256))": {
        "encoding": "mapping",
        "key": "t_string_memory_ptr",
        "label": "mapping(string => mapping(address => uint256))",
        "numberOfBytes": "32",
        "value": "t_mapping(t_address,t_uint256)"
      },
      "t_mapping(t_string_memory_ptr,t_mapping(t_enum(BetType)2185,t_array(t_address)dyn_storage))": {
        "encoding": "mapping",
        "key": "t_string_memory_ptr",
        "label": "mapping(string => mapping(enum SportsBetting.BetType => address[]))",
        "numberOfBytes": "32",
        "value": "t_mapping(t_enum(BetType)2185,t_array(t_address)dyn_storage)"
      },
      "t_mapping(t_string_memory_ptr,t_mapping(t_enum(BetType)2185,t_mapping(t_address,t_bool)))": {
        "encoding": "mapping",
        "key": "t_string_memory_ptr",
        "label": "mapping(string => mapping(enum SportsBetting.BetType => mapping(address => bool)))",
        "numberOfBytes": "32",
        "value": "t_mapping(t_enum(BetType)2185,t_mapping(t_address,t_bool))"
      },
      "t_mapping(t_string_memory_ptr,t_mapping(t_enum(BetType)2185,t_mapping(t_address,t_uint256)))": {
        "encoding": "mapping",
        "key": "t_string_memory_ptr",
        "label": "mapping(string => mapping(enum SportsBetting.BetType => mapping(address => uint256)))",
        "numberOfBytes": "32",
        "value": "t_mapping(t_enum(BetType)2185,t_mapping(t_address,t_uint256))"
      },
      "t_mapping(t_string_memory_ptr,t_uint256)": {
        "encoding": "mapping",
        "key": "t_string_memory_ptr",
        "label": "mapping(string => uint256)",
        "numberOfBytes": "32",
        "value": "t_uint256"
      },
      "t_string_memory_ptr": {
        "encoding": "bytes",
        "label": "string",
        "numberOfBytes": "32"
      },
      "t_string_storage": {
        "encoding": "bytes",
        "label": "string",
        "numberOfBytes": "32"
      },
      "t_uint256": {
        "encoding": "inplace",
        "label": "uint256",
        "numberOfBytes": "32"
      }
    }
  }
}