{
  "address": "0xf74cE6eA2E9c2A359d6BbE171ACb216D33a23543",
  "abi": [
    {
      "inputs": [
        {
          "internalType": "string",
          "name": "_sportsOracleURI",
          "type": "string"
        },
        {
          "internalType": "address",
          "name": "_oracle",
          "type": "address"
        },
        {
          "internalType": "address",
          "name": "_link",
          "type": "address"
        },
        {
          "internalType": "bytes32",
          "name": "_jobId",
          "type": "bytes32"
        },
        {
          "internalType": "uint256",
          "name": "_fee",
          "type": "uint256"
        },
        {
          "internalType": "uint256",
          "name": "_commissionRate",
          "type": "uint256"
        }
      ],
      "stateMutability": "nonpayable",
      "type": "constructor"
    },
    {
      "anonymous": false,
      "inputs": [
        {
          "indexed": true,
          "internalType": "address",
          "name": "better",
          "type": "address"
        },
        {
          "indexed": false,
          "internalType": "string",
          "name": "fixtureID",
          "type": "string"
        },
        {
          "indexed": false,
          "internalType": "uint256",
          "name": "amount",
          "type": "uint256"
        }
      ],
      "name": "BetPayout",
      "type": "event"
    },
    {
      "anonymous": false,
      "inputs": [
        {
          "indexed": false,
          "internalType": "string",
          "name": "fixtureID",
          "type": "string"
        },
        {
          "indexed": false,
          "internalType": "string",
          "name": "reason",
          "type": "string"
        }
      ],
      "name": "BetPayoutFulfillmentError",
      "type": "event"
    },
    {
      "anonymous": false,
      "inputs": [
        {
          "indexed": true,
          "internalType": "address",
          "name": "better",
          "type": "address"
        },
        {
          "indexed": false,
          "internalType": "string",
          "name": "fixtureID",
          "type": "string"
        },
        {
          "indexed": false,
          "internalType": "uint256",
          "name": "amount",
          "type": "uint256"
        },
        {
          "indexed": false,
          "internalType": "enum SportsBetting.BetType",
          "name": "betType",
          "type": "uint8"
        }
      ],
      "name": "BetStaked",
      "type": "event"
    },
    {
      "anonymous": false,
      "inputs": [
        {
          "indexed": true,
          "internalType": "address",
          "name": "better",
          "type": "address"
        },
        {
          "indexed": false,
          "internalType": "string",
          "name": "fixtureID",
          "type": "string"
        },
        {
          "indexed": false,
          "internalType": "uint256",
          "name": "amount",
          "type": "uint256"
        },
        {
          "indexed": false,
          "internalType": "enum SportsBetting.BetType",
          "name": "betType",
          "type": "uint8"
        }
      ],
      "name": "BetUnstaked",
      "type": "event"
    },
    {
      "anonymous": false,
      "inputs": [
        {
          "indexed": false,
          "internalType": "string",
          "name": "fixtureID",
          "type": "string"
        },
        {
          "indexed": false,
          "internalType": "enum SportsBetting.BettingState",
          "name": "state",
          "type": "uint8"
        }
      ],
      "name": "BettingStateChanged",
      "type": "event"
    },
    {
      "anonymous": false,
      "inputs": [
        {
          "indexed": true,
          "internalType": "bytes32",
          "name": "id",
          "type": "bytes32"
        }
      ],
      "name": "ChainlinkCancelled",
      "type": "event"
    },
    {
      "anonymous": false,
      "inputs": [
        {
          "indexed": true,
          "internalType": "bytes32",
          "name": "id",
          "type": "bytes32"
        }
      ],
      "name": "ChainlinkFulfilled",
      "type": "event"
    },
    {
      "anonymous": false,
      "inputs": [
        {
          "indexed": true,
          "internalType": "bytes32",
          "name": "id",
          "type": "bytes32"
        }
      ],
      "name": "ChainlinkRequested",
      "type": "event"
    },
    {
      "anonymous": false,
      "inputs": [
        {
          "indexed": false,
          "internalType": "string",
          "name": "fixtureID",
          "type": "string"
        },
        {
          "indexed": false,
          "internalType": "uint256",
          "name": "kickoffTime",
          "type": "uint256"
        }
      ],
      "name": "KickoffTimeUpdated",
      "type": "event"
    },
    {
      "anonymous": false,
      "inputs": [
        {
          "indexed": true,
          "internalType": "bytes32",
          "name": "requestId",
          "type": "bytes32"
        },
        {
          "indexed": false,
          "internalType": "string",
          "name": "fixtureID",
          "type": "string"
        },
        {
          "indexed": false,
          "internalType": "uint256",
          "name": "kickoff",
          "type": "uint256"
        }
      ],
      "name": "RequestFixtureKickoffFulfilled",
      "type": "event"
    },
    {
      "anonymous": false,
      "inputs": [
        {
          "indexed": true,
          "internalType": "bytes32",
          "name": "requestId",
          "type": "bytes32"
        },
        {
          "indexed": false,
          "internalType": "string",
          "name": "fixtureID",
          "type": "string"
        },
        {
          "indexed": false,
          "internalType": "uint256",
          "name": "result",
          "type": "uint256"
        }
      ],
      "name": "RequestFixtureResultFulfilled",
      "type": "event"
    },
    {
      "anonymous": false,
      "inputs": [
        {
          "indexed": true,
          "internalType": "bytes32",
          "name": "requestId",
          "type": "bytes32"
        },
        {
          "indexed": false,
          "internalType": "string",
          "name": "fixtureID",
          "type": "string"
        }
      ],
      "name": "RequestedFixtureKickoff",
      "type": "event"
    },
    {
      "anonymous": false,
      "inputs": [
        {
          "indexed": true,
          "internalType": "bytes32",
          "name": "requestId",
          "type": "bytes32"
        },
        {
          "indexed": false,
          "internalType": "string",
          "name": "fixtureID",
          "type": "string"
        }
      ],
      "name": "RequestedFixtureResult",
      "type": "event"
    },
    {
      "inputs": [
        {
          "internalType": "string",
          "name": "",
          "type": "string"
        },
        {
          "internalType": "enum SportsBetting.BetType",
          "name": "",
          "type": "uint8"
        },
        {
          "internalType": "address",
          "name": "",
          "type": "address"
        }
      ],
      "name": "activeBetters",
      "outputs": [
        {
          "internalType": "bool",
          "name": "",
          "type": "bool"
        }
      ],
      "stateMutability": "view",
      "type": "function"
    },
    {
      "inputs": [
        {
          "internalType": "string",
          "name": "",
          "type": "string"
        },
        {
          "internalType": "enum SportsBetting.BetType",
          "name": "",
          "type": "uint8"
        },
        {
          "internalType": "address",
          "name": "",
          "type": "address"
        }
      ],
      "name": "amounts",
      "outputs": [
        {
          "internalType": "uint256",
          "name": "",
          "type": "uint256"
        }
      ],
      "stateMutability": "view",
      "type": "function"
    },
    {
      "inputs": [
        {
          "internalType": "string",
          "name": "fixtureID",
          "type": "string"
        }
      ],
      "name": "awaitBetForFixture",
      "outputs": [],
      "stateMutability": "nonpayable",
      "type": "function"
    },
    {
      "inputs": [],
      "name": "betAdvanceTime",
      "outputs": [
        {
          "internalType": "uint256",
          "name": "",
          "type": "uint256"
        }
      ],
      "stateMutability": "view",
      "type": "function"
    },
    {
      "inputs": [],
      "name": "betCutOffTime",
      "outputs": [
        {
          "internalType": "uint256",
          "name": "",
          "type": "uint256"
        }
      ],
      "stateMutability": "view",
      "type": "function"
    },
    {
      "inputs": [
        {
          "internalType": "uint256",
          "name": "",
          "type": "uint256"
        }
      ],
      "name": "betTypes",
      "outputs": [
        {
          "internalType": "enum SportsBetting.BetType",
          "name": "",
          "type": "uint8"
        }
      ],
      "stateMutability": "view",
      "type": "function"
    },
    {
      "inputs": [
        {
          "internalType": "string",
          "name": "",
          "type": "string"
        }
      ],
      "name": "bettingState",
      "outputs": [
        {
          "internalType": "enum SportsBetting.BettingState",
          "name": "",
          "type": "uint8"
        }
      ],
      "stateMutability": "view",
      "type": "function"
    },
    {
      "inputs": [],
      "name": "chainlink",
      "outputs": [
        {
          "internalType": "address",
          "name": "",
          "type": "address"
        }
      ],
      "stateMutability": "view",
      "type": "function"
    },
    {
      "inputs": [
        {
          "internalType": "string",
          "name": "fixtureID",
          "type": "string"
        }
      ],
      "name": "closeBetForFixture",
      "outputs": [],
      "stateMutability": "nonpayable",
      "type": "function"
    },
    {
      "inputs": [
        {
          "internalType": "string",
          "name": "",
          "type": "string"
        }
      ],
      "name": "commissionMap",
      "outputs": [
        {
          "internalType": "uint256",
          "name": "",
          "type": "uint256"
        }
      ],
      "stateMutability": "view",
      "type": "function"
    },
    {
      "inputs": [],
      "name": "commissionRate",
      "outputs": [
        {
          "internalType": "uint256",
          "name": "",
          "type": "uint256"
        }
      ],
      "stateMutability": "view",
      "type": "function"
    },
    {
      "inputs": [],
      "name": "entranceFee",
      "outputs": [
        {
          "internalType": "uint256",
          "name": "",
          "type": "uint256"
        }
      ],
      "stateMutability": "view",
      "type": "function"
    },
    {
      "inputs": [],
      "name": "fixtureResult",
      "outputs": [
        {
          "internalType": "string",
          "name": "",
          "type": "string"
        }
      ],
      "stateMutability": "view",
      "type": "function"
    },
    {
      "inputs": [
        {
          "internalType": "string",
          "name": "",
          "type": "string"
        }
      ],
      "name": "fixtureToKickoffTime",
      "outputs": [
        {
          "internalType": "uint256",
          "name": "",
          "type": "uint256"
        }
      ],
      "stateMutability": "view",
      "type": "function"
    },
    {
      "inputs": [
        {
          "internalType": "string",
          "name": "fixtureID",
          "type": "string"
        }
      ],
      "name": "fulfillBetForFixture",
      "outputs": [],
      "stateMutability": "nonpayable",
      "type": "function"
    },
    {
      "inputs": [
        {
          "internalType": "string",
          "name": "fixtureID",
          "type": "string"
        },
        {
          "internalType": "address",
          "name": "user",
          "type": "address"
        }
      ],
      "name": "getEnrichedFixtureData",
      "outputs": [
        {
          "components": [
            {
              "internalType": "enum SportsBetting.BettingState",
              "name": "fixtureState",
              "type": "uint8"
            },
            {
              "internalType": "uint256[3]",
              "name": "total",
              "type": "uint256[3]"
            },
            {
              "internalType": "uint256[3]",
              "name": "user",
              "type": "uint256[3]"
            }
          ],
          "internalType": "struct SportsBetting.FixtureEnrichment",
          "name": "",
          "type": "tuple"
        }
      ],
      "stateMutability": "view",
      "type": "function"
    },
    {
      "inputs": [
        {
          "internalType": "string",
          "name": "",
          "type": "string"
        },
        {
          "internalType": "enum SportsBetting.BetType",
          "name": "",
          "type": "uint8"
        },
        {
          "internalType": "uint256",
          "name": "",
          "type": "uint256"
        }
      ],
      "name": "historicalBetters",
      "outputs": [
        {
          "internalType": "address",
          "name": "",
          "type": "address"
        }
      ],
      "stateMutability": "view",
      "type": "function"
    },
    {
      "inputs": [
        {
          "internalType": "string",
          "name": "",
          "type": "string"
        },
        {
          "internalType": "enum SportsBetting.BetType",
          "name": "",
          "type": "uint8"
        },
        {
          "internalType": "address",
          "name": "",
          "type": "address"
        }
      ],
      "name": "historicalBettersIndex",
      "outputs": [
        {
          "internalType": "uint256",
          "name": "",
          "type": "uint256"
        }
      ],
      "stateMutability": "view",
      "type": "function"
    },
    {
      "inputs": [
        {
          "internalType": "string",
          "name": "",
          "type": "string"
        },
        {
          "internalType": "address",
          "name": "",
          "type": "address"
        }
      ],
      "name": "obligations",
      "outputs": [
        {
          "internalType": "uint256",
          "name": "",
          "type": "uint256"
        }
      ],
      "stateMutability": "view",
      "type": "function"
    },
    {
      "inputs": [
        {
          "internalType": "string",
          "name": "fixtureID",
          "type": "string"
        }
      ],
      "name": "openBetForFixture",
      "outputs": [],
      "stateMutability": "nonpayable",
      "type": "function"
    },
    {
      "inputs": [],
      "name": "owner",
      "outputs": [
        {
          "internalType": "address",
          "name": "",
          "type": "address"
        }
      ],
      "stateMutability": "view",
      "type": "function"
    },
    {
      "inputs": [
        {
          "internalType": "bytes32",
          "name": "_requestId",
          "type": "bytes32"
        },
        {
          "internalType": "uint256",
          "name": "_ko",
          "type": "uint256"
        }
      ],
      "name": "rawFulfillFixtureKickoffTime",
      "outputs": [],
      "stateMutability": "nonpayable",
      "type": "function"
    },
    {
      "inputs": [
        {
          "internalType": "bytes32",
          "name": "_requestId",
          "type": "bytes32"
        },
        {
          "internalType": "uint256",
          "name": "_result",
          "type": "uint256"
        }
      ],
      "name": "rawFulfillFixtureResult",
      "outputs": [],
      "stateMutability": "nonpayable",
      "type": "function"
    },
    {
      "inputs": [
        {
          "internalType": "string",
          "name": "fixtureID",
          "type": "string"
        }
      ],
      "name": "requestFixtureKickoffTime",
      "outputs": [],
      "stateMutability": "nonpayable",
      "type": "function"
    },
    {
      "inputs": [
        {
          "internalType": "string",
          "name": "fixtureID",
          "type": "string"
        }
      ],
      "name": "requestFixtureKickoffTimeParameter",
      "outputs": [
        {
          "internalType": "bytes32",
          "name": "",
          "type": "bytes32"
        }
      ],
      "stateMutability": "nonpayable",
      "type": "function"
    },
    {
      "inputs": [
        {
          "internalType": "string",
          "name": "fixtureID",
          "type": "string"
        }
      ],
      "name": "requestFixtureResult",
      "outputs": [],
      "stateMutability": "nonpayable",
      "type": "function"
    },
    {
      "inputs": [
        {
          "internalType": "string",
          "name": "fixtureID",
          "type": "string"
        }
      ],
      "name": "requestFixtureResultParameter",
      "outputs": [
        {
          "internalType": "bytes32",
          "name": "",
          "type": "bytes32"
        }
      ],
      "stateMutability": "nonpayable",
      "type": "function"
    },
    {
      "inputs": [
        {
          "internalType": "bytes32",
          "name": "",
          "type": "bytes32"
        }
      ],
      "name": "requestKickoffToFixture",
      "outputs": [
        {
          "internalType": "string",
          "name": "",
          "type": "string"
        }
      ],
      "stateMutability": "view",
      "type": "function"
    },
    {
      "inputs": [
        {
          "internalType": "bytes32",
          "name": "",
          "type": "bytes32"
        }
      ],
      "name": "requestResultToFixture",
      "outputs": [
        {
          "internalType": "string",
          "name": "",
          "type": "string"
        }
      ],
      "stateMutability": "view",
      "type": "function"
    },
    {
      "inputs": [],
      "name": "sportsOracleURI",
      "outputs": [
        {
          "internalType": "string",
          "name": "",
          "type": "string"
        }
      ],
      "stateMutability": "view",
      "type": "function"
    },
    {
      "inputs": [
        {
          "internalType": "string",
          "name": "fixtureID",
          "type": "string"
        },
        {
          "internalType": "enum SportsBetting.BetType",
          "name": "betType",
          "type": "uint8"
        }
      ],
      "name": "stake",
      "outputs": [],
      "stateMutability": "payable",
      "type": "function"
    },
    {
      "inputs": [
        {
          "internalType": "uint256",
          "name": "amount",
          "type": "uint256"
        }
      ],
      "name": "transferLink",
      "outputs": [],
      "stateMutability": "nonpayable",
      "type": "function"
    },
    {
      "inputs": [
        {
          "internalType": "string",
          "name": "fixtureID",
          "type": "string"
        },
        {
          "internalType": "enum SportsBetting.BetType",
          "name": "betType",
          "type": "uint8"
        },
        {
          "internalType": "uint256",
          "name": "amount",
          "type": "uint256"
        }
      ],
      "name": "unstake",
      "outputs": [],
      "stateMutability": "nonpayable",
      "type": "function"
    },
    {
      "inputs": [
        {
          "internalType": "address",
          "name": "",
          "type": "address"
        }
      ],
      "name": "userToLink",
      "outputs": [
        {
          "internalType": "uint256",
          "name": "",
          "type": "uint256"
        }
      ],
      "stateMutability": "view",
      "type": "function"
    },
    {
      "inputs": [
        {
          "internalType": "uint256",
          "name": "amount",
          "type": "uint256"
        }
      ],
      "name": "withdrawLink",
      "outputs": [],
      "stateMutability": "nonpayable",
      "type": "function"
    }
  ],
  "transactionHash": "0x28ef8fc4ba3ac63fbea6b4763f9e0a07ee832cd7b08fbb3f7bfb2e5d384437be",
  "args": [
    "https://1vyuff64d9.execute-api.us-east-1.amazonaws.com/dev/premier-league/fixtures/",
    "0xcc79157eb46f5624204f47ab42b3906caa40eab7",
    "0x326C977E6efc84E512bB9C30f76E30c160eD06FB",
    "0x6361393833363663633733313439353762386330313263373266303561656562",
    "100000000000000000",
    1
  ],
  "numDeployments": 19,
  "solcInputHash": "00cc2421f2ba8d2c22e2c1f9ea74dd4e",
  "bytecode": "0x60806040526001600455655af3107a4000600e5562093a806011556115186012553480156200002d57600080fd5b5060405162004782380380620047828339810160408190526200005091620001d9565b858585858584600790805190602001906200006d92919062000100565b50600280546001600160a01b03199081166001600160a01b039586161790915560038054821695909416948517909355600680548416909417909355507f6361393833363663633733313439353762386330313263373266303561656562600855600991909155600c805462ffffff191662020100179055600d80549091163317905550600f5550620003359350505050565b8280546200010e90620002f8565b90600052602060002090601f0160209004810192826200013257600085556200017d565b82601f106200014d57805160ff19168380011785556200017d565b828001600101855582156200017d579182015b828111156200017d57825182559160200191906001019062000160565b506200018b9291506200018f565b5090565b5b808211156200018b576000815560010162000190565b634e487b7160e01b600052604160045260246000fd5b80516001600160a01b0381168114620001d457600080fd5b919050565b60008060008060008060c08789031215620001f357600080fd5b86516001600160401b03808211156200020b57600080fd5b818901915089601f8301126200022057600080fd5b815181811115620002355762000235620001a6565b604051601f8201601f19908116603f01168101908382118183101715620002605762000260620001a6565b81604052828152602093508c848487010111156200027d57600080fd5b600091505b82821015620002a1578482018401518183018501529083019062000282565b82821115620002b35760008484830101525b9950620002c5915050898201620001bc565b96505050620002d760408801620001bc565b9350606087015192506080870151915060a087015190509295509295509295565b600181811c908216806200030d57607f821691505b602082108114156200032f57634e487b7160e01b600052602260045260246000fd5b50919050565b61443d80620003456000396000f3fe6080604052600436106102335760003560e01c80638da5cb5b11610138578063cbef85c2116100b0578063ef40efde1161007f578063f6573b4f11610064578063f6573b4f14610736578063f7c60c0c1461076e578063fbe913931461078357600080fd5b8063ef40efde146106f6578063f46dccf01461071657600080fd5b8063cbef85c21461061d578063d8654c081461067e578063e37685ec1461069e578063edb16070146106be57600080fd5b8063abf949f811610107578063bae22f95116100ec578063bae22f9514610595578063c40bc66b146105dd578063c8fe739c146105fd57600080fd5b8063abf949f814610546578063b148cdf11461057357600080fd5b80638da5cb5b146104805780639959a30f146104b85780639c3feeb7146104d8578063aa066090146104f857600080fd5b80635ea1d6f8116101cb5780636e2a3a841161019a5780637a8042bd1161017f5780637a8042bd146104205780637cc2c2f8146104405780638a71bfa81461046057600080fd5b80636e2a3a84146103e0578063793970e11461040057600080fd5b80635ea1d6f8146103395780635ec421a71461034f57806362098ff71461039d578063649677e1146103ca57600080fd5b806339ea07911161020757806339ea0791146102c357806340364d11146102f05780634bfc91ee146103035780635e5243191461031957600080fd5b8062e1a75b1461023857806301ec29c91461025a578063106246d81461027a5780631d686ae4146102a3575b600080fd5b34801561024457600080fd5b50610258610253366004613bb7565b6107cb565b005b34801561026657600080fd5b50610258610275366004613bb7565b61086a565b34801561028657600080fd5b5061029060115481565b6040519081526020015b60405180910390f35b3480156102af57600080fd5b506102906102be366004613bb7565b6108f6565b3480156102cf57600080fd5b506102906102de366004613c03565b600b6020526000908152604090205481565b6102586102fe366004613c2d565b610ab9565b34801561030f57600080fd5b5061029060125481565b34801561032557600080fd5b50610258610334366004613c7b565b610cde565b34801561034557600080fd5b50610290600f5481565b34801561035b57600080fd5b5061029061036a366004613cd2565b82516020818501810180516014825292820195820195909520919094528352600091825260408083209093528152205481565b3480156103a957600080fd5b506103bd6103b8366004613d30565b610dcb565b60405161029a9190613d73565b3480156103d657600080fd5b50610290600e5481565b3480156103ec57600080fd5b506102586103fb366004613bb7565b610df5565b34801561040c57600080fd5b5061025861041b366004613bb7565b610e88565b34801561042c57600080fd5b5061025861043b366004613d30565b610ee8565b34801561044c57600080fd5b5061025861045b366004613d30565b611057565b34801561046c57600080fd5b5061025861047b366004613d81565b611172565b34801561048c57600080fd5b50600d546104a0906001600160a01b031681565b6040516001600160a01b03909116815260200161029a565b3480156104c457600080fd5b506102586104d3366004613bb7565b611292565b3480156104e457600080fd5b506006546104a0906001600160a01b031681565b34801561050457600080fd5b50610290610513366004613cd2565b82516020818501810180516016825292820195820195909520919094528352600091825260408083209093528152205481565b34801561055257600080fd5b50610566610561366004613da3565b6112f2565b60405161029a9190613e1b565b34801561057f57600080fd5b50610588611390565b60405161029a9190613eb2565b3480156105a157600080fd5b506102906105b0366004613da3565b81516020818401810180516017825292820194820194909420919093529091526000908152604090205481565b3480156105e957600080fd5b506105886105f8366004613d30565b61141e565b34801561060957600080fd5b506104a0610618366004613c7b565b611437565b34801561062957600080fd5b5061066e610638366004613cd2565b82516020818501810180516015825292820195820195909520919094528352600091825260408083209093528152205460ff1681565b604051901515815260200161029a565b34801561068a57600080fd5b50610290610699366004613bb7565b611486565b3480156106aa57600080fd5b506102586106b9366004613d81565b6115db565b3480156106ca57600080fd5b506102906106d9366004613bb7565b805160208183018101805160198252928201919093012091525481565b34801561070257600080fd5b50610258610711366004613bb7565b6116fb565b34801561072257600080fd5b50610588610731366004613d30565b61177f565b34801561074257600080fd5b50610290610751366004613bb7565b805160208183018101805160108252928201919093012091525481565b34801561077a57600080fd5b50610588611798565b34801561078f57600080fd5b506107be61079e366004613bb7565b805160208183018101805160188252928201919093012091525460ff1681565b60405161029a9190613ec5565b60006018826040516107dd9190613eef565b9081526040519081900360200190205460ff16600581111561080157610801613d49565b146108535760405162461bcd60e51b815260206004820152601960248201527f426574207374617465206d75737420626520434c4f5345442e0000000000000060448201526064015b60405180910390fd5b61085e8160016117a5565b61086781611292565b50565b600260188260405161087c9190613eef565b9081526040519081900360200190205460ff1660058111156108a0576108a0613d49565b146108ed5760405162461bcd60e51b815260206004820152601760248201527f426574207374617465206d757374206265204f50454e2e000000000000000000604482015260640161084a565b61086781611863565b600954336000908152600b60205260408120549091106109585760405162461bcd60e51b815260206004820152601d60248201527f596f7520686176656e27742073656e7420656e6f756768204c494e4b2e000000604482015260640161084a565b600954336000908152600b60205260408120805490919061097a908490613f21565b90915550506008546000906109b090307fe37685ec00000000000000000000000000000000000000000000000000000000611a8b565b90506109fd6040518060400160405280600381526020016219d95d60ea1b8152506007856040516020016109e5929190613f6d565b60408051601f19818403018152919052839190611b1e565b610a63604051806040016040528060048152602001630e0c2e8d60e31b8152506040518060400160405280600481526020017f302c6b6f0000000000000000000000000000000000000000000000000000000081525083611b1e9092919063ffffffff16565b60408051808201909152600581527f74696d65730000000000000000000000000000000000000000000000000000006020820152610aa49082906001611b3c565b610ab081600954611b5a565b9150505b919050565b610ac282611863565b6002601883604051610ad49190613eef565b9081526040519081900360200190205460ff166005811115610af857610af8613d49565b14610b455760405162461bcd60e51b815260206004820152601960248201527f426574206163746976697479206973206e6f74206f70656e2e00000000000000604482015260640161084a565b600e54341015610b975760405162461bcd60e51b815260206004820152601d60248201527f416d6f756e742069732062656c6f7720656e7472616e6365206665652e000000604482015260640161084a565b34601683604051610ba89190613eef565b90815260200160405180910390206000836002811115610bca57610bca613d49565b6002811115610bdb57610bdb613d49565b81526020019081526020016000206000336001600160a01b03166001600160a01b031681526020019081526020016000206000828254610c1b919061400b565b90915550610c2c9050828233611b74565b6001601583604051610c3e9190613eef565b90815260200160405180910390206000836002811115610c6057610c60613d49565b6002811115610c7157610c71613d49565b815260208082019290925260409081016000908120338083529352819020805460ff19169315159390931790925590517f1a48cf6315f5f44cf8ac3a5105296caf8a73f64b40f9a6b7cbf8ba65ca930fd490610cd290859034908690614023565b60405180910390a25050565b60008111610d2e5760405162461bcd60e51b815260206004820152601a60248201527f416d6f756e742073686f756c6420657863656564207a65726f2e000000000000604482015260640161084a565b610d3783611863565b6002601884604051610d499190613eef565b9081526040519081900360200190205460ff166005811115610d6d57610d6d613d49565b14610dba5760405162461bcd60e51b815260206004820152601d60248201527f46697874757265206973206e6f7420696e204f70656e2073746174652e000000604482015260640161084a565b610dc683838333611cd5565b505050565b600c8160038110610ddb57600080fd5b60209182820401919006915054906101000a900460ff1681565b6003601882604051610e079190613eef565b9081526040519081900360200190205460ff166005811115610e2b57610e2b613d49565b14610e785760405162461bcd60e51b815260206004820152601b60248201527f426574207374617465206d757374206265204157414954494e472e0000000000604482015260640161084a565b610e838160046117a5565b610867815b6000610e9382611486565b6000818152601b602090815260409091208451929350610eb79290918501906139db565b50807f203eeb39bf08702855bb5830b3ec49ea10fb51bde91904739f7c0c3ab41776d583604051610cd29190613eb2565b336000908152600b6020526040902054811115610f475760405162461bcd60e51b815260206004820152601a60248201527f596f7520646f6e2774206861766520656e6f756768206c696e6b000000000000604482015260640161084a565b336000908152600b602052604081208054839290610f66908490613f21565b90915550506002546000906001600160a01b03166040517fa9059cbb000000000000000000000000000000000000000000000000000000008152336004820152602481018490529091506001600160a01b0382169063a9059cbb906044016020604051808303816000875af1158015610fe3573d6000803e3d6000fd5b505050506040513d601f19601f82011682018060405250810190611007919061404b565b6110535760405162461bcd60e51b815260206004820152601260248201527f556e61626c6520746f207472616e736665720000000000000000000000000000604482015260640161084a565b5050565b600061106b6002546001600160a01b031690565b6040517f23b872dd000000000000000000000000000000000000000000000000000000008152336004820152306024820152604481018490529091506001600160a01b038216906323b872dd906064016020604051808303816000875af11580156110da573d6000803e3d6000fd5b505050506040513d601f19601f820116820180604052508101906110fe919061404b565b61114a5760405162461bcd60e51b815260206004820152601260248201527f556e61626c6520746f207472616e736665720000000000000000000000000000604482015260640161084a565b336000908152600b60205260408120805484929061116990849061400b565b90915550505050565b60008281526005602052604090205482906001600160a01b031633146111eb5760405162461bcd60e51b815260206004820152602860248201527f536f75726365206d75737420626520746865206f7261636c65206f6620746865604482015267081c995c5d595cdd60c21b606482015260840161084a565b60008181526005602052604080822080546001600160a01b03191690555182917f7cc135e0cebb02c3480ae5d74d377283180a2601f8f644edf7987b009316c63a91a26006546001600160a01b031633146112885760405162461bcd60e51b815260206004820181905260248201527f4f6e6c7920436861696e6c696e6b436c69656e742063616e2066756c66696c6c604482015260640161084a565b610dc68383611d63565b600061129d826108f6565b6000818152601a6020908152604090912084519293506112c19290918501906139db565b50807f45d732f7bcf8bc3eb58d8fd2fe72f5d05aa36dadc20e6c9989abd2a741d81cac83604051610cd29190613eb2565b6112fa613a5f565b60405180606001604052806018856040516113159190613eef565b9081526040519081900360200190205460ff16600581111561133957611339613d49565b81526020016040518060600160405280611354876000611e87565b8152602001611364876001611e87565b8152602001611374876002611e87565b90528152602001611385858561206a565b905290505b92915050565b6007805461139d90613f38565b80601f01602080910402602001604051908101604052809291908181526020018280546113c990613f38565b80156114165780601f106113eb57610100808354040283529160200191611416565b820191906000526020600020905b8154815290600101906020018083116113f957829003601f168201915b505050505081565b601a602052600090815260409020805461139d90613f38565b825160208185018101805160138252928201828701209290525260008281526040902080548290811061146957600080fd5b6000918252602090912001546001600160a01b0316925083915050565b600954336000908152600b60205260408120549091106114e85760405162461bcd60e51b815260206004820152601d60248201527f596f7520686176656e27742073656e7420656e6f756768204c494e4b2e000000604482015260640161084a565b600954336000908152600b60205260408120805490919061150a908490613f21565b909155505060085460009061154090307f8a71bfa800000000000000000000000000000000000000000000000000000000611a8b565b90506115756040518060400160405280600381526020016219d95d60ea1b8152506007856040516020016109e5929190613f6d565b610a63604051806040016040528060048152602001630e0c2e8d60e31b8152506040518060400160405280600881526020017f302c726573756c7400000000000000000000000000000000000000000000000081525083611b1e9092919063ffffffff16565b60008281526005602052604090205482906001600160a01b031633146116545760405162461bcd60e51b815260206004820152602860248201527f536f75726365206d75737420626520746865206f7261636c65206f6620746865604482015267081c995c5d595cdd60c21b606482015260840161084a565b60008181526005602052604080822080546001600160a01b03191690555182917f7cc135e0cebb02c3480ae5d74d377283180a2601f8f644edf7987b009316c63a91a26006546001600160a01b031633146116f15760405162461bcd60e51b815260206004820181905260248201527f4f6e6c7920436861696e6c696e6b436c69656e742063616e2066756c66696c6c604482015260640161084a565b610dc68383612150565b600060188260405161170d9190613eef565b9081526040519081900360200190205460ff16600581111561173157611731613d49565b14156108ed5760405162461bcd60e51b815260206004820152601c60248201527f42657420737461746520697320616c726561647920434c4f5345442e00000000604482015260640161084a565b601b602052600090815260409020805461139d90613f38565b600a805461139d90613f38565b806018836040516117b69190613eef565b908152604051908190036020019020805460ff191660018360058111156117df576117df613d49565b02179055507fe10ba6722d7a7a91bf343a0f8e5b026910dbc4a2ebca276930dff31703c59a70828260405161181592919061406d565b60405180910390a1600281600581111561183157611831613d49565b14156118405761105382612236565b600081600581111561185457611854613d49565b14156110535761105382612286565b60006019826040516118759190613eef565b9081526020016040518091039020549050806000141561189a576110538260006117a5565b60016018836040516118ac9190613eef565b9081526040519081900360200190205460ff1660058111156118d0576118d0613d49565b1480156118fd57506012546118e59082613f21565b4211806118fd57506011546118fa9082613f21565b42105b1561190d576110538260006117a5565b600260188360405161191f9190613eef565b9081526040519081900360200190205460ff16600581111561194357611943613d49565b14806119825750600360188360405161195c9190613eef565b9081526040519081900360200190205460ff16600581111561198057611980613d49565b145b801561199957506011546119969082613f21565b42105b156119a9576110538260006117a5565b60016018836040516119bb9190613eef565b9081526040519081900360200190205460ff1660058111156119df576119df613d49565b1480156119f857506012546119f49082613f21565b4211155b8015611a105750601154611a0c9082613f21565b4210155b15611a20576110538260026117a5565b6002601883604051611a329190613eef565b9081526040519081900360200190205460ff166005811115611a5657611a56613d49565b148015611a6e5750601254611a6b9082613f21565b42115b8015611a7b575060125415155b15611053576110538260036117a5565b611ac96040805160a0810182526000808252602080830182905282840182905260608084018390528451808601909552845283015290608082015290565b611b076040805160a0810182526000808252602080830182905282840182905260608084018390528451808601909552845283015290608082015290565b611b13818686866122d6565b9150505b9392505050565b6080830151611b2d908361236a565b6080830151610dc6908261236a565b6080830151611b4b908361236a565b6080830151610dc69082612381565b600354600090611b17906001600160a01b031684846123e1565b611b7f8383836124ba565b610dc657601383604051611b939190613eef565b90815260200160405180910390206000836002811115611bb557611bb5613d49565b6002811115611bc657611bc6613d49565b815260200190815260200160002080549050601484604051611be89190613eef565b90815260200160405180910390206000846002811115611c0a57611c0a613d49565b6002811115611c1b57611c1b613d49565b81526020019081526020016000206000836001600160a01b03166001600160a01b0316815260200190815260200160002081905550601383604051611c609190613eef565b90815260200160405180910390206000836002811115611c8257611c82613d49565b6002811115611c9357611c93613d49565b8152602080820192909252604001600090812080546001810182559082529190200180546001600160a01b0383166001600160a01b0319909116179055505050565b611ce18484848461255f565b6040516001600160a01b0382169083156108fc029084906000818181858888f19350505050158015611d17573d6000803e3d6000fd5b50806001600160a01b03167f0f3b118062ef97715cdb7fc34e6b3bc6bf1c6ddbbbbc4e8d6f13eff984080d08858486604051611d5593929190614023565b60405180910390a250505050565b6000828152601b602052604081208054611d7c90613f38565b80601f0160208091040260200160405190810160405280929190818152602001828054611da890613f38565b8015611df55780601f10611dca57610100808354040283529160200191611df5565b820191906000526020600020905b815481529060010190602001808311611dd857829003601f168201915b50505050509050827f991c3e65c24cac8eb9898540ce857bbd06f702f19ac9ee6562bd97b96b0d898c8284604051611e2e92919061408f565b60405180910390a26004601882604051611e489190613eef565b9081526040519081900360200190205460ff166005811115611e6c57611e6c613d49565b1415610dc657611e7c81836127f8565b610dc68160056117a5565b60008060005b601385604051611e9d9190613eef565b90815260200160405180910390206000856002811115611ebf57611ebf613d49565b6002811115611ed057611ed0613d49565b8152602081019190915260400160002054811015612062576000601386604051611efa9190613eef565b90815260200160405180910390206000866002811115611f1c57611f1c613d49565b6002811115611f2d57611f2d613d49565b81526020019081526020016000208281548110611f4c57611f4c6140b1565b6000918252602090912001546040516001600160a01b039091169150601590611f76908890613eef565b90815260200160405180910390206000866002811115611f9857611f98613d49565b6002811115611fa957611fa9613d49565b8152602080820192909252604090810160009081206001600160a01b038516825290925290205460ff161561204f57601686604051611fe89190613eef565b9081526020016040518091039020600086600281111561200a5761200a613d49565b600281111561201b5761201b613d49565b8152602080820192909252604090810160009081206001600160a01b038516825290925290205461204c908461400b565b92505b508061205a816140c7565b915050611e8d565b509392505050565b612072613a8c565b604051806060016040528060168560405161208d9190613eef565b908152604080516020928190038301902060008080529083528181206001600160a01b03881682528352819020548352519101906016906120cf908790613eef565b9081526040805160209281900383019020600160009081529083528181206001600160a01b0388168252835281902054835251910190601690612113908790613eef565b9081526040805160209281900383019020600260009081529083528181206001600160a01b03979097168152959091529093205490925250919050565b6000828152601a60205260408120805461216990613f38565b80601f016020809104026020016040519081016040528092919081815260200182805461219590613f38565b80156121e25780601f106121b7576101008083540402835291602001916121e2565b820191906000526020600020905b8154815290600101906020018083116121c557829003601f168201915b50505050509050827f0a19aa077773e15e05c85beefc64244b7b27068fccb13becb7bf450ff41fa89c828460405161221b92919061408f565b60405180910390a261222d81836128c4565b610dc681611863565b60005b60038110156110535761227482600c8360038110612259576122596140b1565b602081049091015460ff601f9092166101000a900416612949565b8061227e816140c7565b915050612239565b60005b6003811015611053576122c482600c83600381106122a9576122a96140b1565b602081049091015460ff601f9092166101000a9004166129b5565b806122ce816140c7565b915050612289565b6123146040805160a0810182526000808252602080830182905282840182905260608084018390528451808601909552845283015290608082015290565b6123248560800151610100612b9d565b50508284526001600160a01b03821660208501527fffffffff0000000000000000000000000000000000000000000000000000000081166040850152835b949350505050565b6123778260038351612c02565b610dc68282612d17565b67ffffffffffffffff1981121561239c576110538282612d3e565b67ffffffffffffffff8113156123b6576110538282612d80565b600081126123ca5761105382600083612c02565b6110538260016123dc846000196140e2565b612c02565b6004546000906123f281600161400b565b600455835160408086015160808701515191516000937f4042994600000000000000000000000000000000000000000000000000000000936124439386938493923092918a91600191602401614156565b60408051601f198184030181529190526020810180517bffffffffffffffffffffffffffffffffffffffffffffffffffffffff167fffffffff000000000000000000000000000000000000000000000000000000009093169290921790915290506124b086838684612da3565b9695505050505050565b60006001600160a01b03821615801590612548575060006014856040516124e19190613eef565b9081526020016040518091039020600085600281111561250357612503613d49565b600281111561251457612514613d49565b81526020019081526020016000206000846001600160a01b03166001600160a01b0316815260200190815260200160002054115b1561255557506001611b17565b5060009392505050565b60006016856040516125719190613eef565b9081526020016040518091039020600085600281111561259357612593613d49565b60028111156125a4576125a4613d49565b81526020019081526020016000206000836001600160a01b03166001600160a01b03168152602001908152602001600020549050600081116126285760405162461bcd60e51b815260206004820181905260248201527f4e6f207374616b65206f6e207468697320616464726573732d726573756c742e604482015260640161084a565b808311156126785760405162461bcd60e51b815260206004820152601660248201527f43757272656e74207374616b6520746f6f206c6f772e00000000000000000000604482015260640161084a565b6126828382613f21565b6016866040516126929190613eef565b908152602001604051809103902060008660028111156126b4576126b4613d49565b60028111156126c5576126c5613d49565b81526020019081526020016000206000846001600160a01b03166001600160a01b0316815260200190815260200160002081905550600060168660405161270c9190613eef565b9081526020016040518091039020600086600281111561272e5761272e613d49565b600281111561273f5761273f613d49565b81526020019081526020016000206000846001600160a01b03166001600160a01b0316815260200190815260200160002054116127f15760006015866040516127889190613eef565b908152602001604051809103902060008660028111156127aa576127aa613d49565b60028111156127bb576127bb613d49565b8152602080820192909252604090810160009081206001600160a01b03871682529092529020805460ff19169115159190911790555b5050505050565b60006128048383612f34565b6040805160018082528183019092529192506000919060208083019080368337019050509050818160008151811061283e5761283e6140b1565b6020026020010190600281111561285757612857613d49565b9081600281111561286a5761286a613d49565b905250600061287883612fe7565b9050600061288686846130fd565b9050600061289487846130fd565b905060006128a2828461400b565b90506128b08887858461314d565b6128ba8885613565565b5050505050505050565b6019826040516128d49190613eef565b908152602001604051809103902054811461105357806019836040516128fa9190613eef565b9081526020016040518091039020819055507f20af5e7c127dd84267ef67d2a1fa455b47bc60840459b4db987929e37daf07a3828260405161293d92919061408f565b60405180910390a15050565b60408051602081018252600081529051601390612967908590613eef565b9081526020016040518091039020600083600281111561298957612989613d49565b600281111561299a5761299a613d49565b81526020810191909152604001600020610dc6916001613aaa565b60005b6013836040516129c89190613eef565b908152602001604051809103902060008360028111156129ea576129ea613d49565b60028111156129fb576129fb613d49565b8152602081019190915260400160002054811015610dc6576000601384604051612a259190613eef565b90815260200160405180910390206000846002811115612a4757612a47613d49565b6002811115612a5857612a58613d49565b81526020019081526020016000208281548110612a7757612a776140b1565b6000918252602090912001546040516001600160a01b039091169150601590612aa1908690613eef565b90815260200160405180910390206000846002811115612ac357612ac3613d49565b6002811115612ad457612ad4613d49565b8152602080820192909252604090810160009081206001600160a01b038516825290925290205460ff1615612b8a576000601685604051612b159190613eef565b90815260200160405180910390206000856002811115612b3757612b37613d49565b6002811115612b4857612b48613d49565b81526020019081526020016000206000836001600160a01b03166001600160a01b03168152602001908152602001600020549050612b8885858385611cd5565b505b5080612b95816140c7565b9150506129b8565b604080518082019091526060815260006020820152612bbd6020836141e8565b15612be557612bcd6020836141e8565b612bd8906020613f21565b612be2908361400b565b91505b506020828101829052604080518085526000815290920101905290565b60178167ffffffffffffffff1611612c2d57612c278360e0600585901b1683176135a6565b50505050565b60ff8167ffffffffffffffff1611612c6b57612c54836018611fe0600586901b16176135a6565b50612c278367ffffffffffffffff831660016135cb565b61ffff8167ffffffffffffffff1611612caa57612c93836019611fe0600586901b16176135a6565b50612c278367ffffffffffffffff831660026135cb565b63ffffffff8167ffffffffffffffff1611612ceb57612cd483601a611fe0600586901b16176135a6565b50612c278367ffffffffffffffff831660046135cb565b612d0083601b611fe0600586901b16176135a6565b50612c278367ffffffffffffffff831660086135cb565b604080518082019091526060815260006020820152611b17838460000151518485516135f1565b612d498260c36135a6565b5061105382612d5a836000196140e2565b604051602001612d6c91815260200190565b6040516020818303038152906040526136db565b612d8b8260c26135a6565b506110538282604051602001612d6c91815260200190565b6040516bffffffffffffffffffffffff193060601b1660208201526034810184905260009060540160408051808303601f1901815282825280516020918201206000818152600590925291812080546001600160a01b0319166001600160a01b038a1617905590925082917fb5e6e01e79f91267dc17b4e6314d5d4d03593d2ceee0fbb452b750bd70ea5af99190a26002546040517f4000aea00000000000000000000000000000000000000000000000000000000081526001600160a01b0390911690634000aea090612e7f908890879087906004016141fc565b6020604051808303816000875af1158015612e9e573d6000803e3d6000fd5b505050506040513d601f19601f82011682018060405250810190612ec2919061404b565b6123625760405162461bcd60e51b815260206004820152602360248201527f756e61626c6520746f207472616e73666572416e6443616c6c20746f206f726160448201527f636c650000000000000000000000000000000000000000000000000000000000606482015260840161084a565b600081612f435750600061138a565b6001821415612f545750600161138a565b6002821415612f655750600261138a565b612f708360036117a5565b600083604051602001612f83919061422d565b60405160208183030381529060405290507f2a2c16a3ce1dea0db612b14a8fdc9a8d316acc87914b4d66440d119b41e8615f8482604051612fc59291906142bf565b60405180910390a18060405162461bcd60e51b815260040161084a9190613eb2565b604080516002808252606080830184529260009291906020830190803683370190505090506000805b60038110156130f45784600281111561302b5761302b613d49565b600c826003811061303e5761303e6140b1565b602081049091015460ff601f9092166101000a900416600281111561306557613065613d49565b146130e257600c816003811061307d5761307d6140b1565b602091828204019190069054906101000a900460ff168383815181106130a5576130a56140b1565b602002602001019060028111156130be576130be613d49565b908160028111156130d1576130d1613d49565b9052506130df60018361400b565b91505b806130ec816140c7565b915050613010565b50909392505050565b60008060005b83518110156120625761312f85858381518110613122576131226140b1565b6020026020010151611e87565b613139908361400b565b915080613145816140c7565b915050613103565b600460188560405161315f9190613eef565b9081526040519081900360200190205460ff16600581111561318357613183613d49565b146131d05760405162461bcd60e51b815260206004820152601960248201527f426574207374617465206e6f742046554c46494c4c494e472e00000000000000604482015260640161084a565b60005b6013856040516131e39190613eef565b9081526020016040518091039020600085600281111561320557613205613d49565b600281111561321657613216613d49565b81526020810191909152604001600020548110156134ab5760006013866040516132409190613eef565b9081526020016040518091039020600086600281111561326257613262613d49565b600281111561327357613273613d49565b81526020019081526020016000208281548110613292576132926140b1565b6000918252602090912001546040516001600160a01b0390911691506015906132bc908890613eef565b908152602001604051809103902060008660028111156132de576132de613d49565b60028111156132ef576132ef613d49565b8152602080820192909252604090810160009081206001600160a01b038516825290925290205460ff16156134985760006016876040516133309190613eef565b9081526020016040518091039020600087600281111561335257613352613d49565b600281111561336357613363613d49565b81526020019081526020016000206000836001600160a01b03166001600160a01b031681526020019081526020016000205490506133a38787838561255f565b60006133af86866142e4565b6133b990836142f8565b905060006064600f54836133cd91906142f8565b6133d791906142e4565b90508060108a6040516133ea9190613eef565b90815260200160405180910390206000828254613407919061400b565b9091555061341790508183613f21565b6040519092506001600160a01b0385169083156108fc029084906000818181858888f19350505050158015613450573d6000803e3d6000fd5b50836001600160a01b03167fc0acd5bc47ab9bd28274b4de553779f718ae53f42f84fe011e7eed61cda99cbd8a8460405161348c92919061408f565b60405180910390a25050505b50806134a3816140c7565b9150506131d3565b50600d546040516001600160a01b03909116906108fc906010906134d0908890613eef565b90815260405190819003602001812054801590920291906000818181858888f19350505050158015613506573d6000803e3d6000fd5b50600d546040516001600160a01b03909116907fc0acd5bc47ab9bd28274b4de553779f718ae53f42f84fe011e7eed61cda99cbd90869060109061354b908390613eef565b90815260405190819003602001812054611d55929161408f565b60005b8151811015610dc65761359483838381518110613587576135876140b1565b60200260200101516136e8565b8061359e816140c7565b915050613568565b604080518082019091526060815260006020820152611b1783846000015151846138d0565b60408051808201909152606081526000602082015261236284856000015151858561392c565b604080518082019091526060815260006020820152825182111561361457600080fd5b6020850151613623838661400b565b1115613656576136568561364687602001518786613641919061400b565b6139ad565b6136519060026142f8565b6139c4565b6000808651805187602083010193508088870111156136755787860182525b505050602084015b602084106136b5578051825261369460208361400b565b91506136a160208261400b565b90506136ae602085613f21565b935061367d565b51815160001960208690036101000a019081169019919091161790525083949350505050565b6123778260028351612c02565b60005b6013836040516136fb9190613eef565b9081526020016040518091039020600083600281111561371d5761371d613d49565b600281111561372e5761372e613d49565b8152602081019190915260400160002054811015610dc65760006013846040516137589190613eef565b9081526020016040518091039020600084600281111561377a5761377a613d49565b600281111561378b5761378b613d49565b815260200190815260200160002082815481106137aa576137aa6140b1565b6000918252602090912001546040516001600160a01b0390911691506015906137d4908690613eef565b908152602001604051809103902060008460028111156137f6576137f6613d49565b600281111561380757613807613d49565b8152602080820192909252604090810160009081206001600160a01b038516825290925290205460ff16156138bd5760006016856040516138489190613eef565b9081526020016040518091039020600085600281111561386a5761386a613d49565b600281111561387b5761387b613d49565b81526020019081526020016000206000836001600160a01b03166001600160a01b031681526020019081526020016000205490506138bb8585838561255f565b505b50806138c8816140c7565b9150506136eb565b6040805180820190915260608152600060208201528360200151831061390557613905848560200151600261365191906142f8565b835180516020858301018481535080851415613922576001810182525b5093949350505050565b6040805180820190915260608152600060208201526020850151613950858461400b565b11156139645761396485613646868561400b565b60006001613974846101006143fb565b61397e9190613f21565b90508551838682010185831982511617815250805184870111156139a25783860181525b509495945050505050565b6000818311156139be57508161138a565b50919050565b81516139d08383612b9d565b50612c278382612d17565b8280546139e790613f38565b90600052602060002090601f016020900481019282613a095760008555613a4f565b82601f10613a2257805160ff1916838001178555613a4f565b82800160010185558215613a4f579182015b82811115613a4f578251825591602001919060010190613a34565b50613a5b929150613aff565b5090565b60408051606081019091528060008152602001613a7a613a8c565b8152602001613a87613a8c565b905290565b60405180606001604052806003906020820280368337509192915050565b828054828255906000526020600020908101928215613a4f579160200282015b82811115613a4f57825182546001600160a01b0319166001600160a01b03909116178255602090920191600190910190613aca565b5b80821115613a5b5760008155600101613b00565b634e487b7160e01b600052604160045260246000fd5b600082601f830112613b3b57600080fd5b813567ffffffffffffffff80821115613b5657613b56613b14565b604051601f8301601f19908116603f01168101908282118183101715613b7e57613b7e613b14565b81604052838152866020858801011115613b9757600080fd5b836020870160208301376000602085830101528094505050505092915050565b600060208284031215613bc957600080fd5b813567ffffffffffffffff811115613be057600080fd5b61236284828501613b2a565b80356001600160a01b0381168114610ab457600080fd5b600060208284031215613c1557600080fd5b611b1782613bec565b803560038110610ab457600080fd5b60008060408385031215613c4057600080fd5b823567ffffffffffffffff811115613c5757600080fd5b613c6385828601613b2a565b925050613c7260208401613c1e565b90509250929050565b600080600060608486031215613c9057600080fd5b833567ffffffffffffffff811115613ca757600080fd5b613cb386828701613b2a565b935050613cc260208501613c1e565b9150604084013590509250925092565b600080600060608486031215613ce757600080fd5b833567ffffffffffffffff811115613cfe57600080fd5b613d0a86828701613b2a565b935050613d1960208501613c1e565b9150613d2760408501613bec565b90509250925092565b600060208284031215613d4257600080fd5b5035919050565b634e487b7160e01b600052602160045260246000fd5b60038110613d6f57613d6f613d49565b9052565b6020810161138a8284613d5f565b60008060408385031215613d9457600080fd5b50508035926020909101359150565b60008060408385031215613db657600080fd5b823567ffffffffffffffff811115613dcd57600080fd5b613dd985828601613b2a565b925050613c7260208401613bec565b60068110613d6f57613d6f613d49565b8060005b6003811015612c27578151845260209384019390910190600101613dfc565b600060e082019050613e2e828451613de8565b6020830151613e406020840182613df8565b506040830151613e536080840182613df8565b5092915050565b60005b83811015613e75578181015183820152602001613e5d565b83811115612c275750506000910152565b60008151808452613e9e816020860160208601613e5a565b601f01601f19169290920160200192915050565b602081526000611b176020830184613e86565b6020810161138a8284613de8565b60008151613ee5818560208601613e5a565b9290920192915050565b60008251613f01818460208701613e5a565b9190910192915050565b634e487b7160e01b600052601160045260246000fd5b600082821015613f3357613f33613f0b565b500390565b600181811c90821680613f4c57607f821691505b602082108114156139be57634e487b7160e01b600052602260045260246000fd5b600080845481600182811c915080831680613f8957607f831692505b6020808410821415613fa957634e487b7160e01b86526022600452602486fd5b818015613fbd5760018114613fce57613ffb565b60ff19861689528489019650613ffb565b60008b81526020902060005b86811015613ff35781548b820152908501908301613fda565b505084890196505b505050505050611b138185613ed3565b6000821982111561401e5761401e613f0b565b500190565b6060815260006140366060830186613e86565b90508360208301526123626040830184613d5f565b60006020828403121561405d57600080fd5b81518015158114611b1757600080fd5b6040815260006140806040830185613e86565b9050611b176020830184613de8565b6040815260006140a26040830185613e86565b90508260208301529392505050565b634e487b7160e01b600052603260045260246000fd5b60006000198214156140db576140db613f0b565b5060010190565b6000808312837f80000000000000000000000000000000000000000000000000000000000000000183128115161561411c5761411c613f0b565b837f7fffffffffffffffffffffffffffffffffffffffffffffffffffffffffffffff01831381161561415057614150613f0b565b50500390565b60006101006001600160a01b03808c1684528a60208501528960408501528089166060850152507fffffffff00000000000000000000000000000000000000000000000000000000871660808401528560a08401528460c08401528060e08401526141c381840185613e86565b9b9a5050505050505050505050565b634e487b7160e01b600052601260045260246000fd5b6000826141f7576141f76141d2565b500690565b6001600160a01b03841681528260208201526060604082015260006142246060830184613e86565b95945050505050565b7f4572726f72206f6e206669787475726520000000000000000000000000000000815260008251614265816011850160208701613e5a565b7f3a20556e6b6e6f776e206669787475726520726573756c742066726f6d20415060119390910192830152507f49000000000000000000000000000000000000000000000000000000000000006031820152603201919050565b6040815260006142d26040830185613e86565b8281036020840152611b138185613e86565b6000826142f3576142f36141d2565b500490565b600081600019048311821515161561431257614312613f0b565b500290565b600181815b8085111561435257816000190482111561433857614338613f0b565b8085161561434557918102915b93841c939080029061431c565b509250929050565b6000826143695750600161138a565b816143765750600061138a565b816001811461438c5760028114614396576143b2565b600191505061138a565b60ff8411156143a7576143a7613f0b565b50506001821b61138a565b5060208310610133831016604e8410600b84101617156143d5575081810a61138a565b6143df8383614317565b80600019048211156143f3576143f3613f0b565b029392505050565b6000611b17838361435a56fea2646970667358221220a9f6151c6774f069501ab5d311bb62ff9735312a924b53cd933f5cf7e2db017e64736f6c634300080c0033",
  "devdoc": {
    "kind": "dev",
    "methods": {},
    "version": 1
  },
  "userdoc": {
    "kind": "user",
    "methods": {
      "requestFixtureKickoffTimeParameter(string)": {
        "notice": "Request fixture kickoff time from the oracle in a single transaction"
      },
      "requestFixtureResultParameter(string)": {
        "notice": "Request fixture result from the oracle in a single transaction"
      },
      "withdrawLink(uint256)": {
        "notice": "Allow withdraw of Link tokens from the contract"
      }
    },
    "version": 1
  },
  "storageLayout": {
    "storage": [
      {
        "astId": 319,
        "contract": "contracts/SportsBetting.sol:SportsBetting",
        "label": "s_ens",
        "offset": 0,
        "slot": "0",
        "type": "t_contract(ENSInterface)974"
      },
      {
        "astId": 321,
        "contract": "contracts/SportsBetting.sol:SportsBetting",
        "label": "s_ensNode",
        "offset": 0,
        "slot": "1",
        "type": "t_bytes32"
      },
      {
        "astId": 324,
        "contract": "contracts/SportsBetting.sol:SportsBetting",
        "label": "s_link",
        "offset": 0,
        "slot": "2",
        "type": "t_contract(LinkTokenInterface)1069"
      },
      {
        "astId": 327,
        "contract": "contracts/SportsBetting.sol:SportsBetting",
        "label": "s_oracle",
        "offset": 0,
        "slot": "3",
        "type": "t_contract(OperatorInterface)1149"
      },
      {
        "astId": 330,
        "contract": "contracts/SportsBetting.sol:SportsBetting",
        "label": "s_requestCount",
        "offset": 0,
        "slot": "4",
        "type": "t_uint256"
      },
      {
        "astId": 334,
        "contract": "contracts/SportsBetting.sol:SportsBetting",
        "label": "s_pendingRequests",
        "offset": 0,
        "slot": "5",
        "type": "t_mapping(t_bytes32,t_address)"
      },
      {
        "astId": 3865,
        "contract": "contracts/SportsBetting.sol:SportsBetting",
        "label": "chainlink",
        "offset": 0,
        "slot": "6",
        "type": "t_address"
      },
      {
        "astId": 3867,
        "contract": "contracts/SportsBetting.sol:SportsBetting",
        "label": "sportsOracleURI",
        "offset": 0,
        "slot": "7",
        "type": "t_string_storage"
      },
      {
        "astId": 3869,
        "contract": "contracts/SportsBetting.sol:SportsBetting",
        "label": "jobId",
        "offset": 0,
        "slot": "8",
        "type": "t_bytes32"
      },
      {
        "astId": 3871,
        "contract": "contracts/SportsBetting.sol:SportsBetting",
        "label": "fee",
        "offset": 0,
        "slot": "9",
        "type": "t_uint256"
      },
      {
        "astId": 3873,
        "contract": "contracts/SportsBetting.sol:SportsBetting",
        "label": "fixtureResult",
        "offset": 0,
        "slot": "10",
        "type": "t_string_storage"
      },
      {
        "astId": 3877,
        "contract": "contracts/SportsBetting.sol:SportsBetting",
        "label": "userToLink",
        "offset": 0,
        "slot": "11",
        "type": "t_mapping(t_address,t_uint256)"
      },
      {
        "astId": 2258,
        "contract": "contracts/SportsBetting.sol:SportsBetting",
        "label": "betTypes",
        "offset": 0,
        "slot": "12",
        "type": "t_array(t_enum(BetType)2185)3_storage"
      },
      {
        "astId": 2260,
        "contract": "contracts/SportsBetting.sol:SportsBetting",
        "label": "owner",
        "offset": 0,
        "slot": "13",
        "type": "t_address"
      },
      {
        "astId": 2265,
        "contract": "contracts/SportsBetting.sol:SportsBetting",
        "label": "entranceFee",
        "offset": 0,
        "slot": "14",
        "type": "t_uint256"
      },
      {
        "astId": 2267,
        "contract": "contracts/SportsBetting.sol:SportsBetting",
        "label": "commissionRate",
        "offset": 0,
        "slot": "15",
        "type": "t_uint256"
      },
      {
        "astId": 2271,
        "contract": "contracts/SportsBetting.sol:SportsBetting",
        "label": "commissionMap",
        "offset": 0,
        "slot": "16",
        "type": "t_mapping(t_string_memory_ptr,t_uint256)"
      },
      {
        "astId": 2280,
        "contract": "contracts/SportsBetting.sol:SportsBetting",
        "label": "betAdvanceTime",
        "offset": 0,
        "slot": "17",
        "type": "t_uint256"
      },
      {
        "astId": 2285,
        "contract": "contracts/SportsBetting.sol:SportsBetting",
        "label": "betCutOffTime",
        "offset": 0,
        "slot": "18",
        "type": "t_uint256"
      },
      {
        "astId": 2293,
        "contract": "contracts/SportsBetting.sol:SportsBetting",
        "label": "historicalBetters",
        "offset": 0,
        "slot": "19",
        "type": "t_mapping(t_string_memory_ptr,t_mapping(t_enum(BetType)2185,t_array(t_address)dyn_storage))"
      },
      {
        "astId": 2302,
        "contract": "contracts/SportsBetting.sol:SportsBetting",
        "label": "historicalBettersIndex",
        "offset": 0,
        "slot": "20",
        "type": "t_mapping(t_string_memory_ptr,t_mapping(t_enum(BetType)2185,t_mapping(t_address,t_uint256)))"
      },
      {
        "astId": 2311,
        "contract": "contracts/SportsBetting.sol:SportsBetting",
        "label": "activeBetters",
        "offset": 0,
        "slot": "21",
        "type": "t_mapping(t_string_memory_ptr,t_mapping(t_enum(BetType)2185,t_mapping(t_address,t_bool)))"
      },
      {
        "astId": 2320,
        "contract": "contracts/SportsBetting.sol:SportsBetting",
        "label": "amounts",
        "offset": 0,
        "slot": "22",
        "type": "t_mapping(t_string_memory_ptr,t_mapping(t_enum(BetType)2185,t_mapping(t_address,t_uint256)))"
      },
      {
        "astId": 2326,
        "contract": "contracts/SportsBetting.sol:SportsBetting",
        "label": "obligations",
        "offset": 0,
        "slot": "23",
        "type": "t_mapping(t_string_memory_ptr,t_mapping(t_address,t_uint256))"
      },
      {
        "astId": 2331,
        "contract": "contracts/SportsBetting.sol:SportsBetting",
        "label": "bettingState",
        "offset": 0,
        "slot": "24",
        "type": "t_mapping(t_string_memory_ptr,t_enum(BettingState)2192)"
      },
      {
        "astId": 2335,
        "contract": "contracts/SportsBetting.sol:SportsBetting",
        "label": "fixtureToKickoffTime",
        "offset": 0,
        "slot": "25",
        "type": "t_mapping(t_string_memory_ptr,t_uint256)"
      },
      {
        "astId": 2339,
        "contract": "contracts/SportsBetting.sol:SportsBetting",
        "label": "requestKickoffToFixture",
        "offset": 0,
        "slot": "26",
        "type": "t_mapping(t_bytes32,t_string_storage)"
      },
      {
        "astId": 2343,
        "contract": "contracts/SportsBetting.sol:SportsBetting",
        "label": "requestResultToFixture",
        "offset": 0,
        "slot": "27",
        "type": "t_mapping(t_bytes32,t_string_storage)"
      }
    ],
    "types": {
      "t_address": {
        "encoding": "inplace",
        "label": "address",
        "numberOfBytes": "20"
      },
      "t_array(t_address)dyn_storage": {
        "base": "t_address",
        "encoding": "dynamic_array",
        "label": "address[]",
        "numberOfBytes": "32"
      },
      "t_array(t_enum(BetType)2185)3_storage": {
        "base": "t_enum(BetType)2185",
        "encoding": "inplace",
        "label": "enum SportsBetting.BetType[3]",
        "numberOfBytes": "32"
      },
      "t_bool": {
        "encoding": "inplace",
        "label": "bool",
        "numberOfBytes": "1"
      },
      "t_bytes32": {
        "encoding": "inplace",
        "label": "bytes32",
        "numberOfBytes": "32"
      },
      "t_contract(ENSInterface)974": {
        "encoding": "inplace",
        "label": "contract ENSInterface",
        "numberOfBytes": "20"
      },
      "t_contract(LinkTokenInterface)1069": {
        "encoding": "inplace",
        "label": "contract LinkTokenInterface",
        "numberOfBytes": "20"
      },
      "t_contract(OperatorInterface)1149": {
        "encoding": "inplace",
        "label": "contract OperatorInterface",
        "numberOfBytes": "20"
      },
      "t_enum(BetType)2185": {
        "encoding": "inplace",
        "label": "enum SportsBetting.BetType",
        "numberOfBytes": "1"
      },
      "t_enum(BettingState)2192": {
        "encoding": "inplace",
        "label": "enum SportsBetting.BettingState",
        "numberOfBytes": "1"
      },
      "t_mapping(t_address,t_bool)": {
        "encoding": "mapping",
        "key": "t_address",
        "label": "mapping(address => bool)",
        "numberOfBytes": "32",
        "value": "t_bool"
      },
      "t_mapping(t_address,t_uint256)": {
        "encoding": "mapping",
        "key": "t_address",
        "label": "mapping(address => uint256)",
        "numberOfBytes": "32",
        "value": "t_uint256"
      },
      "t_mapping(t_bytes32,t_address)": {
        "encoding": "mapping",
        "key": "t_bytes32",
        "label": "mapping(bytes32 => address)",
        "numberOfBytes": "32",
        "value": "t_address"
      },
      "t_mapping(t_bytes32,t_string_storage)": {
        "encoding": "mapping",
        "key": "t_bytes32",
        "label": "mapping(bytes32 => string)",
        "numberOfBytes": "32",
        "value": "t_string_storage"
      },
      "t_mapping(t_enum(BetType)2185,t_array(t_address)dyn_storage)": {
        "encoding": "mapping",
        "key": "t_enum(BetType)2185",
        "label": "mapping(enum SportsBetting.BetType => address[])",
        "numberOfBytes": "32",
        "value": "t_array(t_address)dyn_storage"
      },
      "t_mapping(t_enum(BetType)2185,t_mapping(t_address,t_bool))": {
        "encoding": "mapping",
        "key": "t_enum(BetType)2185",
        "label": "mapping(enum SportsBetting.BetType => mapping(address => bool))",
        "numberOfBytes": "32",
        "value": "t_mapping(t_address,t_bool)"
      },
      "t_mapping(t_enum(BetType)2185,t_mapping(t_address,t_uint256))": {
        "encoding": "mapping",
        "key": "t_enum(BetType)2185",
        "label": "mapping(enum SportsBetting.BetType => mapping(address => uint256))",
        "numberOfBytes": "32",
        "value": "t_mapping(t_address,t_uint256)"
      },
      "t_mapping(t_string_memory_ptr,t_enum(BettingState)2192)": {
        "encoding": "mapping",
        "key": "t_string_memory_ptr",
        "label": "mapping(string => enum SportsBetting.BettingState)",
        "numberOfBytes": "32",
        "value": "t_enum(BettingState)2192"
      },
      "t_mapping(t_string_memory_ptr,t_mapping(t_address,t_uint256))": {
        "encoding": "mapping",
        "key": "t_string_memory_ptr",
        "label": "mapping(string => mapping(address => uint256))",
        "numberOfBytes": "32",
        "value": "t_mapping(t_address,t_uint256)"
      },
      "t_mapping(t_string_memory_ptr,t_mapping(t_enum(BetType)2185,t_array(t_address)dyn_storage))": {
        "encoding": "mapping",
        "key": "t_string_memory_ptr",
        "label": "mapping(string => mapping(enum SportsBetting.BetType => address[]))",
        "numberOfBytes": "32",
        "value": "t_mapping(t_enum(BetType)2185,t_array(t_address)dyn_storage)"
      },
      "t_mapping(t_string_memory_ptr,t_mapping(t_enum(BetType)2185,t_mapping(t_address,t_bool)))": {
        "encoding": "mapping",
        "key": "t_string_memory_ptr",
        "label": "mapping(string => mapping(enum SportsBetting.BetType => mapping(address => bool)))",
        "numberOfBytes": "32",
        "value": "t_mapping(t_enum(BetType)2185,t_mapping(t_address,t_bool))"
      },
      "t_mapping(t_string_memory_ptr,t_mapping(t_enum(BetType)2185,t_mapping(t_address,t_uint256)))": {
        "encoding": "mapping",
        "key": "t_string_memory_ptr",
        "label": "mapping(string => mapping(enum SportsBetting.BetType => mapping(address => uint256)))",
        "numberOfBytes": "32",
        "value": "t_mapping(t_enum(BetType)2185,t_mapping(t_address,t_uint256))"
      },
      "t_mapping(t_string_memory_ptr,t_uint256)": {
        "encoding": "mapping",
        "key": "t_string_memory_ptr",
        "label": "mapping(string => uint256)",
        "numberOfBytes": "32",
        "value": "t_uint256"
      },
      "t_string_memory_ptr": {
        "encoding": "bytes",
        "label": "string",
        "numberOfBytes": "32"
      },
      "t_string_storage": {
        "encoding": "bytes",
        "label": "string",
        "numberOfBytes": "32"
      },
      "t_uint256": {
        "encoding": "inplace",
        "label": "uint256",
        "numberOfBytes": "32"
      }
    }
  }
}