{
  "address": "0x19Ce63bcb1c7f88735c65AFC1920cB31BcceC6B5",
  "abi": [
    {
      "inputs": [
        {
          "internalType": "string",
          "name": "_sportsOracleURI",
          "type": "string"
        },
        {
          "internalType": "address",
          "name": "_oracle",
          "type": "address"
        },
        {
          "internalType": "address",
          "name": "_dai",
          "type": "address"
        },
        {
          "internalType": "address",
          "name": "_link",
          "type": "address"
        },
        {
          "internalType": "string",
          "name": "_jobId",
          "type": "string"
        },
        {
          "internalType": "uint256",
          "name": "_fee",
          "type": "uint256"
        }
      ],
      "stateMutability": "nonpayable",
      "type": "constructor"
    },
    {
      "anonymous": false,
      "inputs": [
        {
          "indexed": true,
          "internalType": "string",
          "name": "fixtureID",
          "type": "string"
        },
        {
          "indexed": false,
          "internalType": "uint256",
          "name": "amount",
          "type": "uint256"
        }
      ],
      "name": "BetCommissionPayout",
      "type": "event"
    },
    {
      "anonymous": false,
      "inputs": [
        {
          "indexed": true,
          "internalType": "address",
          "name": "better",
          "type": "address"
        },
        {
          "indexed": false,
          "internalType": "string",
          "name": "fixtureID",
          "type": "string"
        },
        {
          "indexed": false,
          "internalType": "uint256",
          "name": "amount",
          "type": "uint256"
        }
      ],
      "name": "BetPayout",
      "type": "event"
    },
    {
      "anonymous": false,
      "inputs": [
        {
          "indexed": true,
          "internalType": "address",
          "name": "better",
          "type": "address"
        },
        {
          "indexed": false,
          "internalType": "string",
          "name": "fixtureID",
          "type": "string"
        },
        {
          "indexed": false,
          "internalType": "uint256",
          "name": "amount",
          "type": "uint256"
        },
        {
          "indexed": false,
          "internalType": "enum SportsBettingLib.FixtureResult",
          "name": "betType",
          "type": "uint8"
        }
      ],
      "name": "BetStaked",
      "type": "event"
    },
    {
      "anonymous": false,
      "inputs": [
        {
          "indexed": true,
          "internalType": "address",
          "name": "better",
          "type": "address"
        },
        {
          "indexed": false,
          "internalType": "string",
          "name": "fixtureID",
          "type": "string"
        },
        {
          "indexed": false,
          "internalType": "uint256",
          "name": "amount",
          "type": "uint256"
        },
        {
          "indexed": false,
          "internalType": "enum SportsBettingLib.FixtureResult",
          "name": "betType",
          "type": "uint8"
        }
      ],
      "name": "BetUnstaked",
      "type": "event"
    },
    {
      "anonymous": false,
      "inputs": [
        {
          "indexed": false,
          "internalType": "string",
          "name": "fixtureID",
          "type": "string"
        },
        {
          "indexed": false,
          "internalType": "enum SportsBetting.BettingState",
          "name": "state",
          "type": "uint8"
        }
      ],
      "name": "BettingStateChanged",
      "type": "event"
    },
    {
      "anonymous": false,
      "inputs": [
        {
          "indexed": true,
          "internalType": "bytes32",
          "name": "id",
          "type": "bytes32"
        }
      ],
      "name": "ChainlinkCancelled",
      "type": "event"
    },
    {
      "anonymous": false,
      "inputs": [
        {
          "indexed": true,
          "internalType": "bytes32",
          "name": "id",
          "type": "bytes32"
        }
      ],
      "name": "ChainlinkFulfilled",
      "type": "event"
    },
    {
      "anonymous": false,
      "inputs": [
        {
          "indexed": true,
          "internalType": "bytes32",
          "name": "id",
          "type": "bytes32"
        }
      ],
      "name": "ChainlinkRequested",
      "type": "event"
    },
    {
      "anonymous": false,
      "inputs": [
        {
          "indexed": false,
          "internalType": "string",
          "name": "fixtureID",
          "type": "string"
        },
        {
          "indexed": false,
          "internalType": "uint256",
          "name": "kickoffTime",
          "type": "uint256"
        }
      ],
      "name": "KickoffTimeUpdated",
      "type": "event"
    },
    {
      "anonymous": false,
      "inputs": [
        {
          "indexed": true,
          "internalType": "bytes32",
          "name": "requestId",
          "type": "bytes32"
        },
        {
          "indexed": false,
          "internalType": "string",
          "name": "fixtureID",
          "type": "string"
        },
        {
          "indexed": false,
          "internalType": "uint256",
          "name": "kickoff",
          "type": "uint256"
        }
      ],
      "name": "RequestFixtureKickoffFulfilled",
      "type": "event"
    },
    {
      "anonymous": false,
      "inputs": [
        {
          "indexed": true,
          "internalType": "bytes32",
          "name": "requestId",
          "type": "bytes32"
        },
        {
          "indexed": false,
          "internalType": "string",
          "name": "error",
          "type": "string"
        }
      ],
      "name": "RequestFixtureResultError",
      "type": "event"
    },
    {
      "anonymous": false,
      "inputs": [
        {
          "indexed": true,
          "internalType": "bytes32",
          "name": "requestId",
          "type": "bytes32"
        },
        {
          "indexed": false,
          "internalType": "string",
          "name": "fixtureID",
          "type": "string"
        },
        {
          "indexed": false,
          "internalType": "uint256",
          "name": "result",
          "type": "uint256"
        }
      ],
      "name": "RequestFixtureResultFulfilled",
      "type": "event"
    },
    {
      "anonymous": false,
      "inputs": [
        {
          "indexed": true,
          "internalType": "bytes32",
          "name": "requestId",
          "type": "bytes32"
        },
        {
          "indexed": false,
          "internalType": "string",
          "name": "fixtureID",
          "type": "string"
        }
      ],
      "name": "RequestedFixtureKickoff",
      "type": "event"
    },
    {
      "anonymous": false,
      "inputs": [
        {
          "indexed": true,
          "internalType": "bytes32",
          "name": "requestId",
          "type": "bytes32"
        },
        {
          "indexed": false,
          "internalType": "string",
          "name": "fixtureID",
          "type": "string"
        }
      ],
      "name": "RequestedFixtureResult",
      "type": "event"
    },
    {
      "inputs": [],
      "name": "BET_ADVANCE_TIME",
      "outputs": [
        {
          "internalType": "uint256",
          "name": "",
          "type": "uint256"
        }
      ],
      "stateMutability": "view",
      "type": "function"
    },
    {
      "inputs": [],
      "name": "BET_CUTOFF_TIME",
      "outputs": [
        {
          "internalType": "uint256",
          "name": "",
          "type": "uint256"
        }
      ],
      "stateMutability": "view",
      "type": "function"
    },
    {
      "inputs": [],
      "name": "COMMISSION_RATE",
      "outputs": [
        {
          "internalType": "uint256",
          "name": "",
          "type": "uint256"
        }
      ],
      "stateMutability": "view",
      "type": "function"
    },
    {
      "inputs": [],
      "name": "ENTRANCE_FEE",
      "outputs": [
        {
          "internalType": "uint256",
          "name": "",
          "type": "uint256"
        }
      ],
      "stateMutability": "view",
      "type": "function"
    },
    {
      "inputs": [
        {
          "internalType": "string",
          "name": "",
          "type": "string"
        },
        {
          "internalType": "enum SportsBettingLib.FixtureResult",
          "name": "",
          "type": "uint8"
        },
        {
          "internalType": "address",
          "name": "",
          "type": "address"
        }
      ],
      "name": "amounts",
      "outputs": [
        {
          "internalType": "uint256",
          "name": "",
          "type": "uint256"
        }
      ],
      "stateMutability": "view",
      "type": "function"
    },
    {
      "inputs": [
        {
          "internalType": "string",
          "name": "fixtureID",
          "type": "string"
        }
      ],
      "name": "awaitBetForFixture",
      "outputs": [],
      "stateMutability": "nonpayable",
      "type": "function"
    },
    {
      "inputs": [
        {
          "internalType": "uint256",
          "name": "",
          "type": "uint256"
        }
      ],
      "name": "betTypes",
      "outputs": [
        {
          "internalType": "enum SportsBettingLib.FixtureResult",
          "name": "",
          "type": "uint8"
        }
      ],
      "stateMutability": "view",
      "type": "function"
    },
    {
      "inputs": [
        {
          "internalType": "string",
          "name": "",
          "type": "string"
        }
      ],
      "name": "bettingState",
      "outputs": [
        {
          "internalType": "enum SportsBetting.BettingState",
          "name": "",
          "type": "uint8"
        }
      ],
      "stateMutability": "view",
      "type": "function"
    },
    {
      "inputs": [],
      "name": "chainlink",
      "outputs": [
        {
          "internalType": "address",
          "name": "",
          "type": "address"
        }
      ],
      "stateMutability": "view",
      "type": "function"
    },
    {
      "inputs": [
        {
          "internalType": "string",
          "name": "fixtureID",
          "type": "string"
        }
      ],
      "name": "closeBetForFixture",
      "outputs": [],
      "stateMutability": "nonpayable",
      "type": "function"
    },
    {
      "inputs": [
        {
          "internalType": "string",
          "name": "",
          "type": "string"
        }
      ],
      "name": "commissionMap",
      "outputs": [
        {
          "internalType": "uint256",
          "name": "",
          "type": "uint256"
        }
      ],
      "stateMutability": "view",
      "type": "function"
    },
    {
      "inputs": [
        {
          "internalType": "string",
          "name": "",
          "type": "string"
        }
      ],
      "name": "commissionPaid",
      "outputs": [
        {
          "internalType": "bool",
          "name": "",
          "type": "bool"
        }
      ],
      "stateMutability": "view",
      "type": "function"
    },
    {
      "inputs": [],
      "name": "daiAddress",
      "outputs": [
        {
          "internalType": "address",
          "name": "",
          "type": "address"
        }
      ],
      "stateMutability": "view",
      "type": "function"
    },
    {
      "inputs": [
        {
          "internalType": "string",
          "name": "",
          "type": "string"
        }
      ],
      "name": "fixtureToKickoffTime",
      "outputs": [
        {
          "internalType": "uint256",
          "name": "",
          "type": "uint256"
        }
      ],
      "stateMutability": "view",
      "type": "function"
    },
    {
      "inputs": [
        {
          "internalType": "string",
          "name": "fixtureID",
          "type": "string"
        },
        {
          "internalType": "address",
          "name": "user",
          "type": "address"
        }
      ],
      "name": "getEnrichedFixtureData",
      "outputs": [
        {
          "components": [
            {
              "internalType": "enum SportsBetting.BettingState",
              "name": "fixtureState",
              "type": "uint8"
            },
            {
              "internalType": "uint256[3]",
              "name": "total",
              "type": "uint256[3]"
            },
            {
              "internalType": "uint256[3]",
              "name": "user",
              "type": "uint256[3]"
            }
          ],
          "internalType": "struct SportsBetting.FixtureEnrichment",
          "name": "",
          "type": "tuple"
        }
      ],
      "stateMutability": "view",
      "type": "function"
    },
    {
      "inputs": [
        {
          "internalType": "string",
          "name": "fixtureID",
          "type": "string"
        }
      ],
      "name": "handleCommissionPayout",
      "outputs": [],
      "stateMutability": "nonpayable",
      "type": "function"
    },
    {
      "inputs": [
        {
          "internalType": "string",
          "name": "fixtureID",
          "type": "string"
        }
      ],
      "name": "openBetForFixture",
      "outputs": [],
      "stateMutability": "nonpayable",
      "type": "function"
    },
    {
      "inputs": [],
      "name": "owner",
      "outputs": [
        {
          "internalType": "address",
          "name": "",
          "type": "address"
        }
      ],
      "stateMutability": "view",
      "type": "function"
    },
    {
      "inputs": [
        {
          "internalType": "string",
          "name": "",
          "type": "string"
        },
        {
          "internalType": "address",
          "name": "",
          "type": "address"
        }
      ],
      "name": "payouts",
      "outputs": [
        {
          "internalType": "uint256",
          "name": "",
          "type": "uint256"
        }
      ],
      "stateMutability": "view",
      "type": "function"
    },
    {
      "inputs": [
        {
          "internalType": "bytes32",
          "name": "requestId",
          "type": "bytes32"
        },
        {
          "internalType": "uint256",
          "name": "ko",
          "type": "uint256"
        }
      ],
      "name": "rawFulfillFixtureKickoffTime",
      "outputs": [],
      "stateMutability": "nonpayable",
      "type": "function"
    },
    {
      "inputs": [
        {
          "internalType": "bytes32",
          "name": "requestId",
          "type": "bytes32"
        },
        {
          "internalType": "uint256",
          "name": "result",
          "type": "uint256"
        }
      ],
      "name": "rawFulfillFixtureResult",
      "outputs": [],
      "stateMutability": "nonpayable",
      "type": "function"
    },
    {
      "inputs": [
        {
          "internalType": "string",
          "name": "fixtureID",
          "type": "string"
        }
      ],
      "name": "requestFixtureKickoffTime",
      "outputs": [],
      "stateMutability": "nonpayable",
      "type": "function"
    },
    {
      "inputs": [
        {
          "internalType": "string",
          "name": "fixtureID",
          "type": "string"
        }
      ],
      "name": "requestFixtureKickoffTimeParameter",
      "outputs": [
        {
          "internalType": "bytes32",
          "name": "",
          "type": "bytes32"
        }
      ],
      "stateMutability": "nonpayable",
      "type": "function"
    },
    {
      "inputs": [
        {
          "internalType": "string",
          "name": "fixtureID",
          "type": "string"
        }
      ],
      "name": "requestFixtureResult",
      "outputs": [],
      "stateMutability": "nonpayable",
      "type": "function"
    },
    {
      "inputs": [
        {
          "internalType": "string",
          "name": "fixtureID",
          "type": "string"
        }
      ],
      "name": "requestFixtureResultParameter",
      "outputs": [
        {
          "internalType": "bytes32",
          "name": "",
          "type": "bytes32"
        }
      ],
      "stateMutability": "nonpayable",
      "type": "function"
    },
    {
      "inputs": [
        {
          "internalType": "bytes32",
          "name": "",
          "type": "bytes32"
        }
      ],
      "name": "requestKickoffToFixture",
      "outputs": [
        {
          "internalType": "string",
          "name": "",
          "type": "string"
        }
      ],
      "stateMutability": "view",
      "type": "function"
    },
    {
      "inputs": [
        {
          "internalType": "bytes32",
          "name": "",
          "type": "bytes32"
        }
      ],
      "name": "requestResultToFixture",
      "outputs": [
        {
          "internalType": "string",
          "name": "",
          "type": "string"
        }
      ],
      "stateMutability": "view",
      "type": "function"
    },
    {
      "inputs": [
        {
          "internalType": "string",
          "name": "",
          "type": "string"
        }
      ],
      "name": "results",
      "outputs": [
        {
          "internalType": "enum SportsBettingLib.FixtureResult",
          "name": "",
          "type": "uint8"
        }
      ],
      "stateMutability": "view",
      "type": "function"
    },
    {
      "inputs": [],
      "name": "sportsOracleURI",
      "outputs": [
        {
          "internalType": "string",
          "name": "",
          "type": "string"
        }
      ],
      "stateMutability": "view",
      "type": "function"
    },
    {
      "inputs": [
        {
          "internalType": "string",
          "name": "fixtureID",
          "type": "string"
        },
        {
          "internalType": "enum SportsBettingLib.FixtureResult",
          "name": "betType",
          "type": "uint8"
        },
        {
          "internalType": "uint256",
          "name": "amount",
          "type": "uint256"
        }
      ],
      "name": "stake",
      "outputs": [],
      "stateMutability": "nonpayable",
      "type": "function"
    },
    {
      "inputs": [
        {
          "internalType": "string",
          "name": "",
          "type": "string"
        },
        {
          "internalType": "enum SportsBettingLib.FixtureResult",
          "name": "",
          "type": "uint8"
        }
      ],
      "name": "totalAmounts",
      "outputs": [
        {
          "internalType": "uint256",
          "name": "",
          "type": "uint256"
        }
      ],
      "stateMutability": "view",
      "type": "function"
    },
    {
      "inputs": [
        {
          "internalType": "uint256",
          "name": "amount",
          "type": "uint256"
        }
      ],
      "name": "transferLink",
      "outputs": [],
      "stateMutability": "nonpayable",
      "type": "function"
    },
    {
      "inputs": [
        {
          "internalType": "string",
          "name": "fixtureID",
          "type": "string"
        },
        {
          "internalType": "enum SportsBettingLib.FixtureResult",
          "name": "betType",
          "type": "uint8"
        },
        {
          "internalType": "uint256",
          "name": "amount",
          "type": "uint256"
        }
      ],
      "name": "unstake",
      "outputs": [],
      "stateMutability": "nonpayable",
      "type": "function"
    },
    {
      "inputs": [
        {
          "internalType": "address",
          "name": "",
          "type": "address"
        }
      ],
      "name": "userToLink",
      "outputs": [
        {
          "internalType": "uint256",
          "name": "",
          "type": "uint256"
        }
      ],
      "stateMutability": "view",
      "type": "function"
    },
    {
      "inputs": [
        {
          "internalType": "string",
          "name": "",
          "type": "string"
        },
        {
          "internalType": "address",
          "name": "",
          "type": "address"
        }
      ],
      "name": "userWasPaid",
      "outputs": [
        {
          "internalType": "bool",
          "name": "",
          "type": "bool"
        }
      ],
      "stateMutability": "view",
      "type": "function"
    },
    {
      "inputs": [
        {
          "internalType": "uint256",
          "name": "amount",
          "type": "uint256"
        }
      ],
      "name": "withdrawLink",
      "outputs": [],
      "stateMutability": "nonpayable",
      "type": "function"
    },
    {
      "inputs": [
        {
          "internalType": "string",
          "name": "fixtureID",
          "type": "string"
        }
      ],
      "name": "withdrawPayout",
      "outputs": [],
      "stateMutability": "nonpayable",
      "type": "function"
    }
  ],
  "transactionHash": "0x231963c905503f2f87c5317b5c68f84640ee36da7991b210901dceae16c701cc",
  "args": [
    "https://1vyuff64d9.execute-api.us-east-1.amazonaws.com/dev/premier-league/fixtures/",
    "0xcc79157eb46f5624204f47ab42b3906caa40eab7",
    "0x97cb342cf2f6ecf48c1285fb8668f5a4237bf862",
    "0x326C977E6efc84E512bB9C30f76E30c160eD06FB",
    "ca98366cc7314957b8c012c72f05aeeb",
    "100000000000000000"
  ],
  "numDeployments": 4,
  "solcInputHash": "67a20b0311782a3d2b253498c21d2f1e",
  "bytecode": "0x60e060405260016004553480156200001657600080fd5b5060405162004d6c38038062004d6c83398101604081905262000039916200028e565b8585848484846006908051906020019062000056929190620000fe565b50600280546001600160a01b0319166001600160a01b038516179055600380546001600160a01b0319166001600160a01b0386161790556001600160a01b038416608052620000a582620000e0565b6007556008555050600a805464ffffffffff191664040302010017905550503360a0525050506001600160a01b031660c05250620003759050565b80516000908290620000f55750600092915050565b50506020015190565b8280546200010c9062000338565b90600052602060002090601f0160209004810192826200013057600085556200017b565b82601f106200014b57805160ff19168380011785556200017b565b828001600101855582156200017b579182015b828111156200017b5782518255916020019190600101906200015e565b50620001899291506200018d565b5090565b5b808211156200018957600081556001016200018e565b634e487b7160e01b600052604160045260246000fd5b600082601f830112620001cc57600080fd5b81516001600160401b0380821115620001e957620001e9620001a4565b604051601f8301601f19908116603f01168101908282118183101715620002145762000214620001a4565b816040528381526020925086838588010111156200023157600080fd5b600091505b8382101562000255578582018301518183018401529082019062000236565b83821115620002675760008385830101525b9695505050505050565b80516001600160a01b03811681146200028957600080fd5b919050565b60008060008060008060c08789031215620002a857600080fd5b86516001600160401b0380821115620002c057600080fd5b620002ce8a838b01620001ba565b9750620002de60208a0162000271565b9650620002ee60408a0162000271565b9550620002fe60608a0162000271565b945060808901519150808211156200031557600080fd5b506200032489828a01620001ba565b92505060a087015190509295509295509295565b600181811c908216806200034d57607f821691505b602082108114156200036f57634e487b7160e01b600052602260045260246000fd5b50919050565b60805160a05160c05161498f620003dd600039600081816102fc01528181610cc00152818161152001528181611e3b01528181612c320152612f4f0152600081816105030152610cf2015260008181610550015281816119ad0152612346015261498f6000f3fe608060405234801561001057600080fd5b50600436106102765760003560e01c8063870c58a611610160578063c1e9aa45116100d8578063edb160701161008c578063f46dccf011610071578063f46dccf014610677578063f6573b4f1461068a578063fbe91393146106b557600080fd5b8063edb1607014610639578063ef40efde1461066457600080fd5b8063d8654c08116100bd578063d8654c0814610609578063e1f4324a1461061c578063e37685ec1461062657600080fd5b8063c1e9aa45146105e8578063c40bc66b146105f657600080fd5b80639959a30f1161012f578063aa06609011610114578063aa06609014610572578063abf949f8146105b3578063b148cdf1146105d357600080fd5b80639959a30f146105385780639c3feeb71461054b57600080fd5b8063870c58a6146104bd5780638a71bfa8146104eb5780638da5cb5b146104fe5780638e4821c51461052557600080fd5b80635e1349a6116101f3578063793970e1116101c25780637a8042bd116101a75780637a8042bd1461045c5780637c5e94051461046f5780637cc2c2f8146104aa57600080fd5b8063793970e11461040e57806379664e651461042157600080fd5b80635e1349a6146103915780635e5243191461039a57806362098ff7146103ad57806375a30228146103c057600080fd5b80631d686ae41161024a5780632c3872751161022f5780632c387275146102f757806339ea0791146103365780634b13d17d1461035657600080fd5b80631d686ae4146102d15780632079624e146102e457600080fd5b8062e1a75b1461027b57806301ec29c9146102905780631857edf2146102a35780631a454ea6146102b6575b600080fd5b61028e61028936600461406a565b6106f0565b005b61028e61029e36600461406a565b6107cd565b61028e6102b136600461406a565b6108b0565b6102be600181565b6040519081526020015b60405180910390f35b6102be6102df36600461406a565b610dfe565b61028e6102f236600461406a565b610fc2565b61031e7f000000000000000000000000000000000000000000000000000000000000000081565b6040516001600160a01b0390911681526020016102c8565b6102be6103443660046140b6565b60096020526000908152604090205481565b61038461036436600461406a565b805160208183018101805160138252928201919093012091525460ff1681565b6040516102c891906140fb565b6102be61151881565b61028e6103a8366004614116565b611189565b6103846103bb366004614170565b6115eb565b6103fe6103ce366004614189565b8151602081840181018051600f825292820194820194909420919093529091526000908152604090205460ff1681565b60405190151581526020016102c8565b61028e61041c36600461406a565b611615565b6102be61042f3660046141d7565b8151602081840181018051600d825292820194820194909420919093529091526000908152604090205481565b61028e61046a366004614170565b611681565b6102be61047d366004614189565b8151602081840181018051600e825292820194820194909420919093529091526000908152604090205481565b61028e6104b8366004614170565b6117d7565b6103fe6104cb36600461406a565b805160208183018101805160158252928201919093012091525460ff1681565b61028e6104f9366004614229565b6118d9565b61031e7f000000000000000000000000000000000000000000000000000000000000000081565b61028e610533366004614116565b611a24565b61028e61054636600461406a565b611f07565b61031e7f000000000000000000000000000000000000000000000000000000000000000081565b6102be61058036600461424b565b8251602081850181018051600c825292820195820195909520919094528352600091825260408083209093528152205481565b6105c66105c1366004614189565b611f67565b6040516102c891906142de565b6105db612075565b6040516102c89190614375565b6102be66038d7ea4c6800081565b6105db610604366004614170565b612103565b6102be61061736600461406a565b61211c565b6102be62093a8081565b61028e610634366004614229565b612272565b6102be61064736600461406a565b805160208183018101805160118252928201919093012091525481565b61028e61067236600461406a565b6123bd565b6105db610685366004614170565b6124a1565b6102be61069836600461406a565b805160208183018101805160148252928201919093012091525481565b6106e36106c336600461406a565b8051602081830181018051600b8252928201919093012091525460ff1681565b6040516102c89190614388565b6000600b8260405161070291906143b2565b9081526040519081900360200190205460ff166005811115610726576107266140d1565b148061076557506001600b8260405161073f91906143b2565b9081526040519081900360200190205460ff166005811115610763576107636140d1565b145b6107b65760405162461bcd60e51b815260206004820181905260248201527f5374617465206d75737420626520434c4f534544206f72204f50454e494e472e60448201526064015b60405180910390fd5b6107c18160016124ba565b6107ca81611f07565b50565b6002600b826040516107df91906143b2565b9081526040519081900360200190205460ff166005811115610803576108036140d1565b146108505760405162461bcd60e51b815260206004820152601760248201527f426574207374617465206d757374206265204f50454e2e00000000000000000060448201526064016107ad565b61085981612536565b6108a55760405162461bcd60e51b815260206004820181905260248201527f4669787475726520696e656c696769626c6520666f72204157414954494e472e60448201526064016107ad565b6107ca8160036124ba565b6004600b826040516108c291906143b2565b9081526040519081900360200190205460ff1660058111156108e6576108e66140d1565b146109335760405162461bcd60e51b815260206004820152601360248201527f46697874757265206e6f742070617961626c650000000000000000000000000060448201526064016107ad565b60158160405161094391906143b2565b9081526040519081900360200190205460ff16156109a35760405162461bcd60e51b815260206004820152601860248201527f436f6d6d697373696f6e20616c726561647920706169642e000000000000000060448201526064016107ad565b60006013826040516109b591906143b2565b9081526040519081900360200190205460ff16905060008160048111156109de576109de6140d1565b14806109fb575060018160048111156109f9576109f96140d1565b145b15610a485760405162461bcd60e51b815260206004820152601760248201527f496e76616c6964206669787475726520726573756c742e00000000000000000060448201526064016107ad565b604080516001808252818301909252600091602080830190803683370190505090508181600081518110610a7e57610a7e6143ce565b60200260200101906004811115610a9757610a976140d1565b90816004811115610aaa57610aaa6140d1565b9052506000610ab984836125ba565b9050600073eac7428A8FBE8339B76505bBA4968e4B9Dc6A43B63373bdcc8856040518263ffffffff1660e01b8152600401610af491906140fb565b600060405180830381865af4158015610b11573d6000803e3d6000fd5b505050506040513d6000823e601f3d908101601f19168201604052610b3991908101906143e4565b90506000610b4786836125ba565b90506000610b5582856144ac565b60405163387844ab60e11b815260048101829052602481018690526001604482015290915060009073eac7428A8FBE8339B76505bBA4968e4B9Dc6A43B906370f0895690606401602060405180830381865af4158015610bb9573d6000803e3d6000fd5b505050506040513d601f19601f82011682018060405250810190610bdd91906144c4565b905080601489604051610bf091906143b2565b9081526020016040518091039020819055506001601589604051610c1491906143b2565b908152604051908190036020018120805492151560ff1990931692909217909155610c409089906143b2565b60405180910390207f60b1c59a2aef10b76f58eab3892bfebe9dc131e4f7c750d091592586ae29acc560148a604051610c7991906143b2565b908152604051602091819003820181205481520160405180910390a26000601489604051610ca791906143b2565b9081526020016040518091039020541115610df45760007f00000000000000000000000000000000000000000000000000000000000000009050806001600160a01b031663a9059cbb7f000000000000000000000000000000000000000000000000000000000000000060148c604051610d2191906143b2565b908152604051908190036020018120546001600160e01b031960e085901b168252610d6392916004016001600160a01b03929092168252602082015260400190565b6020604051808303816000875af1158015610d82573d6000803e3d6000fd5b505050506040513d601f19601f82011682018060405250810190610da691906144dd565b610df25760405162461bcd60e51b815260206004820152601660248201527f556e61626c6520746f207061796f7574206f776e65720000000000000000000060448201526064016107ad565b505b5050505050505050565b6008543360009081526009602052604081205490911115610e615760405162461bcd60e51b815260206004820152601d60248201527f596f7520686176656e27742073656e7420656e6f756768204c494e4b2e00000060448201526064016107ad565b6008543360009081526009602052604081208054909190610e839084906144ff565b9091555050600754600090610eb990307fe37685ec0000000000000000000000000000000000000000000000000000000061265b565b9050610f066040518060400160405280600381526020016219d95d60ea1b815250600685604051602001610eee92919061454b565b60408051601f198184030181529190528391906126ee565b610f6c604051806040016040528060048152602001630e0c2e8d60e31b8152506040518060400160405280600481526020017f302c6b6f00000000000000000000000000000000000000000000000000000000815250836126ee9092919063ffffffff16565b60408051808201909152600581527f74696d65730000000000000000000000000000000000000000000000000000006020820152610fad908290600161270c565b610fb98160085461272a565b9150505b919050565b6004600b82604051610fd491906143b2565b9081526040519081900360200190205460ff166005811115610ff857610ff86140d1565b148061103757506005600b8260405161101191906143b2565b9081526040519081900360200190205460ff166005811115611035576110356140d1565b145b6110835760405162461bcd60e51b815260206004820152601f60248201527f5374617465206e6f742050415941424c45206f722043414e43454c4c45442e0060448201526064016107ad565b600f8160405161109391906143b2565b9081526040805160209281900383019020336000908152925290205460ff16156110ff5760405162461bcd60e51b815260206004820152600d60248201527f416c726561647920706169642e0000000000000000000000000000000000000060448201526064016107ad565b6004600b8260405161111191906143b2565b9081526040519081900360200190205460ff166005811115611135576111356140d1565b1415611144576107ca81612744565b6005600b8260405161115691906143b2565b9081526040519081900360200190205460ff16600581111561117a5761117a6140d1565b14156107ca576107ca81612d03565b61119283612536565b156111a7576111a28360036124ba565b505050565b6002600b846040516111b991906143b2565b9081526040519081900360200190205460ff1660058111156111dd576111dd6140d1565b1461122a5760405162461bcd60e51b815260206004820152601960248201527f426574206163746976697479206973206e6f74206f70656e2e0000000000000060448201526064016107ad565b6000811161127a5760405162461bcd60e51b815260206004820152601a60248201527f416d6f756e742073686f756c6420657863656564207a65726f2e00000000000060448201526064016107ad565b6000600c8460405161128c91906143b2565b908152602001604051809103902060008460048111156112ae576112ae6140d1565b60048111156112bf576112bf6140d1565b81526020808201929092526040908101600090812033825290925290205490508061132c5760405162461bcd60e51b815260206004820181905260248201527f4e6f207374616b65206f6e207468697320616464726573732d726573756c742e60448201526064016107ad565b8082111561137c5760405162461bcd60e51b815260206004820152601660248201527f43757272656e74207374616b6520746f6f206c6f772e0000000000000000000060448201526064016107ad565b600061138883836144ff565b905080156113e75766038d7ea4c680008110156113e75760405162461bcd60e51b815260206004820152601d60248201527f43616e6e6f7420676f2062656c6f7720656e7472616e6365206665652e00000060448201526064016107ad565b80600c866040516113f891906143b2565b9081526020016040518091039020600086600481111561141a5761141a6140d1565b600481111561142b5761142b6140d1565b81526020019081526020016000206000336001600160a01b03166001600160a01b031681526020019081526020016000208190555082600d8660405161147191906143b2565b90815260200160405180910390206000866004811115611493576114936140d1565b60048111156114a4576114a46140d1565b815260200190815260200160002060008282546114c191906144ff565b909155505060405133907f0f3b118062ef97715cdb7fc34e6b3bc6bf1c6ddbbbbc4e8d6f13eff984080d08906114fc908890879089906145e9565b60405180910390a260405163a9059cbb60e01b8152336004820152602481018490527f0000000000000000000000000000000000000000000000000000000000000000906001600160a01b0382169063a9059cbb906044016020604051808303816000875af1158015611573573d6000803e3d6000fd5b505050506040513d601f19601f8201168201806040525081019061159791906144dd565b6115e35760405162461bcd60e51b815260206004820152601760248201527f556e61626c6520746f207472616e73666572204441492e00000000000000000060448201526064016107ad565b505050505050565b600a81600581106115fb57600080fd5b60209182820401919006915054906101000a900460ff1681565b60006116208261211c565b60008181526012602090815260409091208451929350611644929091850190613ecf565b50807f203eeb39bf08702855bb5830b3ec49ea10fb51bde91904739f7c0c3ab41776d5836040516116759190614375565b60405180910390a25050565b336000908152600960205260409020548111156116e05760405162461bcd60e51b815260206004820152601a60248201527f596f7520646f6e2774206861766520656e6f756768206c696e6b00000000000060448201526064016107ad565b33600090815260096020526040812080548392906116ff9084906144ff565b90915550506002546000906001600160a01b031660405163a9059cbb60e01b8152336004820152602481018490529091506001600160a01b0382169063a9059cbb906044016020604051808303816000875af1158015611763573d6000803e3d6000fd5b505050506040513d601f19601f8201168201806040525081019061178791906144dd565b6117d35760405162461bcd60e51b815260206004820152601260248201527f556e61626c6520746f207472616e73666572000000000000000000000000000060448201526064016107ad565b5050565b60006117eb6002546001600160a01b031690565b6040516323b872dd60e01b8152336004820152306024820152604481018490529091506001600160a01b038216906323b872dd906064016020604051808303816000875af1158015611841573d6000803e3d6000fd5b505050506040513d601f19601f8201168201806040525081019061186591906144dd565b6118b15760405162461bcd60e51b815260206004820152601260248201527f556e61626c6520746f207472616e73666572000000000000000000000000000060448201526064016107ad565b33600090815260096020526040812080548492906118d09084906144ac565b90915550505050565b60008281526005602052604090205482906001600160a01b031633146119525760405162461bcd60e51b815260206004820152602860248201527f536f75726365206d75737420626520746865206f7261636c65206f6620746865604482015267081c995c5d595cdd60c21b60648201526084016107ad565b600081815260056020526040808220805473ffffffffffffffffffffffffffffffffffffffff191690555182917f7cc135e0cebb02c3480ae5d74d377283180a2601f8f644edf7987b009316c63a91a2336001600160a01b037f00000000000000000000000000000000000000000000000000000000000000001614611a1a5760405162461bcd60e51b815260206004820181905260248201527f4f6e6c7920436861696e6c696e6b436c69656e742063616e2066756c66696c6c60448201526064016107ad565b6111a28383613012565b611a2d83612536565b15611a3d576111a28360036124ba565b6000826004811115611a5157611a516140d1565b14158015611a7157506001826004811115611a6e57611a6e6140d1565b14155b611abd5760405162461bcd60e51b815260206004820152601e60248201527f546869732042657454797065206973206e6f74207065726d69747465642e000060448201526064016107ad565b6002600b84604051611acf91906143b2565b9081526040519081900360200190205460ff166005811115611af357611af36140d1565b14611b405760405162461bcd60e51b815260206004820152601960248201527f426574206163746976697479206973206e6f74206f70656e2e0000000000000060448201526064016107ad565b66038d7ea4c68000811015611b975760405162461bcd60e51b815260206004820152601d60248201527f416d6f756e742069732062656c6f7720656e7472616e6365206665652e00000060448201526064016107ad565b6000806000611c06600c87604051611baf91906143b2565b90815260200160405180910390206000876004811115611bd157611bd16140d1565b6004811115611be257611be26140d1565b815260208082019290925260409081016000908120338252909252902054856132d7565b909350915082611c585760405162461bcd60e51b815260206004820152601460248201527f55736572207374616b65206f766572666c6f772e00000000000000000000000060448201526064016107ad565b611cb3600d87604051611c6b91906143b2565b90815260200160405180910390206000876004811115611c8d57611c8d6140d1565b6004811115611c9e57611c9e6140d1565b815260200190815260200160002054856132d7565b909350905082611d055760405162461bcd60e51b815260206004820152601560248201527f546f74616c207374616b65206f766572666c6f772e000000000000000000000060448201526064016107ad565b81600c87604051611d1691906143b2565b90815260200160405180910390206000876004811115611d3857611d386140d1565b6004811115611d4957611d496140d1565b81526020019081526020016000206000336001600160a01b03166001600160a01b031681526020019081526020016000208190555080600d87604051611d8f91906143b2565b90815260200160405180910390206000876004811115611db157611db16140d1565b6004811115611dc257611dc26140d1565b815260200190815260200160002081905550336001600160a01b03167f1a48cf6315f5f44cf8ac3a5105296caf8a73f64b40f9a6b7cbf8ba65ca930fd4878688604051611e11939291906145e9565b60405180910390a26040516323b872dd60e01b8152336004820152306024820152604481018590527f0000000000000000000000000000000000000000000000000000000000000000906001600160a01b038216906323b872dd906064016020604051808303816000875af1158015611e8e573d6000803e3d6000fd5b505050506040513d601f19601f82011682018060405250810190611eb291906144dd565b611efe5760405162461bcd60e51b815260206004820152601360248201527f556e61626c6520746f207472616e736665722e0000000000000000000000000060448201526064016107ad565b50505050505050565b6000611f1282610dfe565b60008181526010602090815260409091208451929350611f36929091850190613ecf565b50807f45d732f7bcf8bc3eb58d8fd2fe72f5d05aa36dadc20e6c9989abd2a741d81cac836040516116759190614375565b611f6f613f53565b6040518060600160405280600b85604051611f8a91906143b2565b9081526040519081900360200190205460ff166005811115611fae57611fae6140d1565b81526020016040518060600160405280600d87604051611fce91906143b2565b908152604051908190036020019020600060028152602001908152602001600020548152602001600d8760405161200591906143b2565b908152604051908190036020019020600060038152602001908152602001600020548152602001600d8760405161203c91906143b2565b90815260408051602092819003830190206004600090815290835220549091529082520161206a8585613300565b905290505b92915050565b6006805461208290614516565b80601f01602080910402602001604051908101604052809291908181526020018280546120ae90614516565b80156120fb5780601f106120d0576101008083540402835291602001916120fb565b820191906000526020600020905b8154815290600101906020018083116120de57829003601f168201915b505050505081565b6010602052600090815260409020805461208290614516565b600854336000908152600960205260408120549091111561217f5760405162461bcd60e51b815260206004820152601d60248201527f596f7520686176656e27742073656e7420656e6f756768204c494e4b2e00000060448201526064016107ad565b60085433600090815260096020526040812080549091906121a19084906144ff565b90915550506007546000906121d790307f8a71bfa80000000000000000000000000000000000000000000000000000000061265b565b905061220c6040518060400160405280600381526020016219d95d60ea1b815250600685604051602001610eee92919061454b565b610f6c604051806040016040528060048152602001630e0c2e8d60e31b8152506040518060400160405280600881526020017f302c726573756c74000000000000000000000000000000000000000000000000815250836126ee9092919063ffffffff16565b60008281526005602052604090205482906001600160a01b031633146122eb5760405162461bcd60e51b815260206004820152602860248201527f536f75726365206d75737420626520746865206f7261636c65206f6620746865604482015267081c995c5d595cdd60c21b60648201526084016107ad565b600081815260056020526040808220805473ffffffffffffffffffffffffffffffffffffffff191690555182917f7cc135e0cebb02c3480ae5d74d377283180a2601f8f644edf7987b009316c63a91a2336001600160a01b037f000000000000000000000000000000000000000000000000000000000000000016146123b35760405162461bcd60e51b815260206004820181905260248201527f4f6e6c7920436861696e6c696e6b436c69656e742063616e2066756c66696c6c60448201526064016107ad565b6111a283836133e8565b6000600b826040516123cf91906143b2565b9081526040519081900360200190205460ff1660058111156123f3576123f36140d1565b14156124415760405162461bcd60e51b815260206004820152601c60248201527f42657420737461746520697320616c726561647920434c4f5345442e0000000060448201526064016107ad565b61244a81613549565b6124965760405162461bcd60e51b815260206004820181905260248201527f4669787475726520696e656c696769626c6520746f20626520636c6f7365642e60448201526064016107ad565b6107ca8160006124ba565b6012602052600090815260409020805461208290614516565b80600b836040516124cb91906143b2565b908152604051908190036020019020805460ff191660018360058111156124f4576124f46140d1565b02179055507fe10ba6722d7a7a91bf343a0f8e5b026910dbc4a2ebca276930dff31703c59a70828260405161252a929190614611565b60405180910390a15050565b60008060118360405161254991906143b2565b90815260200160405180910390205490506115188111801561259e57506002600b8460405161257891906143b2565b9081526040519081900360200190205460ff16600581111561259c5761259c6140d1565b145b8015610fb957506125b1611518826144ff565b42119392505050565b60008060005b835181101561265357600d856040516125d991906143b2565b908152602001604051809103902060008583815181106125fb576125fb6143ce565b60200260200101516004811115612614576126146140d1565b6004811115612625576126256140d1565b8152602001908152602001600020548261263f91906144ac565b91508061264b81614633565b9150506125c0565b509392505050565b6126996040805160a0810182526000808252602080830182905282840182905260608084018390528451808601909552845283015290608082015290565b6126d76040805160a0810182526000808252602080830182905282840182905260608084018390528451808601909552845283015290608082015290565b6126e3818686866135fe565b9150505b9392505050565b60808301516126fd908361367a565b60808301516111a2908261367a565b608083015161271b908361367a565b60808301516111a29082613691565b6003546000906126e7906001600160a01b031684846136f1565b600060138260405161275691906143b2565b9081526040519081900360200190205460ff169050600081600481111561277f5761277f6140d1565b148061279c5750600181600481111561279a5761279a6140d1565b145b156127e95760405162461bcd60e51b815260206004820152601760248201527f496e76616c6964206669787475726520726573756c742e00000000000000000060448201526064016107ad565b6000600c836040516127fb91906143b2565b9081526020016040518091039020600083600481111561281d5761281d6140d1565b600481111561282e5761282e6140d1565b8152602080820192909252604090810160009081203382529092529020549050806128c15760405162461bcd60e51b815260206004820152602860248201527f596f7520646964206e6f74207374616b65206f6e207468652077696e6e696e6760448201527f206f7574636f6d6500000000000000000000000000000000000000000000000060648201526084016107ad565b6040805160018082528183019092526000916020808301908036833701905050905082816000815181106128f7576128f76143ce565b60200260200101906004811115612910576129106140d1565b90816004811115612923576129236140d1565b9052506040517f373bdcc800000000000000000000000000000000000000000000000000000000815260009073eac7428A8FBE8339B76505bBA4968e4B9Dc6A43B9063373bdcc8906129799087906004016140fb565b600060405180830381865af4158015612996573d6000803e3d6000fd5b505050506040513d6000823e601f3d908101601f191682016040526129be91908101906143e4565b905060006129cc86846125ba565b905060006129da87846125ba565b90506000806129e984846132d7565b9150915081612a3a5760405162461bcd60e51b815260206004820152601c60248201527f4f766572666c6f77206f6e20746f74616c20616d6f756e74206265740000000060448201526064016107ad565b6040517f29a2ea4500000000000000000000000000000000000000000000000000000000815260048101889052602481018590526044810182905260009073eac7428A8FBE8339B76505bBA4968e4B9Dc6A43B906329a2ea4590606401602060405180830381865af4158015612ab4573d6000803e3d6000fd5b505050506040513d601f19601f82011682018060405250810190612ad891906144c4565b60405163387844ab60e11b815260048101829052602481018a90526001604482015290915060009073eac7428A8FBE8339B76505bBA4968e4B9Dc6A43B906370f0895690606401602060405180830381865af4158015612b3c573d6000803e3d6000fd5b505050506040513d601f19601f82011682018060405250810190612b6091906144c4565b9050612b6c81836144ff565b915081600e8c604051612b7f91906143b2565b90815260408051918290036020908101832033600090815291522091909155600190600f90612baf908e906143b2565b90815260408051602092819003830181203360008181529190945291909120805460ff191693151593909317909255907fc0acd5bc47ab9bd28274b4de553779f718ae53f42f84fe011e7eed61cda99cbd90612c0e908e90869061464e565b60405180910390a260405163a9059cbb60e01b8152336004820152602481018390527f0000000000000000000000000000000000000000000000000000000000000000906001600160a01b0382169063a9059cbb906044016020604051808303816000875af1158015612c85573d6000803e3d6000fd5b505050506040513d601f19601f82011682018060405250810190612ca991906144dd565b612cf55760405162461bcd60e51b815260206004820152601760248201527f556e61626c6520746f207061796f7574207374616b657200000000000000000060448201526064016107ad565b505050505050505050505050565b6005600b82604051612d1591906143b2565b9081526040519081900360200190205460ff166005811115612d3957612d396140d1565b14612d865760405162461bcd60e51b815260206004820152601560248201527f46697874757265206e6f742063616e63656c6c6564000000000000000000000060448201526064016107ad565b6000805b6005811015612e3a57600c83604051612da391906143b2565b90815260200160405180910390206000600a8360058110612dc657612dc66143ce565b602081049091015460ff601f9092166101000a9004166004811115612ded57612ded6140d1565b6004811115612dfe57612dfe6140d1565b815260208082019290925260409081016000908120338252909252902054612e2690836144ac565b915080612e3281614633565b915050612d8a565b5060008111612e8b5760405162461bcd60e51b815260206004820152601f60248201527f4e6f207374616b657320666f756e64206f6e207468697320666978747572650060448201526064016107ad565b80600e83604051612e9c91906143b2565b90815260408051918290036020908101832033600090815291522091909155600190600f90612ecc9085906143b2565b90815260408051602092819003830181203360008181529190945291909120805460ff191693151593909317909255907fc0acd5bc47ab9bd28274b4de553779f718ae53f42f84fe011e7eed61cda99cbd90612f2b908590859061464e565b60405180910390a260405163a9059cbb60e01b8152336004820152602481018290527f0000000000000000000000000000000000000000000000000000000000000000906001600160a01b0382169063a9059cbb906044016020604051808303816000875af1158015612fa2573d6000803e3d6000fd5b505050506040513d601f19601f82011682018060405250810190612fc691906144dd565b6111a25760405162461bcd60e51b815260206004820152601760248201527f556e61626c6520746f207061796f7574207374616b657200000000000000000060448201526064016107ad565b6000828152601260205260408120805461302b90614516565b80601f016020809104026020016040519081016040528092919081815260200182805461305790614516565b80156130a45780601f10613079576101008083540402835291602001916130a4565b820191906000526020600020905b81548152906001019060200180831161308757829003601f168201915b505050505090508051600014156130fd5760405162461bcd60e51b815260206004820152601660248201527f43616e6e6f742066696e6420666978747572652049440000000000000000000060448201526064016107ad565b827f991c3e65c24cac8eb9898540ce857bbd06f702f19ac9ee6562bd97b96b0d898c828460405161312f92919061464e565b60405180910390a26040517f3af625ae0000000000000000000000000000000000000000000000000000000081526004810183905260009073eac7428A8FBE8339B76505bBA4968e4B9Dc6A43B90633af625ae90602401602060405180830381865af41580156131a3573d6000803e3d6000fd5b505050506040513d601f19601f820116820180604052508101906131c79190614670565b905060008160048111156131dd576131dd6140d1565b1415613221576000826040516020016131f6919061468d565b60405160208183030381529060405290508060405162461bcd60e51b81526004016107ad9190614375565b8060138360405161323291906143b2565b908152604051908190036020019020805460ff1916600183600481111561325b5761325b6140d1565b02179055506003600b8360405161327291906143b2565b9081526040519081900360200190205460ff166005811115613296576132966140d1565b14156132d15760018160048111156132b0576132b06140d1565b14156132c6576132c18260056124ba565b6132d1565b6132d18260046124ba565b50505050565b600080838301848110156132f25760008092509250506132f9565b6001925090505b9250929050565b613308613f80565b6040518060600160405280600c8560405161332391906143b2565b9081526040805160209281900383019020600260009081529083528181206001600160a01b0388168252835281902054835251910190600c906133679087906143b2565b9081526040805160209281900383019020600360009081529083528181206001600160a01b0388168252835281902054835251910190600c906133ab9087906143b2565b9081526040805160209281900383019020600460009081529083528181206001600160a01b03979097168152959091529093205490925250919050565b6000828152601060205260408120805461340190614516565b80601f016020809104026020016040519081016040528092919081815260200182805461342d90614516565b801561347a5780601f1061344f5761010080835404028352916020019161347a565b820191906000526020600020905b81548152906001019060200180831161345d57829003601f168201915b505050505090508051600014156134d35760405162461bcd60e51b815260206004820152601e60248201527f4e6f2066697874757265206d61746368657320726571756573742049442e000060448201526064016107ad565b827f0a19aa077773e15e05c85beefc64244b7b27068fccb13becb7bf450ff41fa89c828460405161350592919061464e565b60405180910390a261351781836137b2565b6135208161382b565b15613530576111a28160026124ba565b61353981613549565b156111a2576111a28160006124ba565b60008060118360405161355c91906143b2565b9081526040519081900360200190205490506001600b8460405161358091906143b2565b9081526040519081900360200190205460ff1660058111156135a4576135a46140d1565b1480156135b057508015155b80156135be57506115188110155b80156135cd575062093a808110155b8015610fb957506135e0611518826144ff565b421180610fb957506135f562093a80826144ff565b42109392505050565b61363c6040805160a0810182526000808252602080830182905282840182905260608084018390528451808601909552845283015290608082015290565b61364c85608001516101006138e4565b50508284526001600160a01b03821660208501526001600160e01b031981166040850152835b949350505050565b6136878260038351613949565b6111a28282613a58565b67ffffffffffffffff198112156136ac576117d38282613a7f565b67ffffffffffffffff8113156136c6576117d38282613ac1565b600081126136da576117d382600083613949565b6117d38260016136ec8460001961471f565b613949565b6004546000906137028160016144ac565b600455835160408086015160808701515191516000937f4042994600000000000000000000000000000000000000000000000000000000936137539386938493923092918a91600191602401614793565b60408051601f198184030181529190526020810180517bffffffffffffffffffffffffffffffffffffffffffffffffffffffff166001600160e01b03199093169290921790915290506137a886838684613ae4565b9695505050505050565b6011826040516137c291906143b2565b90815260200160405180910390205481146117d357806011836040516137e891906143b2565b9081526020016040518091039020819055507f20af5e7c127dd84267ef67d2a1fa455b47bc60840459b4db987929e37daf07a3828260405161252a92919061464e565b60008060118360405161383e91906143b2565b90815260200160405180910390205490508060001415801561386257506115188110155b8015613871575062093a808110155b8015610fb957506001600b8460405161388a91906143b2565b9081526040519081900360200190205460ff1660058111156138ae576138ae6140d1565b1480156138c657506138c2611518826144ff565b4211155b8015610fb957506138da62093a80826144ff565b4210159392505050565b6040805180820190915260608152600060208201526139046020836147f7565b1561392c576139146020836147f7565b61391f9060206144ff565b61392990836144ac565b91505b506020828101829052604080518085526000815290920101905290565b60178167ffffffffffffffff161161396e576132d18360e0600585901b168317613c82565b60ff8167ffffffffffffffff16116139ac57613995836018611fe0600586901b1617613c82565b506132d18367ffffffffffffffff83166001613ca7565b61ffff8167ffffffffffffffff16116139eb576139d4836019611fe0600586901b1617613c82565b506132d18367ffffffffffffffff83166002613ca7565b63ffffffff8167ffffffffffffffff1611613a2c57613a1583601a611fe0600586901b1617613c82565b506132d18367ffffffffffffffff83166004613ca7565b613a4183601b611fe0600586901b1617613c82565b506132d18367ffffffffffffffff83166008613ca7565b6040805180820190915260608152600060208201526126e783846000015151848551613ccd565b613a8a8260c3613c82565b506117d382613a9b8360001961471f565b604051602001613aad91815260200190565b604051602081830303815290604052613db7565b613acc8260c2613c82565b506117d38282604051602001613aad91815260200190565b6040516bffffffffffffffffffffffff193060601b1660208201526034810184905260009060540160408051808303601f19018152828252805160209182012060008181526005909252918120805473ffffffffffffffffffffffffffffffffffffffff19166001600160a01b038a1617905590925082917fb5e6e01e79f91267dc17b4e6314d5d4d03593d2ceee0fbb452b750bd70ea5af99190a26002546040517f4000aea00000000000000000000000000000000000000000000000000000000081526001600160a01b0390911690634000aea090613bcd90889087908790600401614819565b6020604051808303816000875af1158015613bec573d6000803e3d6000fd5b505050506040513d601f19601f82011682018060405250810190613c1091906144dd565b6136725760405162461bcd60e51b815260206004820152602360248201527f756e61626c6520746f207472616e73666572416e6443616c6c20746f206f726160448201527f636c65000000000000000000000000000000000000000000000000000000000060648201526084016107ad565b6040805180820190915260608152600060208201526126e78384600001515184613dc4565b604080518082019091526060815260006020820152613672848560000151518585613e20565b6040805180820190915260608152600060208201528251821115613cf057600080fd5b6020850151613cff83866144ac565b1115613d3257613d3285613d2287602001518786613d1d91906144ac565b613ea1565b613d2d90600261484a565b613eb8565b600080865180518760208301019350808887011115613d515787860182525b505050602084015b60208410613d915780518252613d706020836144ac565b9150613d7d6020826144ac565b9050613d8a6020856144ff565b9350613d59565b51815160001960208690036101000a019081169019919091161790525083949350505050565b6136878260028351613949565b60408051808201909152606081526000602082015283602001518310613df957613df98485602001516002613d2d919061484a565b835180516020858301018481535080851415613e16576001810182525b5093949350505050565b6040805180820190915260608152600060208201526020850151613e4485846144ac565b1115613e5857613e5885613d2286856144ac565b60006001613e688461010061494d565b613e7291906144ff565b9050855183868201018583198251161781525080518487011115613e965783860181525b509495945050505050565b600081831115613eb257508161206f565b50919050565b8151613ec483836138e4565b506132d18382613a58565b828054613edb90614516565b90600052602060002090601f016020900481019282613efd5760008555613f43565b82601f10613f1657805160ff1916838001178555613f43565b82800160010185558215613f43579182015b82811115613f43578251825591602001919060010190613f28565b50613f4f929150613f9e565b5090565b60408051606081019091528060008152602001613f6e613f80565b8152602001613f7b613f80565b905290565b60405180606001604052806003906020820280368337509192915050565b5b80821115613f4f5760008155600101613f9f565b634e487b7160e01b600052604160045260246000fd5b604051601f8201601f1916810167ffffffffffffffff81118282101715613ff257613ff2613fb3565b604052919050565b600082601f83011261400b57600080fd5b813567ffffffffffffffff81111561402557614025613fb3565b614038601f8201601f1916602001613fc9565b81815284602083860101111561404d57600080fd5b816020850160208301376000918101602001919091529392505050565b60006020828403121561407c57600080fd5b813567ffffffffffffffff81111561409357600080fd5b61367284828501613ffa565b80356001600160a01b0381168114610fbd57600080fd5b6000602082840312156140c857600080fd5b6126e78261409f565b634e487b7160e01b600052602160045260246000fd5b600581106140f7576140f76140d1565b9052565b6020810161206f82846140e7565b600581106107ca57600080fd5b60008060006060848603121561412b57600080fd5b833567ffffffffffffffff81111561414257600080fd5b61414e86828701613ffa565b935050602084013561415f81614109565b929592945050506040919091013590565b60006020828403121561418257600080fd5b5035919050565b6000806040838503121561419c57600080fd5b823567ffffffffffffffff8111156141b357600080fd5b6141bf85828601613ffa565b9250506141ce6020840161409f565b90509250929050565b600080604083850312156141ea57600080fd5b823567ffffffffffffffff81111561420157600080fd5b61420d85828601613ffa565b925050602083013561421e81614109565b809150509250929050565b6000806040838503121561423c57600080fd5b50508035926020909101359150565b60008060006060848603121561426057600080fd5b833567ffffffffffffffff81111561427757600080fd5b61428386828701613ffa565b935050602084013561429481614109565b91506142a26040850161409f565b90509250925092565b600681106140f7576140f76140d1565b8060005b60038110156132d15781518452602093840193909101906001016142bf565b600060e0820190506142f18284516142ab565b602083015161430360208401826142bb565b50604083015161431660808401826142bb565b5092915050565b60005b83811015614338578181015183820152602001614320565b838111156132d15750506000910152565b6000815180845261436181602086016020860161431d565b601f01601f19169290920160200192915050565b6020815260006126e76020830184614349565b6020810161206f82846142ab565b600081516143a881856020860161431d565b9290920192915050565b600082516143c481846020870161431d565b9190910192915050565b634e487b7160e01b600052603260045260246000fd5b600060208083850312156143f757600080fd5b825167ffffffffffffffff8082111561440f57600080fd5b818501915085601f83011261442357600080fd5b81518181111561443557614435613fb3565b8060051b9150614446848301613fc9565b818152918301840191848101908884111561446057600080fd5b938501935b8385101561448a578451925061447a83614109565b8282529385019390850190614465565b98975050505050505050565b634e487b7160e01b600052601160045260246000fd5b600082198211156144bf576144bf614496565b500190565b6000602082840312156144d657600080fd5b5051919050565b6000602082840312156144ef57600080fd5b815180151581146126e757600080fd5b60008282101561451157614511614496565b500390565b600181811c9082168061452a57607f821691505b60208210811415613eb257634e487b7160e01b600052602260045260246000fd5b600080845481600182811c91508083168061456757607f831692505b602080841082141561458757634e487b7160e01b86526022600452602486fd5b81801561459b57600181146145ac576145d9565b60ff198616895284890196506145d9565b60008b81526020902060005b868110156145d15781548b8201529085019083016145b8565b505084890196505b5050505050506126e38185614396565b6060815260006145fc6060830186614349565b905083602083015261367260408301846140e7565b6040815260006146246040830185614349565b90506126e760208301846142ab565b600060001982141561464757614647614496565b5060010190565b6040815260006146616040830185614349565b90508260208301529392505050565b60006020828403121561468257600080fd5b81516126e781614109565b7f4572726f72206f6e2066697874757265200000000000000000000000000000008152600082516146c581601185016020870161431d565b7f3a20556e6b6e6f776e206669787475726520726573756c742066726f6d20415060119390910192830152507f49000000000000000000000000000000000000000000000000000000000000006031820152603201919050565b6000808312837f80000000000000000000000000000000000000000000000000000000000000000183128115161561475957614759614496565b837f7fffffffffffffffffffffffffffffffffffffffffffffffffffffffffffffff01831381161561478d5761478d614496565b50500390565b60006101006001600160a01b03808c1684528a60208501528960408501528089166060850152506001600160e01b0319871660808401528560a08401528460c08401528060e08401526147e881840185614349565b9b9a5050505050505050505050565b60008261481457634e487b7160e01b600052601260045260246000fd5b500690565b6001600160a01b03841681528260208201526060604082015260006148416060830184614349565b95945050505050565b600081600019048311821515161561486457614864614496565b500290565b600181815b808511156148a457816000190482111561488a5761488a614496565b8085161561489757918102915b93841c939080029061486e565b509250929050565b6000826148bb5750600161206f565b816148c85750600061206f565b81600181146148de57600281146148e857614904565b600191505061206f565b60ff8411156148f9576148f9614496565b50506001821b61206f565b5060208310610133831016604e8410600b8410161715614927575081810a61206f565b6149318383614869565b806000190482111561494557614945614496565b029392505050565b60006126e783836148ac56fea26469706673582212208638b9530cc50926b3bf667d9c9cf226ece80d078be555ff37dce1b85094436564736f6c634300080c0033",
  "deployedBytecode": "0x608060405234801561001057600080fd5b50600436106102765760003560e01c8063870c58a611610160578063c1e9aa45116100d8578063edb160701161008c578063f46dccf011610071578063f46dccf014610677578063f6573b4f1461068a578063fbe91393146106b557600080fd5b8063edb1607014610639578063ef40efde1461066457600080fd5b8063d8654c08116100bd578063d8654c0814610609578063e1f4324a1461061c578063e37685ec1461062657600080fd5b8063c1e9aa45146105e8578063c40bc66b146105f657600080fd5b80639959a30f1161012f578063aa06609011610114578063aa06609014610572578063abf949f8146105b3578063b148cdf1146105d357600080fd5b80639959a30f146105385780639c3feeb71461054b57600080fd5b8063870c58a6146104bd5780638a71bfa8146104eb5780638da5cb5b146104fe5780638e4821c51461052557600080fd5b80635e1349a6116101f3578063793970e1116101c25780637a8042bd116101a75780637a8042bd1461045c5780637c5e94051461046f5780637cc2c2f8146104aa57600080fd5b8063793970e11461040e57806379664e651461042157600080fd5b80635e1349a6146103915780635e5243191461039a57806362098ff7146103ad57806375a30228146103c057600080fd5b80631d686ae41161024a5780632c3872751161022f5780632c387275146102f757806339ea0791146103365780634b13d17d1461035657600080fd5b80631d686ae4146102d15780632079624e146102e457600080fd5b8062e1a75b1461027b57806301ec29c9146102905780631857edf2146102a35780631a454ea6146102b6575b600080fd5b61028e61028936600461406a565b6106f0565b005b61028e61029e36600461406a565b6107cd565b61028e6102b136600461406a565b6108b0565b6102be600181565b6040519081526020015b60405180910390f35b6102be6102df36600461406a565b610dfe565b61028e6102f236600461406a565b610fc2565b61031e7f000000000000000000000000000000000000000000000000000000000000000081565b6040516001600160a01b0390911681526020016102c8565b6102be6103443660046140b6565b60096020526000908152604090205481565b61038461036436600461406a565b805160208183018101805160138252928201919093012091525460ff1681565b6040516102c891906140fb565b6102be61151881565b61028e6103a8366004614116565b611189565b6103846103bb366004614170565b6115eb565b6103fe6103ce366004614189565b8151602081840181018051600f825292820194820194909420919093529091526000908152604090205460ff1681565b60405190151581526020016102c8565b61028e61041c36600461406a565b611615565b6102be61042f3660046141d7565b8151602081840181018051600d825292820194820194909420919093529091526000908152604090205481565b61028e61046a366004614170565b611681565b6102be61047d366004614189565b8151602081840181018051600e825292820194820194909420919093529091526000908152604090205481565b61028e6104b8366004614170565b6117d7565b6103fe6104cb36600461406a565b805160208183018101805160158252928201919093012091525460ff1681565b61028e6104f9366004614229565b6118d9565b61031e7f000000000000000000000000000000000000000000000000000000000000000081565b61028e610533366004614116565b611a24565b61028e61054636600461406a565b611f07565b61031e7f000000000000000000000000000000000000000000000000000000000000000081565b6102be61058036600461424b565b8251602081850181018051600c825292820195820195909520919094528352600091825260408083209093528152205481565b6105c66105c1366004614189565b611f67565b6040516102c891906142de565b6105db612075565b6040516102c89190614375565b6102be66038d7ea4c6800081565b6105db610604366004614170565b612103565b6102be61061736600461406a565b61211c565b6102be62093a8081565b61028e610634366004614229565b612272565b6102be61064736600461406a565b805160208183018101805160118252928201919093012091525481565b61028e61067236600461406a565b6123bd565b6105db610685366004614170565b6124a1565b6102be61069836600461406a565b805160208183018101805160148252928201919093012091525481565b6106e36106c336600461406a565b8051602081830181018051600b8252928201919093012091525460ff1681565b6040516102c89190614388565b6000600b8260405161070291906143b2565b9081526040519081900360200190205460ff166005811115610726576107266140d1565b148061076557506001600b8260405161073f91906143b2565b9081526040519081900360200190205460ff166005811115610763576107636140d1565b145b6107b65760405162461bcd60e51b815260206004820181905260248201527f5374617465206d75737420626520434c4f534544206f72204f50454e494e472e60448201526064015b60405180910390fd5b6107c18160016124ba565b6107ca81611f07565b50565b6002600b826040516107df91906143b2565b9081526040519081900360200190205460ff166005811115610803576108036140d1565b146108505760405162461bcd60e51b815260206004820152601760248201527f426574207374617465206d757374206265204f50454e2e00000000000000000060448201526064016107ad565b61085981612536565b6108a55760405162461bcd60e51b815260206004820181905260248201527f4669787475726520696e656c696769626c6520666f72204157414954494e472e60448201526064016107ad565b6107ca8160036124ba565b6004600b826040516108c291906143b2565b9081526040519081900360200190205460ff1660058111156108e6576108e66140d1565b146109335760405162461bcd60e51b815260206004820152601360248201527f46697874757265206e6f742070617961626c650000000000000000000000000060448201526064016107ad565b60158160405161094391906143b2565b9081526040519081900360200190205460ff16156109a35760405162461bcd60e51b815260206004820152601860248201527f436f6d6d697373696f6e20616c726561647920706169642e000000000000000060448201526064016107ad565b60006013826040516109b591906143b2565b9081526040519081900360200190205460ff16905060008160048111156109de576109de6140d1565b14806109fb575060018160048111156109f9576109f96140d1565b145b15610a485760405162461bcd60e51b815260206004820152601760248201527f496e76616c6964206669787475726520726573756c742e00000000000000000060448201526064016107ad565b604080516001808252818301909252600091602080830190803683370190505090508181600081518110610a7e57610a7e6143ce565b60200260200101906004811115610a9757610a976140d1565b90816004811115610aaa57610aaa6140d1565b9052506000610ab984836125ba565b9050600073__$4f22de673e7000c1f1d3934c762f2412ba$__63373bdcc8856040518263ffffffff1660e01b8152600401610af491906140fb565b600060405180830381865af4158015610b11573d6000803e3d6000fd5b505050506040513d6000823e601f3d908101601f19168201604052610b3991908101906143e4565b90506000610b4786836125ba565b90506000610b5582856144ac565b60405163387844ab60e11b815260048101829052602481018690526001604482015290915060009073__$4f22de673e7000c1f1d3934c762f2412ba$__906370f0895690606401602060405180830381865af4158015610bb9573d6000803e3d6000fd5b505050506040513d601f19601f82011682018060405250810190610bdd91906144c4565b905080601489604051610bf091906143b2565b9081526020016040518091039020819055506001601589604051610c1491906143b2565b908152604051908190036020018120805492151560ff1990931692909217909155610c409089906143b2565b60405180910390207f60b1c59a2aef10b76f58eab3892bfebe9dc131e4f7c750d091592586ae29acc560148a604051610c7991906143b2565b908152604051602091819003820181205481520160405180910390a26000601489604051610ca791906143b2565b9081526020016040518091039020541115610df45760007f00000000000000000000000000000000000000000000000000000000000000009050806001600160a01b031663a9059cbb7f000000000000000000000000000000000000000000000000000000000000000060148c604051610d2191906143b2565b908152604051908190036020018120546001600160e01b031960e085901b168252610d6392916004016001600160a01b03929092168252602082015260400190565b6020604051808303816000875af1158015610d82573d6000803e3d6000fd5b505050506040513d601f19601f82011682018060405250810190610da691906144dd565b610df25760405162461bcd60e51b815260206004820152601660248201527f556e61626c6520746f207061796f7574206f776e65720000000000000000000060448201526064016107ad565b505b5050505050505050565b6008543360009081526009602052604081205490911115610e615760405162461bcd60e51b815260206004820152601d60248201527f596f7520686176656e27742073656e7420656e6f756768204c494e4b2e00000060448201526064016107ad565b6008543360009081526009602052604081208054909190610e839084906144ff565b9091555050600754600090610eb990307fe37685ec0000000000000000000000000000000000000000000000000000000061265b565b9050610f066040518060400160405280600381526020016219d95d60ea1b815250600685604051602001610eee92919061454b565b60408051601f198184030181529190528391906126ee565b610f6c604051806040016040528060048152602001630e0c2e8d60e31b8152506040518060400160405280600481526020017f302c6b6f00000000000000000000000000000000000000000000000000000000815250836126ee9092919063ffffffff16565b60408051808201909152600581527f74696d65730000000000000000000000000000000000000000000000000000006020820152610fad908290600161270c565b610fb98160085461272a565b9150505b919050565b6004600b82604051610fd491906143b2565b9081526040519081900360200190205460ff166005811115610ff857610ff86140d1565b148061103757506005600b8260405161101191906143b2565b9081526040519081900360200190205460ff166005811115611035576110356140d1565b145b6110835760405162461bcd60e51b815260206004820152601f60248201527f5374617465206e6f742050415941424c45206f722043414e43454c4c45442e0060448201526064016107ad565b600f8160405161109391906143b2565b9081526040805160209281900383019020336000908152925290205460ff16156110ff5760405162461bcd60e51b815260206004820152600d60248201527f416c726561647920706169642e0000000000000000000000000000000000000060448201526064016107ad565b6004600b8260405161111191906143b2565b9081526040519081900360200190205460ff166005811115611135576111356140d1565b1415611144576107ca81612744565b6005600b8260405161115691906143b2565b9081526040519081900360200190205460ff16600581111561117a5761117a6140d1565b14156107ca576107ca81612d03565b61119283612536565b156111a7576111a28360036124ba565b505050565b6002600b846040516111b991906143b2565b9081526040519081900360200190205460ff1660058111156111dd576111dd6140d1565b1461122a5760405162461bcd60e51b815260206004820152601960248201527f426574206163746976697479206973206e6f74206f70656e2e0000000000000060448201526064016107ad565b6000811161127a5760405162461bcd60e51b815260206004820152601a60248201527f416d6f756e742073686f756c6420657863656564207a65726f2e00000000000060448201526064016107ad565b6000600c8460405161128c91906143b2565b908152602001604051809103902060008460048111156112ae576112ae6140d1565b60048111156112bf576112bf6140d1565b81526020808201929092526040908101600090812033825290925290205490508061132c5760405162461bcd60e51b815260206004820181905260248201527f4e6f207374616b65206f6e207468697320616464726573732d726573756c742e60448201526064016107ad565b8082111561137c5760405162461bcd60e51b815260206004820152601660248201527f43757272656e74207374616b6520746f6f206c6f772e0000000000000000000060448201526064016107ad565b600061138883836144ff565b905080156113e75766038d7ea4c680008110156113e75760405162461bcd60e51b815260206004820152601d60248201527f43616e6e6f7420676f2062656c6f7720656e7472616e6365206665652e00000060448201526064016107ad565b80600c866040516113f891906143b2565b9081526020016040518091039020600086600481111561141a5761141a6140d1565b600481111561142b5761142b6140d1565b81526020019081526020016000206000336001600160a01b03166001600160a01b031681526020019081526020016000208190555082600d8660405161147191906143b2565b90815260200160405180910390206000866004811115611493576114936140d1565b60048111156114a4576114a46140d1565b815260200190815260200160002060008282546114c191906144ff565b909155505060405133907f0f3b118062ef97715cdb7fc34e6b3bc6bf1c6ddbbbbc4e8d6f13eff984080d08906114fc908890879089906145e9565b60405180910390a260405163a9059cbb60e01b8152336004820152602481018490527f0000000000000000000000000000000000000000000000000000000000000000906001600160a01b0382169063a9059cbb906044016020604051808303816000875af1158015611573573d6000803e3d6000fd5b505050506040513d601f19601f8201168201806040525081019061159791906144dd565b6115e35760405162461bcd60e51b815260206004820152601760248201527f556e61626c6520746f207472616e73666572204441492e00000000000000000060448201526064016107ad565b505050505050565b600a81600581106115fb57600080fd5b60209182820401919006915054906101000a900460ff1681565b60006116208261211c565b60008181526012602090815260409091208451929350611644929091850190613ecf565b50807f203eeb39bf08702855bb5830b3ec49ea10fb51bde91904739f7c0c3ab41776d5836040516116759190614375565b60405180910390a25050565b336000908152600960205260409020548111156116e05760405162461bcd60e51b815260206004820152601a60248201527f596f7520646f6e2774206861766520656e6f756768206c696e6b00000000000060448201526064016107ad565b33600090815260096020526040812080548392906116ff9084906144ff565b90915550506002546000906001600160a01b031660405163a9059cbb60e01b8152336004820152602481018490529091506001600160a01b0382169063a9059cbb906044016020604051808303816000875af1158015611763573d6000803e3d6000fd5b505050506040513d601f19601f8201168201806040525081019061178791906144dd565b6117d35760405162461bcd60e51b815260206004820152601260248201527f556e61626c6520746f207472616e73666572000000000000000000000000000060448201526064016107ad565b5050565b60006117eb6002546001600160a01b031690565b6040516323b872dd60e01b8152336004820152306024820152604481018490529091506001600160a01b038216906323b872dd906064016020604051808303816000875af1158015611841573d6000803e3d6000fd5b505050506040513d601f19601f8201168201806040525081019061186591906144dd565b6118b15760405162461bcd60e51b815260206004820152601260248201527f556e61626c6520746f207472616e73666572000000000000000000000000000060448201526064016107ad565b33600090815260096020526040812080548492906118d09084906144ac565b90915550505050565b60008281526005602052604090205482906001600160a01b031633146119525760405162461bcd60e51b815260206004820152602860248201527f536f75726365206d75737420626520746865206f7261636c65206f6620746865604482015267081c995c5d595cdd60c21b60648201526084016107ad565b600081815260056020526040808220805473ffffffffffffffffffffffffffffffffffffffff191690555182917f7cc135e0cebb02c3480ae5d74d377283180a2601f8f644edf7987b009316c63a91a2336001600160a01b037f00000000000000000000000000000000000000000000000000000000000000001614611a1a5760405162461bcd60e51b815260206004820181905260248201527f4f6e6c7920436861696e6c696e6b436c69656e742063616e2066756c66696c6c60448201526064016107ad565b6111a28383613012565b611a2d83612536565b15611a3d576111a28360036124ba565b6000826004811115611a5157611a516140d1565b14158015611a7157506001826004811115611a6e57611a6e6140d1565b14155b611abd5760405162461bcd60e51b815260206004820152601e60248201527f546869732042657454797065206973206e6f74207065726d69747465642e000060448201526064016107ad565b6002600b84604051611acf91906143b2565b9081526040519081900360200190205460ff166005811115611af357611af36140d1565b14611b405760405162461bcd60e51b815260206004820152601960248201527f426574206163746976697479206973206e6f74206f70656e2e0000000000000060448201526064016107ad565b66038d7ea4c68000811015611b975760405162461bcd60e51b815260206004820152601d60248201527f416d6f756e742069732062656c6f7720656e7472616e6365206665652e00000060448201526064016107ad565b6000806000611c06600c87604051611baf91906143b2565b90815260200160405180910390206000876004811115611bd157611bd16140d1565b6004811115611be257611be26140d1565b815260208082019290925260409081016000908120338252909252902054856132d7565b909350915082611c585760405162461bcd60e51b815260206004820152601460248201527f55736572207374616b65206f766572666c6f772e00000000000000000000000060448201526064016107ad565b611cb3600d87604051611c6b91906143b2565b90815260200160405180910390206000876004811115611c8d57611c8d6140d1565b6004811115611c9e57611c9e6140d1565b815260200190815260200160002054856132d7565b909350905082611d055760405162461bcd60e51b815260206004820152601560248201527f546f74616c207374616b65206f766572666c6f772e000000000000000000000060448201526064016107ad565b81600c87604051611d1691906143b2565b90815260200160405180910390206000876004811115611d3857611d386140d1565b6004811115611d4957611d496140d1565b81526020019081526020016000206000336001600160a01b03166001600160a01b031681526020019081526020016000208190555080600d87604051611d8f91906143b2565b90815260200160405180910390206000876004811115611db157611db16140d1565b6004811115611dc257611dc26140d1565b815260200190815260200160002081905550336001600160a01b03167f1a48cf6315f5f44cf8ac3a5105296caf8a73f64b40f9a6b7cbf8ba65ca930fd4878688604051611e11939291906145e9565b60405180910390a26040516323b872dd60e01b8152336004820152306024820152604481018590527f0000000000000000000000000000000000000000000000000000000000000000906001600160a01b038216906323b872dd906064016020604051808303816000875af1158015611e8e573d6000803e3d6000fd5b505050506040513d601f19601f82011682018060405250810190611eb291906144dd565b611efe5760405162461bcd60e51b815260206004820152601360248201527f556e61626c6520746f207472616e736665722e0000000000000000000000000060448201526064016107ad565b50505050505050565b6000611f1282610dfe565b60008181526010602090815260409091208451929350611f36929091850190613ecf565b50807f45d732f7bcf8bc3eb58d8fd2fe72f5d05aa36dadc20e6c9989abd2a741d81cac836040516116759190614375565b611f6f613f53565b6040518060600160405280600b85604051611f8a91906143b2565b9081526040519081900360200190205460ff166005811115611fae57611fae6140d1565b81526020016040518060600160405280600d87604051611fce91906143b2565b908152604051908190036020019020600060028152602001908152602001600020548152602001600d8760405161200591906143b2565b908152604051908190036020019020600060038152602001908152602001600020548152602001600d8760405161203c91906143b2565b90815260408051602092819003830190206004600090815290835220549091529082520161206a8585613300565b905290505b92915050565b6006805461208290614516565b80601f01602080910402602001604051908101604052809291908181526020018280546120ae90614516565b80156120fb5780601f106120d0576101008083540402835291602001916120fb565b820191906000526020600020905b8154815290600101906020018083116120de57829003601f168201915b505050505081565b6010602052600090815260409020805461208290614516565b600854336000908152600960205260408120549091111561217f5760405162461bcd60e51b815260206004820152601d60248201527f596f7520686176656e27742073656e7420656e6f756768204c494e4b2e00000060448201526064016107ad565b60085433600090815260096020526040812080549091906121a19084906144ff565b90915550506007546000906121d790307f8a71bfa80000000000000000000000000000000000000000000000000000000061265b565b905061220c6040518060400160405280600381526020016219d95d60ea1b815250600685604051602001610eee92919061454b565b610f6c604051806040016040528060048152602001630e0c2e8d60e31b8152506040518060400160405280600881526020017f302c726573756c74000000000000000000000000000000000000000000000000815250836126ee9092919063ffffffff16565b60008281526005602052604090205482906001600160a01b031633146122eb5760405162461bcd60e51b815260206004820152602860248201527f536f75726365206d75737420626520746865206f7261636c65206f6620746865604482015267081c995c5d595cdd60c21b60648201526084016107ad565b600081815260056020526040808220805473ffffffffffffffffffffffffffffffffffffffff191690555182917f7cc135e0cebb02c3480ae5d74d377283180a2601f8f644edf7987b009316c63a91a2336001600160a01b037f000000000000000000000000000000000000000000000000000000000000000016146123b35760405162461bcd60e51b815260206004820181905260248201527f4f6e6c7920436861696e6c696e6b436c69656e742063616e2066756c66696c6c60448201526064016107ad565b6111a283836133e8565b6000600b826040516123cf91906143b2565b9081526040519081900360200190205460ff1660058111156123f3576123f36140d1565b14156124415760405162461bcd60e51b815260206004820152601c60248201527f42657420737461746520697320616c726561647920434c4f5345442e0000000060448201526064016107ad565b61244a81613549565b6124965760405162461bcd60e51b815260206004820181905260248201527f4669787475726520696e656c696769626c6520746f20626520636c6f7365642e60448201526064016107ad565b6107ca8160006124ba565b6012602052600090815260409020805461208290614516565b80600b836040516124cb91906143b2565b908152604051908190036020019020805460ff191660018360058111156124f4576124f46140d1565b02179055507fe10ba6722d7a7a91bf343a0f8e5b026910dbc4a2ebca276930dff31703c59a70828260405161252a929190614611565b60405180910390a15050565b60008060118360405161254991906143b2565b90815260200160405180910390205490506115188111801561259e57506002600b8460405161257891906143b2565b9081526040519081900360200190205460ff16600581111561259c5761259c6140d1565b145b8015610fb957506125b1611518826144ff565b42119392505050565b60008060005b835181101561265357600d856040516125d991906143b2565b908152602001604051809103902060008583815181106125fb576125fb6143ce565b60200260200101516004811115612614576126146140d1565b6004811115612625576126256140d1565b8152602001908152602001600020548261263f91906144ac565b91508061264b81614633565b9150506125c0565b509392505050565b6126996040805160a0810182526000808252602080830182905282840182905260608084018390528451808601909552845283015290608082015290565b6126d76040805160a0810182526000808252602080830182905282840182905260608084018390528451808601909552845283015290608082015290565b6126e3818686866135fe565b9150505b9392505050565b60808301516126fd908361367a565b60808301516111a2908261367a565b608083015161271b908361367a565b60808301516111a29082613691565b6003546000906126e7906001600160a01b031684846136f1565b600060138260405161275691906143b2565b9081526040519081900360200190205460ff169050600081600481111561277f5761277f6140d1565b148061279c5750600181600481111561279a5761279a6140d1565b145b156127e95760405162461bcd60e51b815260206004820152601760248201527f496e76616c6964206669787475726520726573756c742e00000000000000000060448201526064016107ad565b6000600c836040516127fb91906143b2565b9081526020016040518091039020600083600481111561281d5761281d6140d1565b600481111561282e5761282e6140d1565b8152602080820192909252604090810160009081203382529092529020549050806128c15760405162461bcd60e51b815260206004820152602860248201527f596f7520646964206e6f74207374616b65206f6e207468652077696e6e696e6760448201527f206f7574636f6d6500000000000000000000000000000000000000000000000060648201526084016107ad565b6040805160018082528183019092526000916020808301908036833701905050905082816000815181106128f7576128f76143ce565b60200260200101906004811115612910576129106140d1565b90816004811115612923576129236140d1565b9052506040517f373bdcc800000000000000000000000000000000000000000000000000000000815260009073__$4f22de673e7000c1f1d3934c762f2412ba$__9063373bdcc8906129799087906004016140fb565b600060405180830381865af4158015612996573d6000803e3d6000fd5b505050506040513d6000823e601f3d908101601f191682016040526129be91908101906143e4565b905060006129cc86846125ba565b905060006129da87846125ba565b90506000806129e984846132d7565b9150915081612a3a5760405162461bcd60e51b815260206004820152601c60248201527f4f766572666c6f77206f6e20746f74616c20616d6f756e74206265740000000060448201526064016107ad565b6040517f29a2ea4500000000000000000000000000000000000000000000000000000000815260048101889052602481018590526044810182905260009073__$4f22de673e7000c1f1d3934c762f2412ba$__906329a2ea4590606401602060405180830381865af4158015612ab4573d6000803e3d6000fd5b505050506040513d601f19601f82011682018060405250810190612ad891906144c4565b60405163387844ab60e11b815260048101829052602481018a90526001604482015290915060009073__$4f22de673e7000c1f1d3934c762f2412ba$__906370f0895690606401602060405180830381865af4158015612b3c573d6000803e3d6000fd5b505050506040513d601f19601f82011682018060405250810190612b6091906144c4565b9050612b6c81836144ff565b915081600e8c604051612b7f91906143b2565b90815260408051918290036020908101832033600090815291522091909155600190600f90612baf908e906143b2565b90815260408051602092819003830181203360008181529190945291909120805460ff191693151593909317909255907fc0acd5bc47ab9bd28274b4de553779f718ae53f42f84fe011e7eed61cda99cbd90612c0e908e90869061464e565b60405180910390a260405163a9059cbb60e01b8152336004820152602481018390527f0000000000000000000000000000000000000000000000000000000000000000906001600160a01b0382169063a9059cbb906044016020604051808303816000875af1158015612c85573d6000803e3d6000fd5b505050506040513d601f19601f82011682018060405250810190612ca991906144dd565b612cf55760405162461bcd60e51b815260206004820152601760248201527f556e61626c6520746f207061796f7574207374616b657200000000000000000060448201526064016107ad565b505050505050505050505050565b6005600b82604051612d1591906143b2565b9081526040519081900360200190205460ff166005811115612d3957612d396140d1565b14612d865760405162461bcd60e51b815260206004820152601560248201527f46697874757265206e6f742063616e63656c6c6564000000000000000000000060448201526064016107ad565b6000805b6005811015612e3a57600c83604051612da391906143b2565b90815260200160405180910390206000600a8360058110612dc657612dc66143ce565b602081049091015460ff601f9092166101000a9004166004811115612ded57612ded6140d1565b6004811115612dfe57612dfe6140d1565b815260208082019290925260409081016000908120338252909252902054612e2690836144ac565b915080612e3281614633565b915050612d8a565b5060008111612e8b5760405162461bcd60e51b815260206004820152601f60248201527f4e6f207374616b657320666f756e64206f6e207468697320666978747572650060448201526064016107ad565b80600e83604051612e9c91906143b2565b90815260408051918290036020908101832033600090815291522091909155600190600f90612ecc9085906143b2565b90815260408051602092819003830181203360008181529190945291909120805460ff191693151593909317909255907fc0acd5bc47ab9bd28274b4de553779f718ae53f42f84fe011e7eed61cda99cbd90612f2b908590859061464e565b60405180910390a260405163a9059cbb60e01b8152336004820152602481018290527f0000000000000000000000000000000000000000000000000000000000000000906001600160a01b0382169063a9059cbb906044016020604051808303816000875af1158015612fa2573d6000803e3d6000fd5b505050506040513d601f19601f82011682018060405250810190612fc691906144dd565b6111a25760405162461bcd60e51b815260206004820152601760248201527f556e61626c6520746f207061796f7574207374616b657200000000000000000060448201526064016107ad565b6000828152601260205260408120805461302b90614516565b80601f016020809104026020016040519081016040528092919081815260200182805461305790614516565b80156130a45780601f10613079576101008083540402835291602001916130a4565b820191906000526020600020905b81548152906001019060200180831161308757829003601f168201915b505050505090508051600014156130fd5760405162461bcd60e51b815260206004820152601660248201527f43616e6e6f742066696e6420666978747572652049440000000000000000000060448201526064016107ad565b827f991c3e65c24cac8eb9898540ce857bbd06f702f19ac9ee6562bd97b96b0d898c828460405161312f92919061464e565b60405180910390a26040517f3af625ae0000000000000000000000000000000000000000000000000000000081526004810183905260009073__$4f22de673e7000c1f1d3934c762f2412ba$__90633af625ae90602401602060405180830381865af41580156131a3573d6000803e3d6000fd5b505050506040513d601f19601f820116820180604052508101906131c79190614670565b905060008160048111156131dd576131dd6140d1565b1415613221576000826040516020016131f6919061468d565b60405160208183030381529060405290508060405162461bcd60e51b81526004016107ad9190614375565b8060138360405161323291906143b2565b908152604051908190036020019020805460ff1916600183600481111561325b5761325b6140d1565b02179055506003600b8360405161327291906143b2565b9081526040519081900360200190205460ff166005811115613296576132966140d1565b14156132d15760018160048111156132b0576132b06140d1565b14156132c6576132c18260056124ba565b6132d1565b6132d18260046124ba565b50505050565b600080838301848110156132f25760008092509250506132f9565b6001925090505b9250929050565b613308613f80565b6040518060600160405280600c8560405161332391906143b2565b9081526040805160209281900383019020600260009081529083528181206001600160a01b0388168252835281902054835251910190600c906133679087906143b2565b9081526040805160209281900383019020600360009081529083528181206001600160a01b0388168252835281902054835251910190600c906133ab9087906143b2565b9081526040805160209281900383019020600460009081529083528181206001600160a01b03979097168152959091529093205490925250919050565b6000828152601060205260408120805461340190614516565b80601f016020809104026020016040519081016040528092919081815260200182805461342d90614516565b801561347a5780601f1061344f5761010080835404028352916020019161347a565b820191906000526020600020905b81548152906001019060200180831161345d57829003601f168201915b505050505090508051600014156134d35760405162461bcd60e51b815260206004820152601e60248201527f4e6f2066697874757265206d61746368657320726571756573742049442e000060448201526064016107ad565b827f0a19aa077773e15e05c85beefc64244b7b27068fccb13becb7bf450ff41fa89c828460405161350592919061464e565b60405180910390a261351781836137b2565b6135208161382b565b15613530576111a28160026124ba565b61353981613549565b156111a2576111a28160006124ba565b60008060118360405161355c91906143b2565b9081526040519081900360200190205490506001600b8460405161358091906143b2565b9081526040519081900360200190205460ff1660058111156135a4576135a46140d1565b1480156135b057508015155b80156135be57506115188110155b80156135cd575062093a808110155b8015610fb957506135e0611518826144ff565b421180610fb957506135f562093a80826144ff565b42109392505050565b61363c6040805160a0810182526000808252602080830182905282840182905260608084018390528451808601909552845283015290608082015290565b61364c85608001516101006138e4565b50508284526001600160a01b03821660208501526001600160e01b031981166040850152835b949350505050565b6136878260038351613949565b6111a28282613a58565b67ffffffffffffffff198112156136ac576117d38282613a7f565b67ffffffffffffffff8113156136c6576117d38282613ac1565b600081126136da576117d382600083613949565b6117d38260016136ec8460001961471f565b613949565b6004546000906137028160016144ac565b600455835160408086015160808701515191516000937f4042994600000000000000000000000000000000000000000000000000000000936137539386938493923092918a91600191602401614793565b60408051601f198184030181529190526020810180517bffffffffffffffffffffffffffffffffffffffffffffffffffffffff166001600160e01b03199093169290921790915290506137a886838684613ae4565b9695505050505050565b6011826040516137c291906143b2565b90815260200160405180910390205481146117d357806011836040516137e891906143b2565b9081526020016040518091039020819055507f20af5e7c127dd84267ef67d2a1fa455b47bc60840459b4db987929e37daf07a3828260405161252a92919061464e565b60008060118360405161383e91906143b2565b90815260200160405180910390205490508060001415801561386257506115188110155b8015613871575062093a808110155b8015610fb957506001600b8460405161388a91906143b2565b9081526040519081900360200190205460ff1660058111156138ae576138ae6140d1565b1480156138c657506138c2611518826144ff565b4211155b8015610fb957506138da62093a80826144ff565b4210159392505050565b6040805180820190915260608152600060208201526139046020836147f7565b1561392c576139146020836147f7565b61391f9060206144ff565b61392990836144ac565b91505b506020828101829052604080518085526000815290920101905290565b60178167ffffffffffffffff161161396e576132d18360e0600585901b168317613c82565b60ff8167ffffffffffffffff16116139ac57613995836018611fe0600586901b1617613c82565b506132d18367ffffffffffffffff83166001613ca7565b61ffff8167ffffffffffffffff16116139eb576139d4836019611fe0600586901b1617613c82565b506132d18367ffffffffffffffff83166002613ca7565b63ffffffff8167ffffffffffffffff1611613a2c57613a1583601a611fe0600586901b1617613c82565b506132d18367ffffffffffffffff83166004613ca7565b613a4183601b611fe0600586901b1617613c82565b506132d18367ffffffffffffffff83166008613ca7565b6040805180820190915260608152600060208201526126e783846000015151848551613ccd565b613a8a8260c3613c82565b506117d382613a9b8360001961471f565b604051602001613aad91815260200190565b604051602081830303815290604052613db7565b613acc8260c2613c82565b506117d38282604051602001613aad91815260200190565b6040516bffffffffffffffffffffffff193060601b1660208201526034810184905260009060540160408051808303601f19018152828252805160209182012060008181526005909252918120805473ffffffffffffffffffffffffffffffffffffffff19166001600160a01b038a1617905590925082917fb5e6e01e79f91267dc17b4e6314d5d4d03593d2ceee0fbb452b750bd70ea5af99190a26002546040517f4000aea00000000000000000000000000000000000000000000000000000000081526001600160a01b0390911690634000aea090613bcd90889087908790600401614819565b6020604051808303816000875af1158015613bec573d6000803e3d6000fd5b505050506040513d601f19601f82011682018060405250810190613c1091906144dd565b6136725760405162461bcd60e51b815260206004820152602360248201527f756e61626c6520746f207472616e73666572416e6443616c6c20746f206f726160448201527f636c65000000000000000000000000000000000000000000000000000000000060648201526084016107ad565b6040805180820190915260608152600060208201526126e78384600001515184613dc4565b604080518082019091526060815260006020820152613672848560000151518585613e20565b6040805180820190915260608152600060208201528251821115613cf057600080fd5b6020850151613cff83866144ac565b1115613d3257613d3285613d2287602001518786613d1d91906144ac565b613ea1565b613d2d90600261484a565b613eb8565b600080865180518760208301019350808887011115613d515787860182525b505050602084015b60208410613d915780518252613d706020836144ac565b9150613d7d6020826144ac565b9050613d8a6020856144ff565b9350613d59565b51815160001960208690036101000a019081169019919091161790525083949350505050565b6136878260028351613949565b60408051808201909152606081526000602082015283602001518310613df957613df98485602001516002613d2d919061484a565b835180516020858301018481535080851415613e16576001810182525b5093949350505050565b6040805180820190915260608152600060208201526020850151613e4485846144ac565b1115613e5857613e5885613d2286856144ac565b60006001613e688461010061494d565b613e7291906144ff565b9050855183868201018583198251161781525080518487011115613e965783860181525b509495945050505050565b600081831115613eb257508161206f565b50919050565b8151613ec483836138e4565b506132d18382613a58565b828054613edb90614516565b90600052602060002090601f016020900481019282613efd5760008555613f43565b82601f10613f1657805160ff1916838001178555613f43565b82800160010185558215613f43579182015b82811115613f43578251825591602001919060010190613f28565b50613f4f929150613f9e565b5090565b60408051606081019091528060008152602001613f6e613f80565b8152602001613f7b613f80565b905290565b60405180606001604052806003906020820280368337509192915050565b5b80821115613f4f5760008155600101613f9f565b634e487b7160e01b600052604160045260246000fd5b604051601f8201601f1916810167ffffffffffffffff81118282101715613ff257613ff2613fb3565b604052919050565b600082601f83011261400b57600080fd5b813567ffffffffffffffff81111561402557614025613fb3565b614038601f8201601f1916602001613fc9565b81815284602083860101111561404d57600080fd5b816020850160208301376000918101602001919091529392505050565b60006020828403121561407c57600080fd5b813567ffffffffffffffff81111561409357600080fd5b61367284828501613ffa565b80356001600160a01b0381168114610fbd57600080fd5b6000602082840312156140c857600080fd5b6126e78261409f565b634e487b7160e01b600052602160045260246000fd5b600581106140f7576140f76140d1565b9052565b6020810161206f82846140e7565b600581106107ca57600080fd5b60008060006060848603121561412b57600080fd5b833567ffffffffffffffff81111561414257600080fd5b61414e86828701613ffa565b935050602084013561415f81614109565b929592945050506040919091013590565b60006020828403121561418257600080fd5b5035919050565b6000806040838503121561419c57600080fd5b823567ffffffffffffffff8111156141b357600080fd5b6141bf85828601613ffa565b9250506141ce6020840161409f565b90509250929050565b600080604083850312156141ea57600080fd5b823567ffffffffffffffff81111561420157600080fd5b61420d85828601613ffa565b925050602083013561421e81614109565b809150509250929050565b6000806040838503121561423c57600080fd5b50508035926020909101359150565b60008060006060848603121561426057600080fd5b833567ffffffffffffffff81111561427757600080fd5b61428386828701613ffa565b935050602084013561429481614109565b91506142a26040850161409f565b90509250925092565b600681106140f7576140f76140d1565b8060005b60038110156132d15781518452602093840193909101906001016142bf565b600060e0820190506142f18284516142ab565b602083015161430360208401826142bb565b50604083015161431660808401826142bb565b5092915050565b60005b83811015614338578181015183820152602001614320565b838111156132d15750506000910152565b6000815180845261436181602086016020860161431d565b601f01601f19169290920160200192915050565b6020815260006126e76020830184614349565b6020810161206f82846142ab565b600081516143a881856020860161431d565b9290920192915050565b600082516143c481846020870161431d565b9190910192915050565b634e487b7160e01b600052603260045260246000fd5b600060208083850312156143f757600080fd5b825167ffffffffffffffff8082111561440f57600080fd5b818501915085601f83011261442357600080fd5b81518181111561443557614435613fb3565b8060051b9150614446848301613fc9565b818152918301840191848101908884111561446057600080fd5b938501935b8385101561448a578451925061447a83614109565b8282529385019390850190614465565b98975050505050505050565b634e487b7160e01b600052601160045260246000fd5b600082198211156144bf576144bf614496565b500190565b6000602082840312156144d657600080fd5b5051919050565b6000602082840312156144ef57600080fd5b815180151581146126e757600080fd5b60008282101561451157614511614496565b500390565b600181811c9082168061452a57607f821691505b60208210811415613eb257634e487b7160e01b600052602260045260246000fd5b600080845481600182811c91508083168061456757607f831692505b602080841082141561458757634e487b7160e01b86526022600452602486fd5b81801561459b57600181146145ac576145d9565b60ff198616895284890196506145d9565b60008b81526020902060005b868110156145d15781548b8201529085019083016145b8565b505084890196505b5050505050506126e38185614396565b6060815260006145fc6060830186614349565b905083602083015261367260408301846140e7565b6040815260006146246040830185614349565b90506126e760208301846142ab565b600060001982141561464757614647614496565b5060010190565b6040815260006146616040830185614349565b90508260208301529392505050565b60006020828403121561468257600080fd5b81516126e781614109565b7f4572726f72206f6e2066697874757265200000000000000000000000000000008152600082516146c581601185016020870161431d565b7f3a20556e6b6e6f776e206669787475726520726573756c742066726f6d20415060119390910192830152507f49000000000000000000000000000000000000000000000000000000000000006031820152603201919050565b6000808312837f80000000000000000000000000000000000000000000000000000000000000000183128115161561475957614759614496565b837f7fffffffffffffffffffffffffffffffffffffffffffffffffffffffffffffff01831381161561478d5761478d614496565b50500390565b60006101006001600160a01b03808c1684528a60208501528960408501528089166060850152506001600160e01b0319871660808401528560a08401528460c08401528060e08401526147e881840185614349565b9b9a5050505050505050505050565b60008261481457634e487b7160e01b600052601260045260246000fd5b500690565b6001600160a01b03841681528260208201526060604082015260006148416060830184614349565b95945050505050565b600081600019048311821515161561486457614864614496565b500290565b600181815b808511156148a457816000190482111561488a5761488a614496565b8085161561489757918102915b93841c939080029061486e565b509250929050565b6000826148bb5750600161206f565b816148c85750600061206f565b81600181146148de57600281146148e857614904565b600191505061206f565b60ff8411156148f9576148f9614496565b50506001821b61206f565b5060208310610133831016604e8410600b8410161715614927575081810a61206f565b6149318383614869565b806000190482111561494557614945614496565b029392505050565b60006126e783836148ac56fea26469706673582212208638b9530cc50926b3bf667d9c9cf226ece80d078be555ff37dce1b85094436564736f6c634300080c0033",
  "libraries": {
    "SportsBettingLib": "0xeac7428A8FBE8339B76505bBA4968e4B9Dc6A43B"
  },
  "devdoc": {
    "author": "Nathan Cinnamond",
    "events": {
      "BetCommissionPayout(string,uint256)": {
        "params": {
          "amount": ": amount paid out to owner in commission"
        }
      },
      "BetPayout(address,string,uint256)": {
        "params": {
          "amount": ": amount paid out to better (original stake plus profit)",
          "better": ": address of the unstaker",
          "fixtureID": ": corresponding fixtureID for fixture on outcome which better claims payout"
        }
      },
      "BetStaked(address,string,uint256,uint8)": {
        "params": {
          "amount": ": amount added to total amount staked by better on fixture outcome",
          "betType": ": outcome of fixtureID that better has staked on",
          "better": ": address of the staker",
          "fixtureID": ": corresponding fixtureID for fixture on which outcome is staked"
        }
      },
      "BetUnstaked(address,string,uint256,uint8)": {
        "params": {
          "amount": ": amount subtracted from total amount staked by better on fixture outcome",
          "betType": ": outcome of fixtureID that better has unstaked on",
          "better": ": address of the unstaker",
          "fixtureID": ": corresponding fixtureID for fixture on which outcome is unstaked"
        }
      },
      "BettingStateChanged(string,uint8)": {
        "params": {
          "fixtureID": ": the corresponding fixtureID for fixture that has state change",
          "state": ": the BettingState corresponding to the new state of the fixture"
        }
      },
      "KickoffTimeUpdated(string,uint256)": {
        "params": {
          "fixtureID": ": corresponding fixtureID for fixture with kickoff time fulfilled",
          "kickoffTime": ": unix timestamp of kickoff time for fixture"
        }
      }
    },
    "kind": "dev",
    "methods": {
      "awaitBetForFixture(string)": {
        "params": {
          "fixtureID": ": the corresponding fixtureID for fixture to be set to AWAITING"
        }
      },
      "closeBetForFixture(string)": {
        "params": {
          "fixtureID": ": the corresponding fixtureID for fixture to be closed"
        }
      },
      "getEnrichedFixtureData(string,address)": {
        "params": {
          "fixtureID": ": Corresponding fixtureID for fixture outcomes",
          "user": ": Address of user corresponding to user fixture stakes"
        },
        "returns": {
          "_0": "FixtureEnrichment struct containing fixture state, user stakes and total stakes"
        }
      },
      "handleCommissionPayout(string)": {
        "params": {
          "fixtureID": ": Corresponding fixtureID for fixture owner withdraws commission for"
        }
      },
      "openBetForFixture(string)": {
        "params": {
          "fixtureID": ": the corresponding fixtureID for fixture to be opened"
        }
      },
      "requestFixtureKickoffTime(string)": {
        "params": {
          "fixtureID": ": Corresponding fixtureID for fixture user requests kickoff time for"
        }
      },
      "requestFixtureResult(string)": {
        "params": {
          "fixtureID": ": Corresponding fixtureID for fixture user requests result for"
        }
      },
      "stake(string,uint8,uint256)": {
        "params": {
          "amount": ": The amount of collateral added to user's total stake on fixture outcome",
          "betType": ": The fixture outcome the msg sender is staking on",
          "fixtureID": ": Corresponding fixtureID for fixture user is staking on"
        }
      },
      "unstake(string,uint8,uint256)": {
        "params": {
          "amount": ": The amount of collateral subtracted from user's total stake on fixture outcome",
          "betType": ": The fixture outcome the msg sender is unstaking on",
          "fixtureID": ": Corresponding fixtureID for fixture user is unstaking on"
        }
      },
      "withdrawPayout(string)": {
        "params": {
          "fixtureID": ": Corresponding fixtureID for fixture user withdraws winnings for"
        }
      }
    },
    "title": "A contract for sports result staking",
    "version": 1
  },
  "userdoc": {
    "events": {
      "BetCommissionPayout(string,uint256)": {
        "notice": "Event emitted each time owner claims commission on bet payout profits"
      },
      "BetPayout(address,string,uint256)": {
        "notice": "Event emitted each time a user claims payout on fixture result"
      },
      "BetStaked(address,string,uint256,uint8)": {
        "notice": "Event emitted each time a user stakes on a fixture outcome"
      },
      "BetUnstaked(address,string,uint256,uint8)": {
        "notice": "Event emitted each time a user unstakes on a fixture outcome"
      },
      "BettingStateChanged(string,uint8)": {
        "notice": "Event emitted each time the betting state for a fixture changes"
      },
      "KickoffTimeUpdated(string,uint256)": {
        "notice": "Event emitted each time a fixture kickoff time is fulfilled by oracle"
      }
    },
    "kind": "user",
    "methods": {
      "awaitBetForFixture(string)": {
        "notice": "Changes fixture betting state to AWAITING if eligible"
      },
      "closeBetForFixture(string)": {
        "notice": "Closes fixture if it is 1. Not currently closed AND 2. eligible to be closed"
      },
      "getEnrichedFixtureData(string,address)": {
        "notice": "Gets total and user stakes on all outcomes for fixture"
      },
      "handleCommissionPayout(string)": {
        "notice": "Transfers owner commission on fixture if applicable"
      },
      "openBetForFixture(string)": {
        "notice": "Makes oracle request to get fixture kickoff time and set fixture state to OPENINGOn fulfillment handle, ctx will open fixture is eligible"
      },
      "requestFixtureKickoffTime(string)": {
        "notice": "Calls consumer contract to request fixture kickoff time from oracle"
      },
      "requestFixtureKickoffTimeParameter(string)": {
        "notice": "Request fixture kickoff time from the oracle in a single transaction"
      },
      "requestFixtureResult(string)": {
        "notice": "Calls consumer contract to request fixture result from oracle"
      },
      "requestFixtureResultParameter(string)": {
        "notice": "Request fixture result from the oracle in a single transaction"
      },
      "stake(string,uint8,uint256)": {
        "notice": "Allows user to stake on fixture with ID fixtureID for outcome 'betType' with 'amount'"
      },
      "unstake(string,uint8,uint256)": {
        "notice": "Allows user to unstake on fixture with ID fixtureID for outcome 'betType' with 'amount'"
      },
      "withdrawLink(uint256)": {
        "notice": "Allow withdraw of Link tokens from the contract"
      },
      "withdrawPayout(string)": {
        "notice": "Transfers user winnings on fixture if applicable"
      }
    },
    "notice": "Handles user stakes and allows winning stakers to claim payouts ",
    "version": 1
  },
  "storageLayout": {
    "storage": [
      {
        "astId": 319,
        "contract": "contracts/SportsBetting.sol:SportsBetting",
        "label": "s_ens",
        "offset": 0,
        "slot": "0",
        "type": "t_contract(ENSInterface)974"
      },
      {
        "astId": 321,
        "contract": "contracts/SportsBetting.sol:SportsBetting",
        "label": "s_ensNode",
        "offset": 0,
        "slot": "1",
        "type": "t_bytes32"
      },
      {
        "astId": 324,
        "contract": "contracts/SportsBetting.sol:SportsBetting",
        "label": "s_link",
        "offset": 0,
        "slot": "2",
        "type": "t_contract(LinkTokenInterface)1069"
      },
      {
        "astId": 327,
        "contract": "contracts/SportsBetting.sol:SportsBetting",
        "label": "s_oracle",
        "offset": 0,
        "slot": "3",
        "type": "t_contract(OperatorInterface)1149"
      },
      {
        "astId": 330,
        "contract": "contracts/SportsBetting.sol:SportsBetting",
        "label": "s_requestCount",
        "offset": 0,
        "slot": "4",
        "type": "t_uint256"
      },
      {
        "astId": 334,
        "contract": "contracts/SportsBetting.sol:SportsBetting",
        "label": "s_pendingRequests",
        "offset": 0,
        "slot": "5",
        "type": "t_mapping(t_bytes32,t_address)"
      },
      {
        "astId": 4443,
        "contract": "contracts/SportsBetting.sol:SportsBetting",
        "label": "sportsOracleURI",
        "offset": 0,
        "slot": "6",
        "type": "t_string_storage"
      },
      {
        "astId": 4445,
        "contract": "contracts/SportsBetting.sol:SportsBetting",
        "label": "jobId",
        "offset": 0,
        "slot": "7",
        "type": "t_bytes32"
      },
      {
        "astId": 4447,
        "contract": "contracts/SportsBetting.sol:SportsBetting",
        "label": "fee",
        "offset": 0,
        "slot": "8",
        "type": "t_uint256"
      },
      {
        "astId": 4451,
        "contract": "contracts/SportsBetting.sol:SportsBetting",
        "label": "userToLink",
        "offset": 0,
        "slot": "9",
        "type": "t_mapping(t_address,t_uint256)"
      },
      {
        "astId": 2653,
        "contract": "contracts/SportsBetting.sol:SportsBetting",
        "label": "betTypes",
        "offset": 0,
        "slot": "10",
        "type": "t_array(t_enum(FixtureResult)4179)5_storage"
      },
      {
        "astId": 2674,
        "contract": "contracts/SportsBetting.sol:SportsBetting",
        "label": "bettingState",
        "offset": 0,
        "slot": "11",
        "type": "t_mapping(t_string_memory_ptr,t_enum(BettingState)2581)"
      },
      {
        "astId": 2683,
        "contract": "contracts/SportsBetting.sol:SportsBetting",
        "label": "amounts",
        "offset": 0,
        "slot": "12",
        "type": "t_mapping(t_string_memory_ptr,t_mapping(t_enum(FixtureResult)4179,t_mapping(t_address,t_uint256)))"
      },
      {
        "astId": 2690,
        "contract": "contracts/SportsBetting.sol:SportsBetting",
        "label": "totalAmounts",
        "offset": 0,
        "slot": "13",
        "type": "t_mapping(t_string_memory_ptr,t_mapping(t_enum(FixtureResult)4179,t_uint256))"
      },
      {
        "astId": 2696,
        "contract": "contracts/SportsBetting.sol:SportsBetting",
        "label": "payouts",
        "offset": 0,
        "slot": "14",
        "type": "t_mapping(t_string_memory_ptr,t_mapping(t_address,t_uint256))"
      },
      {
        "astId": 2702,
        "contract": "contracts/SportsBetting.sol:SportsBetting",
        "label": "userWasPaid",
        "offset": 0,
        "slot": "15",
        "type": "t_mapping(t_string_memory_ptr,t_mapping(t_address,t_bool))"
      },
      {
        "astId": 2706,
        "contract": "contracts/SportsBetting.sol:SportsBetting",
        "label": "requestKickoffToFixture",
        "offset": 0,
        "slot": "16",
        "type": "t_mapping(t_bytes32,t_string_storage)"
      },
      {
        "astId": 2710,
        "contract": "contracts/SportsBetting.sol:SportsBetting",
        "label": "fixtureToKickoffTime",
        "offset": 0,
        "slot": "17",
        "type": "t_mapping(t_string_memory_ptr,t_uint256)"
      },
      {
        "astId": 2714,
        "contract": "contracts/SportsBetting.sol:SportsBetting",
        "label": "requestResultToFixture",
        "offset": 0,
        "slot": "18",
        "type": "t_mapping(t_bytes32,t_string_storage)"
      },
      {
        "astId": 2719,
        "contract": "contracts/SportsBetting.sol:SportsBetting",
        "label": "results",
        "offset": 0,
        "slot": "19",
        "type": "t_mapping(t_string_memory_ptr,t_enum(FixtureResult)4179)"
      },
      {
        "astId": 2723,
        "contract": "contracts/SportsBetting.sol:SportsBetting",
        "label": "commissionMap",
        "offset": 0,
        "slot": "20",
        "type": "t_mapping(t_string_memory_ptr,t_uint256)"
      },
      {
        "astId": 2727,
        "contract": "contracts/SportsBetting.sol:SportsBetting",
        "label": "commissionPaid",
        "offset": 0,
        "slot": "21",
        "type": "t_mapping(t_string_memory_ptr,t_bool)"
      }
    ],
    "types": {
      "t_address": {
        "encoding": "inplace",
        "label": "address",
        "numberOfBytes": "20"
      },
      "t_array(t_enum(FixtureResult)4179)5_storage": {
        "base": "t_enum(FixtureResult)4179",
        "encoding": "inplace",
        "label": "enum SportsBettingLib.FixtureResult[5]",
        "numberOfBytes": "32"
      },
      "t_bool": {
        "encoding": "inplace",
        "label": "bool",
        "numberOfBytes": "1"
      },
      "t_bytes32": {
        "encoding": "inplace",
        "label": "bytes32",
        "numberOfBytes": "32"
      },
      "t_contract(ENSInterface)974": {
        "encoding": "inplace",
        "label": "contract ENSInterface",
        "numberOfBytes": "20"
      },
      "t_contract(LinkTokenInterface)1069": {
        "encoding": "inplace",
        "label": "contract LinkTokenInterface",
        "numberOfBytes": "20"
      },
      "t_contract(OperatorInterface)1149": {
        "encoding": "inplace",
        "label": "contract OperatorInterface",
        "numberOfBytes": "20"
      },
      "t_enum(BettingState)2581": {
        "encoding": "inplace",
        "label": "enum SportsBetting.BettingState",
        "numberOfBytes": "1"
      },
      "t_enum(FixtureResult)4179": {
        "encoding": "inplace",
        "label": "enum SportsBettingLib.FixtureResult",
        "numberOfBytes": "1"
      },
      "t_mapping(t_address,t_bool)": {
        "encoding": "mapping",
        "key": "t_address",
        "label": "mapping(address => bool)",
        "numberOfBytes": "32",
        "value": "t_bool"
      },
      "t_mapping(t_address,t_uint256)": {
        "encoding": "mapping",
        "key": "t_address",
        "label": "mapping(address => uint256)",
        "numberOfBytes": "32",
        "value": "t_uint256"
      },
      "t_mapping(t_bytes32,t_address)": {
        "encoding": "mapping",
        "key": "t_bytes32",
        "label": "mapping(bytes32 => address)",
        "numberOfBytes": "32",
        "value": "t_address"
      },
      "t_mapping(t_bytes32,t_string_storage)": {
        "encoding": "mapping",
        "key": "t_bytes32",
        "label": "mapping(bytes32 => string)",
        "numberOfBytes": "32",
        "value": "t_string_storage"
      },
      "t_mapping(t_enum(FixtureResult)4179,t_mapping(t_address,t_uint256))": {
        "encoding": "mapping",
        "key": "t_enum(FixtureResult)4179",
        "label": "mapping(enum SportsBettingLib.FixtureResult => mapping(address => uint256))",
        "numberOfBytes": "32",
        "value": "t_mapping(t_address,t_uint256)"
      },
      "t_mapping(t_enum(FixtureResult)4179,t_uint256)": {
        "encoding": "mapping",
        "key": "t_enum(FixtureResult)4179",
        "label": "mapping(enum SportsBettingLib.FixtureResult => uint256)",
        "numberOfBytes": "32",
        "value": "t_uint256"
      },
      "t_mapping(t_string_memory_ptr,t_bool)": {
        "encoding": "mapping",
        "key": "t_string_memory_ptr",
        "label": "mapping(string => bool)",
        "numberOfBytes": "32",
        "value": "t_bool"
      },
      "t_mapping(t_string_memory_ptr,t_enum(BettingState)2581)": {
        "encoding": "mapping",
        "key": "t_string_memory_ptr",
        "label": "mapping(string => enum SportsBetting.BettingState)",
        "numberOfBytes": "32",
        "value": "t_enum(BettingState)2581"
      },
      "t_mapping(t_string_memory_ptr,t_enum(FixtureResult)4179)": {
        "encoding": "mapping",
        "key": "t_string_memory_ptr",
        "label": "mapping(string => enum SportsBettingLib.FixtureResult)",
        "numberOfBytes": "32",
        "value": "t_enum(FixtureResult)4179"
      },
      "t_mapping(t_string_memory_ptr,t_mapping(t_address,t_bool))": {
        "encoding": "mapping",
        "key": "t_string_memory_ptr",
        "label": "mapping(string => mapping(address => bool))",
        "numberOfBytes": "32",
        "value": "t_mapping(t_address,t_bool)"
      },
      "t_mapping(t_string_memory_ptr,t_mapping(t_address,t_uint256))": {
        "encoding": "mapping",
        "key": "t_string_memory_ptr",
        "label": "mapping(string => mapping(address => uint256))",
        "numberOfBytes": "32",
        "value": "t_mapping(t_address,t_uint256)"
      },
      "t_mapping(t_string_memory_ptr,t_mapping(t_enum(FixtureResult)4179,t_mapping(t_address,t_uint256)))": {
        "encoding": "mapping",
        "key": "t_string_memory_ptr",
        "label": "mapping(string => mapping(enum SportsBettingLib.FixtureResult => mapping(address => uint256)))",
        "numberOfBytes": "32",
        "value": "t_mapping(t_enum(FixtureResult)4179,t_mapping(t_address,t_uint256))"
      },
      "t_mapping(t_string_memory_ptr,t_mapping(t_enum(FixtureResult)4179,t_uint256))": {
        "encoding": "mapping",
        "key": "t_string_memory_ptr",
        "label": "mapping(string => mapping(enum SportsBettingLib.FixtureResult => uint256))",
        "numberOfBytes": "32",
        "value": "t_mapping(t_enum(FixtureResult)4179,t_uint256)"
      },
      "t_mapping(t_string_memory_ptr,t_uint256)": {
        "encoding": "mapping",
        "key": "t_string_memory_ptr",
        "label": "mapping(string => uint256)",
        "numberOfBytes": "32",
        "value": "t_uint256"
      },
      "t_string_memory_ptr": {
        "encoding": "bytes",
        "label": "string",
        "numberOfBytes": "32"
      },
      "t_string_storage": {
        "encoding": "bytes",
        "label": "string",
        "numberOfBytes": "32"
      },
      "t_uint256": {
        "encoding": "inplace",
        "label": "uint256",
        "numberOfBytes": "32"
      }
    }
  }
}