{
  "address": "0xa0EeAbA43cE9f36037956D771C500c71101E985f",
  "abi": [
    {
      "inputs": [
        {
          "internalType": "string",
          "name": "_sportsOracleURI",
          "type": "string"
        },
        {
          "internalType": "address",
          "name": "_oracle",
          "type": "address"
        },
        {
          "internalType": "address",
          "name": "_link",
          "type": "address"
        },
        {
          "internalType": "bytes32",
          "name": "_jobId",
          "type": "bytes32"
        },
        {
          "internalType": "uint256",
          "name": "_fee",
          "type": "uint256"
        }
      ],
      "stateMutability": "nonpayable",
      "type": "constructor"
    },
    {
      "anonymous": false,
      "inputs": [
        {
          "indexed": true,
          "internalType": "address",
          "name": "better",
          "type": "address"
        },
        {
          "indexed": false,
          "internalType": "string",
          "name": "fixtureID",
          "type": "string"
        },
        {
          "indexed": false,
          "internalType": "uint256",
          "name": "amount",
          "type": "uint256"
        }
      ],
      "name": "BetPayout",
      "type": "event"
    },
    {
      "anonymous": false,
      "inputs": [
        {
          "indexed": false,
          "internalType": "string",
          "name": "fixtureID",
          "type": "string"
        },
        {
          "indexed": false,
          "internalType": "string",
          "name": "reason",
          "type": "string"
        }
      ],
      "name": "BetPayoutFulfillmentError",
      "type": "event"
    },
    {
      "anonymous": false,
      "inputs": [
        {
          "indexed": true,
          "internalType": "address",
          "name": "better",
          "type": "address"
        },
        {
          "indexed": false,
          "internalType": "string",
          "name": "fixtureID",
          "type": "string"
        },
        {
          "indexed": false,
          "internalType": "uint256",
          "name": "amount",
          "type": "uint256"
        },
        {
          "indexed": false,
          "internalType": "enum SportsBetting.BetType",
          "name": "betType",
          "type": "uint8"
        }
      ],
      "name": "BetStaked",
      "type": "event"
    },
    {
      "anonymous": false,
      "inputs": [
        {
          "indexed": true,
          "internalType": "address",
          "name": "better",
          "type": "address"
        },
        {
          "indexed": false,
          "internalType": "string",
          "name": "fixtureID",
          "type": "string"
        },
        {
          "indexed": false,
          "internalType": "uint256",
          "name": "amount",
          "type": "uint256"
        },
        {
          "indexed": false,
          "internalType": "enum SportsBetting.BetType",
          "name": "betType",
          "type": "uint8"
        }
      ],
      "name": "BetUnstaked",
      "type": "event"
    },
    {
      "anonymous": false,
      "inputs": [
        {
          "indexed": false,
          "internalType": "string",
          "name": "fixtureID",
          "type": "string"
        },
        {
          "indexed": false,
          "internalType": "enum SportsBetting.BettingState",
          "name": "state",
          "type": "uint8"
        }
      ],
      "name": "BettingStateChanged",
      "type": "event"
    },
    {
      "anonymous": false,
      "inputs": [
        {
          "indexed": true,
          "internalType": "bytes32",
          "name": "id",
          "type": "bytes32"
        }
      ],
      "name": "ChainlinkCancelled",
      "type": "event"
    },
    {
      "anonymous": false,
      "inputs": [
        {
          "indexed": true,
          "internalType": "bytes32",
          "name": "id",
          "type": "bytes32"
        }
      ],
      "name": "ChainlinkFulfilled",
      "type": "event"
    },
    {
      "anonymous": false,
      "inputs": [
        {
          "indexed": true,
          "internalType": "bytes32",
          "name": "id",
          "type": "bytes32"
        }
      ],
      "name": "ChainlinkRequested",
      "type": "event"
    },
    {
      "anonymous": false,
      "inputs": [
        {
          "indexed": false,
          "internalType": "string",
          "name": "fixtureID",
          "type": "string"
        },
        {
          "indexed": false,
          "internalType": "uint256",
          "name": "kickoffTime",
          "type": "uint256"
        }
      ],
      "name": "KickoffTimeUpdated",
      "type": "event"
    },
    {
      "anonymous": false,
      "inputs": [
        {
          "indexed": true,
          "internalType": "bytes32",
          "name": "requestId",
          "type": "bytes32"
        },
        {
          "indexed": false,
          "internalType": "string",
          "name": "fixtureID",
          "type": "string"
        },
        {
          "indexed": false,
          "internalType": "uint256",
          "name": "kickoff",
          "type": "uint256"
        }
      ],
      "name": "RequestFixtureKickoffFulfilled",
      "type": "event"
    },
    {
      "anonymous": false,
      "inputs": [
        {
          "indexed": true,
          "internalType": "bytes32",
          "name": "requestId",
          "type": "bytes32"
        },
        {
          "indexed": false,
          "internalType": "string",
          "name": "fixtureID",
          "type": "string"
        },
        {
          "indexed": false,
          "internalType": "uint256",
          "name": "result",
          "type": "uint256"
        }
      ],
      "name": "RequestFixtureResultFulfilled",
      "type": "event"
    },
    {
      "anonymous": false,
      "inputs": [
        {
          "indexed": true,
          "internalType": "bytes32",
          "name": "requestId",
          "type": "bytes32"
        },
        {
          "indexed": false,
          "internalType": "string",
          "name": "fixtureID",
          "type": "string"
        }
      ],
      "name": "RequestedFixtureKickoff",
      "type": "event"
    },
    {
      "anonymous": false,
      "inputs": [
        {
          "indexed": true,
          "internalType": "bytes32",
          "name": "requestId",
          "type": "bytes32"
        },
        {
          "indexed": false,
          "internalType": "string",
          "name": "fixtureID",
          "type": "string"
        }
      ],
      "name": "RequestedFixtureResult",
      "type": "event"
    },
    {
      "inputs": [
        {
          "internalType": "string",
          "name": "",
          "type": "string"
        },
        {
          "internalType": "enum SportsBetting.BetType",
          "name": "",
          "type": "uint8"
        },
        {
          "internalType": "address",
          "name": "",
          "type": "address"
        }
      ],
      "name": "activeBetters",
      "outputs": [
        {
          "internalType": "bool",
          "name": "",
          "type": "bool"
        }
      ],
      "stateMutability": "view",
      "type": "function"
    },
    {
      "inputs": [
        {
          "internalType": "string",
          "name": "",
          "type": "string"
        },
        {
          "internalType": "enum SportsBetting.BetType",
          "name": "",
          "type": "uint8"
        },
        {
          "internalType": "address",
          "name": "",
          "type": "address"
        }
      ],
      "name": "amounts",
      "outputs": [
        {
          "internalType": "uint256",
          "name": "",
          "type": "uint256"
        }
      ],
      "stateMutability": "view",
      "type": "function"
    },
    {
      "inputs": [
        {
          "internalType": "string",
          "name": "fixtureID",
          "type": "string"
        }
      ],
      "name": "awaitBetForFixture",
      "outputs": [],
      "stateMutability": "nonpayable",
      "type": "function"
    },
    {
      "inputs": [],
      "name": "betAdvanceTime",
      "outputs": [
        {
          "internalType": "uint256",
          "name": "",
          "type": "uint256"
        }
      ],
      "stateMutability": "view",
      "type": "function"
    },
    {
      "inputs": [],
      "name": "betCutOffTime",
      "outputs": [
        {
          "internalType": "uint256",
          "name": "",
          "type": "uint256"
        }
      ],
      "stateMutability": "view",
      "type": "function"
    },
    {
      "inputs": [
        {
          "internalType": "uint256",
          "name": "",
          "type": "uint256"
        }
      ],
      "name": "betTypes",
      "outputs": [
        {
          "internalType": "enum SportsBetting.BetType",
          "name": "",
          "type": "uint8"
        }
      ],
      "stateMutability": "view",
      "type": "function"
    },
    {
      "inputs": [
        {
          "internalType": "string",
          "name": "",
          "type": "string"
        }
      ],
      "name": "bettingState",
      "outputs": [
        {
          "internalType": "enum SportsBetting.BettingState",
          "name": "",
          "type": "uint8"
        }
      ],
      "stateMutability": "view",
      "type": "function"
    },
    {
      "inputs": [],
      "name": "chainlink",
      "outputs": [
        {
          "internalType": "address",
          "name": "",
          "type": "address"
        }
      ],
      "stateMutability": "view",
      "type": "function"
    },
    {
      "inputs": [
        {
          "internalType": "string",
          "name": "fixtureID",
          "type": "string"
        }
      ],
      "name": "closeBetForFixture",
      "outputs": [],
      "stateMutability": "nonpayable",
      "type": "function"
    },
    {
      "inputs": [],
      "name": "entranceFee",
      "outputs": [
        {
          "internalType": "uint256",
          "name": "",
          "type": "uint256"
        }
      ],
      "stateMutability": "view",
      "type": "function"
    },
    {
      "inputs": [],
      "name": "fixtureResult",
      "outputs": [
        {
          "internalType": "string",
          "name": "",
          "type": "string"
        }
      ],
      "stateMutability": "view",
      "type": "function"
    },
    {
      "inputs": [
        {
          "internalType": "string",
          "name": "",
          "type": "string"
        }
      ],
      "name": "fixtureToKickoffTime",
      "outputs": [
        {
          "internalType": "uint256",
          "name": "",
          "type": "uint256"
        }
      ],
      "stateMutability": "view",
      "type": "function"
    },
    {
      "inputs": [
        {
          "internalType": "string",
          "name": "fixtureID",
          "type": "string"
        }
      ],
      "name": "fulfillBetForFixture",
      "outputs": [],
      "stateMutability": "nonpayable",
      "type": "function"
    },
    {
      "inputs": [
        {
          "internalType": "string",
          "name": "fixtureID",
          "type": "string"
        },
        {
          "internalType": "address",
          "name": "user",
          "type": "address"
        }
      ],
      "name": "getEnrichedFixtureData",
      "outputs": [
        {
          "components": [
            {
              "internalType": "enum SportsBetting.BettingState",
              "name": "fixtureState",
              "type": "uint8"
            },
            {
              "internalType": "uint256[3]",
              "name": "total",
              "type": "uint256[3]"
            },
            {
              "internalType": "uint256[3]",
              "name": "user",
              "type": "uint256[3]"
            }
          ],
          "internalType": "struct SportsBetting.FixtureEnrichment",
          "name": "",
          "type": "tuple"
        }
      ],
      "stateMutability": "view",
      "type": "function"
    },
    {
      "inputs": [
        {
          "internalType": "string",
          "name": "",
          "type": "string"
        },
        {
          "internalType": "enum SportsBetting.BetType",
          "name": "",
          "type": "uint8"
        },
        {
          "internalType": "uint256",
          "name": "",
          "type": "uint256"
        }
      ],
      "name": "historicalBetters",
      "outputs": [
        {
          "internalType": "address",
          "name": "",
          "type": "address"
        }
      ],
      "stateMutability": "view",
      "type": "function"
    },
    {
      "inputs": [
        {
          "internalType": "string",
          "name": "",
          "type": "string"
        },
        {
          "internalType": "enum SportsBetting.BetType",
          "name": "",
          "type": "uint8"
        },
        {
          "internalType": "address",
          "name": "",
          "type": "address"
        }
      ],
      "name": "historicalBettersIndex",
      "outputs": [
        {
          "internalType": "uint256",
          "name": "",
          "type": "uint256"
        }
      ],
      "stateMutability": "view",
      "type": "function"
    },
    {
      "inputs": [
        {
          "internalType": "string",
          "name": "",
          "type": "string"
        },
        {
          "internalType": "address",
          "name": "",
          "type": "address"
        }
      ],
      "name": "obligations",
      "outputs": [
        {
          "internalType": "uint256",
          "name": "",
          "type": "uint256"
        }
      ],
      "stateMutability": "view",
      "type": "function"
    },
    {
      "inputs": [
        {
          "internalType": "string",
          "name": "fixtureID",
          "type": "string"
        }
      ],
      "name": "openBetForFixture",
      "outputs": [],
      "stateMutability": "nonpayable",
      "type": "function"
    },
    {
      "inputs": [],
      "name": "owner",
      "outputs": [
        {
          "internalType": "address payable",
          "name": "",
          "type": "address"
        }
      ],
      "stateMutability": "view",
      "type": "function"
    },
    {
      "inputs": [
        {
          "internalType": "bytes32",
          "name": "_requestId",
          "type": "bytes32"
        },
        {
          "internalType": "uint256",
          "name": "_ko",
          "type": "uint256"
        }
      ],
      "name": "rawFulfillFixtureKickoffTime",
      "outputs": [],
      "stateMutability": "nonpayable",
      "type": "function"
    },
    {
      "inputs": [
        {
          "internalType": "bytes32",
          "name": "_requestId",
          "type": "bytes32"
        },
        {
          "internalType": "uint256",
          "name": "_result",
          "type": "uint256"
        }
      ],
      "name": "rawFulfillFixtureResult",
      "outputs": [],
      "stateMutability": "nonpayable",
      "type": "function"
    },
    {
      "inputs": [
        {
          "internalType": "string",
          "name": "fixtureID",
          "type": "string"
        }
      ],
      "name": "requestFixtureKickoffTime",
      "outputs": [],
      "stateMutability": "nonpayable",
      "type": "function"
    },
    {
      "inputs": [
        {
          "internalType": "string",
          "name": "fixtureID",
          "type": "string"
        }
      ],
      "name": "requestFixtureKickoffTimeParameter",
      "outputs": [
        {
          "internalType": "bytes32",
          "name": "",
          "type": "bytes32"
        }
      ],
      "stateMutability": "nonpayable",
      "type": "function"
    },
    {
      "inputs": [
        {
          "internalType": "string",
          "name": "fixtureID",
          "type": "string"
        }
      ],
      "name": "requestFixtureResultParameter",
      "outputs": [
        {
          "internalType": "bytes32",
          "name": "",
          "type": "bytes32"
        }
      ],
      "stateMutability": "nonpayable",
      "type": "function"
    },
    {
      "inputs": [
        {
          "internalType": "bytes32",
          "name": "",
          "type": "bytes32"
        }
      ],
      "name": "requestKickoffToFixture",
      "outputs": [
        {
          "internalType": "string",
          "name": "",
          "type": "string"
        }
      ],
      "stateMutability": "view",
      "type": "function"
    },
    {
      "inputs": [
        {
          "internalType": "bytes32",
          "name": "",
          "type": "bytes32"
        }
      ],
      "name": "requestResultToFixture",
      "outputs": [
        {
          "internalType": "string",
          "name": "",
          "type": "string"
        }
      ],
      "stateMutability": "view",
      "type": "function"
    },
    {
      "inputs": [],
      "name": "sportsOracleURI",
      "outputs": [
        {
          "internalType": "string",
          "name": "",
          "type": "string"
        }
      ],
      "stateMutability": "view",
      "type": "function"
    },
    {
      "inputs": [
        {
          "internalType": "string",
          "name": "fixtureID",
          "type": "string"
        },
        {
          "internalType": "enum SportsBetting.BetType",
          "name": "betType",
          "type": "uint8"
        }
      ],
      "name": "stake",
      "outputs": [],
      "stateMutability": "payable",
      "type": "function"
    },
    {
      "inputs": [
        {
          "internalType": "string",
          "name": "fixtureID",
          "type": "string"
        },
        {
          "internalType": "enum SportsBetting.BetType",
          "name": "betType",
          "type": "uint8"
        },
        {
          "internalType": "uint256",
          "name": "amount",
          "type": "uint256"
        }
      ],
      "name": "unstake",
      "outputs": [],
      "stateMutability": "nonpayable",
      "type": "function"
    },
    {
      "inputs": [],
      "name": "withdrawLink",
      "outputs": [],
      "stateMutability": "nonpayable",
      "type": "function"
    }
  ],
  "transactionHash": "0xbd9d7e2937eb59f714e72524be5f53470b5c469eba7aef11ad2f7f0b0fa85bc1",
  "args": [
    "https://1vyuff64d9.execute-api.us-east-1.amazonaws.com/dev/premier-league/fixtures/",
    "0xcc79157eb46f5624204f47ab42b3906caa40eab7",
    "0x326C977E6efc84E512bB9C30f76E30c160eD06FB",
    "0x6361393833363663633733313439353762386330313263373266303561656562",
    "100000000000000000"
  ],
  "numDeployments": 16,
  "solcInputHash": "3ef56e15fb4e946f25d2ea65782b7c8e",
  "bytecode": "0x60806040526001600455655af3107a4000600d5562093a80600e55611518600f553480156200002d57600080fd5b5060405162004198380380620041988339810160408190526200005091620001d6565b848484848484600890805190602001906200006d929190620000fd565b50600280546001600160a01b03199081166001600160a01b039586161790915560038054821695909416948517909355600780548416909417909355507f6361393833363663633733313439353762386330313263373266303561656562600955600a9190915560068054909116331790555050600c805462ffffff191662020100179055506200032992505050565b8280546200010b90620002ec565b90600052602060002090601f0160209004810192826200012f57600085556200017a565b82601f106200014a57805160ff19168380011785556200017a565b828001600101855582156200017a579182015b828111156200017a5782518255916020019190600101906200015d565b50620001889291506200018c565b5090565b5b808211156200018857600081556001016200018d565b634e487b7160e01b600052604160045260246000fd5b80516001600160a01b0381168114620001d157600080fd5b919050565b600080600080600060a08688031215620001ef57600080fd5b85516001600160401b03808211156200020757600080fd5b818801915088601f8301126200021c57600080fd5b815181811115620002315762000231620001a3565b604051601f8201601f19908116603f011681019083821181831017156200025c576200025c620001a3565b81604052828152602093508b848487010111156200027957600080fd5b600091505b828210156200029d57848201840151818301850152908301906200027e565b82821115620002af5760008484830101525b9850620002c1915050888201620001b9565b95505050620002d360408701620001b9565b6060870151608090970151959894975095949392505050565b600181811c908216806200030157607f821691505b602082108114156200032357634e487b7160e01b600052602260045260246000fd5b50919050565b613e5f80620003396000396000f3fe6080604052600436106101cc5760003560e01c80639c3feeb7116100f7578063cbef85c211610095578063ef40efde11610064578063ef40efde14610601578063f46dccf014610621578063f7c60c0c14610641578063fbe913931461065657600080fd5b8063cbef85c214610528578063d8654c0814610589578063e37685ec146105a9578063edb16070146105c957600080fd5b8063b148cdf1116100d1578063b148cdf11461047e578063bae22f95146104a0578063c40bc66b146104e8578063c8fe739c1461050857600080fd5b80639c3feeb7146103e3578063aa06609014610403578063abf949f81461045157600080fd5b80635ec421a71161016f5780638a71bfa81161013e5780638a71bfa8146103565780638da5cb5b146103765780638dc654a2146103ae5780639959a30f146103c357600080fd5b80635ec421a7146102a557806362098ff7146102f3578063649677e1146103205780636e2a3a841461033657600080fd5b80631d686ae4116101ab5780631d686ae41461023c57806340364d111461025c5780634bfc91ee1461026f5780635e5243191461028557600080fd5b8062e1a75b146101d157806301ec29c9146101f3578063106246d814610213575b600080fd5b3480156101dd57600080fd5b506101f16101ec3660046135f7565b61069e565b005b3480156101ff57600080fd5b506101f161020e3660046135f7565b61073d565b34801561021f57600080fd5b50610229600e5481565b6040519081526020015b60405180910390f35b34801561024857600080fd5b506102296102573660046135f7565b6107c9565b6101f161026a366004613640565b6108e7565b34801561027b57600080fd5b50610229600f5481565b34801561029157600080fd5b506101f16102a036600461368e565b610b0c565b3480156102b157600080fd5b506102296102c03660046136fc565b82516020818501810180516011825292820195820195909520919094528352600091825260408083209093528152205481565b3480156102ff57600080fd5b5061031361030e36600461375a565b610bf9565b604051610233919061379d565b34801561032c57600080fd5b50610229600d5481565b34801561034257600080fd5b506101f16103513660046135f7565b610c23565b34801561036257600080fd5b506101f16103713660046137ab565b610cba565b34801561038257600080fd5b50600654610396906001600160a01b031681565b6040516001600160a01b039091168152602001610233565b3480156103ba57600080fd5b506101f1610dda565b3480156103cf57600080fd5b506101f16103de3660046135f7565b610f91565b3480156103ef57600080fd5b50600754610396906001600160a01b031681565b34801561040f57600080fd5b5061022961041e3660046136fc565b82516020818501810180516013825292820195820195909520919094528352600091825260408083209093528152205481565b34801561045d57600080fd5b5061047161046c3660046137cd565b610ff1565b6040516102339190613845565b34801561048a57600080fd5b5061049361108f565b60405161023391906138dc565b3480156104ac57600080fd5b506102296104bb3660046137cd565b81516020818401810180516014825292820194820194909420919093529091526000908152604090205481565b3480156104f457600080fd5b5061049361050336600461375a565b61111d565b34801561051457600080fd5b5061039661052336600461368e565b611136565b34801561053457600080fd5b506105796105433660046136fc565b82516020818501810180516012825292820195820195909520919094528352600091825260408083209093528152205460ff1681565b6040519015158152602001610233565b34801561059557600080fd5b506102296105a43660046135f7565b611185565b3480156105b557600080fd5b506101f16105c43660046137ab565b611237565b3480156105d557600080fd5b506102296105e43660046135f7565b805160208183018101805160168252928201919093012091525481565b34801561060d57600080fd5b506101f161061c3660046135f7565b611357565b34801561062d57600080fd5b5061049361063c36600461375a565b6113db565b34801561064d57600080fd5b506104936113f4565b34801561066257600080fd5b506106916106713660046135f7565b805160208183018101805160158252928201919093012091525460ff1681565b60405161023391906138ef565b60006015826040516106b09190613919565b9081526040519081900360200190205460ff1660058111156106d4576106d4613773565b146107265760405162461bcd60e51b815260206004820152601960248201527f426574207374617465206d75737420626520434c4f5345442e0000000000000060448201526064015b60405180910390fd5b610731816001611401565b61073a81610f91565b50565b600260158260405161074f9190613919565b9081526040519081900360200190205460ff16600581111561077357610773613773565b146107c05760405162461bcd60e51b815260206004820152601760248201527f426574207374617465206d757374206265204f50454e2e000000000000000000604482015260640161071d565b61073a816114c3565b6000806107e06009543063e37685ec60e01b6116eb565b905061082d6040518060400160405280600381526020016219d95d60ea1b81525060088560405160200161081592919061396a565b60408051601f1981840301815291905283919061177c565b610893604051806040016040528060048152602001630e0c2e8d60e31b8152506040518060400160405280600481526020017f302c6b6f000000000000000000000000000000000000000000000000000000008152508361177c9092919063ffffffff16565b60408051808201909152600581527f74696d657300000000000000000000000000000000000000000000000000000060208201526108d4908290600161179a565b6108e081600a546117b8565b9392505050565b6108f0826114c3565b60026015836040516109029190613919565b9081526040519081900360200190205460ff16600581111561092657610926613773565b146109735760405162461bcd60e51b815260206004820152601960248201527f426574206163746976697479206973206e6f74206f70656e2e00000000000000604482015260640161071d565b600d543410156109c55760405162461bcd60e51b815260206004820152601d60248201527f416d6f756e742069732062656c6f7720656e7472616e6365206665652e000000604482015260640161071d565b346013836040516109d69190613919565b908152602001604051809103902060008360028111156109f8576109f8613773565b6002811115610a0957610a09613773565b81526020019081526020016000206000336001600160a01b03166001600160a01b031681526020019081526020016000206000828254610a499190613a1e565b90915550610a5a90508282336117d2565b6001601283604051610a6c9190613919565b90815260200160405180910390206000836002811115610a8e57610a8e613773565b6002811115610a9f57610a9f613773565b815260208082019290925260409081016000908120338083529352819020805460ff19169315159390931790925590517f1a48cf6315f5f44cf8ac3a5105296caf8a73f64b40f9a6b7cbf8ba65ca930fd490610b0090859034908690613a36565b60405180910390a25050565b60008111610b5c5760405162461bcd60e51b815260206004820152601a60248201527f416d6f756e742073686f756c6420657863656564207a65726f2e000000000000604482015260640161071d565b610b65836114c3565b6002601584604051610b779190613919565b9081526040519081900360200190205460ff166005811115610b9b57610b9b613773565b14610be85760405162461bcd60e51b815260206004820152601d60248201527f46697874757265206973206e6f7420696e204f70656e2073746174652e000000604482015260640161071d565b610bf483838333611933565b505050565b600c8160038110610c0957600080fd5b60209182820401919006915054906101000a900460ff1681565b6003601582604051610c359190613919565b9081526040519081900360200190205460ff166005811115610c5957610c59613773565b14610ca65760405162461bcd60e51b815260206004820152601b60248201527f426574207374617465206d757374206265204157414954494e472e0000000000604482015260640161071d565b610cb1816004611401565b61073a81611c48565b60008281526005602052604090205482906001600160a01b03163314610d335760405162461bcd60e51b815260206004820152602860248201527f536f75726365206d75737420626520746865206f7261636c65206f6620746865604482015267081c995c5d595cdd60c21b606482015260840161071d565b60008181526005602052604080822080546001600160a01b03191690555182917f7cc135e0cebb02c3480ae5d74d377283180a2601f8f644edf7987b009316c63a91a26007546001600160a01b03163314610dd05760405162461bcd60e51b815260206004820181905260248201527f4f6e6c7920436861696e6c696e6b436c69656e742063616e2066756c66696c6c604482015260640161071d565b610bf48383611ca8565b6006546001600160a01b03163314610e345760405162461bcd60e51b815260206004820152601c60248201527f4f6e6c79206f776e65722063616e207769746864726177204c494e4b00000000604482015260640161071d565b6000610e486002546001600160a01b031690565b6040517f70a082310000000000000000000000000000000000000000000000000000000081523060048201529091506001600160a01b0382169063a9059cbb90339083906370a0823190602401602060405180830381865afa158015610eb2573d6000803e3d6000fd5b505050506040513d601f19601f82011682018060405250810190610ed69190613a5e565b6040516001600160e01b031960e085901b1681526001600160a01b03909216600483015260248201526044016020604051808303816000875af1158015610f21573d6000803e3d6000fd5b505050506040513d601f19601f82011682018060405250810190610f459190613a77565b61073a5760405162461bcd60e51b815260206004820152601260248201527f556e61626c6520746f207472616e736665720000000000000000000000000000604482015260640161071d565b6000610f9c826107c9565b60008181526017602090815260409091208451929350610fc092909185019061341b565b50807f45d732f7bcf8bc3eb58d8fd2fe72f5d05aa36dadc20e6c9989abd2a741d81cac83604051610b0091906138dc565b610ff961349f565b60405180606001604052806015856040516110149190613919565b9081526040519081900360200190205460ff16600581111561103857611038613773565b81526020016040518060600160405280611053876000611dcc565b8152602001611063876001611dcc565b8152602001611073876002611dcc565b905281526020016110848585611faf565b905290505b92915050565b6008805461109c90613935565b80601f01602080910402602001604051908101604052809291908181526020018280546110c890613935565b80156111155780601f106110ea57610100808354040283529160200191611115565b820191906000526020600020905b8154815290600101906020018083116110f857829003601f168201915b505050505081565b6017602052600090815260409020805461109c90613935565b825160208185018101805160108252928201828701209290525260008281526040902080548290811061116857600080fd5b6000918252602090912001546001600160a01b0316925083915050565b60008061119c60095430638a71bfa860e01b6116eb565b90506111d16040518060400160405280600381526020016219d95d60ea1b81525060088560405160200161081592919061396a565b610893604051806040016040528060048152602001630e0c2e8d60e31b8152506040518060400160405280600881526020017f302c726573756c740000000000000000000000000000000000000000000000008152508361177c9092919063ffffffff16565b60008281526005602052604090205482906001600160a01b031633146112b05760405162461bcd60e51b815260206004820152602860248201527f536f75726365206d75737420626520746865206f7261636c65206f6620746865604482015267081c995c5d595cdd60c21b606482015260840161071d565b60008181526005602052604080822080546001600160a01b03191690555182917f7cc135e0cebb02c3480ae5d74d377283180a2601f8f644edf7987b009316c63a91a26007546001600160a01b0316331461134d5760405162461bcd60e51b815260206004820181905260248201527f4f6e6c7920436861696e6c696e6b436c69656e742063616e2066756c66696c6c604482015260640161071d565b610bf48383612095565b60006015826040516113699190613919565b9081526040519081900360200190205460ff16600581111561138d5761138d613773565b14156107c05760405162461bcd60e51b815260206004820152601c60248201527f42657420737461746520697320616c726561647920434c4f5345442e00000000604482015260640161071d565b6018602052600090815260409020805461109c90613935565b600b805461109c90613935565b806015836040516114129190613919565b908152604051908190036020019020805460ff1916600183600581111561143b5761143b613773565b02179055507fe10ba6722d7a7a91bf343a0f8e5b026910dbc4a2ebca276930dff31703c59a708282604051611471929190613a99565b60405180910390a1600281600581111561148d5761148d613773565b14156114a05761149c8261217b565b5050565b60008160058111156114b4576114b4613773565b141561149c5761149c826121cb565b60006016826040516114d59190613919565b908152602001604051809103902054905080600014156114fa5761149c826000611401565b600160158360405161150c9190613919565b9081526040519081900360200190205460ff16600581111561153057611530613773565b14801561155d5750600f546115459082613abb565b42118061155d5750600e5461155a9082613abb565b42105b1561156d5761149c826000611401565b600260158360405161157f9190613919565b9081526040519081900360200190205460ff1660058111156115a3576115a3613773565b14806115e2575060036015836040516115bc9190613919565b9081526040519081900360200190205460ff1660058111156115e0576115e0613773565b145b80156115f95750600e546115f69082613abb565b42105b156116095761149c826000611401565b600160158360405161161b9190613919565b9081526040519081900360200190205460ff16600581111561163f5761163f613773565b1480156116585750600f546116549082613abb565b4211155b80156116705750600e5461166c9082613abb565b4210155b156116805761149c826002611401565b60026015836040516116929190613919565b9081526040519081900360200190205460ff1660058111156116b6576116b6613773565b1480156116ce5750600f546116cb9082613abb565b42115b80156116db5750600f5415155b1561149c5761149c826003611401565b6117296040805160a0810182526000808252602080830182905282840182905260608084018390528451808601909552845283015290608082015290565b6117676040805160a0810182526000808252602080830182905282840182905260608084018390528451808601909552845283015290608082015290565b6117738186868661221b565b95945050505050565b608083015161178b9083612297565b6080830151610bf49082612297565b60808301516117a99083612297565b6080830151610bf490826122ae565b6003546000906108e0906001600160a01b0316848461230e565b6117dd8383836123cf565b610bf4576010836040516117f19190613919565b9081526020016040518091039020600083600281111561181357611813613773565b600281111561182457611824613773565b8152602001908152602001600020805490506011846040516118469190613919565b9081526020016040518091039020600084600281111561186857611868613773565b600281111561187957611879613773565b81526020019081526020016000206000836001600160a01b03166001600160a01b03168152602001908152602001600020819055506010836040516118be9190613919565b908152602001604051809103902060008360028111156118e0576118e0613773565b60028111156118f1576118f1613773565b8152602080820192909252604001600090812080546001810182559082529190200180546001600160a01b0383166001600160a01b0319909116179055505050565b60006013856040516119459190613919565b9081526020016040518091039020600085600281111561196757611967613773565b600281111561197857611978613773565b81526020019081526020016000206000836001600160a01b03166001600160a01b03168152602001908152602001600020549050600081116119fc5760405162461bcd60e51b815260206004820181905260248201527f4e6f207374616b65206f6e207468697320616464726573732d726573756c742e604482015260640161071d565b80831115611a4c5760405162461bcd60e51b815260206004820152601660248201527f43757272656e74207374616b6520746f6f206c6f772e00000000000000000000604482015260640161071d565b611a568382613abb565b601386604051611a669190613919565b90815260200160405180910390206000866002811115611a8857611a88613773565b6002811115611a9957611a99613773565b81526020019081526020016000206000846001600160a01b03166001600160a01b03168152602001908152602001600020819055506000601386604051611ae09190613919565b90815260200160405180910390206000866002811115611b0257611b02613773565b6002811115611b1357611b13613773565b81526020019081526020016000206000846001600160a01b03166001600160a01b031681526020019081526020016000205411611bc5576000601286604051611b5c9190613919565b90815260200160405180910390206000866002811115611b7e57611b7e613773565b6002811115611b8f57611b8f613773565b8152602080820192909252604090810160009081206001600160a01b03871682529092529020805460ff19169115159190911790555b6040516001600160a01b0383169084156108fc029085906000818181858888f19350505050158015611bfb573d6000803e3d6000fd5b50816001600160a01b03167f0f3b118062ef97715cdb7fc34e6b3bc6bf1c6ddbbbbc4e8d6f13eff984080d08868587604051611c3993929190613a36565b60405180910390a25050505050565b6000611c5382611185565b60008181526018602090815260409091208451929350611c7792909185019061341b565b50807f203eeb39bf08702855bb5830b3ec49ea10fb51bde91904739f7c0c3ab41776d583604051610b0091906138dc565b60008281526018602052604081208054611cc190613935565b80601f0160208091040260200160405190810160405280929190818152602001828054611ced90613935565b8015611d3a5780601f10611d0f57610100808354040283529160200191611d3a565b820191906000526020600020905b815481529060010190602001808311611d1d57829003601f168201915b50505050509050827f991c3e65c24cac8eb9898540ce857bbd06f702f19ac9ee6562bd97b96b0d898c8284604051611d73929190613ad2565b60405180910390a26004601582604051611d8d9190613919565b9081526040519081900360200190205460ff166005811115611db157611db1613773565b1415610bf457611dc18183612474565b610bf4816005611401565b60008060005b601085604051611de29190613919565b90815260200160405180910390206000856002811115611e0457611e04613773565b6002811115611e1557611e15613773565b8152602081019190915260400160002054811015611fa7576000601086604051611e3f9190613919565b90815260200160405180910390206000866002811115611e6157611e61613773565b6002811115611e7257611e72613773565b81526020019081526020016000208281548110611e9157611e91613af4565b6000918252602090912001546040516001600160a01b039091169150601290611ebb908890613919565b90815260200160405180910390206000866002811115611edd57611edd613773565b6002811115611eee57611eee613773565b8152602080820192909252604090810160009081206001600160a01b038516825290925290205460ff1615611f9457601386604051611f2d9190613919565b90815260200160405180910390206000866002811115611f4f57611f4f613773565b6002811115611f6057611f60613773565b8152602080820192909252604090810160009081206001600160a01b0385168252909252902054611f919084613a1e565b92505b5080611f9f81613b0a565b915050611dd2565b509392505050565b611fb76134cc565b6040518060600160405280601385604051611fd29190613919565b908152604080516020928190038301902060008080529083528181206001600160a01b0388168252835281902054835251910190601390612014908790613919565b9081526040805160209281900383019020600160009081529083528181206001600160a01b0388168252835281902054835251910190601390612058908790613919565b9081526040805160209281900383019020600260009081529083528181206001600160a01b03979097168152959091529093205490925250919050565b600082815260176020526040812080546120ae90613935565b80601f01602080910402602001604051908101604052809291908181526020018280546120da90613935565b80156121275780601f106120fc57610100808354040283529160200191612127565b820191906000526020600020905b81548152906001019060200180831161210a57829003601f168201915b50505050509050827f0a19aa077773e15e05c85beefc64244b7b27068fccb13becb7bf450ff41fa89c8284604051612160929190613ad2565b60405180910390a26121728183612514565b610bf4816114c3565b60005b600381101561149c576121b982600c836003811061219e5761219e613af4565b602081049091015460ff601f9092166101000a900416612599565b806121c381613b0a565b91505061217e565b60005b600381101561149c5761220982600c83600381106121ee576121ee613af4565b602081049091015460ff601f9092166101000a900416612605565b8061221381613b0a565b9150506121ce565b6122596040805160a0810182526000808252602080830182905282840182905260608084018390528451808601909552845283015290608082015290565b61226985608001516101006127ed565b50508284526001600160a01b03821660208501526001600160e01b031981166040850152835b949350505050565b6122a48260038351612852565b610bf48282612967565b67ffffffffffffffff198112156122c95761149c828261298e565b67ffffffffffffffff8113156122e35761149c82826129d0565b600081126122f75761149c82600083612852565b61149c82600161230984600019613b25565b612852565b60045460009061231f816001613a1e565b600455835160408086015160808701515191516000937f4042994600000000000000000000000000000000000000000000000000000000936123709386938493923092918a91600191602401613b99565b60408051601f198184030181529190526020810180517bffffffffffffffffffffffffffffffffffffffffffffffffffffffff166001600160e01b03199093169290921790915290506123c5868386846129f3565b9695505050505050565b60006001600160a01b0382161580159061245d575060006011856040516123f69190613919565b9081526020016040518091039020600085600281111561241857612418613773565b600281111561242957612429613773565b81526020019081526020016000206000846001600160a01b03166001600160a01b0316815260200190815260200160002054115b1561246a575060016108e0565b5060009392505050565b60006124808383612b84565b90506060818160008151811061249857612498613af4565b602002602001019060028111156124b1576124b1613773565b908160028111156124c4576124c4613773565b90525060006124d283612c37565b905060006124e08684612d4d565b905060006124ee8784612d4d565b905060006124fc8284613a1e565b905061250a88878584612d9d565b5050505050505050565b6016826040516125249190613919565b908152602001604051809103902054811461149c578060168360405161254a9190613919565b9081526020016040518091039020819055507f20af5e7c127dd84267ef67d2a1fa455b47bc60840459b4db987929e37daf07a3828260405161258d929190613ad2565b60405180910390a15050565b604080516020810182526000815290516010906125b7908590613919565b908152602001604051809103902060008360028111156125d9576125d9613773565b60028111156125ea576125ea613773565b81526020810191909152604001600020610bf49160016134ea565b60005b6010836040516126189190613919565b9081526020016040518091039020600083600281111561263a5761263a613773565b600281111561264b5761264b613773565b8152602081019190915260400160002054811015610bf45760006010846040516126759190613919565b9081526020016040518091039020600084600281111561269757612697613773565b60028111156126a8576126a8613773565b815260200190815260200160002082815481106126c7576126c7613af4565b6000918252602090912001546040516001600160a01b0390911691506012906126f1908690613919565b9081526020016040518091039020600084600281111561271357612713613773565b600281111561272457612724613773565b8152602080820192909252604090810160009081206001600160a01b038516825290925290205460ff16156127da5760006013856040516127659190613919565b9081526020016040518091039020600085600281111561278757612787613773565b600281111561279857612798613773565b81526020019081526020016000206000836001600160a01b03166001600160a01b031681526020019081526020016000205490506127d885858385611933565b505b50806127e581613b0a565b915050612608565b60408051808201909152606081526000602082015261280d602083613c13565b156128355761281d602083613c13565b612828906020613abb565b6128329083613a1e565b91505b506020828101829052604080518085526000815290920101905290565b60178167ffffffffffffffff161161287d576128778360e0600585901b1683176131ce565b50505050565b60ff8167ffffffffffffffff16116128bb576128a4836018611fe0600586901b16176131ce565b506128778367ffffffffffffffff831660016131f3565b61ffff8167ffffffffffffffff16116128fa576128e3836019611fe0600586901b16176131ce565b506128778367ffffffffffffffff831660026131f3565b63ffffffff8167ffffffffffffffff161161293b5761292483601a611fe0600586901b16176131ce565b506128778367ffffffffffffffff831660046131f3565b61295083601b611fe0600586901b16176131ce565b506128778367ffffffffffffffff831660086131f3565b6040805180820190915260608152600060208201526108e083846000015151848551613219565b6129998260c36131ce565b5061149c826129aa83600019613b25565b6040516020016129bc91815260200190565b604051602081830303815290604052613303565b6129db8260c26131ce565b5061149c82826040516020016129bc91815260200190565b6040516bffffffffffffffffffffffff193060601b1660208201526034810184905260009060540160408051808303601f1901815282825280516020918201206000818152600590925291812080546001600160a01b0319166001600160a01b038a1617905590925082917fb5e6e01e79f91267dc17b4e6314d5d4d03593d2ceee0fbb452b750bd70ea5af99190a26002546040517f4000aea00000000000000000000000000000000000000000000000000000000081526001600160a01b0390911690634000aea090612acf90889087908790600401613c27565b6020604051808303816000875af1158015612aee573d6000803e3d6000fd5b505050506040513d601f19601f82011682018060405250810190612b129190613a77565b61228f5760405162461bcd60e51b815260206004820152602360248201527f756e61626c6520746f207472616e73666572416e6443616c6c20746f206f726160448201527f636c650000000000000000000000000000000000000000000000000000000000606482015260840161071d565b600081612b9357506000611089565b6001821415612ba457506001611089565b6002821415612bb557506002611089565b612bc0836003611401565b600083604051602001612bd39190613c4f565b60405160208183030381529060405290507f2a2c16a3ce1dea0db612b14a8fdc9a8d316acc87914b4d66440d119b41e8615f8482604051612c15929190613ce1565b60405180910390a18060405162461bcd60e51b815260040161071d91906138dc565b604080516002808252606080830184529260009291906020830190803683370190505090506000805b6003811015612d4457846002811115612c7b57612c7b613773565b600c8260038110612c8e57612c8e613af4565b602081049091015460ff601f9092166101000a9004166002811115612cb557612cb5613773565b14612d3257600c8160038110612ccd57612ccd613af4565b602091828204019190069054906101000a900460ff16838381518110612cf557612cf5613af4565b60200260200101906002811115612d0e57612d0e613773565b90816002811115612d2157612d21613773565b905250612d2f600183613a1e565b91505b80612d3c81613b0a565b915050612c60565b50909392505050565b60008060005b8351811015611fa757612d7f85858381518110612d7257612d72613af4565b6020026020010151611dcc565b612d899083613a1e565b915080612d9581613b0a565b915050612d53565b6004601585604051612daf9190613919565b9081526040519081900360200190205460ff166005811115612dd357612dd3613773565b14612e455760405162461bcd60e51b8152602060048201526024808201527f4669787475726520626574207374617465206973206e6f742046554c46494c4c60448201527f494e472e00000000000000000000000000000000000000000000000000000000606482015260840161071d565b60005b601085604051612e589190613919565b90815260200160405180910390206000856002811115612e7a57612e7a613773565b6002811115612e8b57612e8b613773565b81526020810191909152604001600020548110156131c7576000601086604051612eb59190613919565b90815260200160405180910390206000866002811115612ed757612ed7613773565b6002811115612ee857612ee8613773565b81526020019081526020016000208281548110612f0757612f07613af4565b6000918252602090912001546040516001600160a01b039091169150601290612f31908890613919565b90815260200160405180910390206000866002811115612f5357612f53613773565b6002811115612f6457612f64613773565b8152602080820192909252604090810160009081206001600160a01b038516825290925290205460ff16156131b4576000601387604051612fa59190613919565b90815260200160405180910390206000876002811115612fc757612fc7613773565b6002811115612fd857612fd8613773565b8152602080820192909252604090810160009081206001600160a01b0386168252909252812054915061300b8686613d06565b6130159083613d1a565b9050806014896040516130289190613919565b9081526040805191829003602090810183206001600160a01b0388166000908152915290812092909255601390613060908b90613919565b9081526020016040518091039020600089600281111561308257613082613773565b600281111561309357613093613773565b81526020019081526020016000206000856001600160a01b03166001600160a01b031681526020019081526020016000208190555060006012896040516130da9190613919565b908152602001604051809103902060008960028111156130fc576130fc613773565b600281111561310d5761310d613773565b8152602080820192909252604090810160009081206001600160a01b0388168083529352818120805460ff1916941515949094179093555190916108fc841502918491818181858888f1935050505015801561316d573d6000803e3d6000fd5b50826001600160a01b03167fc0acd5bc47ab9bd28274b4de553779f718ae53f42f84fe011e7eed61cda99cbd89836040516131a9929190613ad2565b60405180910390a250505b50806131bf81613b0a565b915050612e48565b5050505050565b6040805180820190915260608152600060208201526108e08384600001515184613310565b60408051808201909152606081526000602082015261228f84856000015151858561336c565b604080518082019091526060815260006020820152825182111561323c57600080fd5b602085015161324b8386613a1e565b111561327e5761327e8561326e876020015187866132699190613a1e565b6133ed565b613279906002613d1a565b613404565b60008086518051876020830101935080888701111561329d5787860182525b505050602084015b602084106132dd57805182526132bc602083613a1e565b91506132c9602082613a1e565b90506132d6602085613abb565b93506132a5565b51815160001960208690036101000a019081169019919091161790525083949350505050565b6122a48260028351612852565b604080518082019091526060815260006020820152836020015183106133455761334584856020015160026132799190613d1a565b835180516020858301018481535080851415613362576001810182525b5093949350505050565b60408051808201909152606081526000602082015260208501516133908584613a1e565b11156133a4576133a48561326e8685613a1e565b600060016133b484610100613e1d565b6133be9190613abb565b90508551838682010185831982511617815250805184870111156133e25783860181525b509495945050505050565b6000818311156133fe575081611089565b50919050565b815161341083836127ed565b506128778382612967565b82805461342790613935565b90600052602060002090601f016020900481019282613449576000855561348f565b82601f1061346257805160ff191683800117855561348f565b8280016001018555821561348f579182015b8281111561348f578251825591602001919060010190613474565b5061349b92915061353f565b5090565b604080516060810190915280600081526020016134ba6134cc565b81526020016134c76134cc565b905290565b60405180606001604052806003906020820280368337509192915050565b82805482825590600052602060002090810192821561348f579160200282015b8281111561348f57825182546001600160a01b0319166001600160a01b0390911617825560209092019160019091019061350a565b5b8082111561349b5760008155600101613540565b634e487b7160e01b600052604160045260246000fd5b600082601f83011261357b57600080fd5b813567ffffffffffffffff8082111561359657613596613554565b604051601f8301601f19908116603f011681019082821181831017156135be576135be613554565b816040528381528660208588010111156135d757600080fd5b836020870160208301376000602085830101528094505050505092915050565b60006020828403121561360957600080fd5b813567ffffffffffffffff81111561362057600080fd5b61228f8482850161356a565b80356003811061363b57600080fd5b919050565b6000806040838503121561365357600080fd5b823567ffffffffffffffff81111561366a57600080fd5b6136768582860161356a565b9250506136856020840161362c565b90509250929050565b6000806000606084860312156136a357600080fd5b833567ffffffffffffffff8111156136ba57600080fd5b6136c68682870161356a565b9350506136d56020850161362c565b9150604084013590509250925092565b80356001600160a01b038116811461363b57600080fd5b60008060006060848603121561371157600080fd5b833567ffffffffffffffff81111561372857600080fd5b6137348682870161356a565b9350506137436020850161362c565b9150613751604085016136e5565b90509250925092565b60006020828403121561376c57600080fd5b5035919050565b634e487b7160e01b600052602160045260246000fd5b6003811061379957613799613773565b9052565b602081016110898284613789565b600080604083850312156137be57600080fd5b50508035926020909101359150565b600080604083850312156137e057600080fd5b823567ffffffffffffffff8111156137f757600080fd5b6138038582860161356a565b925050613685602084016136e5565b6006811061379957613799613773565b8060005b6003811015612877578151845260209384019390910190600101613826565b600060e082019050613858828451613812565b602083015161386a6020840182613822565b50604083015161387d6080840182613822565b5092915050565b60005b8381101561389f578181015183820152602001613887565b838111156128775750506000910152565b600081518084526138c8816020860160208601613884565b601f01601f19169290920160200192915050565b6020815260006108e060208301846138b0565b602081016110898284613812565b6000815161390f818560208601613884565b9290920192915050565b6000825161392b818460208701613884565b9190910192915050565b600181811c9082168061394957607f821691505b602082108114156133fe57634e487b7160e01b600052602260045260246000fd5b600080845481600182811c91508083168061398657607f831692505b60208084108214156139a657634e487b7160e01b86526022600452602486fd5b8180156139ba57600181146139cb576139f8565b60ff198616895284890196506139f8565b60008b81526020902060005b868110156139f05781548b8201529085019083016139d7565b505084890196505b50505050505061177381856138fd565b634e487b7160e01b600052601160045260246000fd5b60008219821115613a3157613a31613a08565b500190565b606081526000613a4960608301866138b0565b905083602083015261228f6040830184613789565b600060208284031215613a7057600080fd5b5051919050565b600060208284031215613a8957600080fd5b815180151581146108e057600080fd5b604081526000613aac60408301856138b0565b90506108e06020830184613812565b600082821015613acd57613acd613a08565b500390565b604081526000613ae560408301856138b0565b90508260208301529392505050565b634e487b7160e01b600052603260045260246000fd5b6000600019821415613b1e57613b1e613a08565b5060010190565b6000808312837f800000000000000000000000000000000000000000000000000000000000000001831281151615613b5f57613b5f613a08565b837f7fffffffffffffffffffffffffffffffffffffffffffffffffffffffffffffff018313811615613b9357613b93613a08565b50500390565b60006101006001600160a01b03808c1684528a60208501528960408501528089166060850152506001600160e01b0319871660808401528560a08401528460c08401528060e0840152613bee818401856138b0565b9b9a5050505050505050505050565b634e487b7160e01b600052601260045260246000fd5b600082613c2257613c22613bfd565b500690565b6001600160a01b038416815282602082015260606040820152600061177360608301846138b0565b7f4572726f72206f6e206669787475726520000000000000000000000000000000815260008251613c87816011850160208701613884565b7f3a20556e6b6e6f776e206669787475726520726573756c742066726f6d20415060119390910192830152507f49000000000000000000000000000000000000000000000000000000000000006031820152603201919050565b604081526000613cf460408301856138b0565b828103602084015261177381856138b0565b600082613d1557613d15613bfd565b500490565b6000816000190483118215151615613d3457613d34613a08565b500290565b600181815b80851115613d74578160001904821115613d5a57613d5a613a08565b80851615613d6757918102915b93841c9390800290613d3e565b509250929050565b600082613d8b57506001611089565b81613d9857506000611089565b8160018114613dae5760028114613db857613dd4565b6001915050611089565b60ff841115613dc957613dc9613a08565b50506001821b611089565b5060208310610133831016604e8410600b8410161715613df7575081810a611089565b613e018383613d39565b8060001904821115613e1557613e15613a08565b029392505050565b60006108e08383613d7c56fea26469706673582212201b06bc8d9bd160382ed5349525c21c65001b8d6546064d564b57d07906e0650864736f6c634300080c0033",
  "devdoc": {
    "kind": "dev",
    "methods": {},
    "version": 1
  },
  "userdoc": {
    "kind": "user",
    "methods": {
      "requestFixtureKickoffTimeParameter(string)": {
        "notice": "Request fixture kickoff time from the oracle in a single transaction"
      },
      "requestFixtureResultParameter(string)": {
        "notice": "Request fixture result from the oracle in a single transaction"
      },
      "withdrawLink()": {
        "notice": "Allow withdraw of Link tokens from the contract"
      }
    },
    "version": 1
  },
  "storageLayout": {
    "storage": [
      {
        "astId": 319,
        "contract": "contracts/SportsBetting.sol:SportsBetting",
        "label": "s_ens",
        "offset": 0,
        "slot": "0",
        "type": "t_contract(ENSInterface)974"
      },
      {
        "astId": 321,
        "contract": "contracts/SportsBetting.sol:SportsBetting",
        "label": "s_ensNode",
        "offset": 0,
        "slot": "1",
        "type": "t_bytes32"
      },
      {
        "astId": 324,
        "contract": "contracts/SportsBetting.sol:SportsBetting",
        "label": "s_link",
        "offset": 0,
        "slot": "2",
        "type": "t_contract(LinkTokenInterface)1069"
      },
      {
        "astId": 327,
        "contract": "contracts/SportsBetting.sol:SportsBetting",
        "label": "s_oracle",
        "offset": 0,
        "slot": "3",
        "type": "t_contract(OperatorInterface)1149"
      },
      {
        "astId": 330,
        "contract": "contracts/SportsBetting.sol:SportsBetting",
        "label": "s_requestCount",
        "offset": 0,
        "slot": "4",
        "type": "t_uint256"
      },
      {
        "astId": 334,
        "contract": "contracts/SportsBetting.sol:SportsBetting",
        "label": "s_pendingRequests",
        "offset": 0,
        "slot": "5",
        "type": "t_mapping(t_bytes32,t_address)"
      },
      {
        "astId": 3866,
        "contract": "contracts/SportsBetting.sol:SportsBetting",
        "label": "owner",
        "offset": 0,
        "slot": "6",
        "type": "t_address_payable"
      },
      {
        "astId": 3868,
        "contract": "contracts/SportsBetting.sol:SportsBetting",
        "label": "chainlink",
        "offset": 0,
        "slot": "7",
        "type": "t_address"
      },
      {
        "astId": 3870,
        "contract": "contracts/SportsBetting.sol:SportsBetting",
        "label": "sportsOracleURI",
        "offset": 0,
        "slot": "8",
        "type": "t_string_storage"
      },
      {
        "astId": 3872,
        "contract": "contracts/SportsBetting.sol:SportsBetting",
        "label": "jobId",
        "offset": 0,
        "slot": "9",
        "type": "t_bytes32"
      },
      {
        "astId": 3874,
        "contract": "contracts/SportsBetting.sol:SportsBetting",
        "label": "fee",
        "offset": 0,
        "slot": "10",
        "type": "t_uint256"
      },
      {
        "astId": 3876,
        "contract": "contracts/SportsBetting.sol:SportsBetting",
        "label": "fixtureResult",
        "offset": 0,
        "slot": "11",
        "type": "t_string_storage"
      },
      {
        "astId": 2394,
        "contract": "contracts/SportsBetting.sol:SportsBetting",
        "label": "betTypes",
        "offset": 0,
        "slot": "12",
        "type": "t_array(t_enum(BetType)2321)3_storage"
      },
      {
        "astId": 2399,
        "contract": "contracts/SportsBetting.sol:SportsBetting",
        "label": "entranceFee",
        "offset": 0,
        "slot": "13",
        "type": "t_uint256"
      },
      {
        "astId": 2408,
        "contract": "contracts/SportsBetting.sol:SportsBetting",
        "label": "betAdvanceTime",
        "offset": 0,
        "slot": "14",
        "type": "t_uint256"
      },
      {
        "astId": 2413,
        "contract": "contracts/SportsBetting.sol:SportsBetting",
        "label": "betCutOffTime",
        "offset": 0,
        "slot": "15",
        "type": "t_uint256"
      },
      {
        "astId": 2421,
        "contract": "contracts/SportsBetting.sol:SportsBetting",
        "label": "historicalBetters",
        "offset": 0,
        "slot": "16",
        "type": "t_mapping(t_string_memory_ptr,t_mapping(t_enum(BetType)2321,t_array(t_address)dyn_storage))"
      },
      {
        "astId": 2430,
        "contract": "contracts/SportsBetting.sol:SportsBetting",
        "label": "historicalBettersIndex",
        "offset": 0,
        "slot": "17",
        "type": "t_mapping(t_string_memory_ptr,t_mapping(t_enum(BetType)2321,t_mapping(t_address,t_uint256)))"
      },
      {
        "astId": 2439,
        "contract": "contracts/SportsBetting.sol:SportsBetting",
        "label": "activeBetters",
        "offset": 0,
        "slot": "18",
        "type": "t_mapping(t_string_memory_ptr,t_mapping(t_enum(BetType)2321,t_mapping(t_address,t_bool)))"
      },
      {
        "astId": 2448,
        "contract": "contracts/SportsBetting.sol:SportsBetting",
        "label": "amounts",
        "offset": 0,
        "slot": "19",
        "type": "t_mapping(t_string_memory_ptr,t_mapping(t_enum(BetType)2321,t_mapping(t_address,t_uint256)))"
      },
      {
        "astId": 2454,
        "contract": "contracts/SportsBetting.sol:SportsBetting",
        "label": "obligations",
        "offset": 0,
        "slot": "20",
        "type": "t_mapping(t_string_memory_ptr,t_mapping(t_address,t_uint256))"
      },
      {
        "astId": 2459,
        "contract": "contracts/SportsBetting.sol:SportsBetting",
        "label": "bettingState",
        "offset": 0,
        "slot": "21",
        "type": "t_mapping(t_string_memory_ptr,t_enum(BettingState)2328)"
      },
      {
        "astId": 2463,
        "contract": "contracts/SportsBetting.sol:SportsBetting",
        "label": "fixtureToKickoffTime",
        "offset": 0,
        "slot": "22",
        "type": "t_mapping(t_string_memory_ptr,t_uint256)"
      },
      {
        "astId": 2467,
        "contract": "contracts/SportsBetting.sol:SportsBetting",
        "label": "requestKickoffToFixture",
        "offset": 0,
        "slot": "23",
        "type": "t_mapping(t_bytes32,t_string_storage)"
      },
      {
        "astId": 2471,
        "contract": "contracts/SportsBetting.sol:SportsBetting",
        "label": "requestResultToFixture",
        "offset": 0,
        "slot": "24",
        "type": "t_mapping(t_bytes32,t_string_storage)"
      }
    ],
    "types": {
      "t_address": {
        "encoding": "inplace",
        "label": "address",
        "numberOfBytes": "20"
      },
      "t_address_payable": {
        "encoding": "inplace",
        "label": "address payable",
        "numberOfBytes": "20"
      },
      "t_array(t_address)dyn_storage": {
        "base": "t_address",
        "encoding": "dynamic_array",
        "label": "address[]",
        "numberOfBytes": "32"
      },
      "t_array(t_enum(BetType)2321)3_storage": {
        "base": "t_enum(BetType)2321",
        "encoding": "inplace",
        "label": "enum SportsBetting.BetType[3]",
        "numberOfBytes": "32"
      },
      "t_bool": {
        "encoding": "inplace",
        "label": "bool",
        "numberOfBytes": "1"
      },
      "t_bytes32": {
        "encoding": "inplace",
        "label": "bytes32",
        "numberOfBytes": "32"
      },
      "t_contract(ENSInterface)974": {
        "encoding": "inplace",
        "label": "contract ENSInterface",
        "numberOfBytes": "20"
      },
      "t_contract(LinkTokenInterface)1069": {
        "encoding": "inplace",
        "label": "contract LinkTokenInterface",
        "numberOfBytes": "20"
      },
      "t_contract(OperatorInterface)1149": {
        "encoding": "inplace",
        "label": "contract OperatorInterface",
        "numberOfBytes": "20"
      },
      "t_enum(BetType)2321": {
        "encoding": "inplace",
        "label": "enum SportsBetting.BetType",
        "numberOfBytes": "1"
      },
      "t_enum(BettingState)2328": {
        "encoding": "inplace",
        "label": "enum SportsBetting.BettingState",
        "numberOfBytes": "1"
      },
      "t_mapping(t_address,t_bool)": {
        "encoding": "mapping",
        "key": "t_address",
        "label": "mapping(address => bool)",
        "numberOfBytes": "32",
        "value": "t_bool"
      },
      "t_mapping(t_address,t_uint256)": {
        "encoding": "mapping",
        "key": "t_address",
        "label": "mapping(address => uint256)",
        "numberOfBytes": "32",
        "value": "t_uint256"
      },
      "t_mapping(t_bytes32,t_address)": {
        "encoding": "mapping",
        "key": "t_bytes32",
        "label": "mapping(bytes32 => address)",
        "numberOfBytes": "32",
        "value": "t_address"
      },
      "t_mapping(t_bytes32,t_string_storage)": {
        "encoding": "mapping",
        "key": "t_bytes32",
        "label": "mapping(bytes32 => string)",
        "numberOfBytes": "32",
        "value": "t_string_storage"
      },
      "t_mapping(t_enum(BetType)2321,t_array(t_address)dyn_storage)": {
        "encoding": "mapping",
        "key": "t_enum(BetType)2321",
        "label": "mapping(enum SportsBetting.BetType => address[])",
        "numberOfBytes": "32",
        "value": "t_array(t_address)dyn_storage"
      },
      "t_mapping(t_enum(BetType)2321,t_mapping(t_address,t_bool))": {
        "encoding": "mapping",
        "key": "t_enum(BetType)2321",
        "label": "mapping(enum SportsBetting.BetType => mapping(address => bool))",
        "numberOfBytes": "32",
        "value": "t_mapping(t_address,t_bool)"
      },
      "t_mapping(t_enum(BetType)2321,t_mapping(t_address,t_uint256))": {
        "encoding": "mapping",
        "key": "t_enum(BetType)2321",
        "label": "mapping(enum SportsBetting.BetType => mapping(address => uint256))",
        "numberOfBytes": "32",
        "value": "t_mapping(t_address,t_uint256)"
      },
      "t_mapping(t_string_memory_ptr,t_enum(BettingState)2328)": {
        "encoding": "mapping",
        "key": "t_string_memory_ptr",
        "label": "mapping(string => enum SportsBetting.BettingState)",
        "numberOfBytes": "32",
        "value": "t_enum(BettingState)2328"
      },
      "t_mapping(t_string_memory_ptr,t_mapping(t_address,t_uint256))": {
        "encoding": "mapping",
        "key": "t_string_memory_ptr",
        "label": "mapping(string => mapping(address => uint256))",
        "numberOfBytes": "32",
        "value": "t_mapping(t_address,t_uint256)"
      },
      "t_mapping(t_string_memory_ptr,t_mapping(t_enum(BetType)2321,t_array(t_address)dyn_storage))": {
        "encoding": "mapping",
        "key": "t_string_memory_ptr",
        "label": "mapping(string => mapping(enum SportsBetting.BetType => address[]))",
        "numberOfBytes": "32",
        "value": "t_mapping(t_enum(BetType)2321,t_array(t_address)dyn_storage)"
      },
      "t_mapping(t_string_memory_ptr,t_mapping(t_enum(BetType)2321,t_mapping(t_address,t_bool)))": {
        "encoding": "mapping",
        "key": "t_string_memory_ptr",
        "label": "mapping(string => mapping(enum SportsBetting.BetType => mapping(address => bool)))",
        "numberOfBytes": "32",
        "value": "t_mapping(t_enum(BetType)2321,t_mapping(t_address,t_bool))"
      },
      "t_mapping(t_string_memory_ptr,t_mapping(t_enum(BetType)2321,t_mapping(t_address,t_uint256)))": {
        "encoding": "mapping",
        "key": "t_string_memory_ptr",
        "label": "mapping(string => mapping(enum SportsBetting.BetType => mapping(address => uint256)))",
        "numberOfBytes": "32",
        "value": "t_mapping(t_enum(BetType)2321,t_mapping(t_address,t_uint256))"
      },
      "t_mapping(t_string_memory_ptr,t_uint256)": {
        "encoding": "mapping",
        "key": "t_string_memory_ptr",
        "label": "mapping(string => uint256)",
        "numberOfBytes": "32",
        "value": "t_uint256"
      },
      "t_string_memory_ptr": {
        "encoding": "bytes",
        "label": "string",
        "numberOfBytes": "32"
      },
      "t_string_storage": {
        "encoding": "bytes",
        "label": "string",
        "numberOfBytes": "32"
      },
      "t_uint256": {
        "encoding": "inplace",
        "label": "uint256",
        "numberOfBytes": "32"
      }
    }
  }
}