{
  "address": "0x0b64f8Bb261261ea071CCE31f7f067B08Cc2cDBa",
  "abi": [
    {
      "inputs": [
        {
          "internalType": "string",
          "name": "_sportsOracleURI",
          "type": "string"
        },
        {
          "internalType": "address",
          "name": "_oracle",
          "type": "address"
        },
        {
          "internalType": "address",
          "name": "_link",
          "type": "address"
        },
        {
          "internalType": "bytes32",
          "name": "_jobId",
          "type": "bytes32"
        },
        {
          "internalType": "uint256",
          "name": "_fee",
          "type": "uint256"
        }
      ],
      "stateMutability": "nonpayable",
      "type": "constructor"
    },
    {
      "anonymous": false,
      "inputs": [
        {
          "indexed": true,
          "internalType": "address",
          "name": "better",
          "type": "address"
        },
        {
          "indexed": false,
          "internalType": "string",
          "name": "fixtureID",
          "type": "string"
        },
        {
          "indexed": false,
          "internalType": "uint256",
          "name": "amount",
          "type": "uint256"
        }
      ],
      "name": "BetPayout",
      "type": "event"
    },
    {
      "anonymous": false,
      "inputs": [
        {
          "indexed": false,
          "internalType": "string",
          "name": "fixtureID",
          "type": "string"
        },
        {
          "indexed": false,
          "internalType": "string",
          "name": "reason",
          "type": "string"
        }
      ],
      "name": "BetPayoutFulfillmentError",
      "type": "event"
    },
    {
      "anonymous": false,
      "inputs": [
        {
          "indexed": true,
          "internalType": "address",
          "name": "better",
          "type": "address"
        },
        {
          "indexed": false,
          "internalType": "string",
          "name": "fixtureID",
          "type": "string"
        },
        {
          "indexed": false,
          "internalType": "uint256",
          "name": "amount",
          "type": "uint256"
        },
        {
          "indexed": false,
          "internalType": "enum SportsBetting.BetType",
          "name": "betType",
          "type": "uint8"
        }
      ],
      "name": "BetStaked",
      "type": "event"
    },
    {
      "anonymous": false,
      "inputs": [
        {
          "indexed": true,
          "internalType": "address",
          "name": "better",
          "type": "address"
        },
        {
          "indexed": false,
          "internalType": "string",
          "name": "fixtureID",
          "type": "string"
        },
        {
          "indexed": false,
          "internalType": "uint256",
          "name": "amount",
          "type": "uint256"
        },
        {
          "indexed": false,
          "internalType": "enum SportsBetting.BetType",
          "name": "betType",
          "type": "uint8"
        }
      ],
      "name": "BetUnstaked",
      "type": "event"
    },
    {
      "anonymous": false,
      "inputs": [
        {
          "indexed": false,
          "internalType": "string",
          "name": "fixtureID",
          "type": "string"
        },
        {
          "indexed": false,
          "internalType": "enum SportsBetting.BettingState",
          "name": "state",
          "type": "uint8"
        }
      ],
      "name": "BettingStateChanged",
      "type": "event"
    },
    {
      "anonymous": false,
      "inputs": [
        {
          "indexed": true,
          "internalType": "bytes32",
          "name": "id",
          "type": "bytes32"
        }
      ],
      "name": "ChainlinkCancelled",
      "type": "event"
    },
    {
      "anonymous": false,
      "inputs": [
        {
          "indexed": true,
          "internalType": "bytes32",
          "name": "id",
          "type": "bytes32"
        }
      ],
      "name": "ChainlinkFulfilled",
      "type": "event"
    },
    {
      "anonymous": false,
      "inputs": [
        {
          "indexed": true,
          "internalType": "bytes32",
          "name": "id",
          "type": "bytes32"
        }
      ],
      "name": "ChainlinkRequested",
      "type": "event"
    },
    {
      "anonymous": false,
      "inputs": [
        {
          "indexed": false,
          "internalType": "string",
          "name": "fixtureID",
          "type": "string"
        },
        {
          "indexed": false,
          "internalType": "uint256",
          "name": "kickoffTime",
          "type": "uint256"
        }
      ],
      "name": "KickoffTimeUpdated",
      "type": "event"
    },
    {
      "anonymous": false,
      "inputs": [
        {
          "indexed": true,
          "internalType": "bytes32",
          "name": "requestId",
          "type": "bytes32"
        },
        {
          "indexed": false,
          "internalType": "string",
          "name": "fixtureID",
          "type": "string"
        },
        {
          "indexed": false,
          "internalType": "uint256",
          "name": "kickoff",
          "type": "uint256"
        }
      ],
      "name": "RequestFixtureKickoffFulfilled",
      "type": "event"
    },
    {
      "anonymous": false,
      "inputs": [
        {
          "indexed": true,
          "internalType": "bytes32",
          "name": "requestId",
          "type": "bytes32"
        },
        {
          "indexed": false,
          "internalType": "string",
          "name": "fixtureID",
          "type": "string"
        },
        {
          "indexed": false,
          "internalType": "uint256",
          "name": "result",
          "type": "uint256"
        }
      ],
      "name": "RequestFixtureResultFulfilled",
      "type": "event"
    },
    {
      "anonymous": false,
      "inputs": [
        {
          "indexed": true,
          "internalType": "bytes32",
          "name": "requestId",
          "type": "bytes32"
        },
        {
          "indexed": false,
          "internalType": "string",
          "name": "fixtureID",
          "type": "string"
        }
      ],
      "name": "RequestedFixtureKickoff",
      "type": "event"
    },
    {
      "anonymous": false,
      "inputs": [
        {
          "indexed": true,
          "internalType": "bytes32",
          "name": "requestId",
          "type": "bytes32"
        },
        {
          "indexed": false,
          "internalType": "string",
          "name": "fixtureID",
          "type": "string"
        }
      ],
      "name": "RequestedFixtureResult",
      "type": "event"
    },
    {
      "inputs": [
        {
          "internalType": "string",
          "name": "",
          "type": "string"
        },
        {
          "internalType": "enum SportsBetting.BetType",
          "name": "",
          "type": "uint8"
        },
        {
          "internalType": "address",
          "name": "",
          "type": "address"
        }
      ],
      "name": "activeBetters",
      "outputs": [
        {
          "internalType": "bool",
          "name": "",
          "type": "bool"
        }
      ],
      "stateMutability": "view",
      "type": "function"
    },
    {
      "inputs": [
        {
          "internalType": "string",
          "name": "",
          "type": "string"
        },
        {
          "internalType": "enum SportsBetting.BetType",
          "name": "",
          "type": "uint8"
        },
        {
          "internalType": "address",
          "name": "",
          "type": "address"
        }
      ],
      "name": "amounts",
      "outputs": [
        {
          "internalType": "uint256",
          "name": "",
          "type": "uint256"
        }
      ],
      "stateMutability": "view",
      "type": "function"
    },
    {
      "inputs": [
        {
          "internalType": "string",
          "name": "fixtureID",
          "type": "string"
        }
      ],
      "name": "awaitBetForFixture",
      "outputs": [],
      "stateMutability": "nonpayable",
      "type": "function"
    },
    {
      "inputs": [],
      "name": "betAdvanceTime",
      "outputs": [
        {
          "internalType": "uint256",
          "name": "",
          "type": "uint256"
        }
      ],
      "stateMutability": "view",
      "type": "function"
    },
    {
      "inputs": [],
      "name": "betCutOffTime",
      "outputs": [
        {
          "internalType": "uint256",
          "name": "",
          "type": "uint256"
        }
      ],
      "stateMutability": "view",
      "type": "function"
    },
    {
      "inputs": [
        {
          "internalType": "uint256",
          "name": "",
          "type": "uint256"
        }
      ],
      "name": "betTypes",
      "outputs": [
        {
          "internalType": "enum SportsBetting.BetType",
          "name": "",
          "type": "uint8"
        }
      ],
      "stateMutability": "view",
      "type": "function"
    },
    {
      "inputs": [
        {
          "internalType": "string",
          "name": "",
          "type": "string"
        }
      ],
      "name": "bettingState",
      "outputs": [
        {
          "internalType": "enum SportsBetting.BettingState",
          "name": "",
          "type": "uint8"
        }
      ],
      "stateMutability": "view",
      "type": "function"
    },
    {
      "inputs": [],
      "name": "chainlink",
      "outputs": [
        {
          "internalType": "address",
          "name": "",
          "type": "address"
        }
      ],
      "stateMutability": "view",
      "type": "function"
    },
    {
      "inputs": [
        {
          "internalType": "string",
          "name": "fixtureID",
          "type": "string"
        }
      ],
      "name": "closeBetForFixture",
      "outputs": [],
      "stateMutability": "nonpayable",
      "type": "function"
    },
    {
      "inputs": [],
      "name": "entranceFee",
      "outputs": [
        {
          "internalType": "uint256",
          "name": "",
          "type": "uint256"
        }
      ],
      "stateMutability": "view",
      "type": "function"
    },
    {
      "inputs": [],
      "name": "fixtureResult",
      "outputs": [
        {
          "internalType": "string",
          "name": "",
          "type": "string"
        }
      ],
      "stateMutability": "view",
      "type": "function"
    },
    {
      "inputs": [
        {
          "internalType": "string",
          "name": "",
          "type": "string"
        }
      ],
      "name": "fixtureToKickoffTime",
      "outputs": [
        {
          "internalType": "uint256",
          "name": "",
          "type": "uint256"
        }
      ],
      "stateMutability": "view",
      "type": "function"
    },
    {
      "inputs": [
        {
          "internalType": "string",
          "name": "fixtureID",
          "type": "string"
        }
      ],
      "name": "fulfillBetForFixture",
      "outputs": [],
      "stateMutability": "nonpayable",
      "type": "function"
    },
    {
      "inputs": [
        {
          "internalType": "string",
          "name": "fixtureID",
          "type": "string"
        },
        {
          "internalType": "address",
          "name": "user",
          "type": "address"
        }
      ],
      "name": "getEnrichedFixtureData",
      "outputs": [
        {
          "components": [
            {
              "internalType": "enum SportsBetting.BettingState",
              "name": "fixtureState",
              "type": "uint8"
            },
            {
              "internalType": "uint256[3]",
              "name": "total",
              "type": "uint256[3]"
            },
            {
              "internalType": "uint256[3]",
              "name": "user",
              "type": "uint256[3]"
            }
          ],
          "internalType": "struct SportsBetting.FixtureEnrichment",
          "name": "",
          "type": "tuple"
        }
      ],
      "stateMutability": "view",
      "type": "function"
    },
    {
      "inputs": [
        {
          "internalType": "string",
          "name": "",
          "type": "string"
        },
        {
          "internalType": "enum SportsBetting.BetType",
          "name": "",
          "type": "uint8"
        },
        {
          "internalType": "uint256",
          "name": "",
          "type": "uint256"
        }
      ],
      "name": "historicalBetters",
      "outputs": [
        {
          "internalType": "address",
          "name": "",
          "type": "address"
        }
      ],
      "stateMutability": "view",
      "type": "function"
    },
    {
      "inputs": [
        {
          "internalType": "string",
          "name": "",
          "type": "string"
        },
        {
          "internalType": "enum SportsBetting.BetType",
          "name": "",
          "type": "uint8"
        },
        {
          "internalType": "address",
          "name": "",
          "type": "address"
        }
      ],
      "name": "historicalBettersIndex",
      "outputs": [
        {
          "internalType": "uint256",
          "name": "",
          "type": "uint256"
        }
      ],
      "stateMutability": "view",
      "type": "function"
    },
    {
      "inputs": [
        {
          "internalType": "string",
          "name": "",
          "type": "string"
        },
        {
          "internalType": "address",
          "name": "",
          "type": "address"
        }
      ],
      "name": "obligations",
      "outputs": [
        {
          "internalType": "uint256",
          "name": "",
          "type": "uint256"
        }
      ],
      "stateMutability": "view",
      "type": "function"
    },
    {
      "inputs": [
        {
          "internalType": "string",
          "name": "fixtureID",
          "type": "string"
        }
      ],
      "name": "openBetForFixture",
      "outputs": [],
      "stateMutability": "nonpayable",
      "type": "function"
    },
    {
      "inputs": [],
      "name": "owner",
      "outputs": [
        {
          "internalType": "address payable",
          "name": "",
          "type": "address"
        }
      ],
      "stateMutability": "view",
      "type": "function"
    },
    {
      "inputs": [
        {
          "internalType": "bytes32",
          "name": "_requestId",
          "type": "bytes32"
        },
        {
          "internalType": "uint256",
          "name": "_ko",
          "type": "uint256"
        }
      ],
      "name": "rawFulfillFixtureKickoffTime",
      "outputs": [],
      "stateMutability": "nonpayable",
      "type": "function"
    },
    {
      "inputs": [
        {
          "internalType": "bytes32",
          "name": "_requestId",
          "type": "bytes32"
        },
        {
          "internalType": "uint256",
          "name": "_result",
          "type": "uint256"
        }
      ],
      "name": "rawFulfillFixtureResult",
      "outputs": [],
      "stateMutability": "nonpayable",
      "type": "function"
    },
    {
      "inputs": [
        {
          "internalType": "string",
          "name": "fixtureID",
          "type": "string"
        }
      ],
      "name": "requestFixtureKickoffTimeParameter",
      "outputs": [
        {
          "internalType": "bytes32",
          "name": "",
          "type": "bytes32"
        }
      ],
      "stateMutability": "nonpayable",
      "type": "function"
    },
    {
      "inputs": [
        {
          "internalType": "string",
          "name": "fixtureID",
          "type": "string"
        }
      ],
      "name": "requestFixtureResultParameter",
      "outputs": [
        {
          "internalType": "bytes32",
          "name": "",
          "type": "bytes32"
        }
      ],
      "stateMutability": "nonpayable",
      "type": "function"
    },
    {
      "inputs": [
        {
          "internalType": "bytes32",
          "name": "",
          "type": "bytes32"
        }
      ],
      "name": "requestKickoffToFixture",
      "outputs": [
        {
          "internalType": "string",
          "name": "",
          "type": "string"
        }
      ],
      "stateMutability": "view",
      "type": "function"
    },
    {
      "inputs": [
        {
          "internalType": "bytes32",
          "name": "",
          "type": "bytes32"
        }
      ],
      "name": "requestResultToFixture",
      "outputs": [
        {
          "internalType": "string",
          "name": "",
          "type": "string"
        }
      ],
      "stateMutability": "view",
      "type": "function"
    },
    {
      "inputs": [],
      "name": "sportsOracleURI",
      "outputs": [
        {
          "internalType": "string",
          "name": "",
          "type": "string"
        }
      ],
      "stateMutability": "view",
      "type": "function"
    },
    {
      "inputs": [
        {
          "internalType": "string",
          "name": "fixtureID",
          "type": "string"
        },
        {
          "internalType": "enum SportsBetting.BetType",
          "name": "betType",
          "type": "uint8"
        }
      ],
      "name": "stake",
      "outputs": [],
      "stateMutability": "payable",
      "type": "function"
    },
    {
      "inputs": [
        {
          "internalType": "string",
          "name": "fixtureID",
          "type": "string"
        },
        {
          "internalType": "enum SportsBetting.BetType",
          "name": "betType",
          "type": "uint8"
        },
        {
          "internalType": "uint256",
          "name": "amount",
          "type": "uint256"
        }
      ],
      "name": "unstake",
      "outputs": [],
      "stateMutability": "nonpayable",
      "type": "function"
    },
    {
      "inputs": [],
      "name": "withdrawLink",
      "outputs": [],
      "stateMutability": "nonpayable",
      "type": "function"
    }
  ],
  "transactionHash": "0x382252abd524a0126a114f11bcb316a8f192794b4630fadde0840fe79cd88ee4",
  "args": [
    "https://1vyuff64d9.execute-api.us-east-1.amazonaws.com/dev/premier-league/fixtures/",
    "0xcc79157eb46f5624204f47ab42b3906caa40eab7",
    "0x326C977E6efc84E512bB9C30f76E30c160eD06FB",
    "0x6361393833363663633733313439353762386330313263373266303561656562",
    "100000000000000000"
  ],
  "numDeployments": 15,
  "solcInputHash": "3d67b3b6d732ccbbb35118e7fe6ca19e",
  "bytecode": "0x60806040526001600455655af3107a4000600d5562093a80600e55611518600f553480156200002d57600080fd5b506040516200416d3803806200416d8339810160408190526200005091620001d6565b848484848484600890805190602001906200006d929190620000fd565b50600280546001600160a01b03199081166001600160a01b039586161790915560038054821695909416948517909355600780548416909417909355507f6361393833363663633733313439353762386330313263373266303561656562600955600a9190915560068054909116331790555050600c805462ffffff191662020100179055506200032992505050565b8280546200010b90620002ec565b90600052602060002090601f0160209004810192826200012f57600085556200017a565b82601f106200014a57805160ff19168380011785556200017a565b828001600101855582156200017a579182015b828111156200017a5782518255916020019190600101906200015d565b50620001889291506200018c565b5090565b5b808211156200018857600081556001016200018d565b634e487b7160e01b600052604160045260246000fd5b80516001600160a01b0381168114620001d157600080fd5b919050565b600080600080600060a08688031215620001ef57600080fd5b85516001600160401b03808211156200020757600080fd5b818801915088601f8301126200021c57600080fd5b815181811115620002315762000231620001a3565b604051601f8201601f19908116603f011681019083821181831017156200025c576200025c620001a3565b81604052828152602093508b848487010111156200027957600080fd5b600091505b828210156200029d57848201840151818301850152908301906200027e565b82821115620002af5760008484830101525b9850620002c1915050888201620001b9565b95505050620002d360408701620001b9565b6060870151608090970151959894975095949392505050565b600181811c908216806200030157607f821691505b602082108114156200032357634e487b7160e01b600052602260045260246000fd5b50919050565b613e3480620003396000396000f3fe6080604052600436106101c15760003560e01c80639c3feeb7116100f7578063cbef85c211610095578063ef40efde11610064578063ef40efde146105d6578063f46dccf0146105f6578063f7c60c0c14610616578063fbe913931461062b57600080fd5b8063cbef85c2146104fd578063d8654c081461055e578063e37685ec1461057e578063edb160701461059e57600080fd5b8063b148cdf1116100d1578063b148cdf114610453578063bae22f9514610475578063c40bc66b146104bd578063c8fe739c146104dd57600080fd5b80639c3feeb7146103b8578063aa066090146103d8578063abf949f81461042657600080fd5b80635ec421a7116101645780636e2a3a841161013e5780636e2a3a841461032b5780638a71bfa81461034b5780638da5cb5b1461036b5780638dc654a2146103a357600080fd5b80635ec421a71461029a57806362098ff7146102e8578063649677e11461031557600080fd5b80631d686ae4116101a05780631d686ae41461023157806340364d11146102515780634bfc91ee146102645780635e5243191461027a57600080fd5b8062e1a75b146101c657806301ec29c9146101e8578063106246d814610208575b600080fd5b3480156101d257600080fd5b506101e66101e13660046135cc565b610673565b005b3480156101f457600080fd5b506101e66102033660046135cc565b610712565b34801561021457600080fd5b5061021e600e5481565b6040519081526020015b60405180910390f35b34801561023d57600080fd5b5061021e61024c3660046135cc565b61079e565b6101e661025f366004613615565b6108bc565b34801561027057600080fd5b5061021e600f5481565b34801561028657600080fd5b506101e6610295366004613663565b610ae1565b3480156102a657600080fd5b5061021e6102b53660046136d1565b82516020818501810180516011825292820195820195909520919094528352600091825260408083209093528152205481565b3480156102f457600080fd5b5061030861030336600461372f565b610bce565b6040516102289190613772565b34801561032157600080fd5b5061021e600d5481565b34801561033757600080fd5b506101e66103463660046135cc565b610bf8565b34801561035757600080fd5b506101e6610366366004613780565b610c8f565b34801561037757600080fd5b5060065461038b906001600160a01b031681565b6040516001600160a01b039091168152602001610228565b3480156103af57600080fd5b506101e6610daf565b3480156103c457600080fd5b5060075461038b906001600160a01b031681565b3480156103e457600080fd5b5061021e6103f33660046136d1565b82516020818501810180516013825292820195820195909520919094528352600091825260408083209093528152205481565b34801561043257600080fd5b506104466104413660046137a2565b610f66565b604051610228919061381a565b34801561045f57600080fd5b50610468611004565b60405161022891906138b1565b34801561048157600080fd5b5061021e6104903660046137a2565b81516020818401810180516014825292820194820194909420919093529091526000908152604090205481565b3480156104c957600080fd5b506104686104d836600461372f565b611092565b3480156104e957600080fd5b5061038b6104f8366004613663565b6110ab565b34801561050957600080fd5b5061054e6105183660046136d1565b82516020818501810180516012825292820195820195909520919094528352600091825260408083209093528152205460ff1681565b6040519015158152602001610228565b34801561056a57600080fd5b5061021e6105793660046135cc565b6110fa565b34801561058a57600080fd5b506101e6610599366004613780565b6111ac565b3480156105aa57600080fd5b5061021e6105b93660046135cc565b805160208183018101805160168252928201919093012091525481565b3480156105e257600080fd5b506101e66105f13660046135cc565b6112cc565b34801561060257600080fd5b5061046861061136600461372f565b611350565b34801561062257600080fd5b50610468611369565b34801561063757600080fd5b506106666106463660046135cc565b805160208183018101805160158252928201919093012091525460ff1681565b60405161022891906138c4565b600060158260405161068591906138ee565b9081526040519081900360200190205460ff1660058111156106a9576106a9613748565b146106fb5760405162461bcd60e51b815260206004820152601960248201527f426574207374617465206d75737420626520434c4f5345442e0000000000000060448201526064015b60405180910390fd5b610706816001611376565b61070f81611438565b50565b600260158260405161072491906138ee565b9081526040519081900360200190205460ff16600581111561074857610748613748565b146107955760405162461bcd60e51b815260206004820152601760248201527f426574207374617465206d757374206265204f50454e2e00000000000000000060448201526064016106f2565b61070f81611498565b6000806107b56009543063e37685ec60e01b6116c0565b90506108026040518060400160405280600381526020016219d95d60ea1b8152506008856040516020016107ea92919061393f565b60408051601f19818403018152919052839190611751565b610868604051806040016040528060048152602001630e0c2e8d60e31b8152506040518060400160405280600481526020017f302c6b6f00000000000000000000000000000000000000000000000000000000815250836117519092919063ffffffff16565b60408051808201909152600581527f74696d657300000000000000000000000000000000000000000000000000000060208201526108a9908290600161176f565b6108b581600a5461178d565b9392505050565b6108c582611498565b60026015836040516108d791906138ee565b9081526040519081900360200190205460ff1660058111156108fb576108fb613748565b146109485760405162461bcd60e51b815260206004820152601960248201527f426574206163746976697479206973206e6f74206f70656e2e0000000000000060448201526064016106f2565b600d5434101561099a5760405162461bcd60e51b815260206004820152601d60248201527f416d6f756e742069732062656c6f7720656e7472616e6365206665652e00000060448201526064016106f2565b346013836040516109ab91906138ee565b908152602001604051809103902060008360028111156109cd576109cd613748565b60028111156109de576109de613748565b81526020019081526020016000206000336001600160a01b03166001600160a01b031681526020019081526020016000206000828254610a1e91906139f3565b90915550610a2f90508282336117a7565b6001601283604051610a4191906138ee565b90815260200160405180910390206000836002811115610a6357610a63613748565b6002811115610a7457610a74613748565b815260208082019290925260409081016000908120338083529352819020805460ff19169315159390931790925590517f1a48cf6315f5f44cf8ac3a5105296caf8a73f64b40f9a6b7cbf8ba65ca930fd490610ad590859034908690613a0b565b60405180910390a25050565b60008111610b315760405162461bcd60e51b815260206004820152601a60248201527f416d6f756e742073686f756c6420657863656564207a65726f2e00000000000060448201526064016106f2565b610b3a83611498565b6002601584604051610b4c91906138ee565b9081526040519081900360200190205460ff166005811115610b7057610b70613748565b14610bbd5760405162461bcd60e51b815260206004820152601d60248201527f46697874757265206973206e6f7420696e204f70656e2073746174652e00000060448201526064016106f2565b610bc983838333611908565b505050565b600c8160038110610bde57600080fd5b60209182820401919006915054906101000a900460ff1681565b6003601582604051610c0a91906138ee565b9081526040519081900360200190205460ff166005811115610c2e57610c2e613748565b14610c7b5760405162461bcd60e51b815260206004820152601b60248201527f426574207374617465206d757374206265204157414954494e472e000000000060448201526064016106f2565b610c86816004611376565b61070f81611c1d565b60008281526005602052604090205482906001600160a01b03163314610d085760405162461bcd60e51b815260206004820152602860248201527f536f75726365206d75737420626520746865206f7261636c65206f6620746865604482015267081c995c5d595cdd60c21b60648201526084016106f2565b60008181526005602052604080822080546001600160a01b03191690555182917f7cc135e0cebb02c3480ae5d74d377283180a2601f8f644edf7987b009316c63a91a26007546001600160a01b03163314610da55760405162461bcd60e51b815260206004820181905260248201527f4f6e6c7920436861696e6c696e6b436c69656e742063616e2066756c66696c6c60448201526064016106f2565b610bc98383611c7d565b6006546001600160a01b03163314610e095760405162461bcd60e51b815260206004820152601c60248201527f4f6e6c79206f776e65722063616e207769746864726177204c494e4b0000000060448201526064016106f2565b6000610e1d6002546001600160a01b031690565b6040517f70a082310000000000000000000000000000000000000000000000000000000081523060048201529091506001600160a01b0382169063a9059cbb90339083906370a0823190602401602060405180830381865afa158015610e87573d6000803e3d6000fd5b505050506040513d601f19601f82011682018060405250810190610eab9190613a33565b6040516001600160e01b031960e085901b1681526001600160a01b03909216600483015260248201526044016020604051808303816000875af1158015610ef6573d6000803e3d6000fd5b505050506040513d601f19601f82011682018060405250810190610f1a9190613a4c565b61070f5760405162461bcd60e51b815260206004820152601260248201527f556e61626c6520746f207472616e73666572000000000000000000000000000060448201526064016106f2565b610f6e6133f0565b6040518060600160405280601585604051610f8991906138ee565b9081526040519081900360200190205460ff166005811115610fad57610fad613748565b81526020016040518060600160405280610fc8876000611da1565b8152602001610fd8876001611da1565b8152602001610fe8876002611da1565b90528152602001610ff98585611f84565b905290505b92915050565b600880546110119061390a565b80601f016020809104026020016040519081016040528092919081815260200182805461103d9061390a565b801561108a5780601f1061105f5761010080835404028352916020019161108a565b820191906000526020600020905b81548152906001019060200180831161106d57829003601f168201915b505050505081565b601760205260009081526040902080546110119061390a565b82516020818501810180516010825292820182870120929052526000828152604090208054829081106110dd57600080fd5b6000918252602090912001546001600160a01b0316925083915050565b60008061111160095430638a71bfa860e01b6116c0565b90506111466040518060400160405280600381526020016219d95d60ea1b8152506008856040516020016107ea92919061393f565b610868604051806040016040528060048152602001630e0c2e8d60e31b8152506040518060400160405280600881526020017f302c726573756c74000000000000000000000000000000000000000000000000815250836117519092919063ffffffff16565b60008281526005602052604090205482906001600160a01b031633146112255760405162461bcd60e51b815260206004820152602860248201527f536f75726365206d75737420626520746865206f7261636c65206f6620746865604482015267081c995c5d595cdd60c21b60648201526084016106f2565b60008181526005602052604080822080546001600160a01b03191690555182917f7cc135e0cebb02c3480ae5d74d377283180a2601f8f644edf7987b009316c63a91a26007546001600160a01b031633146112c25760405162461bcd60e51b815260206004820181905260248201527f4f6e6c7920436861696e6c696e6b436c69656e742063616e2066756c66696c6c60448201526064016106f2565b610bc9838361206a565b60006015826040516112de91906138ee565b9081526040519081900360200190205460ff16600581111561130257611302613748565b14156107955760405162461bcd60e51b815260206004820152601c60248201527f42657420737461746520697320616c726561647920434c4f5345442e0000000060448201526064016106f2565b601860205260009081526040902080546110119061390a565b600b80546110119061390a565b8060158360405161138791906138ee565b908152604051908190036020019020805460ff191660018360058111156113b0576113b0613748565b02179055507fe10ba6722d7a7a91bf343a0f8e5b026910dbc4a2ebca276930dff31703c59a7082826040516113e6929190613a6e565b60405180910390a1600281600581111561140257611402613748565b14156114155761141182612150565b5050565b600081600581111561142957611429613748565b141561141157611411826121a0565b60006114438261079e565b6000818152601760209081526040909120845192935061146792909185019061341d565b50807f45d732f7bcf8bc3eb58d8fd2fe72f5d05aa36dadc20e6c9989abd2a741d81cac83604051610ad591906138b1565b60006016826040516114aa91906138ee565b908152602001604051809103902054905080600014156114cf57611411826000611376565b60016015836040516114e191906138ee565b9081526040519081900360200190205460ff16600581111561150557611505613748565b1480156115325750600f5461151a9082613a90565b4211806115325750600e5461152f9082613a90565b42105b1561154257611411826000611376565b600260158360405161155491906138ee565b9081526040519081900360200190205460ff16600581111561157857611578613748565b14806115b75750600360158360405161159191906138ee565b9081526040519081900360200190205460ff1660058111156115b5576115b5613748565b145b80156115ce5750600e546115cb9082613a90565b42105b156115de57611411826000611376565b60016015836040516115f091906138ee565b9081526040519081900360200190205460ff16600581111561161457611614613748565b14801561162d5750600f546116299082613a90565b4211155b80156116455750600e546116419082613a90565b4210155b1561165557611411826002611376565b600260158360405161166791906138ee565b9081526040519081900360200190205460ff16600581111561168b5761168b613748565b1480156116a35750600f546116a09082613a90565b42115b80156116b05750600f5415155b1561141157611411826003611376565b6116fe6040805160a0810182526000808252602080830182905282840182905260608084018390528451808601909552845283015290608082015290565b61173c6040805160a0810182526000808252602080830182905282840182905260608084018390528451808601909552845283015290608082015290565b611748818686866121f0565b95945050505050565b6080830151611760908361226c565b6080830151610bc9908261226c565b608083015161177e908361226c565b6080830151610bc99082612283565b6003546000906108b5906001600160a01b031684846122e3565b6117b28383836123a4565b610bc9576010836040516117c691906138ee565b908152602001604051809103902060008360028111156117e8576117e8613748565b60028111156117f9576117f9613748565b81526020019081526020016000208054905060118460405161181b91906138ee565b9081526020016040518091039020600084600281111561183d5761183d613748565b600281111561184e5761184e613748565b81526020019081526020016000206000836001600160a01b03166001600160a01b031681526020019081526020016000208190555060108360405161189391906138ee565b908152602001604051809103902060008360028111156118b5576118b5613748565b60028111156118c6576118c6613748565b8152602080820192909252604001600090812080546001810182559082529190200180546001600160a01b0383166001600160a01b0319909116179055505050565b600060138560405161191a91906138ee565b9081526020016040518091039020600085600281111561193c5761193c613748565b600281111561194d5761194d613748565b81526020019081526020016000206000836001600160a01b03166001600160a01b03168152602001908152602001600020549050600081116119d15760405162461bcd60e51b815260206004820181905260248201527f4e6f207374616b65206f6e207468697320616464726573732d726573756c742e60448201526064016106f2565b80831115611a215760405162461bcd60e51b815260206004820152601660248201527f43757272656e74207374616b6520746f6f206c6f772e0000000000000000000060448201526064016106f2565b611a2b8382613a90565b601386604051611a3b91906138ee565b90815260200160405180910390206000866002811115611a5d57611a5d613748565b6002811115611a6e57611a6e613748565b81526020019081526020016000206000846001600160a01b03166001600160a01b03168152602001908152602001600020819055506000601386604051611ab591906138ee565b90815260200160405180910390206000866002811115611ad757611ad7613748565b6002811115611ae857611ae8613748565b81526020019081526020016000206000846001600160a01b03166001600160a01b031681526020019081526020016000205411611b9a576000601286604051611b3191906138ee565b90815260200160405180910390206000866002811115611b5357611b53613748565b6002811115611b6457611b64613748565b8152602080820192909252604090810160009081206001600160a01b03871682529092529020805460ff19169115159190911790555b6040516001600160a01b0383169084156108fc029085906000818181858888f19350505050158015611bd0573d6000803e3d6000fd5b50816001600160a01b03167f0f3b118062ef97715cdb7fc34e6b3bc6bf1c6ddbbbbc4e8d6f13eff984080d08868587604051611c0e93929190613a0b565b60405180910390a25050505050565b6000611c28826110fa565b60008181526018602090815260409091208451929350611c4c92909185019061341d565b50807f203eeb39bf08702855bb5830b3ec49ea10fb51bde91904739f7c0c3ab41776d583604051610ad591906138b1565b60008281526018602052604081208054611c969061390a565b80601f0160208091040260200160405190810160405280929190818152602001828054611cc29061390a565b8015611d0f5780601f10611ce457610100808354040283529160200191611d0f565b820191906000526020600020905b815481529060010190602001808311611cf257829003601f168201915b50505050509050827f991c3e65c24cac8eb9898540ce857bbd06f702f19ac9ee6562bd97b96b0d898c8284604051611d48929190613aa7565b60405180910390a26004601582604051611d6291906138ee565b9081526040519081900360200190205460ff166005811115611d8657611d86613748565b1415610bc957611d968183612449565b610bc9816005611376565b60008060005b601085604051611db791906138ee565b90815260200160405180910390206000856002811115611dd957611dd9613748565b6002811115611dea57611dea613748565b8152602081019190915260400160002054811015611f7c576000601086604051611e1491906138ee565b90815260200160405180910390206000866002811115611e3657611e36613748565b6002811115611e4757611e47613748565b81526020019081526020016000208281548110611e6657611e66613ac9565b6000918252602090912001546040516001600160a01b039091169150601290611e909088906138ee565b90815260200160405180910390206000866002811115611eb257611eb2613748565b6002811115611ec357611ec3613748565b8152602080820192909252604090810160009081206001600160a01b038516825290925290205460ff1615611f6957601386604051611f0291906138ee565b90815260200160405180910390206000866002811115611f2457611f24613748565b6002811115611f3557611f35613748565b8152602080820192909252604090810160009081206001600160a01b0385168252909252902054611f6690846139f3565b92505b5080611f7481613adf565b915050611da7565b509392505050565b611f8c6134a1565b6040518060600160405280601385604051611fa791906138ee565b908152604080516020928190038301902060008080529083528181206001600160a01b0388168252835281902054835251910190601390611fe99087906138ee565b9081526040805160209281900383019020600160009081529083528181206001600160a01b038816825283528190205483525191019060139061202d9087906138ee565b9081526040805160209281900383019020600260009081529083528181206001600160a01b03979097168152959091529093205490925250919050565b600082815260176020526040812080546120839061390a565b80601f01602080910402602001604051908101604052809291908181526020018280546120af9061390a565b80156120fc5780601f106120d1576101008083540402835291602001916120fc565b820191906000526020600020905b8154815290600101906020018083116120df57829003601f168201915b50505050509050827f0a19aa077773e15e05c85beefc64244b7b27068fccb13becb7bf450ff41fa89c8284604051612135929190613aa7565b60405180910390a261214781836124e9565b610bc981611498565b60005b60038110156114115761218e82600c836003811061217357612173613ac9565b602081049091015460ff601f9092166101000a90041661256e565b8061219881613adf565b915050612153565b60005b6003811015611411576121de82600c83600381106121c3576121c3613ac9565b602081049091015460ff601f9092166101000a9004166125da565b806121e881613adf565b9150506121a3565b61222e6040805160a0810182526000808252602080830182905282840182905260608084018390528451808601909552845283015290608082015290565b61223e85608001516101006127c2565b50508284526001600160a01b03821660208501526001600160e01b031981166040850152835b949350505050565b6122798260038351612827565b610bc9828261293c565b67ffffffffffffffff1981121561229e576114118282612963565b67ffffffffffffffff8113156122b85761141182826129a5565b600081126122cc5761141182600083612827565b6114118260016122de84600019613afa565b612827565b6004546000906122f48160016139f3565b600455835160408086015160808701515191516000937f4042994600000000000000000000000000000000000000000000000000000000936123459386938493923092918a91600191602401613b6e565b60408051601f198184030181529190526020810180517bffffffffffffffffffffffffffffffffffffffffffffffffffffffff166001600160e01b031990931692909217909152905061239a868386846129c8565b9695505050505050565b60006001600160a01b03821615801590612432575060006011856040516123cb91906138ee565b908152602001604051809103902060008560028111156123ed576123ed613748565b60028111156123fe576123fe613748565b81526020019081526020016000206000846001600160a01b03166001600160a01b0316815260200190815260200160002054115b1561243f575060016108b5565b5060009392505050565b60006124558383612b59565b90506060818160008151811061246d5761246d613ac9565b6020026020010190600281111561248657612486613748565b9081600281111561249957612499613748565b90525060006124a783612c0c565b905060006124b58684612d22565b905060006124c38784612d22565b905060006124d182846139f3565b90506124df88878584612d72565b5050505050505050565b6016826040516124f991906138ee565b9081526020016040518091039020548114611411578060168360405161251f91906138ee565b9081526020016040518091039020819055507f20af5e7c127dd84267ef67d2a1fa455b47bc60840459b4db987929e37daf07a38282604051612562929190613aa7565b60405180910390a15050565b6040805160208101825260008152905160109061258c9085906138ee565b908152602001604051809103902060008360028111156125ae576125ae613748565b60028111156125bf576125bf613748565b81526020810191909152604001600020610bc99160016134bf565b60005b6010836040516125ed91906138ee565b9081526020016040518091039020600083600281111561260f5761260f613748565b600281111561262057612620613748565b8152602081019190915260400160002054811015610bc957600060108460405161264a91906138ee565b9081526020016040518091039020600084600281111561266c5761266c613748565b600281111561267d5761267d613748565b8152602001908152602001600020828154811061269c5761269c613ac9565b6000918252602090912001546040516001600160a01b0390911691506012906126c69086906138ee565b908152602001604051809103902060008460028111156126e8576126e8613748565b60028111156126f9576126f9613748565b8152602080820192909252604090810160009081206001600160a01b038516825290925290205460ff16156127af57600060138560405161273a91906138ee565b9081526020016040518091039020600085600281111561275c5761275c613748565b600281111561276d5761276d613748565b81526020019081526020016000206000836001600160a01b03166001600160a01b031681526020019081526020016000205490506127ad85858385611908565b505b50806127ba81613adf565b9150506125dd565b6040805180820190915260608152600060208201526127e2602083613be8565b1561280a576127f2602083613be8565b6127fd906020613a90565b61280790836139f3565b91505b506020828101829052604080518085526000815290920101905290565b60178167ffffffffffffffff16116128525761284c8360e0600585901b1683176131a3565b50505050565b60ff8167ffffffffffffffff161161289057612879836018611fe0600586901b16176131a3565b5061284c8367ffffffffffffffff831660016131c8565b61ffff8167ffffffffffffffff16116128cf576128b8836019611fe0600586901b16176131a3565b5061284c8367ffffffffffffffff831660026131c8565b63ffffffff8167ffffffffffffffff1611612910576128f983601a611fe0600586901b16176131a3565b5061284c8367ffffffffffffffff831660046131c8565b61292583601b611fe0600586901b16176131a3565b5061284c8367ffffffffffffffff831660086131c8565b6040805180820190915260608152600060208201526108b5838460000151518485516131ee565b61296e8260c36131a3565b506114118261297f83600019613afa565b60405160200161299191815260200190565b6040516020818303038152906040526132d8565b6129b08260c26131a3565b50611411828260405160200161299191815260200190565b6040516bffffffffffffffffffffffff193060601b1660208201526034810184905260009060540160408051808303601f1901815282825280516020918201206000818152600590925291812080546001600160a01b0319166001600160a01b038a1617905590925082917fb5e6e01e79f91267dc17b4e6314d5d4d03593d2ceee0fbb452b750bd70ea5af99190a26002546040517f4000aea00000000000000000000000000000000000000000000000000000000081526001600160a01b0390911690634000aea090612aa490889087908790600401613bfc565b6020604051808303816000875af1158015612ac3573d6000803e3d6000fd5b505050506040513d601f19601f82011682018060405250810190612ae79190613a4c565b6122645760405162461bcd60e51b815260206004820152602360248201527f756e61626c6520746f207472616e73666572416e6443616c6c20746f206f726160448201527f636c65000000000000000000000000000000000000000000000000000000000060648201526084016106f2565b600081612b6857506000610ffe565b6001821415612b7957506001610ffe565b6002821415612b8a57506002610ffe565b612b95836003611376565b600083604051602001612ba89190613c24565b60405160208183030381529060405290507f2a2c16a3ce1dea0db612b14a8fdc9a8d316acc87914b4d66440d119b41e8615f8482604051612bea929190613cb6565b60405180910390a18060405162461bcd60e51b81526004016106f291906138b1565b604080516002808252606080830184529260009291906020830190803683370190505090506000805b6003811015612d1957846002811115612c5057612c50613748565b600c8260038110612c6357612c63613ac9565b602081049091015460ff601f9092166101000a9004166002811115612c8a57612c8a613748565b14612d0757600c8160038110612ca257612ca2613ac9565b602091828204019190069054906101000a900460ff16838381518110612cca57612cca613ac9565b60200260200101906002811115612ce357612ce3613748565b90816002811115612cf657612cf6613748565b905250612d046001836139f3565b91505b80612d1181613adf565b915050612c35565b50909392505050565b60008060005b8351811015611f7c57612d5485858381518110612d4757612d47613ac9565b6020026020010151611da1565b612d5e90836139f3565b915080612d6a81613adf565b915050612d28565b6004601585604051612d8491906138ee565b9081526040519081900360200190205460ff166005811115612da857612da8613748565b14612e1a5760405162461bcd60e51b8152602060048201526024808201527f4669787475726520626574207374617465206973206e6f742046554c46494c4c60448201527f494e472e0000000000000000000000000000000000000000000000000000000060648201526084016106f2565b60005b601085604051612e2d91906138ee565b90815260200160405180910390206000856002811115612e4f57612e4f613748565b6002811115612e6057612e60613748565b815260208101919091526040016000205481101561319c576000601086604051612e8a91906138ee565b90815260200160405180910390206000866002811115612eac57612eac613748565b6002811115612ebd57612ebd613748565b81526020019081526020016000208281548110612edc57612edc613ac9565b6000918252602090912001546040516001600160a01b039091169150601290612f069088906138ee565b90815260200160405180910390206000866002811115612f2857612f28613748565b6002811115612f3957612f39613748565b8152602080820192909252604090810160009081206001600160a01b038516825290925290205460ff1615613189576000601387604051612f7a91906138ee565b90815260200160405180910390206000876002811115612f9c57612f9c613748565b6002811115612fad57612fad613748565b8152602080820192909252604090810160009081206001600160a01b03861682529092528120549150612fe08686613cdb565b612fea9083613cef565b905080601489604051612ffd91906138ee565b9081526040805191829003602090810183206001600160a01b0388166000908152915290812092909255601390613035908b906138ee565b9081526020016040518091039020600089600281111561305757613057613748565b600281111561306857613068613748565b81526020019081526020016000206000856001600160a01b03166001600160a01b031681526020019081526020016000208190555060006012896040516130af91906138ee565b908152602001604051809103902060008960028111156130d1576130d1613748565b60028111156130e2576130e2613748565b8152602080820192909252604090810160009081206001600160a01b0388168083529352818120805460ff1916941515949094179093555190916108fc841502918491818181858888f19350505050158015613142573d6000803e3d6000fd5b50826001600160a01b03167fc0acd5bc47ab9bd28274b4de553779f718ae53f42f84fe011e7eed61cda99cbd898360405161317e929190613aa7565b60405180910390a250505b508061319481613adf565b915050612e1d565b5050505050565b6040805180820190915260608152600060208201526108b583846000015151846132e5565b604080518082019091526060815260006020820152612264848560000151518585613341565b604080518082019091526060815260006020820152825182111561321157600080fd5b602085015161322083866139f3565b111561325357613253856132438760200151878661323e91906139f3565b6133c2565b61324e906002613cef565b6133d9565b6000808651805187602083010193508088870111156132725787860182525b505050602084015b602084106132b257805182526132916020836139f3565b915061329e6020826139f3565b90506132ab602085613a90565b935061327a565b51815160001960208690036101000a019081169019919091161790525083949350505050565b6122798260028351612827565b6040805180820190915260608152600060208201528360200151831061331a5761331a848560200151600261324e9190613cef565b835180516020858301018481535080851415613337576001810182525b5093949350505050565b604080518082019091526060815260006020820152602085015161336585846139f3565b1115613379576133798561324386856139f3565b6000600161338984610100613df2565b6133939190613a90565b90508551838682010185831982511617815250805184870111156133b75783860181525b509495945050505050565b6000818311156133d3575081610ffe565b50919050565b81516133e583836127c2565b5061284c838261293c565b6040805160608101909152806000815260200161340b6134a1565b81526020016134186134a1565b905290565b8280546134299061390a565b90600052602060002090601f01602090048101928261344b5760008555613491565b82601f1061346457805160ff1916838001178555613491565b82800160010185558215613491579182015b82811115613491578251825591602001919060010190613476565b5061349d929150613514565b5090565b60405180606001604052806003906020820280368337509192915050565b828054828255906000526020600020908101928215613491579160200282015b8281111561349157825182546001600160a01b0319166001600160a01b039091161782556020909201916001909101906134df565b5b8082111561349d5760008155600101613515565b634e487b7160e01b600052604160045260246000fd5b600082601f83011261355057600080fd5b813567ffffffffffffffff8082111561356b5761356b613529565b604051601f8301601f19908116603f0116810190828211818310171561359357613593613529565b816040528381528660208588010111156135ac57600080fd5b836020870160208301376000602085830101528094505050505092915050565b6000602082840312156135de57600080fd5b813567ffffffffffffffff8111156135f557600080fd5b6122648482850161353f565b80356003811061361057600080fd5b919050565b6000806040838503121561362857600080fd5b823567ffffffffffffffff81111561363f57600080fd5b61364b8582860161353f565b92505061365a60208401613601565b90509250929050565b60008060006060848603121561367857600080fd5b833567ffffffffffffffff81111561368f57600080fd5b61369b8682870161353f565b9350506136aa60208501613601565b9150604084013590509250925092565b80356001600160a01b038116811461361057600080fd5b6000806000606084860312156136e657600080fd5b833567ffffffffffffffff8111156136fd57600080fd5b6137098682870161353f565b93505061371860208501613601565b9150613726604085016136ba565b90509250925092565b60006020828403121561374157600080fd5b5035919050565b634e487b7160e01b600052602160045260246000fd5b6003811061376e5761376e613748565b9052565b60208101610ffe828461375e565b6000806040838503121561379357600080fd5b50508035926020909101359150565b600080604083850312156137b557600080fd5b823567ffffffffffffffff8111156137cc57600080fd5b6137d88582860161353f565b92505061365a602084016136ba565b6006811061376e5761376e613748565b8060005b600381101561284c5781518452602093840193909101906001016137fb565b600060e08201905061382d8284516137e7565b602083015161383f60208401826137f7565b50604083015161385260808401826137f7565b5092915050565b60005b8381101561387457818101518382015260200161385c565b8381111561284c5750506000910152565b6000815180845261389d816020860160208601613859565b601f01601f19169290920160200192915050565b6020815260006108b56020830184613885565b60208101610ffe82846137e7565b600081516138e4818560208601613859565b9290920192915050565b60008251613900818460208701613859565b9190910192915050565b600181811c9082168061391e57607f821691505b602082108114156133d357634e487b7160e01b600052602260045260246000fd5b600080845481600182811c91508083168061395b57607f831692505b602080841082141561397b57634e487b7160e01b86526022600452602486fd5b81801561398f57600181146139a0576139cd565b60ff198616895284890196506139cd565b60008b81526020902060005b868110156139c55781548b8201529085019083016139ac565b505084890196505b50505050505061174881856138d2565b634e487b7160e01b600052601160045260246000fd5b60008219821115613a0657613a066139dd565b500190565b606081526000613a1e6060830186613885565b9050836020830152612264604083018461375e565b600060208284031215613a4557600080fd5b5051919050565b600060208284031215613a5e57600080fd5b815180151581146108b557600080fd5b604081526000613a816040830185613885565b90506108b560208301846137e7565b600082821015613aa257613aa26139dd565b500390565b604081526000613aba6040830185613885565b90508260208301529392505050565b634e487b7160e01b600052603260045260246000fd5b6000600019821415613af357613af36139dd565b5060010190565b6000808312837f800000000000000000000000000000000000000000000000000000000000000001831281151615613b3457613b346139dd565b837f7fffffffffffffffffffffffffffffffffffffffffffffffffffffffffffffff018313811615613b6857613b686139dd565b50500390565b60006101006001600160a01b03808c1684528a60208501528960408501528089166060850152506001600160e01b0319871660808401528560a08401528460c08401528060e0840152613bc381840185613885565b9b9a5050505050505050505050565b634e487b7160e01b600052601260045260246000fd5b600082613bf757613bf7613bd2565b500690565b6001600160a01b03841681528260208201526060604082015260006117486060830184613885565b7f4572726f72206f6e206669787475726520000000000000000000000000000000815260008251613c5c816011850160208701613859565b7f3a20556e6b6e6f776e206669787475726520726573756c742066726f6d20415060119390910192830152507f49000000000000000000000000000000000000000000000000000000000000006031820152603201919050565b604081526000613cc96040830185613885565b82810360208401526117488185613885565b600082613cea57613cea613bd2565b500490565b6000816000190483118215151615613d0957613d096139dd565b500290565b600181815b80851115613d49578160001904821115613d2f57613d2f6139dd565b80851615613d3c57918102915b93841c9390800290613d13565b509250929050565b600082613d6057506001610ffe565b81613d6d57506000610ffe565b8160018114613d835760028114613d8d57613da9565b6001915050610ffe565b60ff841115613d9e57613d9e6139dd565b50506001821b610ffe565b5060208310610133831016604e8410600b8410161715613dcc575081810a610ffe565b613dd68383613d0e565b8060001904821115613dea57613dea6139dd565b029392505050565b60006108b58383613d5156fea2646970667358221220f0c82c119ee8c3e68ecf0799d1cb149b63aa7a6297105298d55084403a60b08064736f6c634300080c0033",
  "devdoc": {
    "kind": "dev",
    "methods": {},
    "version": 1
  },
  "userdoc": {
    "kind": "user",
    "methods": {
      "requestFixtureKickoffTimeParameter(string)": {
        "notice": "Request fixture kickoff time from the oracle in a single transaction"
      },
      "requestFixtureResultParameter(string)": {
        "notice": "Request fixture result from the oracle in a single transaction"
      },
      "withdrawLink()": {
        "notice": "Allow withdraw of Link tokens from the contract"
      }
    },
    "version": 1
  },
  "storageLayout": {
    "storage": [
      {
        "astId": 319,
        "contract": "contracts/SportsBetting.sol:SportsBetting",
        "label": "s_ens",
        "offset": 0,
        "slot": "0",
        "type": "t_contract(ENSInterface)974"
      },
      {
        "astId": 321,
        "contract": "contracts/SportsBetting.sol:SportsBetting",
        "label": "s_ensNode",
        "offset": 0,
        "slot": "1",
        "type": "t_bytes32"
      },
      {
        "astId": 324,
        "contract": "contracts/SportsBetting.sol:SportsBetting",
        "label": "s_link",
        "offset": 0,
        "slot": "2",
        "type": "t_contract(LinkTokenInterface)1069"
      },
      {
        "astId": 327,
        "contract": "contracts/SportsBetting.sol:SportsBetting",
        "label": "s_oracle",
        "offset": 0,
        "slot": "3",
        "type": "t_contract(OperatorInterface)1149"
      },
      {
        "astId": 330,
        "contract": "contracts/SportsBetting.sol:SportsBetting",
        "label": "s_requestCount",
        "offset": 0,
        "slot": "4",
        "type": "t_uint256"
      },
      {
        "astId": 334,
        "contract": "contracts/SportsBetting.sol:SportsBetting",
        "label": "s_pendingRequests",
        "offset": 0,
        "slot": "5",
        "type": "t_mapping(t_bytes32,t_address)"
      },
      {
        "astId": 3866,
        "contract": "contracts/SportsBetting.sol:SportsBetting",
        "label": "owner",
        "offset": 0,
        "slot": "6",
        "type": "t_address_payable"
      },
      {
        "astId": 3868,
        "contract": "contracts/SportsBetting.sol:SportsBetting",
        "label": "chainlink",
        "offset": 0,
        "slot": "7",
        "type": "t_address"
      },
      {
        "astId": 3870,
        "contract": "contracts/SportsBetting.sol:SportsBetting",
        "label": "sportsOracleURI",
        "offset": 0,
        "slot": "8",
        "type": "t_string_storage"
      },
      {
        "astId": 3872,
        "contract": "contracts/SportsBetting.sol:SportsBetting",
        "label": "jobId",
        "offset": 0,
        "slot": "9",
        "type": "t_bytes32"
      },
      {
        "astId": 3874,
        "contract": "contracts/SportsBetting.sol:SportsBetting",
        "label": "fee",
        "offset": 0,
        "slot": "10",
        "type": "t_uint256"
      },
      {
        "astId": 3876,
        "contract": "contracts/SportsBetting.sol:SportsBetting",
        "label": "fixtureResult",
        "offset": 0,
        "slot": "11",
        "type": "t_string_storage"
      },
      {
        "astId": 2394,
        "contract": "contracts/SportsBetting.sol:SportsBetting",
        "label": "betTypes",
        "offset": 0,
        "slot": "12",
        "type": "t_array(t_enum(BetType)2321)3_storage"
      },
      {
        "astId": 2399,
        "contract": "contracts/SportsBetting.sol:SportsBetting",
        "label": "entranceFee",
        "offset": 0,
        "slot": "13",
        "type": "t_uint256"
      },
      {
        "astId": 2408,
        "contract": "contracts/SportsBetting.sol:SportsBetting",
        "label": "betAdvanceTime",
        "offset": 0,
        "slot": "14",
        "type": "t_uint256"
      },
      {
        "astId": 2413,
        "contract": "contracts/SportsBetting.sol:SportsBetting",
        "label": "betCutOffTime",
        "offset": 0,
        "slot": "15",
        "type": "t_uint256"
      },
      {
        "astId": 2421,
        "contract": "contracts/SportsBetting.sol:SportsBetting",
        "label": "historicalBetters",
        "offset": 0,
        "slot": "16",
        "type": "t_mapping(t_string_memory_ptr,t_mapping(t_enum(BetType)2321,t_array(t_address)dyn_storage))"
      },
      {
        "astId": 2430,
        "contract": "contracts/SportsBetting.sol:SportsBetting",
        "label": "historicalBettersIndex",
        "offset": 0,
        "slot": "17",
        "type": "t_mapping(t_string_memory_ptr,t_mapping(t_enum(BetType)2321,t_mapping(t_address,t_uint256)))"
      },
      {
        "astId": 2439,
        "contract": "contracts/SportsBetting.sol:SportsBetting",
        "label": "activeBetters",
        "offset": 0,
        "slot": "18",
        "type": "t_mapping(t_string_memory_ptr,t_mapping(t_enum(BetType)2321,t_mapping(t_address,t_bool)))"
      },
      {
        "astId": 2448,
        "contract": "contracts/SportsBetting.sol:SportsBetting",
        "label": "amounts",
        "offset": 0,
        "slot": "19",
        "type": "t_mapping(t_string_memory_ptr,t_mapping(t_enum(BetType)2321,t_mapping(t_address,t_uint256)))"
      },
      {
        "astId": 2454,
        "contract": "contracts/SportsBetting.sol:SportsBetting",
        "label": "obligations",
        "offset": 0,
        "slot": "20",
        "type": "t_mapping(t_string_memory_ptr,t_mapping(t_address,t_uint256))"
      },
      {
        "astId": 2459,
        "contract": "contracts/SportsBetting.sol:SportsBetting",
        "label": "bettingState",
        "offset": 0,
        "slot": "21",
        "type": "t_mapping(t_string_memory_ptr,t_enum(BettingState)2328)"
      },
      {
        "astId": 2463,
        "contract": "contracts/SportsBetting.sol:SportsBetting",
        "label": "fixtureToKickoffTime",
        "offset": 0,
        "slot": "22",
        "type": "t_mapping(t_string_memory_ptr,t_uint256)"
      },
      {
        "astId": 2467,
        "contract": "contracts/SportsBetting.sol:SportsBetting",
        "label": "requestKickoffToFixture",
        "offset": 0,
        "slot": "23",
        "type": "t_mapping(t_bytes32,t_string_storage)"
      },
      {
        "astId": 2471,
        "contract": "contracts/SportsBetting.sol:SportsBetting",
        "label": "requestResultToFixture",
        "offset": 0,
        "slot": "24",
        "type": "t_mapping(t_bytes32,t_string_storage)"
      }
    ],
    "types": {
      "t_address": {
        "encoding": "inplace",
        "label": "address",
        "numberOfBytes": "20"
      },
      "t_address_payable": {
        "encoding": "inplace",
        "label": "address payable",
        "numberOfBytes": "20"
      },
      "t_array(t_address)dyn_storage": {
        "base": "t_address",
        "encoding": "dynamic_array",
        "label": "address[]",
        "numberOfBytes": "32"
      },
      "t_array(t_enum(BetType)2321)3_storage": {
        "base": "t_enum(BetType)2321",
        "encoding": "inplace",
        "label": "enum SportsBetting.BetType[3]",
        "numberOfBytes": "32"
      },
      "t_bool": {
        "encoding": "inplace",
        "label": "bool",
        "numberOfBytes": "1"
      },
      "t_bytes32": {
        "encoding": "inplace",
        "label": "bytes32",
        "numberOfBytes": "32"
      },
      "t_contract(ENSInterface)974": {
        "encoding": "inplace",
        "label": "contract ENSInterface",
        "numberOfBytes": "20"
      },
      "t_contract(LinkTokenInterface)1069": {
        "encoding": "inplace",
        "label": "contract LinkTokenInterface",
        "numberOfBytes": "20"
      },
      "t_contract(OperatorInterface)1149": {
        "encoding": "inplace",
        "label": "contract OperatorInterface",
        "numberOfBytes": "20"
      },
      "t_enum(BetType)2321": {
        "encoding": "inplace",
        "label": "enum SportsBetting.BetType",
        "numberOfBytes": "1"
      },
      "t_enum(BettingState)2328": {
        "encoding": "inplace",
        "label": "enum SportsBetting.BettingState",
        "numberOfBytes": "1"
      },
      "t_mapping(t_address,t_bool)": {
        "encoding": "mapping",
        "key": "t_address",
        "label": "mapping(address => bool)",
        "numberOfBytes": "32",
        "value": "t_bool"
      },
      "t_mapping(t_address,t_uint256)": {
        "encoding": "mapping",
        "key": "t_address",
        "label": "mapping(address => uint256)",
        "numberOfBytes": "32",
        "value": "t_uint256"
      },
      "t_mapping(t_bytes32,t_address)": {
        "encoding": "mapping",
        "key": "t_bytes32",
        "label": "mapping(bytes32 => address)",
        "numberOfBytes": "32",
        "value": "t_address"
      },
      "t_mapping(t_bytes32,t_string_storage)": {
        "encoding": "mapping",
        "key": "t_bytes32",
        "label": "mapping(bytes32 => string)",
        "numberOfBytes": "32",
        "value": "t_string_storage"
      },
      "t_mapping(t_enum(BetType)2321,t_array(t_address)dyn_storage)": {
        "encoding": "mapping",
        "key": "t_enum(BetType)2321",
        "label": "mapping(enum SportsBetting.BetType => address[])",
        "numberOfBytes": "32",
        "value": "t_array(t_address)dyn_storage"
      },
      "t_mapping(t_enum(BetType)2321,t_mapping(t_address,t_bool))": {
        "encoding": "mapping",
        "key": "t_enum(BetType)2321",
        "label": "mapping(enum SportsBetting.BetType => mapping(address => bool))",
        "numberOfBytes": "32",
        "value": "t_mapping(t_address,t_bool)"
      },
      "t_mapping(t_enum(BetType)2321,t_mapping(t_address,t_uint256))": {
        "encoding": "mapping",
        "key": "t_enum(BetType)2321",
        "label": "mapping(enum SportsBetting.BetType => mapping(address => uint256))",
        "numberOfBytes": "32",
        "value": "t_mapping(t_address,t_uint256)"
      },
      "t_mapping(t_string_memory_ptr,t_enum(BettingState)2328)": {
        "encoding": "mapping",
        "key": "t_string_memory_ptr",
        "label": "mapping(string => enum SportsBetting.BettingState)",
        "numberOfBytes": "32",
        "value": "t_enum(BettingState)2328"
      },
      "t_mapping(t_string_memory_ptr,t_mapping(t_address,t_uint256))": {
        "encoding": "mapping",
        "key": "t_string_memory_ptr",
        "label": "mapping(string => mapping(address => uint256))",
        "numberOfBytes": "32",
        "value": "t_mapping(t_address,t_uint256)"
      },
      "t_mapping(t_string_memory_ptr,t_mapping(t_enum(BetType)2321,t_array(t_address)dyn_storage))": {
        "encoding": "mapping",
        "key": "t_string_memory_ptr",
        "label": "mapping(string => mapping(enum SportsBetting.BetType => address[]))",
        "numberOfBytes": "32",
        "value": "t_mapping(t_enum(BetType)2321,t_array(t_address)dyn_storage)"
      },
      "t_mapping(t_string_memory_ptr,t_mapping(t_enum(BetType)2321,t_mapping(t_address,t_bool)))": {
        "encoding": "mapping",
        "key": "t_string_memory_ptr",
        "label": "mapping(string => mapping(enum SportsBetting.BetType => mapping(address => bool)))",
        "numberOfBytes": "32",
        "value": "t_mapping(t_enum(BetType)2321,t_mapping(t_address,t_bool))"
      },
      "t_mapping(t_string_memory_ptr,t_mapping(t_enum(BetType)2321,t_mapping(t_address,t_uint256)))": {
        "encoding": "mapping",
        "key": "t_string_memory_ptr",
        "label": "mapping(string => mapping(enum SportsBetting.BetType => mapping(address => uint256)))",
        "numberOfBytes": "32",
        "value": "t_mapping(t_enum(BetType)2321,t_mapping(t_address,t_uint256))"
      },
      "t_mapping(t_string_memory_ptr,t_uint256)": {
        "encoding": "mapping",
        "key": "t_string_memory_ptr",
        "label": "mapping(string => uint256)",
        "numberOfBytes": "32",
        "value": "t_uint256"
      },
      "t_string_memory_ptr": {
        "encoding": "bytes",
        "label": "string",
        "numberOfBytes": "32"
      },
      "t_string_storage": {
        "encoding": "bytes",
        "label": "string",
        "numberOfBytes": "32"
      },
      "t_uint256": {
        "encoding": "inplace",
        "label": "uint256",
        "numberOfBytes": "32"
      }
    }
  }
}