{
  "address": "0x63148F9986b3aca26A349f860d82D22C6a60E8ff",
  "abi": [
    {
      "inputs": [
        {
          "internalType": "string",
          "name": "_sportsOracleURI",
          "type": "string"
        },
        {
          "internalType": "address",
          "name": "_oracle",
          "type": "address"
        },
        {
          "internalType": "address",
          "name": "_link",
          "type": "address"
        },
        {
          "internalType": "string",
          "name": "_jobId",
          "type": "string"
        },
        {
          "internalType": "uint256",
          "name": "_fee",
          "type": "uint256"
        },
        {
          "internalType": "uint256",
          "name": "_commissionRate",
          "type": "uint256"
        }
      ],
      "stateMutability": "nonpayable",
      "type": "constructor"
    },
    {
      "anonymous": false,
      "inputs": [
        {
          "indexed": true,
          "internalType": "string",
          "name": "fixtureID",
          "type": "string"
        },
        {
          "indexed": false,
          "internalType": "uint256",
          "name": "amount",
          "type": "uint256"
        }
      ],
      "name": "BetCommissionPayout",
      "type": "event"
    },
    {
      "anonymous": false,
      "inputs": [
        {
          "indexed": true,
          "internalType": "address",
          "name": "better",
          "type": "address"
        },
        {
          "indexed": false,
          "internalType": "string",
          "name": "fixtureID",
          "type": "string"
        },
        {
          "indexed": false,
          "internalType": "uint256",
          "name": "amount",
          "type": "uint256"
        }
      ],
      "name": "BetPayout",
      "type": "event"
    },
    {
      "anonymous": false,
      "inputs": [
        {
          "indexed": false,
          "internalType": "string",
          "name": "fixtureID",
          "type": "string"
        },
        {
          "indexed": false,
          "internalType": "string",
          "name": "reason",
          "type": "string"
        }
      ],
      "name": "BetPayoutFulfillmentError",
      "type": "event"
    },
    {
      "anonymous": false,
      "inputs": [
        {
          "indexed": true,
          "internalType": "address",
          "name": "better",
          "type": "address"
        },
        {
          "indexed": false,
          "internalType": "string",
          "name": "fixtureID",
          "type": "string"
        },
        {
          "indexed": false,
          "internalType": "uint256",
          "name": "amount",
          "type": "uint256"
        },
        {
          "indexed": false,
          "internalType": "enum SportsBetting.BetType",
          "name": "betType",
          "type": "uint8"
        }
      ],
      "name": "BetStaked",
      "type": "event"
    },
    {
      "anonymous": false,
      "inputs": [
        {
          "indexed": true,
          "internalType": "address",
          "name": "better",
          "type": "address"
        },
        {
          "indexed": false,
          "internalType": "string",
          "name": "fixtureID",
          "type": "string"
        },
        {
          "indexed": false,
          "internalType": "uint256",
          "name": "amount",
          "type": "uint256"
        },
        {
          "indexed": false,
          "internalType": "enum SportsBetting.BetType",
          "name": "betType",
          "type": "uint8"
        }
      ],
      "name": "BetUnstaked",
      "type": "event"
    },
    {
      "anonymous": false,
      "inputs": [
        {
          "indexed": false,
          "internalType": "string",
          "name": "fixtureID",
          "type": "string"
        },
        {
          "indexed": false,
          "internalType": "enum SportsBetting.BettingState",
          "name": "state",
          "type": "uint8"
        }
      ],
      "name": "BettingStateChanged",
      "type": "event"
    },
    {
      "anonymous": false,
      "inputs": [
        {
          "indexed": true,
          "internalType": "bytes32",
          "name": "id",
          "type": "bytes32"
        }
      ],
      "name": "ChainlinkCancelled",
      "type": "event"
    },
    {
      "anonymous": false,
      "inputs": [
        {
          "indexed": true,
          "internalType": "bytes32",
          "name": "id",
          "type": "bytes32"
        }
      ],
      "name": "ChainlinkFulfilled",
      "type": "event"
    },
    {
      "anonymous": false,
      "inputs": [
        {
          "indexed": true,
          "internalType": "bytes32",
          "name": "id",
          "type": "bytes32"
        }
      ],
      "name": "ChainlinkRequested",
      "type": "event"
    },
    {
      "anonymous": false,
      "inputs": [
        {
          "indexed": false,
          "internalType": "string",
          "name": "fixtureID",
          "type": "string"
        },
        {
          "indexed": false,
          "internalType": "uint256",
          "name": "kickoffTime",
          "type": "uint256"
        }
      ],
      "name": "KickoffTimeUpdated",
      "type": "event"
    },
    {
      "anonymous": false,
      "inputs": [
        {
          "indexed": true,
          "internalType": "bytes32",
          "name": "requestId",
          "type": "bytes32"
        },
        {
          "indexed": false,
          "internalType": "string",
          "name": "fixtureID",
          "type": "string"
        },
        {
          "indexed": false,
          "internalType": "uint256",
          "name": "kickoff",
          "type": "uint256"
        }
      ],
      "name": "RequestFixtureKickoffFulfilled",
      "type": "event"
    },
    {
      "anonymous": false,
      "inputs": [
        {
          "indexed": true,
          "internalType": "bytes32",
          "name": "requestId",
          "type": "bytes32"
        },
        {
          "indexed": false,
          "internalType": "string",
          "name": "fixtureID",
          "type": "string"
        },
        {
          "indexed": false,
          "internalType": "uint256",
          "name": "result",
          "type": "uint256"
        }
      ],
      "name": "RequestFixtureResultFulfilled",
      "type": "event"
    },
    {
      "anonymous": false,
      "inputs": [
        {
          "indexed": true,
          "internalType": "bytes32",
          "name": "requestId",
          "type": "bytes32"
        },
        {
          "indexed": false,
          "internalType": "string",
          "name": "fixtureID",
          "type": "string"
        }
      ],
      "name": "RequestedFixtureKickoff",
      "type": "event"
    },
    {
      "anonymous": false,
      "inputs": [
        {
          "indexed": true,
          "internalType": "bytes32",
          "name": "requestId",
          "type": "bytes32"
        },
        {
          "indexed": false,
          "internalType": "string",
          "name": "fixtureID",
          "type": "string"
        }
      ],
      "name": "RequestedFixtureResult",
      "type": "event"
    },
    {
      "inputs": [
        {
          "internalType": "string",
          "name": "",
          "type": "string"
        },
        {
          "internalType": "enum SportsBetting.BetType",
          "name": "",
          "type": "uint8"
        },
        {
          "internalType": "address",
          "name": "",
          "type": "address"
        }
      ],
      "name": "activeBetters",
      "outputs": [
        {
          "internalType": "bool",
          "name": "",
          "type": "bool"
        }
      ],
      "stateMutability": "view",
      "type": "function"
    },
    {
      "inputs": [
        {
          "internalType": "string",
          "name": "",
          "type": "string"
        },
        {
          "internalType": "enum SportsBetting.BetType",
          "name": "",
          "type": "uint8"
        },
        {
          "internalType": "address",
          "name": "",
          "type": "address"
        }
      ],
      "name": "amounts",
      "outputs": [
        {
          "internalType": "uint256",
          "name": "",
          "type": "uint256"
        }
      ],
      "stateMutability": "view",
      "type": "function"
    },
    {
      "inputs": [
        {
          "internalType": "string",
          "name": "fixtureID",
          "type": "string"
        }
      ],
      "name": "awaitBetForFixture",
      "outputs": [],
      "stateMutability": "nonpayable",
      "type": "function"
    },
    {
      "inputs": [],
      "name": "betAdvanceTime",
      "outputs": [
        {
          "internalType": "uint256",
          "name": "",
          "type": "uint256"
        }
      ],
      "stateMutability": "view",
      "type": "function"
    },
    {
      "inputs": [],
      "name": "betCutOffTime",
      "outputs": [
        {
          "internalType": "uint256",
          "name": "",
          "type": "uint256"
        }
      ],
      "stateMutability": "view",
      "type": "function"
    },
    {
      "inputs": [
        {
          "internalType": "uint256",
          "name": "",
          "type": "uint256"
        }
      ],
      "name": "betTypes",
      "outputs": [
        {
          "internalType": "enum SportsBetting.BetType",
          "name": "",
          "type": "uint8"
        }
      ],
      "stateMutability": "view",
      "type": "function"
    },
    {
      "inputs": [
        {
          "internalType": "string",
          "name": "",
          "type": "string"
        }
      ],
      "name": "bettingState",
      "outputs": [
        {
          "internalType": "enum SportsBetting.BettingState",
          "name": "",
          "type": "uint8"
        }
      ],
      "stateMutability": "view",
      "type": "function"
    },
    {
      "inputs": [],
      "name": "chainlink",
      "outputs": [
        {
          "internalType": "address",
          "name": "",
          "type": "address"
        }
      ],
      "stateMutability": "view",
      "type": "function"
    },
    {
      "inputs": [
        {
          "internalType": "string",
          "name": "fixtureID",
          "type": "string"
        }
      ],
      "name": "closeBetForFixture",
      "outputs": [],
      "stateMutability": "nonpayable",
      "type": "function"
    },
    {
      "inputs": [
        {
          "internalType": "string",
          "name": "",
          "type": "string"
        }
      ],
      "name": "commissionMap",
      "outputs": [
        {
          "internalType": "uint256",
          "name": "",
          "type": "uint256"
        }
      ],
      "stateMutability": "view",
      "type": "function"
    },
    {
      "inputs": [],
      "name": "commissionRate",
      "outputs": [
        {
          "internalType": "uint256",
          "name": "",
          "type": "uint256"
        }
      ],
      "stateMutability": "view",
      "type": "function"
    },
    {
      "inputs": [],
      "name": "entranceFee",
      "outputs": [
        {
          "internalType": "uint256",
          "name": "",
          "type": "uint256"
        }
      ],
      "stateMutability": "view",
      "type": "function"
    },
    {
      "inputs": [],
      "name": "fixtureResult",
      "outputs": [
        {
          "internalType": "string",
          "name": "",
          "type": "string"
        }
      ],
      "stateMutability": "view",
      "type": "function"
    },
    {
      "inputs": [
        {
          "internalType": "string",
          "name": "",
          "type": "string"
        }
      ],
      "name": "fixtureToKickoffTime",
      "outputs": [
        {
          "internalType": "uint256",
          "name": "",
          "type": "uint256"
        }
      ],
      "stateMutability": "view",
      "type": "function"
    },
    {
      "inputs": [
        {
          "internalType": "string",
          "name": "fixtureID",
          "type": "string"
        }
      ],
      "name": "fulfillBetForFixture",
      "outputs": [],
      "stateMutability": "nonpayable",
      "type": "function"
    },
    {
      "inputs": [
        {
          "internalType": "string",
          "name": "fixtureID",
          "type": "string"
        },
        {
          "internalType": "address",
          "name": "user",
          "type": "address"
        }
      ],
      "name": "getEnrichedFixtureData",
      "outputs": [
        {
          "components": [
            {
              "internalType": "enum SportsBetting.BettingState",
              "name": "fixtureState",
              "type": "uint8"
            },
            {
              "internalType": "uint256[3]",
              "name": "total",
              "type": "uint256[3]"
            },
            {
              "internalType": "uint256[3]",
              "name": "user",
              "type": "uint256[3]"
            }
          ],
          "internalType": "struct SportsBetting.FixtureEnrichment",
          "name": "",
          "type": "tuple"
        }
      ],
      "stateMutability": "view",
      "type": "function"
    },
    {
      "inputs": [
        {
          "internalType": "string",
          "name": "",
          "type": "string"
        },
        {
          "internalType": "enum SportsBetting.BetType",
          "name": "",
          "type": "uint8"
        },
        {
          "internalType": "uint256",
          "name": "",
          "type": "uint256"
        }
      ],
      "name": "historicalBetters",
      "outputs": [
        {
          "internalType": "address",
          "name": "",
          "type": "address"
        }
      ],
      "stateMutability": "view",
      "type": "function"
    },
    {
      "inputs": [
        {
          "internalType": "string",
          "name": "",
          "type": "string"
        },
        {
          "internalType": "enum SportsBetting.BetType",
          "name": "",
          "type": "uint8"
        },
        {
          "internalType": "address",
          "name": "",
          "type": "address"
        }
      ],
      "name": "historicalBettersIndex",
      "outputs": [
        {
          "internalType": "uint256",
          "name": "",
          "type": "uint256"
        }
      ],
      "stateMutability": "view",
      "type": "function"
    },
    {
      "inputs": [
        {
          "internalType": "string",
          "name": "fixtureID",
          "type": "string"
        }
      ],
      "name": "openBetForFixture",
      "outputs": [],
      "stateMutability": "nonpayable",
      "type": "function"
    },
    {
      "inputs": [],
      "name": "owner",
      "outputs": [
        {
          "internalType": "address",
          "name": "",
          "type": "address"
        }
      ],
      "stateMutability": "view",
      "type": "function"
    },
    {
      "inputs": [
        {
          "internalType": "string",
          "name": "",
          "type": "string"
        },
        {
          "internalType": "address",
          "name": "",
          "type": "address"
        }
      ],
      "name": "payouts",
      "outputs": [
        {
          "internalType": "uint256",
          "name": "",
          "type": "uint256"
        }
      ],
      "stateMutability": "view",
      "type": "function"
    },
    {
      "inputs": [
        {
          "internalType": "bytes32",
          "name": "_requestId",
          "type": "bytes32"
        },
        {
          "internalType": "uint256",
          "name": "_ko",
          "type": "uint256"
        }
      ],
      "name": "rawFulfillFixtureKickoffTime",
      "outputs": [],
      "stateMutability": "nonpayable",
      "type": "function"
    },
    {
      "inputs": [
        {
          "internalType": "bytes32",
          "name": "_requestId",
          "type": "bytes32"
        },
        {
          "internalType": "uint256",
          "name": "_result",
          "type": "uint256"
        }
      ],
      "name": "rawFulfillFixtureResult",
      "outputs": [],
      "stateMutability": "nonpayable",
      "type": "function"
    },
    {
      "inputs": [
        {
          "internalType": "string",
          "name": "fixtureID",
          "type": "string"
        }
      ],
      "name": "requestFixtureKickoffTime",
      "outputs": [],
      "stateMutability": "nonpayable",
      "type": "function"
    },
    {
      "inputs": [
        {
          "internalType": "string",
          "name": "fixtureID",
          "type": "string"
        }
      ],
      "name": "requestFixtureKickoffTimeParameter",
      "outputs": [
        {
          "internalType": "bytes32",
          "name": "",
          "type": "bytes32"
        }
      ],
      "stateMutability": "nonpayable",
      "type": "function"
    },
    {
      "inputs": [
        {
          "internalType": "string",
          "name": "fixtureID",
          "type": "string"
        }
      ],
      "name": "requestFixtureResult",
      "outputs": [],
      "stateMutability": "nonpayable",
      "type": "function"
    },
    {
      "inputs": [
        {
          "internalType": "string",
          "name": "fixtureID",
          "type": "string"
        }
      ],
      "name": "requestFixtureResultParameter",
      "outputs": [
        {
          "internalType": "bytes32",
          "name": "",
          "type": "bytes32"
        }
      ],
      "stateMutability": "nonpayable",
      "type": "function"
    },
    {
      "inputs": [
        {
          "internalType": "bytes32",
          "name": "",
          "type": "bytes32"
        }
      ],
      "name": "requestKickoffToFixture",
      "outputs": [
        {
          "internalType": "string",
          "name": "",
          "type": "string"
        }
      ],
      "stateMutability": "view",
      "type": "function"
    },
    {
      "inputs": [
        {
          "internalType": "bytes32",
          "name": "",
          "type": "bytes32"
        }
      ],
      "name": "requestResultToFixture",
      "outputs": [
        {
          "internalType": "string",
          "name": "",
          "type": "string"
        }
      ],
      "stateMutability": "view",
      "type": "function"
    },
    {
      "inputs": [],
      "name": "sportsOracleURI",
      "outputs": [
        {
          "internalType": "string",
          "name": "",
          "type": "string"
        }
      ],
      "stateMutability": "view",
      "type": "function"
    },
    {
      "inputs": [
        {
          "internalType": "string",
          "name": "fixtureID",
          "type": "string"
        },
        {
          "internalType": "enum SportsBetting.BetType",
          "name": "betType",
          "type": "uint8"
        }
      ],
      "name": "stake",
      "outputs": [],
      "stateMutability": "payable",
      "type": "function"
    },
    {
      "inputs": [
        {
          "internalType": "uint256",
          "name": "amount",
          "type": "uint256"
        }
      ],
      "name": "transferLink",
      "outputs": [],
      "stateMutability": "nonpayable",
      "type": "function"
    },
    {
      "inputs": [
        {
          "internalType": "string",
          "name": "fixtureID",
          "type": "string"
        },
        {
          "internalType": "enum SportsBetting.BetType",
          "name": "betType",
          "type": "uint8"
        },
        {
          "internalType": "uint256",
          "name": "amount",
          "type": "uint256"
        }
      ],
      "name": "unstake",
      "outputs": [],
      "stateMutability": "nonpayable",
      "type": "function"
    },
    {
      "inputs": [
        {
          "internalType": "address",
          "name": "",
          "type": "address"
        }
      ],
      "name": "userToLink",
      "outputs": [
        {
          "internalType": "uint256",
          "name": "",
          "type": "uint256"
        }
      ],
      "stateMutability": "view",
      "type": "function"
    },
    {
      "inputs": [
        {
          "internalType": "uint256",
          "name": "amount",
          "type": "uint256"
        }
      ],
      "name": "withdrawLink",
      "outputs": [],
      "stateMutability": "nonpayable",
      "type": "function"
    }
  ],
  "transactionHash": "0xc74d76c8b4c79f2223a1ee6c746022624c6d7512dc80ad0c2b542292503d0426",
  "args": [
    "https://1vyuff64d9.execute-api.us-east-1.amazonaws.com/dev/premier-league/fixtures/",
    "0x2362A262148518Ce69600Cc5a6032aC8391233f5",
    "0xd14838A68E8AFBAdE5efb411d5871ea0011AFd28",
    "7599d3c8f31e4ce78ad2b790cbcfc673",
    "100000000000000000",
    2
  ],
  "numDeployments": 12,
  "solcInputHash": "edcc6c13e522885fc14bf11978941d36",
  "bytecode": "0x60806040526001600455655af3107a4000600e5562093a806011556115186012553480156200002d57600080fd5b50604051620047da380380620047da8339810160408190526200005091620002b6565b858585858584600790805190602001906200006d92919062000126565b50600280546001600160a01b0319166001600160a01b038516179055600380546001600160a01b0319166001600160a01b038616179055600680546001600160a01b0319166001600160a01b038616179055620000ca8262000108565b6008556009555050600c805463ffffffff191663030201001790555050600d80546001600160a01b03191633179055600f5550620003949350505050565b805160009082906200011d5750600092915050565b50506020015190565b828054620001349062000357565b90600052602060002090601f016020900481019282620001585760008555620001a3565b82601f106200017357805160ff1916838001178555620001a3565b82800160010185558215620001a3579182015b82811115620001a357825182559160200191906001019062000186565b50620001b1929150620001b5565b5090565b5b80821115620001b15760008155600101620001b6565b634e487b7160e01b600052604160045260246000fd5b600082601f830112620001f457600080fd5b81516001600160401b0380821115620002115762000211620001cc565b604051601f8301601f19908116603f011681019082821181831017156200023c576200023c620001cc565b816040528381526020925086838588010111156200025957600080fd5b600091505b838210156200027d57858201830151818301840152908201906200025e565b838211156200028f5760008385830101525b9695505050505050565b80516001600160a01b0381168114620002b157600080fd5b919050565b60008060008060008060c08789031215620002d057600080fd5b86516001600160401b0380821115620002e857600080fd5b620002f68a838b01620001e2565b97506200030660208a0162000299565b96506200031660408a0162000299565b955060608901519150808211156200032d57600080fd5b506200033c89828a01620001e2565b9350506080870151915060a087015190509295509295509295565b600181811c908216806200036c57607f821691505b602082108114156200038e57634e487b7160e01b600052602260045260246000fd5b50919050565b61443680620003a46000396000f3fe6080604052600436106102335760003560e01c80638a71bfa811610138578063cbef85c2116100b0578063ef40efde1161007f578063f6573b4f11610064578063f6573b4f14610736578063f7c60c0c1461076e578063fbe913931461078357600080fd5b8063ef40efde146106f6578063f46dccf01461071657600080fd5b8063cbef85c21461061d578063d8654c081461067e578063e37685ec1461069e578063edb16070146106be57600080fd5b8063aa06609011610107578063b148cdf1116100ec578063b148cdf1146105bb578063c40bc66b146105dd578063c8fe739c146105fd57600080fd5b8063aa06609014610540578063abf949f81461058e57600080fd5b80638a71bfa8146104a85780638da5cb5b146104c85780639959a30f146105005780639c3feeb71461052057600080fd5b80635ea1d6f8116101cb5780636e2a3a841161019a5780637a8042bd1161017f5780637a8042bd146104205780637c5e9405146104405780637cc2c2f81461048857600080fd5b80636e2a3a84146103e0578063793970e11461040057600080fd5b80635ea1d6f8146103395780635ec421a71461034f57806362098ff71461039d578063649677e1146103ca57600080fd5b806339ea07911161020757806339ea0791146102c357806340364d11146102f05780634bfc91ee146103035780635e5243191461031957600080fd5b8062e1a75b1461023857806301ec29c91461025a578063106246d81461027a5780631d686ae4146102a3575b600080fd5b34801561024457600080fd5b50610258610253366004613bb0565b6107cb565b005b34801561026657600080fd5b50610258610275366004613bb0565b61086a565b34801561028657600080fd5b5061029060115481565b6040519081526020015b60405180910390f35b3480156102af57600080fd5b506102906102be366004613bb0565b6108f6565b3480156102cf57600080fd5b506102906102de366004613bfc565b600b6020526000908152604090205481565b6102586102fe366004613c26565b610ab9565b34801561030f57600080fd5b5061029060125481565b34801561032557600080fd5b50610258610334366004613c74565b610d40565b34801561034557600080fd5b50610290600f5481565b34801561035b57600080fd5b5061029061036a366004613ccb565b82516020818501810180516014825292820195820195909520919094528352600091825260408083209093528152205481565b3480156103a957600080fd5b506103bd6103b8366004613d29565b610e2d565b60405161029a9190613d6c565b3480156103d657600080fd5b50610290600e5481565b3480156103ec57600080fd5b506102586103fb366004613bb0565b610e57565b34801561040c57600080fd5b5061025861041b366004613bb0565b610f4e565b34801561042c57600080fd5b5061025861043b366004613d29565b610fae565b34801561044c57600080fd5b5061029061045b366004613d7a565b81516020818401810180516017825292820194820194909420919093529091526000908152604090205481565b34801561049457600080fd5b506102586104a3366004613d29565b61111d565b3480156104b457600080fd5b506102586104c3366004613dbf565b611238565b3480156104d457600080fd5b50600d546104e8906001600160a01b031681565b6040516001600160a01b03909116815260200161029a565b34801561050c57600080fd5b5061025861051b366004613bb0565b611358565b34801561052c57600080fd5b506006546104e8906001600160a01b031681565b34801561054c57600080fd5b5061029061055b366004613ccb565b82516020818501810180516016825292820195820195909520919094528352600091825260408083209093528152205481565b34801561059a57600080fd5b506105ae6105a9366004613d7a565b6113b8565b60405161029a9190613e14565b3480156105c757600080fd5b506105d0611456565b60405161029a9190613eab565b3480156105e957600080fd5b506105d06105f8366004613d29565b6114e4565b34801561060957600080fd5b506104e8610618366004613c74565b6114fd565b34801561062957600080fd5b5061066e610638366004613ccb565b82516020818501810180516015825292820195820195909520919094528352600091825260408083209093528152205460ff1681565b604051901515815260200161029a565b34801561068a57600080fd5b50610290610699366004613bb0565b61154c565b3480156106aa57600080fd5b506102586106b9366004613dbf565b6116a1565b3480156106ca57600080fd5b506102906106d9366004613bb0565b805160208183018101805160198252928201919093012091525481565b34801561070257600080fd5b50610258610711366004613bb0565b6117c1565b34801561072257600080fd5b506105d0610731366004613d29565b611845565b34801561074257600080fd5b50610290610751366004613bb0565b805160208183018101805160108252928201919093012091525481565b34801561077a57600080fd5b506105d061185e565b34801561078f57600080fd5b506107be61079e366004613bb0565b805160208183018101805160188252928201919093012091525460ff1681565b60405161029a9190613ebe565b60006018826040516107dd9190613ee8565b9081526040519081900360200190205460ff16600581111561080157610801613d42565b146108535760405162461bcd60e51b815260206004820152601960248201527f426574207374617465206d75737420626520434c4f5345442e0000000000000060448201526064015b60405180910390fd5b61085e81600161186b565b61086781611358565b50565b600260188260405161087c9190613ee8565b9081526040519081900360200190205460ff1660058111156108a0576108a0613d42565b146108ed5760405162461bcd60e51b815260206004820152601760248201527f426574207374617465206d757374206265204f50454e2e000000000000000000604482015260640161084a565b61086781611929565b600954336000908152600b60205260408120549091106109585760405162461bcd60e51b815260206004820152601d60248201527f596f7520686176656e27742073656e7420656e6f756768204c494e4b2e000000604482015260640161084a565b600954336000908152600b60205260408120805490919061097a908490613f1a565b90915550506008546000906109b090307fe37685ec00000000000000000000000000000000000000000000000000000000611b51565b90506109fd6040518060400160405280600381526020016219d95d60ea1b8152506007856040516020016109e5929190613f66565b60408051601f19818403018152919052839190611be4565b610a63604051806040016040528060048152602001630e0c2e8d60e31b8152506040518060400160405280600481526020017f302c6b6f0000000000000000000000000000000000000000000000000000000081525083611be49092919063ffffffff16565b60408051808201909152600881527f6d756c7469706c790000000000000000000000000000000000000000000000006020820152610aa49082906001611c02565b610ab081600954611c20565b9150505b919050565b610ac282611929565b6000816003811115610ad657610ad6613d42565b1415610b245760405162461bcd60e51b815260206004820152601e60248201527f546869732042657454797065206973206e6f74207065726d69747465642e0000604482015260640161084a565b6002601883604051610b369190613ee8565b9081526040519081900360200190205460ff166005811115610b5a57610b5a613d42565b14610ba75760405162461bcd60e51b815260206004820152601960248201527f426574206163746976697479206973206e6f74206f70656e2e00000000000000604482015260640161084a565b600e54341015610bf95760405162461bcd60e51b815260206004820152601d60248201527f416d6f756e742069732062656c6f7720656e7472616e6365206665652e000000604482015260640161084a565b34601683604051610c0a9190613ee8565b90815260200160405180910390206000836003811115610c2c57610c2c613d42565b6003811115610c3d57610c3d613d42565b81526020019081526020016000206000336001600160a01b03166001600160a01b031681526020019081526020016000206000828254610c7d9190614004565b90915550610c8e9050828233611c3a565b6001601583604051610ca09190613ee8565b90815260200160405180910390206000836003811115610cc257610cc2613d42565b6003811115610cd357610cd3613d42565b815260208082019290925260409081016000908120338083529352819020805460ff19169315159390931790925590517f1a48cf6315f5f44cf8ac3a5105296caf8a73f64b40f9a6b7cbf8ba65ca930fd490610d349085903490869061401c565b60405180910390a25050565b60008111610d905760405162461bcd60e51b815260206004820152601a60248201527f416d6f756e742073686f756c6420657863656564207a65726f2e000000000000604482015260640161084a565b610d9983611929565b6002601884604051610dab9190613ee8565b9081526040519081900360200190205460ff166005811115610dcf57610dcf613d42565b14610e1c5760405162461bcd60e51b815260206004820152601d60248201527f46697874757265206973206e6f7420696e204f70656e2073746174652e000000604482015260640161084a565b610e2883838333611d9b565b505050565b600c8160048110610e3d57600080fd5b60209182820401919006915054906101000a900460ff1681565b6003601882604051610e699190613ee8565b9081526040519081900360200190205460ff166005811115610e8d57610e8d613d42565b1480610ecc57506004601882604051610ea69190613ee8565b9081526040519081900360200190205460ff166005811115610eca57610eca613d42565b145b610f3e5760405162461bcd60e51b815260206004820152602960248201527f426574207374617465206d757374206265204157414954494e47206f7220465560448201527f4c46494c4c494e472e0000000000000000000000000000000000000000000000606482015260840161084a565b610f4981600461186b565b610867815b6000610f598261154c565b6000818152601b602090815260409091208451929350610f7d9290918501906139d4565b50807f203eeb39bf08702855bb5830b3ec49ea10fb51bde91904739f7c0c3ab41776d583604051610d349190613eab565b336000908152600b602052604090205481111561100d5760405162461bcd60e51b815260206004820152601a60248201527f596f7520646f6e2774206861766520656e6f756768206c696e6b000000000000604482015260640161084a565b336000908152600b60205260408120805483929061102c908490613f1a565b90915550506002546000906001600160a01b03166040517fa9059cbb000000000000000000000000000000000000000000000000000000008152336004820152602481018490529091506001600160a01b0382169063a9059cbb906044016020604051808303816000875af11580156110a9573d6000803e3d6000fd5b505050506040513d601f19601f820116820180604052508101906110cd9190614044565b6111195760405162461bcd60e51b815260206004820152601260248201527f556e61626c6520746f207472616e736665720000000000000000000000000000604482015260640161084a565b5050565b60006111316002546001600160a01b031690565b6040517f23b872dd000000000000000000000000000000000000000000000000000000008152336004820152306024820152604481018490529091506001600160a01b038216906323b872dd906064016020604051808303816000875af11580156111a0573d6000803e3d6000fd5b505050506040513d601f19601f820116820180604052508101906111c49190614044565b6112105760405162461bcd60e51b815260206004820152601260248201527f556e61626c6520746f207472616e736665720000000000000000000000000000604482015260640161084a565b336000908152600b60205260408120805484929061122f908490614004565b90915550505050565b60008281526005602052604090205482906001600160a01b031633146112b15760405162461bcd60e51b815260206004820152602860248201527f536f75726365206d75737420626520746865206f7261636c65206f6620746865604482015267081c995c5d595cdd60c21b606482015260840161084a565b60008181526005602052604080822080546001600160a01b03191690555182917f7cc135e0cebb02c3480ae5d74d377283180a2601f8f644edf7987b009316c63a91a26006546001600160a01b0316331461134e5760405162461bcd60e51b815260206004820181905260248201527f4f6e6c7920436861696e6c696e6b436c69656e742063616e2066756c66696c6c604482015260640161084a565b610e288383611e29565b6000611363826108f6565b6000818152601a6020908152604090912084519293506113879290918501906139d4565b50807f45d732f7bcf8bc3eb58d8fd2fe72f5d05aa36dadc20e6c9989abd2a741d81cac83604051610d349190613eab565b6113c0613a58565b60405180606001604052806018856040516113db9190613ee8565b9081526040519081900360200190205460ff1660058111156113ff576113ff613d42565b8152602001604051806060016040528061141a876001611f6d565b815260200161142a876002611f6d565b815260200161143a876003611f6d565b9052815260200161144b8585612150565b905290505b92915050565b6007805461146390613f31565b80601f016020809104026020016040519081016040528092919081815260200182805461148f90613f31565b80156114dc5780601f106114b1576101008083540402835291602001916114dc565b820191906000526020600020905b8154815290600101906020018083116114bf57829003601f168201915b505050505081565b601a602052600090815260409020805461146390613f31565b825160208185018101805160138252928201828701209290525260008281526040902080548290811061152f57600080fd5b6000918252602090912001546001600160a01b0316925083915050565b600954336000908152600b60205260408120549091106115ae5760405162461bcd60e51b815260206004820152601d60248201527f596f7520686176656e27742073656e7420656e6f756768204c494e4b2e000000604482015260640161084a565b600954336000908152600b6020526040812080549091906115d0908490613f1a565b909155505060085460009061160690307f8a71bfa800000000000000000000000000000000000000000000000000000000611b51565b905061163b6040518060400160405280600381526020016219d95d60ea1b8152506007856040516020016109e5929190613f66565b610a63604051806040016040528060048152602001630e0c2e8d60e31b8152506040518060400160405280600881526020017f302c726573756c7400000000000000000000000000000000000000000000000081525083611be49092919063ffffffff16565b60008281526005602052604090205482906001600160a01b0316331461171a5760405162461bcd60e51b815260206004820152602860248201527f536f75726365206d75737420626520746865206f7261636c65206f6620746865604482015267081c995c5d595cdd60c21b606482015260840161084a565b60008181526005602052604080822080546001600160a01b03191690555182917f7cc135e0cebb02c3480ae5d74d377283180a2601f8f644edf7987b009316c63a91a26006546001600160a01b031633146117b75760405162461bcd60e51b815260206004820181905260248201527f4f6e6c7920436861696e6c696e6b436c69656e742063616e2066756c66696c6c604482015260640161084a565b610e288383612238565b60006018826040516117d39190613ee8565b9081526040519081900360200190205460ff1660058111156117f7576117f7613d42565b14156108ed5760405162461bcd60e51b815260206004820152601c60248201527f42657420737461746520697320616c726561647920434c4f5345442e00000000604482015260640161084a565b601b602052600090815260409020805461146390613f31565b600a805461146390613f31565b8060188360405161187c9190613ee8565b908152604051908190036020019020805460ff191660018360058111156118a5576118a5613d42565b02179055507fe10ba6722d7a7a91bf343a0f8e5b026910dbc4a2ebca276930dff31703c59a7082826040516118db929190614066565b60405180910390a160028160058111156118f7576118f7613d42565b1415611906576111198261231e565b600081600581111561191a5761191a613d42565b1415611119576111198261236e565b600060198260405161193b9190613ee8565b908152602001604051809103902054905080600014156119605761111982600061186b565b60016018836040516119729190613ee8565b9081526040519081900360200190205460ff16600581111561199657611996613d42565b1480156119c357506012546119ab9082613f1a565b4211806119c357506011546119c09082613f1a565b42105b156119d35761111982600061186b565b60026018836040516119e59190613ee8565b9081526040519081900360200190205460ff166005811115611a0957611a09613d42565b1480611a4857506003601883604051611a229190613ee8565b9081526040519081900360200190205460ff166005811115611a4657611a46613d42565b145b8015611a5f5750601154611a5c9082613f1a565b42105b15611a6f5761111982600061186b565b6001601883604051611a819190613ee8565b9081526040519081900360200190205460ff166005811115611aa557611aa5613d42565b148015611abe5750601254611aba9082613f1a565b4211155b8015611ad65750601154611ad29082613f1a565b4210155b15611ae65761111982600261186b565b6002601883604051611af89190613ee8565b9081526040519081900360200190205460ff166005811115611b1c57611b1c613d42565b148015611b345750601254611b319082613f1a565b42115b8015611b41575060125415155b156111195761111982600361186b565b611b8f6040805160a0810182526000808252602080830182905282840182905260608084018390528451808601909552845283015290608082015290565b611bcd6040805160a0810182526000808252602080830182905282840182905260608084018390528451808601909552845283015290608082015290565b611bd9818686866123be565b9150505b9392505050565b6080830151611bf39083612452565b6080830151610e289082612452565b6080830151611c119083612452565b6080830151610e289082612469565b600354600090611bdd906001600160a01b031684846124c9565b611c458383836125a2565b610e2857601383604051611c599190613ee8565b90815260200160405180910390206000836003811115611c7b57611c7b613d42565b6003811115611c8c57611c8c613d42565b815260200190815260200160002080549050601484604051611cae9190613ee8565b90815260200160405180910390206000846003811115611cd057611cd0613d42565b6003811115611ce157611ce1613d42565b81526020019081526020016000206000836001600160a01b03166001600160a01b0316815260200190815260200160002081905550601383604051611d269190613ee8565b90815260200160405180910390206000836003811115611d4857611d48613d42565b6003811115611d5957611d59613d42565b8152602080820192909252604001600090812080546001810182559082529190200180546001600160a01b0383166001600160a01b0319909116179055505050565b611da784848484612647565b6040516001600160a01b0382169083156108fc029084906000818181858888f19350505050158015611ddd573d6000803e3d6000fd5b50806001600160a01b03167f0f3b118062ef97715cdb7fc34e6b3bc6bf1c6ddbbbbc4e8d6f13eff984080d08858486604051611e1b9392919061401c565b60405180910390a250505050565b6000828152601b602052604081208054611e4290613f31565b80601f0160208091040260200160405190810160405280929190818152602001828054611e6e90613f31565b8015611ebb5780601f10611e9057610100808354040283529160200191611ebb565b820191906000526020600020905b815481529060010190602001808311611e9e57829003601f168201915b50505050509050827f991c3e65c24cac8eb9898540ce857bbd06f702f19ac9ee6562bd97b96b0d898c8284604051611ef4929190614088565b60405180910390a26004601882604051611f0e9190613ee8565b9081526040519081900360200190205460ff166005811115611f3257611f32613d42565b1415610e28576000611f4482846128e0565b90508015611f5c57611f5782600561186b565b611f67565b611f6782600361186b565b50505050565b60008060005b601385604051611f839190613ee8565b90815260200160405180910390206000856003811115611fa557611fa5613d42565b6003811115611fb657611fb6613d42565b8152602081019190915260400160002054811015612148576000601386604051611fe09190613ee8565b9081526020016040518091039020600086600381111561200257612002613d42565b600381111561201357612013613d42565b81526020019081526020016000208281548110612032576120326140aa565b6000918252602090912001546040516001600160a01b03909116915060159061205c908890613ee8565b9081526020016040518091039020600086600381111561207e5761207e613d42565b600381111561208f5761208f613d42565b8152602080820192909252604090810160009081206001600160a01b038516825290925290205460ff1615612135576016866040516120ce9190613ee8565b908152602001604051809103902060008660038111156120f0576120f0613d42565b600381111561210157612101613d42565b8152602080820192909252604090810160009081206001600160a01b03851682529092529020546121329084614004565b92505b5080612140816140c0565b915050611f73565b509392505050565b612158613a85565b60405180606001604052806016856040516121739190613ee8565b9081526040805160209281900383019020600160009081529083528181206001600160a01b03881682528352819020548352519101906016906121b7908790613ee8565b9081526040805160209281900383019020600260009081529083528181206001600160a01b03881682528352819020548352519101906016906121fb908790613ee8565b9081526040805160209281900383019020600360009081529083528181206001600160a01b03979097168152959091529093205490925250919050565b6000828152601a60205260408120805461225190613f31565b80601f016020809104026020016040519081016040528092919081815260200182805461227d90613f31565b80156122ca5780601f1061229f576101008083540402835291602001916122ca565b820191906000526020600020905b8154815290600101906020018083116122ad57829003601f168201915b50505050509050827f0a19aa077773e15e05c85beefc64244b7b27068fccb13becb7bf450ff41fa89c8284604051612303929190614088565b60405180910390a26123158183612aa6565b610e2881611929565b60005b60048110156111195761235c82600c8360048110612341576123416140aa565b602081049091015460ff601f9092166101000a900416612b2b565b80612366816140c0565b915050612321565b60005b6004811015611119576123ac82600c8360048110612391576123916140aa565b602081049091015460ff601f9092166101000a900416612b97565b806123b6816140c0565b915050612371565b6123fc6040805160a0810182526000808252602080830182905282840182905260608084018390528451808601909552845283015290608082015290565b61240c8560800151610100612d7f565b50508284526001600160a01b03821660208501527fffffffff0000000000000000000000000000000000000000000000000000000081166040850152835b949350505050565b61245f8260038351612de4565b610e288282612ef3565b67ffffffffffffffff19811215612484576111198282612f1a565b67ffffffffffffffff81131561249e576111198282612f5c565b600081126124b25761111982600083612de4565b6111198260016124c4846000196140db565b612de4565b6004546000906124da816001614004565b600455835160408086015160808701515191516000937f40429946000000000000000000000000000000000000000000000000000000009361252b9386938493923092918a9160019160240161414f565b60408051601f198184030181529190526020810180517bffffffffffffffffffffffffffffffffffffffffffffffffffffffff167fffffffff0000000000000000000000000000000000000000000000000000000090931692909217909152905061259886838684612f7f565b9695505050505050565b60006001600160a01b03821615801590612630575060006014856040516125c99190613ee8565b908152602001604051809103902060008560038111156125eb576125eb613d42565b60038111156125fc576125fc613d42565b81526020019081526020016000206000846001600160a01b03166001600160a01b0316815260200190815260200160002054115b1561263d57506001611bdd565b5060009392505050565b60006016856040516126599190613ee8565b9081526020016040518091039020600085600381111561267b5761267b613d42565b600381111561268c5761268c613d42565b81526020019081526020016000206000836001600160a01b03166001600160a01b03168152602001908152602001600020549050600081116127105760405162461bcd60e51b815260206004820181905260248201527f4e6f207374616b65206f6e207468697320616464726573732d726573756c742e604482015260640161084a565b808311156127605760405162461bcd60e51b815260206004820152601660248201527f43757272656e74207374616b6520746f6f206c6f772e00000000000000000000604482015260640161084a565b61276a8382613f1a565b60168660405161277a9190613ee8565b9081526020016040518091039020600086600381111561279c5761279c613d42565b60038111156127ad576127ad613d42565b81526020019081526020016000206000846001600160a01b03166001600160a01b031681526020019081526020016000208190555060006016866040516127f49190613ee8565b9081526020016040518091039020600086600381111561281657612816613d42565b600381111561282757612827613d42565b81526020019081526020016000206000846001600160a01b03166001600160a01b0316815260200190815260200160002054116128d95760006015866040516128709190613ee8565b9081526020016040518091039020600086600381111561289257612892613d42565b60038111156128a3576128a3613d42565b8152602080820192909252604090810160009081206001600160a01b03871682529092529020805460ff19169115159190911790555b5050505050565b6000806128ed8484613110565b9050600081600381111561290357612903613d42565b1415612913576000915050611450565b604080516001808252818301909252600091602080830190803683370190505090508181600081518110612949576129496140aa565b6020026020010190600381111561296257612962613d42565b9081600381111561297557612975613d42565b9052506000612983836131ac565b90506000612991878461330a565b9050600061299f888461330a565b905060006129ad8284614004565b905082156129c6576129c18987858461335a565b612a97565b8060178a6040516129d79190613ee8565b9081526040805160209281900383019020600d546001600160a01b03166000908152925281208054909190612a0d908490614004565b9091555050600d546040516001600160a01b039091169082156108fc029083906000818181858888f19350505050158015612a4c573d6000803e3d6000fd5b50600d546040516001600160a01b03909116907fc0acd5bc47ab9bd28274b4de553779f718ae53f42f84fe011e7eed61cda99cbd90612a8e908c908590614088565b60405180910390a25b50600198975050505050505050565b601982604051612ab69190613ee8565b90815260200160405180910390205481146111195780601983604051612adc9190613ee8565b9081526020016040518091039020819055507f20af5e7c127dd84267ef67d2a1fa455b47bc60840459b4db987929e37daf07a38282604051612b1f929190614088565b60405180910390a15050565b60408051602081018252600081529051601390612b49908590613ee8565b90815260200160405180910390206000836003811115612b6b57612b6b613d42565b6003811115612b7c57612b7c613d42565b81526020810191909152604001600020610e28916001613aa3565b60005b601383604051612baa9190613ee8565b90815260200160405180910390206000836003811115612bcc57612bcc613d42565b6003811115612bdd57612bdd613d42565b8152602081019190915260400160002054811015610e28576000601384604051612c079190613ee8565b90815260200160405180910390206000846003811115612c2957612c29613d42565b6003811115612c3a57612c3a613d42565b81526020019081526020016000208281548110612c5957612c596140aa565b6000918252602090912001546040516001600160a01b039091169150601590612c83908690613ee8565b90815260200160405180910390206000846003811115612ca557612ca5613d42565b6003811115612cb657612cb6613d42565b8152602080820192909252604090810160009081206001600160a01b038516825290925290205460ff1615612d6c576000601685604051612cf79190613ee8565b90815260200160405180910390206000856003811115612d1957612d19613d42565b6003811115612d2a57612d2a613d42565b81526020019081526020016000206000836001600160a01b03166001600160a01b03168152602001908152602001600020549050612d6a85858385611d9b565b505b5080612d77816140c0565b915050612b9a565b604080518082019091526060815260006020820152612d9f6020836141e1565b15612dc757612daf6020836141e1565b612dba906020613f1a565b612dc49083614004565b91505b506020828101829052604080518085526000815290920101905290565b60178167ffffffffffffffff1611612e0957611f678360e0600585901b168317613787565b60ff8167ffffffffffffffff1611612e4757612e30836018611fe0600586901b1617613787565b50611f678367ffffffffffffffff831660016137ac565b61ffff8167ffffffffffffffff1611612e8657612e6f836019611fe0600586901b1617613787565b50611f678367ffffffffffffffff831660026137ac565b63ffffffff8167ffffffffffffffff1611612ec757612eb083601a611fe0600586901b1617613787565b50611f678367ffffffffffffffff831660046137ac565b612edc83601b611fe0600586901b1617613787565b50611f678367ffffffffffffffff831660086137ac565b604080518082019091526060815260006020820152611bdd838460000151518485516137d2565b612f258260c3613787565b5061111982612f36836000196140db565b604051602001612f4891815260200190565b6040516020818303038152906040526138bc565b612f678260c2613787565b506111198282604051602001612f4891815260200190565b6040516bffffffffffffffffffffffff193060601b1660208201526034810184905260009060540160408051808303601f1901815282825280516020918201206000818152600590925291812080546001600160a01b0319166001600160a01b038a1617905590925082917fb5e6e01e79f91267dc17b4e6314d5d4d03593d2ceee0fbb452b750bd70ea5af99190a26002546040517f4000aea00000000000000000000000000000000000000000000000000000000081526001600160a01b0390911690634000aea09061305b908890879087906004016141f5565b6020604051808303816000875af115801561307a573d6000803e3d6000fd5b505050506040513d601f19601f8201168201806040525081019061309e9190614044565b61244a5760405162461bcd60e51b815260206004820152602360248201527f756e61626c6520746f207472616e73666572416e6443616c6c20746f206f726160448201527f636c650000000000000000000000000000000000000000000000000000000000606482015260840161084a565b6000600182141561312357506001611450565b600282141561313457506002611450565b600382141561314557506003611450565b6000836040516020016131589190614226565b60405160208183030381529060405290507f2a2c16a3ce1dea0db612b14a8fdc9a8d316acc87914b4d66440d119b41e8615f848260405161319a9291906142b8565b60405180910390a15060009392505050565b604080516002808252606080830184529260009291906020830190803683370190505090506000805b6004811015613301578460038111156131f0576131f0613d42565b600c8260048110613203576132036140aa565b602081049091015460ff601f9092166101000a900416600381111561322a5761322a613d42565b1415801561327257506000600c8260048110613248576132486140aa565b602081049091015460ff601f9092166101000a900416600381111561326f5761326f613d42565b14155b156132ef57600c816004811061328a5761328a6140aa565b602091828204019190069054906101000a900460ff168383815181106132b2576132b26140aa565b602002602001019060038111156132cb576132cb613d42565b908160038111156132de576132de613d42565b9052506132ec600183614004565b91505b806132f9816140c0565b9150506131d5565b50909392505050565b60008060005b83518110156121485761333c8585838151811061332f5761332f6140aa565b6020026020010151611f6d565b6133469083614004565b915080613352816140c0565b915050613310565b600460188560405161336c9190613ee8565b9081526040519081900360200190205460ff16600581111561339057613390613d42565b146133dd5760405162461bcd60e51b815260206004820152601960248201527f426574207374617465206e6f742046554c46494c4c494e472e00000000000000604482015260640161084a565b60005b6013856040516133f09190613ee8565b9081526020016040518091039020600085600381111561341257613412613d42565b600381111561342357613423613d42565b81526020810191909152604001600020548110156136cb57600060138660405161344d9190613ee8565b9081526020016040518091039020600086600381111561346f5761346f613d42565b600381111561348057613480613d42565b8152602001908152602001600020828154811061349f5761349f6140aa565b6000918252602090912001546040516001600160a01b0390911691506015906134c9908890613ee8565b908152602001604051809103902060008660038111156134eb576134eb613d42565b60038111156134fc576134fc613d42565b8152602080820192909252604090810160009081206001600160a01b038516825290925290205460ff16156136b857600060168760405161353d9190613ee8565b9081526020016040518091039020600087600381111561355f5761355f613d42565b600381111561357057613570613d42565b8152602080820192909252604090810160009081206001600160a01b038616825290925281205491506135a386866142dd565b6135ad90836142f1565b905060006064600f54836135c191906142f1565b6135cb91906142dd565b90508060108a6040516135de9190613ee8565b908152602001604051809103902060008282546135fb9190614004565b9091555061360b90508183613f1a565b91508160178a60405161361e9190613ee8565b9081526040805191829003602090810183206001600160a01b0389166000818152919092529182209390935584156108fc02918591818181858888f19350505050158015613670573d6000803e3d6000fd5b50836001600160a01b03167fc0acd5bc47ab9bd28274b4de553779f718ae53f42f84fe011e7eed61cda99cbd8a846040516136ac929190614088565b60405180910390a25050505b50806136c3816140c0565b9150506133e0565b50600d546040516001600160a01b03909116906108fc906010906136f0908890613ee8565b90815260405190819003602001812054801590920291906000818181858888f19350505050158015613726573d6000803e3d6000fd5b50836040516137359190613ee8565b60405180910390207f60b1c59a2aef10b76f58eab3892bfebe9dc131e4f7c750d091592586ae29acc560108660405161376e9190613ee8565b9081526040516020918190038201812054815201611e1b565b604080518082019091526060815260006020820152611bdd83846000015151846138c9565b60408051808201909152606081526000602082015261244a848560000151518585613925565b60408051808201909152606081526000602082015282518211156137f557600080fd5b60208501516138048386614004565b11156138375761383785613827876020015187866138229190614004565b6139a6565b6138329060026142f1565b6139bd565b6000808651805187602083010193508088870111156138565787860182525b505050602084015b602084106138965780518252613875602083614004565b9150613882602082614004565b905061388f602085613f1a565b935061385e565b51815160001960208690036101000a019081169019919091161790525083949350505050565b61245f8260028351612de4565b604080518082019091526060815260006020820152836020015183106138fe576138fe848560200151600261383291906142f1565b83518051602085830101848153508085141561391b576001810182525b5093949350505050565b60408051808201909152606081526000602082015260208501516139498584614004565b111561395d5761395d856138278685614004565b6000600161396d846101006143f4565b6139779190613f1a565b905085518386820101858319825116178152508051848701111561399b5783860181525b509495945050505050565b6000818311156139b7575081611450565b50919050565b81516139c98383612d7f565b50611f678382612ef3565b8280546139e090613f31565b90600052602060002090601f016020900481019282613a025760008555613a48565b82601f10613a1b57805160ff1916838001178555613a48565b82800160010185558215613a48579182015b82811115613a48578251825591602001919060010190613a2d565b50613a54929150613af8565b5090565b60408051606081019091528060008152602001613a73613a85565b8152602001613a80613a85565b905290565b60405180606001604052806003906020820280368337509192915050565b828054828255906000526020600020908101928215613a48579160200282015b82811115613a4857825182546001600160a01b0319166001600160a01b03909116178255602090920191600190910190613ac3565b5b80821115613a545760008155600101613af9565b634e487b7160e01b600052604160045260246000fd5b600082601f830112613b3457600080fd5b813567ffffffffffffffff80821115613b4f57613b4f613b0d565b604051601f8301601f19908116603f01168101908282118183101715613b7757613b77613b0d565b81604052838152866020858801011115613b9057600080fd5b836020870160208301376000602085830101528094505050505092915050565b600060208284031215613bc257600080fd5b813567ffffffffffffffff811115613bd957600080fd5b61244a84828501613b23565b80356001600160a01b0381168114610ab457600080fd5b600060208284031215613c0e57600080fd5b611bdd82613be5565b803560048110610ab457600080fd5b60008060408385031215613c3957600080fd5b823567ffffffffffffffff811115613c5057600080fd5b613c5c85828601613b23565b925050613c6b60208401613c17565b90509250929050565b600080600060608486031215613c8957600080fd5b833567ffffffffffffffff811115613ca057600080fd5b613cac86828701613b23565b935050613cbb60208501613c17565b9150604084013590509250925092565b600080600060608486031215613ce057600080fd5b833567ffffffffffffffff811115613cf757600080fd5b613d0386828701613b23565b935050613d1260208501613c17565b9150613d2060408501613be5565b90509250925092565b600060208284031215613d3b57600080fd5b5035919050565b634e487b7160e01b600052602160045260246000fd5b60048110613d6857613d68613d42565b9052565b602081016114508284613d58565b60008060408385031215613d8d57600080fd5b823567ffffffffffffffff811115613da457600080fd5b613db085828601613b23565b925050613c6b60208401613be5565b60008060408385031215613dd257600080fd5b50508035926020909101359150565b60068110613d6857613d68613d42565b8060005b6003811015611f67578151845260209384019390910190600101613df5565b600060e082019050613e27828451613de1565b6020830151613e396020840182613df1565b506040830151613e4c6080840182613df1565b5092915050565b60005b83811015613e6e578181015183820152602001613e56565b83811115611f675750506000910152565b60008151808452613e97816020860160208601613e53565b601f01601f19169290920160200192915050565b602081526000611bdd6020830184613e7f565b602081016114508284613de1565b60008151613ede818560208601613e53565b9290920192915050565b60008251613efa818460208701613e53565b9190910192915050565b634e487b7160e01b600052601160045260246000fd5b600082821015613f2c57613f2c613f04565b500390565b600181811c90821680613f4557607f821691505b602082108114156139b757634e487b7160e01b600052602260045260246000fd5b600080845481600182811c915080831680613f8257607f831692505b6020808410821415613fa257634e487b7160e01b86526022600452602486fd5b818015613fb65760018114613fc757613ff4565b60ff19861689528489019650613ff4565b60008b81526020902060005b86811015613fec5781548b820152908501908301613fd3565b505084890196505b505050505050611bd98185613ecc565b6000821982111561401757614017613f04565b500190565b60608152600061402f6060830186613e7f565b905083602083015261244a6040830184613d58565b60006020828403121561405657600080fd5b81518015158114611bdd57600080fd5b6040815260006140796040830185613e7f565b9050611bdd6020830184613de1565b60408152600061409b6040830185613e7f565b90508260208301529392505050565b634e487b7160e01b600052603260045260246000fd5b60006000198214156140d4576140d4613f04565b5060010190565b6000808312837f80000000000000000000000000000000000000000000000000000000000000000183128115161561411557614115613f04565b837f7fffffffffffffffffffffffffffffffffffffffffffffffffffffffffffffff01831381161561414957614149613f04565b50500390565b60006101006001600160a01b03808c1684528a60208501528960408501528089166060850152507fffffffff00000000000000000000000000000000000000000000000000000000871660808401528560a08401528460c08401528060e08401526141bc81840185613e7f565b9b9a5050505050505050505050565b634e487b7160e01b600052601260045260246000fd5b6000826141f0576141f06141cb565b500690565b6001600160a01b038416815282602082015260606040820152600061421d6060830184613e7f565b95945050505050565b7f4572726f72206f6e20666978747572652000000000000000000000000000000081526000825161425e816011850160208701613e53565b7f3a20556e6b6e6f776e206669787475726520726573756c742066726f6d20415060119390910192830152507f49000000000000000000000000000000000000000000000000000000000000006031820152603201919050565b6040815260006142cb6040830185613e7f565b8281036020840152611bd98185613e7f565b6000826142ec576142ec6141cb565b500490565b600081600019048311821515161561430b5761430b613f04565b500290565b600181815b8085111561434b57816000190482111561433157614331613f04565b8085161561433e57918102915b93841c9390800290614315565b509250929050565b60008261436257506001611450565b8161436f57506000611450565b8160018114614385576002811461438f576143ab565b6001915050611450565b60ff8411156143a0576143a0613f04565b50506001821b611450565b5060208310610133831016604e8410600b84101617156143ce575081810a611450565b6143d88383614310565b80600019048211156143ec576143ec613f04565b029392505050565b6000611bdd838361435356fea26469706673582212209b175df5ac6db7cf07bc570d98e4fe0c3fa7cbf2ccb788b303b117850e02d81564736f6c634300080c0033",
  "devdoc": {
    "kind": "dev",
    "methods": {},
    "version": 1
  },
  "userdoc": {
    "kind": "user",
    "methods": {
      "requestFixtureKickoffTimeParameter(string)": {
        "notice": "Request fixture kickoff time from the oracle in a single transaction"
      },
      "requestFixtureResultParameter(string)": {
        "notice": "Request fixture result from the oracle in a single transaction"
      },
      "withdrawLink(uint256)": {
        "notice": "Allow withdraw of Link tokens from the contract"
      }
    },
    "version": 1
  },
  "storageLayout": {
    "storage": [
      {
        "astId": 319,
        "contract": "contracts/SportsBetting.sol:SportsBetting",
        "label": "s_ens",
        "offset": 0,
        "slot": "0",
        "type": "t_contract(ENSInterface)974"
      },
      {
        "astId": 321,
        "contract": "contracts/SportsBetting.sol:SportsBetting",
        "label": "s_ensNode",
        "offset": 0,
        "slot": "1",
        "type": "t_bytes32"
      },
      {
        "astId": 324,
        "contract": "contracts/SportsBetting.sol:SportsBetting",
        "label": "s_link",
        "offset": 0,
        "slot": "2",
        "type": "t_contract(LinkTokenInterface)1069"
      },
      {
        "astId": 327,
        "contract": "contracts/SportsBetting.sol:SportsBetting",
        "label": "s_oracle",
        "offset": 0,
        "slot": "3",
        "type": "t_contract(OperatorInterface)1149"
      },
      {
        "astId": 330,
        "contract": "contracts/SportsBetting.sol:SportsBetting",
        "label": "s_requestCount",
        "offset": 0,
        "slot": "4",
        "type": "t_uint256"
      },
      {
        "astId": 334,
        "contract": "contracts/SportsBetting.sol:SportsBetting",
        "label": "s_pendingRequests",
        "offset": 0,
        "slot": "5",
        "type": "t_mapping(t_bytes32,t_address)"
      },
      {
        "astId": 3849,
        "contract": "contracts/SportsBetting.sol:SportsBetting",
        "label": "chainlink",
        "offset": 0,
        "slot": "6",
        "type": "t_address"
      },
      {
        "astId": 3851,
        "contract": "contracts/SportsBetting.sol:SportsBetting",
        "label": "sportsOracleURI",
        "offset": 0,
        "slot": "7",
        "type": "t_string_storage"
      },
      {
        "astId": 3853,
        "contract": "contracts/SportsBetting.sol:SportsBetting",
        "label": "jobId",
        "offset": 0,
        "slot": "8",
        "type": "t_bytes32"
      },
      {
        "astId": 3855,
        "contract": "contracts/SportsBetting.sol:SportsBetting",
        "label": "fee",
        "offset": 0,
        "slot": "9",
        "type": "t_uint256"
      },
      {
        "astId": 3857,
        "contract": "contracts/SportsBetting.sol:SportsBetting",
        "label": "fixtureResult",
        "offset": 0,
        "slot": "10",
        "type": "t_string_storage"
      },
      {
        "astId": 3861,
        "contract": "contracts/SportsBetting.sol:SportsBetting",
        "label": "userToLink",
        "offset": 0,
        "slot": "11",
        "type": "t_mapping(t_address,t_uint256)"
      },
      {
        "astId": 2265,
        "contract": "contracts/SportsBetting.sol:SportsBetting",
        "label": "betTypes",
        "offset": 0,
        "slot": "12",
        "type": "t_array(t_enum(BetType)2186)4_storage"
      },
      {
        "astId": 2267,
        "contract": "contracts/SportsBetting.sol:SportsBetting",
        "label": "owner",
        "offset": 0,
        "slot": "13",
        "type": "t_address"
      },
      {
        "astId": 2272,
        "contract": "contracts/SportsBetting.sol:SportsBetting",
        "label": "entranceFee",
        "offset": 0,
        "slot": "14",
        "type": "t_uint256"
      },
      {
        "astId": 2274,
        "contract": "contracts/SportsBetting.sol:SportsBetting",
        "label": "commissionRate",
        "offset": 0,
        "slot": "15",
        "type": "t_uint256"
      },
      {
        "astId": 2278,
        "contract": "contracts/SportsBetting.sol:SportsBetting",
        "label": "commissionMap",
        "offset": 0,
        "slot": "16",
        "type": "t_mapping(t_string_memory_ptr,t_uint256)"
      },
      {
        "astId": 2287,
        "contract": "contracts/SportsBetting.sol:SportsBetting",
        "label": "betAdvanceTime",
        "offset": 0,
        "slot": "17",
        "type": "t_uint256"
      },
      {
        "astId": 2292,
        "contract": "contracts/SportsBetting.sol:SportsBetting",
        "label": "betCutOffTime",
        "offset": 0,
        "slot": "18",
        "type": "t_uint256"
      },
      {
        "astId": 2300,
        "contract": "contracts/SportsBetting.sol:SportsBetting",
        "label": "historicalBetters",
        "offset": 0,
        "slot": "19",
        "type": "t_mapping(t_string_memory_ptr,t_mapping(t_enum(BetType)2186,t_array(t_address)dyn_storage))"
      },
      {
        "astId": 2309,
        "contract": "contracts/SportsBetting.sol:SportsBetting",
        "label": "historicalBettersIndex",
        "offset": 0,
        "slot": "20",
        "type": "t_mapping(t_string_memory_ptr,t_mapping(t_enum(BetType)2186,t_mapping(t_address,t_uint256)))"
      },
      {
        "astId": 2318,
        "contract": "contracts/SportsBetting.sol:SportsBetting",
        "label": "activeBetters",
        "offset": 0,
        "slot": "21",
        "type": "t_mapping(t_string_memory_ptr,t_mapping(t_enum(BetType)2186,t_mapping(t_address,t_bool)))"
      },
      {
        "astId": 2327,
        "contract": "contracts/SportsBetting.sol:SportsBetting",
        "label": "amounts",
        "offset": 0,
        "slot": "22",
        "type": "t_mapping(t_string_memory_ptr,t_mapping(t_enum(BetType)2186,t_mapping(t_address,t_uint256)))"
      },
      {
        "astId": 2333,
        "contract": "contracts/SportsBetting.sol:SportsBetting",
        "label": "payouts",
        "offset": 0,
        "slot": "23",
        "type": "t_mapping(t_string_memory_ptr,t_mapping(t_address,t_uint256))"
      },
      {
        "astId": 2338,
        "contract": "contracts/SportsBetting.sol:SportsBetting",
        "label": "bettingState",
        "offset": 0,
        "slot": "24",
        "type": "t_mapping(t_string_memory_ptr,t_enum(BettingState)2193)"
      },
      {
        "astId": 2342,
        "contract": "contracts/SportsBetting.sol:SportsBetting",
        "label": "fixtureToKickoffTime",
        "offset": 0,
        "slot": "25",
        "type": "t_mapping(t_string_memory_ptr,t_uint256)"
      },
      {
        "astId": 2346,
        "contract": "contracts/SportsBetting.sol:SportsBetting",
        "label": "requestKickoffToFixture",
        "offset": 0,
        "slot": "26",
        "type": "t_mapping(t_bytes32,t_string_storage)"
      },
      {
        "astId": 2350,
        "contract": "contracts/SportsBetting.sol:SportsBetting",
        "label": "requestResultToFixture",
        "offset": 0,
        "slot": "27",
        "type": "t_mapping(t_bytes32,t_string_storage)"
      }
    ],
    "types": {
      "t_address": {
        "encoding": "inplace",
        "label": "address",
        "numberOfBytes": "20"
      },
      "t_array(t_address)dyn_storage": {
        "base": "t_address",
        "encoding": "dynamic_array",
        "label": "address[]",
        "numberOfBytes": "32"
      },
      "t_array(t_enum(BetType)2186)4_storage": {
        "base": "t_enum(BetType)2186",
        "encoding": "inplace",
        "label": "enum SportsBetting.BetType[4]",
        "numberOfBytes": "32"
      },
      "t_bool": {
        "encoding": "inplace",
        "label": "bool",
        "numberOfBytes": "1"
      },
      "t_bytes32": {
        "encoding": "inplace",
        "label": "bytes32",
        "numberOfBytes": "32"
      },
      "t_contract(ENSInterface)974": {
        "encoding": "inplace",
        "label": "contract ENSInterface",
        "numberOfBytes": "20"
      },
      "t_contract(LinkTokenInterface)1069": {
        "encoding": "inplace",
        "label": "contract LinkTokenInterface",
        "numberOfBytes": "20"
      },
      "t_contract(OperatorInterface)1149": {
        "encoding": "inplace",
        "label": "contract OperatorInterface",
        "numberOfBytes": "20"
      },
      "t_enum(BetType)2186": {
        "encoding": "inplace",
        "label": "enum SportsBetting.BetType",
        "numberOfBytes": "1"
      },
      "t_enum(BettingState)2193": {
        "encoding": "inplace",
        "label": "enum SportsBetting.BettingState",
        "numberOfBytes": "1"
      },
      "t_mapping(t_address,t_bool)": {
        "encoding": "mapping",
        "key": "t_address",
        "label": "mapping(address => bool)",
        "numberOfBytes": "32",
        "value": "t_bool"
      },
      "t_mapping(t_address,t_uint256)": {
        "encoding": "mapping",
        "key": "t_address",
        "label": "mapping(address => uint256)",
        "numberOfBytes": "32",
        "value": "t_uint256"
      },
      "t_mapping(t_bytes32,t_address)": {
        "encoding": "mapping",
        "key": "t_bytes32",
        "label": "mapping(bytes32 => address)",
        "numberOfBytes": "32",
        "value": "t_address"
      },
      "t_mapping(t_bytes32,t_string_storage)": {
        "encoding": "mapping",
        "key": "t_bytes32",
        "label": "mapping(bytes32 => string)",
        "numberOfBytes": "32",
        "value": "t_string_storage"
      },
      "t_mapping(t_enum(BetType)2186,t_array(t_address)dyn_storage)": {
        "encoding": "mapping",
        "key": "t_enum(BetType)2186",
        "label": "mapping(enum SportsBetting.BetType => address[])",
        "numberOfBytes": "32",
        "value": "t_array(t_address)dyn_storage"
      },
      "t_mapping(t_enum(BetType)2186,t_mapping(t_address,t_bool))": {
        "encoding": "mapping",
        "key": "t_enum(BetType)2186",
        "label": "mapping(enum SportsBetting.BetType => mapping(address => bool))",
        "numberOfBytes": "32",
        "value": "t_mapping(t_address,t_bool)"
      },
      "t_mapping(t_enum(BetType)2186,t_mapping(t_address,t_uint256))": {
        "encoding": "mapping",
        "key": "t_enum(BetType)2186",
        "label": "mapping(enum SportsBetting.BetType => mapping(address => uint256))",
        "numberOfBytes": "32",
        "value": "t_mapping(t_address,t_uint256)"
      },
      "t_mapping(t_string_memory_ptr,t_enum(BettingState)2193)": {
        "encoding": "mapping",
        "key": "t_string_memory_ptr",
        "label": "mapping(string => enum SportsBetting.BettingState)",
        "numberOfBytes": "32",
        "value": "t_enum(BettingState)2193"
      },
      "t_mapping(t_string_memory_ptr,t_mapping(t_address,t_uint256))": {
        "encoding": "mapping",
        "key": "t_string_memory_ptr",
        "label": "mapping(string => mapping(address => uint256))",
        "numberOfBytes": "32",
        "value": "t_mapping(t_address,t_uint256)"
      },
      "t_mapping(t_string_memory_ptr,t_mapping(t_enum(BetType)2186,t_array(t_address)dyn_storage))": {
        "encoding": "mapping",
        "key": "t_string_memory_ptr",
        "label": "mapping(string => mapping(enum SportsBetting.BetType => address[]))",
        "numberOfBytes": "32",
        "value": "t_mapping(t_enum(BetType)2186,t_array(t_address)dyn_storage)"
      },
      "t_mapping(t_string_memory_ptr,t_mapping(t_enum(BetType)2186,t_mapping(t_address,t_bool)))": {
        "encoding": "mapping",
        "key": "t_string_memory_ptr",
        "label": "mapping(string => mapping(enum SportsBetting.BetType => mapping(address => bool)))",
        "numberOfBytes": "32",
        "value": "t_mapping(t_enum(BetType)2186,t_mapping(t_address,t_bool))"
      },
      "t_mapping(t_string_memory_ptr,t_mapping(t_enum(BetType)2186,t_mapping(t_address,t_uint256)))": {
        "encoding": "mapping",
        "key": "t_string_memory_ptr",
        "label": "mapping(string => mapping(enum SportsBetting.BetType => mapping(address => uint256)))",
        "numberOfBytes": "32",
        "value": "t_mapping(t_enum(BetType)2186,t_mapping(t_address,t_uint256))"
      },
      "t_mapping(t_string_memory_ptr,t_uint256)": {
        "encoding": "mapping",
        "key": "t_string_memory_ptr",
        "label": "mapping(string => uint256)",
        "numberOfBytes": "32",
        "value": "t_uint256"
      },
      "t_string_memory_ptr": {
        "encoding": "bytes",
        "label": "string",
        "numberOfBytes": "32"
      },
      "t_string_storage": {
        "encoding": "bytes",
        "label": "string",
        "numberOfBytes": "32"
      },
      "t_uint256": {
        "encoding": "inplace",
        "label": "uint256",
        "numberOfBytes": "32"
      }
    }
  }
}