{
  "address": "0xc7A7B093fFb6F873A2662A59Ff3Eb0D2A3Bb88f6",
  "abi": [
    {
      "inputs": [
        {
          "internalType": "string",
          "name": "_sportsOracleURI",
          "type": "string"
        },
        {
          "internalType": "address",
          "name": "_oracle",
          "type": "address"
        },
        {
          "internalType": "address",
          "name": "_link",
          "type": "address"
        },
        {
          "internalType": "bytes32",
          "name": "_jobId",
          "type": "bytes32"
        },
        {
          "internalType": "uint256",
          "name": "_fee",
          "type": "uint256"
        },
        {
          "internalType": "uint256",
          "name": "_commissionRate",
          "type": "uint256"
        }
      ],
      "stateMutability": "nonpayable",
      "type": "constructor"
    },
    {
      "anonymous": false,
      "inputs": [
        {
          "indexed": true,
          "internalType": "address",
          "name": "better",
          "type": "address"
        },
        {
          "indexed": false,
          "internalType": "string",
          "name": "fixtureID",
          "type": "string"
        },
        {
          "indexed": false,
          "internalType": "uint256",
          "name": "amount",
          "type": "uint256"
        }
      ],
      "name": "BetPayout",
      "type": "event"
    },
    {
      "anonymous": false,
      "inputs": [
        {
          "indexed": false,
          "internalType": "string",
          "name": "fixtureID",
          "type": "string"
        },
        {
          "indexed": false,
          "internalType": "string",
          "name": "reason",
          "type": "string"
        }
      ],
      "name": "BetPayoutFulfillmentError",
      "type": "event"
    },
    {
      "anonymous": false,
      "inputs": [
        {
          "indexed": true,
          "internalType": "address",
          "name": "better",
          "type": "address"
        },
        {
          "indexed": false,
          "internalType": "string",
          "name": "fixtureID",
          "type": "string"
        },
        {
          "indexed": false,
          "internalType": "uint256",
          "name": "amount",
          "type": "uint256"
        },
        {
          "indexed": false,
          "internalType": "enum SportsBetting.BetType",
          "name": "betType",
          "type": "uint8"
        }
      ],
      "name": "BetStaked",
      "type": "event"
    },
    {
      "anonymous": false,
      "inputs": [
        {
          "indexed": true,
          "internalType": "address",
          "name": "better",
          "type": "address"
        },
        {
          "indexed": false,
          "internalType": "string",
          "name": "fixtureID",
          "type": "string"
        },
        {
          "indexed": false,
          "internalType": "uint256",
          "name": "amount",
          "type": "uint256"
        },
        {
          "indexed": false,
          "internalType": "enum SportsBetting.BetType",
          "name": "betType",
          "type": "uint8"
        }
      ],
      "name": "BetUnstaked",
      "type": "event"
    },
    {
      "anonymous": false,
      "inputs": [
        {
          "indexed": false,
          "internalType": "string",
          "name": "fixtureID",
          "type": "string"
        },
        {
          "indexed": false,
          "internalType": "enum SportsBetting.BettingState",
          "name": "state",
          "type": "uint8"
        }
      ],
      "name": "BettingStateChanged",
      "type": "event"
    },
    {
      "anonymous": false,
      "inputs": [
        {
          "indexed": true,
          "internalType": "bytes32",
          "name": "id",
          "type": "bytes32"
        }
      ],
      "name": "ChainlinkCancelled",
      "type": "event"
    },
    {
      "anonymous": false,
      "inputs": [
        {
          "indexed": true,
          "internalType": "bytes32",
          "name": "id",
          "type": "bytes32"
        }
      ],
      "name": "ChainlinkFulfilled",
      "type": "event"
    },
    {
      "anonymous": false,
      "inputs": [
        {
          "indexed": true,
          "internalType": "bytes32",
          "name": "id",
          "type": "bytes32"
        }
      ],
      "name": "ChainlinkRequested",
      "type": "event"
    },
    {
      "anonymous": false,
      "inputs": [
        {
          "indexed": false,
          "internalType": "string",
          "name": "fixtureID",
          "type": "string"
        },
        {
          "indexed": false,
          "internalType": "uint256",
          "name": "kickoffTime",
          "type": "uint256"
        }
      ],
      "name": "KickoffTimeUpdated",
      "type": "event"
    },
    {
      "anonymous": false,
      "inputs": [
        {
          "indexed": true,
          "internalType": "bytes32",
          "name": "requestId",
          "type": "bytes32"
        },
        {
          "indexed": false,
          "internalType": "string",
          "name": "fixtureID",
          "type": "string"
        },
        {
          "indexed": false,
          "internalType": "uint256",
          "name": "kickoff",
          "type": "uint256"
        }
      ],
      "name": "RequestFixtureKickoffFulfilled",
      "type": "event"
    },
    {
      "anonymous": false,
      "inputs": [
        {
          "indexed": true,
          "internalType": "bytes32",
          "name": "requestId",
          "type": "bytes32"
        },
        {
          "indexed": false,
          "internalType": "string",
          "name": "fixtureID",
          "type": "string"
        },
        {
          "indexed": false,
          "internalType": "uint256",
          "name": "result",
          "type": "uint256"
        }
      ],
      "name": "RequestFixtureResultFulfilled",
      "type": "event"
    },
    {
      "anonymous": false,
      "inputs": [
        {
          "indexed": true,
          "internalType": "bytes32",
          "name": "requestId",
          "type": "bytes32"
        },
        {
          "indexed": false,
          "internalType": "string",
          "name": "fixtureID",
          "type": "string"
        }
      ],
      "name": "RequestedFixtureKickoff",
      "type": "event"
    },
    {
      "anonymous": false,
      "inputs": [
        {
          "indexed": true,
          "internalType": "bytes32",
          "name": "requestId",
          "type": "bytes32"
        },
        {
          "indexed": false,
          "internalType": "string",
          "name": "fixtureID",
          "type": "string"
        }
      ],
      "name": "RequestedFixtureResult",
      "type": "event"
    },
    {
      "inputs": [
        {
          "internalType": "string",
          "name": "",
          "type": "string"
        },
        {
          "internalType": "enum SportsBetting.BetType",
          "name": "",
          "type": "uint8"
        },
        {
          "internalType": "address",
          "name": "",
          "type": "address"
        }
      ],
      "name": "activeBetters",
      "outputs": [
        {
          "internalType": "bool",
          "name": "",
          "type": "bool"
        }
      ],
      "stateMutability": "view",
      "type": "function"
    },
    {
      "inputs": [
        {
          "internalType": "string",
          "name": "",
          "type": "string"
        },
        {
          "internalType": "enum SportsBetting.BetType",
          "name": "",
          "type": "uint8"
        },
        {
          "internalType": "address",
          "name": "",
          "type": "address"
        }
      ],
      "name": "amounts",
      "outputs": [
        {
          "internalType": "uint256",
          "name": "",
          "type": "uint256"
        }
      ],
      "stateMutability": "view",
      "type": "function"
    },
    {
      "inputs": [
        {
          "internalType": "string",
          "name": "fixtureID",
          "type": "string"
        }
      ],
      "name": "awaitBetForFixture",
      "outputs": [],
      "stateMutability": "nonpayable",
      "type": "function"
    },
    {
      "inputs": [],
      "name": "betAdvanceTime",
      "outputs": [
        {
          "internalType": "uint256",
          "name": "",
          "type": "uint256"
        }
      ],
      "stateMutability": "view",
      "type": "function"
    },
    {
      "inputs": [],
      "name": "betCutOffTime",
      "outputs": [
        {
          "internalType": "uint256",
          "name": "",
          "type": "uint256"
        }
      ],
      "stateMutability": "view",
      "type": "function"
    },
    {
      "inputs": [
        {
          "internalType": "uint256",
          "name": "",
          "type": "uint256"
        }
      ],
      "name": "betTypes",
      "outputs": [
        {
          "internalType": "enum SportsBetting.BetType",
          "name": "",
          "type": "uint8"
        }
      ],
      "stateMutability": "view",
      "type": "function"
    },
    {
      "inputs": [
        {
          "internalType": "string",
          "name": "",
          "type": "string"
        }
      ],
      "name": "bettingState",
      "outputs": [
        {
          "internalType": "enum SportsBetting.BettingState",
          "name": "",
          "type": "uint8"
        }
      ],
      "stateMutability": "view",
      "type": "function"
    },
    {
      "inputs": [],
      "name": "chainlink",
      "outputs": [
        {
          "internalType": "address",
          "name": "",
          "type": "address"
        }
      ],
      "stateMutability": "view",
      "type": "function"
    },
    {
      "inputs": [
        {
          "internalType": "string",
          "name": "fixtureID",
          "type": "string"
        }
      ],
      "name": "closeBetForFixture",
      "outputs": [],
      "stateMutability": "nonpayable",
      "type": "function"
    },
    {
      "inputs": [
        {
          "internalType": "string",
          "name": "",
          "type": "string"
        }
      ],
      "name": "commissionMap",
      "outputs": [
        {
          "internalType": "uint256",
          "name": "",
          "type": "uint256"
        }
      ],
      "stateMutability": "view",
      "type": "function"
    },
    {
      "inputs": [],
      "name": "commissionRate",
      "outputs": [
        {
          "internalType": "uint256",
          "name": "",
          "type": "uint256"
        }
      ],
      "stateMutability": "view",
      "type": "function"
    },
    {
      "inputs": [],
      "name": "entranceFee",
      "outputs": [
        {
          "internalType": "uint256",
          "name": "",
          "type": "uint256"
        }
      ],
      "stateMutability": "view",
      "type": "function"
    },
    {
      "inputs": [],
      "name": "fixtureResult",
      "outputs": [
        {
          "internalType": "string",
          "name": "",
          "type": "string"
        }
      ],
      "stateMutability": "view",
      "type": "function"
    },
    {
      "inputs": [
        {
          "internalType": "string",
          "name": "",
          "type": "string"
        }
      ],
      "name": "fixtureToKickoffTime",
      "outputs": [
        {
          "internalType": "uint256",
          "name": "",
          "type": "uint256"
        }
      ],
      "stateMutability": "view",
      "type": "function"
    },
    {
      "inputs": [
        {
          "internalType": "string",
          "name": "fixtureID",
          "type": "string"
        }
      ],
      "name": "fulfillBetForFixture",
      "outputs": [],
      "stateMutability": "nonpayable",
      "type": "function"
    },
    {
      "inputs": [
        {
          "internalType": "string",
          "name": "fixtureID",
          "type": "string"
        },
        {
          "internalType": "address",
          "name": "user",
          "type": "address"
        }
      ],
      "name": "getEnrichedFixtureData",
      "outputs": [
        {
          "components": [
            {
              "internalType": "enum SportsBetting.BettingState",
              "name": "fixtureState",
              "type": "uint8"
            },
            {
              "internalType": "uint256[3]",
              "name": "total",
              "type": "uint256[3]"
            },
            {
              "internalType": "uint256[3]",
              "name": "user",
              "type": "uint256[3]"
            }
          ],
          "internalType": "struct SportsBetting.FixtureEnrichment",
          "name": "",
          "type": "tuple"
        }
      ],
      "stateMutability": "view",
      "type": "function"
    },
    {
      "inputs": [
        {
          "internalType": "string",
          "name": "",
          "type": "string"
        },
        {
          "internalType": "enum SportsBetting.BetType",
          "name": "",
          "type": "uint8"
        },
        {
          "internalType": "uint256",
          "name": "",
          "type": "uint256"
        }
      ],
      "name": "historicalBetters",
      "outputs": [
        {
          "internalType": "address",
          "name": "",
          "type": "address"
        }
      ],
      "stateMutability": "view",
      "type": "function"
    },
    {
      "inputs": [
        {
          "internalType": "string",
          "name": "",
          "type": "string"
        },
        {
          "internalType": "enum SportsBetting.BetType",
          "name": "",
          "type": "uint8"
        },
        {
          "internalType": "address",
          "name": "",
          "type": "address"
        }
      ],
      "name": "historicalBettersIndex",
      "outputs": [
        {
          "internalType": "uint256",
          "name": "",
          "type": "uint256"
        }
      ],
      "stateMutability": "view",
      "type": "function"
    },
    {
      "inputs": [
        {
          "internalType": "string",
          "name": "fixtureID",
          "type": "string"
        }
      ],
      "name": "openBetForFixture",
      "outputs": [],
      "stateMutability": "nonpayable",
      "type": "function"
    },
    {
      "inputs": [],
      "name": "owner",
      "outputs": [
        {
          "internalType": "address",
          "name": "",
          "type": "address"
        }
      ],
      "stateMutability": "view",
      "type": "function"
    },
    {
      "inputs": [
        {
          "internalType": "string",
          "name": "",
          "type": "string"
        },
        {
          "internalType": "address",
          "name": "",
          "type": "address"
        }
      ],
      "name": "payouts",
      "outputs": [
        {
          "internalType": "uint256",
          "name": "",
          "type": "uint256"
        }
      ],
      "stateMutability": "view",
      "type": "function"
    },
    {
      "inputs": [
        {
          "internalType": "bytes32",
          "name": "_requestId",
          "type": "bytes32"
        },
        {
          "internalType": "uint256",
          "name": "_ko",
          "type": "uint256"
        }
      ],
      "name": "rawFulfillFixtureKickoffTime",
      "outputs": [],
      "stateMutability": "nonpayable",
      "type": "function"
    },
    {
      "inputs": [
        {
          "internalType": "bytes32",
          "name": "_requestId",
          "type": "bytes32"
        },
        {
          "internalType": "uint256",
          "name": "_result",
          "type": "uint256"
        }
      ],
      "name": "rawFulfillFixtureResult",
      "outputs": [],
      "stateMutability": "nonpayable",
      "type": "function"
    },
    {
      "inputs": [
        {
          "internalType": "string",
          "name": "fixtureID",
          "type": "string"
        }
      ],
      "name": "requestFixtureKickoffTime",
      "outputs": [],
      "stateMutability": "nonpayable",
      "type": "function"
    },
    {
      "inputs": [
        {
          "internalType": "string",
          "name": "fixtureID",
          "type": "string"
        }
      ],
      "name": "requestFixtureKickoffTimeParameter",
      "outputs": [
        {
          "internalType": "bytes32",
          "name": "",
          "type": "bytes32"
        }
      ],
      "stateMutability": "nonpayable",
      "type": "function"
    },
    {
      "inputs": [
        {
          "internalType": "string",
          "name": "fixtureID",
          "type": "string"
        }
      ],
      "name": "requestFixtureResult",
      "outputs": [],
      "stateMutability": "nonpayable",
      "type": "function"
    },
    {
      "inputs": [
        {
          "internalType": "string",
          "name": "fixtureID",
          "type": "string"
        }
      ],
      "name": "requestFixtureResultParameter",
      "outputs": [
        {
          "internalType": "bytes32",
          "name": "",
          "type": "bytes32"
        }
      ],
      "stateMutability": "nonpayable",
      "type": "function"
    },
    {
      "inputs": [
        {
          "internalType": "bytes32",
          "name": "",
          "type": "bytes32"
        }
      ],
      "name": "requestKickoffToFixture",
      "outputs": [
        {
          "internalType": "string",
          "name": "",
          "type": "string"
        }
      ],
      "stateMutability": "view",
      "type": "function"
    },
    {
      "inputs": [
        {
          "internalType": "bytes32",
          "name": "",
          "type": "bytes32"
        }
      ],
      "name": "requestResultToFixture",
      "outputs": [
        {
          "internalType": "string",
          "name": "",
          "type": "string"
        }
      ],
      "stateMutability": "view",
      "type": "function"
    },
    {
      "inputs": [],
      "name": "sportsOracleURI",
      "outputs": [
        {
          "internalType": "string",
          "name": "",
          "type": "string"
        }
      ],
      "stateMutability": "view",
      "type": "function"
    },
    {
      "inputs": [
        {
          "internalType": "string",
          "name": "fixtureID",
          "type": "string"
        },
        {
          "internalType": "enum SportsBetting.BetType",
          "name": "betType",
          "type": "uint8"
        }
      ],
      "name": "stake",
      "outputs": [],
      "stateMutability": "payable",
      "type": "function"
    },
    {
      "inputs": [
        {
          "internalType": "uint256",
          "name": "amount",
          "type": "uint256"
        }
      ],
      "name": "transferLink",
      "outputs": [],
      "stateMutability": "nonpayable",
      "type": "function"
    },
    {
      "inputs": [
        {
          "internalType": "string",
          "name": "fixtureID",
          "type": "string"
        },
        {
          "internalType": "enum SportsBetting.BetType",
          "name": "betType",
          "type": "uint8"
        },
        {
          "internalType": "uint256",
          "name": "amount",
          "type": "uint256"
        }
      ],
      "name": "unstake",
      "outputs": [],
      "stateMutability": "nonpayable",
      "type": "function"
    },
    {
      "inputs": [
        {
          "internalType": "address",
          "name": "",
          "type": "address"
        }
      ],
      "name": "userToLink",
      "outputs": [
        {
          "internalType": "uint256",
          "name": "",
          "type": "uint256"
        }
      ],
      "stateMutability": "view",
      "type": "function"
    },
    {
      "inputs": [
        {
          "internalType": "uint256",
          "name": "amount",
          "type": "uint256"
        }
      ],
      "name": "withdrawLink",
      "outputs": [],
      "stateMutability": "nonpayable",
      "type": "function"
    }
  ],
  "transactionHash": "0xfec638f19186a0407b326ad3e71907c5e37d43606a09d022789f201a8425a03a",
  "args": [
    "https://1vyuff64d9.execute-api.us-east-1.amazonaws.com/dev/premier-league/fixtures/",
    "0x2362A262148518Ce69600Cc5a6032aC8391233f5",
    "0xd14838A68E8AFBAdE5efb411d5871ea0011AFd28",
    "0x3735393964336338663331653463653738616432623739306362636663363733",
    "100000000000000000",
    1
  ],
  "numDeployments": 3,
  "solcInputHash": "f2d60928d1e887013173b1ba5a331857",
  "bytecode": "0x60806040526001600455655af3107a4000600e5562093a806011556115186012553480156200002d57600080fd5b5060405162004818380380620048188339810160408190526200005091620001d9565b858585858584600790805190602001906200006d92919062000100565b50600280546001600160a01b03199081166001600160a01b039586161790915560038054821695909416948517909355600680548416909417909355507f3735393964336338663331653463653738616432623739306362636663363733600855600991909155600c805462ffffff191662020100179055600d80549091163317905550600f5550620003359350505050565b8280546200010e90620002f8565b90600052602060002090601f0160209004810192826200013257600085556200017d565b82601f106200014d57805160ff19168380011785556200017d565b828001600101855582156200017d579182015b828111156200017d57825182559160200191906001019062000160565b506200018b9291506200018f565b5090565b5b808211156200018b576000815560010162000190565b634e487b7160e01b600052604160045260246000fd5b80516001600160a01b0381168114620001d457600080fd5b919050565b60008060008060008060c08789031215620001f357600080fd5b86516001600160401b03808211156200020b57600080fd5b818901915089601f8301126200022057600080fd5b815181811115620002355762000235620001a6565b604051601f8201601f19908116603f01168101908382118183101715620002605762000260620001a6565b81604052828152602093508c848487010111156200027d57600080fd5b600091505b82821015620002a1578482018401518183018501529083019062000282565b82821115620002b35760008484830101525b9950620002c5915050898201620001bc565b96505050620002d760408801620001bc565b9350606087015192506080870151915060a087015190509295509295509295565b600181811c908216806200030d57607f821691505b602082108114156200032f57634e487b7160e01b600052602260045260246000fd5b50919050565b6144d380620003456000396000f3fe6080604052600436106102335760003560e01c80638a71bfa811610138578063cbef85c2116100b0578063ef40efde1161007f578063f6573b4f11610064578063f6573b4f14610736578063f7c60c0c1461076e578063fbe913931461078357600080fd5b8063ef40efde146106f6578063f46dccf01461071657600080fd5b8063cbef85c21461061d578063d8654c081461067e578063e37685ec1461069e578063edb16070146106be57600080fd5b8063aa06609011610107578063b148cdf1116100ec578063b148cdf1146105bb578063c40bc66b146105dd578063c8fe739c146105fd57600080fd5b8063aa06609014610540578063abf949f81461058e57600080fd5b80638a71bfa8146104a85780638da5cb5b146104c85780639959a30f146105005780639c3feeb71461052057600080fd5b80635ea1d6f8116101cb5780636e2a3a841161019a5780637a8042bd1161017f5780637a8042bd146104205780637c5e9405146104405780637cc2c2f81461048857600080fd5b80636e2a3a84146103e0578063793970e11461040057600080fd5b80635ea1d6f8146103395780635ec421a71461034f57806362098ff71461039d578063649677e1146103ca57600080fd5b806339ea07911161020757806339ea0791146102c357806340364d11146102f05780634bfc91ee146103035780635e5243191461031957600080fd5b8062e1a75b1461023857806301ec29c91461025a578063106246d81461027a5780631d686ae4146102a3575b600080fd5b34801561024457600080fd5b50610258610253366004613c4d565b6107cb565b005b34801561026657600080fd5b50610258610275366004613c4d565b61086a565b34801561028657600080fd5b5061029060115481565b6040519081526020015b60405180910390f35b3480156102af57600080fd5b506102906102be366004613c4d565b6108f6565b3480156102cf57600080fd5b506102906102de366004613c99565b600b6020526000908152604090205481565b6102586102fe366004613cc3565b610ab9565b34801561030f57600080fd5b5061029060125481565b34801561032557600080fd5b50610258610334366004613d11565b610cde565b34801561034557600080fd5b50610290600f5481565b34801561035b57600080fd5b5061029061036a366004613d68565b82516020818501810180516014825292820195820195909520919094528352600091825260408083209093528152205481565b3480156103a957600080fd5b506103bd6103b8366004613dc6565b610dcb565b60405161029a9190613e09565b3480156103d657600080fd5b50610290600e5481565b3480156103ec57600080fd5b506102586103fb366004613c4d565b610df5565b34801561040c57600080fd5b5061025861041b366004613c4d565b610e88565b34801561042c57600080fd5b5061025861043b366004613dc6565b610ee8565b34801561044c57600080fd5b5061029061045b366004613e17565b81516020818401810180516017825292820194820194909420919093529091526000908152604090205481565b34801561049457600080fd5b506102586104a3366004613dc6565b611057565b3480156104b457600080fd5b506102586104c3366004613e5c565b611172565b3480156104d457600080fd5b50600d546104e8906001600160a01b031681565b6040516001600160a01b03909116815260200161029a565b34801561050c57600080fd5b5061025861051b366004613c4d565b611292565b34801561052c57600080fd5b506006546104e8906001600160a01b031681565b34801561054c57600080fd5b5061029061055b366004613d68565b82516020818501810180516016825292820195820195909520919094528352600091825260408083209093528152205481565b34801561059a57600080fd5b506105ae6105a9366004613e17565b6112f2565b60405161029a9190613eb1565b3480156105c757600080fd5b506105d0611390565b60405161029a9190613f48565b3480156105e957600080fd5b506105d06105f8366004613dc6565b61141e565b34801561060957600080fd5b506104e8610618366004613d11565b611437565b34801561062957600080fd5b5061066e610638366004613d68565b82516020818501810180516015825292820195820195909520919094528352600091825260408083209093528152205460ff1681565b604051901515815260200161029a565b34801561068a57600080fd5b50610290610699366004613c4d565b611486565b3480156106aa57600080fd5b506102586106b9366004613e5c565b6115db565b3480156106ca57600080fd5b506102906106d9366004613c4d565b805160208183018101805160198252928201919093012091525481565b34801561070257600080fd5b50610258610711366004613c4d565b6116fb565b34801561072257600080fd5b506105d0610731366004613dc6565b61177f565b34801561074257600080fd5b50610290610751366004613c4d565b805160208183018101805160108252928201919093012091525481565b34801561077a57600080fd5b506105d0611798565b34801561078f57600080fd5b506107be61079e366004613c4d565b805160208183018101805160188252928201919093012091525460ff1681565b60405161029a9190613f5b565b60006018826040516107dd9190613f85565b9081526040519081900360200190205460ff16600581111561080157610801613ddf565b146108535760405162461bcd60e51b815260206004820152601960248201527f426574207374617465206d75737420626520434c4f5345442e0000000000000060448201526064015b60405180910390fd5b61085e8160016117a5565b61086781611292565b50565b600260188260405161087c9190613f85565b9081526040519081900360200190205460ff1660058111156108a0576108a0613ddf565b146108ed5760405162461bcd60e51b815260206004820152601760248201527f426574207374617465206d757374206265204f50454e2e000000000000000000604482015260640161084a565b61086781611863565b600954336000908152600b60205260408120549091106109585760405162461bcd60e51b815260206004820152601d60248201527f596f7520686176656e27742073656e7420656e6f756768204c494e4b2e000000604482015260640161084a565b600954336000908152600b60205260408120805490919061097a908490613fb7565b90915550506008546000906109b090307fe37685ec00000000000000000000000000000000000000000000000000000000611a8b565b90506109fd6040518060400160405280600381526020016219d95d60ea1b8152506007856040516020016109e5929190614003565b60408051601f19818403018152919052839190611b1e565b610a63604051806040016040528060048152602001630e0c2e8d60e31b8152506040518060400160405280600481526020017f302c6b6f0000000000000000000000000000000000000000000000000000000081525083611b1e9092919063ffffffff16565b60408051808201909152600881527f6d756c7469706c790000000000000000000000000000000000000000000000006020820152610aa49082906001611b3c565b610ab081600954611b5a565b9150505b919050565b610ac282611863565b6002601883604051610ad49190613f85565b9081526040519081900360200190205460ff166005811115610af857610af8613ddf565b14610b455760405162461bcd60e51b815260206004820152601960248201527f426574206163746976697479206973206e6f74206f70656e2e00000000000000604482015260640161084a565b600e54341015610b975760405162461bcd60e51b815260206004820152601d60248201527f416d6f756e742069732062656c6f7720656e7472616e6365206665652e000000604482015260640161084a565b34601683604051610ba89190613f85565b90815260200160405180910390206000836002811115610bca57610bca613ddf565b6002811115610bdb57610bdb613ddf565b81526020019081526020016000206000336001600160a01b03166001600160a01b031681526020019081526020016000206000828254610c1b91906140a1565b90915550610c2c9050828233611b74565b6001601583604051610c3e9190613f85565b90815260200160405180910390206000836002811115610c6057610c60613ddf565b6002811115610c7157610c71613ddf565b815260208082019290925260409081016000908120338083529352819020805460ff19169315159390931790925590517f1a48cf6315f5f44cf8ac3a5105296caf8a73f64b40f9a6b7cbf8ba65ca930fd490610cd2908590349086906140b9565b60405180910390a25050565b60008111610d2e5760405162461bcd60e51b815260206004820152601a60248201527f416d6f756e742073686f756c6420657863656564207a65726f2e000000000000604482015260640161084a565b610d3783611863565b6002601884604051610d499190613f85565b9081526040519081900360200190205460ff166005811115610d6d57610d6d613ddf565b14610dba5760405162461bcd60e51b815260206004820152601d60248201527f46697874757265206973206e6f7420696e204f70656e2073746174652e000000604482015260640161084a565b610dc683838333611cd5565b505050565b600c8160038110610ddb57600080fd5b60209182820401919006915054906101000a900460ff1681565b6003601882604051610e079190613f85565b9081526040519081900360200190205460ff166005811115610e2b57610e2b613ddf565b14610e785760405162461bcd60e51b815260206004820152601b60248201527f426574207374617465206d757374206265204157414954494e472e0000000000604482015260640161084a565b610e838160046117a5565b610867815b6000610e9382611486565b6000818152601b602090815260409091208451929350610eb7929091850190613a71565b50807f203eeb39bf08702855bb5830b3ec49ea10fb51bde91904739f7c0c3ab41776d583604051610cd29190613f48565b336000908152600b6020526040902054811115610f475760405162461bcd60e51b815260206004820152601a60248201527f596f7520646f6e2774206861766520656e6f756768206c696e6b000000000000604482015260640161084a565b336000908152600b602052604081208054839290610f66908490613fb7565b90915550506002546000906001600160a01b03166040517fa9059cbb000000000000000000000000000000000000000000000000000000008152336004820152602481018490529091506001600160a01b0382169063a9059cbb906044016020604051808303816000875af1158015610fe3573d6000803e3d6000fd5b505050506040513d601f19601f8201168201806040525081019061100791906140e1565b6110535760405162461bcd60e51b815260206004820152601260248201527f556e61626c6520746f207472616e736665720000000000000000000000000000604482015260640161084a565b5050565b600061106b6002546001600160a01b031690565b6040517f23b872dd000000000000000000000000000000000000000000000000000000008152336004820152306024820152604481018490529091506001600160a01b038216906323b872dd906064016020604051808303816000875af11580156110da573d6000803e3d6000fd5b505050506040513d601f19601f820116820180604052508101906110fe91906140e1565b61114a5760405162461bcd60e51b815260206004820152601260248201527f556e61626c6520746f207472616e736665720000000000000000000000000000604482015260640161084a565b336000908152600b6020526040812080548492906111699084906140a1565b90915550505050565b60008281526005602052604090205482906001600160a01b031633146111eb5760405162461bcd60e51b815260206004820152602860248201527f536f75726365206d75737420626520746865206f7261636c65206f6620746865604482015267081c995c5d595cdd60c21b606482015260840161084a565b60008181526005602052604080822080546001600160a01b03191690555182917f7cc135e0cebb02c3480ae5d74d377283180a2601f8f644edf7987b009316c63a91a26006546001600160a01b031633146112885760405162461bcd60e51b815260206004820181905260248201527f4f6e6c7920436861696e6c696e6b436c69656e742063616e2066756c66696c6c604482015260640161084a565b610dc68383611d63565b600061129d826108f6565b6000818152601a6020908152604090912084519293506112c1929091850190613a71565b50807f45d732f7bcf8bc3eb58d8fd2fe72f5d05aa36dadc20e6c9989abd2a741d81cac83604051610cd29190613f48565b6112fa613af5565b60405180606001604052806018856040516113159190613f85565b9081526040519081900360200190205460ff16600581111561133957611339613ddf565b81526020016040518060600160405280611354876000611e87565b8152602001611364876001611e87565b8152602001611374876002611e87565b90528152602001611385858561206a565b905290505b92915050565b6007805461139d90613fce565b80601f01602080910402602001604051908101604052809291908181526020018280546113c990613fce565b80156114165780601f106113eb57610100808354040283529160200191611416565b820191906000526020600020905b8154815290600101906020018083116113f957829003601f168201915b505050505081565b601a602052600090815260409020805461139d90613fce565b825160208185018101805160138252928201828701209290525260008281526040902080548290811061146957600080fd5b6000918252602090912001546001600160a01b0316925083915050565b600954336000908152600b60205260408120549091106114e85760405162461bcd60e51b815260206004820152601d60248201527f596f7520686176656e27742073656e7420656e6f756768204c494e4b2e000000604482015260640161084a565b600954336000908152600b60205260408120805490919061150a908490613fb7565b909155505060085460009061154090307f8a71bfa800000000000000000000000000000000000000000000000000000000611a8b565b90506115756040518060400160405280600381526020016219d95d60ea1b8152506007856040516020016109e5929190614003565b610a63604051806040016040528060048152602001630e0c2e8d60e31b8152506040518060400160405280600881526020017f302c726573756c7400000000000000000000000000000000000000000000000081525083611b1e9092919063ffffffff16565b60008281526005602052604090205482906001600160a01b031633146116545760405162461bcd60e51b815260206004820152602860248201527f536f75726365206d75737420626520746865206f7261636c65206f6620746865604482015267081c995c5d595cdd60c21b606482015260840161084a565b60008181526005602052604080822080546001600160a01b03191690555182917f7cc135e0cebb02c3480ae5d74d377283180a2601f8f644edf7987b009316c63a91a26006546001600160a01b031633146116f15760405162461bcd60e51b815260206004820181905260248201527f4f6e6c7920436861696e6c696e6b436c69656e742063616e2066756c66696c6c604482015260640161084a565b610dc68383612150565b600060188260405161170d9190613f85565b9081526040519081900360200190205460ff16600581111561173157611731613ddf565b14156108ed5760405162461bcd60e51b815260206004820152601c60248201527f42657420737461746520697320616c726561647920434c4f5345442e00000000604482015260640161084a565b601b602052600090815260409020805461139d90613fce565b600a805461139d90613fce565b806018836040516117b69190613f85565b908152604051908190036020019020805460ff191660018360058111156117df576117df613ddf565b02179055507fe10ba6722d7a7a91bf343a0f8e5b026910dbc4a2ebca276930dff31703c59a708282604051611815929190614103565b60405180910390a1600281600581111561183157611831613ddf565b14156118405761105382612236565b600081600581111561185457611854613ddf565b14156110535761105382612286565b60006019826040516118759190613f85565b9081526020016040518091039020549050806000141561189a576110538260006117a5565b60016018836040516118ac9190613f85565b9081526040519081900360200190205460ff1660058111156118d0576118d0613ddf565b1480156118fd57506012546118e59082613fb7565b4211806118fd57506011546118fa9082613fb7565b42105b1561190d576110538260006117a5565b600260188360405161191f9190613f85565b9081526040519081900360200190205460ff16600581111561194357611943613ddf565b14806119825750600360188360405161195c9190613f85565b9081526040519081900360200190205460ff16600581111561198057611980613ddf565b145b801561199957506011546119969082613fb7565b42105b156119a9576110538260006117a5565b60016018836040516119bb9190613f85565b9081526040519081900360200190205460ff1660058111156119df576119df613ddf565b1480156119f857506012546119f49082613fb7565b4211155b8015611a105750601154611a0c9082613fb7565b4210155b15611a20576110538260026117a5565b6002601883604051611a329190613f85565b9081526040519081900360200190205460ff166005811115611a5657611a56613ddf565b148015611a6e5750601254611a6b9082613fb7565b42115b8015611a7b575060125415155b15611053576110538260036117a5565b611ac96040805160a0810182526000808252602080830182905282840182905260608084018390528451808601909552845283015290608082015290565b611b076040805160a0810182526000808252602080830182905282840182905260608084018390528451808601909552845283015290608082015290565b611b13818686866122d6565b9150505b9392505050565b6080830151611b2d908361236a565b6080830151610dc6908261236a565b6080830151611b4b908361236a565b6080830151610dc69082612381565b600354600090611b17906001600160a01b031684846123e1565b611b7f8383836124ba565b610dc657601383604051611b939190613f85565b90815260200160405180910390206000836002811115611bb557611bb5613ddf565b6002811115611bc657611bc6613ddf565b815260200190815260200160002080549050601484604051611be89190613f85565b90815260200160405180910390206000846002811115611c0a57611c0a613ddf565b6002811115611c1b57611c1b613ddf565b81526020019081526020016000206000836001600160a01b03166001600160a01b0316815260200190815260200160002081905550601383604051611c609190613f85565b90815260200160405180910390206000836002811115611c8257611c82613ddf565b6002811115611c9357611c93613ddf565b8152602080820192909252604001600090812080546001810182559082529190200180546001600160a01b0383166001600160a01b0319909116179055505050565b611ce18484848461255f565b6040516001600160a01b0382169083156108fc029084906000818181858888f19350505050158015611d17573d6000803e3d6000fd5b50806001600160a01b03167f0f3b118062ef97715cdb7fc34e6b3bc6bf1c6ddbbbbc4e8d6f13eff984080d08858486604051611d55939291906140b9565b60405180910390a250505050565b6000828152601b602052604081208054611d7c90613fce565b80601f0160208091040260200160405190810160405280929190818152602001828054611da890613fce565b8015611df55780601f10611dca57610100808354040283529160200191611df5565b820191906000526020600020905b815481529060010190602001808311611dd857829003601f168201915b50505050509050827f991c3e65c24cac8eb9898540ce857bbd06f702f19ac9ee6562bd97b96b0d898c8284604051611e2e929190614125565b60405180910390a26004601882604051611e489190613f85565b9081526040519081900360200190205460ff166005811115611e6c57611e6c613ddf565b1415610dc657611e7c81836127f8565b610dc68160056117a5565b60008060005b601385604051611e9d9190613f85565b90815260200160405180910390206000856002811115611ebf57611ebf613ddf565b6002811115611ed057611ed0613ddf565b8152602081019190915260400160002054811015612062576000601386604051611efa9190613f85565b90815260200160405180910390206000866002811115611f1c57611f1c613ddf565b6002811115611f2d57611f2d613ddf565b81526020019081526020016000208281548110611f4c57611f4c614147565b6000918252602090912001546040516001600160a01b039091169150601590611f76908890613f85565b90815260200160405180910390206000866002811115611f9857611f98613ddf565b6002811115611fa957611fa9613ddf565b8152602080820192909252604090810160009081206001600160a01b038516825290925290205460ff161561204f57601686604051611fe89190613f85565b9081526020016040518091039020600086600281111561200a5761200a613ddf565b600281111561201b5761201b613ddf565b8152602080820192909252604090810160009081206001600160a01b038516825290925290205461204c90846140a1565b92505b508061205a8161415d565b915050611e8d565b509392505050565b612072613b22565b604051806060016040528060168560405161208d9190613f85565b908152604080516020928190038301902060008080529083528181206001600160a01b03881682528352819020548352519101906016906120cf908790613f85565b9081526040805160209281900383019020600160009081529083528181206001600160a01b0388168252835281902054835251910190601690612113908790613f85565b9081526040805160209281900383019020600260009081529083528181206001600160a01b03979097168152959091529093205490925250919050565b6000828152601a60205260408120805461216990613fce565b80601f016020809104026020016040519081016040528092919081815260200182805461219590613fce565b80156121e25780601f106121b7576101008083540402835291602001916121e2565b820191906000526020600020905b8154815290600101906020018083116121c557829003601f168201915b50505050509050827f0a19aa077773e15e05c85beefc64244b7b27068fccb13becb7bf450ff41fa89c828460405161221b929190614125565b60405180910390a261222d81836128c4565b610dc681611863565b60005b60038110156110535761227482600c836003811061225957612259614147565b602081049091015460ff601f9092166101000a900416612949565b8061227e8161415d565b915050612239565b60005b6003811015611053576122c482600c83600381106122a9576122a9614147565b602081049091015460ff601f9092166101000a9004166129b5565b806122ce8161415d565b915050612289565b6123146040805160a0810182526000808252602080830182905282840182905260608084018390528451808601909552845283015290608082015290565b6123248560800151610100612b9d565b50508284526001600160a01b03821660208501527fffffffff0000000000000000000000000000000000000000000000000000000081166040850152835b949350505050565b6123778260038351612c02565b610dc68282612d17565b67ffffffffffffffff1981121561239c576110538282612d3e565b67ffffffffffffffff8113156123b6576110538282612d80565b600081126123ca5761105382600083612c02565b6110538260016123dc84600019614178565b612c02565b6004546000906123f28160016140a1565b600455835160408086015160808701515191516000937f4042994600000000000000000000000000000000000000000000000000000000936124439386938493923092918a916001916024016141ec565b60408051601f198184030181529190526020810180517bffffffffffffffffffffffffffffffffffffffffffffffffffffffff167fffffffff000000000000000000000000000000000000000000000000000000009093169290921790915290506124b086838684612da3565b9695505050505050565b60006001600160a01b03821615801590612548575060006014856040516124e19190613f85565b9081526020016040518091039020600085600281111561250357612503613ddf565b600281111561251457612514613ddf565b81526020019081526020016000206000846001600160a01b03166001600160a01b0316815260200190815260200160002054115b1561255557506001611b17565b5060009392505050565b60006016856040516125719190613f85565b9081526020016040518091039020600085600281111561259357612593613ddf565b60028111156125a4576125a4613ddf565b81526020019081526020016000206000836001600160a01b03166001600160a01b03168152602001908152602001600020549050600081116126285760405162461bcd60e51b815260206004820181905260248201527f4e6f207374616b65206f6e207468697320616464726573732d726573756c742e604482015260640161084a565b808311156126785760405162461bcd60e51b815260206004820152601660248201527f43757272656e74207374616b6520746f6f206c6f772e00000000000000000000604482015260640161084a565b6126828382613fb7565b6016866040516126929190613f85565b908152602001604051809103902060008660028111156126b4576126b4613ddf565b60028111156126c5576126c5613ddf565b81526020019081526020016000206000846001600160a01b03166001600160a01b0316815260200190815260200160002081905550600060168660405161270c9190613f85565b9081526020016040518091039020600086600281111561272e5761272e613ddf565b600281111561273f5761273f613ddf565b81526020019081526020016000206000846001600160a01b03166001600160a01b0316815260200190815260200160002054116127f15760006015866040516127889190613f85565b908152602001604051809103902060008660028111156127aa576127aa613ddf565b60028111156127bb576127bb613ddf565b8152602080820192909252604090810160009081206001600160a01b03871682529092529020805460ff19169115159190911790555b5050505050565b60006128048383612f34565b6040805160018082528183019092529192506000919060208083019080368337019050509050818160008151811061283e5761283e614147565b6020026020010190600281111561285757612857613ddf565b9081600281111561286a5761286a613ddf565b905250600061287883612fe7565b9050600061288686846130fd565b9050600061289487846130fd565b905060006128a282846140a1565b90506128b08887858461314d565b6128ba88856135fb565b5050505050505050565b6019826040516128d49190613f85565b908152602001604051809103902054811461105357806019836040516128fa9190613f85565b9081526020016040518091039020819055507f20af5e7c127dd84267ef67d2a1fa455b47bc60840459b4db987929e37daf07a3828260405161293d929190614125565b60405180910390a15050565b60408051602081018252600081529051601390612967908590613f85565b9081526020016040518091039020600083600281111561298957612989613ddf565b600281111561299a5761299a613ddf565b81526020810191909152604001600020610dc6916001613b40565b60005b6013836040516129c89190613f85565b908152602001604051809103902060008360028111156129ea576129ea613ddf565b60028111156129fb576129fb613ddf565b8152602081019190915260400160002054811015610dc6576000601384604051612a259190613f85565b90815260200160405180910390206000846002811115612a4757612a47613ddf565b6002811115612a5857612a58613ddf565b81526020019081526020016000208281548110612a7757612a77614147565b6000918252602090912001546040516001600160a01b039091169150601590612aa1908690613f85565b90815260200160405180910390206000846002811115612ac357612ac3613ddf565b6002811115612ad457612ad4613ddf565b8152602080820192909252604090810160009081206001600160a01b038516825290925290205460ff1615612b8a576000601685604051612b159190613f85565b90815260200160405180910390206000856002811115612b3757612b37613ddf565b6002811115612b4857612b48613ddf565b81526020019081526020016000206000836001600160a01b03166001600160a01b03168152602001908152602001600020549050612b8885858385611cd5565b505b5080612b958161415d565b9150506129b8565b604080518082019091526060815260006020820152612bbd60208361427e565b15612be557612bcd60208361427e565b612bd8906020613fb7565b612be290836140a1565b91505b506020828101829052604080518085526000815290920101905290565b60178167ffffffffffffffff1611612c2d57612c278360e0600585901b16831761363c565b50505050565b60ff8167ffffffffffffffff1611612c6b57612c54836018611fe0600586901b161761363c565b50612c278367ffffffffffffffff83166001613661565b61ffff8167ffffffffffffffff1611612caa57612c93836019611fe0600586901b161761363c565b50612c278367ffffffffffffffff83166002613661565b63ffffffff8167ffffffffffffffff1611612ceb57612cd483601a611fe0600586901b161761363c565b50612c278367ffffffffffffffff83166004613661565b612d0083601b611fe0600586901b161761363c565b50612c278367ffffffffffffffff83166008613661565b604080518082019091526060815260006020820152611b1783846000015151848551613687565b612d498260c361363c565b5061105382612d5a83600019614178565b604051602001612d6c91815260200190565b604051602081830303815290604052613771565b612d8b8260c261363c565b506110538282604051602001612d6c91815260200190565b6040516bffffffffffffffffffffffff193060601b1660208201526034810184905260009060540160408051808303601f1901815282825280516020918201206000818152600590925291812080546001600160a01b0319166001600160a01b038a1617905590925082917fb5e6e01e79f91267dc17b4e6314d5d4d03593d2ceee0fbb452b750bd70ea5af99190a26002546040517f4000aea00000000000000000000000000000000000000000000000000000000081526001600160a01b0390911690634000aea090612e7f90889087908790600401614292565b6020604051808303816000875af1158015612e9e573d6000803e3d6000fd5b505050506040513d601f19601f82011682018060405250810190612ec291906140e1565b6123625760405162461bcd60e51b815260206004820152602360248201527f756e61626c6520746f207472616e73666572416e6443616c6c20746f206f726160448201527f636c650000000000000000000000000000000000000000000000000000000000606482015260840161084a565b600081612f435750600061138a565b6001821415612f545750600161138a565b6002821415612f655750600261138a565b612f708360036117a5565b600083604051602001612f8391906142c3565b60405160208183030381529060405290507f2a2c16a3ce1dea0db612b14a8fdc9a8d316acc87914b4d66440d119b41e8615f8482604051612fc5929190614355565b60405180910390a18060405162461bcd60e51b815260040161084a9190613f48565b604080516002808252606080830184529260009291906020830190803683370190505090506000805b60038110156130f45784600281111561302b5761302b613ddf565b600c826003811061303e5761303e614147565b602081049091015460ff601f9092166101000a900416600281111561306557613065613ddf565b146130e257600c816003811061307d5761307d614147565b602091828204019190069054906101000a900460ff168383815181106130a5576130a5614147565b602002602001019060028111156130be576130be613ddf565b908160028111156130d1576130d1613ddf565b9052506130df6001836140a1565b91505b806130ec8161415d565b915050613010565b50909392505050565b60008060005b83518110156120625761312f8585838151811061312257613122614147565b6020026020010151611e87565b61313990836140a1565b9150806131458161415d565b915050613103565b600460188560405161315f9190613f85565b9081526040519081900360200190205460ff16600581111561318357613183613ddf565b146131d05760405162461bcd60e51b815260206004820152601960248201527f426574207374617465206e6f742046554c46494c4c494e472e00000000000000604482015260640161084a565b60005b6013856040516131e39190613f85565b9081526020016040518091039020600085600281111561320557613205613ddf565b600281111561321657613216613ddf565b81526020810191909152604001600020548110156134d75760006013866040516132409190613f85565b9081526020016040518091039020600086600281111561326257613262613ddf565b600281111561327357613273613ddf565b8152602001908152602001600020828154811061329257613292614147565b6000918252602090912001546040516001600160a01b0390911691506015906132bc908890613f85565b908152602001604051809103902060008660028111156132de576132de613ddf565b60028111156132ef576132ef613ddf565b8152602080820192909252604090810160009081206001600160a01b038516825290925290205460ff16156134c45760006016876040516133309190613f85565b9081526020016040518091039020600087600281111561335257613352613ddf565b600281111561336357613363613ddf565b81526020019081526020016000206000836001600160a01b03166001600160a01b031681526020019081526020016000205490506133a38787838561255f565b60006133af868661437a565b6133b9908361438e565b905060006064600f54836133cd919061438e565b6133d7919061437a565b90508060108a6040516133ea9190613f85565b9081526020016040518091039020600082825461340791906140a1565b9091555061341790508183613fb7565b91508160178a60405161342a9190613f85565b9081526040805191829003602090810183206001600160a01b0389166000818152919092529182209390935584156108fc02918591818181858888f1935050505015801561347c573d6000803e3d6000fd5b50836001600160a01b03167fc0acd5bc47ab9bd28274b4de553779f718ae53f42f84fe011e7eed61cda99cbd8a846040516134b8929190614125565b60405180910390a25050505b50806134cf8161415d565b9150506131d3565b506010846040516134e89190613f85565b9081526020016040518091039020546017856040516135079190613f85565b9081526040805160209281900383019020600d546001600160a01b0316600090815292528120805490919061353d9084906140a1565b9091555050600d546040516001600160a01b03909116906108fc90601090613566908890613f85565b90815260405190819003602001812054801590920291906000818181858888f1935050505015801561359c573d6000803e3d6000fd5b50600d546040516001600160a01b03909116907fc0acd5bc47ab9bd28274b4de553779f718ae53f42f84fe011e7eed61cda99cbd9086906010906135e1908390613f85565b90815260405190819003602001812054611d559291614125565b60005b8151811015610dc65761362a8383838151811061361d5761361d614147565b602002602001015161377e565b806136348161415d565b9150506135fe565b604080518082019091526060815260006020820152611b178384600001515184613966565b6040805180820190915260608152600060208201526123628485600001515185856139c2565b60408051808201909152606081526000602082015282518211156136aa57600080fd5b60208501516136b983866140a1565b11156136ec576136ec856136dc876020015187866136d791906140a1565b613a43565b6136e790600261438e565b613a5a565b60008086518051876020830101935080888701111561370b5787860182525b505050602084015b6020841061374b578051825261372a6020836140a1565b91506137376020826140a1565b9050613744602085613fb7565b9350613713565b51815160001960208690036101000a019081169019919091161790525083949350505050565b6123778260028351612c02565b60005b6013836040516137919190613f85565b908152602001604051809103902060008360028111156137b3576137b3613ddf565b60028111156137c4576137c4613ddf565b8152602081019190915260400160002054811015610dc65760006013846040516137ee9190613f85565b9081526020016040518091039020600084600281111561381057613810613ddf565b600281111561382157613821613ddf565b8152602001908152602001600020828154811061384057613840614147565b6000918252602090912001546040516001600160a01b03909116915060159061386a908690613f85565b9081526020016040518091039020600084600281111561388c5761388c613ddf565b600281111561389d5761389d613ddf565b8152602080820192909252604090810160009081206001600160a01b038516825290925290205460ff16156139535760006016856040516138de9190613f85565b9081526020016040518091039020600085600281111561390057613900613ddf565b600281111561391157613911613ddf565b81526020019081526020016000206000836001600160a01b03166001600160a01b031681526020019081526020016000205490506139518585838561255f565b505b508061395e8161415d565b915050613781565b6040805180820190915260608152600060208201528360200151831061399b5761399b84856020015160026136e7919061438e565b8351805160208583010184815350808514156139b8576001810182525b5093949350505050565b60408051808201909152606081526000602082015260208501516139e685846140a1565b11156139fa576139fa856136dc86856140a1565b60006001613a0a84610100614491565b613a149190613fb7565b9050855183868201018583198251161781525080518487011115613a385783860181525b509495945050505050565b600081831115613a5457508161138a565b50919050565b8151613a668383612b9d565b50612c278382612d17565b828054613a7d90613fce565b90600052602060002090601f016020900481019282613a9f5760008555613ae5565b82601f10613ab857805160ff1916838001178555613ae5565b82800160010185558215613ae5579182015b82811115613ae5578251825591602001919060010190613aca565b50613af1929150613b95565b5090565b60408051606081019091528060008152602001613b10613b22565b8152602001613b1d613b22565b905290565b60405180606001604052806003906020820280368337509192915050565b828054828255906000526020600020908101928215613ae5579160200282015b82811115613ae557825182546001600160a01b0319166001600160a01b03909116178255602090920191600190910190613b60565b5b80821115613af15760008155600101613b96565b634e487b7160e01b600052604160045260246000fd5b600082601f830112613bd157600080fd5b813567ffffffffffffffff80821115613bec57613bec613baa565b604051601f8301601f19908116603f01168101908282118183101715613c1457613c14613baa565b81604052838152866020858801011115613c2d57600080fd5b836020870160208301376000602085830101528094505050505092915050565b600060208284031215613c5f57600080fd5b813567ffffffffffffffff811115613c7657600080fd5b61236284828501613bc0565b80356001600160a01b0381168114610ab457600080fd5b600060208284031215613cab57600080fd5b611b1782613c82565b803560038110610ab457600080fd5b60008060408385031215613cd657600080fd5b823567ffffffffffffffff811115613ced57600080fd5b613cf985828601613bc0565b925050613d0860208401613cb4565b90509250929050565b600080600060608486031215613d2657600080fd5b833567ffffffffffffffff811115613d3d57600080fd5b613d4986828701613bc0565b935050613d5860208501613cb4565b9150604084013590509250925092565b600080600060608486031215613d7d57600080fd5b833567ffffffffffffffff811115613d9457600080fd5b613da086828701613bc0565b935050613daf60208501613cb4565b9150613dbd60408501613c82565b90509250925092565b600060208284031215613dd857600080fd5b5035919050565b634e487b7160e01b600052602160045260246000fd5b60038110613e0557613e05613ddf565b9052565b6020810161138a8284613df5565b60008060408385031215613e2a57600080fd5b823567ffffffffffffffff811115613e4157600080fd5b613e4d85828601613bc0565b925050613d0860208401613c82565b60008060408385031215613e6f57600080fd5b50508035926020909101359150565b60068110613e0557613e05613ddf565b8060005b6003811015612c27578151845260209384019390910190600101613e92565b600060e082019050613ec4828451613e7e565b6020830151613ed66020840182613e8e565b506040830151613ee96080840182613e8e565b5092915050565b60005b83811015613f0b578181015183820152602001613ef3565b83811115612c275750506000910152565b60008151808452613f34816020860160208601613ef0565b601f01601f19169290920160200192915050565b602081526000611b176020830184613f1c565b6020810161138a8284613e7e565b60008151613f7b818560208601613ef0565b9290920192915050565b60008251613f97818460208701613ef0565b9190910192915050565b634e487b7160e01b600052601160045260246000fd5b600082821015613fc957613fc9613fa1565b500390565b600181811c90821680613fe257607f821691505b60208210811415613a5457634e487b7160e01b600052602260045260246000fd5b600080845481600182811c91508083168061401f57607f831692505b602080841082141561403f57634e487b7160e01b86526022600452602486fd5b818015614053576001811461406457614091565b60ff19861689528489019650614091565b60008b81526020902060005b868110156140895781548b820152908501908301614070565b505084890196505b505050505050611b138185613f69565b600082198211156140b4576140b4613fa1565b500190565b6060815260006140cc6060830186613f1c565b90508360208301526123626040830184613df5565b6000602082840312156140f357600080fd5b81518015158114611b1757600080fd5b6040815260006141166040830185613f1c565b9050611b176020830184613e7e565b6040815260006141386040830185613f1c565b90508260208301529392505050565b634e487b7160e01b600052603260045260246000fd5b600060001982141561417157614171613fa1565b5060010190565b6000808312837f8000000000000000000000000000000000000000000000000000000000000000018312811516156141b2576141b2613fa1565b837f7fffffffffffffffffffffffffffffffffffffffffffffffffffffffffffffff0183138116156141e6576141e6613fa1565b50500390565b60006101006001600160a01b03808c1684528a60208501528960408501528089166060850152507fffffffff00000000000000000000000000000000000000000000000000000000871660808401528560a08401528460c08401528060e084015261425981840185613f1c565b9b9a5050505050505050505050565b634e487b7160e01b600052601260045260246000fd5b60008261428d5761428d614268565b500690565b6001600160a01b03841681528260208201526060604082015260006142ba6060830184613f1c565b95945050505050565b7f4572726f72206f6e2066697874757265200000000000000000000000000000008152600082516142fb816011850160208701613ef0565b7f3a20556e6b6e6f776e206669787475726520726573756c742066726f6d20415060119390910192830152507f49000000000000000000000000000000000000000000000000000000000000006031820152603201919050565b6040815260006143686040830185613f1c565b8281036020840152611b138185613f1c565b60008261438957614389614268565b500490565b60008160001904831182151516156143a8576143a8613fa1565b500290565b600181815b808511156143e85781600019048211156143ce576143ce613fa1565b808516156143db57918102915b93841c93908002906143b2565b509250929050565b6000826143ff5750600161138a565b8161440c5750600061138a565b8160018114614422576002811461442c57614448565b600191505061138a565b60ff84111561443d5761443d613fa1565b50506001821b61138a565b5060208310610133831016604e8410600b841016171561446b575081810a61138a565b61447583836143ad565b806000190482111561448957614489613fa1565b029392505050565b6000611b1783836143f056fea264697066735822122017de9dd2b5018fa47c33e5fbd55d708f6c36f957fa32ea002127b9e0ccea962e64736f6c634300080c0033",
  "devdoc": {
    "kind": "dev",
    "methods": {},
    "version": 1
  },
  "userdoc": {
    "kind": "user",
    "methods": {
      "requestFixtureKickoffTimeParameter(string)": {
        "notice": "Request fixture kickoff time from the oracle in a single transaction"
      },
      "requestFixtureResultParameter(string)": {
        "notice": "Request fixture result from the oracle in a single transaction"
      },
      "withdrawLink(uint256)": {
        "notice": "Allow withdraw of Link tokens from the contract"
      }
    },
    "version": 1
  },
  "storageLayout": {
    "storage": [
      {
        "astId": 319,
        "contract": "contracts/SportsBetting.sol:SportsBetting",
        "label": "s_ens",
        "offset": 0,
        "slot": "0",
        "type": "t_contract(ENSInterface)974"
      },
      {
        "astId": 321,
        "contract": "contracts/SportsBetting.sol:SportsBetting",
        "label": "s_ensNode",
        "offset": 0,
        "slot": "1",
        "type": "t_bytes32"
      },
      {
        "astId": 324,
        "contract": "contracts/SportsBetting.sol:SportsBetting",
        "label": "s_link",
        "offset": 0,
        "slot": "2",
        "type": "t_contract(LinkTokenInterface)1069"
      },
      {
        "astId": 327,
        "contract": "contracts/SportsBetting.sol:SportsBetting",
        "label": "s_oracle",
        "offset": 0,
        "slot": "3",
        "type": "t_contract(OperatorInterface)1149"
      },
      {
        "astId": 330,
        "contract": "contracts/SportsBetting.sol:SportsBetting",
        "label": "s_requestCount",
        "offset": 0,
        "slot": "4",
        "type": "t_uint256"
      },
      {
        "astId": 334,
        "contract": "contracts/SportsBetting.sol:SportsBetting",
        "label": "s_pendingRequests",
        "offset": 0,
        "slot": "5",
        "type": "t_mapping(t_bytes32,t_address)"
      },
      {
        "astId": 3883,
        "contract": "contracts/SportsBetting.sol:SportsBetting",
        "label": "chainlink",
        "offset": 0,
        "slot": "6",
        "type": "t_address"
      },
      {
        "astId": 3885,
        "contract": "contracts/SportsBetting.sol:SportsBetting",
        "label": "sportsOracleURI",
        "offset": 0,
        "slot": "7",
        "type": "t_string_storage"
      },
      {
        "astId": 3887,
        "contract": "contracts/SportsBetting.sol:SportsBetting",
        "label": "jobId",
        "offset": 0,
        "slot": "8",
        "type": "t_bytes32"
      },
      {
        "astId": 3889,
        "contract": "contracts/SportsBetting.sol:SportsBetting",
        "label": "fee",
        "offset": 0,
        "slot": "9",
        "type": "t_uint256"
      },
      {
        "astId": 3891,
        "contract": "contracts/SportsBetting.sol:SportsBetting",
        "label": "fixtureResult",
        "offset": 0,
        "slot": "10",
        "type": "t_string_storage"
      },
      {
        "astId": 3895,
        "contract": "contracts/SportsBetting.sol:SportsBetting",
        "label": "userToLink",
        "offset": 0,
        "slot": "11",
        "type": "t_mapping(t_address,t_uint256)"
      },
      {
        "astId": 2258,
        "contract": "contracts/SportsBetting.sol:SportsBetting",
        "label": "betTypes",
        "offset": 0,
        "slot": "12",
        "type": "t_array(t_enum(BetType)2185)3_storage"
      },
      {
        "astId": 2260,
        "contract": "contracts/SportsBetting.sol:SportsBetting",
        "label": "owner",
        "offset": 0,
        "slot": "13",
        "type": "t_address"
      },
      {
        "astId": 2265,
        "contract": "contracts/SportsBetting.sol:SportsBetting",
        "label": "entranceFee",
        "offset": 0,
        "slot": "14",
        "type": "t_uint256"
      },
      {
        "astId": 2267,
        "contract": "contracts/SportsBetting.sol:SportsBetting",
        "label": "commissionRate",
        "offset": 0,
        "slot": "15",
        "type": "t_uint256"
      },
      {
        "astId": 2271,
        "contract": "contracts/SportsBetting.sol:SportsBetting",
        "label": "commissionMap",
        "offset": 0,
        "slot": "16",
        "type": "t_mapping(t_string_memory_ptr,t_uint256)"
      },
      {
        "astId": 2280,
        "contract": "contracts/SportsBetting.sol:SportsBetting",
        "label": "betAdvanceTime",
        "offset": 0,
        "slot": "17",
        "type": "t_uint256"
      },
      {
        "astId": 2285,
        "contract": "contracts/SportsBetting.sol:SportsBetting",
        "label": "betCutOffTime",
        "offset": 0,
        "slot": "18",
        "type": "t_uint256"
      },
      {
        "astId": 2293,
        "contract": "contracts/SportsBetting.sol:SportsBetting",
        "label": "historicalBetters",
        "offset": 0,
        "slot": "19",
        "type": "t_mapping(t_string_memory_ptr,t_mapping(t_enum(BetType)2185,t_array(t_address)dyn_storage))"
      },
      {
        "astId": 2302,
        "contract": "contracts/SportsBetting.sol:SportsBetting",
        "label": "historicalBettersIndex",
        "offset": 0,
        "slot": "20",
        "type": "t_mapping(t_string_memory_ptr,t_mapping(t_enum(BetType)2185,t_mapping(t_address,t_uint256)))"
      },
      {
        "astId": 2311,
        "contract": "contracts/SportsBetting.sol:SportsBetting",
        "label": "activeBetters",
        "offset": 0,
        "slot": "21",
        "type": "t_mapping(t_string_memory_ptr,t_mapping(t_enum(BetType)2185,t_mapping(t_address,t_bool)))"
      },
      {
        "astId": 2320,
        "contract": "contracts/SportsBetting.sol:SportsBetting",
        "label": "amounts",
        "offset": 0,
        "slot": "22",
        "type": "t_mapping(t_string_memory_ptr,t_mapping(t_enum(BetType)2185,t_mapping(t_address,t_uint256)))"
      },
      {
        "astId": 2326,
        "contract": "contracts/SportsBetting.sol:SportsBetting",
        "label": "payouts",
        "offset": 0,
        "slot": "23",
        "type": "t_mapping(t_string_memory_ptr,t_mapping(t_address,t_uint256))"
      },
      {
        "astId": 2331,
        "contract": "contracts/SportsBetting.sol:SportsBetting",
        "label": "bettingState",
        "offset": 0,
        "slot": "24",
        "type": "t_mapping(t_string_memory_ptr,t_enum(BettingState)2192)"
      },
      {
        "astId": 2335,
        "contract": "contracts/SportsBetting.sol:SportsBetting",
        "label": "fixtureToKickoffTime",
        "offset": 0,
        "slot": "25",
        "type": "t_mapping(t_string_memory_ptr,t_uint256)"
      },
      {
        "astId": 2339,
        "contract": "contracts/SportsBetting.sol:SportsBetting",
        "label": "requestKickoffToFixture",
        "offset": 0,
        "slot": "26",
        "type": "t_mapping(t_bytes32,t_string_storage)"
      },
      {
        "astId": 2343,
        "contract": "contracts/SportsBetting.sol:SportsBetting",
        "label": "requestResultToFixture",
        "offset": 0,
        "slot": "27",
        "type": "t_mapping(t_bytes32,t_string_storage)"
      }
    ],
    "types": {
      "t_address": {
        "encoding": "inplace",
        "label": "address",
        "numberOfBytes": "20"
      },
      "t_array(t_address)dyn_storage": {
        "base": "t_address",
        "encoding": "dynamic_array",
        "label": "address[]",
        "numberOfBytes": "32"
      },
      "t_array(t_enum(BetType)2185)3_storage": {
        "base": "t_enum(BetType)2185",
        "encoding": "inplace",
        "label": "enum SportsBetting.BetType[3]",
        "numberOfBytes": "32"
      },
      "t_bool": {
        "encoding": "inplace",
        "label": "bool",
        "numberOfBytes": "1"
      },
      "t_bytes32": {
        "encoding": "inplace",
        "label": "bytes32",
        "numberOfBytes": "32"
      },
      "t_contract(ENSInterface)974": {
        "encoding": "inplace",
        "label": "contract ENSInterface",
        "numberOfBytes": "20"
      },
      "t_contract(LinkTokenInterface)1069": {
        "encoding": "inplace",
        "label": "contract LinkTokenInterface",
        "numberOfBytes": "20"
      },
      "t_contract(OperatorInterface)1149": {
        "encoding": "inplace",
        "label": "contract OperatorInterface",
        "numberOfBytes": "20"
      },
      "t_enum(BetType)2185": {
        "encoding": "inplace",
        "label": "enum SportsBetting.BetType",
        "numberOfBytes": "1"
      },
      "t_enum(BettingState)2192": {
        "encoding": "inplace",
        "label": "enum SportsBetting.BettingState",
        "numberOfBytes": "1"
      },
      "t_mapping(t_address,t_bool)": {
        "encoding": "mapping",
        "key": "t_address",
        "label": "mapping(address => bool)",
        "numberOfBytes": "32",
        "value": "t_bool"
      },
      "t_mapping(t_address,t_uint256)": {
        "encoding": "mapping",
        "key": "t_address",
        "label": "mapping(address => uint256)",
        "numberOfBytes": "32",
        "value": "t_uint256"
      },
      "t_mapping(t_bytes32,t_address)": {
        "encoding": "mapping",
        "key": "t_bytes32",
        "label": "mapping(bytes32 => address)",
        "numberOfBytes": "32",
        "value": "t_address"
      },
      "t_mapping(t_bytes32,t_string_storage)": {
        "encoding": "mapping",
        "key": "t_bytes32",
        "label": "mapping(bytes32 => string)",
        "numberOfBytes": "32",
        "value": "t_string_storage"
      },
      "t_mapping(t_enum(BetType)2185,t_array(t_address)dyn_storage)": {
        "encoding": "mapping",
        "key": "t_enum(BetType)2185",
        "label": "mapping(enum SportsBetting.BetType => address[])",
        "numberOfBytes": "32",
        "value": "t_array(t_address)dyn_storage"
      },
      "t_mapping(t_enum(BetType)2185,t_mapping(t_address,t_bool))": {
        "encoding": "mapping",
        "key": "t_enum(BetType)2185",
        "label": "mapping(enum SportsBetting.BetType => mapping(address => bool))",
        "numberOfBytes": "32",
        "value": "t_mapping(t_address,t_bool)"
      },
      "t_mapping(t_enum(BetType)2185,t_mapping(t_address,t_uint256))": {
        "encoding": "mapping",
        "key": "t_enum(BetType)2185",
        "label": "mapping(enum SportsBetting.BetType => mapping(address => uint256))",
        "numberOfBytes": "32",
        "value": "t_mapping(t_address,t_uint256)"
      },
      "t_mapping(t_string_memory_ptr,t_enum(BettingState)2192)": {
        "encoding": "mapping",
        "key": "t_string_memory_ptr",
        "label": "mapping(string => enum SportsBetting.BettingState)",
        "numberOfBytes": "32",
        "value": "t_enum(BettingState)2192"
      },
      "t_mapping(t_string_memory_ptr,t_mapping(t_address,t_uint256))": {
        "encoding": "mapping",
        "key": "t_string_memory_ptr",
        "label": "mapping(string => mapping(address => uint256))",
        "numberOfBytes": "32",
        "value": "t_mapping(t_address,t_uint256)"
      },
      "t_mapping(t_string_memory_ptr,t_mapping(t_enum(BetType)2185,t_array(t_address)dyn_storage))": {
        "encoding": "mapping",
        "key": "t_string_memory_ptr",
        "label": "mapping(string => mapping(enum SportsBetting.BetType => address[]))",
        "numberOfBytes": "32",
        "value": "t_mapping(t_enum(BetType)2185,t_array(t_address)dyn_storage)"
      },
      "t_mapping(t_string_memory_ptr,t_mapping(t_enum(BetType)2185,t_mapping(t_address,t_bool)))": {
        "encoding": "mapping",
        "key": "t_string_memory_ptr",
        "label": "mapping(string => mapping(enum SportsBetting.BetType => mapping(address => bool)))",
        "numberOfBytes": "32",
        "value": "t_mapping(t_enum(BetType)2185,t_mapping(t_address,t_bool))"
      },
      "t_mapping(t_string_memory_ptr,t_mapping(t_enum(BetType)2185,t_mapping(t_address,t_uint256)))": {
        "encoding": "mapping",
        "key": "t_string_memory_ptr",
        "label": "mapping(string => mapping(enum SportsBetting.BetType => mapping(address => uint256)))",
        "numberOfBytes": "32",
        "value": "t_mapping(t_enum(BetType)2185,t_mapping(t_address,t_uint256))"
      },
      "t_mapping(t_string_memory_ptr,t_uint256)": {
        "encoding": "mapping",
        "key": "t_string_memory_ptr",
        "label": "mapping(string => uint256)",
        "numberOfBytes": "32",
        "value": "t_uint256"
      },
      "t_string_memory_ptr": {
        "encoding": "bytes",
        "label": "string",
        "numberOfBytes": "32"
      },
      "t_string_storage": {
        "encoding": "bytes",
        "label": "string",
        "numberOfBytes": "32"
      },
      "t_uint256": {
        "encoding": "inplace",
        "label": "uint256",
        "numberOfBytes": "32"
      }
    }
  }
}